{
    "contractName": "ChargedParticles",
    "abi": [
        {
            "anonymous": false,
            "inputs": [
                {
                    "indexed": true,
                    "internalType": "address",
                    "name": "_sender",
                    "type": "address"
                },
                {
                    "indexed": true,
                    "internalType": "address",
                    "name": "_receiver",
                    "type": "address"
                },
                {
                    "indexed": false,
                    "internalType": "uint256",
                    "name": "_amount",
                    "type": "uint256"
                }
            ],
            "name": "ContractFeesWithdrawn",
            "type": "event"
        },
        {
            "anonymous": false,
            "inputs": [
                {
                    "indexed": true,
                    "internalType": "address",
                    "name": "_sender",
                    "type": "address"
                },
                {
                    "indexed": true,
                    "internalType": "address",
                    "name": "_receiver",
                    "type": "address"
                },
                {
                    "indexed": false,
                    "internalType": "uint256",
                    "name": "_amount",
                    "type": "uint256"
                }
            ],
            "name": "CreatorFeesWithdrawn",
            "type": "event"
        },
        {
            "anonymous": false,
            "inputs": [
                {
                    "indexed": true,
                    "internalType": "address",
                    "name": "previousOwner",
                    "type": "address"
                },
                {
                    "indexed": true,
                    "internalType": "address",
                    "name": "newOwner",
                    "type": "address"
                }
            ],
            "name": "OwnershipTransferred",
            "type": "event"
        },
        {
            "anonymous": false,
            "inputs": [
                {
                    "indexed": true,
                    "internalType": "address",
                    "name": "_from",
                    "type": "address"
                },
                {
                    "indexed": true,
                    "internalType": "uint256",
                    "name": "_tokenId",
                    "type": "uint256"
                }
            ],
            "name": "ParticleBurned",
            "type": "event"
        },
        {
            "anonymous": false,
            "inputs": [
                {
                    "indexed": true,
                    "internalType": "address",
                    "name": "_sender",
                    "type": "address"
                },
                {
                    "indexed": true,
                    "internalType": "address",
                    "name": "_receiver",
                    "type": "address"
                },
                {
                    "indexed": true,
                    "internalType": "uint256",
                    "name": "_tokenId",
                    "type": "uint256"
                },
                {
                    "indexed": false,
                    "internalType": "string",
                    "name": "_uri",
                    "type": "string"
                }
            ],
            "name": "ParticleMinted",
            "type": "event"
        },
        {
            "anonymous": false,
            "inputs": [
                {
                    "indexed": true,
                    "internalType": "uint256",
                    "name": "_particleTypeId",
                    "type": "uint256"
                },
                {
                    "indexed": true,
                    "internalType": "string",
                    "name": "_symbol",
                    "type": "string"
                },
                {
                    "indexed": true,
                    "internalType": "bool",
                    "name": "_isPrivate",
                    "type": "bool"
                },
                {
                    "indexed": false,
                    "internalType": "bool",
                    "name": "_isSeries",
                    "type": "bool"
                },
                {
                    "indexed": false,
                    "internalType": "string",
                    "name": "_assetPairId",
                    "type": "string"
                },
                {
                    "indexed": false,
                    "internalType": "uint256",
                    "name": "_energizeFee",
                    "type": "uint256"
                },
                {
                    "indexed": false,
                    "internalType": "string",
                    "name": "_uri",
                    "type": "string"
                }
            ],
            "name": "ParticleTypeUpdated",
            "type": "event"
        },
        {
            "anonymous": false,
            "inputs": [
                {
                    "indexed": true,
                    "internalType": "address",
                    "name": "_from",
                    "type": "address"
                },
                {
                    "indexed": true,
                    "internalType": "uint256",
                    "name": "_typeId",
                    "type": "uint256"
                },
                {
                    "indexed": false,
                    "internalType": "uint256",
                    "name": "_amount",
                    "type": "uint256"
                }
            ],
            "name": "PlasmaBurned",
            "type": "event"
        },
        {
            "anonymous": false,
            "inputs": [
                {
                    "indexed": true,
                    "internalType": "address",
                    "name": "_sender",
                    "type": "address"
                },
                {
                    "indexed": true,
                    "internalType": "address",
                    "name": "_receiver",
                    "type": "address"
                },
                {
                    "indexed": true,
                    "internalType": "uint256",
                    "name": "_typeId",
                    "type": "uint256"
                },
                {
                    "indexed": false,
                    "internalType": "uint256",
                    "name": "_amount",
                    "type": "uint256"
                }
            ],
            "name": "PlasmaMinted",
            "type": "event"
        },
        {
            "anonymous": false,
            "inputs": [
                {
                    "indexed": true,
                    "internalType": "uint256",
                    "name": "_plasmaTypeId",
                    "type": "uint256"
                },
                {
                    "indexed": true,
                    "internalType": "string",
                    "name": "_symbol",
                    "type": "string"
                },
                {
                    "indexed": true,
                    "internalType": "bool",
                    "name": "_isPrivate",
                    "type": "bool"
                },
                {
                    "indexed": false,
                    "internalType": "uint256",
                    "name": "_initialMint",
                    "type": "uint256"
                },
                {
                    "indexed": false,
                    "internalType": "string",
                    "name": "_uri",
                    "type": "string"
                }
            ],
            "name": "PlasmaTypeUpdated",
            "type": "event"
        },
        {
            "constant": true,
            "inputs": [
                {
                    "internalType": "uint256",
                    "name": "_tokenId",
                    "type": "uint256"
                }
            ],
            "name": "baseParticleMass",
            "outputs": [
                {
                    "internalType": "uint256",
                    "name": "",
                    "type": "uint256"
                }
            ],
            "payable": false,
            "stateMutability": "view",
            "type": "function"
        },
        {
            "constant": false,
            "inputs": [
                {
                    "internalType": "uint256",
                    "name": "_tokenId",
                    "type": "uint256"
                }
            ],
            "name": "burnParticle",
            "outputs": [],
            "payable": false,
            "stateMutability": "nonpayable",
            "type": "function"
        },
        {
            "constant": false,
            "inputs": [
                {
                    "internalType": "uint256",
                    "name": "_typeId",
                    "type": "uint256"
                },
                {
                    "internalType": "uint256",
                    "name": "_amount",
                    "type": "uint256"
                }
            ],
            "name": "burnPlasma",
            "outputs": [],
            "payable": false,
            "stateMutability": "nonpayable",
            "type": "function"
        },
        {
            "constant": true,
            "inputs": [
                {
                    "internalType": "uint256",
                    "name": "_typeId",
                    "type": "uint256"
                },
                {
                    "internalType": "uint256",
                    "name": "_amount",
                    "type": "uint256"
                }
            ],
            "name": "canMint",
            "outputs": [
                {
                    "internalType": "bool",
                    "name": "",
                    "type": "bool"
                }
            ],
            "payable": false,
            "stateMutability": "view",
            "type": "function"
        },
        {
            "constant": false,
            "inputs": [
                {
                    "internalType": "string",
                    "name": "_name",
                    "type": "string"
                },
                {
                    "internalType": "string",
                    "name": "_uri",
                    "type": "string"
                },
                {
                    "internalType": "string",
                    "name": "_symbol",
                    "type": "string"
                },
                {
                    "internalType": "uint8",
                    "name": "_accessType",
                    "type": "uint8"
                },
                {
                    "internalType": "string",
                    "name": "_assetPairId",
                    "type": "string"
                },
                {
                    "internalType": "uint256",
                    "name": "_maxSupply",
                    "type": "uint256"
                },
                {
                    "internalType": "uint256",
                    "name": "_mintFee",
                    "type": "uint256"
                },
                {
                    "internalType": "uint256",
                    "name": "_energizeFee",
                    "type": "uint256"
                },
                {
                    "internalType": "bool",
                    "name": "_payWithIons",
                    "type": "bool"
                }
            ],
            "name": "createParticle",
            "outputs": [
                {
                    "internalType": "uint256",
                    "name": "_particleTypeId",
                    "type": "uint256"
                }
            ],
            "payable": true,
            "stateMutability": "payable",
            "type": "function"
        },
        {
            "constant": false,
            "inputs": [
                {
                    "internalType": "string",
                    "name": "_name",
                    "type": "string"
                },
                {
                    "internalType": "string",
                    "name": "_uri",
                    "type": "string"
                },
                {
                    "internalType": "string",
                    "name": "_symbol",
                    "type": "string"
                },
                {
                    "internalType": "bool",
                    "name": "_isPrivate",
                    "type": "bool"
                },
                {
                    "internalType": "uint256",
                    "name": "_maxSupply",
                    "type": "uint256"
                },
                {
                    "internalType": "uint256",
                    "name": "_mintFee",
                    "type": "uint256"
                },
                {
                    "internalType": "uint256",
                    "name": "_initialMint",
                    "type": "uint256"
                },
                {
                    "internalType": "bool",
                    "name": "_payWithIons",
                    "type": "bool"
                }
            ],
            "name": "createPlasma",
            "outputs": [
                {
                    "internalType": "uint256",
                    "name": "_plasmaTypeId",
                    "type": "uint256"
                }
            ],
            "payable": true,
            "stateMutability": "payable",
            "type": "function"
        },
        {
            "constant": false,
            "inputs": [
                {
                    "internalType": "uint256",
                    "name": "_tokenId",
                    "type": "uint256"
                }
            ],
            "name": "currentParticleCharge",
            "outputs": [
                {
                    "internalType": "uint256",
                    "name": "",
                    "type": "uint256"
                }
            ],
            "payable": false,
            "stateMutability": "nonpayable",
            "type": "function"
        },
        {
            "constant": false,
            "inputs": [
                {
                    "internalType": "string",
                    "name": "_assetPairId",
                    "type": "string"
                }
            ],
            "name": "disableAssetPair",
            "outputs": [],
            "payable": false,
            "stateMutability": "nonpayable",
            "type": "function"
        },
        {
            "constant": false,
            "inputs": [
                {
                    "internalType": "address",
                    "name": "_receiver",
                    "type": "address"
                },
                {
                    "internalType": "uint256",
                    "name": "_tokenId",
                    "type": "uint256"
                }
            ],
            "name": "dischargeParticle",
            "outputs": [
                {
                    "internalType": "uint256",
                    "name": "",
                    "type": "uint256"
                },
                {
                    "internalType": "uint256",
                    "name": "",
                    "type": "uint256"
                }
            ],
            "payable": false,
            "stateMutability": "nonpayable",
            "type": "function"
        },
        {
            "constant": false,
            "inputs": [
                {
                    "internalType": "address",
                    "name": "_receiver",
                    "type": "address"
                },
                {
                    "internalType": "uint256",
                    "name": "_tokenId",
                    "type": "uint256"
                },
                {
                    "internalType": "uint256",
                    "name": "_assetAmount",
                    "type": "uint256"
                }
            ],
            "name": "dischargeParticle",
            "outputs": [
                {
                    "internalType": "uint256",
                    "name": "",
                    "type": "uint256"
                },
                {
                    "internalType": "uint256",
                    "name": "",
                    "type": "uint256"
                }
            ],
            "payable": false,
            "stateMutability": "nonpayable",
            "type": "function"
        },
        {
            "constant": false,
            "inputs": [
                {
                    "internalType": "uint256",
                    "name": "_tokenId",
                    "type": "uint256"
                },
                {
                    "internalType": "uint256",
                    "name": "_assetAmount",
                    "type": "uint256"
                }
            ],
            "name": "energizeParticle",
            "outputs": [
                {
                    "internalType": "uint256",
                    "name": "",
                    "type": "uint256"
                }
            ],
            "payable": false,
            "stateMutability": "nonpayable",
            "type": "function"
        },
        {
            "constant": true,
            "inputs": [
                {
                    "internalType": "bool",
                    "name": "_isNF",
                    "type": "bool"
                }
            ],
            "name": "getCreationPrice",
            "outputs": [
                {
                    "internalType": "uint256",
                    "name": "_eth",
                    "type": "uint256"
                },
                {
                    "internalType": "uint256",
                    "name": "_ion",
                    "type": "uint256"
                }
            ],
            "payable": false,
            "stateMutability": "view",
            "type": "function"
        },
        {
            "constant": true,
            "inputs": [
                {
                    "internalType": "uint256",
                    "name": "_typeId",
                    "type": "uint256"
                }
            ],
            "name": "getMaxSupply",
            "outputs": [
                {
                    "internalType": "uint256",
                    "name": "",
                    "type": "uint256"
                }
            ],
            "payable": false,
            "stateMutability": "view",
            "type": "function"
        },
        {
            "constant": true,
            "inputs": [
                {
                    "internalType": "uint256",
                    "name": "_typeId",
                    "type": "uint256"
                }
            ],
            "name": "getMintingFee",
            "outputs": [
                {
                    "internalType": "uint256",
                    "name": "",
                    "type": "uint256"
                }
            ],
            "payable": false,
            "stateMutability": "view",
            "type": "function"
        },
        {
            "constant": true,
            "inputs": [
                {
                    "internalType": "uint256",
                    "name": "_tokenId",
                    "type": "uint256"
                }
            ],
            "name": "getSeriesNumber",
            "outputs": [
                {
                    "internalType": "uint256",
                    "name": "",
                    "type": "uint256"
                }
            ],
            "payable": false,
            "stateMutability": "view",
            "type": "function"
        },
        {
            "constant": true,
            "inputs": [
                {
                    "internalType": "uint256",
                    "name": "_typeId",
                    "type": "uint256"
                }
            ],
            "name": "getTotalMinted",
            "outputs": [
                {
                    "internalType": "uint256",
                    "name": "",
                    "type": "uint256"
                }
            ],
            "payable": false,
            "stateMutability": "view",
            "type": "function"
        },
        {
            "constant": true,
            "inputs": [
                {
                    "internalType": "uint256",
                    "name": "_typeId",
                    "type": "uint256"
                }
            ],
            "name": "getTypeCreator",
            "outputs": [
                {
                    "internalType": "address",
                    "name": "",
                    "type": "address"
                }
            ],
            "payable": false,
            "stateMutability": "view",
            "type": "function"
        },
        {
            "constant": true,
            "inputs": [
                {
                    "internalType": "uint256",
                    "name": "_typeId",
                    "type": "uint256"
                }
            ],
            "name": "getTypeTokenBridge",
            "outputs": [
                {
                    "internalType": "address",
                    "name": "",
                    "type": "address"
                }
            ],
            "payable": false,
            "stateMutability": "view",
            "type": "function"
        },
        {
            "constant": false,
            "inputs": [],
            "name": "initialize",
            "outputs": [],
            "payable": false,
            "stateMutability": "nonpayable",
            "type": "function"
        },
        {
            "constant": false,
            "inputs": [
                {
                    "internalType": "address",
                    "name": "sender",
                    "type": "address"
                }
            ],
            "name": "initialize",
            "outputs": [],
            "payable": false,
            "stateMutability": "nonpayable",
            "type": "function"
        },
        {
            "constant": true,
            "inputs": [],
            "name": "isOwner",
            "outputs": [
                {
                    "internalType": "bool",
                    "name": "",
                    "type": "bool"
                }
            ],
            "payable": false,
            "stateMutability": "view",
            "type": "function"
        },
        {
            "constant": false,
            "inputs": [
                {
                    "internalType": "string",
                    "name": "_uri",
                    "type": "string"
                },
                {
                    "internalType": "uint256",
                    "name": "_maxSupply",
                    "type": "uint256"
                },
                {
                    "internalType": "uint256",
                    "name": "_amount",
                    "type": "uint256"
                },
                {
                    "internalType": "uint256",
                    "name": "_mintFee",
                    "type": "uint256"
                }
            ],
            "name": "mintIons",
            "outputs": [
                {
                    "internalType": "uint256",
                    "name": "",
                    "type": "uint256"
                }
            ],
            "payable": false,
            "stateMutability": "nonpayable",
            "type": "function"
        },
        {
            "constant": false,
            "inputs": [
                {
                    "internalType": "address",
                    "name": "_to",
                    "type": "address"
                },
                {
                    "internalType": "uint256",
                    "name": "_typeId",
                    "type": "uint256"
                },
                {
                    "internalType": "uint256",
                    "name": "_assetAmount",
                    "type": "uint256"
                },
                {
                    "internalType": "string",
                    "name": "_uri",
                    "type": "string"
                },
                {
                    "internalType": "bytes",
                    "name": "_data",
                    "type": "bytes"
                }
            ],
            "name": "mintParticle",
            "outputs": [
                {
                    "internalType": "uint256",
                    "name": "",
                    "type": "uint256"
                }
            ],
            "payable": true,
            "stateMutability": "payable",
            "type": "function"
        },
        {
            "constant": false,
            "inputs": [
                {
                    "internalType": "address",
                    "name": "_to",
                    "type": "address"
                },
                {
                    "internalType": "uint256",
                    "name": "_typeId",
                    "type": "uint256"
                },
                {
                    "internalType": "uint256",
                    "name": "_amount",
                    "type": "uint256"
                },
                {
                    "internalType": "bytes",
                    "name": "_data",
                    "type": "bytes"
                }
            ],
            "name": "mintPlasma",
            "outputs": [],
            "payable": true,
            "stateMutability": "payable",
            "type": "function"
        },
        {
            "constant": true,
            "inputs": [],
            "name": "owner",
            "outputs": [
                {
                    "internalType": "address",
                    "name": "",
                    "type": "address"
                }
            ],
            "payable": false,
            "stateMutability": "view",
            "type": "function"
        },
        {
            "constant": false,
            "inputs": [
                {
                    "internalType": "string",
                    "name": "_assetPairId",
                    "type": "string"
                }
            ],
            "name": "registerAssetPair",
            "outputs": [],
            "payable": false,
            "stateMutability": "nonpayable",
            "type": "function"
        },
        {
            "constant": false,
            "inputs": [
                {
                    "internalType": "address",
                    "name": "_escrowAddress",
                    "type": "address"
                }
            ],
            "name": "registerEscrow",
            "outputs": [],
            "payable": false,
            "stateMutability": "nonpayable",
            "type": "function"
        },
        {
            "constant": false,
            "inputs": [
                {
                    "internalType": "address",
                    "name": "_tokenMgr",
                    "type": "address"
                }
            ],
            "name": "registerTokenManager",
            "outputs": [],
            "payable": false,
            "stateMutability": "nonpayable",
            "type": "function"
        },
        {
            "constant": false,
            "inputs": [],
            "name": "renounceOwnership",
            "outputs": [],
            "payable": false,
            "stateMutability": "nonpayable",
            "type": "function"
        },
        {
            "constant": false,
            "inputs": [
                {
                    "internalType": "bool",
                    "name": "_paused",
                    "type": "bool"
                }
            ],
            "name": "setPausedState",
            "outputs": [],
            "payable": false,
            "stateMutability": "nonpayable",
            "type": "function"
        },
        {
            "constant": false,
            "inputs": [
                {
                    "internalType": "uint256",
                    "name": "_createFeeEth",
                    "type": "uint256"
                },
                {
                    "internalType": "uint256",
                    "name": "_createFeeIon",
                    "type": "uint256"
                }
            ],
            "name": "setupFees",
            "outputs": [],
            "payable": false,
            "stateMutability": "nonpayable",
            "type": "function"
        },
        {
            "constant": false,
            "inputs": [
                {
                    "internalType": "address",
                    "name": "newOwner",
                    "type": "address"
                }
            ],
            "name": "transferOwnership",
            "outputs": [],
            "payable": false,
            "stateMutability": "nonpayable",
            "type": "function"
        },
        {
            "constant": true,
            "inputs": [
                {
                    "internalType": "uint256",
                    "name": "_typeId",
                    "type": "uint256"
                }
            ],
            "name": "uri",
            "outputs": [
                {
                    "internalType": "string",
                    "name": "",
                    "type": "string"
                }
            ],
            "payable": false,
            "stateMutability": "view",
            "type": "function"
        },
        {
            "constant": true,
            "inputs": [],
            "name": "version",
            "outputs": [
                {
                    "internalType": "bytes16",
                    "name": "",
                    "type": "bytes16"
                }
            ],
            "payable": false,
            "stateMutability": "view",
            "type": "function"
        },
        {
            "constant": false,
            "inputs": [
                {
                    "internalType": "address payable",
                    "name": "_receiver",
                    "type": "address"
                },
                {
                    "internalType": "uint256",
                    "name": "_typeId",
                    "type": "uint256"
                }
            ],
            "name": "withdrawCreatorFees",
            "outputs": [],
            "payable": false,
            "stateMutability": "nonpayable",
            "type": "function"
        },
        {
            "constant": false,
            "inputs": [
                {
                    "internalType": "address payable",
                    "name": "_receiver",
                    "type": "address"
                }
            ],
            "name": "withdrawFees",
            "outputs": [],
            "payable": false,
            "stateMutability": "nonpayable",
            "type": "function"
        }
    ],
    "bytecode": "6080604052614d9a806100136000396000f3fe60806040526004361061020f5760003560e01c80638f32d59b11610118578063d217adc9116100a0578063e03210e21161006f578063e03210e214610e1f578063e8f3db8414610e49578063ed26e34e14610efa578063f2fde38b14610f24578063f5c0055f14610f575761020f565b8063d217adc914610ce8578063db9f60ff14610d99578063dd3cd65814610dc5578063df84fe4914610df55761020f565b8063a57e6141116100e7578063a57e614114610830578063b008229d146109fa578063b76b82c114610c4c578063c4d66de814610c7c578063cfdfcaeb14610caf5761020f565b80638f32d59b1461079b5780638f44a0b7146107b057806395b3ec21146107da5780639687c1b1146108045761020f565b806354fd4d501161019b5780636acca64b1161016a5780636acca64b14610708578063715018a614610732578063810174ac146107475780638129fc1c146107715780638da5cb5b146107865761020f565b806354fd4d501461063d5780635dfaf5ef1461066f5780635e495d74146106ae578063652b3318146106d85761020f565b80631df85829116101e25780631df858291461040857806322e1dea91461054d578063291f60d3146105915780633751c3a3146105c457806339d3ad771461060a5761020f565b806302bdd269146102145780630e89341c146102e2578063164e68de146103815780631754e1fb146103b6575b600080fd5b34801561022057600080fd5b506102d06004803603608081101561023757600080fd5b810190602081018135600160201b81111561025157600080fd5b82018360208201111561026357600080fd5b803590602001918460018302840111600160201b8311171561028457600080fd5b91908080601f0160208091040260200160405190810160405280939291908181526020018383808284376000920191909152509295505082359350505060208101359060400135611017565b60408051918252519081900360200190f35b3480156102ee57600080fd5b5061030c6004803603602081101561030557600080fd5b50356110fc565b6040805160208082528351818301528351919283929083019185019080838360005b8381101561034657818101518382015260200161032e565b50505050905090810190601f1680156103735780820380516001836020036101000a031916815260200191505b509250505060405180910390f35b34801561038d57600080fd5b506103b4600480360360208110156103a457600080fd5b50356001600160a01b031661123b565b005b3480156103c257600080fd5b506103ef600480360360408110156103d957600080fd5b506001600160a01b038135169060200135611350565b6040805192835260208301919091528051918290030190f35b6102d0600480360360a081101561041e57600080fd5b6001600160a01b038235169160208101359160408201359190810190608081016060820135600160201b81111561045457600080fd5b82018360208201111561046657600080fd5b803590602001918460018302840111600160201b8311171561048757600080fd5b91908080601f0160208091040260200160405190810160405280939291908181526020018383808284376000920191909152509295949360208101935035915050600160201b8111156104d957600080fd5b8201836020820111156104eb57600080fd5b803590602001918460018302840111600160201b8311171561050c57600080fd5b91908080601f016020809104026020016040519081016040528093929190818152602001838380828437600092019190915250929550611495945050505050565b34801561055957600080fd5b5061057d6004803603604081101561057057600080fd5b5080359060200135611a5c565b604080519115158252519081900360200190f35b34801561059d57600080fd5b506103b4600480360360208110156105b457600080fd5b50356001600160a01b0316611bd9565b3480156105d057600080fd5b506105ee600480360360208110156105e757600080fd5b5035611c86565b604080516001600160a01b039092168252519081900360200190f35b34801561061657600080fd5b506103b46004803603602081101561062d57600080fd5b50356001600160a01b0316611d1c565b34801561064957600080fd5b50610652611dc9565b604080516001600160801b03199092168252519081900360200190f35b34801561067b57600080fd5b506103ef6004803603606081101561069257600080fd5b506001600160a01b038135169060208101359060400135611dd2565b3480156106ba57600080fd5b506102d0600480360360208110156106d157600080fd5b5035611f1f565b3480156106e457600080fd5b506103b4600480360360408110156106fb57600080fd5b5080359060200135611fac565b34801561071457600080fd5b506102d06004803603602081101561072b57600080fd5b5035611ffe565b34801561073e57600080fd5b506103b461208b565b34801561075357600080fd5b506102d06004803603602081101561076a57600080fd5b503561211c565b34801561077d57600080fd5b506103b461224c565b34801561079257600080fd5b506105ee6122f3565b3480156107a757600080fd5b5061057d612302565b3480156107bc57600080fd5b506105ee600480360360208110156107d357600080fd5b5035612328565b3480156107e657600080fd5b506102d0600480360360208110156107fd57600080fd5b5035612343565b34801561081057600080fd5b506103ef6004803603602081101561082757600080fd5b50351515612553565b6102d0600480360361010081101561084757600080fd5b810190602081018135600160201b81111561086157600080fd5b82018360208201111561087357600080fd5b803590602001918460018302840111600160201b8311171561089457600080fd5b91908080601f0160208091040260200160405190810160405280939291908181526020018383808284376000920191909152509295949360208101935035915050600160201b8111156108e657600080fd5b8201836020820111156108f857600080fd5b803590602001918460018302840111600160201b8311171561091957600080fd5b91908080601f0160208091040260200160405190810160405280939291908181526020018383808284376000920191909152509295949360208101935035915050600160201b81111561096b57600080fd5b82018360208201111561097d57600080fd5b803590602001918460018302840111600160201b8311171561099e57600080fd5b91908080601f0160208091040260200160405190810160405280939291908181526020018383808284376000920191909152509295505050508035151591506020810135906040810135906060810135906080013515156125a1565b6102d06004803603610120811015610a1157600080fd5b810190602081018135600160201b811115610a2b57600080fd5b820183602082011115610a3d57600080fd5b803590602001918460018302840111600160201b83111715610a5e57600080fd5b91908080601f0160208091040260200160405190810160405280939291908181526020018383808284376000920191909152509295949360208101935035915050600160201b811115610ab057600080fd5b820183602082011115610ac257600080fd5b803590602001918460018302840111600160201b83111715610ae357600080fd5b91908080601f0160208091040260200160405190810160405280939291908181526020018383808284376000920191909152509295949360208101935035915050600160201b811115610b3557600080fd5b820183602082011115610b4757600080fd5b803590602001918460018302840111600160201b83111715610b6857600080fd5b91908080601f016020809104026020016040519081016040528093929190818152602001838380828437600092019190915250929560ff853516959094909350604081019250602001359050600160201b811115610bc557600080fd5b820183602082011115610bd757600080fd5b803590602001918460018302840111600160201b83111715610bf857600080fd5b91908080601f01602080910402602001604051908101604052809392919081815260200183838082843760009201919091525092955050823593505050602081013590604081013590606001351515612725565b348015610c5857600080fd5b506102d060048036036040811015610c6f57600080fd5b50803590602001356128ab565b348015610c8857600080fd5b506103b460048036036020811015610c9f57600080fd5b50356001600160a01b0316612ae7565b348015610cbb57600080fd5b506103b460048036036040811015610cd257600080fd5b506001600160a01b038135169060200135612bb6565b348015610cf457600080fd5b506103b460048036036020811015610d0b57600080fd5b810190602081018135600160201b811115610d2557600080fd5b820183602082011115610d3757600080fd5b803590602001918460018302840111600160201b83111715610d5857600080fd5b91908080601f016020809104026020016040519081016040528093929190818152602001838380828437600092019190915250929550612d01945050505050565b348015610da557600080fd5b506103b460048036036020811015610dbc57600080fd5b50351515612f3f565b348015610dd157600080fd5b506103b460048036036040811015610de857600080fd5b5080359060200135612fa4565b348015610e0157600080fd5b506103b460048036036020811015610e1857600080fd5b503561314f565b348015610e2b57600080fd5b506102d060048036036020811015610e4257600080fd5b5035613535565b348015610e5557600080fd5b506103b460048036036020811015610e6c57600080fd5b810190602081018135600160201b811115610e8657600080fd5b820183602082011115610e9857600080fd5b803590602001918460018302840111600160201b83111715610eb957600080fd5b91908080601f0160208091040260200160405190810160405280939291908181526020018383808284376000920191909152509295506135b3945050505050565b348015610f0657600080fd5b506102d060048036036020811015610f1d57600080fd5b5035613629565b348015610f3057600080fd5b506103b460048036036020811015610f4757600080fd5b50356001600160a01b03166136f0565b6103b460048036036080811015610f6d57600080fd5b6001600160a01b038235169160208101359160408201359190810190608081016060820135600160201b811115610fa357600080fd5b820183602082011115610fb557600080fd5b803590602001918460018302840111600160201b83111715610fd657600080fd5b91908080601f016020809104026020016040519081016040528093929190818152602001838380828437600092019190915250929550613740945050505050565b6000611021612302565b611060576040805162461bcd60e51b81526020600482018190526024820152600080516020614d18833981519152604482015290519081900360640190fd5b60a6541561109e576040805162461bcd60e51b81526020600480830191909152602482015263229a189b60e11b604482015290519081900360640190fd5b6110ee6040518060400160405280600d81526020016c436861726765642041746f6d7360981b815250866040518060400160405280600381526020016224a7a760e91b8152506000888789613b15565b60a681905595945050505050565b609954604080516303a24d0760e21b81526004810184905290516060926001600160a01b031691630e89341c916024808301926000929190829003018186803b15801561114857600080fd5b505afa15801561115c573d6000803e3d6000fd5b505050506040513d6000823e601f3d908101601f19168201604052602081101561118557600080fd5b8101908080516040519392919084600160201b8211156111a457600080fd5b9083019060208201858111156111b957600080fd5b8251600160201b8111828201881017156111d257600080fd5b82525081516020918201929091019080838360005b838110156111ff5781810151838201526020016111e7565b50505050905090810190601f16801561122c5780820380516001836020036101000a031916815260200191505b5060405250505090505b919050565b611243612302565b611282576040805162461bcd60e51b81526020600482018190526024820152600080516020614d18833981519152604482015290519081900360640190fd5b6001600160a01b0381166112c6576040805162461bcd60e51b81526020600480830191909152602482015263229a189960e11b604482015290519081900360640190fd5b60006112d06122f3565b6001600160a01b038116600090815260a36020526040902054909150801561130b5761130b6001600160a01b0384168263ffffffff613f9816565b6040805182815290516001600160a01b0385169133917fd8fabd405c3947781fb0ac5589312c9e4cd3c85805338add153611be1fe7da089181900360200190a3505050565b60995460408051636f969c2d60e01b8152600481018490529051600092839283926001600160a01b0390921691636f969c2d91602480820192602092909190829003018186803b1580156113a357600080fd5b505afa1580156113b7573d6000803e3d6000fd5b505050506040513d60208110156113cd57600080fd5b50516000818152609f602052604080822054609a546099548351631cb9bf5d60e01b81526001600160a01b038c811660048301529182166024820152604481018b905260809390931b6001600160801b031981166064850152845196975095911693631cb9bf5d93608480850194919392918390030190829087803b15801561145557600080fd5b505af1158015611469573d6000803e3d6000fd5b505050506040513d604081101561147f57600080fd5b5080516020909101519097909650945050505050565b60a754600090600160801b900460ff16156114e0576040805162461bcd60e51b815260206004808301919091526024820152634534313760e01b604482015290519081900360640190fd5b60995460408051637269a32760e01b81526004810188905290516001600160a01b0390921691637269a32791602480820192602092909190829003018186803b15801561152c57600080fd5b505afa158015611540573d6000803e3d6000fd5b505050506040513d602081101561155657600080fd5b5051611592576040805162461bcd60e51b81526020600480830191909152602482015263114c4c0d60e21b604482015290519081900360640190fd5b61159d856001611a5c565b6115d7576040805162461bcd60e51b815260206004808301919091526024820152634534303760e01b604482015290519081900360640190fd5b6000858152609c60205260408120546001600160a01b03169033821461164557506000868152609e602052604090205434811115611645576040805162461bcd60e51b81526020600480830191909152602482015263114d0c0d60e21b604482015290519081900360640190fd5b6000878152609b60205260409020546004908116141561179957609954604080516303a24d0760e21b8152600481018a905290516001600160a01b0390921691630e89341c91602480820192600092909190829003018186803b1580156116ab57600080fd5b505afa1580156116bf573d6000803e3d6000fd5b505050506040513d6000823e601f3d908101601f1916820160405260208110156116e857600080fd5b8101908080516040519392919084600160201b82111561170757600080fd5b90830190602082018581111561171c57600080fd5b8251600160201b81118282018810171561173557600080fd5b82525081516020918201929091019080838360005b8381101561176257818101518382015260200161174a565b50505050905090810190601f16801561178f5780820380516001836020036101000a031916815260200191505b5060405250505094505b6000609960009054906101000a90046001600160a01b03166001600160a01b031663a4b645eb8a8a60018a8a6040518663ffffffff1660e01b815260040180866001600160a01b03166001600160a01b031681526020018581526020018481526020018060200180602001838103835285818151815260200191508051906020019080838360005b83811015611839578181015183820152602001611821565b50505050905090810190601f1680156118665780820380516001836020036101000a031916815260200191505b50838103825284518152845160209182019186019080838360005b83811015611899578181015183820152602001611881565b50505050905090810190601f1680156118c65780820380516001836020036101000a031916815260200191505b50975050505050505050602060405180830381600087803b1580156118ea57600080fd5b505af11580156118fe573d6000803e3d6000fd5b505050506040513d602081101561191457600080fd5b5051905061192281886128ab565b5080896001600160a01b0316336001600160a01b03167fe8884f3d65d891f28bcf9286b337da3de667d1f279711ae7eec2dcd664ca9fdf896040518080602001828103825283818151815260200191508051906020019080838360005b8381101561199757818101518382015260200161197f565b50505050905090810190601f1680156119c45780820380516001836020036101000a031916815260200191505b509250505060405180910390a4336001600160a01b03841614611a25576001600160a01b038316600090815260a36020526040902054611a0b90839063ffffffff61408216565b6001600160a01b038416600090815260a360205260409020555b6000611a37348463ffffffff6140e316565b90508015611a4f57611a4f338263ffffffff613f9816565b5098975050505050505050565b6000828152609b602052604081205460019081161415611b34576000838152609d602052604090205415611b2c576000838152609d6020908152604091829020546099548351639d7f4ebf60e01b81526004810188905293519193611b239387936001600160a01b0390931692639d7f4ebf926024808201939291829003018186803b158015611aeb57600080fd5b505afa158015611aff573d6000803e3d6000fd5b505050506040513d6020811015611b1557600080fd5b50519063ffffffff61408216565b11159050611bd3565b506001611bd3565b6000838152609c60205260409020546001600160a01b03163314611b5a57506000611bd3565b6000838152609d602052604090205415611bcf576000838152609d6020908152604091829020546099548351639d7f4ebf60e01b81526004810188905293519193611b239387936001600160a01b0390931692639d7f4ebf926024808201939291829003018186803b158015611aeb57600080fd5b5060015b92915050565b611be1612302565b611c20576040805162461bcd60e51b81526020600482018190526024820152600080516020614d18833981519152604482015290519081900360640190fd5b6001600160a01b038116611c64576040805162461bcd60e51b81526020600480830191909152602482015263229a189960e11b604482015290519081900360640190fd5b609980546001600160a01b0319166001600160a01b0392909216919091179055565b60995460408051636f969c2d60e01b81526004810184905290516000926001600160a01b031691636f969c2d916024808301926020929190829003018186803b158015611cd257600080fd5b505afa158015611ce6573d6000803e3d6000fd5b505050506040513d6020811015611cfc57600080fd5b5051600090815260a160205260409020546001600160a01b031692915050565b611d24612302565b611d63576040805162461bcd60e51b81526020600482018190526024820152600080516020614d18833981519152604482015290519081900360640190fd5b6001600160a01b038116611da7576040805162461bcd60e51b81526020600480830191909152602482015263229a189960e11b604482015290519081900360640190fd5b609a80546001600160a01b0319166001600160a01b0392909216919091179055565b60a75460801b81565b60995460408051636f969c2d60e01b8152600481018590529051600092839283926001600160a01b0390921691636f969c2d91602480820192602092909190829003018186803b158015611e2557600080fd5b505afa158015611e39573d6000803e3d6000fd5b505050506040513d6020811015611e4f57600080fd5b50516000818152609f602052604080822054609a546099548351633e3c47d960e01b81526001600160a01b038d811660048301529182166024820152604481018c905260809390931b6001600160801b031981166064850152608484018b9052845196975095911693633e3c47d99360a480850194919392918390030190829087803b158015611ede57600080fd5b505af1158015611ef2573d6000803e3d6000fd5b505050506040513d6040811015611f0857600080fd5b508051602090910151909890975095505050505050565b60995460408051636f969c2d60e01b81526004810184905290516000926001600160a01b031691636f969c2d916024808301926020929190829003018186803b158015611f6b57600080fd5b505afa158015611f7f573d6000803e3d6000fd5b505050506040513d6020811015611f9557600080fd5b50516000908152609d602052604090205492915050565b611fb4612302565b611ff3576040805162461bcd60e51b81526020600482018190526024820152600080516020614d18833981519152604482015290519081900360640190fd5b60a49190915560a555565b60995460408051636f969c2d60e01b81526004810184905290516000926001600160a01b031691636f969c2d916024808301926020929190829003018186803b15801561204a57600080fd5b505afa15801561205e573d6000803e3d6000fd5b505050506040513d602081101561207457600080fd5b50516000908152609e602052604090205492915050565b612093612302565b6120d2576040805162461bcd60e51b81526020600482018190526024820152600080516020614d18833981519152604482015290519081900360640190fd5b6033546040516000916001600160a01b0316907f8be0079c531659141344cd1fd0a4f28419497f9722a3daafe3b4186f6b6457e0908390a3603380546001600160a01b0319169055565b60995460408051636f969c2d60e01b815260048101849052905160009283926001600160a01b0390911691636f969c2d91602480820192602092909190829003018186803b15801561216d57600080fd5b505afa158015612181573d6000803e3d6000fd5b505050506040513d602081101561219757600080fd5b50516000818152609f602090815260409182902054609a546099548451637bfb1cbb60e01b81526001600160a01b039182166004820152602481018a90526001600160801b031960809490941b938416604482015294519596509194911692637bfb1cbb926064808301939192829003018186803b15801561221857600080fd5b505afa15801561222c573d6000803e3d6000fd5b505050506040513d602081101561224257600080fd5b5051949350505050565b600054610100900460ff16806122655750612265614125565b80612273575060005460ff16155b6122ae5760405162461bcd60e51b815260040180806020018281038252602e815260200180614d38602e913960400191505060405180910390fd5b600054610100900460ff161580156122d9576000805460ff1961ff0019909116610100171660011790555b600160665580156122f0576000805461ff00191690555b50565b6033546001600160a01b031690565b6033546000906001600160a01b031661231961412b565b6001600160a01b031614905090565b6000908152609c60205260409020546001600160a01b031690565b60995460408051636f969c2d60e01b815260048101849052905160009283926001600160a01b0390911691636f969c2d91602480820192602092909190829003018186803b15801561239457600080fd5b505afa1580156123a8573d6000803e3d6000fd5b505050506040513d60208110156123be57600080fd5b50516000818152609b602052604090205490915060ff1661240f576040805162461bcd60e51b81526020600480830191909152602482015263229a181960e11b604482015290519081900360640190fd5b60995460408051630e44591f60e41b81526004810186905290516001600160a01b039092169163e44591f091602480820192602092909190829003018186803b15801561245b57600080fd5b505afa15801561246f573d6000803e3d6000fd5b505050506040513d602081101561248557600080fd5b50516124c1576040805162461bcd60e51b81526020600480830191909152602482015263229a181960e11b604482015290519081900360640190fd5b6000818152609f6020908152604080832054609a5460995483516357559d1760e11b81526001600160a01b039182166004820152602481018a90526001600160801b031960809490941b93841660448201529351929591169363aeab3a2e936064808201949293918390030190829087803b15801561253f57600080fd5b505af115801561222c573d6000803e3d6000fd5b600080826125635760a454612577565b60a45461257790600263ffffffff61412f16565b9150826125865760a55461259a565b60a55461259a90600263ffffffff61412f16565b9050915091565b60a754600090600160801b900460ff16156125ec576040805162461bcd60e51b815260206004808301919091526024820152634534313760e01b604482015290519081900360640190fd5b60006125f66122f3565b90506000806126056000612553565b915091508415612622576126193382614188565b60009150612660565b81341015612660576040805162461bcd60e51b81526020600480830191909152602482015263114d0c0d60e21b604482015290519081900360640190fd5b61266f8c8c8c8c8c8c8c613b15565b935084156126a757600084815260a060205260409020805463ffffffff8082166340000000171663ffffffff199091161790556126eb565b6001600160a01b038316600090815260a360205260409020546126d190839063ffffffff61408216565b6001600160a01b038416600090815260a360205260409020555b60006126fd348463ffffffff6140e316565b9050801561271557612715338263ffffffff613f9816565b5050505098975050505050505050565b60a754600090600160801b900460ff1615612770576040805162461bcd60e51b815260206004808301919091526024820152634534313760e01b604482015290519081900360640190fd5b600061277a6122f3565b90506000806127896001612553565b9150915084156127a65761279d3382614188565b600091506127e4565b813410156127e4576040805162461bcd60e51b81526020600480830191909152602482015263114d0c0d60e21b604482015290519081900360640190fd5b6127f48d8d8d8d8d8d8d8d614204565b9350841561282c57600084815260a060205260409020805463ffffffff8082166340000000171663ffffffff19909116179055612870565b6001600160a01b038316600090815260a3602052604090205461285690839063ffffffff61408216565b6001600160a01b038416600090815260a360205260409020555b6000612882348463ffffffff6140e316565b9050801561289a5761289a338263ffffffff613f9816565b505050509998505050505050505050565b60a754600090600160801b900460ff16156128f6576040805162461bcd60e51b815260206004808301919091526024820152634534313760e01b604482015290519081900360640190fd5b60995460408051636f969c2d60e01b81526004810186905290516000926001600160a01b031691636f969c2d916024808301926020929190829003018186803b15801561294257600080fd5b505afa158015612956573d6000803e3d6000fd5b505050506040513d602081101561296c57600080fd5b50516000818152609f6020908152604091829020546099548351637269a32760e01b8152600481018a9052935194955060809190911b936001600160a01b0390911692637269a327926024808301939192829003018186803b1580156129d157600080fd5b505afa1580156129e5573d6000803e3d6000fd5b505050506040513d60208110156129fb57600080fd5b5051612a37576040805162461bcd60e51b81526020600480830191909152602482015263114c4c0d60e21b604482015290519081900360640190fd5b612a42338286614853565b609a546099546040805163afb0b73f60e01b81526001600160a01b039283166004820152602481018990526001600160801b031985166044820152606481018890529051919092169163afb0b73f9160848083019260209291908290030181600087803b158015612ab257600080fd5b505af1158015612ac6573d6000803e3d6000fd5b505050506040513d6020811015612adc57600080fd5b505195945050505050565b600054610100900460ff1680612b005750612b00614125565b80612b0e575060005460ff16155b612b495760405162461bcd60e51b815260040180806020018281038252602e815260200180614d38602e913960400191505060405180910390fd5b600054610100900460ff16158015612b74576000805460ff1961ff0019909116610100171660011790555b612b7d82614a4f565b612b8561224c565b60a780546001600160801b031916651d8c0b8ccb8d60521b1790558015612bb2576000805461ff00191690555b5050565b6000818152609c60205260409020546001600160a01b0316338114612c0b576040805162461bcd60e51b815260206004808301919091526024820152634531303560e01b604482015290519081900360640190fd5b609a546040805163039cb13160e51b81526004810185905290516001600160a01b039092169163739626209160248082019260009290919082900301818387803b158015612c5857600080fd5b505af1158015612c6c573d6000803e3d6000fd5b505050506001600160a01b038116600090815260a360205260409020548015612cbb576001600160a01b03808316600090815260a36020526040812055612cbb9085168263ffffffff613f9816565b6040805182815290516001600160a01b0386169133917f1d9bd648787e565657449bd337e6ebf44646582a0a8eac81d051b198bf2ff49f9181900360200190a350505050565b612d09612302565b612d48576040805162461bcd60e51b81526020600482018190526024820152600080516020614d18833981519152604482015290519081900360640190fd5b6000612d5382614b40565b609a546040805163bbda0a5f60e01b81526001600160801b03198416600482015290519293506001600160a01b039091169163bbda0a5f91602480820192602092909190829003018186803b158015612dab57600080fd5b505afa158015612dbf573d6000803e3d6000fd5b505050506040513d6020811015612dd557600080fd5b5051612e11576040805162461bcd60e51b815260206004808301919091526024820152634534313560e01b604482015290519081900360640190fd5b609a546040805163038136c360e21b81526001600160801b03198416600482015290516000926001600160a01b031691630e04db0c916024808301926020929190829003018186803b158015612e6657600080fd5b505afa158015612e7a573d6000803e3d6000fd5b505050506040513d6020811015612e9057600080fd5b5051609a546040805163095ea7b360e01b81526001600160a01b039283166004820152600019602482015290519293509083169163095ea7b3916044808201926020929091908290030181600087803b158015612eec57600080fd5b505af1158015612f00573d6000803e3d6000fd5b505050506040513d6020811015612f1657600080fd5b5050506001600160801b031916600090815260a260205260409020805460ff1916600117905550565b612f47612302565b612f86576040805162461bcd60e51b81526020600482018190526024820152600080516020614d18833981519152604482015290519081900360640190fd5b60a78054911515600160801b0260ff60801b19909216919091179055565b609954604080516356f5fb7960e11b81526004810185905290516001600160a01b039092169163adebf6f291602480820192602092909190829003018186803b158015612ff057600080fd5b505afa158015613004573d6000803e3d6000fd5b505050506040513d602081101561301a57600080fd5b5051613056576040805162461bcd60e51b81526020600480830191909152602482015263114c4c0d60e21b604482015290519081900360640190fd5b6000828152609b602052604090205460ff166130a2576040805162461bcd60e51b81526020600480830191909152602482015263229a181960e11b604482015290519081900360640190fd5b60995460408051637a94c56560e11b8152336004820152602481018590526044810184905290516001600160a01b039092169163f5298aca9160648082019260009290919082900301818387803b1580156130fc57600080fd5b505af1158015613110573d6000803e3d6000fd5b50506040805184815290518593503392507f0e78b2f158f9b2477b08fb74a12235333d923a25627c27f7f93e97ad29a93ca79181900360200190a35050565b60995460408051637269a32760e01b81526004810184905290516001600160a01b039092169160009182918491637269a327916024808301926020929190829003018186803b1580156131a157600080fd5b505afa1580156131b5573d6000803e3d6000fd5b505050506040513d60208110156131cb57600080fd5b5051613207576040805162461bcd60e51b81526020600480830191909152602482015263114c4c0d60e21b604482015290519081900360640190fd5b60995460408051636f969c2d60e01b81526004810187905290516000926001600160a01b031691636f969c2d916024808301926020929190829003018186803b15801561325357600080fd5b505afa158015613267573d6000803e3d6000fd5b505050506040513d602081101561327d57600080fd5b50516000818152609b602052604090205490915060ff166132ce576040805162461bcd60e51b81526020600480830191909152602482015263229a181960e11b604482015290519081900360640190fd5b609954604080516331a9108f60e11b81526004810188905290516001600160a01b0390921691636352211e91602480820192602092909190829003018186803b15801561331a57600080fd5b505afa15801561332e573d6000803e3d6000fd5b505050506040513d602081101561334457600080fd5b50516000828152609f6020908152604080832054609a548251631adfbcff60e01b81526001600160a01b0380881660048301528b81166024830152604482018d905260809390931b6001600160801b03198116606483015293519699509297501693631adfbcff93608480840194938390030190829087803b1580156133c957600080fd5b505af11580156133dd573d6000803e3d6000fd5b505050506040513d60208110156133f357600080fd5b505060995460408051637a94c56560e11b8152336004820152602481018890526001604482015290516001600160a01b039092169163f5298aca9160648082019260009290919082900301818387803b15801561344f57600080fd5b505af1158015613463573d6000803e3d6000fd5b5050609a54604080516302263e2760e41b81526001600160a01b0388811660048301528981166024830152604482018b90526001600160801b0319881660648301529151919092169350632263e270925060848083019260209291908290030181600087803b1580156134d557600080fd5b505af11580156134e9573d6000803e3d6000fd5b505050506040513d60208110156134ff57600080fd5b5050604051859033907f83dcf4ccb71cf95b1d171b3f182c9209dfd403abdcb2a8156b8410003379c4f190600090a35050505050565b60995460408051632732871960e21b81526004810184905290516000926001600160a01b031691639cca1c64916024808301926020929190829003018186803b15801561358157600080fd5b505afa158015613595573d6000803e3d6000fd5b505050506040513d60208110156135ab57600080fd5b505192915050565b6135bb612302565b6135fa576040805162461bcd60e51b81526020600482018190526024820152600080516020614d18833981519152604482015290519081900360640190fd5b600061360582614b40565b6001600160801b031916600090815260a260205260409020805460ff191690555050565b60995460408051636f969c2d60e01b81526004810184905290516000926001600160a01b031691636f969c2d916024808301926020929190829003018186803b15801561367557600080fd5b505afa158015613689573d6000803e3d6000fd5b505050506040513d602081101561369f57600080fd5b505160995460408051639d7f4ebf60e01b81526004810184905290519294506001600160a01b0390911691639d7f4ebf91602480820192602092909190829003018186803b15801561358157600080fd5b6136f8612302565b613737576040805162461bcd60e51b81526020600482018190526024820152600080516020614d18833981519152604482015290519081900360640190fd5b6122f081614b5e565b60a754600160801b900460ff1615613788576040805162461bcd60e51b815260206004808301919091526024820152634534313760e01b604482015290519081900360640190fd5b609954604080516356f5fb7960e11b81526004810186905290516001600160a01b039092169163adebf6f291602480820192602092909190829003018186803b1580156137d457600080fd5b505afa1580156137e8573d6000803e3d6000fd5b505050506040513d60208110156137fe57600080fd5b505161383a576040805162461bcd60e51b81526020600480830191909152602482015263114c4c0d60e21b604482015290519081900360640190fd5b6138448383611a5c565b61387e576040805162461bcd60e51b815260206004808301919091526024820152634534303760e01b604482015290519081900360640190fd5b600060a65484146138a6576000848152609c60205260409020546001600160a01b03166138ae565b6138ae6122f3565b9050600080336001600160a01b0384161461392357506000858152609e60205260409020546138e3858263ffffffff61412f16565b915081341015613923576040805162461bcd60e51b81526020600480830191909152602482015263114d0c0d60e21b604482015290519081900360640190fd5b609960009054906101000a90046001600160a01b03166001600160a01b031663a4b645eb888888886040518563ffffffff1660e01b815260040180856001600160a01b03166001600160a01b031681526020018481526020018381526020018060200180602001838103835260008152602001602001838103825284818151815260200191508051906020019080838360005b838110156139ce5781810151838201526020016139b6565b50505050905090810190601f1680156139fb5780820380516001836020036101000a031916815260200191505b509650505050505050602060405180830381600087803b158015613a1e57600080fd5b505af1158015613a32573d6000803e3d6000fd5b505050506040513d6020811015613a4857600080fd5b505060408051868152905187916001600160a01b038a169133917f9db87045b59cfe5fa149d5594ce0ccdeb5a9f1048ce58d23b465e554d5f782d8919081900360200190a4336001600160a01b03841614613ae1576001600160a01b038316600090815260a36020526040902054613ac790839063ffffffff61408216565b6001600160a01b038416600090815260a360205260409020555b6000613af3348463ffffffff6140e316565b90508015613b0b57613b0b338263ffffffff613f9816565b5050505050505050565b60995460408051635e23b5e560e11b81526000602482018190526004820192835289516044830152895190936001600160a01b03169263bc476bca928b9286929182916064909101906020860190808383885b83811015613b80578181015183820152602001613b68565b50505050905090810190601f168015613bad5780820380516001836020036101000a031916815260200191505b509350505050602060405180830381600087803b158015613bcd57600080fd5b505af1158015613be1573d6000803e3d6000fd5b505050506040513d6020811015613bf757600080fd5b5051609954604051633251923f60e01b8152600481018381526012606483018190526080602484019081528d5160848501528d519596506001600160a01b0390941694633251923f9487948f948e9493909291604481019160a490910190602088019080838360005b83811015613c78578181015183820152602001613c60565b50505050905090810190601f168015613ca55780820380516001836020036101000a031916815260200191505b50838103825285518152855160209182019187019080838360005b83811015613cd8578181015183820152602001613cc0565b50505050905090810190601f168015613d055780820380516001836020036101000a031916815260200191505b509650505050505050602060405180830381600087803b158015613d2857600080fd5b505af1158015613d3c573d6000803e3d6000fd5b505050506040513d6020811015613d5257600080fd5b5051600082815260a16020526040902080546001600160a01b0319166001600160a01b0390921691909117905584613d8b576001613d8e565b60025b6000828152609b60209081526040808320805460ff9590951660ff1990951694909417909355609c815282822080546001600160a01b03191633179055609d8152828220879055609e9052208390558115613e8b576099546040805163a4b645eb60e01b8152336004820152602481018490526044810185905260a06064820152600060a4820181905260e0608483015260e4820181905291516001600160a01b039093169263a4b645eb9261012480840193602093929083900390910190829087803b158015613e5e57600080fd5b505af1158015613e72573d6000803e3d6000fd5b505050506040513d6020811015613e8857600080fd5b50505b841515866040518082805190602001908083835b60208310613ebe5780518252601f199092019160209182019101613e9f565b6001836020036101000a0380198251168184511680821785525050505050509050019150506040518091039020827f717e7b1db17e12dd9e3a29737a31ea4936fbf81854027b11757e30502f66b9aa858b6040518083815260200180602001828103825283818151815260200191508051906020019080838360005b83811015613f52578181015183820152602001613f3a565b50505050905090810190601f168015613f7f5780820380516001836020036101000a031916815260200191505b50935050505060405180910390a4979650505050505050565b80471015613fed576040805162461bcd60e51b815260206004820152601d60248201527f416464726573733a20696e73756666696369656e742062616c616e6365000000604482015290519081900360640190fd5b6040516000906001600160a01b0384169083908381818185875af1925050503d8060008114614038576040519150601f19603f3d011682016040523d82523d6000602084013e61403d565b606091505b505090508061407d5760405162461bcd60e51b815260040180806020018281038252603a815260200180614cbd603a913960400191505060405180910390fd5b505050565b6000828201838110156140dc576040805162461bcd60e51b815260206004820152601b60248201527f536166654d6174683a206164646974696f6e206f766572666c6f770000000000604482015290519081900360640190fd5b9392505050565b60006140dc83836040518060400160405280601e81526020017f536166654d6174683a207375627472616374696f6e206f766572666c6f770000815250614bff565b303b1590565b3390565b60008261413e57506000611bd3565b8282028284828161414b57fe5b04146140dc5760405162461bcd60e51b8152600401808060200182810382526021815260200180614cf76021913960400191505060405180910390fd5b60995460a65460408051637a94c56560e11b81526001600160a01b0386811660048301526024820193909352604481018590529051919092169163f5298aca91606480830192600092919082900301818387803b1580156141e857600080fd5b505af11580156141fc573d6000803e3d6000fd5b505050505050565b60008061421086614b40565b90506107d0831115614252576040805162461bcd60e51b815260206004808301919091526024820152634534313360e01b604482015290519081900360640190fd5b6001600160801b03198116600090815260a2602052604090205460ff166142a9576040805162461bcd60e51b81526020600480830191909152602482015263114d0c4d60e21b604482015290519081900360640190fd5b60995460408051635e23b5e560e11b8152600160248201819052600482019283528c5160448301528c516001600160a01b039094169363bc476bca938e939091829160640190602086019080838360005b838110156143125781810151838201526020016142fa565b50505050905090810190601f16801561433f5780820380516001836020036101000a031916815260200191505b509350505050602060405180830381600087803b15801561435f57600080fd5b505af1158015614373573d6000803e3d6000fd5b505050506040513d602081101561438957600080fd5b81019080805190602001909291905050509150609960009054906101000a90046001600160a01b03166001600160a01b03166309a7e01f838c8b6040518463ffffffff1660e01b8152600401808481526020018060200180602001838103835285818151815260200191508051906020019080838360005b83811015614419578181015183820152602001614401565b50505050905090810190601f1680156144465780820380516001836020036101000a031916815260200191505b50838103825284518152845160209182019186019080838360005b83811015614479578181015183820152602001614461565b50505050905090810190601f1680156144a65780820380516001836020036101000a031916815260200191505b5095505050505050602060405180830381600087803b1580156144c857600080fd5b505af11580156144dc573d6000803e3d6000fd5b505050506040513d60208110156144f257600080fd5b5051600083815260a16020908152604080832080546001600160a01b03199081166001600160a01b0396871617909155609b8352818420805460ff191660ff8e16179055609d83528184208a9055609e8352818420899055609c909252808320805433931683179055609a5481516385265b2560e01b815260048101889052602481019390935290519316926385265b259260448084019391929182900301818387803b1580156145a257600080fd5b505af11580156145b6573d6000803e3d6000fd5b5050506000838152609f60205260408082208054608086901c6001600160801b031991821617909155609a548251630f8fc97360e21b815260048101889052918616602483015291516001600160a01b039092169350633e3f25cc92604480830193919282900301818387803b15801561462f57600080fd5b505af1158015614643573d6000803e3d6000fd5b5050609a546040805163ba03ee6360e01b8152600481018790526001600160801b0319861660248201526044810188905290516001600160a01b03909216935063ba03ee63925060648082019260009290919082900301818387803b1580156146ab57600080fd5b505af11580156146bf573d6000803e3d6000fd5b50506040518a516002808c161493508b9250819060208401908083835b602083106146fb5780518252601f1990920191602091820191016146dc565b6001836020036101000a0380198251168184511680821785525050505050509050019150506040518091039020837f0f1838dac66520fb98caa1d1d86567e9fac1b7503a9b3a3a3a92d79aceb384a28a60041660ff166004148a888f60405180851515151581526020018060200184815260200180602001838103835286818151815260200191508051906020019080838360005b838110156147a8578181015183820152602001614790565b50505050905090810190601f1680156147d55780820380516001836020036101000a031916815260200191505b50838103825284518152845160209182019186019080838360005b838110156148085781810151838201526020016147f0565b50505050905090810190601f1680156148355780820380516001836020036101000a031916815260200191505b50965050505050505060405180910390a45098975050505050505050565b609a546040805163038136c360e21b81526001600160801b03198516600482015290516000926001600160a01b031691630e04db0c916024808301926020929190829003018186803b1580156148a857600080fd5b505afa1580156148bc573d6000803e3d6000fd5b505050506040513d60208110156148d257600080fd5b5051604080516370a0823160e01b81526001600160a01b038781166004830152915192935083926000928416916370a08231916024808301926020929190829003018186803b15801561492457600080fd5b505afa158015614938573d6000803e3d6000fd5b505050506040513d602081101561494e57600080fd5b5051905080841115614990576040805162461bcd60e51b8152602060048083019190915260248201526308a6862760e31b604482015290519081900360640190fd5b604080516323b872dd60e01b81526001600160a01b038881166004830152306024830152604482018790529151918416916323b872dd916064808201926020929091908290030181600087803b1580156149e957600080fd5b505af11580156149fd573d6000803e3d6000fd5b505050506040513d6020811015614a1357600080fd5b50516141fc576040805162461bcd60e51b815260206004808301919091526024820152634534313960e01b604482015290519081900360640190fd5b600054610100900460ff1680614a685750614a68614125565b80614a76575060005460ff16155b614ab15760405162461bcd60e51b815260040180806020018281038252602e815260200180614d38602e913960400191505060405180910390fd5b600054610100900460ff16158015614adc576000805460ff1961ff0019909116610100171660011790555b603380546001600160a01b0319166001600160a01b0384811691909117918290556040519116906000907f8be0079c531659141344cd1fd0a4f28419497f9722a3daafe3b4186f6b6457e0908290a38015612bb2576000805461ff00191690555050565b80516000908290614b55575060009050611236565b50506010015190565b6001600160a01b038116614ba35760405162461bcd60e51b8152600401808060200182810382526026815260200180614c976026913960400191505060405180910390fd5b6033546040516001600160a01b038084169216907f8be0079c531659141344cd1fd0a4f28419497f9722a3daafe3b4186f6b6457e090600090a3603380546001600160a01b0319166001600160a01b0392909216919091179055565b60008184841115614c8e5760405162461bcd60e51b81526004018080602001828103825283818151815260200191508051906020019080838360005b83811015614c53578181015183820152602001614c3b565b50505050905090810190601f168015614c805780820380516001836020036101000a031916815260200191505b509250505060405180910390fd5b50505090039056fe4f776e61626c653a206e6577206f776e657220697320746865207a65726f2061646472657373416464726573733a20756e61626c6520746f2073656e642076616c75652c20726563697069656e74206d61792068617665207265766572746564536166654d6174683a206d756c7469706c69636174696f6e206f766572666c6f774f776e61626c653a2063616c6c6572206973206e6f7420746865206f776e6572436f6e747261637420696e7374616e63652068617320616c7265616479206265656e20696e697469616c697a6564a265627a7a7231582087b6f58984b657bdd4c3528cc4e0581566054d809289ea029a0fce033342ee9464736f6c63430005100032",
    "sourcePath": "/Users/robsecord/workspace/Ethereum/ChargedParticles/ChargedParticlesEth/contracts/ChargedParticles.sol",
    "compiler": {
        "name": "solc",
        "version": "0.5.16+commit.9c3226ce"
    },
    "functionHashes": {
        "baseParticleMass(uint256)": "810174ac",
        "burnParticle(uint256)": "df84fe49",
        "burnPlasma(uint256,uint256)": "dd3cd658",
        "canMint(uint256,uint256)": "22e1dea9",
        "createParticle(string,string,string,uint8,string,uint256,uint256,uint256,bool)": "b008229d",
        "createPlasma(string,string,string,bool,uint256,uint256,uint256,bool)": "a57e6141",
        "currentParticleCharge(uint256)": "95b3ec21",
        "disableAssetPair(string)": "e8f3db84",
        "dischargeParticle(address,uint256)": "1754e1fb",
        "dischargeParticle(address,uint256,uint256)": "5dfaf5ef",
        "energizeParticle(uint256,uint256)": "b76b82c1",
        "getCreationPrice(bool)": "9687c1b1",
        "getMaxSupply(uint256)": "5e495d74",
        "getMintingFee(uint256)": "6acca64b",
        "getSeriesNumber(uint256)": "e03210e2",
        "getTotalMinted(uint256)": "ed26e34e",
        "getTypeCreator(uint256)": "8f44a0b7",
        "getTypeTokenBridge(uint256)": "3751c3a3",
        "initialize()": "8129fc1c",
        "initialize(address)": "c4d66de8",
        "isOwner()": "8f32d59b",
        "mintIons(string,uint256,uint256,uint256)": "02bdd269",
        "mintParticle(address,uint256,uint256,string,bytes)": "1df85829",
        "mintPlasma(address,uint256,uint256,bytes)": "f5c0055f",
        "owner()": "8da5cb5b",
        "registerAssetPair(string)": "d217adc9",
        "registerEscrow(address)": "39d3ad77",
        "registerTokenManager(address)": "291f60d3",
        "renounceOwnership()": "715018a6",
        "setPausedState(bool)": "db9f60ff",
        "setupFees(uint256,uint256)": "652b3318",
        "transferOwnership(address)": "f2fde38b",
        "uri(uint256)": "0e89341c",
        "version()": "54fd4d50",
        "withdrawCreatorFees(address,uint256)": "cfdfcaeb",
        "withdrawFees(address)": "164e68de"
    },
    "gasEstimates": {
        "creation": {
            "codeDepositCost": "3973200",
            "executionCost": "4506",
            "totalCost": "3977706"
        },
        "external": {
            "baseParticleMass(uint256)": "infinite",
            "burnParticle(uint256)": "infinite",
            "burnPlasma(uint256,uint256)": "infinite",
            "canMint(uint256,uint256)": "infinite",
            "createParticle(string,string,string,uint8,string,uint256,uint256,uint256,bool)": "infinite",
            "createPlasma(string,string,string,bool,uint256,uint256,uint256,bool)": "infinite",
            "currentParticleCharge(uint256)": "infinite",
            "disableAssetPair(string)": "infinite",
            "dischargeParticle(address,uint256)": "infinite",
            "dischargeParticle(address,uint256,uint256)": "infinite",
            "energizeParticle(uint256,uint256)": "infinite",
            "getCreationPrice(bool)": "infinite",
            "getMaxSupply(uint256)": "infinite",
            "getMintingFee(uint256)": "infinite",
            "getSeriesNumber(uint256)": "infinite",
            "getTotalMinted(uint256)": "infinite",
            "getTypeCreator(uint256)": "1213",
            "getTypeTokenBridge(uint256)": "infinite",
            "initialize()": "infinite",
            "initialize(address)": "infinite",
            "isOwner()": "1129",
            "mintIons(string,uint256,uint256,uint256)": "infinite",
            "mintParticle(address,uint256,uint256,string,bytes)": "infinite",
            "mintPlasma(address,uint256,uint256,bytes)": "infinite",
            "owner()": "1170",
            "registerAssetPair(string)": "infinite",
            "registerEscrow(address)": "infinite",
            "registerTokenManager(address)": "infinite",
            "renounceOwnership()": "infinite",
            "setPausedState(bool)": "infinite",
            "setupFees(uint256,uint256)": "infinite",
            "transferOwnership(address)": "infinite",
            "uri(uint256)": "infinite",
            "version()": "1074",
            "withdrawCreatorFees(address,uint256)": "infinite",
            "withdrawFees(address)": "infinite"
        },
        "internal": {
            "_collectAssetToken(address,bytes16,uint256)": "infinite",
            "_collectIons(address,uint256)": "infinite",
            "_createParticle(string memory,string memory,string memory,uint8,string memory,uint256,uint256,uint256)": "infinite",
            "_createPlasma(string memory,string memory,string memory,bool,uint256,uint256,uint256)": "infinite",
            "_toBytes16(string memory)": "infinite"
        }
    }
}