{
    "contractName": "ChargedParticlesERC1155",
    "abi": [
        {
            "anonymous": false,
            "inputs": [
                {
                    "indexed": true,
                    "internalType": "address",
                    "name": "_owner",
                    "type": "address"
                },
                {
                    "indexed": true,
                    "internalType": "address",
                    "name": "_operator",
                    "type": "address"
                },
                {
                    "indexed": true,
                    "internalType": "uint256",
                    "name": "_tokenId",
                    "type": "uint256"
                }
            ],
            "name": "Approval",
            "type": "event"
        },
        {
            "anonymous": false,
            "inputs": [
                {
                    "indexed": true,
                    "internalType": "address",
                    "name": "_owner",
                    "type": "address"
                },
                {
                    "indexed": true,
                    "internalType": "address",
                    "name": "_operator",
                    "type": "address"
                },
                {
                    "indexed": false,
                    "internalType": "bool",
                    "name": "_approved",
                    "type": "bool"
                }
            ],
            "name": "ApprovalForAll",
            "type": "event"
        },
        {
            "anonymous": false,
            "inputs": [
                {
                    "indexed": true,
                    "internalType": "uint256",
                    "name": "_typeId",
                    "type": "uint256"
                },
                {
                    "indexed": true,
                    "internalType": "address",
                    "name": "_bridge",
                    "type": "address"
                }
            ],
            "name": "NewBridge",
            "type": "event"
        },
        {
            "anonymous": false,
            "inputs": [
                {
                    "indexed": true,
                    "internalType": "address",
                    "name": "previousOwner",
                    "type": "address"
                },
                {
                    "indexed": true,
                    "internalType": "address",
                    "name": "newOwner",
                    "type": "address"
                }
            ],
            "name": "OwnershipTransferred",
            "type": "event"
        },
        {
            "anonymous": false,
            "inputs": [
                {
                    "indexed": true,
                    "internalType": "address",
                    "name": "_operator",
                    "type": "address"
                },
                {
                    "indexed": true,
                    "internalType": "address",
                    "name": "_from",
                    "type": "address"
                },
                {
                    "indexed": true,
                    "internalType": "address",
                    "name": "_to",
                    "type": "address"
                },
                {
                    "indexed": false,
                    "internalType": "uint256[]",
                    "name": "_ids",
                    "type": "uint256[]"
                },
                {
                    "indexed": false,
                    "internalType": "uint256[]",
                    "name": "_amounts",
                    "type": "uint256[]"
                }
            ],
            "name": "TransferBatch",
            "type": "event"
        },
        {
            "anonymous": false,
            "inputs": [
                {
                    "indexed": true,
                    "internalType": "address",
                    "name": "_operator",
                    "type": "address"
                },
                {
                    "indexed": true,
                    "internalType": "address",
                    "name": "_from",
                    "type": "address"
                },
                {
                    "indexed": true,
                    "internalType": "address",
                    "name": "_to",
                    "type": "address"
                },
                {
                    "indexed": false,
                    "internalType": "uint256",
                    "name": "_id",
                    "type": "uint256"
                },
                {
                    "indexed": false,
                    "internalType": "uint256",
                    "name": "_amount",
                    "type": "uint256"
                }
            ],
            "name": "TransferSingle",
            "type": "event"
        },
        {
            "anonymous": false,
            "inputs": [
                {
                    "indexed": true,
                    "internalType": "uint256",
                    "name": "_id",
                    "type": "uint256"
                },
                {
                    "indexed": false,
                    "internalType": "string",
                    "name": "_uri",
                    "type": "string"
                }
            ],
            "name": "URI",
            "type": "event"
        },
        {
            "constant": false,
            "inputs": [
                {
                    "internalType": "address",
                    "name": "_operator",
                    "type": "address"
                },
                {
                    "internalType": "uint256",
                    "name": "_tokenId",
                    "type": "uint256"
                }
            ],
            "name": "approve",
            "outputs": [],
            "payable": false,
            "stateMutability": "nonpayable",
            "type": "function"
        },
        {
            "constant": false,
            "inputs": [
                {
                    "internalType": "uint256",
                    "name": "_typeId",
                    "type": "uint256"
                },
                {
                    "internalType": "address",
                    "name": "_from",
                    "type": "address"
                },
                {
                    "internalType": "address",
                    "name": "_operator",
                    "type": "address"
                },
                {
                    "internalType": "uint256",
                    "name": "_tokenId",
                    "type": "uint256"
                }
            ],
            "name": "approveBridged",
            "outputs": [],
            "payable": false,
            "stateMutability": "nonpayable",
            "type": "function"
        },
        {
            "constant": true,
            "inputs": [
                {
                    "internalType": "address",
                    "name": "_tokenOwner",
                    "type": "address"
                },
                {
                    "internalType": "uint256",
                    "name": "_typeId",
                    "type": "uint256"
                }
            ],
            "name": "balanceOf",
            "outputs": [
                {
                    "internalType": "uint256",
                    "name": "",
                    "type": "uint256"
                }
            ],
            "payable": false,
            "stateMutability": "view",
            "type": "function"
        },
        {
            "constant": true,
            "inputs": [
                {
                    "internalType": "address[]",
                    "name": "_owners",
                    "type": "address[]"
                },
                {
                    "internalType": "uint256[]",
                    "name": "_typeIds",
                    "type": "uint256[]"
                }
            ],
            "name": "balanceOfBatch",
            "outputs": [
                {
                    "internalType": "uint256[]",
                    "name": "",
                    "type": "uint256[]"
                }
            ],
            "payable": false,
            "stateMutability": "view",
            "type": "function"
        },
        {
            "constant": false,
            "inputs": [
                {
                    "internalType": "address",
                    "name": "_from",
                    "type": "address"
                },
                {
                    "internalType": "uint256",
                    "name": "_tokenId",
                    "type": "uint256"
                },
                {
                    "internalType": "uint256",
                    "name": "_amount",
                    "type": "uint256"
                }
            ],
            "name": "burn",
            "outputs": [],
            "payable": false,
            "stateMutability": "nonpayable",
            "type": "function"
        },
        {
            "constant": false,
            "inputs": [
                {
                    "internalType": "address",
                    "name": "_from",
                    "type": "address"
                },
                {
                    "internalType": "uint256[]",
                    "name": "_tokenIds",
                    "type": "uint256[]"
                },
                {
                    "internalType": "uint256[]",
                    "name": "_amounts",
                    "type": "uint256[]"
                }
            ],
            "name": "burnBatch",
            "outputs": [],
            "payable": false,
            "stateMutability": "nonpayable",
            "type": "function"
        },
        {
            "constant": false,
            "inputs": [
                {
                    "internalType": "uint256",
                    "name": "_typeId",
                    "type": "uint256"
                },
                {
                    "internalType": "string",
                    "name": "_name",
                    "type": "string"
                },
                {
                    "internalType": "string",
                    "name": "_symbol",
                    "type": "string"
                },
                {
                    "internalType": "uint8",
                    "name": "_decimals",
                    "type": "uint8"
                }
            ],
            "name": "createErc20Bridge",
            "outputs": [
                {
                    "internalType": "address",
                    "name": "",
                    "type": "address"
                }
            ],
            "payable": false,
            "stateMutability": "nonpayable",
            "type": "function"
        },
        {
            "constant": false,
            "inputs": [
                {
                    "internalType": "uint256",
                    "name": "_typeId",
                    "type": "uint256"
                },
                {
                    "internalType": "string",
                    "name": "_name",
                    "type": "string"
                },
                {
                    "internalType": "string",
                    "name": "_symbol",
                    "type": "string"
                }
            ],
            "name": "createErc721Bridge",
            "outputs": [
                {
                    "internalType": "address",
                    "name": "",
                    "type": "address"
                }
            ],
            "payable": false,
            "stateMutability": "nonpayable",
            "type": "function"
        },
        {
            "constant": false,
            "inputs": [
                {
                    "internalType": "string",
                    "name": "_uri",
                    "type": "string"
                },
                {
                    "internalType": "bool",
                    "name": "isNF",
                    "type": "bool"
                }
            ],
            "name": "createType",
            "outputs": [
                {
                    "internalType": "uint256",
                    "name": "",
                    "type": "uint256"
                }
            ],
            "payable": false,
            "stateMutability": "nonpayable",
            "type": "function"
        },
        {
            "constant": true,
            "inputs": [
                {
                    "internalType": "uint256",
                    "name": "_tokenId",
                    "type": "uint256"
                }
            ],
            "name": "getApproved",
            "outputs": [
                {
                    "internalType": "address",
                    "name": "",
                    "type": "address"
                }
            ],
            "payable": false,
            "stateMutability": "view",
            "type": "function"
        },
        {
            "constant": true,
            "inputs": [
                {
                    "internalType": "uint256",
                    "name": "_id",
                    "type": "uint256"
                }
            ],
            "name": "getNonFungibleBaseType",
            "outputs": [
                {
                    "internalType": "uint256",
                    "name": "",
                    "type": "uint256"
                }
            ],
            "payable": false,
            "stateMutability": "pure",
            "type": "function"
        },
        {
            "constant": true,
            "inputs": [
                {
                    "internalType": "uint256",
                    "name": "_id",
                    "type": "uint256"
                }
            ],
            "name": "getNonFungibleIndex",
            "outputs": [
                {
                    "internalType": "uint256",
                    "name": "",
                    "type": "uint256"
                }
            ],
            "payable": false,
            "stateMutability": "pure",
            "type": "function"
        },
        {
            "constant": false,
            "inputs": [],
            "name": "initialize",
            "outputs": [],
            "payable": false,
            "stateMutability": "nonpayable",
            "type": "function"
        },
        {
            "constant": false,
            "inputs": [
                {
                    "internalType": "address",
                    "name": "sender",
                    "type": "address"
                }
            ],
            "name": "initialize",
            "outputs": [],
            "payable": false,
            "stateMutability": "nonpayable",
            "type": "function"
        },
        {
            "constant": true,
            "inputs": [
                {
                    "internalType": "address",
                    "name": "_tokenOwner",
                    "type": "address"
                },
                {
                    "internalType": "address",
                    "name": "_operator",
                    "type": "address"
                }
            ],
            "name": "isApprovedForAll",
            "outputs": [
                {
                    "internalType": "bool",
                    "name": "",
                    "type": "bool"
                }
            ],
            "payable": false,
            "stateMutability": "view",
            "type": "function"
        },
        {
            "constant": true,
            "inputs": [
                {
                    "internalType": "uint256",
                    "name": "_id",
                    "type": "uint256"
                }
            ],
            "name": "isFungible",
            "outputs": [
                {
                    "internalType": "bool",
                    "name": "",
                    "type": "bool"
                }
            ],
            "payable": false,
            "stateMutability": "pure",
            "type": "function"
        },
        {
            "constant": true,
            "inputs": [
                {
                    "internalType": "uint256",
                    "name": "_id",
                    "type": "uint256"
                }
            ],
            "name": "isNonFungible",
            "outputs": [
                {
                    "internalType": "bool",
                    "name": "",
                    "type": "bool"
                }
            ],
            "payable": false,
            "stateMutability": "pure",
            "type": "function"
        },
        {
            "constant": true,
            "inputs": [
                {
                    "internalType": "uint256",
                    "name": "_id",
                    "type": "uint256"
                }
            ],
            "name": "isNonFungibleBaseType",
            "outputs": [
                {
                    "internalType": "bool",
                    "name": "",
                    "type": "bool"
                }
            ],
            "payable": false,
            "stateMutability": "pure",
            "type": "function"
        },
        {
            "constant": true,
            "inputs": [
                {
                    "internalType": "uint256",
                    "name": "_id",
                    "type": "uint256"
                }
            ],
            "name": "isNonFungibleItem",
            "outputs": [
                {
                    "internalType": "bool",
                    "name": "",
                    "type": "bool"
                }
            ],
            "payable": false,
            "stateMutability": "pure",
            "type": "function"
        },
        {
            "constant": true,
            "inputs": [],
            "name": "isOwner",
            "outputs": [
                {
                    "internalType": "bool",
                    "name": "",
                    "type": "bool"
                }
            ],
            "payable": false,
            "stateMutability": "view",
            "type": "function"
        },
        {
            "constant": false,
            "inputs": [
                {
                    "internalType": "address",
                    "name": "_to",
                    "type": "address"
                },
                {
                    "internalType": "uint256",
                    "name": "_typeId",
                    "type": "uint256"
                },
                {
                    "internalType": "uint256",
                    "name": "_amount",
                    "type": "uint256"
                },
                {
                    "internalType": "string",
                    "name": "_uri",
                    "type": "string"
                },
                {
                    "internalType": "bytes",
                    "name": "_data",
                    "type": "bytes"
                }
            ],
            "name": "mint",
            "outputs": [
                {
                    "internalType": "uint256",
                    "name": "",
                    "type": "uint256"
                }
            ],
            "payable": false,
            "stateMutability": "nonpayable",
            "type": "function"
        },
        {
            "constant": false,
            "inputs": [
                {
                    "internalType": "address",
                    "name": "_to",
                    "type": "address"
                },
                {
                    "internalType": "uint256[]",
                    "name": "_types",
                    "type": "uint256[]"
                },
                {
                    "internalType": "uint256[]",
                    "name": "_amounts",
                    "type": "uint256[]"
                },
                {
                    "internalType": "string[]",
                    "name": "_URIs",
                    "type": "string[]"
                },
                {
                    "internalType": "bytes",
                    "name": "_data",
                    "type": "bytes"
                }
            ],
            "name": "mintBatch",
            "outputs": [
                {
                    "internalType": "uint256[]",
                    "name": "",
                    "type": "uint256[]"
                }
            ],
            "payable": false,
            "stateMutability": "nonpayable",
            "type": "function"
        },
        {
            "constant": true,
            "inputs": [],
            "name": "owner",
            "outputs": [
                {
                    "internalType": "address",
                    "name": "",
                    "type": "address"
                }
            ],
            "payable": false,
            "stateMutability": "view",
            "type": "function"
        },
        {
            "constant": true,
            "inputs": [
                {
                    "internalType": "uint256",
                    "name": "_tokenId",
                    "type": "uint256"
                }
            ],
            "name": "ownerOf",
            "outputs": [
                {
                    "internalType": "address",
                    "name": "",
                    "type": "address"
                }
            ],
            "payable": false,
            "stateMutability": "view",
            "type": "function"
        },
        {
            "constant": false,
            "inputs": [],
            "name": "renounceOwnership",
            "outputs": [],
            "payable": false,
            "stateMutability": "nonpayable",
            "type": "function"
        },
        {
            "constant": false,
            "inputs": [
                {
                    "internalType": "address",
                    "name": "_from",
                    "type": "address"
                },
                {
                    "internalType": "address",
                    "name": "_to",
                    "type": "address"
                },
                {
                    "internalType": "uint256[]",
                    "name": "_ids",
                    "type": "uint256[]"
                },
                {
                    "internalType": "uint256[]",
                    "name": "_amounts",
                    "type": "uint256[]"
                },
                {
                    "internalType": "bytes",
                    "name": "_data",
                    "type": "bytes"
                }
            ],
            "name": "safeBatchTransferFrom",
            "outputs": [],
            "payable": false,
            "stateMutability": "nonpayable",
            "type": "function"
        },
        {
            "constant": false,
            "inputs": [
                {
                    "internalType": "address",
                    "name": "_from",
                    "type": "address"
                },
                {
                    "internalType": "address",
                    "name": "_to",
                    "type": "address"
                },
                {
                    "internalType": "uint256",
                    "name": "_id",
                    "type": "uint256"
                },
                {
                    "internalType": "uint256",
                    "name": "_amount",
                    "type": "uint256"
                },
                {
                    "internalType": "bytes",
                    "name": "_data",
                    "type": "bytes"
                }
            ],
            "name": "safeTransferFrom",
            "outputs": [],
            "payable": false,
            "stateMutability": "nonpayable",
            "type": "function"
        },
        {
            "constant": false,
            "inputs": [
                {
                    "internalType": "address",
                    "name": "_operator",
                    "type": "address"
                },
                {
                    "internalType": "bool",
                    "name": "_approved",
                    "type": "bool"
                }
            ],
            "name": "setApprovalForAll",
            "outputs": [],
            "payable": false,
            "stateMutability": "nonpayable",
            "type": "function"
        },
        {
            "constant": false,
            "inputs": [
                {
                    "internalType": "uint256",
                    "name": "_typeId",
                    "type": "uint256"
                },
                {
                    "internalType": "address",
                    "name": "_from",
                    "type": "address"
                },
                {
                    "internalType": "address",
                    "name": "_operator",
                    "type": "address"
                },
                {
                    "internalType": "bool",
                    "name": "_approved",
                    "type": "bool"
                }
            ],
            "name": "setApprovalForAllBridged",
            "outputs": [],
            "payable": false,
            "stateMutability": "nonpayable",
            "type": "function"
        },
        {
            "constant": false,
            "inputs": [
                {
                    "internalType": "address",
                    "name": "_chargedParticles",
                    "type": "address"
                }
            ],
            "name": "setChargedParticles",
            "outputs": [],
            "payable": false,
            "stateMutability": "nonpayable",
            "type": "function"
        },
        {
            "constant": true,
            "inputs": [
                {
                    "internalType": "bytes4",
                    "name": "_interfaceID",
                    "type": "bytes4"
                }
            ],
            "name": "supportsInterface",
            "outputs": [
                {
                    "internalType": "bool",
                    "name": "",
                    "type": "bool"
                }
            ],
            "payable": false,
            "stateMutability": "view",
            "type": "function"
        },
        {
            "constant": true,
            "inputs": [
                {
                    "internalType": "uint256",
                    "name": "_typeId",
                    "type": "uint256"
                },
                {
                    "internalType": "uint256",
                    "name": "_index",
                    "type": "uint256"
                }
            ],
            "name": "tokenByIndex",
            "outputs": [
                {
                    "internalType": "uint256",
                    "name": "",
                    "type": "uint256"
                }
            ],
            "payable": false,
            "stateMutability": "view",
            "type": "function"
        },
        {
            "constant": true,
            "inputs": [
                {
                    "internalType": "uint256",
                    "name": "_typeId",
                    "type": "uint256"
                },
                {
                    "internalType": "address",
                    "name": "_owner",
                    "type": "address"
                },
                {
                    "internalType": "uint256",
                    "name": "_index",
                    "type": "uint256"
                }
            ],
            "name": "tokenOfOwnerByIndex",
            "outputs": [
                {
                    "internalType": "uint256",
                    "name": "",
                    "type": "uint256"
                }
            ],
            "payable": false,
            "stateMutability": "view",
            "type": "function"
        },
        {
            "constant": true,
            "inputs": [
                {
                    "internalType": "uint256",
                    "name": "_typeId",
                    "type": "uint256"
                }
            ],
            "name": "totalMinted",
            "outputs": [
                {
                    "internalType": "uint256",
                    "name": "",
                    "type": "uint256"
                }
            ],
            "payable": false,
            "stateMutability": "view",
            "type": "function"
        },
        {
            "constant": true,
            "inputs": [
                {
                    "internalType": "uint256",
                    "name": "_typeId",
                    "type": "uint256"
                }
            ],
            "name": "totalSupply",
            "outputs": [
                {
                    "internalType": "uint256",
                    "name": "",
                    "type": "uint256"
                }
            ],
            "payable": false,
            "stateMutability": "view",
            "type": "function"
        },
        {
            "constant": false,
            "inputs": [
                {
                    "internalType": "address",
                    "name": "_from",
                    "type": "address"
                },
                {
                    "internalType": "address",
                    "name": "_to",
                    "type": "address"
                },
                {
                    "internalType": "uint256",
                    "name": "_id",
                    "type": "uint256"
                },
                {
                    "internalType": "uint256",
                    "name": "_amount",
                    "type": "uint256"
                }
            ],
            "name": "transferFrom",
            "outputs": [],
            "payable": false,
            "stateMutability": "nonpayable",
            "type": "function"
        },
        {
            "constant": false,
            "inputs": [
                {
                    "internalType": "uint256",
                    "name": "_typeId",
                    "type": "uint256"
                },
                {
                    "internalType": "address",
                    "name": "_from",
                    "type": "address"
                },
                {
                    "internalType": "address",
                    "name": "_to",
                    "type": "address"
                },
                {
                    "internalType": "uint256",
                    "name": "_tokenId",
                    "type": "uint256"
                },
                {
                    "internalType": "uint256",
                    "name": "_value",
                    "type": "uint256"
                }
            ],
            "name": "transferFromBridged",
            "outputs": [
                {
                    "internalType": "bool",
                    "name": "",
                    "type": "bool"
                }
            ],
            "payable": false,
            "stateMutability": "nonpayable",
            "type": "function"
        },
        {
            "constant": false,
            "inputs": [
                {
                    "internalType": "address",
                    "name": "newOwner",
                    "type": "address"
                }
            ],
            "name": "transferOwnership",
            "outputs": [],
            "payable": false,
            "stateMutability": "nonpayable",
            "type": "function"
        },
        {
            "constant": true,
            "inputs": [
                {
                    "internalType": "uint256",
                    "name": "_id",
                    "type": "uint256"
                }
            ],
            "name": "uri",
            "outputs": [
                {
                    "internalType": "string",
                    "name": "",
                    "type": "string"
                }
            ],
            "payable": false,
            "stateMutability": "view",
            "type": "function"
        }
    ],
    "bytecode": "6080604052615d5a806100136000396000f3fe608060405234801561001057600080fd5b506004361061023b5760003560e01c80638f32d59b1161013b578063c4d66de8116100b8578063f12dde0b1161007c578063f12dde0b146104e6578063f242432a146104f9578063f2fde38b1461050c578063f5298aca1461051f578063fe99049a146105325761023b565b8063c4d66de814610487578063c7178e201461049a578063e3fafdc2146104ad578063e44591f0146104c0578063e985e9c5146104d35761023b565b8063a4b645eb116100ff578063a4b645eb14610428578063adebf6f21461043b578063b9571e841461044e578063bc476bca14610461578063bd85b039146104745761023b565b80638f32d59b146103d45780639cca1c64146103dc5780639d7f4ebf146103ef578063a22cb46514610402578063a4345014146104155761023b565b80634e1273f4116101c95780636f969c2d1161018d5780636f969c2d14610396578063715018a6146103a95780637269a327146103b15780638129fc1c146103c45780638da5cb5b146103cc5761023b565b80634e1273f41461032a5780635e81b9581461034a5780636352211e1461035d5780636b20c454146103705780636e5559fd146103835761023b565b8063095ea7b311610210578063095ea7b3146102be57806309a7e01f146102d15780630e89341c146102e45780632eb2c2d6146103045780633251923f146103175761023b565b8062bafd7014610240578062fdd58e1461025557806301ffc9a71461027e578063081812fc1461029e575b600080fd5b61025361024e36600461331b565b610545565b005b6102686102633660046130f9565b6106a1565b6040516102759190613bba565b60405180910390f35b61029161028c366004613237565b610710565b6040516102759190613a3b565b6102b16102ac3660046132a8565b610757565b6040516102759190613950565b6102536102cc3660046130f9565b6107a8565b6102b16102df3660046133f9565b61087b565b6102f76102f23660046132a8565b6108bd565b6040516102759190613a49565b610253610312366004612e40565b61095e565b6102b161032536600461346a565b6109dc565b61033d6103383660046131da565b610a1e565b6040516102759190613a05565b6102916103583660046132a8565b610b5e565b6102b161036b3660046132a8565b610b7f565b61025361037e366004612fb2565b610bc2565b610253610391366004612de8565b610bfc565b6102686103a43660046132a8565b610c42565b610253610c4f565b6102916103bf3660046132a8565b610cbd565b610253610cdd565b6102b1610dfa565b610291610e0a565b6102686103ea3660046132a8565b610e30565b6102686103fd3660046132a8565b610e3c565b6102536104103660046130c9565b610e4e565b6102686104233660046134ed565b610ebd565b61026861043636600461316c565b610f13565b6102916104493660046132a8565b610f57565b61033d61045c36600461302d565b610f61565b61026861046f366004613273565b610f9b565b6102686104823660046132a8565b610fd2565b610253610495366004612de8565b61100a565b6102536104a83660046132c6565b6110a7565b6102916104bb36600461335f565b611152565b6102916104ce3660046132a8565b611205565b6102916104e1366004612e06565b611211565b6102686104f43660046133c7565b61123f565b610253610507366004612f5b565b6112ab565b61025361051a366004612de8565b611322565b61025361052d366004613129565b61134f565b610253610540366004612efa565b611384565b600084815260a5602052604090205484906001600160a01b031633146105865760405162461bcd60e51b815260040161057d90613b3a565b60405180910390fd5b81600160ff1b80821614156105a257506001600160801b031982165b8581146105c15760405162461bcd60e51b815260040161057d90613b6a565b60006105cc84610b7f565b9050806001600160a01b0316856001600160a01b031614156106005760405162461bcd60e51b815260040161057d90613b1a565b806001600160a01b0316866001600160a01b0316148061062557506106258187611211565b6106415760405162461bcd60e51b815260040161057d90613a6a565b6000848152609e602052604080822080546001600160a01b0319166001600160a01b0389811691821790925591518793918516917f8c5be1e5ebec7d5bd14f71427d1e84f3dd0314c0f7b2291e5b200ac8c7c3b92591a450505050505050565b6000600160ff1b80831614156106e457506001600160801b031916600081815260a3602090815260408083206001600160a01b038616845290915290205461070a565b506001600160a01b0382166000908152609c602090815260408083208484529091529020545b92915050565b60006001600160e01b031982166301ffc9a760e01b148061074157506001600160e01b03198216636cdb3d1360e11b145b1561074e57506001610752565b5060005b919050565b60008061076383610b7f565b90506001600160a01b03811661078b5760405162461bcd60e51b815260040161057d90613aca565b50506000908152609e60205260409020546001600160a01b031690565b60006107b382610b7f565b9050806001600160a01b0316836001600160a01b031614156107e75760405162461bcd60e51b815260040161057d90613afa565b336001600160a01b038216148061080357506108038133611211565b61081f5760405162461bcd60e51b815260040161057d90613a9a565b6000828152609e602052604080822080546001600160a01b0319166001600160a01b0387811691821790925591518593918516917f8c5be1e5ebec7d5bd14f71427d1e84f3dd0314c0f7b2291e5b200ac8c7c3b92591a4505050565b60a8546000906001600160a01b031633146108a85760405162461bcd60e51b815260040161057d90613b0a565b6108b38484846113f4565b90505b9392505050565b600081815260a0602090815260409182902080548351601f60026000196101006001861615020190931692909204918201849004840281018401909452808452606093928301828280156109525780601f1061092757610100808354040283529160200191610952565b820191906000526020600020905b81548152906001019060200180831161093557829003601f168201915b50505050509050919050565b336001600160a01b038616148061097a575061097a8533611211565b6109965760405162461bcd60e51b815260040161057d90613baa565b6001600160a01b0384166109bc5760405162461bcd60e51b815260040161057d90613aba565b6109c885858585611502565b6109d585858585856116f2565b5050505050565b60a8546000906001600160a01b03163314610a095760405162461bcd60e51b815260040161057d90613b0a565b610a15858585856117cc565b95945050505050565b60608151835114610a415760405162461bcd60e51b815260040161057d90613ada565b60608351604051908082528060200260200182016040528015610a6e578160200160208202803883390190505b50905060005b8451811015610b56576000848281518110610a8b57fe5b602002602001015190506000868381518110610aa357fe5b60200260200101519050600160ff1b8083161415610b0d576001600160801b031991909116600081815260a3602090815260408083206001600160a01b03861684529091529020548451919291859085908110610afc57fe5b602002602001018181525050610b4c565b6001600160a01b0381166000908152609c602090815260408083208584529091529020548451859085908110610b3f57fe5b6020026020010181815250505b5050600101610a74565b509392505050565b6000600160ff1b80831614801561070a5750506001600160801b0316151590565b6000600160ff1b80831614610ba65760405162461bcd60e51b815260040161057d90613b7a565b506000908152609f60205260409020546001600160a01b031690565b60a8546001600160a01b03163314610bec5760405162461bcd60e51b815260040161057d90613b0a565b610bf78383836118dd565b505050565b610c04610e0a565b610c205760405162461bcd60e51b815260040161057d90613b4a565b60a880546001600160a01b0319166001600160a01b0392909216919091179055565b6001600160801b03191690565b610c57610e0a565b610c735760405162461bcd60e51b815260040161057d90613b4a565b6033546040516000916001600160a01b0316907f8be0079c531659141344cd1fd0a4f28419497f9722a3daafe3b4186f6b6457e0908390a3603380546001600160a01b0319169055565b6000600160ff1b80831614801561070a5750506001600160801b03161590565b600054610100900460ff1680610cf65750610cf6611b6a565b80610d04575060005460ff16155b610d205760405162461bcd60e51b815260040161057d90613b5a565b600054610100900460ff16158015610d4b576000805460ff1961ff0019909116610100171660011790555b610d53611b70565b604051610d5f90612b39565b604051809103906000f080158015610d7b573d6000803e3d6000fd5b5060a680546001600160a01b0319166001600160a01b0392909216919091179055604051610da890612b46565b604051809103906000f080158015610dc4573d6000803e3d6000fd5b5060a780546001600160a01b0319166001600160a01b03929092169190911790558015610df7576000805461ff00191690555b50565b6033546001600160a01b03165b90565b6033546000906001600160a01b0316610e21611bf2565b6001600160a01b031614905090565b6001600160801b031690565b6000908152609b602052604090205490565b336000818152609a602090815260408083206001600160a01b038716808552925291829020805460ff191685151517905590519091907f17307eab39ab6107e8899845ad3d59bd9653f200f220920489ca2b5937696c3190610eb1908590613a3b565b60405180910390a35050565b6000610ec883610fd2565b8210610ee65760405162461bcd60e51b815260040161057d90613b2a565b600083815260a460205260409020805483908110610f0057fe5b9060005260206000200154905092915050565b60a8546000906001600160a01b03163314610f405760405162461bcd60e51b815260040161057d90613b0a565b610f4d8686868686611bf6565b9695505050505050565b600160ff1b161590565b60a8546060906001600160a01b03163314610f8e5760405162461bcd60e51b815260040161057d90613b0a565b610f4d8686868686611da2565b60a8546000906001600160a01b03163314610fc85760405162461bcd60e51b815260040161057d90613b0a565b6108b683836120c7565b6000600160ff1b8083161415610ff75750600081815260a46020526040902054610752565b506000908152609d602052604090205490565b600054610100900460ff16806110235750611023611b6a565b80611031575060005460ff16155b61104d5760405162461bcd60e51b815260040161057d90613b5a565b600054610100900460ff16158015611078576000805460ff1961ff0019909116610100171660011790555b61108182612192565b611089612264565b611091610cdd565b80156110a3576000805461ff00191690555b5050565b600084815260a5602052604090205484906001600160a01b031633146110df5760405162461bcd60e51b815260040161057d90613b3a565b6001600160a01b038481166000818152609a602090815260408083209488168084529490915290819020805460ff1916861515179055517f17307eab39ab6107e8899845ad3d59bd9653f200f220920489ca2b5937696c3190611143908690613a3b565b60405180910390a35050505050565b600085815260a5602052604081205486906001600160a01b0316331461118a5760405162461bcd60e51b815260040161057d90613b3a565b6001600160a01b0385166111b05760405162461bcd60e51b815260040161057d90613b3a565b83600160ff1b80821614156111cc57506001600160801b031984165b8781146111eb5760405162461bcd60e51b815260040161057d90613b6a565b6111f7878787876122eb565b506001979650505050505050565b600160ff1b9081161490565b6001600160a01b039182166000908152609a6020908152604080832093909416825291909152205460ff1690565b600061124b83856106a1565b82106112695760405162461bcd60e51b815260040161057d90613b9a565b600084815260a3602090815260408083206001600160a01b0387168452909152902080548390811061129757fe5b906000526020600020015490509392505050565b336001600160a01b03861614806112c757506112c78533611211565b6112e35760405162461bcd60e51b815260040161057d90613baa565b6001600160a01b0384166113095760405162461bcd60e51b815260040161057d90613aba565b611315858585856122eb565b6109d58585858585612460565b61132a610e0a565b6113465760405162461bcd60e51b815260040161057d90613b4a565b610df781612532565b60a8546001600160a01b031633146113795760405162461bcd60e51b815260040161057d90613b0a565b610bf78383836125b4565b336001600160a01b03851614806113a057506113a08433611211565b6113bc5760405162461bcd60e51b815260040161057d90613baa565b6001600160a01b0383166113e25760405162461bcd60e51b815260040161057d90613aba565b6113ee848484846122eb565b50505050565b600083815260a560205260408120546001600160a01b0316156114295760405162461bcd60e51b815260040161057d90613aaa565b60a754600090611441906001600160a01b0316612769565b604051633629c4ab60e11b81529091506001600160a01b03821690636c5389569061147490889088908890600401613be3565b600060405180830381600087803b15801561148e57600080fd5b505af11580156114a2573d6000803e3d6000fd5b505050600086815260a5602052604080822080546001600160a01b0319166001600160a01b038616908117909155905190925087917fcccefece0fd3790e086cb2640da729440d317eff499fdc064edffd503a3a6f3791a3949350505050565b80518251146115235760405162461bcd60e51b815260040161057d90613ada565b815160009081908190815b818110156116905786818151811061154257fe5b6020026020010151945085818151811061155857fe5b60200260200101519350600160ff1b80861614156115e5576000858152609f60205260409020546001600160801b0319861693506001600160a01b038a81169116146115a357600080fd5b6000858152609f6020526040902080546001600160a01b0319166001600160a01b038a161790556115d5838a876127bb565b6115e08389876128fc565b611688565b6001600160a01b0389166000908152609c60209081526040808320888452909152902054611619908563ffffffff61294d16565b6001600160a01b03808b166000908152609c602081815260408084208b8552825280842095909555928c16825282528281208882529091522054611663908563ffffffff61298f16565b6001600160a01b0389166000908152609c602090815260408083208984529091529020555b60010161152e565b50866001600160a01b0316886001600160a01b0316336001600160a01b03167f4a39dc06d4c0dbc64b70af90fd698a233a518aa5d07e595d983b8c0526c8f7fb89896040516116e0929190613a16565b60405180910390a45050505050505050565b611704846001600160a01b03166129b4565b156109d55760405163bc197c8160e01b81526000906001600160a01b0386169063bc197c81906117409033908a9089908990899060040161395e565b602060405180830381600087803b15801561175a57600080fd5b505af115801561176e573d6000803e3d6000fd5b505050506040513d601f19601f820116820180604052506117929190810190613255565b90506001600160e01b0319811663bc197c8160e01b146117c45760405162461bcd60e51b815260040161057d90613a5a565b505050505050565b600084815260a560205260408120546001600160a01b0316156118015760405162461bcd60e51b815260040161057d90613aaa565b60a654600090611819906001600160a01b0316612769565b60405163f201e5a160e01b81529091506001600160a01b0382169063f201e5a19061184e908990899089908990600401613c17565b600060405180830381600087803b15801561186857600080fd5b505af115801561187c573d6000803e3d6000fd5b505050600087815260a5602052604080822080546001600160a01b0319166001600160a01b038616908117909155905190925088917fcccefece0fd3790e086cb2640da729440d317eff499fdc064edffd503a3a6f3791a395945050505050565b80518251146118fe5760405162461bcd60e51b815260040161057d90613ada565b815160009081908190815b81811015611b085786818151811061191d57fe5b60200260200101519450849350600160ff1b8086161415611a0a5761194185610b7f565b9250876001600160a01b0316836001600160a01b0316148061196857506119688389611211565b6119845760405162461bcd60e51b815260040161057d90613baa565b6000858152609f6020908152604080832080546001600160a01b0319169055805180830180835284825289855260a0909352922091516119c5929190612b53565b5085516001600160801b0319861694506001908790839081106119e457fe5b6020026020010181815250506119fb8484876127bb565b611a0584866129f0565b611b00565b858181518110611a1657fe5b6020026020010151611a2889876106a1565b1015611a465760405162461bcd60e51b815260040161057d90613b8a565b611a7f868281518110611a5557fe5b6020026020010151609d60008781526020019081526020016000205461294d90919063ffffffff16565b6000858152609d60205260409020558551611adb90879083908110611aa057fe5b6020908102919091018101516001600160a01b038b166000908152609c835260408082208a835290935291909120549063ffffffff61294d16565b6001600160a01b0389166000908152609c602090815260408083208984529091529020555b600101611909565b5060006001600160a01b0316876001600160a01b0316336001600160a01b03167f4a39dc06d4c0dbc64b70af90fd698a233a518aa5d07e595d983b8c0526c8f7fb8989604051611b59929190613a16565b60405180910390a450505050505050565b303b1590565b600054610100900460ff1680611b895750611b89611b6a565b80611b97575060005460ff16155b611bb35760405162461bcd60e51b815260040161057d90613b5a565b600054610100900460ff16158015611bde576000805460ff1961ff0019909116610100171660011790555b8015610df7576000805461ff001916905550565b3390565b600080600160ff1b8087161415611c9d576000868152609b6020526040812054611c2790600163ffffffff61298f16565b6000888152609b60209081526040808320849055838b17808452609f835281842080546001600160a01b0319166001600160a01b038f1617905560a0835292208851929550929350611c7d929190880190612b53565b5060019550611c8d8789846128fc565b611c978783612ad3565b50611d4e565b506000858152609d60205260409020548590611cbf908663ffffffff61298f16565b6000878152609d6020908152604080832093909355609b90522054611cea908663ffffffff61298f16565b6000878152609b60209081526040808320939093556001600160a01b038a168252609c815282822089835290522054611d29908663ffffffff61298f16565b6001600160a01b0388166000908152609c602090815260408083208a84529091529020555b866001600160a01b031660006001600160a01b0316336001600160a01b0316600080516020615cf88339815191528489604051611d8c929190613c5a565b60405180910390a4610f4d600088838887612460565b60608351855114611dc55760405162461bcd60e51b815260040161057d90613ada565b60008060008088519050606081604051908082528060200260200182016040528015611dfb578160200160208202803883390190505b50905060005b82811015612052578a8181518110611e1557fe5b60200260200101519550600160ff1b8087161415611f2c576000868152609b6020526040902054611e4d90600163ffffffff61298f16565b945084609b60008881526020019081526020016000208190555084861793508b609f600086815260200190815260200160002060006101000a8154816001600160a01b0302191690836001600160a01b0316021790555083828281518110611eb157fe5b602002602001018181525050888181518110611ec957fe5b602002602001015160a060008681526020019081526020016000209080519060200190611ef7929190612b53565b5060018a8281518110611f0657fe5b602002602001018181525050611f1d868d866128fc565b611f278685612ad3565b61204a565b85828281518110611f3957fe5b602002602001018181525050611f7e8a8281518110611f5457fe5b6020026020010151609d60008981526020019081526020016000205461298f90919063ffffffff16565b6000878152609d60205260409020558951611fc9908b9083908110611f9f57fe5b6020026020010151609b60008981526020019081526020016000205461298f90919063ffffffff16565b6000878152609b60205260409020558951612025908b9083908110611fea57fe5b6020908102919091018101516001600160a01b038f166000908152609c835260408082208b835290935291909120549063ffffffff61298f16565b6001600160a01b038d166000908152609c602090815260408083208a84529091529020555b600101611e01565b508a6001600160a01b031660006001600160a01b0316336001600160a01b03167f4a39dc06d4c0dbc64b70af90fd698a233a518aa5d07e595d983b8c0526c8f7fb848d6040516120a3929190613a16565b60405180910390a46120b960008c838c8b6116f2565b9a9950505050505050505050565b6000808351116120e95760405162461bcd60e51b815260040161057d90613aea565b50609980546001019081905560801b811561210557600160ff1b175b600081815260a060209081526040909120845161212492860190612b53565b5060405160009081903390600080516020615cf88339815191529061214c9086908590613bc8565b60405180910390a4807f369737eac2f50072db0001f8a5c3f225ab50d5ab38d8cbdbabf885abf2ab722a846040516121849190613a49565b60405180910390a292915050565b600054610100900460ff16806121ab57506121ab611b6a565b806121b9575060005460ff16155b6121d55760405162461bcd60e51b815260040161057d90613b5a565b600054610100900460ff16158015612200576000805460ff1961ff0019909116610100171660011790555b603380546001600160a01b0319166001600160a01b0384811691909117918290556040519116906000907f8be0079c531659141344cd1fd0a4f28419497f9722a3daafe3b4186f6b6457e0908290a380156110a3576000805461ff00191690555050565b600054610100900460ff168061227d575061227d611b6a565b8061228b575060005460ff16155b6122a75760405162461bcd60e51b815260040161057d90613b5a565b600054610100900460ff161580156122d2576000805460ff1961ff0019909116610100171660011790555b60016066558015610df7576000805461ff001916905550565b600160ff1b8083161415612372576000828152609f60205260409020546001600160801b03198316906001600160a01b0386811691161461232b57600080fd5b6000838152609f6020526040902080546001600160a01b0319166001600160a01b038616179055600191506123618186856127bb565b61236c8185856128fc565b50612415565b6001600160a01b0384166000908152609c602090815260408083208584529091529020546123a6908263ffffffff61294d16565b6001600160a01b038086166000908152609c602081815260408084208885528252808420959095559287168252825282812085825290915220546123f0908263ffffffff61298f16565b6001600160a01b0384166000908152609c602090815260408083208684529091529020555b826001600160a01b0316846001600160a01b0316336001600160a01b0316600080516020615cf88339815191528585604051612452929190613c5a565b60405180910390a450505050565b612472846001600160a01b03166129b4565b156109d55760405163f23a6e6160e01b81526000906001600160a01b0386169063f23a6e61906124ae9033908a908990899089906004016139be565b602060405180830381600087803b1580156124c857600080fd5b505af11580156124dc573d6000803e3d6000fd5b505050506040513d601f19601f820116820180604052506125009190810190613255565b90506001600160e01b0319811663f23a6e6160e01b146117c45760405162461bcd60e51b815260040161057d90613a5a565b6001600160a01b0381166125585760405162461bcd60e51b815260040161057d90613a7a565b6033546040516001600160a01b038084169216907f8be0079c531659141344cd1fd0a4f28419497f9722a3daafe3b4186f6b6457e090600090a3603380546001600160a01b0319166001600160a01b0392909216919091179055565b81600160ff1b808216141561267f5760006125ce84610b7f565b9050846001600160a01b0316816001600160a01b031614806125f557506125f58186611211565b6126115760405162461bcd60e51b815260040161057d90613baa565b6000848152609f6020908152604080832080546001600160a01b0319169055805180830180835284825288855260a090935292209151612652929190612b53565b50600192506001600160801b03198416915061266f8282866127bb565b61267982856129f0565b5061272b565b8161268a85856106a1565b10156126a85760405162461bcd60e51b815260040161057d90613b8a565b6000818152609d60205260409020546126c7908363ffffffff61294d16565b6000828152609d60209081526040808320939093556001600160a01b0387168252609c815282822084835290522054612706908363ffffffff61294d16565b6001600160a01b0385166000908152609c602090815260408083208584529091529020555b60006001600160a01b0316846001600160a01b0316336001600160a01b0316600080516020615cf88339815191528686604051612452929190613c5a565b6000808260601b9050604051733d602d80600a3d3981f3363d3d373d3d3d363d7360601b81528160148201526e5af43d82803e903d91602b57fd5bf360881b60288201526037816000f0949350505050565b600083815260a3602090815260408083206001600160a01b03861684529091528120546127ef90600163ffffffff61294d16565b600085815260a1602090815260408083208684529091529020549091508082146128a657600085815260a3602090815260408083206001600160a01b0388168452909152812080548490811061284157fe5b600091825260208083209091015488835260a3825260408084206001600160a01b038a1685529092529120805491925082918490811061287d57fe5b600091825260208083209091019290925587815260a18252604080822093825292909152208190555b600085815260a3602090815260408083206001600160a01b038816845290915290208054906128d9906000198301612bd1565b505050600092835260a16020908152604080852092855291905282209190915550565b600083815260a3602090815260408083206001600160a01b039095168352848252808320805496845260a1835281842085855283529083208690559381526001850184559281529190912090910155565b60006108b683836040518060400160405280601e81526020017f536166654d6174683a207375627472616374696f6e206f766572666c6f770000815250612b0d565b6000828201838110156108b65760405162461bcd60e51b815260040161057d90613a8a565b6000813f7fc5d2460186f7233c927e7db2dcc703c0e500b653ca82273b7bfad8045d85a4708181148015906129e857508115155b949350505050565b600082815260a46020526040812054612a1090600163ffffffff61294d16565b600084815260a26020908152604080832086845282528083205487845260a490925282208054939450909284908110612a4557fe5b906000526020600020015490508060a460008781526020019081526020016000208381548110612a7157fe5b600091825260208083209091019290925586815260a282526040808220848352835280822085905587825260a490925220805490612ab3906000198301612bd1565b50505060009283525060a260209081526040808420928452919052812055565b600091825260a460208181526040808520805460a28452828720868852845291862082905592825260018101835591845290922090910155565b60008184841115612b315760405162461bcd60e51b815260040161057d9190613a49565b505050900390565b610b7f80613dc083390190565b6113b98061493f83390190565b828054600181600116156101000203166002900490600052602060002090601f016020900481019282601f10612b9457805160ff1916838001178555612bc1565b82800160010185558215612bc1579182015b82811115612bc1578251825591602001919060010190612ba6565b50612bcd929150612bf1565b5090565b815481835581811115610bf757600083815260209020610bf79181019083015b610e0791905b80821115612bcd5760008155600101612bf7565b803561070a81613d87565b600082601f830112612c2757600080fd5b8135612c3a612c3582613c9b565b613c75565b91508181835260208401935060208101905083856020840282011115612c5f57600080fd5b60005b83811015612c8b5781612c758882612c0b565b8452506020928301929190910190600101612c62565b5050505092915050565b600082601f830112612ca657600080fd5b8135612cb4612c3582613c9b565b81815260209384019390925082018360005b83811015612c8b5781358601612cdc8882612d83565b8452506020928301929190910190600101612cc6565b600082601f830112612d0357600080fd5b8135612d11612c3582613c9b565b91508181835260208401935060208101905083856020840282011115612d3657600080fd5b60005b83811015612c8b5781612d4c8882612dd2565b8452506020928301929190910190600101612d39565b803561070a81613d9b565b803561070a81613da4565b805161070a81613da4565b600082601f830112612d9457600080fd5b8135612da2612c3582613cbb565b91508082526020830160208301858383011115612dbe57600080fd5b612dc9838284613d45565b50505092915050565b803561070a81613dad565b803561070a81613db6565b600060208284031215612dfa57600080fd5b60006129e88484612c0b565b60008060408385031215612e1957600080fd5b6000612e258585612c0b565b9250506020612e3685828601612c0b565b9150509250929050565b600080600080600060a08688031215612e5857600080fd5b6000612e648888612c0b565b9550506020612e7588828901612c0b565b94505060408601356001600160401b03811115612e9157600080fd5b612e9d88828901612cf2565b93505060608601356001600160401b03811115612eb957600080fd5b612ec588828901612cf2565b92505060808601356001600160401b03811115612ee157600080fd5b612eed88828901612d83565b9150509295509295909350565b60008060008060808587031215612f1057600080fd5b6000612f1c8787612c0b565b9450506020612f2d87828801612c0b565b9350506040612f3e87828801612dd2565b9250506060612f4f87828801612dd2565b91505092959194509250565b600080600080600060a08688031215612f7357600080fd5b6000612f7f8888612c0b565b9550506020612f9088828901612c0b565b9450506040612fa188828901612dd2565b9350506060612ec588828901612dd2565b600080600060608486031215612fc757600080fd5b6000612fd38686612c0b565b93505060208401356001600160401b03811115612fef57600080fd5b612ffb86828701612cf2565b92505060408401356001600160401b0381111561301757600080fd5b61302386828701612cf2565b9150509250925092565b600080600080600060a0868803121561304557600080fd5b60006130518888612c0b565b95505060208601356001600160401b0381111561306d57600080fd5b61307988828901612cf2565b94505060408601356001600160401b0381111561309557600080fd5b6130a188828901612cf2565b93505060608601356001600160401b038111156130bd57600080fd5b612ec588828901612c95565b600080604083850312156130dc57600080fd5b60006130e88585612c0b565b9250506020612e3685828601612d62565b6000806040838503121561310c57600080fd5b60006131188585612c0b565b9250506020612e3685828601612dd2565b60008060006060848603121561313e57600080fd5b600061314a8686612c0b565b935050602061315b86828701612dd2565b925050604061302386828701612dd2565b600080600080600060a0868803121561318457600080fd5b60006131908888612c0b565b95505060206131a188828901612dd2565b94505060406131b288828901612dd2565b93505060608601356001600160401b038111156131ce57600080fd5b612ec588828901612d83565b600080604083850312156131ed57600080fd5b82356001600160401b0381111561320357600080fd5b61320f85828601612c16565b92505060208301356001600160401b0381111561322b57600080fd5b612e3685828601612cf2565b60006020828403121561324957600080fd5b60006129e88484612d6d565b60006020828403121561326757600080fd5b60006129e88484612d78565b6000806040838503121561328657600080fd5b82356001600160401b0381111561329c57600080fd5b6130e885828601612d83565b6000602082840312156132ba57600080fd5b60006129e88484612dd2565b600080600080608085870312156132dc57600080fd5b60006132e88787612dd2565b94505060206132f987828801612c0b565b935050604061330a87828801612c0b565b9250506060612f4f87828801612d62565b6000806000806080858703121561333157600080fd5b600061333d8787612dd2565b945050602061334e87828801612c0b565b9350506040612f3e87828801612c0b565b600080600080600060a0868803121561337757600080fd5b60006133838888612dd2565b955050602061339488828901612c0b565b94505060406133a588828901612c0b565b93505060606133b688828901612dd2565b9250506080612eed88828901612dd2565b6000806000606084860312156133dc57600080fd5b60006133e88686612dd2565b935050602061315b86828701612c0b565b60008060006060848603121561340e57600080fd5b600061341a8686612dd2565b93505060208401356001600160401b0381111561343657600080fd5b61344286828701612d83565b92505060408401356001600160401b0381111561345e57600080fd5b61302386828701612d83565b6000806000806080858703121561348057600080fd5b600061348c8787612dd2565b94505060208501356001600160401b038111156134a857600080fd5b6134b487828801612d83565b93505060408501356001600160401b038111156134d057600080fd5b6134dc87828801612d83565b9250506060612f4f87828801612ddd565b6000806040838503121561350057600080fd5b60006131188585612dd2565b6000613518838361393e565b505060200190565b61352981613d24565b82525050565b61352981613cf5565b600061354382613ce8565b61354d8185613cec565b935061355883613ce2565b8060005b83811015613586578151613570888261350c565b975061357b83613ce2565b92505060010161355c565b509495945050505050565b61352981613d00565b60006135a582613ce8565b6135af8185613cec565b93506135bf818560208601613d51565b6135c881613d7d565b9093019392505050565b61352981613d2f565b60006135e8600483613cec565b632298981960e11b815260200192915050565b6000613608600483613cec565b634532303560e01b815260200192915050565b6000613628602683613cec565b7f4f776e61626c653a206e6577206f776e657220697320746865207a65726f206181526564647265737360d01b602082015260400192915050565b6000613670601b83613cec565b7f536166654d6174683a206164646974696f6e206f766572666c6f770000000000815260200192915050565b60006136a9600483613cec565b634531313160e01b815260200192915050565b60006136c9600483613cec565b632299181960e11b815260200192915050565b60006136e9600483613cec565b634531303160e01b815260200192915050565b6000613709600483613cec565b632298989960e11b815260200192915050565b6000613729600483613cec565b634531303360e01b815260200192915050565b6000613749600483613cec565b634531303760e01b815260200192915050565b6000613769600483613cec565b630453131360e41b815260200192915050565b6000613789601e83613cec565b7f43616c6c6572206973206e6f7420436861726765645061727469636c65730000815260200192915050565b60006137c2600483613cec565b63114c8c0d60e21b815260200192915050565b60006137e2600483613cec565b634531303960e01b815260200192915050565b6000613802600483613cec565b634532303160e01b815260200192915050565b6000613822602083613cec565b7f4f776e61626c653a2063616c6c6572206973206e6f7420746865206f776e6572815260200192915050565b600061385b602e83613cec565b7f436f6e747261637420696e7374616e63652068617320616c726561647920626581526d195b881a5b9a5d1a585b1a5e995960921b602082015260400192915050565b60006138ab600483613cec565b634532303360e01b815260200192915050565b60006138cb600483613cec565b63114c4c0d60e21b815260200192915050565b60006138eb600483613cec565b632298981b60e11b815260200192915050565b600061390b600483613cec565b6308a6260760e31b815260200192915050565b600061392b600483613cec565b634531303560e01b815260200192915050565b61352981610e07565b61352981613d1e565b6020810161070a828461352f565b60a0810161396c8288613520565b613979602083018761352f565b818103604083015261398b8186613538565b9050818103606083015261399f8185613538565b905081810360808301526139b3818461359a565b979650505050505050565b60a081016139cc8288613520565b6139d9602083018761352f565b6139e6604083018661393e565b6139f3606083018561393e565b81810360808301526139b3818461359a565b602080825281016108b68184613538565b60408082528101613a278185613538565b905081810360208301526108b38184613538565b6020810161070a8284613591565b602080825281016108b6818461359a565b6020808252810161070a816135db565b6020808252810161070a816135fb565b6020808252810161070a8161361b565b6020808252810161070a81613663565b6020808252810161070a8161369c565b6020808252810161070a816136bc565b6020808252810161070a816136dc565b6020808252810161070a816136fc565b6020808252810161070a8161371c565b6020808252810161070a8161373c565b6020808252810161070a8161375c565b6020808252810161070a8161377c565b6020808252810161070a816137b5565b6020808252810161070a816137d5565b6020808252810161070a816137f5565b6020808252810161070a81613815565b6020808252810161070a8161384e565b6020808252810161070a8161389e565b6020808252810161070a816138be565b6020808252810161070a816138de565b6020808252810161070a816138fe565b6020808252810161070a8161391e565b6020810161070a828461393e565b60408101613bd6828561393e565b6108b660208301846135d2565b60608101613bf1828661393e565b8181036020830152613c03818561359a565b90508181036040830152610a15818461359a565b60808101613c25828761393e565b8181036020830152613c37818661359a565b90508181036040830152613c4b818561359a565b9050610a156060830184613947565b60408101613c68828561393e565b6108b6602083018461393e565b6040518181016001600160401b0381118282101715613c9357600080fd5b604052919050565b60006001600160401b03821115613cb157600080fd5b5060209081020190565b60006001600160401b03821115613cd157600080fd5b506020601f91909101601f19160190565b60200190565b5190565b90815260200190565b600061070a82613d12565b151590565b6001600160e01b03191690565b6001600160a01b031690565b60ff1690565b600061070a82613d3a565b600061070a82610e07565b600061070a82613cf5565b82818337506000910152565b60005b83811015613d6c578181015183820152602001613d54565b838111156113ee5750506000910152565b601f01601f191690565b613d9081613cf5565b8114610df757600080fd5b613d9081613d00565b613d9081613d05565b613d9081610e07565b613d9081613d1e56fe608060405234801561001057600080fd5b50610b5f806100206000396000f3fe608060405234801561001057600080fd5b50600436106100b45760003560e01c806370a082311161007157806370a08231146102085780638f940f631461022e57806395d89b4114610236578063a9059cbb1461023e578063dd62ed3e1461026a578063f201e5a114610298576100b4565b806306fdde03146100b9578063095ea7b31461013657806318160ddd1461017657806323b872dd14610190578063313ce567146101c65780636cdbbc66146101e4575b600080fd5b6100c16103d3565b6040805160208082528351818301528351919283929083019185019080838360005b838110156100fb5781810151838201526020016100e3565b50505050905090810190601f1680156101285780820380516001836020036101000a031916815260200191505b509250505060405180910390f35b6101626004803603604081101561014c57600080fd5b506001600160a01b03813516906020013561045e565b604080519115158252519081900360200190f35b61017e6104c4565b60408051918252519081900360200190f35b610162600480360360608110156101a657600080fd5b506001600160a01b03813581169160208101359091169060400135610546565b6101ce6106bd565b6040805160ff9092168252519081900360200190f35b6101ec6106c6565b604080516001600160a01b039092168252519081900360200190f35b61017e6004803603602081101561021e57600080fd5b50356001600160a01b03166106d5565b61017e61075e565b6100c1610764565b6101626004803603604081101561025457600080fd5b506001600160a01b0381351690602001356107bf565b61017e6004803603604081101561028057600080fd5b506001600160a01b03813581169160200135166108dc565b6103d1600480360360808110156102ae57600080fd5b813591908101906040810160208201356401000000008111156102d057600080fd5b8201836020820111156102e257600080fd5b8035906020019184600183028401116401000000008311171561030457600080fd5b91908080601f016020809104026020016040519081016040528093929190818152602001838380828437600092019190915250929594936020810193503591505064010000000081111561035757600080fd5b82018360208201111561036957600080fd5b8035906020019184600183028401116401000000008311171561038b57600080fd5b91908080601f0160208091040260200160405190810160405280939291908181526020018383808284376000920191909152509295505050903560ff1691506109079050565b005b6002805460408051602060018416156101000260001901909316849004601f810184900484028201840190925281815292918301828280156104565780601f1061042b57610100808354040283529160200191610456565b820191906000526020600020905b81548152906001019060200180831161043957829003601f168201915b505050505081565b3360008181526005602090815260408083206001600160a01b038716808552908352818420869055815186815291519394909390927f8c5be1e5ebec7d5bd14f71427d1e84f3dd0314c0f7b2291e5b200ac8c7c3b925928290030190a350600192915050565b600080546001546040805163bd85b03960e01b81526004810192909252516001600160a01b039092169163bd85b03991602480820192602092909190829003018186803b15801561051457600080fd5b505afa158015610528573d6000803e3d6000fd5b505050506040513d602081101561053e57600080fd5b505190505b90565b6001600160a01b038316600090815260056020908152604080832033845290915281205461057a908363ffffffff6109b216565b6001600160a01b038086166000818152600560209081526040808320338452825280832095909555815460015486516371fd7ee160e11b815260048101829052602481019590955289861660448601526064850152608484018890529451949093169363e3fafdc29360a4808501949193918390030190829087803b15801561060257600080fd5b505af1158015610616573d6000803e3d6000fd5b505050506040513d602081101561062c57600080fd5b5051610668576040805162461bcd60e51b8152602060048083019190915260248201526308a6460760e31b604482015290519081900360640190fd5b826001600160a01b0316846001600160a01b03167fddf252ad1be2c89b69c2b068fc378daa952ba7f163c4a11628f55a4df523b3ef846040518082815260200191505060405180910390a35060019392505050565b60045460ff1681565b6000546001600160a01b031681565b6000805460015460408051627eeac760e11b81526001600160a01b03868116600483015260248201939093529051919092169162fdd58e916044808301926020929190829003018186803b15801561072c57600080fd5b505afa158015610740573d6000803e3d6000fd5b505050506040513d602081101561075657600080fd5b505192915050565b60015481565b6003805460408051602060026001851615610100026000190190941693909304601f810184900484028201840190925281815292918301828280156104565780601f1061042b57610100808354040283529160200191610456565b60008054600154604080516371fd7ee160e11b8152600481018390523360248201526001600160a01b0387811660448301526064820193909352608481018690529051919092169163e3fafdc29160a480830192602092919082900301818787803b15801561082d57600080fd5b505af1158015610841573d6000803e3d6000fd5b505050506040513d602081101561085757600080fd5b5051610893576040805162461bcd60e51b8152602060048083019190915260248201526308a6460760e31b604482015290519081900360640190fd5b6040805183815290516001600160a01b0385169133917fddf252ad1be2c89b69c2b068fc378daa952ba7f163c4a11628f55a4df523b3ef9181900360200190a350600192915050565b6001600160a01b03918216600090815260056020908152604080832093909416825291909152205490565b60015415801561092057506000546001600160a01b0316155b61095a576040805162461bcd60e51b815260206004808301919091526024820152632299181b60e11b604482015290519081900360640190fd5b600080546001600160a01b0319163317905560018490558251610984906002906020860190610a92565b508151610998906003906020850190610a92565b506004805460ff191660ff92909216919091179055505050565b60006109f483836040518060400160405280601e81526020017f536166654d6174683a207375627472616374696f6e206f766572666c6f7700008152506109fb565b9392505050565b60008184841115610a8a5760405162461bcd60e51b81526004018080602001828103825283818151815260200191508051906020019080838360005b83811015610a4f578181015183820152602001610a37565b50505050905090810190601f168015610a7c5780820380516001836020036101000a031916815260200191505b509250505060405180910390fd5b505050900390565b828054600181600116156101000203166002900490600052602060002090601f016020900481019282601f10610ad357805160ff1916838001178555610b00565b82800160010185558215610b00579182015b82811115610b00578251825591602001919060010190610ae5565b50610b0c929150610b10565b5090565b61054391905b80821115610b0c5760008155600101610b1656fea265627a7a7231582092f304a341ccc9f3bf7b64e41b5564aebdd3af54d119a1ee3d29f5f61ee113a764736f6c63430005100032608060405234801561001057600080fd5b50611399806100206000396000f3fe608060405234801561001057600080fd5b50600436106101215760003560e01c80636352211e116100ad57806395d89b411161007157806395d89b4114610497578063a22cb4651461049f578063b88d4fde146104cd578063c87b56dd1461055b578063e985e9c51461057857610121565b80636352211e146103145780636c538956146103315780636cdbbc661461046157806370a08231146104695780638f940f631461048f57610121565b806318160ddd116100f457806318160ddd1461024557806323b872dd1461025f5780632f745c591461029557806342842e0e146102c15780634f6ccce7146102f757610121565b806301ffc9a71461012657806306fdde0314610161578063081812fc146101de578063095ea7b314610217575b600080fd5b61014d6004803603602081101561013c57600080fd5b50356001600160e01b0319166105a6565b604080519115158252519081900360200190f35b61016961060a565b6040805160208082528351818301528351919283929083019185019080838360005b838110156101a357818101518382015260200161018b565b50505050905090810190601f1680156101d05780820380516001836020036101000a031916815260200191505b509250505060405180910390f35b6101fb600480360360208110156101f457600080fd5b5035610695565b604080516001600160a01b039092168252519081900360200190f35b6102436004803603604081101561022d57600080fd5b506001600160a01b038135169060200135610714565b005b61024d61078e565b60408051918252519081900360200190f35b6102436004803603606081101561027557600080fd5b506001600160a01b03813581169160208101359091169060400135610810565b61024d600480360360408110156102ab57600080fd5b506001600160a01b038135169060200135610821565b610243600480360360608110156102d757600080fd5b506001600160a01b038135811691602081013590911690604001356108b3565b61024d6004803603602081101561030d57600080fd5b50356108cf565b6101fb6004803603602081101561032a57600080fd5b5035610926565b6102436004803603606081101561034757600080fd5b81359190810190604081016020820135600160201b81111561036857600080fd5b82018360208201111561037a57600080fd5b803590602001918460018302840111600160201b8311171561039b57600080fd5b91908080601f0160208091040260200160405190810160405280939291908181526020018383808284376000920191909152509295949360208101935035915050600160201b8111156103ed57600080fd5b8201836020820111156103ff57600080fd5b803590602001918460018302840111600160201b8311171561042057600080fd5b91908080601f016020809104026020016040519081016040528093929190818152602001838380828437600092019190915250929550610973945050505050565b6101fb610a0a565b61024d6004803603602081101561047f57600080fd5b50356001600160a01b0316610a19565b61024d610a70565b610169610a76565b610243600480360360408110156104b557600080fd5b506001600160a01b0381351690602001351515610ad1565b610243600480360360808110156104e357600080fd5b6001600160a01b03823581169260208101359091169160408201359190810190608081016060820135600160201b81111561051d57600080fd5b82018360208201111561052f57600080fd5b803590602001918460018302840111600160201b8311171561055057600080fd5b509092509050610b32565b6101696004803603602081101561057157600080fd5b5035610b7c565b61014d6004803603604081101561058e57600080fd5b506001600160a01b0381358116916020013516610cb9565b60006001600160e01b031980831614156105f0576040805162461bcd60e51b815260206004808301919091526024820152634532313160e01b604482015290519081900360640190fd5b506001600160e01b031981166380ac58cd60e01b14919050565b6002805460408051602060018416156101000260001901909316849004601f8101849004840282018401909252818152929183018282801561068d5780601f106106625761010080835404028352916020019161068d565b820191906000526020600020905b81548152906001019060200180831161067057829003601f168201915b505050505081565b600080546040805163020604bf60e21b81526004810185905290516001600160a01b039092169163081812fc91602480820192602092909190829003018186803b1580156106e257600080fd5b505afa1580156106f6573d6000803e3d6000fd5b505050506040513d602081101561070c57600080fd5b505192915050565b6000805460015460408051620bafd760e41b815260048101929092523360248301526001600160a01b03868116604484015260648301869052905192169262bafd709260848084019382900301818387803b15801561077257600080fd5b505af1158015610786573d6000803e3d6000fd5b505050505050565b600080546001546040805163bd85b03960e01b81526004810192909252516001600160a01b039092169163bd85b03991602480820192602092909190829003018186803b1580156107de57600080fd5b505afa1580156107f2573d6000803e3d6000fd5b505050506040513d602081101561080857600080fd5b505190505b90565b61081c33848484610d0f565b505050565b600080546001546040805163f12dde0b60e01b815260048101929092526001600160a01b03868116602484015260448301869052905192169163f12dde0b91606480820192602092909190829003018186803b15801561088057600080fd5b505afa158015610894573d6000803e3d6000fd5b505050506040513d60208110156108aa57600080fd5b50519392505050565b61081c3384848460405180602001604052806000815250610f07565b600080546001546040805163290d140560e21b8152600481019290925260248201859052516001600160a01b039092169163a434501491604480820192602092909190829003018186803b1580156106e257600080fd5b60008054604080516331a9108f60e11b81526004810185905290516001600160a01b0390921691636352211e91602480820192602092909190829003018186803b1580156106e257600080fd5b60015415801561098c57506000546001600160a01b0316155b6109c6576040805162461bcd60e51b815260206004808301919091526024820152632299181b60e11b604482015290519081900360640190fd5b600080546001600160a01b03191633179055600183905581516109f09060029060208501906112cc565b508051610a049060039060208401906112cc565b50505050565b6000546001600160a01b031681565b6000805460015460408051627eeac760e11b81526001600160a01b03868116600483015260248201939093529051919092169162fdd58e916044808301926020929190829003018186803b1580156106e257600080fd5b60015481565b6003805460408051602060026001851615610100026000190190941693909304601f8101849004840282018401909252818152929183018282801561068d5780601f106106625761010080835404028352916020019161068d565b6000805460015460408051630638bc7160e51b815260048101929092523360248301526001600160a01b0386811660448401528515156064840152905192169263c7178e209260848084019382900301818387803b15801561077257600080fd5b610b753386868686868080601f016020809104026020016040519081016040528093929190818152602001838380828437600092019190915250610f0792505050565b5050505050565b60008054604080516303a24d0760e21b81526004810185905290516060936001600160a01b0390931692630e89341c9260248082019391829003018186803b158015610bc757600080fd5b505afa158015610bdb573d6000803e3d6000fd5b505050506040513d6000823e601f3d908101601f191682016040526020811015610c0457600080fd5b8101908080516040519392919084600160201b821115610c2357600080fd5b908301906020820185811115610c3857600080fd5b8251600160201b811182820188101715610c5157600080fd5b82525081516020918201929091019080838360005b83811015610c7e578181015183820152602001610c66565b50505050905090810190601f168015610cab5780820380516001836020036101000a031916815260200191505b506040525050509050919050565b600080546040805163e985e9c560e01b81526001600160a01b03868116600483015285811660248301529151919092169163e985e9c5916044808301926020929190829003018186803b15801561088057600080fd5b826001600160a01b0316846001600160a01b03161480610dac57506000546040805163e985e9c560e01b81526001600160a01b03868116600483015287811660248301529151919092169163e985e9c5916044808301926020929190829003018186803b158015610d7f57600080fd5b505afa158015610d93573d6000803e3d6000fd5b505050506040513d6020811015610da957600080fd5b50515b610de6576040805162461bcd60e51b815260206004808301919091526024820152634532303760e01b604482015290519081900360640190fd5b6000805460018054604080516371fd7ee160e11b815260048101929092526001600160a01b038881166024840152878116604484015260648301879052608483019390935251919092169263e3fafdc29260a480820193602093909283900390910190829087803b158015610e5a57600080fd5b505af1158015610e6e573d6000803e3d6000fd5b505050506040513d6020811015610e8457600080fd5b5051610ec0576040805162461bcd60e51b815260206004808301919091526024820152634532303960e01b604482015290519081900360640190fd5b80826001600160a01b0316846001600160a01b03167fddf252ad1be2c89b69c2b068fc378daa952ba7f163c4a11628f55a4df523b3ef60405160405180910390a450505050565b836001600160a01b0316856001600160a01b03161480610fa457506000546040805163e985e9c560e01b81526001600160a01b03878116600483015288811660248301529151919092169163e985e9c5916044808301926020929190829003018186803b158015610f7757600080fd5b505afa158015610f8b573d6000803e3d6000fd5b505050506040513d6020811015610fa157600080fd5b50515b610fde576040805162461bcd60e51b815260206004808301919091526024820152634532303760e01b604482015290519081900360640190fd5b6000805460018054604080516371fd7ee160e11b815260048101929092526001600160a01b038981166024840152888116604484015260648301889052608483019390935251919092169263e3fafdc29260a480820193602093909283900390910190829087803b15801561105257600080fd5b505af1158015611066573d6000803e3d6000fd5b505050506040513d602081101561107c57600080fd5b50516110b8576040805162461bcd60e51b815260206004808301919091526024820152634532303960e01b604482015290519081900360640190fd5b6110c58585858585611147565b6110ff576040805162461bcd60e51b815260206004808301919091526024820152630453231360e41b604482015290519081900360640190fd5b81836001600160a01b0316856001600160a01b03167fddf252ad1be2c89b69c2b068fc378daa952ba7f163c4a11628f55a4df523b3ef60405160405180910390a45050505050565b600061115284611290565b61115e57506001611287565b6000846001600160a01b031663150b7a02888887876040518563ffffffff1660e01b815260040180856001600160a01b03166001600160a01b03168152602001846001600160a01b03166001600160a01b0316815260200183815260200180602001828103825283818151815260200191508051906020019080838360005b838110156111f55781810151838201526020016111dd565b50505050905090810190601f1680156112225780820380516001836020036101000a031916815260200191505b5095505050505050602060405180830381600087803b15801561124457600080fd5b505af1158015611258573d6000803e3d6000fd5b505050506040513d602081101561126e57600080fd5b50516001600160e01b031916630a85bd0160e11b149150505b95945050505050565b6000813f7fc5d2460186f7233c927e7db2dcc703c0e500b653ca82273b7bfad8045d85a47081158015906112c45750808214155b949350505050565b828054600181600116156101000203166002900490600052602060002090601f016020900481019282601f1061130d57805160ff191683800117855561133a565b8280016001018555821561133a579182015b8281111561133a57825182559160200191906001019061131f565b5061134692915061134a565b5090565b61080d91905b80821115611346576000815560010161135056fea265627a7a72315820f15cca4f05b64dd939255dd675d6b76ce42b85fa1cc4b7c5105dc01b8503462564736f6c63430005100032c3d58168c5ae7397731d063d5bbf3d657854427343f4c083240f7aacaa2d0f62a365627a7a723158208f7167d17afefa8f58398eb134a74c3daa09f2244a8309605ab1c3ef66c577ad6c6578706572696d656e74616cf564736f6c63430005100040",
    "sourcePath": "/Users/robsecord/workspace/Ethereum/ChargedParticles/ChargedParticlesEth/contracts/ChargedParticlesERC1155.sol",
    "compiler": {
        "name": "solc",
        "version": "0.5.16+commit.9c3226ce"
    },
    "functionHashes": {
        "approve(address,uint256)": "095ea7b3",
        "approveBridged(uint256,address,address,uint256)": "00bafd70",
        "balanceOf(address,uint256)": "00fdd58e",
        "balanceOfBatch(address[],uint256[])": "4e1273f4",
        "burn(address,uint256,uint256)": "f5298aca",
        "burnBatch(address,uint256[],uint256[])": "6b20c454",
        "createErc20Bridge(uint256,string,string,uint8)": "3251923f",
        "createErc721Bridge(uint256,string,string)": "09a7e01f",
        "createType(string,bool)": "bc476bca",
        "getApproved(uint256)": "081812fc",
        "getNonFungibleBaseType(uint256)": "6f969c2d",
        "getNonFungibleIndex(uint256)": "9cca1c64",
        "initialize()": "8129fc1c",
        "initialize(address)": "c4d66de8",
        "isApprovedForAll(address,address)": "e985e9c5",
        "isFungible(uint256)": "adebf6f2",
        "isNonFungible(uint256)": "e44591f0",
        "isNonFungibleBaseType(uint256)": "7269a327",
        "isNonFungibleItem(uint256)": "5e81b958",
        "isOwner()": "8f32d59b",
        "mint(address,uint256,uint256,string,bytes)": "a4b645eb",
        "mintBatch(address,uint256[],uint256[],string[],bytes)": "b9571e84",
        "owner()": "8da5cb5b",
        "ownerOf(uint256)": "6352211e",
        "renounceOwnership()": "715018a6",
        "safeBatchTransferFrom(address,address,uint256[],uint256[],bytes)": "2eb2c2d6",
        "safeTransferFrom(address,address,uint256,uint256,bytes)": "f242432a",
        "setApprovalForAll(address,bool)": "a22cb465",
        "setApprovalForAllBridged(uint256,address,address,bool)": "c7178e20",
        "setChargedParticles(address)": "6e5559fd",
        "supportsInterface(bytes4)": "01ffc9a7",
        "tokenByIndex(uint256,uint256)": "a4345014",
        "tokenOfOwnerByIndex(uint256,address,uint256)": "f12dde0b",
        "totalMinted(uint256)": "9d7f4ebf",
        "totalSupply(uint256)": "bd85b039",
        "transferFrom(address,address,uint256,uint256)": "fe99049a",
        "transferFromBridged(uint256,address,address,uint256,uint256)": "e3fafdc2",
        "transferOwnership(address)": "f2fde38b",
        "uri(uint256)": "0e89341c"
    },
    "gasEstimates": {
        "creation": {
            "codeDepositCost": "4779600",
            "executionCost": "5598",
            "totalCost": "4785198"
        },
        "external": {
            "approve(address,uint256)": "infinite",
            "approveBridged(uint256,address,address,uint256)": "infinite",
            "balanceOf(address,uint256)": "infinite",
            "balanceOfBatch(address[],uint256[])": "infinite",
            "burn(address,uint256,uint256)": "infinite",
            "burnBatch(address,uint256[],uint256[])": "infinite",
            "createErc20Bridge(uint256,string,string,uint8)": "infinite",
            "createErc721Bridge(uint256,string,string)": "infinite",
            "createType(string,bool)": "infinite",
            "getApproved(uint256)": "infinite",
            "getNonFungibleBaseType(uint256)": "infinite",
            "getNonFungibleIndex(uint256)": "infinite",
            "initialize()": "infinite",
            "initialize(address)": "infinite",
            "isApprovedForAll(address,address)": "infinite",
            "isFungible(uint256)": "infinite",
            "isNonFungible(uint256)": "infinite",
            "isNonFungibleBaseType(uint256)": "infinite",
            "isNonFungibleItem(uint256)": "infinite",
            "isOwner()": "1230",
            "mint(address,uint256,uint256,string,bytes)": "infinite",
            "mintBatch(address,uint256[],uint256[],string[],bytes)": "infinite",
            "owner()": "infinite",
            "ownerOf(uint256)": "infinite",
            "renounceOwnership()": "24312",
            "safeBatchTransferFrom(address,address,uint256[],uint256[],bytes)": "infinite",
            "safeTransferFrom(address,address,uint256,uint256,bytes)": "infinite",
            "setApprovalForAll(address,bool)": "infinite",
            "setApprovalForAllBridged(uint256,address,address,bool)": "infinite",
            "setChargedParticles(address)": "infinite",
            "supportsInterface(bytes4)": "infinite",
            "tokenByIndex(uint256,uint256)": "infinite",
            "tokenOfOwnerByIndex(uint256,address,uint256)": "infinite",
            "totalMinted(uint256)": "infinite",
            "totalSupply(uint256)": "infinite",
            "transferFrom(address,address,uint256,uint256)": "infinite",
            "transferFromBridged(uint256,address,address,uint256,uint256)": "infinite",
            "transferOwnership(address)": "infinite",
            "uri(uint256)": "infinite"
        }
    }
}