{
  "contractName": "Chai",
  "abi": [
    {
      "inputs": [],
      "payable": false,
      "stateMutability": "nonpayable",
      "type": "constructor"
    },
    {
      "anonymous": false,
      "inputs": [
        {
          "indexed": true,
          "internalType": "address",
          "name": "src",
          "type": "address"
        },
        {
          "indexed": true,
          "internalType": "address",
          "name": "guy",
          "type": "address"
        },
        {
          "indexed": false,
          "internalType": "uint256",
          "name": "wad",
          "type": "uint256"
        }
      ],
      "name": "Approval",
      "type": "event"
    },
    {
      "anonymous": false,
      "inputs": [
        {
          "indexed": true,
          "internalType": "address",
          "name": "src",
          "type": "address"
        },
        {
          "indexed": true,
          "internalType": "address",
          "name": "dst",
          "type": "address"
        },
        {
          "indexed": false,
          "internalType": "uint256",
          "name": "wad",
          "type": "uint256"
        }
      ],
      "name": "Transfer",
      "type": "event"
    },
    {
      "constant": true,
      "inputs": [
        {
          "internalType": "address",
          "name": "",
          "type": "address"
        },
        {
          "internalType": "address",
          "name": "",
          "type": "address"
        }
      ],
      "name": "allowance",
      "outputs": [
        {
          "internalType": "uint256",
          "name": "",
          "type": "uint256"
        }
      ],
      "payable": false,
      "stateMutability": "view",
      "type": "function"
    },
    {
      "constant": true,
      "inputs": [
        {
          "internalType": "address",
          "name": "",
          "type": "address"
        }
      ],
      "name": "balanceOf",
      "outputs": [
        {
          "internalType": "uint256",
          "name": "",
          "type": "uint256"
        }
      ],
      "payable": false,
      "stateMutability": "view",
      "type": "function"
    },
    {
      "constant": true,
      "inputs": [],
      "name": "daiJoin",
      "outputs": [
        {
          "internalType": "contract JoinLike",
          "name": "",
          "type": "address"
        }
      ],
      "payable": false,
      "stateMutability": "view",
      "type": "function"
    },
    {
      "constant": true,
      "inputs": [],
      "name": "daiToken",
      "outputs": [
        {
          "internalType": "contract GemLike",
          "name": "",
          "type": "address"
        }
      ],
      "payable": false,
      "stateMutability": "view",
      "type": "function"
    },
    {
      "constant": true,
      "inputs": [],
      "name": "decimals",
      "outputs": [
        {
          "internalType": "uint8",
          "name": "",
          "type": "uint8"
        }
      ],
      "payable": false,
      "stateMutability": "view",
      "type": "function"
    },
    {
      "constant": true,
      "inputs": [],
      "name": "name",
      "outputs": [
        {
          "internalType": "string",
          "name": "",
          "type": "string"
        }
      ],
      "payable": false,
      "stateMutability": "view",
      "type": "function"
    },
    {
      "constant": true,
      "inputs": [
        {
          "internalType": "address",
          "name": "",
          "type": "address"
        }
      ],
      "name": "nonces",
      "outputs": [
        {
          "internalType": "uint256",
          "name": "",
          "type": "uint256"
        }
      ],
      "payable": false,
      "stateMutability": "view",
      "type": "function"
    },
    {
      "constant": true,
      "inputs": [],
      "name": "pot",
      "outputs": [
        {
          "internalType": "contract PotLike",
          "name": "",
          "type": "address"
        }
      ],
      "payable": false,
      "stateMutability": "view",
      "type": "function"
    },
    {
      "constant": true,
      "inputs": [],
      "name": "symbol",
      "outputs": [
        {
          "internalType": "string",
          "name": "",
          "type": "string"
        }
      ],
      "payable": false,
      "stateMutability": "view",
      "type": "function"
    },
    {
      "constant": true,
      "inputs": [],
      "name": "totalSupply",
      "outputs": [
        {
          "internalType": "uint256",
          "name": "",
          "type": "uint256"
        }
      ],
      "payable": false,
      "stateMutability": "view",
      "type": "function"
    },
    {
      "constant": true,
      "inputs": [],
      "name": "vat",
      "outputs": [
        {
          "internalType": "contract VatLike",
          "name": "",
          "type": "address"
        }
      ],
      "payable": false,
      "stateMutability": "view",
      "type": "function"
    },
    {
      "constant": true,
      "inputs": [],
      "name": "version",
      "outputs": [
        {
          "internalType": "string",
          "name": "",
          "type": "string"
        }
      ],
      "payable": false,
      "stateMutability": "view",
      "type": "function"
    },
    {
      "constant": false,
      "inputs": [
        {
          "internalType": "address",
          "name": "dst",
          "type": "address"
        },
        {
          "internalType": "uint256",
          "name": "wad",
          "type": "uint256"
        }
      ],
      "name": "transfer",
      "outputs": [
        {
          "internalType": "bool",
          "name": "",
          "type": "bool"
        }
      ],
      "payable": false,
      "stateMutability": "nonpayable",
      "type": "function"
    },
    {
      "constant": false,
      "inputs": [
        {
          "internalType": "address",
          "name": "src",
          "type": "address"
        },
        {
          "internalType": "address",
          "name": "dst",
          "type": "address"
        },
        {
          "internalType": "uint256",
          "name": "wad",
          "type": "uint256"
        }
      ],
      "name": "move",
      "outputs": [
        {
          "internalType": "bool",
          "name": "",
          "type": "bool"
        }
      ],
      "payable": false,
      "stateMutability": "nonpayable",
      "type": "function"
    },
    {
      "constant": false,
      "inputs": [
        {
          "internalType": "address",
          "name": "src",
          "type": "address"
        },
        {
          "internalType": "address",
          "name": "dst",
          "type": "address"
        },
        {
          "internalType": "uint256",
          "name": "wad",
          "type": "uint256"
        }
      ],
      "name": "transferFrom",
      "outputs": [
        {
          "internalType": "bool",
          "name": "",
          "type": "bool"
        }
      ],
      "payable": false,
      "stateMutability": "nonpayable",
      "type": "function"
    },
    {
      "constant": false,
      "inputs": [
        {
          "internalType": "address",
          "name": "usr",
          "type": "address"
        },
        {
          "internalType": "uint256",
          "name": "wad",
          "type": "uint256"
        }
      ],
      "name": "approve",
      "outputs": [
        {
          "internalType": "bool",
          "name": "",
          "type": "bool"
        }
      ],
      "payable": false,
      "stateMutability": "nonpayable",
      "type": "function"
    },
    {
      "constant": false,
      "inputs": [
        {
          "internalType": "uint256",
          "name": "chai",
          "type": "uint256"
        }
      ],
      "name": "dai",
      "outputs": [
        {
          "internalType": "uint256",
          "name": "wad",
          "type": "uint256"
        }
      ],
      "payable": false,
      "stateMutability": "nonpayable",
      "type": "function"
    },
    {
      "constant": false,
      "inputs": [
        {
          "internalType": "address",
          "name": "usr",
          "type": "address"
        }
      ],
      "name": "dai",
      "outputs": [
        {
          "internalType": "uint256",
          "name": "wad",
          "type": "uint256"
        }
      ],
      "payable": false,
      "stateMutability": "nonpayable",
      "type": "function"
    },
    {
      "constant": false,
      "inputs": [
        {
          "internalType": "address",
          "name": "dst",
          "type": "address"
        },
        {
          "internalType": "uint256",
          "name": "wad",
          "type": "uint256"
        }
      ],
      "name": "join",
      "outputs": [],
      "payable": false,
      "stateMutability": "nonpayable",
      "type": "function"
    },
    {
      "constant": false,
      "inputs": [
        {
          "internalType": "address",
          "name": "src",
          "type": "address"
        },
        {
          "internalType": "uint256",
          "name": "wad",
          "type": "uint256"
        }
      ],
      "name": "exit",
      "outputs": [],
      "payable": false,
      "stateMutability": "nonpayable",
      "type": "function"
    },
    {
      "constant": false,
      "inputs": [
        {
          "internalType": "address",
          "name": "src",
          "type": "address"
        },
        {
          "internalType": "uint256",
          "name": "wad",
          "type": "uint256"
        }
      ],
      "name": "draw",
      "outputs": [
        {
          "internalType": "uint256",
          "name": "chai",
          "type": "uint256"
        }
      ],
      "payable": false,
      "stateMutability": "nonpayable",
      "type": "function"
    }
  ],
  "bytecode": "0x6080604052600080546001600160a01b031990811673ba987bdb501d131f766fee8180da5d81b34b69d91790915560018054821673ea190dbdc7adf265260ec4da6e9675fd4f5a78bb179055600280548216735aa71a3ae1c0bd6ac27a1f28e1415fffb6f15b8c17905560038054909116734f96fe3b7a6cf9725f59d353f723c1bdb64ca6aa17905534801561009457600080fd5b5060008054600254604080517fa3b22fc40000000000000000000000000000000000000000000000000000000081526001600160a01b0392831660048201529051919092169263a3b22fc4926024808201939182900301818387803b1580156100fc57600080fd5b505af1158015610110573d6000803e3d6000fd5b505060008054600154604080517fa3b22fc40000000000000000000000000000000000000000000000000000000081526001600160a01b039283166004820152905191909216945063a3b22fc493506024808301939282900301818387803b15801561017b57600080fd5b505af115801561018f573d6000803e3d6000fd5b5050600354600254604080517f095ea7b30000000000000000000000000000000000000000000000000000000081526001600160a01b0392831660048201526000196024820152905191909216935063095ea7b3925060448083019260209291908290030181600087803b15801561020657600080fd5b505af115801561021a573d6000803e3d6000fd5b505050506040513d602081101561023057600080fd5b505061172e806102416000396000f3fe608060405234801561001057600080fd5b50600436106101375760003560e01c806354fd4d50116100b8578063a9059cbb1161007c578063a9059cbb1461038c578063bb35783b146103b8578063be22f546146103ee578063c11645bc146103f6578063dd62ed3e146103fe578063ef693bed1461042c57610137565b806354fd4d501461030a5780636c25b3461461031257806370a08231146103385780637ecebe001461035e57806395d89b411461038457610137565b8063313ce567116100ff578063313ce5671461026657806336569e77146102845780633b4da69f146102a85780634a03707c146102d65780634ba2363a1461030257610137565b806306fdde031461013c578063095ea7b3146101b95780631043b2cb146101f957806318160ddd1461022857806323b872dd14610230575b600080fd5b610144610458565b6040805160208082528351818301528351919283929083019185019080838360005b8381101561017e578181015183820152602001610166565b50505050905090810190601f1680156101ab5780820380516001836020036101000a031916815260200191505b509250505060405180910390f35b6101e5600480360360408110156101cf57600080fd5b506001600160a01b038135169060200135610480565b604080519115158252519081900360200190f35b6102166004803603602081101561020f57600080fd5b50356104e7565b60408051918252519081900360200190f35b61021661067d565b6101e56004803603606081101561024657600080fd5b506001600160a01b03813581169160208101359091169060400135610683565b61026e6108ad565b6040805160ff9092168252519081900360200190f35b61028c6108b2565b604080516001600160a01b039092168252519081900360200190f35b6102d4600480360360408110156102be57600080fd5b506001600160a01b0381351690602001356108c1565b005b610216600480360360408110156102ec57600080fd5b506001600160a01b038135169060200135610c33565b61028c610dd5565b610144610de4565b6102166004803603602081101561032857600080fd5b50356001600160a01b0316610e01565b6102166004803603602081101561034e57600080fd5b50356001600160a01b0316610fab565b6102166004803603602081101561037457600080fd5b50356001600160a01b0316610fbd565b610144610fcf565b6101e5600480360360408110156103a257600080fd5b506001600160a01b038135169060200135610ff0565b6101e5600480360360608110156103ce57600080fd5b506001600160a01b03813581169160208101359091169060400135610ffd565b61028c61119f565b61028c6111ae565b6102166004803603604081101561041457600080fd5b506001600160a01b03813581169160200135166111bd565b6102d46004803603604081101561044257600080fd5b506001600160a01b0381351690602001356111da565b6040518060400160405280600c81526020016b5061727469636c654368616960a01b81525081565b3360008181526006602090815260408083206001600160a01b038716808552908352818420869055815186815291519394909390927f8c5be1e5ebec7d5bd14f71427d1e84f3dd0314c0f7b2291e5b200ac8c7c3b925928290030190a35060015b92915050565b600080600160009054906101000a90046001600160a01b03166001600160a01b03166320aba08b6040518163ffffffff1660e01b8152600401602060405180830381600087803b15801561053a57600080fd5b505af115801561054e573d6000803e3d6000fd5b505050506040513d602081101561056457600080fd5b505142116105ed57600160009054906101000a90046001600160a01b03166001600160a01b031663c92aecc46040518163ffffffff1660e01b8152600401602060405180830381600087803b1580156105bc57600080fd5b505af11580156105d0573d6000803e3d6000fd5b505050506040513d60208110156105e657600080fd5b505161066a565b600160009054906101000a90046001600160a01b03166001600160a01b0316639f678cca6040518163ffffffff1660e01b8152600401602060405180830381600087803b15801561063d57600080fd5b505af1158015610651573d6000803e3d6000fd5b505050506040513d602081101561066757600080fd5b50515b90506106768184611648565b9392505050565b60045481565b6001600160a01b0383166000908152600560205260408120548211156106ec576040805162461bcd60e51b8152602060048201526019602482015278636861692f696e73756666696369656e742d62616c616e636560381b604482015290519081900360640190fd5b6001600160a01b038416331480159061072a57506001600160a01b038416600090815260066020908152604080832033845290915290205460001914155b156107fa576001600160a01b03841660009081526006602090815260408083203384529091529020548211156107a7576040805162461bcd60e51b815260206004820152601b60248201527f636861692f696e73756666696369656e742d616c6c6f77616e63650000000000604482015290519081900360640190fd5b6001600160a01b03841660009081526006602090815260408083203384529091529020546107d59083611670565b6001600160a01b03851660009081526006602090815260408083203384529091529020555b6001600160a01b03841660009081526005602052604090205461081d9083611670565b6001600160a01b03808616600090815260056020526040808220939093559085168152205461084c9083611680565b6001600160a01b0380851660008181526005602090815260409182902094909455805186815290519193928816927fddf252ad1be2c89b69c2b068fc378daa952ba7f163c4a11628f55a4df523b3ef92918290030190a35060019392505050565b601281565b6000546001600160a01b031681565b600154604080516320aba08b60e01b815290516000926001600160a01b0316916320aba08b91600480830192602092919082900301818787803b15801561090757600080fd5b505af115801561091b573d6000803e3d6000fd5b505050506040513d602081101561093157600080fd5b505142116109ba57600160009054906101000a90046001600160a01b03166001600160a01b031663c92aecc46040518163ffffffff1660e01b8152600401602060405180830381600087803b15801561098957600080fd5b505af115801561099d573d6000803e3d6000fd5b505050506040513d60208110156109b357600080fd5b5051610a37565b600160009054906101000a90046001600160a01b03166001600160a01b0316639f678cca6040518163ffffffff1660e01b8152600401602060405180830381600087803b158015610a0a57600080fd5b505af1158015610a1e573d6000803e3d6000fd5b505050506040513d6020811015610a3457600080fd5b50515b90506000610a458383611690565b6001600160a01b038516600090815260056020526040902054909150610a6b9082611680565b6001600160a01b038516600090815260056020526040902055600454610a919082611680565b6004908155600354604080516323b872dd60e01b8152339381019390935230602484015260448301869052516001600160a01b03909116916323b872dd9160648083019260209291908290030181600087803b158015610af057600080fd5b505af1158015610b04573d6000803e3d6000fd5b505050506040513d6020811015610b1a57600080fd5b505060025460408051633b4da69f60e01b81523060048201526024810186905290516001600160a01b0390921691633b4da69f9160448082019260009290919082900301818387803b158015610b6f57600080fd5b505af1158015610b83573d6000803e3d6000fd5b50506001546040805163049878f360e01b81526004810186905290516001600160a01b03909216935063049878f3925060248082019260009290919082900301818387803b158015610bd457600080fd5b505af1158015610be8573d6000803e3d6000fd5b50506040805184815290516001600160a01b0388169350600092507fddf252ad1be2c89b69c2b068fc378daa952ba7f163c4a11628f55a4df523b3ef9181900360200190a350505050565b600080600160009054906101000a90046001600160a01b03166001600160a01b03166320aba08b6040518163ffffffff1660e01b8152600401602060405180830381600087803b158015610c8657600080fd5b505af1158015610c9a573d6000803e3d6000fd5b505050506040513d6020811015610cb057600080fd5b50514211610d3957600160009054906101000a90046001600160a01b03166001600160a01b031663c92aecc46040518163ffffffff1660e01b8152600401602060405180830381600087803b158015610d0857600080fd5b505af1158015610d1c573d6000803e3d6000fd5b505050506040513d6020811015610d3257600080fd5b5051610db6565b600160009054906101000a90046001600160a01b03166001600160a01b0316639f678cca6040518163ffffffff1660e01b8152600401602060405180830381600087803b158015610d8957600080fd5b505af1158015610d9d573d6000803e3d6000fd5b505050506040513d6020811015610db357600080fd5b50515b9050610dc283826116a9565b9150610dce84836111da565b5092915050565b6001546001600160a01b031681565b604051806040016040528060018152602001603160f81b81525081565b600080600160009054906101000a90046001600160a01b03166001600160a01b03166320aba08b6040518163ffffffff1660e01b8152600401602060405180830381600087803b158015610e5457600080fd5b505af1158015610e68573d6000803e3d6000fd5b505050506040513d6020811015610e7e57600080fd5b50514211610f0757600160009054906101000a90046001600160a01b03166001600160a01b031663c92aecc46040518163ffffffff1660e01b8152600401602060405180830381600087803b158015610ed657600080fd5b505af1158015610eea573d6000803e3d6000fd5b505050506040513d6020811015610f0057600080fd5b5051610f84565b600160009054906101000a90046001600160a01b03166001600160a01b0316639f678cca6040518163ffffffff1660e01b8152600401602060405180830381600087803b158015610f5757600080fd5b505af1158015610f6b573d6000803e3d6000fd5b505050506040513d6020811015610f8157600080fd5b50515b6001600160a01b038416600090815260056020526040902054909150610676908290611648565b60056020526000908152604090205481565b60076020526000908152604090205481565b60405180604001604052806005815260200164504348414960d81b81525081565b6000610676338484610683565b600080600160009054906101000a90046001600160a01b03166001600160a01b03166320aba08b6040518163ffffffff1660e01b8152600401602060405180830381600087803b15801561105057600080fd5b505af1158015611064573d6000803e3d6000fd5b505050506040513d602081101561107a57600080fd5b5051421161110357600160009054906101000a90046001600160a01b03166001600160a01b031663c92aecc46040518163ffffffff1660e01b8152600401602060405180830381600087803b1580156110d257600080fd5b505af11580156110e6573d6000803e3d6000fd5b505050506040513d60208110156110fc57600080fd5b5051611180565b600160009054906101000a90046001600160a01b03166001600160a01b0316639f678cca6040518163ffffffff1660e01b8152600401602060405180830381600087803b15801561115357600080fd5b505af1158015611167573d6000803e3d6000fd5b505050506040513d602081101561117d57600080fd5b50515b9050611196858561119186856116a9565b610683565b95945050505050565b6003546001600160a01b031681565b6002546001600160a01b031681565b600660209081526000928352604080842090915290825290205481565b6001600160a01b038216600090815260056020526040902054811115611243576040805162461bcd60e51b8152602060048201526019602482015278636861692f696e73756666696369656e742d62616c616e636560381b604482015290519081900360640190fd5b6001600160a01b038216331480159061128157506001600160a01b038216600090815260066020908152604080832033845290915290205460001914155b15611351576001600160a01b03821660009081526006602090815260408083203384529091529020548111156112fe576040805162461bcd60e51b815260206004820152601b60248201527f636861692f696e73756666696369656e742d616c6c6f77616e63650000000000604482015290519081900360640190fd5b6001600160a01b038216600090815260066020908152604080832033845290915290205461132c9082611670565b6001600160a01b03831660009081526006602090815260408083203384529091529020555b6001600160a01b0382166000908152600560205260409020546113749082611670565b6001600160a01b03831660009081526005602052604090205560045461139a9082611670565b6004908155600154604080516320aba08b60e01b815290516000936001600160a01b03909316926320aba08b9280820192602092909182900301818787803b1580156113e557600080fd5b505af11580156113f9573d6000803e3d6000fd5b505050506040513d602081101561140f57600080fd5b5051421161149857600160009054906101000a90046001600160a01b03166001600160a01b031663c92aecc46040518163ffffffff1660e01b8152600401602060405180830381600087803b15801561146757600080fd5b505af115801561147b573d6000803e3d6000fd5b505050506040513d602081101561149157600080fd5b5051611515565b600160009054906101000a90046001600160a01b03166001600160a01b0316639f678cca6040518163ffffffff1660e01b8152600401602060405180830381600087803b1580156114e857600080fd5b505af11580156114fc573d6000803e3d6000fd5b505050506040513d602081101561151257600080fd5b50515b60015460408051637f8661a160e01b81526004810186905290519293506001600160a01b0390911691637f8661a19160248082019260009290919082900301818387803b15801561156557600080fd5b505af1158015611579573d6000803e3d6000fd5b50506002546001600160a01b0316915063ef693bed90503361159b8486611648565b6040518363ffffffff1660e01b815260040180836001600160a01b03166001600160a01b0316815260200182815260200192505050600060405180830381600087803b1580156115ea57600080fd5b505af11580156115fe573d6000803e3d6000fd5b5050604080518581529051600093506001600160a01b03871692507fddf252ad1be2c89b69c2b068fc378daa952ba7f163c4a11628f55a4df523b3ef9181900360200190a3505050565b60006b033b2e3c9fd0803ce800000061166184846116d5565b8161166857fe5b049392505050565b808203828111156104e157600080fd5b808201828110156104e157600080fd5b600081611661846b033b2e3c9fd0803ce80000006116d5565b6000816116616116c5856b033b2e3c9fd0803ce80000006116d5565b6116d0856001611670565b611680565b60008115806116f0575050808202828282816116ed57fe5b04145b6104e157600080fdfea265627a7a723158205ab10a4f4bbba1522568a30e7b5b4a4d20b35cdc85f35812bc14492ab259f50964736f6c634300050d0032",
  "source": "// chai.sol -- a dai savings token\n// Copyright (C) 2017, 2018, 2019 dbrock, rain, mrchico, lucasvo, livnev\n\n// This program is free software: you can redistribute it and/or modify\n// it under the terms of the GNU Affero General Public License as published by\n// the Free Software Foundation, either version 3 of the License, or\n// (at your option) any later version.\n//\n// This program is distributed in the hope that it will be useful,\n// but WITHOUT ANY WARRANTY; without even the implied warranty of\n// MERCHANTABILITY or FITNESS FOR A PARTICULAR PURPOSE.  See the\n// GNU Affero General Public License for more details.\n//\n// You should have received a copy of the GNU Affero General Public License\n// along with this program.  If not, see <https://www.gnu.org/licenses/>.\n\n\n// Updated by @robsecord <robsecord.eth>;\n//   added function to read interest by wad rather than entire user balance\n//     - function dai(uint chai) external returns (uint wad)\n//   removed permit since this Chai should only be controlled\n//   via the ChargedParticles contract\n\n\n// Resources:\n// ~~~~~~~~~~\n// https://github.com/dapphub/chai/blob/master/src/chai.sol\n// https://github.com/makerdao/developerguides/blob/master/dai/dsr-integration-guide/dsr-integration-guide-01.md#smart-contract-addresses-and-abis\n// https://github.com/mattlockyer/composables-998/blob/master/contracts/ComposableTopDown.sol\n// https://kauri.io/gamifying-crypto-assets-with-the-erc998-composables-token-standard/436178ce670d4a9e9ffbd9cb7a8476fd/a\n//\n// Contract Addresses/ABI:\n//   https://changelog.makerdao.com/releases/mainnet/1.0.0/index.html\n//   https://changelog.makerdao.com/releases/kovan/0.2.17/index.html\n\npragma solidity 0.5.13;\n\ncontract VatLike {\n    function hope(address) external;\n}\n\ncontract PotLike {\n    function chi() external returns (uint256);\n    function rho() external returns (uint256);\n    function drip() external returns (uint256);\n    function join(uint256) external;\n    function exit(uint256) external;\n}\n\ncontract JoinLike {\n    function join(address, uint) external;\n    function exit(address, uint) external;\n}\n\ncontract GemLike {\n    function transferFrom(address,address,uint) external returns (bool);\n    function approve(address,uint) external returns (bool);\n}\n\ncontract Chai {\n    // --- Data ---\n    // Mainnet:\n    // VatLike  public vat = VatLike( 0x35D1b3F3D7966A1DFe207aa4514C12a259A0492B);         // MCD_VAT\n    // PotLike  public pot = PotLike( 0x197E90f9FAD81970bA7976f33CbD77088E5D7cf7);         // MCD_POT\n    // JoinLike public daiJoin = JoinLike( 0x9759A6Ac90977b93B58547b4A71c78317f391A28);    // MCD_JOIN_DAI\n    // GemLike  public daiToken = GemLike( 0x6B175474E89094C44Da98b954EedeAC495271d0F);    // MCD_DAI\n\n    // Kovan:\n    VatLike  public vat = VatLike( 0xbA987bDB501d131f766fEe8180Da5d81b34b69d9);         // MCD_VAT\n    PotLike  public pot = PotLike( 0xEA190DBDC7adF265260ec4dA6e9675Fd4f5A78bb);         // MCD_POT\n    JoinLike public daiJoin = JoinLike( 0x5AA71a3ae1C0bd6ac27A1f28e1415fFFB6F15B8c);    // MCD_JOIN_DAI\n    GemLike  public daiToken = GemLike( 0x4F96Fe3b7A6Cf9725f59d353F723c1bDb64CA6Aa);    // MCD_DAI\n\n    // --- ERC20 Data ---\n    string  public constant name     = \"ParticleChai\";\n    string  public constant symbol   = \"PCHAI\";\n    string  public constant version  = \"1\";\n    uint8   public constant decimals = 18;\n    uint256 public totalSupply;\n\n    mapping (address => uint)                      public balanceOf;\n    mapping (address => mapping (address => uint)) public allowance;\n    mapping (address => uint)                      public nonces;\n\n    event Approval(address indexed src, address indexed guy, uint wad);\n    event Transfer(address indexed src, address indexed dst, uint wad);\n\n    // --- Math ---\n    uint constant RAY = 10 ** 27;\n    function add(uint x, uint y) internal pure returns (uint z) {\n        require((z = x + y) >= x);\n    }\n    function sub(uint x, uint y) internal pure returns (uint z) {\n        require((z = x - y) <= x);\n    }\n    function mul(uint x, uint y) internal pure returns (uint z) {\n        require(y == 0 || (z = x * y) / y == x);\n    }\n    function rmul(uint x, uint y) internal pure returns (uint z) {\n        // always rounds down\n        z = mul(x, y) / RAY;\n    }\n    function rdiv(uint x, uint y) internal pure returns (uint z) {\n        // always rounds down\n        z = mul(x, RAY) / y;\n    }\n    function rdivup(uint x, uint y) internal pure returns (uint z) {\n        // always rounds up\n        z = add(mul(x, RAY), sub(y, 1)) / y;\n    }\n\n    constructor() public {\n        vat.hope(address(daiJoin));\n        vat.hope(address(pot));\n\n        daiToken.approve(address(daiJoin), uint(-1));\n    }\n\n    // --- Token ---\n    function transfer(address dst, uint wad) external returns (bool) {\n        return transferFrom(msg.sender, dst, wad);\n    }\n    // like transferFrom but dai-denominated\n    function move(address src, address dst, uint wad) external returns (bool) {\n        uint chi = (now > pot.rho()) ? pot.drip() : pot.chi();\n        // rounding up ensures dst gets at least wad dai\n        return transferFrom(src, dst, rdivup(wad, chi));\n    }\n    function transferFrom(address src, address dst, uint wad) public returns (bool) {\n        require(balanceOf[src] >= wad, \"chai/insufficient-balance\");\n        if (src != msg.sender && allowance[src][msg.sender] != uint(-1)) {\n            require(allowance[src][msg.sender] >= wad, \"chai/insufficient-allowance\");\n            allowance[src][msg.sender] = sub(allowance[src][msg.sender], wad);\n        }\n        balanceOf[src] = sub(balanceOf[src], wad);\n        balanceOf[dst] = add(balanceOf[dst], wad);\n        emit Transfer(src, dst, wad);\n        return true;\n    }\n    function approve(address usr, uint wad) external returns (bool) {\n        allowance[msg.sender][usr] = wad;\n        emit Approval(msg.sender, usr, wad);\n        return true;\n    }\n\n    function dai(address usr) external returns (uint wad) {\n        uint chi = (now > pot.rho()) ? pot.drip() : pot.chi();\n        wad = rmul(chi, balanceOf[usr]);\n    }\n\n    function dai(uint chai) external returns (uint wad) {\n        uint chi = (now > pot.rho()) ? pot.drip() : pot.chi();\n        wad = rmul(chi, chai);\n    }\n\n    // wad is denominated in dai\n    function join(address dst, uint wad) external {\n        uint chi = (now > pot.rho()) ? pot.drip() : pot.chi();\n        uint pie = rdiv(wad, chi);\n        balanceOf[dst] = add(balanceOf[dst], pie);\n        totalSupply    = add(totalSupply, pie);\n\n        daiToken.transferFrom(msg.sender, address(this), wad);\n        daiJoin.join(address(this), wad);\n        pot.join(pie);\n        emit Transfer(address(0), dst, pie);\n    }\n\n    // wad is denominated in (1/chi) * dai\n    function exit(address src, uint wad) public {\n        require(balanceOf[src] >= wad, \"chai/insufficient-balance\");\n        if (src != msg.sender && allowance[src][msg.sender] != uint(-1)) {\n            require(allowance[src][msg.sender] >= wad, \"chai/insufficient-allowance\");\n            allowance[src][msg.sender] = sub(allowance[src][msg.sender], wad);\n        }\n        balanceOf[src] = sub(balanceOf[src], wad);\n        totalSupply    = sub(totalSupply, wad);\n\n        uint chi = (now > pot.rho()) ? pot.drip() : pot.chi();\n        pot.exit(wad);\n        daiJoin.exit(msg.sender, rmul(chi, wad));\n        emit Transfer(src, address(0), wad);\n    }\n\n    // wad is denominated in dai\n    function draw(address src, uint wad) external returns (uint chai) {\n        uint chi = (now > pot.rho()) ? pot.drip() : pot.chi();\n        // rounding up ensures usr gets at least wad dai\n        chai = rdivup(wad, chi);\n        exit(src, chai);\n    }\n}\n",
  "sourcePath": "/Users/robsecord/workspace/Ethereum/ChargedParticles/ChargedParticlesEth/contracts/Chai.sol",
  "compiler": {
    "name": "solc",
    "version": "0.5.13+commit.5b0b510c.Emscripten.clang"
  },
  "schemaVersion": "3.0.23",
  "updatedAt": "2020-02-03T04:50:57.987Z",
  "networkType": "ethereum",
  "devdoc": {
    "methods": {}
  },
  "userdoc": {
    "methods": {}
  }
}