{
  "contractName": "ChargedParticlesERC1155",
  "abi": [
    {
      "inputs": [],
      "payable": false,
      "stateMutability": "nonpayable",
      "type": "constructor"
    },
    {
      "anonymous": false,
      "inputs": [
        {
          "indexed": true,
          "internalType": "address",
          "name": "_owner",
          "type": "address"
        },
        {
          "indexed": true,
          "internalType": "address",
          "name": "_operator",
          "type": "address"
        },
        {
          "indexed": false,
          "internalType": "bool",
          "name": "_approved",
          "type": "bool"
        }
      ],
      "name": "ApprovalForAll",
      "type": "event"
    },
    {
      "anonymous": false,
      "inputs": [
        {
          "indexed": true,
          "internalType": "address",
          "name": "previousOwner",
          "type": "address"
        },
        {
          "indexed": true,
          "internalType": "address",
          "name": "newOwner",
          "type": "address"
        }
      ],
      "name": "OwnershipTransferred",
      "type": "event"
    },
    {
      "anonymous": false,
      "inputs": [
        {
          "indexed": true,
          "internalType": "address",
          "name": "_operator",
          "type": "address"
        },
        {
          "indexed": true,
          "internalType": "address",
          "name": "_from",
          "type": "address"
        },
        {
          "indexed": true,
          "internalType": "address",
          "name": "_to",
          "type": "address"
        },
        {
          "indexed": false,
          "internalType": "uint256[]",
          "name": "_ids",
          "type": "uint256[]"
        },
        {
          "indexed": false,
          "internalType": "uint256[]",
          "name": "_amounts",
          "type": "uint256[]"
        }
      ],
      "name": "TransferBatch",
      "type": "event"
    },
    {
      "anonymous": false,
      "inputs": [
        {
          "indexed": true,
          "internalType": "address",
          "name": "_operator",
          "type": "address"
        },
        {
          "indexed": true,
          "internalType": "address",
          "name": "_from",
          "type": "address"
        },
        {
          "indexed": true,
          "internalType": "address",
          "name": "_to",
          "type": "address"
        },
        {
          "indexed": false,
          "internalType": "uint256",
          "name": "_id",
          "type": "uint256"
        },
        {
          "indexed": false,
          "internalType": "uint256",
          "name": "_amount",
          "type": "uint256"
        }
      ],
      "name": "TransferSingle",
      "type": "event"
    },
    {
      "anonymous": false,
      "inputs": [
        {
          "indexed": false,
          "internalType": "string",
          "name": "_uri",
          "type": "string"
        },
        {
          "indexed": true,
          "internalType": "uint256",
          "name": "_type",
          "type": "uint256"
        }
      ],
      "name": "URI",
      "type": "event"
    },
    {
      "constant": true,
      "inputs": [
        {
          "internalType": "address",
          "name": "_owner",
          "type": "address"
        },
        {
          "internalType": "uint256",
          "name": "_tokenId",
          "type": "uint256"
        }
      ],
      "name": "balanceOf",
      "outputs": [
        {
          "internalType": "uint256",
          "name": "",
          "type": "uint256"
        }
      ],
      "payable": false,
      "stateMutability": "view",
      "type": "function"
    },
    {
      "constant": true,
      "inputs": [
        {
          "internalType": "address[]",
          "name": "_owners",
          "type": "address[]"
        },
        {
          "internalType": "uint256[]",
          "name": "_tokenIds",
          "type": "uint256[]"
        }
      ],
      "name": "balanceOfBatch",
      "outputs": [
        {
          "internalType": "uint256[]",
          "name": "",
          "type": "uint256[]"
        }
      ],
      "payable": false,
      "stateMutability": "view",
      "type": "function"
    },
    {
      "constant": true,
      "inputs": [
        {
          "internalType": "address",
          "name": "_owner",
          "type": "address"
        },
        {
          "internalType": "address",
          "name": "_operator",
          "type": "address"
        }
      ],
      "name": "isApprovedForAll",
      "outputs": [
        {
          "internalType": "bool",
          "name": "isOperator",
          "type": "bool"
        }
      ],
      "payable": false,
      "stateMutability": "view",
      "type": "function"
    },
    {
      "constant": true,
      "inputs": [
        {
          "internalType": "uint256",
          "name": "_tokenId",
          "type": "uint256"
        }
      ],
      "name": "ownerOf",
      "outputs": [
        {
          "internalType": "address",
          "name": "",
          "type": "address"
        }
      ],
      "payable": false,
      "stateMutability": "view",
      "type": "function"
    },
    {
      "constant": false,
      "inputs": [
        {
          "internalType": "address",
          "name": "_from",
          "type": "address"
        },
        {
          "internalType": "address",
          "name": "_to",
          "type": "address"
        },
        {
          "internalType": "uint256[]",
          "name": "_ids",
          "type": "uint256[]"
        },
        {
          "internalType": "uint256[]",
          "name": "_amounts",
          "type": "uint256[]"
        },
        {
          "internalType": "bytes",
          "name": "_data",
          "type": "bytes"
        }
      ],
      "name": "safeBatchTransferFrom",
      "outputs": [],
      "payable": false,
      "stateMutability": "nonpayable",
      "type": "function"
    },
    {
      "constant": false,
      "inputs": [
        {
          "internalType": "address",
          "name": "_from",
          "type": "address"
        },
        {
          "internalType": "address",
          "name": "_to",
          "type": "address"
        },
        {
          "internalType": "uint256",
          "name": "_id",
          "type": "uint256"
        },
        {
          "internalType": "uint256",
          "name": "_amount",
          "type": "uint256"
        },
        {
          "internalType": "bytes",
          "name": "_data",
          "type": "bytes"
        }
      ],
      "name": "safeTransferFrom",
      "outputs": [],
      "payable": false,
      "stateMutability": "nonpayable",
      "type": "function"
    },
    {
      "constant": false,
      "inputs": [
        {
          "internalType": "address",
          "name": "_operator",
          "type": "address"
        },
        {
          "internalType": "bool",
          "name": "_approved",
          "type": "bool"
        }
      ],
      "name": "setApprovalForAll",
      "outputs": [],
      "payable": false,
      "stateMutability": "nonpayable",
      "type": "function"
    },
    {
      "constant": true,
      "inputs": [
        {
          "internalType": "bytes4",
          "name": "_interfaceID",
          "type": "bytes4"
        }
      ],
      "name": "supportsInterface",
      "outputs": [
        {
          "internalType": "bool",
          "name": "",
          "type": "bool"
        }
      ],
      "payable": false,
      "stateMutability": "view",
      "type": "function"
    },
    {
      "constant": true,
      "inputs": [
        {
          "internalType": "uint256",
          "name": "_tokenId",
          "type": "uint256"
        }
      ],
      "name": "uri",
      "outputs": [
        {
          "internalType": "string",
          "name": "",
          "type": "string"
        }
      ],
      "payable": false,
      "stateMutability": "view",
      "type": "function"
    },
    {
      "constant": true,
      "inputs": [],
      "name": "version",
      "outputs": [
        {
          "internalType": "bytes16",
          "name": "",
          "type": "bytes16"
        }
      ],
      "payable": false,
      "stateMutability": "view",
      "type": "function"
    },
    {
      "constant": true,
      "inputs": [],
      "name": "getContractOwner",
      "outputs": [
        {
          "internalType": "address",
          "name": "",
          "type": "address"
        }
      ],
      "payable": false,
      "stateMutability": "view",
      "type": "function"
    },
    {
      "constant": true,
      "inputs": [
        {
          "internalType": "uint256",
          "name": "_type",
          "type": "uint256"
        }
      ],
      "name": "getCreator",
      "outputs": [
        {
          "internalType": "address",
          "name": "",
          "type": "address"
        }
      ],
      "payable": false,
      "stateMutability": "view",
      "type": "function"
    },
    {
      "constant": true,
      "inputs": [
        {
          "internalType": "uint256",
          "name": "_type",
          "type": "uint256"
        },
        {
          "internalType": "uint256",
          "name": "_amount",
          "type": "uint256"
        }
      ],
      "name": "canMint",
      "outputs": [
        {
          "internalType": "bool",
          "name": "",
          "type": "bool"
        }
      ],
      "payable": false,
      "stateMutability": "view",
      "type": "function"
    },
    {
      "constant": true,
      "inputs": [
        {
          "internalType": "bool",
          "name": "_isNF",
          "type": "bool"
        }
      ],
      "name": "getCreationPrice",
      "outputs": [
        {
          "internalType": "uint256",
          "name": "eth",
          "type": "uint256"
        },
        {
          "internalType": "uint256",
          "name": "ion",
          "type": "uint256"
        }
      ],
      "payable": false,
      "stateMutability": "view",
      "type": "function"
    },
    {
      "constant": true,
      "inputs": [
        {
          "internalType": "uint256",
          "name": "_tokenId",
          "type": "uint256"
        }
      ],
      "name": "baseParticleMass",
      "outputs": [
        {
          "internalType": "uint256",
          "name": "",
          "type": "uint256"
        }
      ],
      "payable": false,
      "stateMutability": "view",
      "type": "function"
    },
    {
      "constant": false,
      "inputs": [
        {
          "internalType": "uint256",
          "name": "_tokenId",
          "type": "uint256"
        }
      ],
      "name": "currentParticleCharge",
      "outputs": [
        {
          "internalType": "uint256",
          "name": "",
          "type": "uint256"
        }
      ],
      "payable": false,
      "stateMutability": "nonpayable",
      "type": "function"
    },
    {
      "constant": false,
      "inputs": [
        {
          "internalType": "uint256",
          "name": "_tokenId",
          "type": "uint256"
        }
      ],
      "name": "dischargeParticle",
      "outputs": [
        {
          "internalType": "uint256",
          "name": "",
          "type": "uint256"
        }
      ],
      "payable": false,
      "stateMutability": "nonpayable",
      "type": "function"
    },
    {
      "constant": false,
      "inputs": [
        {
          "internalType": "string",
          "name": "_uri",
          "type": "string"
        },
        {
          "internalType": "bool",
          "name": "_isNF",
          "type": "bool"
        },
        {
          "internalType": "bool",
          "name": "_isPrivate",
          "type": "bool"
        },
        {
          "internalType": "uint256",
          "name": "_requiredDai",
          "type": "uint256"
        },
        {
          "internalType": "uint256",
          "name": "_maxSupply",
          "type": "uint256"
        }
      ],
      "name": "createParticleWithEther",
      "outputs": [
        {
          "internalType": "uint256",
          "name": "_particleTypeId",
          "type": "uint256"
        }
      ],
      "payable": true,
      "stateMutability": "payable",
      "type": "function"
    },
    {
      "constant": false,
      "inputs": [
        {
          "internalType": "string",
          "name": "_uri",
          "type": "string"
        },
        {
          "internalType": "bool",
          "name": "_isNF",
          "type": "bool"
        },
        {
          "internalType": "bool",
          "name": "_isPrivate",
          "type": "bool"
        },
        {
          "internalType": "uint256",
          "name": "_requiredDai",
          "type": "uint256"
        },
        {
          "internalType": "uint256",
          "name": "_maxSupply",
          "type": "uint256"
        }
      ],
      "name": "createParticleWithIons",
      "outputs": [
        {
          "internalType": "uint256",
          "name": "_particleTypeId",
          "type": "uint256"
        }
      ],
      "payable": false,
      "stateMutability": "nonpayable",
      "type": "function"
    },
    {
      "constant": false,
      "inputs": [
        {
          "internalType": "address",
          "name": "_to",
          "type": "address"
        },
        {
          "internalType": "uint256",
          "name": "_type",
          "type": "uint256"
        },
        {
          "internalType": "uint256",
          "name": "_amount",
          "type": "uint256"
        },
        {
          "internalType": "bytes",
          "name": "_data",
          "type": "bytes"
        }
      ],
      "name": "mintParticle",
      "outputs": [
        {
          "internalType": "uint256",
          "name": "",
          "type": "uint256"
        }
      ],
      "payable": false,
      "stateMutability": "nonpayable",
      "type": "function"
    },
    {
      "constant": false,
      "inputs": [
        {
          "internalType": "address",
          "name": "_to",
          "type": "address"
        },
        {
          "internalType": "uint256[]",
          "name": "_types",
          "type": "uint256[]"
        },
        {
          "internalType": "uint256[]",
          "name": "_amounts",
          "type": "uint256[]"
        },
        {
          "internalType": "bytes",
          "name": "_data",
          "type": "bytes"
        }
      ],
      "name": "mintParticles",
      "outputs": [
        {
          "internalType": "uint256[]",
          "name": "",
          "type": "uint256[]"
        }
      ],
      "payable": false,
      "stateMutability": "nonpayable",
      "type": "function"
    },
    {
      "constant": false,
      "inputs": [
        {
          "internalType": "uint256",
          "name": "_tokenId",
          "type": "uint256"
        },
        {
          "internalType": "uint256",
          "name": "_amount",
          "type": "uint256"
        }
      ],
      "name": "burnParticle",
      "outputs": [],
      "payable": false,
      "stateMutability": "nonpayable",
      "type": "function"
    },
    {
      "constant": false,
      "inputs": [
        {
          "internalType": "uint256[]",
          "name": "_tokenIds",
          "type": "uint256[]"
        },
        {
          "internalType": "uint256[]",
          "name": "_amounts",
          "type": "uint256[]"
        }
      ],
      "name": "burnParticles",
      "outputs": [],
      "payable": false,
      "stateMutability": "nonpayable",
      "type": "function"
    },
    {
      "constant": false,
      "inputs": [
        {
          "internalType": "address",
          "name": "_daiAddress",
          "type": "address"
        },
        {
          "internalType": "address",
          "name": "_chaiAddress",
          "type": "address"
        },
        {
          "internalType": "uint256",
          "name": "_createFeeEth",
          "type": "uint256"
        },
        {
          "internalType": "uint256",
          "name": "_createFeeIon",
          "type": "uint256"
        },
        {
          "internalType": "uint256",
          "name": "_mintFee",
          "type": "uint256"
        }
      ],
      "name": "setup",
      "outputs": [],
      "payable": false,
      "stateMutability": "nonpayable",
      "type": "function"
    },
    {
      "constant": false,
      "inputs": [
        {
          "internalType": "string",
          "name": "_uri",
          "type": "string"
        },
        {
          "internalType": "uint256",
          "name": "_amount",
          "type": "uint256"
        }
      ],
      "name": "mintIons",
      "outputs": [
        {
          "internalType": "uint256",
          "name": "",
          "type": "uint256"
        }
      ],
      "payable": false,
      "stateMutability": "nonpayable",
      "type": "function"
    },
    {
      "constant": false,
      "inputs": [],
      "name": "withdrawFees",
      "outputs": [],
      "payable": false,
      "stateMutability": "nonpayable",
      "type": "function"
    },
    {
      "constant": false,
      "inputs": [
        {
          "internalType": "address",
          "name": "_newOwner",
          "type": "address"
        }
      ],
      "name": "transferOwnership",
      "outputs": [],
      "payable": false,
      "stateMutability": "nonpayable",
      "type": "function"
    }
  ],
  "bytecode": "0x6080604052601380546001600160801b0319166f76302e302e330000000000000000000017905534801561003257600080fd5b50601280546001600160a01b0319163317908190556040516001600160a01b0391909116906000907f8be0079c531659141344cd1fd0a4f28419497f9722a3daafe3b4186f6b6457e0908290a3613bba8061008e6000396000f3fe60806040526004361061019b5760003560e01c80637162dbac116100ec578063a22cb4651161008a578063d48e638a11610064578063d48e638a146104b9578063e985e9c5146104d9578063f242432a146104f9578063f2fde38b146105195761019b565b8063a22cb46514610459578063af4bd49214610479578063b4721923146104995761019b565b80638f0cae75116100c65780638f0cae75146103d85780639494a923146103f857806395b3ec211461040b5780639687c1b11461042b5761019b565b80637162dbac14610378578063810174ac146103985780638c060bb7146103b85761019b565b80632eb2c2d6116101595780634e1273f4116101335780634e1273f4146102e95780634e5557d71461031657806354fd4d50146103365780636352211e146103585761019b565b80632eb2c2d614610292578063442890d5146102b2578063476343ee146102d45761019b565b8062fdd58e146101a057806301ffc9a7146101d65780630e89341c146102035780631d47d61a1461023057806322e1dea914610252578063265e41fb14610272575b600080fd5b3480156101ac57600080fd5b506101c06101bb366004613077565b610539565b6040516101cd91906139cc565b60405180910390f35b3480156101e257600080fd5b506101f66101f13660046131b9565b6105be565b6040516101cd919061385f565b34801561020f57600080fd5b5061022361021e366004613286565b610605565b6040516101cd919061387b565b34801561023c57600080fd5b5061025061024b3660046132c2565b610653565b005b34801561025e57600080fd5b506101f661026d3660046132c2565b6106d2565b34801561027e57600080fd5b506101c061028d3660046130a7565b6107a1565b34801561029e57600080fd5b506102506102ad366004612e28565b6109a7565b3480156102be57600080fd5b506102c7610a25565b6040516101cd919061373c565b3480156102e057600080fd5b50610250610a35565b3480156102f557600080fd5b506103096103043660046130eb565b610ab3565b6040516101cd9190613829565b34801561032257600080fd5b506101c06103313660046131f5565b610c24565b34801561034257600080fd5b5061034b610c56565b6040516101cd919061386d565b34801561036457600080fd5b506102c7610373366004613286565b610c5f565b34801561038457600080fd5b50610250610393366004612f39565b610ca2565b3480156103a457600080fd5b506101c06103b3366004613286565b610d87565b3480156103c457600080fd5b506101c06103d3366004613286565b610da3565b3480156103e457600080fd5b506103096103f3366004612fa1565b610e5c565b6101c06104063660046131f5565b6111ab565b34801561041757600080fd5b506101c0610426366004613286565b61123e565b34801561043757600080fd5b5061044b61044636600461317d565b611372565b6040516101cd9291906139f5565b34801561046557600080fd5b50610250610474366004613047565b6113c0565b34801561048557600080fd5b506101c0610494366004613251565b61142f565b3480156104a557600080fd5b506102506104b4366004613148565b6114d0565b3480156104c557600080fd5b506102c76104d4366004613286565b611599565b3480156104e557600080fd5b506101f66104f4366004612dee565b6115b4565b34801561050557600080fd5b50610250610514366004612ee2565b6115e2565b34801561052557600080fd5b50610250610534366004612dd0565b611659565b6000600160ff1b80831614801561055857506001600160801b03821615155b15610592576000828152600360205260409020546001600160a01b03848116911614610585576000610588565b60015b60ff1690506105b8565b506001600160a01b03821660009081526001602090815260408083208484529091529020545b92915050565b60006001600160e01b031982166301ffc9a760e01b14806105ef57506001600160e01b03198216636cdb3d1360e11b145b156105fc57506001610600565b5060005b919050565b6001600160801b0319811660008181526005602052604090206060919061062b84611705565b60405160200161063c929190613719565b604051602081830303815290604052915050919050565b6001600160801b031982166000818152600c602052604090205460ff166106955760405162461bcd60e51b815260040161068c9061390c565b60405180910390fd5b6106a03384846117c8565b600160ff1b80841614156106cd576000838152600a6020526040812080549190556106cb338261192a565b505b505050565b6000828152600c602052604081205460ff166001141561073f576000838152600b602052604090205415610737576000838152600b602052604090205461071f908363ffffffff611ab416565b600084815260046020526040902054111590506105b8565b5060016105b8565b6000838152600860205260409020546001600160a01b03163314610765575060006105b8565b6000838152600b602052604090205415610798576000838152600b602052604090205461071f908363ffffffff611ab416565b50600192915050565b60006107ad84846106d2565b6107c95760405162461bcd60e51b815260040161068c906139bc565b3060006107d887878787611ae0565b9050600160ff1b808216141561099b576000868152600960205260409020546108013382611c33565b6007546040516370a0823160e01b81526000916001600160a01b0316906370a082319061083290879060040161373c565b602060405180830381600087803b15801561084c57600080fd5b505af1158015610860573d6000803e3d6000fd5b505050506040513d601f19601f8201168201806040525061088491908101906132a4565b600754604051633b4da69f60e01b81529192506001600160a01b031690633b4da69f906108b7908790869060040161380e565b600060405180830381600087803b1580156108d157600080fd5b505af11580156108e5573d6000803e3d6000fd5b50506007546040516370a0823160e01b8152600093506001600160a01b0390911691506370a082319061091c90889060040161373c565b602060405180830381600087803b15801561093657600080fd5b505af115801561094a573d6000803e3d6000fd5b505050506040513d601f19601f8201168201806040525061096e91908101906132a4565b9050610988610983828463ffffffff611d7816565b611da0565b6000858152600a60205260409020555050505b9150505b949350505050565b336001600160a01b03861614806109c357506109c385336115b4565b6109df5760405162461bcd60e51b815260040161068c9061396c565b6001600160a01b038416610a055760405162461bcd60e51b815260040161068c9061398c565b610a1185858585611e06565b610a1e8585858585612000565b5050505050565b6012546001600160a01b03165b90565b6012546001600160a01b03163314610a5f5760405162461bcd60e51b815260040161068c9061389c565b30318015610a9657604051339082156108fc029083906000818181858888f19350505050158015610a94573d6000803e3d6000fd5b505b60105415610ab057610aaa3360105461192a565b60006010555b50565b60608151835114610ad65760405162461bcd60e51b815260040161068c9061394c565b60608351604051908082528060200260200182016040528015610b03578160200160208202803883390190505b50905060005b8451811015610c1c576000848281518110610b2057fe5b60200260200101519050600160ff1b808216148015610b4757506001600160801b03811615155b15610bb057858281518110610b5857fe5b602090810291909101810151600083815260039092526040909120546001600160a01b03908116911614610b8d576000610b90565b60015b60ff16838381518110610b9f57fe5b602002602001018181525050610c13565b60016000878481518110610bc057fe5b60200260200101516001600160a01b03166001600160a01b03168152602001908152602001600020600082815260200190815260200160002054838381518110610c0657fe5b6020026020010181815250505b50600101610b09565b509392505050565b600080610c3086611372565b915050610c3d33826120d1565b610c4b3388888888886120e2565b979650505050505050565b60135460801b81565b6000600160ff1b80831614610c865760405162461bcd60e51b815260040161068c9061393c565b506000908152600360205260409020546001600160a01b031690565b6012546001600160a01b03163314610ccc5760405162461bcd60e51b815260040161068c9061389c565b600680546001600160a01b038088166001600160a01b031992831617928390556007805488831693169290921790915560405163095ea7b360e01b815291169063095ea7b390610d249087906000199060040161380e565b602060405180830381600087803b158015610d3e57600080fd5b505af1158015610d52573d6000803e3d6000fd5b505050506040513d601f19601f82011682018060405250610d76919081019061319b565b50600d92909255600e55600f555050565b6001600160801b03191660009081526009602052604090205490565b600080610daf83610c5f565b90506001600160a01b038116331480610dcd5750610dcd81336115b4565b610de95760405162461bcd60e51b815260040161068c906138ec565b6000610df48461123e565b905060008111610e165760405162461bcd60e51b815260040161068c906138fc565b6000610e2233836121a6565b6000868152600a6020526040902054909150610e44908263ffffffff611d7816565b6000868152600a602052604090205550915050919050565b82516060903090600090819081908190819081905b80871015610ef9578b8781518110610e8557fe5b602002602001015195508a8781518110610e9b57fe5b60200260200101519450610eaf86866106d2565b610ecb5760405162461bcd60e51b815260040161068c906139bc565b6000868152600960205260409020549150610eec828463ffffffff611ab416565b9250866001019650610e71565b6060610f078e8e8e8e612361565b9050831561119a57610f193385611c33565b6007546040516370a0823160e01b81526000916001600160a01b0316906370a0823190610f4a908d9060040161373c565b602060405180830381600087803b158015610f6457600080fd5b505af1158015610f78573d6000803e3d6000fd5b505050506040513d601f19601f82011682018060405250610f9c91908101906132a4565b9050600098505b8289101561119857818981518110610fb757fe5b6020908102919091018101516001600160801b031981166000818152600990935260409092205491995096509350831561118d57600754604051633b4da69f60e01b81526001600160a01b0390911690633b4da69f9061101d908d90889060040161380e565b600060405180830381600087803b15801561103757600080fd5b505af115801561104b573d6000803e3d6000fd5b505050506110f561098382600760009054906101000a90046001600160a01b03166001600160a01b03166370a082318e6040518263ffffffff1660e01b8152600401611097919061373c565b602060405180830381600087803b1580156110b157600080fd5b505af11580156110c5573d6000803e3d6000fd5b505050506040513d601f19601f820116820180604052506110e991908101906132a4565b9063ffffffff611d7816565b6000878152600a6020526040908190209190915560075490516370a0823160e01b81526001600160a01b03909116906370a0823190611138908d9060040161373c565b602060405180830381600087803b15801561115257600080fd5b505af1158015611166573d6000803e3d6000fd5b505050506040513d601f19601f8201168201806040525061118a91908101906132a4565b90505b886001019850610fa3565b505b9d9c50505050505050505050505050565b6000806111b786611372565b509050803410156111da5760405162461bcd60e51b815260040161068c906138bc565b6111e83388888888886120e2565b915060006111fc348363ffffffff611d7816565b9050801561123357604051339082156108fc029083906000818181858888f19350505050158015611231573d6000803e3d6000fd5b505b505095945050505050565b6001600160801b031981166000818152600c602052604081205490919060ff1661127a5760405162461bcd60e51b815260040161068c9061390c565b6000818152600960205260409020546112a55760405162461bcd60e51b815260040161068c9061390c565b6007546000848152600a6020526040808220549051631043b2cb60e01b815291926001600160a01b031691631043b2cb916112e2916004016139cc565b602060405180830381600087803b1580156112fc57600080fd5b505af1158015611310573d6000803e3d6000fd5b505050506040513d601f19601f8201168201806040525061133491908101906132a4565b6000838152600960205260409020549091508181106113595760009350505050610600565b611369828263ffffffff611d7816565b95945050505050565b6000808261138257600d54611396565b600d5461139690600263ffffffff6125cf16565b9150826113a557600e546113b9565b600e546113b990600263ffffffff6125cf16565b9050915091565b3360008181526002602090815260408083206001600160a01b038716808552925291829020805460ff191685151517905590519091907f17307eab39ab6107e8899845ad3d59bd9653f200f220920489ca2b5937696c319061142390859061385f565b60405180910390a35050565b6012546000906001600160a01b0316331461145c5760405162461bcd60e51b815260040161068c9061389c565b601254611478906001600160a01b0316846000600181876120e2565b60118190556012546040805160208101909152600081526114a7926001600160a01b0390921691908590611ae0565b505060118054600090815260086020526040902080546001600160a01b03191690555492915050565b81516000908190815b8181101561157d578581815181106114ed57fe5b6020908102919091018101516001600160801b031981166000908152600c90925260409091205490945060ff166115365760405162461bcd60e51b815260040161068c9061390c565b600160ff1b8085161415611575576000848152600a6020526040902054611563908463ffffffff611ab416565b6000858152600a602052604081205592505b6001016114d9565b50611589338686612609565b8115610a1e57610a1e338361192a565b6000908152600860205260409020546001600160a01b031690565b6001600160a01b03918216600090815260026020908152604080832093909416825291909152205460ff1690565b336001600160a01b03861614806115fe57506115fe85336115b4565b61161a5760405162461bcd60e51b815260040161068c9061396c565b6001600160a01b0384166116405760405162461bcd60e51b815260040161068c9061398c565b61164c85858585612801565b610a1e8585858585612982565b6012546001600160a01b031633146116835760405162461bcd60e51b815260040161068c9061389c565b6001600160a01b0381166116a95760405162461bcd60e51b815260040161068c906138dc565b6012546040516001600160a01b038084169216907f8be0079c531659141344cd1fd0a4f28419497f9722a3daafe3b4186f6b6457e090600090a3601280546001600160a01b0319166001600160a01b0392909216919091179055565b60608161172a57506040805180820190915260018152600360fc1b6020820152610600565b818060005b821561174357600101600a8304925061172f565b6060816040519080825280601f01601f191660200182016040528015611770576020820181803883390190505b50905060001982015b83156117be57600a840660300160f81b8282806001900393508151811061179c57fe5b60200101906001600160f81b031916908160001a905350600a84049350611779565b5095945050505050565b600160ff1b808316141561183357826001600160a01b03166117e983610c5f565b6001600160a01b03161461180f5760405162461bcd60e51b815260040161068c9061396c565b50600081815260036020526040902080546001600160a01b031916905560016118df565b8061183e8484610539565b101561185c5760405162461bcd60e51b815260040161068c9061388c565b60008281526004602052604090205461187b908263ffffffff611d7816565b6000838152600460209081526040808320939093556001600160a01b038616825260018152828220858352905220546118ba908263ffffffff611d7816565b6001600160a01b03841660009081526001602090815260408083208684529091529020555b60006001600160a01b0316836001600160a01b0316336001600160a01b0316600080516020613b58833981519152858560405161191d9291906139f5565b60405180910390a4505050565b60075460405163ef693bed60e01b815230916001600160a01b03169063ef693bed9061195c908490869060040161380e565b600060405180830381600087803b15801561197657600080fd5b505af115801561198a573d6000803e3d6000fd5b50506006546040516370a0823160e01b8152600093506001600160a01b0390911691506370a08231906119c190859060040161373c565b60206040518083038186803b1580156119d957600080fd5b505afa1580156119ed573d6000803e3d6000fd5b505050506040513d601f19601f82011682018060405250611a1191908101906132a4565b6006546040516323b872dd60e01b81529192506001600160a01b0316906323b872dd90611a46908590889086906004016137e6565b602060405180830381600087803b158015611a6057600080fd5b505af1158015611a74573d6000803e3d6000fd5b505050506040513d601f19601f82011682018060405250611a98919081019061319b565b6106cb5760405162461bcd60e51b815260040161068c906138ac565b600082820183811015611ad95760405162461bcd60e51b815260040161068c906138cc565b9392505050565b600080600160ff1b8086161415611b5957600085815260046020526040812054611b1190600163ffffffff611ab416565b6000878152600460209081526040808320849055928917808352600390915291902080546001600160a01b0319166001600160a01b038a16179055600195509150611bdf9050565b506000848152600460205260409020548490611b7b908563ffffffff611ab416565b6000868152600460209081526040808320939093556001600160a01b03891682526001815282822088835290522054611bba908563ffffffff611ab416565b6001600160a01b03871660009081526001602090815260408083208984529091529020555b856001600160a01b031660006001600160a01b0316336001600160a01b0316600080516020613b588339815191528488604051611c1d9291906139f5565b60405180910390a4611369600087838787612982565b6006546040516370a0823160e01b81526000916001600160a01b0316906370a0823190611c6490869060040161373c565b60206040518083038186803b158015611c7c57600080fd5b505afa158015611c90573d6000803e3d6000fd5b505050506040513d601f19601f82011682018060405250611cb491908101906132a4565b905080821115611cd65760405162461bcd60e51b815260040161068c9061399c565b6006546040516323b872dd60e01b81526001600160a01b03909116906323b872dd90611d0a908690309087906004016137e6565b602060405180830381600087803b158015611d2457600080fd5b505af1158015611d38573d6000803e3d6000fd5b505050506040513d601f19601f82011682018060405250611d5c919081019061319b565b6106cd5760405162461bcd60e51b815260040161068c906138ac565b600082821115611d9a5760405162461bcd60e51b815260040161068c9061392c565b50900390565b6000600f5460001415611db4575080610600565b6000611ddd612710611dd1600f54866125cf90919063ffffffff16565b9063ffffffff612a4b16565b601054909150611df3908263ffffffff611ab416565b601055611ad9838263ffffffff611d7816565b8051825114611e275760405162461bcd60e51b815260040161068c9061394c565b81516000908190815b81811015611f9f57858181518110611e4457fe5b60200260200101519350848181518110611e5a57fe5b60200260200101519250600160ff1b8085161415611ec4576000848152600360205260409020546001600160a01b03898116911614611e9857600080fd5b600084815260036020526040902080546001600160a01b0319166001600160a01b038916179055611f97565b6001600160a01b0388166000908152600160209081526040808320878452909152902054831115611ef457600080fd5b6001600160a01b0388166000908152600160209081526040808320878452909152902054611f28908463ffffffff611d7816565b6001600160a01b03808a1660009081526001602081815260408084208a8552825280842095909555928b16825282528281208782529091522054611f72908463ffffffff611ab416565b6001600160a01b03881660009081526001602090815260408083208884529091529020555b600101611e30565b50856001600160a01b0316876001600160a01b0316336001600160a01b03167f4a39dc06d4c0dbc64b70af90fd698a233a518aa5d07e595d983b8c0526c8f7fb8888604051611fef92919061383a565b60405180910390a450505050505050565b61200984612a74565b15610a1e5760405163bc197c8160e01b81526000906001600160a01b0386169063bc197c81906120459033908a9089908990899060040161374a565b602060405180830381600087803b15801561205f57600080fd5b505af1158015612073573d6000803e3d6000fd5b505050506040513d601f19601f8201168201806040525061209791908101906131d7565b90506001600160e01b0319811663bc197c8160e01b146120c95760405162461bcd60e51b815260040161068c906139ac565b505050505050565b6120de82601154836117c8565b5050565b60008415806120fc57508480156120fc5750620f42408310155b6121185760405162461bcd60e51b815260040161068c9061391c565b6121228686612aab565b905083612130576001612133565b60025b6000828152600c60209081526040808320805460ff191660ff95909516949094179093556008815282822080546001600160a01b0319166001600160a01b038c16179055600b9052208290558461218b57600061218d565b825b6000828152600960205260409020559695505050505050565b600754604051631280dc1f60e21b8152600091309183916001600160a01b031690634a03707c906121dd908590889060040161380e565b602060405180830381600087803b1580156121f757600080fd5b505af115801561220b573d6000803e3d6000fd5b505050506040513d601f19601f8201168201806040525061222f91908101906132a4565b6006546040516370a0823160e01b81529192506000916001600160a01b03909116906370a082319061226590869060040161373c565b60206040518083038186803b15801561227d57600080fd5b505afa158015612291573d6000803e3d6000fd5b505050506040513d601f19601f820116820180604052506122b591908101906132a4565b6006546040516323b872dd60e01b81529192506001600160a01b0316906323b872dd906122ea9086908a9086906004016137e6565b602060405180830381600087803b15801561230457600080fd5b505af1158015612318573d6000803e3d6000fd5b505050506040513d601f19601f8201168201806040525061233c919081019061319b565b6123585760405162461bcd60e51b815260040161068c906138ac565b50949350505050565b606082518451146123845760405162461bcd60e51b815260040161068c9061394c565b6000806000806000885190506060816040519080825280602002602001820160405280156123bc578160200160208202803883390190505b50905060005b8281101561255a578a81815181106123d657fe5b602002602001015196508981815181106123ec57fe5b60200260200101519550600160ff1b80881614156124b35760008781526004602052604090205461242490600163ffffffff611ab416565b945084600460008981526020019081526020016000208190555084871793508b6003600086815260200190815260200160002060006101000a8154816001600160a01b0302191690836001600160a01b031602179055508382828151811061248857fe5b60200260200101818152505060018a82815181106124a257fe5b602002602001018181525050612552565b868282815181106124c057fe5b6020908102919091018101919091526000888152600490915260409020546124ee908763ffffffff611ab416565b6000888152600460209081526040808320939093556001600160a01b038f168252600181528282208a83529052205461252d908763ffffffff611ab416565b6001600160a01b038d1660009081526001602090815260408083208b84529091529020555b6001016123c2565b508a6001600160a01b031660006001600160a01b0316336001600160a01b03167f4a39dc06d4c0dbc64b70af90fd698a233a518aa5d07e595d983b8c0526c8f7fb848d6040516125ab92919061383a565b60405180910390a46125c160008c838c8c612000565b9a9950505050505050505050565b6000826125de575060006105b8565b828202828482816125eb57fe5b0414611ad95760405162461bcd60e51b815260040161068c9061397c565b805182511461262a5760405162461bcd60e51b815260040161068c9061394c565b81516000908190815b818110156127a05785818151811061264757fe5b6020026020010151925084818151811061265d57fe5b60200260200101519350600160ff1b80841614156126ec57866001600160a01b031661268884610c5f565b6001600160a01b0316146126ae5760405162461bcd60e51b815260040161068c9061396c565b600083815260036020526040902080546001600160a01b031916905584516001908690839081106126db57fe5b602002602001018181525050612798565b836126f78885610539565b10156127155760405162461bcd60e51b815260040161068c9061388c565b600083815260046020526040902054612734908563ffffffff611d7816565b6000848152600460209081526040808320939093556001600160a01b038a1682526001815282822086835290522054612773908563ffffffff611d7816565b6001600160a01b03881660009081526001602090815260408083208784529091529020555b600101612633565b5060006001600160a01b0316866001600160a01b0316336001600160a01b03167f4a39dc06d4c0dbc64b70af90fd698a233a518aa5d07e595d983b8c0526c8f7fb88886040516127f192919061383a565b60405180910390a4505050505050565b600160ff1b8083161415612864576000828152600360205260409020546001600160a01b0385811691161461283557600080fd5b50600081815260036020526040902080546001600160a01b0319166001600160a01b0384161790556001612937565b6001600160a01b038416600090815260016020908152604080832085845290915290205481111561289457600080fd5b6001600160a01b03841660009081526001602090815260408083208584529091529020546128c8908263ffffffff611d7816565b6001600160a01b038086166000908152600160208181526040808420888552825280842095909555928716825282528281208582529091522054612912908263ffffffff611ab416565b6001600160a01b03841660009081526001602090815260408083208684529091529020555b826001600160a01b0316846001600160a01b0316336001600160a01b0316600080516020613b5883398151915285856040516129749291906139f5565b60405180910390a450505050565b61298b84612a74565b15610a1e5760405163f23a6e6160e01b81526000906001600160a01b0386169063f23a6e61906129c79033908a9089908990899060040161379f565b602060405180830381600087803b1580156129e157600080fd5b505af11580156129f5573d6000803e3d6000fd5b505050506040513d601f19601f82011682018060405250612a1991908101906131d7565b90506001600160e01b0319811663f23a6e6160e01b146120c95760405162461bcd60e51b815260040161068c906139ac565b6000611ad9838360405180604001604052806004815260200163114c8c0d60e21b815250612b76565b6000813f8015801590611ad957507fc5d2460186f7233c927e7db2dcc703c0e500b653ca82273b7bfad8045d85a470141592915050565b600080835111612acd5760405162461bcd60e51b815260040161068c9061395c565b50600080546001019081905560801b8115612ae957600160ff1b175b60008181526005602090815260409091208451612b0892860190612bad565b5060405160009081903390600080516020613b5883398151915290612b3090869085906139da565b60405180910390a4807f6bb7ff708619ba0610cba295a58592e0451dee2622938c8755667688daf3529b84604051612b68919061387b565b60405180910390a292915050565b60008183612b975760405162461bcd60e51b815260040161068c919061387b565b506000838581612ba357fe5b0495945050505050565b828054600181600116156101000203166002900490600052602060002090601f016020900481019282601f10612bee57805160ff1916838001178555612c1b565b82800160010185558215612c1b579182015b82811115612c1b578251825591602001919060010190612c00565b50612c27929150612c2b565b5090565b610a3291905b80821115612c275760008155600101612c31565b80356105b881613b28565b600082601f830112612c6157600080fd5b8135612c74612c6f82613a29565b613a03565b91508181835260208401935060208101905083856020840282011115612c9957600080fd5b60005b83811015612cc55781612caf8882612c45565b8452506020928301929190910190600101612c9c565b5050505092915050565b600082601f830112612ce057600080fd5b8135612cee612c6f82613a29565b91508181835260208401935060208101905083856020840282011115612d1357600080fd5b60005b83811015612cc55781612d298882612dba565b8452506020928301929190910190600101612d16565b80356105b881613b3c565b80516105b881613b3c565b80356105b881613b45565b80516105b881613b45565b600082601f830112612d7c57600080fd5b8135612d8a612c6f82613a49565b91508082526020830160208301858383011115612da657600080fd5b612db1838284613ae6565b50505092915050565b80356105b881613b4e565b80516105b881613b4e565b600060208284031215612de257600080fd5b600061099f8484612c45565b60008060408385031215612e0157600080fd5b6000612e0d8585612c45565b9250506020612e1e85828601612c45565b9150509250929050565b600080600080600060a08688031215612e4057600080fd5b6000612e4c8888612c45565b9550506020612e5d88828901612c45565b94505060408601356001600160401b03811115612e7957600080fd5b612e8588828901612ccf565b93505060608601356001600160401b03811115612ea157600080fd5b612ead88828901612ccf565b92505060808601356001600160401b03811115612ec957600080fd5b612ed588828901612d6b565b9150509295509295909350565b600080600080600060a08688031215612efa57600080fd5b6000612f068888612c45565b9550506020612f1788828901612c45565b9450506040612f2888828901612dba565b9350506060612ead88828901612dba565b600080600080600060a08688031215612f5157600080fd5b6000612f5d8888612c45565b9550506020612f6e88828901612c45565b9450506040612f7f88828901612dba565b9350506060612f9088828901612dba565b9250506080612ed588828901612dba565b60008060008060808587031215612fb757600080fd5b6000612fc38787612c45565b94505060208501356001600160401b03811115612fdf57600080fd5b612feb87828801612ccf565b93505060408501356001600160401b0381111561300757600080fd5b61301387828801612ccf565b92505060608501356001600160401b0381111561302f57600080fd5b61303b87828801612d6b565b91505092959194509250565b6000806040838503121561305a57600080fd5b60006130668585612c45565b9250506020612e1e85828601612d3f565b6000806040838503121561308a57600080fd5b60006130968585612c45565b9250506020612e1e85828601612dba565b600080600080608085870312156130bd57600080fd5b60006130c98787612c45565b94505060206130da87828801612dba565b935050604061301387828801612dba565b600080604083850312156130fe57600080fd5b82356001600160401b0381111561311457600080fd5b61312085828601612c50565b92505060208301356001600160401b0381111561313c57600080fd5b612e1e85828601612ccf565b6000806040838503121561315b57600080fd5b82356001600160401b0381111561317157600080fd5b61312085828601612ccf565b60006020828403121561318f57600080fd5b600061099f8484612d3f565b6000602082840312156131ad57600080fd5b600061099f8484612d4a565b6000602082840312156131cb57600080fd5b600061099f8484612d55565b6000602082840312156131e957600080fd5b600061099f8484612d60565b600080600080600060a0868803121561320d57600080fd5b85356001600160401b0381111561322357600080fd5b61322f88828901612d6b565b955050602061324088828901612d3f565b9450506040612f7f88828901612d3f565b6000806040838503121561326457600080fd5b82356001600160401b0381111561327a57600080fd5b61309685828601612d6b565b60006020828403121561329857600080fd5b600061099f8484612dba565b6000602082840312156132b657600080fd5b600061099f8484612dc5565b600080604083850312156132d557600080fd5b60006130968585612dba565b60006132ed8383613710565b505060200190565b6132fe81613ac5565b82525050565b6132fe81613a8f565b600061331882613a82565b6133228185613a86565b935061332d83613a70565b8060005b8381101561335b57815161334588826132e1565b975061335083613a70565b925050600101613331565b509495945050505050565b6132fe81613a9a565b6132fe81613a9f565b600061338382613a82565b61338d8185613a86565b935061339d818560208601613af2565b6133a681613b1e565b9093019392505050565b6132fe81613ad0565b60006133c482613a82565b6133ce8185610600565b93506133de818560208601613af2565b9290920192915050565b600081546001811660008114613405576001811461342857613467565b607f60028304166134168187610600565b60ff1984168152955085019250613467565b600282046134368187610600565b955061344185613a76565b60005b8281101561346057815488820152600190910190602001613444565b5050850192505b505092915050565b600061347c600483613a86565b632299981b60e11b815260200192915050565b600061349c600483613a86565b632298981960e11b815260200192915050565b60006134bc600483613a86565b6308a6860760e31b815260200192915050565b60006134dc600483613a86565b63114d0c0d60e21b815260200192915050565b60006134fc600483613a86565b632299181960e11b815260200192915050565b600061351c600483613a86565b634531303160e01b815260200192915050565b600061353c600483613a86565b634531303360e01b815260200192915050565b600061355c600483613a86565b634534303360e01b815260200192915050565b600061357c600483613a86565b63229a181960e11b815260200192915050565b600061359c600583610600565b64173539b7b760d91b815260050192915050565b60006135bd600483613a86565b63229a181b60e11b815260200192915050565b60006135dd600483613a86565b634532303160e01b815260200192915050565b60006135fd600483613a86565b63114ccc0d60e21b815260200192915050565b600061361d600483613a86565b634533303360e01b815260200192915050565b600061363d600483613a86565b634533303760e01b815260200192915050565b600061365d600483613a86565b634533303560e01b815260200192915050565b600061367d600483613a86565b634532303360e01b815260200192915050565b600061369d600483613a86565b634533303160e01b815260200192915050565b60006136bd600483613a86565b634534303560e01b815260200192915050565b60006136dd600483613a86565b632299981960e11b815260200192915050565b60006136fd600483613a86565b634534303760e01b815260200192915050565b6132fe81610a32565b600061372582856133e8565b915061373182846133b9565b915061099f8261358f565b602081016105b88284613304565b60a0810161375882886132f5565b6137656020830187613304565b8181036040830152613777818661330d565b9050818103606083015261378b818561330d565b90508181036080830152610c4b8184613378565b60a081016137ad82886132f5565b6137ba6020830187613304565b6137c76040830186613710565b6137d46060830185613710565b8181036080830152610c4b8184613378565b606081016137f48286613304565b6138016020830185613304565b61099f6040830184613710565b6040810161381c8285613304565b611ad96020830184613710565b60208082528101611ad9818461330d565b6040808252810161384b818561330d565b9050818103602083015261099f818461330d565b602081016105b88284613366565b602081016105b8828461336f565b60208082528101611ad98184613378565b602080825281016105b88161346f565b602080825281016105b88161348f565b602080825281016105b8816134af565b602080825281016105b8816134cf565b602080825281016105b8816134ef565b602080825281016105b88161350f565b602080825281016105b88161352f565b602080825281016105b88161354f565b602080825281016105b88161356f565b602080825281016105b8816135b0565b602080825281016105b8816135d0565b602080825281016105b8816135f0565b602080825281016105b881613610565b602080825281016105b881613630565b602080825281016105b881613650565b602080825281016105b881613670565b602080825281016105b881613690565b602080825281016105b8816136b0565b602080825281016105b8816136d0565b602080825281016105b8816136f0565b602081016105b88284613710565b604081016139e88285613710565b611ad960208301846133b0565b6040810161381c8285613710565b6040518181016001600160401b0381118282101715613a2157600080fd5b604052919050565b60006001600160401b03821115613a3f57600080fd5b5060209081020190565b60006001600160401b03821115613a5f57600080fd5b506020601f91909101601f19160190565b60200190565b60009081526020902090565b5190565b90815260200190565b60006105b882613ab9565b151590565b6001600160801b03191690565b6001600160e01b03191690565b6001600160a01b031690565b60006105b882613adb565b60006105b882610a32565b60006105b882613a8f565b82818337506000910152565b60005b83811015613b0d578181015183820152602001613af5565b838111156106cb5750506000910152565b601f01601f191690565b613b3181613a8f565b8114610ab057600080fd5b613b3181613a9a565b613b3181613aac565b613b3181610a3256fec3d58168c5ae7397731d063d5bbf3d657854427343f4c083240f7aacaa2d0f62a365627a7a723158202c78b84338894114328e8cf08a76d3f62157c954594fbbedc7501025827181fd6c6578706572696d656e74616cf564736f6c634300050d0040",
  "source": "// ChargedParticlesERC1155.sol -- Interest-bearing NFTs based on the DAI Savings Token\n// MIT License\n// Copyright (c) 2019, 2020 Rob Secord <robsecord.eth>\n//\n// Permission is hereby granted, free of charge, to any person obtaining a copy\n// of this software and associated documentation files (the \"Software\"), to deal\n// in the Software without restriction, including without limitation the rights\n// to use, copy, modify, merge, publish, distribute, sublicense, and/or sell\n// copies of the Software, and to permit persons to whom the Software is\n// furnished to do so, subject to the following conditions:\n//\n// The above copyright notice and this permission notice shall be included in all\n// copies or substantial portions of the Software.\n//\n// THE SOFTWARE IS PROVIDED \"AS IS\", WITHOUT WARRANTY OF ANY KIND, EXPRESS OR\n// IMPLIED, INCLUDING BUT NOT LIMITED TO THE WARRANTIES OF MERCHANTABILITY,\n// FITNESS FOR A PARTICULAR PURPOSE AND NONINFRINGEMENT. IN NO EVENT SHALL THE\n// AUTHORS OR COPYRIGHT HOLDERS BE LIABLE FOR ANY CLAIM, DAMAGES OR OTHER\n// LIABILITY, WHETHER IN AN ACTION OF CONTRACT, TORT OR OTHERWISE, ARISING FROM,\n// OUT OF OR IN CONNECTION WITH THE SOFTWARE OR THE USE OR OTHER DEALINGS IN THE\n// SOFTWARE.\n\npragma solidity ^0.5.13;\npragma experimental ABIEncoderV2;\n\n// ERROR CODES:\n//  100:        ADDRESS, OWNER, OPERATOR\n//      101         Invalid Address\n//      102         Sender is not owner\n//      103         Sender is not owner or operator\n//  200:        MATH\n//      201         Underflow\n//      202         Overflow\n//      203         Multiplication overflow\n//      204         Division by zero\n//  300:        ERC1155\n//      301         Invalid Recipient\n//      302         Invalid on-received message\n//      303         Invalid arrays length\n//      304         Invalid type\n//      305         Invalid owner/operator\n//      306         Insufficient balance\n//      307         Invalid URI for Type\n//  400:        ChargedParticles\n//      401         Invalid Method\n//      402         Unregistered Type\n//      403         Particle has no Charge\n//      404         Insufficient ETH Balance\n//      405         Insufficient DAI Balance\n//      406         Invalid value for \"requiredDai\" parameter\n//      407         No access to Mint (Private Type)\n//      408         Transfer Failed\n\n/**\n * @title Chai.money interface\n * @dev see https://github.com/dapphub/chai\n */\ncontract IChai {\n    function transfer(address dst, uint wad) external returns (bool);\n    // like transferFrom but dai-denominated\n    function move(address src, address dst, uint wad) external returns (bool);\n    function transferFrom(address src, address dst, uint wad) public returns (bool);\n    function approve(address usr, uint wad) external returns (bool);\n    function balanceOf(address usr) external returns (uint);\n\n    // Approve by signature\n    function permit(address holder, address spender, uint256 nonce, uint256 expiry, bool allowed, uint8 v, bytes32 r, bytes32 s) external;\n\n    function dai(address usr) external returns (uint wad);\n    function dai(uint chai) external returns (uint wad);\n\n    // wad is denominated in dai\n    function join(address dst, uint wad) external;\n\n    // wad is denominated in (1/chi) * dai\n    function exit(address src, uint wad) public;\n\n    // wad is denominated in dai\n    function draw(address src, uint wad) external returns (uint chai);\n}\n\n/**\n * @title ERC165\n * @dev see https://github.com/ethereum/EIPs/blob/master/EIPS/eip-165.md\n */\ninterface IERC165 {\n    function supportsInterface(bytes4 _interfaceId) external view returns (bool);\n}\n\n/**\n * @title ERC20 interface\n * @dev see https://eips.ethereum.org/EIPS/eip-20\n */\ninterface IERC20 {\n    function transfer(address to, uint256 value) external returns (bool);\n    function approve(address spender, uint256 value) external returns (bool);\n    function transferFrom(address from, address to, uint256 value) external returns (bool);\n    function totalSupply() external view returns (uint256);\n    function balanceOf(address who) external view returns (uint256);\n    function allowance(address owner, address spender) external view returns (uint256);\n    event Transfer(address indexed from, address indexed to, uint256 value);\n    event Approval(address indexed owner, address indexed spender, uint256 value);\n}\n\n/**\n * @title ERC1155 interface\n * @dev see https://github.com/ethereum/EIPs/blob/master/EIPS/eip-1155.md\n */\ninterface IERC1155 {\n    function safeTransferFrom(address _from, address _to, uint256 _id, uint256 _amount, bytes calldata _data) external;\n    function safeBatchTransferFrom(address _from, address _to, uint256[] calldata _ids, uint256[] calldata _amounts, bytes calldata _data) external;\n    function balanceOf(address _owner, uint256 _id) external view returns (uint256);\n    function balanceOfBatch(address[] calldata _owners, uint256[] calldata _ids) external view returns (uint256[] memory);\n    function setApprovalForAll(address _operator, bool _approved) external;\n    function isApprovedForAll(address _owner, address _operator) external view returns (bool isOperator);\n    event TransferSingle(address indexed _operator, address indexed _from, address indexed _to, uint256 _id, uint256 _amount);\n    event TransferBatch(address indexed _operator, address indexed _from, address indexed _to, uint256[] _ids, uint256[] _amounts);\n    event ApprovalForAll(address indexed _owner, address indexed _operator, bool _approved);\n    event URI(string _amount, uint256 indexed _id);\n}\n\n/**\n * @dev ERC-1155 token receiver interface for accepting safe transfers.\n */\ninterface IERC1155TokenReceiver {\n    function onERC1155Received(address _operator, address _from, uint256 _id, uint256 _amount, bytes calldata _data) external returns(bytes4);\n    function onERC1155BatchReceived(address _operator, address _from, uint256[] calldata _ids, uint256[] calldata _amounts, bytes calldata _data) external returns(bytes4);\n    function supportsInterface(bytes4 interfaceID) external view returns (bool);\n}\n\n/**\n * @title SafeMath\n * @dev Unsigned math operations with safety checks that revert on error\n */\nlibrary SafeMath {\n    function sub(uint256 a, uint256 b) internal pure returns (uint256) {\n        require(b <= a, \"E201\");\n        uint256 c = a - b;\n        return c;\n    }\n\n    function add(uint256 a, uint256 b) internal pure returns (uint256) {\n        uint256 c = a + b;\n        require(c >= a, \"E202\");\n        return c;\n    }\n\n    function mul(uint256 a, uint256 b) internal pure returns (uint256) {\n        if (a == 0) { return 0; }\n        uint256 c = a * b;\n        require(c / a == b, \"E203\");\n        return c;\n    }\n\n    function div(uint256 a, uint256 b) internal pure returns (uint256) {\n        return div(a, b, \"E204\");\n    }\n\n    function div(uint256 a, uint256 b, string memory errorMessage) internal pure returns (uint256) {\n        require(b > 0, errorMessage);\n        uint256 c = a / b;\n        return c;\n    }\n}\n\n/**\n * @dev Implementation of ERC1155 Multi-Token Standard contract\n * @dev see node_modules/multi-token-standard/contracts/tokens/ERC1155/ERC1155.sol\n */\ncontract ERC1155 is IERC165 {\n    using SafeMath for uint256;\n\n    uint256 constant internal TYPE_MASK = uint256(uint128(~0)) << 128;\n    uint256 constant internal NF_INDEX_MASK = uint128(~0);\n    uint256 constant internal TYPE_NF_BIT = 1 << 255;\n    bytes32 constant internal ACCOUNT_HASH = 0xc5d2460186f7233c927e7db2dcc703c0e500b653ca82273b7bfad8045d85a470;\n    bytes4 constant internal INTERFACE_SIGNATURE_ERC165 = 0x01ffc9a7;\n    bytes4 constant internal INTERFACE_SIGNATURE_ERC1155 = 0xd9b67a26;\n    bytes4 constant internal ERC1155_RECEIVED_VALUE = 0xf23a6e61;\n    bytes4 constant internal ERC1155_BATCH_RECEIVED_VALUE = 0xbc197c81;\n\n    uint256 internal nonce;\n    mapping (address => mapping(uint256 => uint256)) internal balances;\n    mapping (address => mapping(address => bool)) internal operators;\n    mapping (uint256 => address) internal nfOwners;\n    mapping (uint256 => uint256) internal maxIndex;\n    mapping (uint256 => string) internal tokenUri;\n\n    event TransferSingle(address indexed _operator, address indexed _from, address indexed _to, uint256 _id, uint256 _amount);\n    event TransferBatch(address indexed _operator, address indexed _from, address indexed _to, uint256[] _ids, uint256[] _amounts);\n    event ApprovalForAll(address indexed _owner, address indexed _operator, bool _approved);\n    event URI(string _uri, uint256 indexed _type);\n\n    function uri(uint256 _tokenId) public view returns (string memory) {\n        uint256 _type = _tokenId & TYPE_MASK;\n        return string(abi.encodePacked(tokenUri[_type], _uint2str(_tokenId), \".json\"));\n    }\n\n    function supportsInterface(bytes4 _interfaceID) external view returns (bool) {\n        if (_interfaceID == INTERFACE_SIGNATURE_ERC165 ||\n        _interfaceID == INTERFACE_SIGNATURE_ERC1155) {\n            return true;\n        }\n        return false;\n    }\n\n    function ownerOf(uint256 _tokenId) public view returns (address) {\n        require(_tokenId & TYPE_NF_BIT == TYPE_NF_BIT, \"E304\");\n        return nfOwners[_tokenId];\n    }\n\n    function balanceOf(address _owner, uint256 _tokenId) public view returns (uint256) {\n        if ((_tokenId & TYPE_NF_BIT == TYPE_NF_BIT) && (_tokenId & NF_INDEX_MASK != 0)) {  // Non-Fungible Item\n            return nfOwners[_tokenId] == _owner ? 1 : 0;\n        }\n        return balances[_owner][_tokenId];\n    }\n\n    function balanceOfBatch(address[] memory _owners, uint256[] memory _tokenIds) public view returns (uint256[] memory) {\n        require(_owners.length == _tokenIds.length, \"E303\");\n\n        uint256[] memory _balances = new uint256[](_owners.length);\n        for (uint256 i = 0; i < _owners.length; ++i) {\n            uint256 id = _tokenIds[i];\n            if ((id & TYPE_NF_BIT == TYPE_NF_BIT) && (id & NF_INDEX_MASK != 0)) { // Non-Fungible Item\n                _balances[i] = nfOwners[id] == _owners[i] ? 1 : 0;\n            } else {\n                _balances[i] = balances[_owners[i]][id];\n            }\n        }\n\n        return _balances;\n    }\n\n    function setApprovalForAll(address _operator, bool _approved) external {\n        operators[msg.sender][_operator] = _approved;\n        emit ApprovalForAll(msg.sender, _operator, _approved);\n    }\n\n    function isApprovedForAll(address _owner, address _operator) public view returns (bool isOperator) {\n        return operators[_owner][_operator];\n    }\n\n    function safeTransferFrom(address _from, address _to, uint256 _id, uint256 _amount, bytes memory _data) public {\n        require((msg.sender == _from) || isApprovedForAll(_from, msg.sender), \"E305\");\n        require(_to != address(0),\"E301\");\n\n        _safeTransferFrom(_from, _to, _id, _amount);\n        _callonERC1155Received(_from, _to, _id, _amount, _data);\n    }\n\n    function safeBatchTransferFrom(address _from, address _to, uint256[] memory _ids, uint256[] memory _amounts, bytes memory _data) public {\n        require((msg.sender == _from) || isApprovedForAll(_from, msg.sender), \"E305\");\n        require(_to != address(0),\"E301\");\n\n        _safeBatchTransferFrom(_from, _to, _ids, _amounts);\n        _callonERC1155BatchReceived(_from, _to, _ids, _amounts, _data);\n    }\n\n    function _safeTransferFrom(address _from, address _to, uint256 _id, uint256 _amount) internal {\n        // Non-Fungible\n        if (_id & TYPE_NF_BIT == TYPE_NF_BIT) {\n            require(nfOwners[_id] == _from);\n            nfOwners[_id] = _to;\n            _amount = 1;\n        }\n        // Fungible\n        else {\n            require(_amount <= balances[_from][_id]);\n            balances[_from][_id] = balances[_from][_id].sub(_amount); // Subtract amount\n            balances[_to][_id] = balances[_to][_id].add(_amount);     // Add amount\n        }\n\n        // Emit event\n        emit TransferSingle(msg.sender, _from, _to, _id, _amount);\n    }\n\n    function _safeBatchTransferFrom(address _from, address _to, uint256[] memory _ids, uint256[] memory _amounts) internal {\n        require(_ids.length == _amounts.length, \"E303\");\n\n        uint256 id;\n        uint256 amount;\n        uint256 nTransfer = _ids.length;\n        for (uint256 i = 0; i < nTransfer; ++i) {\n            id = _ids[i];\n            amount = _amounts[i];\n\n            if (id & TYPE_NF_BIT == TYPE_NF_BIT) { // Non-Fungible\n                require(nfOwners[id] == _from);\n                nfOwners[id] = _to;\n            } else {\n                require(amount <= balances[_from][id]);\n                balances[_from][id] = balances[_from][id].sub(amount);\n                balances[_to][id] = balances[_to][id].add(amount);\n            }\n        }\n\n        emit TransferBatch(msg.sender, _from, _to, _ids, _amounts);\n    }\n\n    function _callonERC1155Received(address _from, address _to, uint256 _id, uint256 _amount, bytes memory _data) internal {\n        // Check if recipient is contract\n        if (isContract(_to)) {\n            bytes4 retval = IERC1155TokenReceiver(_to).onERC1155Received(msg.sender, _from, _id, _amount, _data);\n            require(retval == ERC1155_RECEIVED_VALUE, \"E302\");\n        }\n    }\n\n    function _callonERC1155BatchReceived(address _from, address _to, uint256[] memory _ids, uint256[] memory _amounts, bytes memory _data) internal {\n        // Pass data if recipient is contract\n        if (isContract(_to)) {\n            bytes4 retval = IERC1155TokenReceiver(_to).onERC1155BatchReceived(msg.sender, _from, _ids, _amounts, _data);\n            require(retval == ERC1155_BATCH_RECEIVED_VALUE, \"E302\");\n        }\n    }\n\n    function _createType(string memory _uri, bool _isNF) internal returns (uint256 _type) {\n        require(bytes(_uri).length > 0, \"E307\");\n\n        _type = (++nonce << 128);\n        if (_isNF) {\n            _type = _type | TYPE_NF_BIT;\n        }\n        tokenUri[_type] = _uri;\n\n        // emit a Transfer event with Create semantic to help with discovery.\n        emit TransferSingle(msg.sender, address(0x0), address(0x0), _type, 0);\n        emit URI(_uri, _type);\n    }\n\n    function _mint(address _to, uint256 _type, uint256 _amount, bytes memory _data) internal returns (uint256) {\n        uint256 _tokenId;\n\n        // Non-fungible\n        if (_type & TYPE_NF_BIT == TYPE_NF_BIT) {\n            uint256 index = maxIndex[_type].add(1);\n            maxIndex[_type] = index;\n\n            _tokenId  = _type | index;\n            nfOwners[_tokenId] = _to;\n            _amount = 1;\n        }\n\n        // Fungible\n        else {\n            _tokenId = _type;\n            maxIndex[_type] = maxIndex[_type].add(_amount);\n            balances[_to][_type] = balances[_to][_type].add(_amount);\n        }\n\n        emit TransferSingle(msg.sender, address(0x0), _to, _tokenId, _amount);\n        _callonERC1155Received(address(0x0), _to, _tokenId, _amount, _data);\n\n        return _tokenId;\n    }\n\n    function _mintBatch(address _to, uint256[] memory _types, uint256[] memory _amounts, bytes memory _data) internal returns (uint256[] memory) {\n        require(_types.length == _amounts.length, \"E303\");\n        uint256 _type;\n        uint256 _amount;\n        uint256 _index;\n        uint256 _tokenId;\n        uint256 _count = _types.length;\n\n        uint256[] memory _tokenIds = new uint256[](_count);\n\n        for (uint256 i = 0; i < _count; i++) {\n            _type = _types[i];\n            _amount = _amounts[i];\n\n            // Non-fungible\n            if (_type & TYPE_NF_BIT == TYPE_NF_BIT) {\n                _index = maxIndex[_type].add(1);\n                maxIndex[_type] = _index;\n\n                _tokenId  = _type | _index;\n                nfOwners[_tokenId] = _to;\n                _tokenIds[i] = _tokenId;\n                _amounts[i] = 1;\n            }\n\n            // Fungible\n            else {\n                _tokenIds[i] = _type;\n                maxIndex[_type] = maxIndex[_type].add(_amount);\n                balances[_to][_type] = balances[_to][_type].add(_amount);\n            }\n        }\n\n        emit TransferBatch(msg.sender, address(0x0), _to, _tokenIds, _amounts);\n        _callonERC1155BatchReceived(address(0x0), _to, _tokenIds, _amounts, _data);\n\n        return _tokenIds;\n    }\n\n    function _burn(address _from, uint256 _tokenId, uint256 _amount) internal {\n        // Non-fungible\n        if (_tokenId & TYPE_NF_BIT == TYPE_NF_BIT) {\n            require(ownerOf(_tokenId) == _from, \"E305\");\n            nfOwners[_tokenId] = address(0x0);\n            _amount = 1;\n        }\n\n        // Fungible\n        else {\n            require(balanceOf(_from, _tokenId) >= _amount, \"E306\");\n            maxIndex[_tokenId] = maxIndex[_tokenId].sub(_amount);\n            balances[_from][_tokenId] = balances[_from][_tokenId].sub(_amount);\n        }\n\n        emit TransferSingle(msg.sender, _from, address(0x0), _tokenId, _amount);\n    }\n\n    function _burnBatch(address _from, uint256[] memory _tokenIds, uint256[] memory _amounts) internal {\n        require(_tokenIds.length == _amounts.length, \"E303\");\n\n        uint256 _amount;\n        uint256 _tokenId;\n        uint256 _count = _tokenIds.length;\n        for (uint256 i = 0; i < _count; i++) {\n            _tokenId = _tokenIds[i];\n            _amount = _amounts[i];\n\n            // Non-fungible\n            if (_tokenId & TYPE_NF_BIT == TYPE_NF_BIT) {\n                require(ownerOf(_tokenId) == _from, \"E305\");\n                nfOwners[_tokenId] = address(0x0);\n                _amounts[i] = 1;\n            }\n\n            // Fungible\n            else {\n                require(balanceOf(_from, _tokenId) >= _amount, \"E306\");\n                maxIndex[_tokenId] = maxIndex[_tokenId].sub(_amount);\n                balances[_from][_tokenId] = balances[_from][_tokenId].sub(_amount);\n            }\n        }\n\n        emit TransferBatch(msg.sender, _from, address(0x0), _tokenIds, _amounts);\n    }\n\n    //    function isNonFungible(uint256 _id) public pure returns(bool) {\n    //        return _id & TYPE_NF_BIT == TYPE_NF_BIT;\n    //    }\n    //    function isFungible(uint256 _id) public pure returns(bool) {\n    //        return _id & TYPE_NF_BIT == 0;\n    //    }\n    //    function getNonFungibleIndex(uint256 _id) public pure returns(uint256) {\n    //        return _id & NF_INDEX_MASK;\n    //    }\n    //    function getNonFungibleBaseType(uint256 _id) public pure returns(uint256) {\n    //        return _id & TYPE_MASK;\n    //    }\n    //    function isNonFungibleBaseType(uint256 _id) public pure returns(bool) {\n    //        // A base type has the NF bit but does not have an index.\n    //        return (_id & TYPE_NF_BIT == TYPE_NF_BIT) && (_id & NF_INDEX_MASK == 0);\n    //    }\n    //    function isNonFungibleItem(uint256 _id) public pure returns(bool) {\n    //        return (_id & TYPE_NF_BIT == TYPE_NF_BIT) && (_id & NF_INDEX_MASK != 0);\n    //    }\n\n    function isContract(address _address) internal view returns (bool) {\n        bytes32 codehash;\n        assembly { codehash := extcodehash(_address) }\n        return (codehash != 0x0 && codehash != ACCOUNT_HASH);\n    }\n\n    function _uint2str(uint256 _i) internal pure returns (string memory _uintAsString) {\n        if (_i == 0) {\n            return \"0\";\n        }\n\n        uint256 j = _i;\n        uint256 ii = _i;\n        uint256 len;\n\n        // Get number of bytes\n        while (j != 0) {\n            len++;\n            j /= 10;\n        }\n\n        bytes memory bstr = new bytes(len);\n        uint256 k = len - 1;\n\n        // Get each individual ASCII\n        while (ii != 0) {\n            bstr[k--] = byte(uint8(48 + ii % 10));\n            ii /= 10;\n        }\n\n        // Convert to string\n        return string(bstr);\n    }\n}\n\n\n/**\n * @notice Charged Particles Contract - Interest-Bearing NFTs\n *  -- ERC-1155 Edition\n */\ncontract ChargedParticlesERC1155 is ERC1155 {\n    using SafeMath for uint256;\n\n    /***********************************|\n    |        Variables and Events       |\n    |__________________________________*/\n\n    IERC20 internal dai;\n    IChai internal chai;\n\n    //       TypeID => Type Creator\n    mapping (uint256 => address) internal registeredTypeCreators;\n\n    //       TypeID => Required DAI\n    mapping (uint256 => uint256) internal requiredFundingByType;   // Amount of Dai to deposit when minting\n\n    //      TokenID => Balance\n    mapping (uint256 => uint256) internal chaiBalanceByTokenId;    // Amount of Chai minted from Dai deposited\n\n    //      TokenID => Max Supply\n    mapping (uint256 => uint256) internal maxSupplyByType;\n\n    //       TypeID => Access Type (1=Public / 2=Private)\n    mapping (uint256 => uint8) internal registeredTypes;\n\n    uint256 internal createFeeEth;\n    uint256 internal createFeeIon;\n    uint256 internal mintFee;\n    uint256 internal collectedFees;\n\n    // Internal ERC20 Token used for Creating Types;\n    // needs to be created as a private ERC20 type within this contract\n    uint256 internal ionTokenId;\n\n    address private owner; // To be assigned to a DAO\n\n    bytes16 public version = \"v0.0.3\";\n\n    event OwnershipTransferred(address indexed previousOwner, address indexed newOwner);\n\n    /***********************************|\n    |             Modifiers             |\n    |__________________________________*/\n\n    /**\n     * @dev Throws if called by any account other than the owner.\n     */\n    modifier onlyOwner() {\n        require(msg.sender == owner, \"E102\");\n        _;\n    }\n\n    /***********************************|\n    |          Initialization           |\n    |__________________________________*/\n\n    constructor() public {\n//         createFeeEth = 35 szabo;     //  ERC20  = 0.000035 ETH  (~ USD $0.005)\n//                                      //  ERC721 = 0.000070 ETH  (~ USD $0.01)\n//         createFeeIon = 100 ether;    //  ERC20  = 100 IONs\n//                                      //  ERC721 = 200 IONs\n//         mintFee = 50;                //  0.5% of Chai from deposited Dai\n\n        owner = msg.sender;\n        emit OwnershipTransferred(address(0), owner);\n    }\n\n    /***********************************|\n    |            Public Read            |\n    |__________________________________*/\n\n    /**\n     * @notice Gets the address of the contract owner.\n     * @return The owner address\n     */\n    function getContractOwner() public view returns (address) {\n        return owner;\n    }\n\n    /**\n     * @notice Gets the Creator of a Token Type\n     * @param _type     The Type ID of the Token\n     * @return  The Creator Address\n     */\n    function getCreator(uint256 _type) public view returns (address) {\n        return registeredTypeCreators[_type];\n    }\n\n    /**\n     * @notice Checks if a user is allowed to mint a Token by Type ID\n     * @param _type     The Type ID of the Token\n     * @return  True if the user can mint the token type\n     */\n    function canMint(uint256 _type, uint256 _amount) public view returns (bool) {\n        // Public\n        if (registeredTypes[_type] == 1) {\n            // Has Max\n            if (maxSupplyByType[_type] > 0) {\n                return maxIndex[_type] <= maxSupplyByType[_type].add(_amount);\n            }\n            // No Max\n            return true;\n        }\n        // Private\n        if (registeredTypeCreators[_type] != msg.sender) {\n            return false;\n        }\n        // Has Max\n        if (maxSupplyByType[_type] > 0) {\n            return maxIndex[_type] <= maxSupplyByType[_type].add(_amount);\n        }\n        // No Max\n        return true;\n    }\n\n    /**\n     * @notice Gets the ETH price to create a Token Type\n     * @param _isNF     True if the Type of Token to Create is a Non-Fungible Token\n     * @return  The ETH price to create a type\n     */\n    function getCreationPrice(bool _isNF) public view returns (uint256 eth, uint256 ion) {\n        eth = _isNF ? (createFeeEth.mul(2)) : createFeeEth;\n        ion = _isNF ? (createFeeIon.mul(2)) : createFeeIon;\n    }\n\n    /***********************************|\n    |         Particle Physics          |\n    |__________________________________*/\n\n    /**\n     * @notice Gets the Amount of Base DAI held in the Token (amount token was minted with)\n     * @param _tokenId      The ID of the Token\n     * @return  The Amount of DAI held in the Token\n     */\n    function baseParticleMass(uint256 _tokenId) public view returns (uint256) {\n        uint256 _type = _tokenId & TYPE_MASK;\n        return requiredFundingByType[_type];\n    }\n\n    /**\n     * @notice Gets the amount of interest the Token has generated (it's accumulated particle-charge)\n     * @param _tokenId      The ID of the Token\n     * @return  The amount of interest the Token has generated\n     */\n    function currentParticleCharge(uint256 _tokenId) public returns (uint256) {\n        uint256 _type = _tokenId & TYPE_MASK;\n        require(registeredTypes[_type] > 0, \"E402\");\n        require(requiredFundingByType[_type] > 0, \"E402\");\n\n        uint256 currentCharge = chai.dai(chaiBalanceByTokenId[_tokenId]);\n        uint256 originalCharge = requiredFundingByType[_type];\n        if (originalCharge >= currentCharge) { return 0; }\n        return currentCharge.sub(originalCharge);\n    }\n\n    /**\n     * @notice Allows the owner of the Token to collect the interest generated form the token\n     *  without removing the underlying DAI that is held in the token\n     * @param _tokenId      The ID of the Token\n     * @return  The amount of interest released from the token\n     */\n    // collect current interest from particle\n    function dischargeParticle(uint256 _tokenId) public returns (uint256) {\n        address _owner = ownerOf(_tokenId);\n        require((_owner == msg.sender) || isApprovedForAll(_owner, msg.sender), \"E103\");\n\n        uint256 _currentChargeInDai = currentParticleCharge(_tokenId);\n        require(_currentChargeInDai > 0, \"E403\");\n\n        uint256 _paidChai = _payoutChargedDai(msg.sender, _currentChargeInDai);\n        chaiBalanceByTokenId[_tokenId] = chaiBalanceByTokenId[_tokenId].sub(_paidChai);\n\n        return _currentChargeInDai;\n    }\n\n    /***********************************|\n    |   Public Create Particle Types    |\n    |__________________________________*/\n\n    /**\n     * @notice Creates a new Particle Type which can later be minted/burned\n     * @param _uri              A unique URI for the Token Type which will serve the JSON metadata\n     * @param _isNF             True if the Type is a Non-Fungible (only Non-Fungible Tokens can hold DAI and generate interest)\n     * @param _isPrivate        True if the Type is Private and can only be minted by the creator; otherwise anyone can mint\n     * @param _requiredDai      The amount of DAI (in WEI) that is required to Mint a Token of this Type (the Particle Mass)\n     *                          NOTE: This will be ignored for Fungible Tokens (ERC20)\n     * @param _maxSupply        The Max Supply of Tokens that can be minted\n     * @return The ID of the newly created Particle Type\n     */\n    function createParticleWithEther(string memory _uri, bool _isNF, bool _isPrivate, uint256 _requiredDai, uint256 _maxSupply) public payable returns (uint256 _particleTypeId) {\n        (uint256 ethPrice, ) = getCreationPrice(_isNF);\n        require(msg.value >= ethPrice, \"E404\");\n\n        // Create Particle Type\n        _particleTypeId = _createParticle(msg.sender, _uri, _isNF, _isPrivate, _requiredDai, _maxSupply);\n\n        // Refund over-payment\n        uint256 overage = msg.value.sub(ethPrice);\n        if (overage > 0) {\n            msg.sender.transfer(overage);\n        }\n    }\n\n    /**\n     * @notice Creates a new Particle Type which can later be minted/burned\n     * @param _uri              A unique URI for the Token Type which will serve the JSON metadata\n     * @param _isNF             True if the Type is a Non-Fungible (only Non-Fungible Tokens can hold DAI and generate interest)\n     * @param _isPrivate        True if the Type is Private and can only be minted by the creator; otherwise anyone can mint\n     * @param _requiredDai      The amount of DAI (in WEI) that is required to Mint a Token of this Type (the Particle Mass)\n     *                          NOTE: This will be ignored for Fungible Tokens (ERC20)\n     * @return The ID of the newly created Particle Type\n     *\n     * NOTE: Must approve THIS contract to TRANSFER your IONS on your behalf\n     */\n    function createParticleWithIons(string memory _uri, bool _isNF, bool _isPrivate, uint256 _requiredDai, uint256 _maxSupply) public returns (uint256 _particleTypeId) {\n        ( , uint256 ionPrice) = getCreationPrice(_isNF);\n\n        // Collect Ions as Payment\n        _collectIons(msg.sender, ionPrice);\n\n        // Create Particle Type\n        _particleTypeId = _createParticle(msg.sender, _uri, _isNF, _isPrivate, _requiredDai, _maxSupply);\n    }\n\n    /***********************************|\n    |    Public Mint (ERC20 & ERC721)   |\n    |__________________________________*/\n\n    /**\n     * @notice Mints a new Particle of the specified Type (can be Fungible or Non-Fungible)\n     *          Note: Requires DAI to mint Non-Fungible Tokens\n     * @param _to       The owner address to assign the new token to\n     * @param _type     The Type ID of the new token to mint\n     * @param _amount   The amount of tokens to mint (always 1 for Non-Fungibles)\n     * @param _data     Custom data used for transferring tokens into contracts\n     * @return  The ID of the newly minted token\n     *\n     * NOTE: Must approve THIS contract to TRANSFER your DAI on your behalf\n     */\n    function mintParticle(address _to, uint256 _type, uint256 _amount, bytes memory _data) public returns (uint256) {\n        require(canMint(_type, _amount), \"E407\");\n        address _self = address(this);\n\n        // Mint Token\n        uint256 _tokenId = _mint(_to, _type, _amount, _data);\n\n        if (_tokenId & TYPE_NF_BIT == TYPE_NF_BIT) {\n            // Transfer DAI from User to Contract\n            uint256 _requiredDai = requiredFundingByType[_type];\n            _collectRequiredDai(msg.sender, _requiredDai);\n\n            // Tokenize Interest\n            uint256 _preBalance = chai.balanceOf(_self);\n            chai.join(_self, _requiredDai);\n            uint256 _postBalance = chai.balanceOf(_self);\n\n            // Track Chai in each Token\n            chaiBalanceByTokenId[_tokenId] = _totalChaiForToken(_postBalance.sub(_preBalance));\n        }\n\n        return _tokenId;\n    }\n\n    /**\n     * @notice Mints multiple new Particles of the specified Types (can be Fungible and/or Non-Fungible)\n     *          Note: Requires DAI to mint Non-Fungible Tokens\n     * @param _to       The owner address to assign the new tokens to\n     * @param _types    The Type IDs of the new tokens to mint\n     * @param _amounts  The amount of tokens to mint (always 1 for Non-Fungibles)\n     * @param _data     Custom data used for transferring tokens into contracts\n     * @return  The IDs of the newly minted tokens\n     *\n     * NOTE: Must approve THIS contract to TRANSFER your DAI on your behalf\n     */\n    function mintParticles(address _to, uint256[] memory _types, uint256[] memory _amounts, bytes memory _data) public returns (uint256[] memory) {\n        address _self = address(this);\n        uint256 i;\n        uint256 _type;\n        uint256 _amount;\n        uint256 _tokenId;\n        uint256 _totalDai;\n        uint256 _requiredDai;\n        uint256 _count = _types.length;\n\n        for (i = 0; i < _count; ++i) {\n            _type = _types[i];\n            _amount = _amounts[i];\n            require(canMint(_type, _amount), \"E407\");\n            _requiredDai = requiredFundingByType[_type];\n            _totalDai = _requiredDai.add(_totalDai);\n        }\n\n        // Mint Tokens\n        uint256[] memory _tokenIds = _mintBatch(_to, _types, _amounts, _data);\n\n        if (_totalDai > 0) {\n            // Transfer DAI from User to Contract\n            _collectRequiredDai(msg.sender, _totalDai);\n\n            uint256 _balance = chai.balanceOf(_self);\n            for (i = 0; i < _count; ++i) {\n                _tokenId = _tokenIds[i];\n                _type = _tokenId & TYPE_MASK;\n                _requiredDai = requiredFundingByType[_type];\n\n                if (_requiredDai > 0) {\n                    // Tokenize Interest\n                    chai.join(_self, _requiredDai);\n\n                    // Track Chai in each Token\n                    chaiBalanceByTokenId[_tokenId] = _totalChaiForToken(chai.balanceOf(_self).sub(_balance));\n                    _balance = chai.balanceOf(_self);\n                }\n            }\n        }\n        return _tokenIds;\n    }\n\n    /***********************************|\n    |    Public Burn (ERC20 & ERC721)   |\n    |__________________________________*/\n\n    /**\n     * @notice Destroys a Particle and releases the underlying DAI + Interest (Mass + Charge)\n     * @param _tokenId  The ID of the token to burn\n     * @param _amount   The amount of tokens to burn (always 1 for Non-Fungibles)\n     */\n    function burnParticle(uint256 _tokenId, uint256 _amount) public {\n        // Verify Token\n        uint256 _type = _tokenId & TYPE_MASK;\n        require(registeredTypes[_type] > 0, \"E402\");\n\n        // Burn Token\n        _burn(msg.sender, _tokenId, _amount);\n\n        // Payout Dai + Interest\n        if (_tokenId & TYPE_NF_BIT == TYPE_NF_BIT) {\n            uint256 _tokenChai = chaiBalanceByTokenId[_tokenId];\n            chaiBalanceByTokenId[_tokenId] = 0;\n            _payoutFundedDai(msg.sender, _tokenChai);\n        }\n    }\n\n    /**\n     * @notice Destroys multiple Particles and releases the underlying DAI + Interest (Mass + Charge)\n     * @param _tokenIds     The IDs of the tokens to burn\n     * @param _amounts      The amounts of the tokens to burn (always 1 for Non-Fungibles)\n     */\n    function burnParticles(uint256[] memory _tokenIds, uint256[] memory _amounts) public {\n        // Verify Token\n        uint256 _tokenId;\n        uint256 _totalChai;\n        uint256 _count = _tokenIds.length;\n        for (uint256 i = 0; i < _count; ++i) {\n            _tokenId = _tokenIds[i];\n            require(registeredTypes[_tokenId & TYPE_MASK] > 0, \"E402\");\n\n            if (_tokenId & TYPE_NF_BIT == TYPE_NF_BIT) {\n                _totalChai = chaiBalanceByTokenId[_tokenId].add(_totalChai);\n                chaiBalanceByTokenId[_tokenId] = 0;\n            }\n        }\n\n        // Burn Tokens\n        _burnBatch(msg.sender, _tokenIds, _amounts);\n\n        // Payout Dai + Interest\n        if (_totalChai > 0) {\n            _payoutFundedDai(msg.sender, _totalChai);\n        }\n    }\n\n    /***********************************|\n    |            Only Owner             |\n    |__________________________________*/\n\n    /**\n     * @dev Setup the DAI/CHAI contracts and configure the contract\n     */\n    function setup(address _daiAddress, address _chaiAddress, uint256 _createFeeEth, uint256 _createFeeIon, uint256 _mintFee) public onlyOwner {\n        // Set DAI as Funding Token\n        dai = IERC20(_daiAddress);\n        chai = IChai(_chaiAddress);\n\n        // Setup Chai to Tokenize DAI Interest\n        dai.approve(_chaiAddress, uint(-1));\n\n        createFeeEth = _createFeeEth;\n        createFeeIon = _createFeeIon;\n        mintFee = _mintFee;\n    }\n\n    /**\n     * @dev Setup internal ION Token\n     */\n    function mintIons(string memory _uri, uint256 _amount) public onlyOwner returns (uint256) {\n        // Create ION Token Type;\n        //  ERC20, Private, Limited\n        ionTokenId = _createParticle(owner, _uri, false, true, 0, _amount);\n\n        // Mint ION Tokens to Owner\n        _mint(owner, ionTokenId, _amount, \"\");\n\n        // Remove owner of ION token to prevent further minting\n        registeredTypeCreators[ionTokenId] = address(0x0);\n\n        return ionTokenId;\n    }\n\n    /**\n     * @dev Allows contract owner to withdraw any fees earned\n     */\n    function withdrawFees() public onlyOwner {\n        uint256 _balance = address(this).balance;\n        if (_balance > 0) {\n            msg.sender.transfer(_balance);\n        }\n        if (collectedFees > 0) {\n            _payoutFundedDai(msg.sender, collectedFees);\n            collectedFees = 0;\n        }\n    }\n\n    /**\n     * @notice Transfers the ownership of the contract to new address\n     * @param _newOwner Address of the new owner\n     */\n    function transferOwnership(address _newOwner) public onlyOwner {\n        require(_newOwner != address(0), \"E101\");\n        emit OwnershipTransferred(owner, _newOwner);\n        owner = _newOwner;\n    }\n\n    /***********************************|\n    |         Private Functions         |\n    |__________________________________*/\n\n    /**\n     * @notice Creates a new Particle Type which can later be minted/burned\n     * @param _uri              A unique URI for the Token Type which will serve the JSON metadata\n     * @param _isNF             True if the Type is a Non-Fungible (only Non-Fungible Tokens can hold DAI and generate interest)\n     * @param _isPrivate        True if the Type is Private and can only be minted by the creator; otherwise anyone can mint\n     * @param _requiredDai      The amount of DAI (in WEI) that is required to Mint a Token of this Type (the Particle Mass)\n     *                          NOTE: This will be ignored for Fungible Tokens (ERC20)\n     * @return The ID of the newly created Particle Type\n     */\n    function _createParticle(address _creator, string memory _uri, bool _isNF, bool _isPrivate, uint256 _requiredDai, uint256 _maxSupply) internal returns (uint256 _particleTypeId) {\n        require(!_isNF || (_isNF && _requiredDai >= 1e6), \"E406\"); // 0.000000000001 DAI  or  1000000 WEI\n\n        // Create Type\n        _particleTypeId = _createType(_uri, _isNF);\n\n        // Type Access (Public or Private minting)\n        registeredTypes[_particleTypeId] = _isPrivate ? 2 : 1;\n\n        // Creator of Type\n        registeredTypeCreators[_particleTypeId] = _creator;\n\n        // Max Supply of Token; 0 = No Max\n        maxSupplyByType[_particleTypeId] = _maxSupply;\n\n        // Required Funding for NFTs\n        requiredFundingByType[_particleTypeId] = _isNF ? _requiredDai : 0;\n    }\n\n    /**\n     * @dev Collects the Required IONs from the users wallet during Type Creation and Burns them\n     * @param _from  The owner address to collect the IONs from\n     * @param _ions  The amount of IONs to collect from the user\n     */\n    function _collectIons(address _from, uint256 _ions) internal {\n        // Burn IONs from User\n        _burn(_from, ionTokenId, _ions);\n    }\n\n    /**\n     * @dev Collects the Required DAI from the users wallet during Minting\n     * @param _from         The owner address to collect the DAI from\n     * @param _requiredDai  The amount of DAI to collect from the user\n     */\n    function _collectRequiredDai(address _from, uint256 _requiredDai) internal {\n        // Transfer DAI from User to Contract\n        uint256 _userDaiBalance = dai.balanceOf(_from);\n        require(_requiredDai <= _userDaiBalance, \"E405\");\n        require(dai.transferFrom(_from, address(this), _requiredDai), \"E408\");\n    }\n\n    /**\n     * @dev Pays out a specified amount of CHAI\n     * @param _to           The owner address to pay out to\n     * @param _totalChai    The total amount of CHAI to pay out\n     */\n    function _payoutFundedDai(address _to, uint256 _totalChai) internal {\n        address _self = address(this);\n\n        // Exit Chai and collect Dai + Interest\n        chai.exit(_self, _totalChai);\n\n        // Transfer Dai + Interest\n        uint256 _receivedDai = dai.balanceOf(_self);\n        require(dai.transferFrom(_self, _to, _receivedDai), \"E408\");\n    }\n\n    /**\n     * @dev Pays out a specified amount of DAI\n     * @param _to           The owner address to pay out to\n     * @param _totalDai     The total amount of DAI to pay out\n     */\n    function _payoutChargedDai(address _to, uint256 _totalDai) internal returns (uint256) {\n        address _self = address(this);\n\n        // Collect Interest\n        uint256 _chai = chai.draw(_self, _totalDai);\n\n        // Transfer Interest\n        uint256 _receivedDai = dai.balanceOf(_self);\n        require(dai.transferFrom(_self, _to, _receivedDai), \"E408\");\n        return _chai;\n    }\n\n    /**\n     * @dev Calculates the amount of DAI held within a token during minting\n     *      Note: Accounts for any contract fees\n     * @param _tokenChai    The total amount of DAI used to fund the token\n     * @return  The actual amount of DAI to fund the token - fees\n     */\n    function _totalChaiForToken(uint256 _tokenChai) internal returns (uint256) {\n        if (mintFee == 0) { return _tokenChai; }\n        uint256 _mintFee = _tokenChai.mul(mintFee).div(1e4);\n        collectedFees = collectedFees.add(_mintFee);\n        return _tokenChai.sub(_mintFee);\n    }\n}\n",
  "sourcePath": "/Users/robsecord/workspace/Ethereum/ChargedParticles/ChargedParticlesEth/contracts/ChargedParticlesERC1155.sol",
  "compiler": {
    "name": "solc",
    "version": "0.5.13+commit.5b0b510c.Emscripten.clang"
  },
  "schemaVersion": "3.0.23",
  "updatedAt": "2020-02-03T04:50:58.054Z",
  "networkType": "ethereum",
  "devdoc": {
    "methods": {
      "baseParticleMass(uint256)": {
        "params": {
          "_tokenId": "The ID of the Token"
        },
        "return": "The Amount of DAI held in the Token"
      },
      "burnParticle(uint256,uint256)": {
        "params": {
          "_amount": "The amount of tokens to burn (always 1 for Non-Fungibles)",
          "_tokenId": "The ID of the token to burn"
        }
      },
      "burnParticles(uint256[],uint256[])": {
        "params": {
          "_amounts": "The amounts of the tokens to burn (always 1 for Non-Fungibles)",
          "_tokenIds": "The IDs of the tokens to burn"
        }
      },
      "canMint(uint256,uint256)": {
        "params": {
          "_type": "The Type ID of the Token"
        },
        "return": "True if the user can mint the token type"
      },
      "createParticleWithEther(string,bool,bool,uint256,uint256)": {
        "params": {
          "_isNF": "True if the Type is a Non-Fungible (only Non-Fungible Tokens can hold DAI and generate interest)",
          "_isPrivate": "True if the Type is Private and can only be minted by the creator; otherwise anyone can mint",
          "_maxSupply": "The Max Supply of Tokens that can be minted",
          "_requiredDai": "The amount of DAI (in WEI) that is required to Mint a Token of this Type (the Particle Mass)                         NOTE: This will be ignored for Fungible Tokens (ERC20)",
          "_uri": "A unique URI for the Token Type which will serve the JSON metadata"
        },
        "return": "The ID of the newly created Particle Type"
      },
      "createParticleWithIons(string,bool,bool,uint256,uint256)": {
        "params": {
          "_isNF": "True if the Type is a Non-Fungible (only Non-Fungible Tokens can hold DAI and generate interest)",
          "_isPrivate": "True if the Type is Private and can only be minted by the creator; otherwise anyone can mint",
          "_requiredDai": "The amount of DAI (in WEI) that is required to Mint a Token of this Type (the Particle Mass)                         NOTE: This will be ignored for Fungible Tokens (ERC20)",
          "_uri": "A unique URI for the Token Type which will serve the JSON metadata"
        },
        "return": "The ID of the newly created Particle Type     * NOTE: Must approve THIS contract to TRANSFER your IONS on your behalf"
      },
      "currentParticleCharge(uint256)": {
        "params": {
          "_tokenId": "The ID of the Token"
        },
        "return": "The amount of interest the Token has generated"
      },
      "dischargeParticle(uint256)": {
        "params": {
          "_tokenId": "The ID of the Token"
        },
        "return": "The amount of interest released from the token"
      },
      "getContractOwner()": {
        "return": "The owner address"
      },
      "getCreationPrice(bool)": {
        "params": {
          "_isNF": "True if the Type of Token to Create is a Non-Fungible Token"
        },
        "return": "The ETH price to create a type"
      },
      "getCreator(uint256)": {
        "params": {
          "_type": "The Type ID of the Token"
        },
        "return": "The Creator Address"
      },
      "mintIons(string,uint256)": {
        "details": "Setup internal ION Token"
      },
      "mintParticle(address,uint256,uint256,bytes)": {
        "params": {
          "_amount": "The amount of tokens to mint (always 1 for Non-Fungibles)",
          "_data": "Custom data used for transferring tokens into contracts",
          "_to": "The owner address to assign the new token to",
          "_type": "The Type ID of the new token to mint"
        },
        "return": "The ID of the newly minted token     * NOTE: Must approve THIS contract to TRANSFER your DAI on your behalf"
      },
      "mintParticles(address,uint256[],uint256[],bytes)": {
        "params": {
          "_amounts": "The amount of tokens to mint (always 1 for Non-Fungibles)",
          "_data": "Custom data used for transferring tokens into contracts",
          "_to": "The owner address to assign the new tokens to",
          "_types": "The Type IDs of the new tokens to mint"
        },
        "return": "The IDs of the newly minted tokens     * NOTE: Must approve THIS contract to TRANSFER your DAI on your behalf"
      },
      "setup(address,address,uint256,uint256,uint256)": {
        "details": "Setup the DAI/CHAI contracts and configure the contract"
      },
      "transferOwnership(address)": {
        "params": {
          "_newOwner": "Address of the new owner"
        }
      },
      "withdrawFees()": {
        "details": "Allows contract owner to withdraw any fees earned"
      }
    }
  },
  "userdoc": {
    "methods": {
      "baseParticleMass(uint256)": {
        "notice": "Gets the Amount of Base DAI held in the Token (amount token was minted with)"
      },
      "burnParticle(uint256,uint256)": {
        "notice": "Destroys a Particle and releases the underlying DAI + Interest (Mass + Charge)"
      },
      "burnParticles(uint256[],uint256[])": {
        "notice": "Destroys multiple Particles and releases the underlying DAI + Interest (Mass + Charge)"
      },
      "canMint(uint256,uint256)": {
        "notice": "Checks if a user is allowed to mint a Token by Type ID"
      },
      "constructor": "*********************************| |          Initialization           | |__________________________________",
      "createParticleWithEther(string,bool,bool,uint256,uint256)": {
        "notice": "Creates a new Particle Type which can later be minted/burned"
      },
      "createParticleWithIons(string,bool,bool,uint256,uint256)": {
        "notice": "Creates a new Particle Type which can later be minted/burned"
      },
      "currentParticleCharge(uint256)": {
        "notice": "Gets the amount of interest the Token has generated (it's accumulated particle-charge)"
      },
      "dischargeParticle(uint256)": {
        "notice": "Allows the owner of the Token to collect the interest generated form the token without removing the underlying DAI that is held in the token"
      },
      "getContractOwner()": {
        "notice": "Gets the address of the contract owner."
      },
      "getCreationPrice(bool)": {
        "notice": "Gets the ETH price to create a Token Type"
      },
      "getCreator(uint256)": {
        "notice": "Gets the Creator of a Token Type"
      },
      "mintParticle(address,uint256,uint256,bytes)": {
        "notice": "Mints a new Particle of the specified Type (can be Fungible or Non-Fungible)         Note: Requires DAI to mint Non-Fungible Tokens"
      },
      "mintParticles(address,uint256[],uint256[],bytes)": {
        "notice": "Mints multiple new Particles of the specified Types (can be Fungible and/or Non-Fungible)         Note: Requires DAI to mint Non-Fungible Tokens"
      },
      "transferOwnership(address)": {
        "notice": "Transfers the ownership of the contract to new address"
      }
    },
    "notice": "Charged Particles Contract - Interest-Bearing NFTs -- ERC-1155 Edition"
  }
}