{
  "contractName": "ChargedParticlesERC721",
  "abi": [
    {
      "inputs": [],
      "payable": false,
      "stateMutability": "nonpayable",
      "type": "constructor"
    },
    {
      "anonymous": false,
      "inputs": [
        {
          "indexed": true,
          "internalType": "address",
          "name": "owner",
          "type": "address"
        },
        {
          "indexed": true,
          "internalType": "address",
          "name": "approved",
          "type": "address"
        },
        {
          "indexed": true,
          "internalType": "uint256",
          "name": "tokenId",
          "type": "uint256"
        }
      ],
      "name": "Approval",
      "type": "event"
    },
    {
      "anonymous": false,
      "inputs": [
        {
          "indexed": true,
          "internalType": "address",
          "name": "owner",
          "type": "address"
        },
        {
          "indexed": true,
          "internalType": "address",
          "name": "operator",
          "type": "address"
        },
        {
          "indexed": false,
          "internalType": "bool",
          "name": "approved",
          "type": "bool"
        }
      ],
      "name": "ApprovalForAll",
      "type": "event"
    },
    {
      "anonymous": false,
      "inputs": [
        {
          "indexed": true,
          "internalType": "address",
          "name": "previousOwner",
          "type": "address"
        },
        {
          "indexed": true,
          "internalType": "address",
          "name": "newOwner",
          "type": "address"
        }
      ],
      "name": "OwnershipTransferred",
      "type": "event"
    },
    {
      "anonymous": false,
      "inputs": [
        {
          "indexed": true,
          "internalType": "address",
          "name": "from",
          "type": "address"
        },
        {
          "indexed": true,
          "internalType": "address",
          "name": "to",
          "type": "address"
        },
        {
          "indexed": true,
          "internalType": "uint256",
          "name": "tokenId",
          "type": "uint256"
        }
      ],
      "name": "Transfer",
      "type": "event"
    },
    {
      "constant": false,
      "inputs": [
        {
          "internalType": "address",
          "name": "to",
          "type": "address"
        },
        {
          "internalType": "uint256",
          "name": "tokenId",
          "type": "uint256"
        }
      ],
      "name": "approve",
      "outputs": [],
      "payable": false,
      "stateMutability": "nonpayable",
      "type": "function"
    },
    {
      "constant": true,
      "inputs": [
        {
          "internalType": "address",
          "name": "owner",
          "type": "address"
        }
      ],
      "name": "balanceOf",
      "outputs": [
        {
          "internalType": "uint256",
          "name": "",
          "type": "uint256"
        }
      ],
      "payable": false,
      "stateMutability": "view",
      "type": "function"
    },
    {
      "constant": true,
      "inputs": [
        {
          "internalType": "uint256",
          "name": "tokenId",
          "type": "uint256"
        }
      ],
      "name": "getApproved",
      "outputs": [
        {
          "internalType": "address",
          "name": "",
          "type": "address"
        }
      ],
      "payable": false,
      "stateMutability": "view",
      "type": "function"
    },
    {
      "constant": true,
      "inputs": [
        {
          "internalType": "address",
          "name": "owner",
          "type": "address"
        },
        {
          "internalType": "address",
          "name": "operator",
          "type": "address"
        }
      ],
      "name": "isApprovedForAll",
      "outputs": [
        {
          "internalType": "bool",
          "name": "",
          "type": "bool"
        }
      ],
      "payable": false,
      "stateMutability": "view",
      "type": "function"
    },
    {
      "constant": true,
      "inputs": [],
      "name": "name",
      "outputs": [
        {
          "internalType": "string",
          "name": "",
          "type": "string"
        }
      ],
      "payable": false,
      "stateMutability": "view",
      "type": "function"
    },
    {
      "constant": true,
      "inputs": [
        {
          "internalType": "uint256",
          "name": "tokenId",
          "type": "uint256"
        }
      ],
      "name": "ownerOf",
      "outputs": [
        {
          "internalType": "address",
          "name": "",
          "type": "address"
        }
      ],
      "payable": false,
      "stateMutability": "view",
      "type": "function"
    },
    {
      "constant": false,
      "inputs": [
        {
          "internalType": "address",
          "name": "from",
          "type": "address"
        },
        {
          "internalType": "address",
          "name": "to",
          "type": "address"
        },
        {
          "internalType": "uint256",
          "name": "tokenId",
          "type": "uint256"
        }
      ],
      "name": "safeTransferFrom",
      "outputs": [],
      "payable": false,
      "stateMutability": "nonpayable",
      "type": "function"
    },
    {
      "constant": false,
      "inputs": [
        {
          "internalType": "address",
          "name": "from",
          "type": "address"
        },
        {
          "internalType": "address",
          "name": "to",
          "type": "address"
        },
        {
          "internalType": "uint256",
          "name": "tokenId",
          "type": "uint256"
        },
        {
          "internalType": "bytes",
          "name": "_data",
          "type": "bytes"
        }
      ],
      "name": "safeTransferFrom",
      "outputs": [],
      "payable": false,
      "stateMutability": "nonpayable",
      "type": "function"
    },
    {
      "constant": false,
      "inputs": [
        {
          "internalType": "address",
          "name": "to",
          "type": "address"
        },
        {
          "internalType": "bool",
          "name": "approved",
          "type": "bool"
        }
      ],
      "name": "setApprovalForAll",
      "outputs": [],
      "payable": false,
      "stateMutability": "nonpayable",
      "type": "function"
    },
    {
      "constant": true,
      "inputs": [
        {
          "internalType": "bytes4",
          "name": "_interfaceID",
          "type": "bytes4"
        }
      ],
      "name": "supportsInterface",
      "outputs": [
        {
          "internalType": "bool",
          "name": "",
          "type": "bool"
        }
      ],
      "payable": false,
      "stateMutability": "view",
      "type": "function"
    },
    {
      "constant": true,
      "inputs": [],
      "name": "symbol",
      "outputs": [
        {
          "internalType": "string",
          "name": "",
          "type": "string"
        }
      ],
      "payable": false,
      "stateMutability": "view",
      "type": "function"
    },
    {
      "constant": true,
      "inputs": [
        {
          "internalType": "uint256",
          "name": "tokenId",
          "type": "uint256"
        }
      ],
      "name": "tokenURI",
      "outputs": [
        {
          "internalType": "string",
          "name": "",
          "type": "string"
        }
      ],
      "payable": false,
      "stateMutability": "view",
      "type": "function"
    },
    {
      "constant": false,
      "inputs": [
        {
          "internalType": "address",
          "name": "from",
          "type": "address"
        },
        {
          "internalType": "address",
          "name": "to",
          "type": "address"
        },
        {
          "internalType": "uint256",
          "name": "tokenId",
          "type": "uint256"
        }
      ],
      "name": "transferFrom",
      "outputs": [],
      "payable": false,
      "stateMutability": "nonpayable",
      "type": "function"
    },
    {
      "constant": true,
      "inputs": [],
      "name": "version",
      "outputs": [
        {
          "internalType": "bytes16",
          "name": "",
          "type": "bytes16"
        }
      ],
      "payable": false,
      "stateMutability": "view",
      "type": "function"
    },
    {
      "constant": true,
      "inputs": [],
      "name": "getContractOwner",
      "outputs": [
        {
          "internalType": "address",
          "name": "",
          "type": "address"
        }
      ],
      "payable": false,
      "stateMutability": "view",
      "type": "function"
    },
    {
      "constant": true,
      "inputs": [],
      "name": "baseParticleMass",
      "outputs": [
        {
          "internalType": "uint256",
          "name": "",
          "type": "uint256"
        }
      ],
      "payable": false,
      "stateMutability": "view",
      "type": "function"
    },
    {
      "constant": false,
      "inputs": [
        {
          "internalType": "uint256",
          "name": "_tokenId",
          "type": "uint256"
        }
      ],
      "name": "currentParticleCharge",
      "outputs": [
        {
          "internalType": "uint256",
          "name": "",
          "type": "uint256"
        }
      ],
      "payable": false,
      "stateMutability": "nonpayable",
      "type": "function"
    },
    {
      "constant": false,
      "inputs": [
        {
          "internalType": "uint256",
          "name": "_tokenId",
          "type": "uint256"
        }
      ],
      "name": "dischargeParticle",
      "outputs": [
        {
          "internalType": "uint256",
          "name": "",
          "type": "uint256"
        }
      ],
      "payable": false,
      "stateMutability": "nonpayable",
      "type": "function"
    },
    {
      "constant": false,
      "inputs": [
        {
          "internalType": "address",
          "name": "_to",
          "type": "address"
        },
        {
          "internalType": "uint256",
          "name": "_amount",
          "type": "uint256"
        },
        {
          "internalType": "bytes",
          "name": "_data",
          "type": "bytes"
        }
      ],
      "name": "mintParticles",
      "outputs": [
        {
          "internalType": "uint256[]",
          "name": "",
          "type": "uint256[]"
        }
      ],
      "payable": false,
      "stateMutability": "nonpayable",
      "type": "function"
    },
    {
      "constant": false,
      "inputs": [
        {
          "internalType": "uint256",
          "name": "_tokenId",
          "type": "uint256"
        }
      ],
      "name": "burnParticle",
      "outputs": [],
      "payable": false,
      "stateMutability": "nonpayable",
      "type": "function"
    },
    {
      "constant": false,
      "inputs": [
        {
          "internalType": "uint256[]",
          "name": "_tokenIds",
          "type": "uint256[]"
        }
      ],
      "name": "burnParticles",
      "outputs": [],
      "payable": false,
      "stateMutability": "nonpayable",
      "type": "function"
    },
    {
      "constant": false,
      "inputs": [
        {
          "internalType": "address",
          "name": "_daiAddress",
          "type": "address"
        },
        {
          "internalType": "address",
          "name": "_chaiAddress",
          "type": "address"
        },
        {
          "internalType": "uint256",
          "name": "_mintFee",
          "type": "uint256"
        },
        {
          "internalType": "uint256",
          "name": "_requiredFunding",
          "type": "uint256"
        }
      ],
      "name": "setup",
      "outputs": [],
      "payable": false,
      "stateMutability": "nonpayable",
      "type": "function"
    },
    {
      "constant": false,
      "inputs": [],
      "name": "withdrawFees",
      "outputs": [],
      "payable": false,
      "stateMutability": "nonpayable",
      "type": "function"
    },
    {
      "constant": false,
      "inputs": [
        {
          "internalType": "address",
          "name": "_newOwner",
          "type": "address"
        }
      ],
      "name": "transferOwnership",
      "outputs": [],
      "payable": false,
      "stateMutability": "nonpayable",
      "type": "function"
    }
  ],
  "bytecode": "0x6080604052600f80546001600160801b0319166f76302e302e33000000000000000000001790553480156200003357600080fd5b50604080518082018252601081527f436861726765645061727469636c65730000000000000000000000000000000060208083019182528351808501909452600484527f494f4e5300000000000000000000000000000000000000000000000000000000908401528151919291620000ae9160009162000119565b508051620000c490600190602084019062000119565b5050600e80546001600160a01b0319163317908190556040516001600160a01b039190911691506000907f8be0079c531659141344cd1fd0a4f28419497f9722a3daafe3b4186f6b6457e0908290a3620001be565b828054600181600116156101000203166002900490600052602060002090601f016020900481019282601f106200015c57805160ff19168380011785556200018c565b828001600101855582156200018c579182015b828111156200018c5782518255916020019190600101906200016f565b506200019a9291506200019e565b5090565b620001bb91905b808211156200019a5760008155600101620001a5565b90565b61252280620001ce6000396000f3fe608060405234801561001057600080fd5b50600436106101585760003560e01c80636352211e116100c3578063b88d4fde1161007c578063b88d4fde146102ca578063c87b56dd146102dd578063df84fe49146102f0578063e985e9c514610303578063f10fda5014610316578063f2fde38b1461032957610158565b80636352211e1461026357806370a08231146102765780638c060bb71461028957806395b3ec211461029c57806395d89b41146102af578063a22cb465146102b757610158565b8063273db83011610115578063273db830146101f65780633f2817b91461021657806342842e0e1461022b578063442890d51461023e578063476343ee1461024657806354fd4d501461024e57610158565b806301ffc9a71461015d57806306fdde0314610186578063081812fc1461019b578063095ea7b3146101bb57806316ecc686146101d057806323b872dd146101e3575b600080fd5b61017061016b366004611e9a565b61033c565b60405161017d9190612270565b60405180910390f35b61018e61039e565b60405161017d919061228c565b6101ae6101a9366004611ed6565b610435565b60405161017d91906121ca565b6101ce6101c9366004611dbc565b610481565b005b6101ce6101de366004611d37565b610554565b6101ce6101f1366004611c71565b610636565b610209610204366004611dec565b61066c565b60405161017d919061225f565b61021e610996565b60405161017d919061238d565b6101ce610239366004611c71565b61099c565b6101ae6109b7565b6101ce6109c6565b610256610a44565b60405161017d919061227e565b6101ae610271366004611ed6565b610a4d565b61021e610284366004611c19565b610a88565b61021e610297366004611ed6565b610ad1565b61021e6102aa366004611ed6565b610b6b565b61018e610c4a565b6101ce6102c5366004611d8c565b610caa565b6101ce6102d8366004611cbe565b610d42565b61018e6102eb366004611ed6565b610d7a565b6101ce6102fe366004611ed6565b610e3e565b610170610311366004611c37565b610e69565b6101ce610324366004611e47565b610e97565b6101ce610337366004611c19565b610f08565b60006001600160e01b031982166301ffc9a760e01b148061036d57506001600160e01b031982166380ac58cd60e01b145b8061038857506001600160e01b03198216635b5e139f60e01b145b1561039557506001610399565b5060005b919050565b60008054604080516020601f600260001961010060018816150201909516949094049384018190048102820181019092528281526060939092909183018282801561042a5780601f106103ff5761010080835404028352916020019161042a565b820191906000526020600020905b81548152906001019060200180831161040d57829003601f168201915b505050505090505b90565b600061044082610fb4565b6104655760405162461bcd60e51b815260040161045c9061232d565b60405180910390fd5b506000908152600460205260409020546001600160a01b031690565b600061048c82610a4d565b9050806001600160a01b0316836001600160a01b031614156104c05760405162461bcd60e51b815260040161045c9061235d565b336001600160a01b03821614806104dc57506104dc8133610e69565b6104f85760405162461bcd60e51b815260040161045c9061231d565b60008281526004602052604080822080546001600160a01b0319166001600160a01b0387811691821790925591518593918516917f8c5be1e5ebec7d5bd14f71427d1e84f3dd0314c0f7b2291e5b200ac8c7c3b92591a4505050565b600e546001600160a01b0316331461057e5760405162461bcd60e51b815260040161045c9061229d565b600780546001600160a01b038087166001600160a01b031992831617928390556008805487831693169290921790915560405163095ea7b360e01b815291169063095ea7b3906105d690869060001990600401612244565b602060405180830381600087803b1580156105f057600080fd5b505af1158015610604573d6000803e3d6000fd5b505050506040513d601f19601f820116820180604052506106289190810190611e7c565b50600b91909155600d555050565b6106403382610fd1565b61065c5760405162461bcd60e51b815260040161045c9061231d565b610667838383611056565b505050565b6060600030905060008060006060876040519080825280602002602001820160405280156106a4578160200160208202803883390190505b509050600093505b8784101561071157600d546106c7908363ffffffff61115c16565b600a549092506106e0906001860163ffffffff61115c16565b9250828185815181106106ef57fe5b602002602001018181525050610706898489611181565b8360010193506106ac565b600a54610724908963ffffffff61115c16565b600a5581156109885761073733836111b4565b6008546040516370a0823160e01b81526000916001600160a01b0316906370a08231906107689089906004016121ca565b602060405180830381600087803b15801561078257600080fd5b505af1158015610796573d6000803e3d6000fd5b505050506040513d601f19601f820116820180604052506107ba9190810190611ef4565b9050600094505b88851015610986578185815181106107d557fe5b6020908102919091010151600854600d54604051633b4da69f60e01b81529296506001600160a01b0390911691633b4da69f91610817918a9190600401612244565b600060405180830381600087803b15801561083157600080fd5b505af1158015610845573d6000803e3d6000fd5b50506008546040516370a0823160e01b81526108e493506108df925084916001600160a01b0316906370a0823190610881908c906004016121ca565b602060405180830381600087803b15801561089b57600080fd5b505af11580156108af573d6000803e3d6000fd5b505050506040513d601f19601f820116820180604052506108d39190810190611ef4565b9063ffffffff6112f916565b611321565b600085815260096020526040908190209190915560085490516370a0823160e01b81526001600160a01b03909116906370a08231906109279089906004016121ca565b602060405180830381600087803b15801561094157600080fd5b505af1158015610955573d6000803e3d6000fd5b505050506040513d601f19601f820116820180604052506109799190810190611ef4565b90508460010194506107c1565b505b9450505050505b9392505050565b600d5490565b61066783838360405180602001604052806000815250610d42565b600e546001600160a01b031690565b600e546001600160a01b031633146109f05760405162461bcd60e51b815260040161045c9061229d565b30318015610a2757604051339082156108fc029083906000818181858888f19350505050158015610a25573d6000803e3d6000fd5b505b600c5415610a4157610a3b33600c54611387565b6000600c555b50565b600f5460801b81565b6000818152600360205260408120546001600160a01b031680610a825760405162461bcd60e51b815260040161045c9061232d565b92915050565b60006001600160a01b038216610ab05760405162461bcd60e51b815260040161045c906122cd565b6001600160a01b0382166000908152600560205260409020610a8290611511565b6000610add3383610fd1565b610af95760405162461bcd60e51b815260040161045c906122dd565b6000610b0483610b6b565b905060008111610b265760405162461bcd60e51b815260040161045c906122ed565b6000610b323383611515565b600085815260096020526040902054909150610b54908263ffffffff6112f916565b600085815260096020526040902055509050919050565b6000610b7682610fb4565b610b925760405162461bcd60e51b815260040161045c906122fd565b600854600083815260096020526040808220549051631043b2cb60e01b815291926001600160a01b031691631043b2cb91610bcf9160040161238d565b602060405180830381600087803b158015610be957600080fd5b505af1158015610bfd573d6000803e3d6000fd5b505050506040513d601f19601f82011682018060405250610c219190810190611ef4565b905080600d5410610c36576000915050610399565b600d5461098f90829063ffffffff6112f916565b60018054604080516020601f6002600019610100878916150201909516949094049384018190048102820181019092528281526060939092909183018282801561042a5780601f106103ff5761010080835404028352916020019161042a565b6001600160a01b038216331415610cd35760405162461bcd60e51b815260040161045c9061235d565b3360008181526006602090815260408083206001600160a01b038716808552925291829020805460ff191685151517905590519091907f17307eab39ab6107e8899845ad3d59bd9653f200f220920489ca2b5937696c3190610d36908590612270565b60405180910390a35050565b610d4c3383610fd1565b610d685760405162461bcd60e51b815260040161045c9061231d565b610d74848484846116d0565b50505050565b6060610d8582610fb4565b610da15760405162461bcd60e51b815260040161045c9061232d565b600082815260026020818152604092839020805484516001821615610100026000190190911693909304601f8101839004830284018301909452838352919290830182828015610e325780601f10610e0757610100808354040283529160200191610e32565b820191906000526020600020905b815481529060010190602001808311610e1557829003601f168201915b50505050509050919050565b610e483382611703565b60008181526009602052604081208054919055610e653382611387565b5050565b6001600160a01b03918216600090815260066020908152604080832093909416825291909152205460ff1690565b600080805b8351811015610efd57838181518110610eb157fe5b60200260200101519250610ec53384611703565b600083815260096020526040902054610ee4908363ffffffff61115c16565b6000848152600960205260408120559150600101610e9c565b506106673382611387565b600e546001600160a01b03163314610f325760405162461bcd60e51b815260040161045c9061229d565b6001600160a01b038116610f585760405162461bcd60e51b815260040161045c906122cd565b600e546040516001600160a01b038084169216907f8be0079c531659141344cd1fd0a4f28419497f9722a3daafe3b4186f6b6457e090600090a3600e80546001600160a01b0319166001600160a01b0392909216919091179055565b6000908152600360205260409020546001600160a01b0316151590565b6000610fdc82610fb4565b610ff85760405162461bcd60e51b815260040161045c9061232d565b600061100383610a4d565b9050806001600160a01b0316846001600160a01b0316148061103e5750836001600160a01b031661103384610435565b6001600160a01b0316145b8061104e575061104e8185610e69565b949350505050565b826001600160a01b031661106982610a4d565b6001600160a01b03161461108f5760405162461bcd60e51b815260040161045c9061231d565b6001600160a01b0382166110b55760405162461bcd60e51b815260040161045c9061235d565b6110be816117f6565b6001600160a01b03831660009081526005602052604090206110df90611831565b6001600160a01b038216600090815260056020526040902061110090611848565b60008181526003602052604080822080546001600160a01b0319166001600160a01b0386811691821790925591518493918716917fddf252ad1be2c89b69c2b068fc378daa952ba7f163c4a11628f55a4df523b3ef91a4505050565b60008282018381101561098f5760405162461bcd60e51b815260040161045c906122bd565b61118b8383611851565b6111986000848484611918565b6106675760405162461bcd60e51b815260040161045c9061237d565b6007546040516370a0823160e01b81526000916001600160a01b0316906370a08231906111e59086906004016121ca565b60206040518083038186803b1580156111fd57600080fd5b505afa158015611211573d6000803e3d6000fd5b505050506040513d601f19601f820116820180604052506112359190810190611ef4565b9050808211156112575760405162461bcd60e51b815260040161045c906122ad565b6007546040516323b872dd60e01b81526001600160a01b03909116906323b872dd9061128b9086903090879060040161221c565b602060405180830381600087803b1580156112a557600080fd5b505af11580156112b9573d6000803e3d6000fd5b505050506040513d601f19601f820116820180604052506112dd9190810190611e7c565b6106675760405162461bcd60e51b815260040161045c9061236d565b60008282111561131b5760405162461bcd60e51b815260040161045c9061230d565b50900390565b6000600b5460001415611335575080610399565b600061135e612710611352600b54866119d490919063ffffffff16565b9063ffffffff611a0e16565b600c54909150611374908263ffffffff61115c16565b600c5561098f838263ffffffff6112f916565b60085460405163ef693bed60e01b815230916001600160a01b03169063ef693bed906113b99084908690600401612244565b600060405180830381600087803b1580156113d357600080fd5b505af11580156113e7573d6000803e3d6000fd5b50506007546040516370a0823160e01b8152600093506001600160a01b0390911691506370a082319061141e9085906004016121ca565b60206040518083038186803b15801561143657600080fd5b505afa15801561144a573d6000803e3d6000fd5b505050506040513d601f19601f8201168201806040525061146e9190810190611ef4565b6007546040516323b872dd60e01b81529192506001600160a01b0316906323b872dd906114a39085908890869060040161221c565b602060405180830381600087803b1580156114bd57600080fd5b505af11580156114d1573d6000803e3d6000fd5b505050506040513d601f19601f820116820180604052506114f59190810190611e7c565b610d745760405162461bcd60e51b815260040161045c9061236d565b5490565b600854604051631280dc1f60e21b8152600091309183916001600160a01b031690634a03707c9061154c9085908890600401612244565b602060405180830381600087803b15801561156657600080fd5b505af115801561157a573d6000803e3d6000fd5b505050506040513d601f19601f8201168201806040525061159e9190810190611ef4565b6007546040516370a0823160e01b81529192506000916001600160a01b03909116906370a08231906115d49086906004016121ca565b60206040518083038186803b1580156115ec57600080fd5b505afa158015611600573d6000803e3d6000fd5b505050506040513d601f19601f820116820180604052506116249190810190611ef4565b6007546040516323b872dd60e01b81529192506001600160a01b0316906323b872dd906116599086908a90869060040161221c565b602060405180830381600087803b15801561167357600080fd5b505af1158015611687573d6000803e3d6000fd5b505050506040513d601f19601f820116820180604052506116ab9190810190611e7c565b6116c75760405162461bcd60e51b815260040161045c9061236d565b50949350505050565b6116db848484611056565b6116e784848484611918565b610d745760405162461bcd60e51b815260040161045c9061237d565b816001600160a01b031661171682610a4d565b6001600160a01b03161461173c5760405162461bcd60e51b815260040161045c9061231d565b611745816117f6565b6001600160a01b038216600090815260056020526040902061176690611831565b600081815260036020908152604080832080546001600160a01b031916905560029182905290912054600019600182161561010002011604156117ba5760008181526002602052604081206117ba91611aa5565b60405181906000906001600160a01b038516907fddf252ad1be2c89b69c2b068fc378daa952ba7f163c4a11628f55a4df523b3ef908390a45050565b6000818152600460205260409020546001600160a01b031615610a4157600090815260046020526040902080546001600160a01b0319169055565b805461184490600163ffffffff6112f916565b9055565b80546001019055565b6001600160a01b0382166118775760405162461bcd60e51b815260040161045c9061235d565b61188081610fb4565b1561189d5760405162461bcd60e51b815260040161045c9061233d565b600081815260036020908152604080832080546001600160a01b0319166001600160a01b0387169081179091558352600590915290206118dc90611848565b60405181906001600160a01b038416906000907fddf252ad1be2c89b69c2b068fc378daa952ba7f163c4a11628f55a4df523b3ef908290a45050565b600061192384611a37565b61192f5750600161104e565b604051630a85bd0160e11b81526000906001600160a01b0386169063150b7a02906119649033908a90899089906004016121d8565b602060405180830381600087803b15801561197e57600080fd5b505af1158015611992573d6000803e3d6000fd5b505050506040513d601f19601f820116820180604052506119b69190810190611eb8565b6001600160e01b031916630a85bd0160e11b14915050949350505050565b6000826119e357506000610a82565b828202828482816119f057fe5b041461098f5760405162461bcd60e51b815260040161045c9061234d565b600061098f838360405180604001604052806004815260200163114c8c0d60e21b815250611a6e565b6000813f801580159061098f57507fc5d2460186f7233c927e7db2dcc703c0e500b653ca82273b7bfad8045d85a470141592915050565b60008183611a8f5760405162461bcd60e51b815260040161045c919061228c565b506000838581611a9b57fe5b0495945050505050565b50805460018160011615610100020316600290046000825580601f10611acb5750610a41565b6000918252602091829020610a419261043292601f01048101905b80821115611afa5760008155600101611ae6565b5090565b8035610a82816124b0565b600082601f830112611b1a57600080fd5b8135611b2d611b28826123c2565b61239b565b91508181835260208401935060208101905083856020840282011115611b5257600080fd5b60005b83811015611b7e5781611b688882611c03565b8452506020928301929190910190600101611b55565b5050505092915050565b8035610a82816124c4565b8051610a82816124c4565b8035610a82816124cd565b8051610a82816124cd565b600082601f830112611bc557600080fd5b8135611bd3611b28826123e3565b91508082526020830160208301858383011115611bef57600080fd5b611bfa83828461246e565b50505092915050565b8035610a82816124d6565b8051610a82816124d6565b600060208284031215611c2b57600080fd5b600061104e8484611afe565b60008060408385031215611c4a57600080fd5b6000611c568585611afe565b9250506020611c6785828601611afe565b9150509250929050565b600080600060608486031215611c8657600080fd5b6000611c928686611afe565b9350506020611ca386828701611afe565b9250506040611cb486828701611c03565b9150509250925092565b60008060008060808587031215611cd457600080fd5b6000611ce08787611afe565b9450506020611cf187828801611afe565b9350506040611d0287828801611c03565b925050606085013567ffffffffffffffff811115611d1f57600080fd5b611d2b87828801611bb4565b91505092959194509250565b60008060008060808587031215611d4d57600080fd5b6000611d598787611afe565b9450506020611d6a87828801611afe565b9350506040611d7b87828801611c03565b9250506060611d2b87828801611c03565b60008060408385031215611d9f57600080fd5b6000611dab8585611afe565b9250506020611c6785828601611b88565b60008060408385031215611dcf57600080fd5b6000611ddb8585611afe565b9250506020611c6785828601611c03565b600080600060608486031215611e0157600080fd5b6000611e0d8686611afe565b9350506020611e1e86828701611c03565b925050604084013567ffffffffffffffff811115611e3b57600080fd5b611cb486828701611bb4565b600060208284031215611e5957600080fd5b813567ffffffffffffffff811115611e7057600080fd5b61104e84828501611b09565b600060208284031215611e8e57600080fd5b600061104e8484611b93565b600060208284031215611eac57600080fd5b600061104e8484611b9e565b600060208284031215611eca57600080fd5b600061104e8484611ba9565b600060208284031215611ee857600080fd5b600061104e8484611c03565b600060208284031215611f0657600080fd5b600061104e8484611c0e565b6000611f1e83836121c1565b505060200190565b611f2f8161245d565b82525050565b611f2f8161241e565b6000611f4982612411565b611f538185612415565b9350611f5e8361240b565b8060005b83811015611f8c578151611f768882611f12565b9750611f818361240b565b925050600101611f62565b509495945050505050565b611f2f81612429565b611f2f8161242e565b6000611fb482612411565b611fbe8185612415565b9350611fce81856020860161247a565b611fd7816124a6565b9093019392505050565b6000611fee600483612415565b632298981960e11b815260200192915050565b600061200e600483612415565b63114d0c0d60e21b815260200192915050565b600061202e600483612415565b632299181960e11b815260200192915050565b600061204e600483612415565b634531303160e01b815260200192915050565b600061206e600483612415565b634531303360e01b815260200192915050565b600061208e600483612415565b634534303360e01b815260200192915050565b60006120ae600483612415565b63229a181960e11b815260200192915050565b60006120ce600483612415565b634532303160e01b815260200192915050565b60006120ee600483612415565b63114ccc0d60e21b815260200192915050565b600061210e600483612415565b634533303360e01b815260200192915050565b600061212e600483612415565b634533303560e01b815260200192915050565b600061214e600483612415565b634532303360e01b815260200192915050565b600061216e600483612415565b634533303160e01b815260200192915050565b600061218e600483612415565b634534303560e01b815260200192915050565b60006121ae600483612415565b632299981960e11b815260200192915050565b611f2f81610432565b60208101610a828284611f35565b608081016121e68287611f26565b6121f36020830186611f35565b61220060408301856121c1565b81810360608301526122128184611fa9565b9695505050505050565b6060810161222a8286611f35565b6122376020830185611f35565b61104e60408301846121c1565b604081016122528285611f35565b61098f60208301846121c1565b6020808252810161098f8184611f3e565b60208101610a828284611f97565b60208101610a828284611fa0565b6020808252810161098f8184611fa9565b60208082528101610a8281611fe1565b60208082528101610a8281612001565b60208082528101610a8281612021565b60208082528101610a8281612041565b60208082528101610a8281612061565b60208082528101610a8281612081565b60208082528101610a82816120a1565b60208082528101610a82816120c1565b60208082528101610a82816120e1565b60208082528101610a8281612101565b60208082528101610a8281612121565b60208082528101610a8281612141565b60208082528101610a8281612161565b60208082528101610a8281612181565b60208082528101610a82816121a1565b60208101610a8282846121c1565b60405181810167ffffffffffffffff811182821017156123ba57600080fd5b604052919050565b600067ffffffffffffffff8211156123d957600080fd5b5060209081020190565b600067ffffffffffffffff8211156123fa57600080fd5b506020601f91909101601f19160190565b60200190565b5190565b90815260200190565b6000610a8282612451565b151590565b6fffffffffffffffffffffffffffffffff191690565b6001600160e01b03191690565b6001600160a01b031690565b6000610a82826000610a828261241e565b82818337506000910152565b60005b8381101561249557818101518382015260200161247d565b83811115610d745750506000910152565b601f01601f191690565b6124b98161241e565b8114610a4157600080fd5b6124b981612429565b6124b981612444565b6124b98161043256fea365627a7a723158209569f8752761f8b69a16d8b25e39d35b39141175960f555f7dfff5efb053341b6c6578706572696d656e74616cf564736f6c634300050d0040",
  "source": "// ChargedParticlesERC721.sol -- Interest-bearing NFTs based on the DAI Savings Token\n// MIT License\n// Copyright (c) 2019, 2020 Rob Secord <robsecord.eth>\n//\n// Permission is hereby granted, free of chaarge, to any person obtaining a copy\n// of this software and associated documentation files (the \"Software\"), to deal\n// in the Software without restriction, including without limitation the rights\n// to use, copy, modify, merge, publish, distribute, sublicense, and/or sell\n// copies of the Software, and to permit persons to whom the Software is\n// furnished to do so, subject to the following conditions:\n//\n// The above copyright notice and this permission notice shall be included in all\n// copies or substantial portions of the Software.\n//\n// THE SOFTWARE IS PROVIDED \"AS IS\", WITHOUT WARRANTY OF ANY KIND, EXPRESS OR\n// IMPLIED, INCLUDING BUT NOT LIMITED TO THE WARRANTIES OF MERCHANTABILITY,\n// FITNESS FOR A PARTICULAR PURPOSE AND NONINFRINGEMENT. IN NO EVENT SHALL THE\n// AUTHORS OR COPYRIGHT HOLDERS BE LIABLE FOR ANY CLAIM, DAMAGES OR OTHER\n// LIABILITY, WHETHER IN AN ACTION OF CONTRACT, TORT OR OTHERWISE, ARISING FROM,\n// OUT OF OR IN CONNECTION WITH THE SOFTWARE OR THE USE OR OTHER DEALINGS IN THE\n// SOFTWARE.\n\npragma solidity ^0.5.13;\npragma experimental ABIEncoderV2;\n\n// ERROR CODES:\n//  100:        ADDRESS, OWNER, OPERATOR\n//      101         Invalid Address\n//      102         Sender is not owner\n//      103         Sender is not operator\n//  200:        MATH\n//      201         Underflow\n//      202         Overflow\n//      203         Multiplication overflow\n//      204         Division by zero\n//  300:        ERC721\n//      301         Invalid Recipient\n//      302         Invalid on-received message\n//      303         Invalid tokenId\n//      304         Invalid owner/operator\n//      305         Token ID already exists\n//  400:        ChargedParticles\n//      401         Invalid Method\n//      402         Unregistered Type\n//      403         Particle has no Charge\n//      404         Insufficient DAI Balance\n//      405         Transfer Failed\n\n/**\n * @title Chai.money interface\n * @dev see https://github.com/dapphub/chai\n */\ncontract IChai {\n    function transfer(address dst, uint wad) external returns (bool);\n    // like transferFrom but dai-denominated\n    function move(address src, address dst, uint wad) external returns (bool);\n    function transferFrom(address src, address dst, uint wad) public returns (bool);\n    function approve(address usr, uint wad) external returns (bool);\n    function balanceOf(address usr) external returns (uint);\n\n    // Approve by signature\n    function permit(address holder, address spender, uint256 nonce, uint256 expiry, bool allowed, uint8 v, bytes32 r, bytes32 s) external;\n\n    function dai(address usr) external returns (uint wad);\n    function dai(uint chai) external returns (uint wad);\n\n    // wad is denominated in dai\n    function join(address dst, uint wad) external;\n\n    // wad is denominated in (1/chi) * dai\n    function exit(address src, uint wad) public;\n\n    // wad is denominated in dai\n    function draw(address src, uint wad) external returns (uint chai);\n}\n\n/**\n * @title ERC165\n * @dev see https://github.com/ethereum/EIPs/blob/master/EIPS/eip-165.md\n */\ninterface IERC165 {\n    function supportsInterface(bytes4 _interfaceId) external view returns (bool);\n}\n\n/**\n * @title ERC20 interface\n * @dev see https://eips.ethereum.org/EIPS/eip-20\n */\ninterface IERC20 {\n    function transfer(address to, uint256 value) external returns (bool);\n    function approve(address spender, uint256 value) external returns (bool);\n    function transferFrom(address from, address to, uint256 value) external returns (bool);\n    function totalSupply() external view returns (uint256);\n    function balanceOf(address who) external view returns (uint256);\n    function allowance(address owner, address spender) external view returns (uint256);\n    event Transfer(address indexed from, address indexed to, uint256 value);\n    event Approval(address indexed owner, address indexed spender, uint256 value);\n}\n\n/**\n * @title ERC721 interface\n * @dev see https://eips.ethereum.org/EIPS/eip-721\n */\ncontract IERC721 {\n    function balanceOf(address owner) public view returns (uint256 balance);\n    function ownerOf(uint256 tokenId) public view returns (address owner);\n    function safeTransferFrom(address from, address to, uint256 tokenId) public;\n    function safeTransferFrom(address from, address to, uint256 tokenId, bytes memory data) public;\n    function transferFrom(address from, address to, uint256 tokenId) public;\n    function approve(address to, uint256 tokenId) public;\n    function getApproved(uint256 tokenId) public view returns (address operator);\n    function setApprovalForAll(address operator, bool approved) public;\n    function isApprovedForAll(address owner, address operator) public view returns (bool);\n    event Transfer(address indexed from, address indexed to, uint256 indexed tokenId);\n    event Approval(address indexed owner, address indexed approved, uint256 indexed tokenId);\n    event ApprovalForAll(address indexed owner, address indexed operator, bool approved);\n}\n\n/**\n * @dev ERC721 token receiver interface for accepting safe transfers.\n */\ncontract IERC721Receiver {\n    function onERC721Received(address operator, address from, uint256 tokenId, bytes memory data) public returns (bytes4);\n}\n\n/**\n * @title SafeMath\n * @dev Unsigned math operations with safety checks that revert on error\n */\nlibrary SafeMath {\n    function sub(uint256 a, uint256 b) internal pure returns (uint256) {\n        require(b <= a, \"E201\");\n        uint256 c = a - b;\n        return c;\n    }\n\n    function add(uint256 a, uint256 b) internal pure returns (uint256) {\n        uint256 c = a + b;\n        require(c >= a, \"E202\");\n        return c;\n    }\n\n    function mul(uint256 a, uint256 b) internal pure returns (uint256) {\n        if (a == 0) { return 0; }\n        uint256 c = a * b;\n        require(c / a == b, \"E203\");\n        return c;\n    }\n\n    function div(uint256 a, uint256 b) internal pure returns (uint256) {\n        return div(a, b, \"E204\");\n    }\n\n    function div(uint256 a, uint256 b, string memory errorMessage) internal pure returns (uint256) {\n        require(b > 0, errorMessage);\n        uint256 c = a / b;\n        return c;\n    }\n}\n\n/**\n * @title Counters\n * @author Matt Condon (@shrugs)\n * @dev Provides counters that can only be incremented or decremented by one.\n * This can be used e.g. to track the number of elements in a mapping, issuing ERC721 ids, or counting request ids.\n */\nlibrary Counters {\n    using SafeMath for uint256;\n\n    struct Counter {\n        // This variable should never be directly accessed by users of the library: interactions must be restricted to\n        // the library's function. As of Solidity v0.5.2, this cannot be enforced, though there is a proposal to add\n        // this feature: see https://github.com/ethereum/solidity/issues/4637\n        uint256 _value; // default: 0\n    }\n\n    function current(Counter storage counter) internal view returns (uint256) {\n        return counter._value;\n    }\n\n    function increment(Counter storage counter) internal {\n        counter._value += 1;\n    }\n\n    function decrement(Counter storage counter) internal {\n        counter._value = counter._value.sub(1);\n    }\n}\n\n/**\n * @title Implementation of ERC721 Non-Fungible Token Standard\n * @dev see node_modules/openzeppelin-solidity/contracts/token/ERC721/ERC721.sol\n */\ncontract ERC721 is IERC165, IERC721 {\n    using Counters for Counters.Counter;\n\n    bytes4 constant internal INTERFACE_SIGNATURE_ERC165 = 0x01ffc9a7;\n    bytes4 private constant INTERFACE_SIGNATURE_ERC721 = 0x80ac58cd;\n    bytes4 private constant INTERFACE_SIGNATURE_ERC721_METADATA = 0x5b5e139f;\n    bytes4 private constant _ERC721_RECEIVED = 0x150b7a02;\n    bytes32 constant internal ACCOUNT_HASH = 0xc5d2460186f7233c927e7db2dcc703c0e500b653ca82273b7bfad8045d85a470;\n\n    string private _name;\n    string private _symbol;\n    mapping (uint256 => string) private _tokenURIs;\n    mapping (uint256 => address) private _tokenOwner;\n    mapping (uint256 => address) private _tokenApprovals;\n    mapping (address => Counters.Counter) private _ownedTokensCount;\n    mapping (address => mapping (address => bool)) private _operatorApprovals;\n\n\n    constructor (string memory name, string memory symbol) public {\n        _name = name;\n        _symbol = symbol;\n    }\n\n    function name() external view returns (string memory) {\n        return _name;\n    }\n\n    function symbol() external view returns (string memory) {\n        return _symbol;\n    }\n\n    function tokenURI(uint256 tokenId) external view returns (string memory) {\n        require(_exists(tokenId), \"E303\");\n        return _tokenURIs[tokenId];\n    }\n\n    function supportsInterface(bytes4 _interfaceID) external view returns (bool) {\n        if (_interfaceID == INTERFACE_SIGNATURE_ERC165 ||\n            _interfaceID == INTERFACE_SIGNATURE_ERC721 ||\n            _interfaceID == INTERFACE_SIGNATURE_ERC721_METADATA) {\n            return true;\n        }\n        return false;\n    }\n\n    function balanceOf(address owner) public view returns (uint256) {\n        require(owner != address(0), \"E101\");\n        return _ownedTokensCount[owner].current();\n    }\n\n    function ownerOf(uint256 tokenId) public view returns (address) {\n        address owner = _tokenOwner[tokenId];\n        require(owner != address(0), \"E303\");\n        return owner;\n    }\n\n    function approve(address to, uint256 tokenId) public {\n        address owner = ownerOf(tokenId);\n        require(to != owner, \"E301\");\n\n        require(msg.sender == owner || isApprovedForAll(owner, msg.sender), \"E304\");\n\n        _tokenApprovals[tokenId] = to;\n        emit Approval(owner, to, tokenId);\n    }\n\n    function getApproved(uint256 tokenId) public view returns (address) {\n        require(_exists(tokenId), \"E303\");\n        return _tokenApprovals[tokenId];\n    }\n\n    function setApprovalForAll(address to, bool approved) public {\n        require(to != msg.sender, \"E301\");\n        _operatorApprovals[msg.sender][to] = approved;\n        emit ApprovalForAll(msg.sender, to, approved);\n    }\n\n    function isApprovedForAll(address owner, address operator) public view returns (bool) {\n        return _operatorApprovals[owner][operator];\n    }\n\n    function transferFrom(address from, address to, uint256 tokenId) public {\n        require(_isApprovedOrOwner(msg.sender, tokenId), \"E304\");\n        _transferFrom(from, to, tokenId);\n    }\n\n    function safeTransferFrom(address from, address to, uint256 tokenId) public {\n        safeTransferFrom(from, to, tokenId, \"\");\n    }\n\n    function safeTransferFrom(address from, address to, uint256 tokenId, bytes memory _data) public {\n        require(_isApprovedOrOwner(msg.sender, tokenId), \"E304\");\n        _safeTransferFrom(from, to, tokenId, _data);\n    }\n\n    function _safeTransferFrom(address from, address to, uint256 tokenId, bytes memory _data) internal {\n        _transferFrom(from, to, tokenId);\n        require(_checkOnERC721Received(from, to, tokenId, _data), \"E302\");\n    }\n\n    function _exists(uint256 tokenId) internal view returns (bool) {\n        address owner = _tokenOwner[tokenId];\n        return owner != address(0);\n    }\n\n    function _isApprovedOrOwner(address spender, uint256 tokenId) internal view returns (bool) {\n        require(_exists(tokenId), \"E303\");\n        address owner = ownerOf(tokenId);\n        return (spender == owner || getApproved(tokenId) == spender || isApprovedForAll(owner, spender));\n    }\n\n    function _safeMint(address to, uint256 tokenId, bytes memory _data) internal {\n        _mint(to, tokenId);\n        require(_checkOnERC721Received(address(0), to, tokenId, _data), \"E302\");\n    }\n\n    function _mint(address to, uint256 tokenId) internal {\n        require(to != address(0), \"E301\");\n        require(!_exists(tokenId), \"E305\");\n\n        _tokenOwner[tokenId] = to;\n        _ownedTokensCount[to].increment();\n\n        emit Transfer(address(0), to, tokenId);\n    }\n\n    function _burn(address owner, uint256 tokenId) internal {\n        require(ownerOf(tokenId) == owner, \"E304\");\n\n        _clearApproval(tokenId);\n\n        _ownedTokensCount[owner].decrement();\n        _tokenOwner[tokenId] = address(0);\n\n        // Clear metadata (if any)\n        if (bytes(_tokenURIs[tokenId]).length != 0) {\n            delete _tokenURIs[tokenId];\n        }\n\n        emit Transfer(owner, address(0), tokenId);\n    }\n\n    function _transferFrom(address from, address to, uint256 tokenId) internal {\n        require(ownerOf(tokenId) == from, \"E304\");\n        require(to != address(0), \"E301\");\n\n        _clearApproval(tokenId);\n\n        _ownedTokensCount[from].decrement();\n        _ownedTokensCount[to].increment();\n\n        _tokenOwner[tokenId] = to;\n\n        emit Transfer(from, to, tokenId);\n    }\n\n    function _checkOnERC721Received(address from, address to, uint256 tokenId, bytes memory _data)\n    internal returns (bool)\n    {\n        if (!_isContract(to)) {\n            return true;\n        }\n\n        bytes4 retval = IERC721Receiver(to).onERC721Received(msg.sender, from, tokenId, _data);\n        return (retval == _ERC721_RECEIVED);\n    }\n\n    function _clearApproval(uint256 tokenId) private {\n        if (_tokenApprovals[tokenId] != address(0)) {\n            _tokenApprovals[tokenId] = address(0);\n        }\n    }\n\n    function _setTokenURI(uint256 tokenId, string memory uri) internal {\n        require(_exists(tokenId), \"E303\");\n        _tokenURIs[tokenId] = uri;\n    }\n\n    function _isContract(address _address) internal view returns (bool) {\n        bytes32 codehash;\n        assembly { codehash := extcodehash(_address) }\n        return (codehash != 0x0 && codehash != ACCOUNT_HASH);\n    }\n}\n\n\n/**\n * @notice Charged Particles Contract - Interest-Bearing NFTs\n *  -- ERC-721 Edition\n */\ncontract ChargedParticlesERC721 is ERC721 {\n    using SafeMath for uint256;\n\n    /***********************************|\n    |        Variables and Events       |\n    |__________________________________*/\n\n    IERC20 internal dai;\n    IChai internal chai;\n\n    mapping(uint256 => uint256) internal chaiBalanceByTokenId;    // Amount of Chai minted from Dai deposited\n\n    uint256 internal totalMintedTokens;\n    uint256 internal mintFee;\n    uint256 internal collectedFees;\n    uint256 internal requiredFunding;   // Amount of Dai to deposit when minting\n\n    address private owner; // To be assigned to a DAO\n\n    bytes16 public version = \"v0.0.3\";\n\n    event OwnershipTransferred(address indexed previousOwner, address indexed newOwner);\n\n    /***********************************|\n    |             Modifiers             |\n    |__________________________________*/\n\n    /**\n     * @dev Throws if called by any account other than the owner.\n     */\n    modifier onlyOwner() {\n        require(msg.sender == owner, \"E102\");\n        _;\n    }\n\n    /***********************************|\n    |          Initialization           |\n    |__________________________________*/\n\n    constructor() ERC721(\"ChargedParticles\", \"IONS\") public {\n//        requiredFunding = 1e18;\n//        mintFee = 50;    //  0.5% of Chai from deposited Dai\n\n        owner = msg.sender;\n        emit OwnershipTransferred(address(0), owner);\n    }\n\n    /***********************************|\n    |            Public Read            |\n    |__________________________________*/\n\n    /**\n     * @notice Gets the address of the contract owner.\n     * @return The address of the owner\n     */\n    function getContractOwner() public view returns (address) {\n        return owner;\n    }\n\n    /***********************************|\n    |         Particle Physics          |\n    |__________________________________*/\n\n    /**\n     * @notice Gets the Amount of Base DAI held in the Token (amount token was minted with)\n     * @return  The Amount of DAI held in the Token\n     */\n    function baseParticleMass() public view returns (uint256) {\n        return requiredFunding;\n    }\n\n    /**\n     * @notice Gets the amount of interest the Token has generated (it's accumulated particle-charge)\n     * @param _tokenId      The ID of the Token\n     * @return  The amount of interest the Token has generated\n     */\n    function currentParticleCharge(uint256 _tokenId) public returns (uint256) {\n        require(_exists(_tokenId), \"E402\");\n\n        uint256 currentCharge = chai.dai(chaiBalanceByTokenId[_tokenId]);\n        if (requiredFunding >= currentCharge) { return 0; }\n        return currentCharge.sub(requiredFunding);\n    }\n\n    /**\n     * @notice Allows the owner of the Token to collect the interest generated from the token\n     *  without removing the underlying DAI that is held in the token\n     * @param _tokenId      The ID of the Token\n     * @return  The amount of interest released from the token\n     */\n    function dischargeParticle(uint256 _tokenId) public returns (uint256) {\n        require(_isApprovedOrOwner(msg.sender, _tokenId), \"E103\");\n\n        uint256 _currentChargeInDai = currentParticleCharge(_tokenId);\n        require(_currentChargeInDai > 0, \"E403\");\n\n        uint256 _paidChai = _payoutChargedDai(msg.sender, _currentChargeInDai);\n        chaiBalanceByTokenId[_tokenId] = chaiBalanceByTokenId[_tokenId].sub(_paidChai);\n\n        return _currentChargeInDai;\n    }\n\n\n    /***********************************|\n    |            Public Mint            |\n    |__________________________________*/\n\n    /**\n     * @notice Mints multiple new Particles\n     * @param _to       The owner address to assign the new tokens to\n     * @param _amount   The amount of tokens to mint\n     * @param _data     Custom data used for transferring tokens into contracts\n     * @return  The IDs of the newly minted tokens\n     */\n    function mintParticles(address _to, uint256 _amount, bytes memory _data) public returns (uint256[] memory) {\n        address _self = address(this);\n        uint256 i;\n        uint256 _tokenId;\n        uint256 _totalDai;\n        uint256[] memory _tokenIds = new uint256[](_amount);\n\n        for (i = 0; i < _amount; ++i) {\n            _totalDai = requiredFunding.add(_totalDai);\n\n            _tokenId = (totalMintedTokens.add(i+1));\n            _tokenIds[i] = _tokenId;\n            _safeMint(_to, _tokenId, _data);\n        }\n        totalMintedTokens = totalMintedTokens.add(_amount);\n\n        if (_totalDai > 0) {\n            // Transfer DAI from User to Contract\n            _collectRequiredDai(msg.sender, _totalDai);\n\n            uint256 _balance = chai.balanceOf(_self);\n            for (i = 0; i < _amount; ++i) {\n                _tokenId = _tokenIds[i];\n\n                // Tokenize Interest\n                chai.join(_self, requiredFunding);\n\n                // Track Chai in each Token\n                 chaiBalanceByTokenId[_tokenId] = _totalChaiForToken(chai.balanceOf(_self).sub(_balance));\n                _balance = chai.balanceOf(_self);\n            }\n        }\n        return _tokenIds;\n    }\n\n    /***********************************|\n    |            Public Burn            |\n    |__________________________________*/\n\n    /**\n     * @notice Destroys a Particle and releases the underlying DAI + Interest (Mass + Charge)\n     * @param _tokenId      The ID of the token to burn\n     */\n    function burnParticle(uint256 _tokenId) public {\n        // Burn Token\n        _burn(msg.sender, _tokenId);\n\n        // Payout Dai + Interest\n        uint256 _tokenChai = chaiBalanceByTokenId[_tokenId];\n        chaiBalanceByTokenId[_tokenId] = 0;\n        _payoutFundedDai(msg.sender, _tokenChai);\n    }\n\n    /**\n     * @notice Destroys multiple Particles and releases the underlying DAI + Interest (Mass + Charge)\n     * @param _tokenIds     The IDs of the tokens to burn\n     */\n    function burnParticles(uint256[] memory _tokenIds) public {\n        uint256 _tokenId;\n        uint256 _totalChai;\n        for (uint256 i = 0; i < _tokenIds.length; ++i) {\n            _tokenId = _tokenIds[i];\n\n            // Burn Token\n            _burn(msg.sender, _tokenId);\n\n            // Payout Dai + Interest\n            _totalChai = chaiBalanceByTokenId[_tokenId].add(_totalChai);\n            chaiBalanceByTokenId[_tokenId] = 0;\n        }\n        _payoutFundedDai(msg.sender, _totalChai);\n    }\n\n    /***********************************|\n    |            Only Owner             |\n    |__________________________________*/\n\n    /**\n     * @dev Setup the DAI/CHAI contracts and configure the contract\n     */\n    function setup(address _daiAddress, address _chaiAddress, uint256 _mintFee, uint256 _requiredFunding) public onlyOwner {\n        // Set DAI as Funding Token\n        dai = IERC20(_daiAddress);\n        chai = IChai(_chaiAddress);\n\n        // Setup Chai to Tokenize DAI Interest\n        dai.approve(_chaiAddress, uint(-1));\n\n        mintFee = _mintFee;\n        requiredFunding = _requiredFunding;\n    }\n\n    /**\n     * @dev Allows contract owner to withdraw any fees earned\n     */\n    function withdrawFees() public onlyOwner {\n        uint256 _balance = address(this).balance;\n        if (_balance > 0) {\n            msg.sender.transfer(_balance);\n        }\n        if (collectedFees > 0) {\n            _payoutFundedDai(msg.sender, collectedFees);\n            collectedFees = 0;\n        }\n    }\n\n    /**\n     * @notice Transfers the ownership of the contract to new address\n     * @param _newOwner Address of the new owner\n     */\n    function transferOwnership(address _newOwner) public onlyOwner {\n        require(_newOwner != address(0), \"E101\");\n        emit OwnershipTransferred(owner, _newOwner);\n        owner = _newOwner;\n    }\n\n    /***********************************|\n    |         Private Functions         |\n    |__________________________________*/\n\n    /**\n     * @dev Collects the Required DAI from the users wallet during Minting\n     * @param _from         The owner address to collect the DAI from\n     * @param _requiredDai  The amount of DAI to collect from the user\n     */\n    function _collectRequiredDai(address _from, uint256 _requiredDai) internal {\n        // Transfer DAI from User to Contract\n        uint256 _userDaiBalance = dai.balanceOf(_from);\n        require(_requiredDai <= _userDaiBalance, \"E404\");\n        require(dai.transferFrom(_from, address(this), _requiredDai), \"E405\");\n    }\n\n    /**\n     * @dev Pays out a specified amount of CHAI\n     * @param _to           The owner address to pay out to\n     * @param _totalChai    The total amount of CHAI to pay out\n     */\n    function _payoutFundedDai(address _to, uint256 _totalChai) internal {\n        address _self = address(this);\n\n        // Exit Chai and collect Dai + Interest\n        chai.exit(_self, _totalChai);\n\n        // Transfer Dai + Interest\n        uint256 _receivedDai = dai.balanceOf(_self);\n        require(dai.transferFrom(_self, _to, _receivedDai), \"E405\");\n    }\n\n    /**\n     * @dev Pays out a specified amount of DAI\n     * @param _to           The owner address to pay out to\n     * @param _totalDai     The total amount of DAI to pay out\n     */\n    function _payoutChargedDai(address _to, uint256 _totalDai) internal returns (uint256) {\n        address _self = address(this);\n\n        // Collect Interest\n        uint256 _chai = chai.draw(_self, _totalDai);\n\n        // Transfer Interest\n        uint256 _receivedDai = dai.balanceOf(_self);\n        require(dai.transferFrom(_self, _to, _receivedDai), \"E405\");\n        return _chai;\n    }\n\n    /**\n     * @dev Calculates the amount of DAI held within a token during minting\n     *      Note: Accounts for any contract fees\n     * @param _tokenChai    The total amount of DAI used to fund the token\n     * @return  The actual amount of DAI to fund the token - fees\n     */\n    function _totalChaiForToken(uint256 _tokenChai) internal returns (uint256) {\n        if (mintFee == 0) { return _tokenChai; }\n        uint256 _mintFee = _tokenChai.mul(mintFee).div(1e4);\n        collectedFees = collectedFees.add(_mintFee);\n        return _tokenChai.sub(_mintFee);\n    }\n}\n",
  "sourcePath": "/Users/robsecord/workspace/Ethereum/ChargedParticles/ChargedParticlesEth/contracts/ChargedParticlesERC721.sol",
  "compiler": {
    "name": "solc",
    "version": "0.5.13+commit.5b0b510c.Emscripten.clang"
  },
  "schemaVersion": "3.0.23",
  "updatedAt": "2020-02-03T04:50:58.013Z",
  "networkType": "ethereum",
  "devdoc": {
    "methods": {
      "baseParticleMass()": {
        "return": "The Amount of DAI held in the Token"
      },
      "burnParticle(uint256)": {
        "params": {
          "_tokenId": "The ID of the token to burn"
        }
      },
      "burnParticles(uint256[])": {
        "params": {
          "_tokenIds": "The IDs of the tokens to burn"
        }
      },
      "currentParticleCharge(uint256)": {
        "params": {
          "_tokenId": "The ID of the Token"
        },
        "return": "The amount of interest the Token has generated"
      },
      "dischargeParticle(uint256)": {
        "params": {
          "_tokenId": "The ID of the Token"
        },
        "return": "The amount of interest released from the token"
      },
      "getContractOwner()": {
        "return": "The address of the owner"
      },
      "mintParticles(address,uint256,bytes)": {
        "params": {
          "_amount": "The amount of tokens to mint",
          "_data": "Custom data used for transferring tokens into contracts",
          "_to": "The owner address to assign the new tokens to"
        },
        "return": "The IDs of the newly minted tokens"
      },
      "setup(address,address,uint256,uint256)": {
        "details": "Setup the DAI/CHAI contracts and configure the contract"
      },
      "transferOwnership(address)": {
        "params": {
          "_newOwner": "Address of the new owner"
        }
      },
      "withdrawFees()": {
        "details": "Allows contract owner to withdraw any fees earned"
      }
    }
  },
  "userdoc": {
    "methods": {
      "baseParticleMass()": {
        "notice": "Gets the Amount of Base DAI held in the Token (amount token was minted with)"
      },
      "burnParticle(uint256)": {
        "notice": "Destroys a Particle and releases the underlying DAI + Interest (Mass + Charge)"
      },
      "burnParticles(uint256[])": {
        "notice": "Destroys multiple Particles and releases the underlying DAI + Interest (Mass + Charge)"
      },
      "constructor": "*********************************| |          Initialization           | |__________________________________",
      "currentParticleCharge(uint256)": {
        "notice": "Gets the amount of interest the Token has generated (it's accumulated particle-charge)"
      },
      "dischargeParticle(uint256)": {
        "notice": "Allows the owner of the Token to collect the interest generated from the token without removing the underlying DAI that is held in the token"
      },
      "getContractOwner()": {
        "notice": "Gets the address of the contract owner."
      },
      "mintParticles(address,uint256,bytes)": {
        "notice": "Mints multiple new Particles"
      },
      "transferOwnership(address)": {
        "notice": "Transfers the ownership of the contract to new address"
      }
    },
    "notice": "Charged Particles Contract - Interest-Bearing NFTs -- ERC-721 Edition"
  }
}