{
  "contractName": "ChargedParticlesERC721",
  "abi": [
    {
      "inputs": [],
      "payable": false,
      "stateMutability": "nonpayable",
      "type": "constructor"
    },
    {
      "anonymous": false,
      "inputs": [
        {
          "indexed": true,
          "internalType": "address",
          "name": "owner",
          "type": "address"
        },
        {
          "indexed": true,
          "internalType": "address",
          "name": "approved",
          "type": "address"
        },
        {
          "indexed": true,
          "internalType": "uint256",
          "name": "tokenId",
          "type": "uint256"
        }
      ],
      "name": "Approval",
      "type": "event"
    },
    {
      "anonymous": false,
      "inputs": [
        {
          "indexed": true,
          "internalType": "address",
          "name": "owner",
          "type": "address"
        },
        {
          "indexed": true,
          "internalType": "address",
          "name": "operator",
          "type": "address"
        },
        {
          "indexed": false,
          "internalType": "bool",
          "name": "approved",
          "type": "bool"
        }
      ],
      "name": "ApprovalForAll",
      "type": "event"
    },
    {
      "anonymous": false,
      "inputs": [
        {
          "indexed": true,
          "internalType": "address",
          "name": "previousOwner",
          "type": "address"
        },
        {
          "indexed": true,
          "internalType": "address",
          "name": "newOwner",
          "type": "address"
        }
      ],
      "name": "OwnershipTransferred",
      "type": "event"
    },
    {
      "anonymous": false,
      "inputs": [
        {
          "indexed": true,
          "internalType": "address",
          "name": "from",
          "type": "address"
        },
        {
          "indexed": true,
          "internalType": "address",
          "name": "to",
          "type": "address"
        },
        {
          "indexed": true,
          "internalType": "uint256",
          "name": "tokenId",
          "type": "uint256"
        }
      ],
      "name": "Transfer",
      "type": "event"
    },
    {
      "constant": false,
      "inputs": [
        {
          "internalType": "address",
          "name": "to",
          "type": "address"
        },
        {
          "internalType": "uint256",
          "name": "tokenId",
          "type": "uint256"
        }
      ],
      "name": "approve",
      "outputs": [],
      "payable": false,
      "stateMutability": "nonpayable",
      "type": "function"
    },
    {
      "constant": true,
      "inputs": [
        {
          "internalType": "address",
          "name": "owner",
          "type": "address"
        }
      ],
      "name": "balanceOf",
      "outputs": [
        {
          "internalType": "uint256",
          "name": "",
          "type": "uint256"
        }
      ],
      "payable": false,
      "stateMutability": "view",
      "type": "function"
    },
    {
      "constant": true,
      "inputs": [
        {
          "internalType": "uint256",
          "name": "tokenId",
          "type": "uint256"
        }
      ],
      "name": "getApproved",
      "outputs": [
        {
          "internalType": "address",
          "name": "",
          "type": "address"
        }
      ],
      "payable": false,
      "stateMutability": "view",
      "type": "function"
    },
    {
      "constant": true,
      "inputs": [
        {
          "internalType": "address",
          "name": "owner",
          "type": "address"
        },
        {
          "internalType": "address",
          "name": "operator",
          "type": "address"
        }
      ],
      "name": "isApprovedForAll",
      "outputs": [
        {
          "internalType": "bool",
          "name": "",
          "type": "bool"
        }
      ],
      "payable": false,
      "stateMutability": "view",
      "type": "function"
    },
    {
      "constant": true,
      "inputs": [],
      "name": "name",
      "outputs": [
        {
          "internalType": "string",
          "name": "",
          "type": "string"
        }
      ],
      "payable": false,
      "stateMutability": "view",
      "type": "function"
    },
    {
      "constant": true,
      "inputs": [
        {
          "internalType": "uint256",
          "name": "tokenId",
          "type": "uint256"
        }
      ],
      "name": "ownerOf",
      "outputs": [
        {
          "internalType": "address",
          "name": "",
          "type": "address"
        }
      ],
      "payable": false,
      "stateMutability": "view",
      "type": "function"
    },
    {
      "constant": false,
      "inputs": [
        {
          "internalType": "address",
          "name": "from",
          "type": "address"
        },
        {
          "internalType": "address",
          "name": "to",
          "type": "address"
        },
        {
          "internalType": "uint256",
          "name": "tokenId",
          "type": "uint256"
        }
      ],
      "name": "safeTransferFrom",
      "outputs": [],
      "payable": false,
      "stateMutability": "nonpayable",
      "type": "function"
    },
    {
      "constant": false,
      "inputs": [
        {
          "internalType": "address",
          "name": "from",
          "type": "address"
        },
        {
          "internalType": "address",
          "name": "to",
          "type": "address"
        },
        {
          "internalType": "uint256",
          "name": "tokenId",
          "type": "uint256"
        },
        {
          "internalType": "bytes",
          "name": "_data",
          "type": "bytes"
        }
      ],
      "name": "safeTransferFrom",
      "outputs": [],
      "payable": false,
      "stateMutability": "nonpayable",
      "type": "function"
    },
    {
      "constant": false,
      "inputs": [
        {
          "internalType": "address",
          "name": "to",
          "type": "address"
        },
        {
          "internalType": "bool",
          "name": "approved",
          "type": "bool"
        }
      ],
      "name": "setApprovalForAll",
      "outputs": [],
      "payable": false,
      "stateMutability": "nonpayable",
      "type": "function"
    },
    {
      "constant": true,
      "inputs": [
        {
          "internalType": "bytes4",
          "name": "_interfaceID",
          "type": "bytes4"
        }
      ],
      "name": "supportsInterface",
      "outputs": [
        {
          "internalType": "bool",
          "name": "",
          "type": "bool"
        }
      ],
      "payable": false,
      "stateMutability": "view",
      "type": "function"
    },
    {
      "constant": true,
      "inputs": [],
      "name": "symbol",
      "outputs": [
        {
          "internalType": "string",
          "name": "",
          "type": "string"
        }
      ],
      "payable": false,
      "stateMutability": "view",
      "type": "function"
    },
    {
      "constant": true,
      "inputs": [
        {
          "internalType": "uint256",
          "name": "tokenId",
          "type": "uint256"
        }
      ],
      "name": "tokenURI",
      "outputs": [
        {
          "internalType": "string",
          "name": "",
          "type": "string"
        }
      ],
      "payable": false,
      "stateMutability": "view",
      "type": "function"
    },
    {
      "constant": false,
      "inputs": [
        {
          "internalType": "address",
          "name": "from",
          "type": "address"
        },
        {
          "internalType": "address",
          "name": "to",
          "type": "address"
        },
        {
          "internalType": "uint256",
          "name": "tokenId",
          "type": "uint256"
        }
      ],
      "name": "transferFrom",
      "outputs": [],
      "payable": false,
      "stateMutability": "nonpayable",
      "type": "function"
    },
    {
      "constant": true,
      "inputs": [],
      "name": "getContractOwner",
      "outputs": [
        {
          "internalType": "address",
          "name": "",
          "type": "address"
        }
      ],
      "payable": false,
      "stateMutability": "view",
      "type": "function"
    },
    {
      "constant": true,
      "inputs": [],
      "name": "baseParticleMass",
      "outputs": [
        {
          "internalType": "uint256",
          "name": "",
          "type": "uint256"
        }
      ],
      "payable": false,
      "stateMutability": "view",
      "type": "function"
    },
    {
      "constant": false,
      "inputs": [
        {
          "internalType": "uint256",
          "name": "_tokenId",
          "type": "uint256"
        }
      ],
      "name": "currentParticleCharge",
      "outputs": [
        {
          "internalType": "uint256",
          "name": "",
          "type": "uint256"
        }
      ],
      "payable": false,
      "stateMutability": "nonpayable",
      "type": "function"
    },
    {
      "constant": false,
      "inputs": [
        {
          "internalType": "uint256",
          "name": "_tokenId",
          "type": "uint256"
        }
      ],
      "name": "dischargeParticle",
      "outputs": [
        {
          "internalType": "uint256",
          "name": "",
          "type": "uint256"
        }
      ],
      "payable": false,
      "stateMutability": "nonpayable",
      "type": "function"
    },
    {
      "constant": false,
      "inputs": [
        {
          "internalType": "address",
          "name": "_to",
          "type": "address"
        },
        {
          "internalType": "uint256",
          "name": "_amount",
          "type": "uint256"
        },
        {
          "internalType": "bytes",
          "name": "_data",
          "type": "bytes"
        }
      ],
      "name": "mintParticles",
      "outputs": [
        {
          "internalType": "uint256[]",
          "name": "",
          "type": "uint256[]"
        }
      ],
      "payable": false,
      "stateMutability": "nonpayable",
      "type": "function"
    },
    {
      "constant": false,
      "inputs": [
        {
          "internalType": "uint256",
          "name": "_tokenId",
          "type": "uint256"
        }
      ],
      "name": "burnParticle",
      "outputs": [],
      "payable": false,
      "stateMutability": "nonpayable",
      "type": "function"
    },
    {
      "constant": false,
      "inputs": [
        {
          "internalType": "uint256[]",
          "name": "_tokenIds",
          "type": "uint256[]"
        }
      ],
      "name": "burnParticles",
      "outputs": [],
      "payable": false,
      "stateMutability": "nonpayable",
      "type": "function"
    },
    {
      "constant": false,
      "inputs": [
        {
          "internalType": "address",
          "name": "_daiAddress",
          "type": "address"
        },
        {
          "internalType": "address",
          "name": "_chaiAddress",
          "type": "address"
        },
        {
          "internalType": "uint256",
          "name": "_mintFee",
          "type": "uint256"
        },
        {
          "internalType": "uint256",
          "name": "_requiredFunding",
          "type": "uint256"
        }
      ],
      "name": "setup",
      "outputs": [],
      "payable": false,
      "stateMutability": "nonpayable",
      "type": "function"
    },
    {
      "constant": false,
      "inputs": [],
      "name": "withdrawFees",
      "outputs": [],
      "payable": false,
      "stateMutability": "nonpayable",
      "type": "function"
    },
    {
      "constant": false,
      "inputs": [
        {
          "internalType": "address",
          "name": "_newOwner",
          "type": "address"
        }
      ],
      "name": "transferOwnership",
      "outputs": [],
      "payable": false,
      "stateMutability": "nonpayable",
      "type": "function"
    }
  ],
  "bytecode": "0x60806040523480156200001157600080fd5b506040518060400160405280601081526020017f436861726765645061727469636c6573000000000000000000000000000000008152506040518060400160405280600481526020017f494f4e530000000000000000000000000000000000000000000000000000000081525081600090805190602001906200009692919062000176565b508060019080519060200190620000af92919062000176565b50505033600e60006101000a81548173ffffffffffffffffffffffffffffffffffffffff021916908373ffffffffffffffffffffffffffffffffffffffff160217905550600e60009054906101000a900473ffffffffffffffffffffffffffffffffffffffff1673ffffffffffffffffffffffffffffffffffffffff16600073ffffffffffffffffffffffffffffffffffffffff167f8be0079c531659141344cd1fd0a4f28419497f9722a3daafe3b4186f6b6457e060405160405180910390a362000225565b828054600181600116156101000203166002900490600052602060002090601f016020900481019282601f10620001b957805160ff1916838001178555620001ea565b82800160010185558215620001ea579182015b82811115620001e9578251825591602001919060010190620001cc565b5b509050620001f99190620001fd565b5090565b6200022291905b808211156200021e57600081600090555060010162000204565b5090565b90565b613b0d80620002356000396000f3fe608060405234801561001057600080fd5b506004361061014d5760003560e01c80636352211e116100c3578063b88d4fde1161007c578063b88d4fde146103b0578063c87b56dd146103cc578063df84fe49146103fc578063e985e9c514610418578063f10fda5014610448578063f2fde38b146104645761014d565b80636352211e146102b657806370a08231146102e65780638c060bb71461031657806395b3ec211461034657806395d89b4114610376578063a22cb465146103945761014d565b806323b872dd1161011557806323b872dd14610208578063273db830146102245780633f2817b91461025457806342842e0e14610272578063442890d51461028e578063476343ee146102ac5761014d565b806301ffc9a71461015257806306fdde0314610182578063081812fc146101a0578063095ea7b3146101d057806316ecc686146101ec575b600080fd5b61016c60048036036101679190810190613027565b610480565b6040516101799190613667565b60405180910390f35b61018a610580565b6040516101979190613682565b60405180910390f35b6101ba60048036036101b59190810190613079565b610622565b6040516101c7919061357e565b60405180910390f35b6101ea60048036036101e59190810190612f1a565b6106a7565b005b61020660048036036102019190810190612e7b565b610854565b005b610222600480360361021d9190810190612db1565b610a50565b005b61023e60048036036102399190810190612f56565b610aa9565b60405161024b9190613645565b60405180910390f35b61025c610e72565b6040516102699190613864565b60405180910390f35b61028c60048036036102879190810190612db1565b610e7c565b005b610296610e9c565b6040516102a3919061357e565b60405180910390f35b6102b4610ec6565b005b6102d060048036036102cb9190810190613079565b610fe6565b6040516102dd919061357e565b60405180910390f35b61030060048036036102fb9190810190612d4c565b611098565b60405161030d9190613864565b60405180910390f35b610330600480360361032b9190810190613079565b611157565b60405161033d9190613864565b60405180910390f35b610360600480360361035b9190810190613079565b611237565b60405161036d9190613864565b60405180910390f35b61037e611376565b60405161038b9190613682565b60405180910390f35b6103ae60048036036103a99190810190612ede565b611418565b005b6103ca60048036036103c59190810190612e00565b611584565b005b6103e660048036036103e19190810190613079565b6115df565b6040516103f39190613682565b60405180910390f35b61041660048036036104119190810190613079565b6116dc565b005b610432600480360361042d9190810190612d75565b611725565b60405161043f9190613667565b60405180910390f35b610462600480360361045d9190810190612fbd565b6117b9565b005b61047e60048036036104799190810190612d4c565b611837565b005b60006301ffc9a760e01b7bffffffffffffffffffffffffffffffffffffffffffffffffffffffff1916827bffffffffffffffffffffffffffffffffffffffffffffffffffffffff1916148061051957506380ac58cd60e01b7bffffffffffffffffffffffffffffffffffffffffffffffffffffffff1916827bffffffffffffffffffffffffffffffffffffffffffffffffffffffff1916145b806105685750635b5e139f60e01b7bffffffffffffffffffffffffffffffffffffffffffffffffffffffff1916827bffffffffffffffffffffffffffffffffffffffffffffffffffffffff1916145b15610576576001905061057b565b600090505b919050565b606060008054600181600116156101000203166002900480601f0160208091040260200160405190810160405280929190818152602001828054600181600116156101000203166002900480156106185780601f106105ed57610100808354040283529160200191610618565b820191906000526020600020905b8154815290600101906020018083116105fb57829003601f168201915b5050505050905090565b600061062d826119f7565b61066c576040517f08c379a0000000000000000000000000000000000000000000000000000000008152600401610663906137c4565b60405180910390fd5b6004600083815260200190815260200160002060009054906101000a900473ffffffffffffffffffffffffffffffffffffffff169050919050565b60006106b282610fe6565b90508073ffffffffffffffffffffffffffffffffffffffff168373ffffffffffffffffffffffffffffffffffffffff161415610723576040517f08c379a000000000000000000000000000000000000000000000000000000000815260040161071a90613804565b60405180910390fd5b8073ffffffffffffffffffffffffffffffffffffffff163373ffffffffffffffffffffffffffffffffffffffff16148061076357506107628133611725565b5b6107a2576040517f08c379a0000000000000000000000000000000000000000000000000000000008152600401610799906137a4565b60405180910390fd5b826004600084815260200190815260200160002060006101000a81548173ffffffffffffffffffffffffffffffffffffffff021916908373ffffffffffffffffffffffffffffffffffffffff160217905550818373ffffffffffffffffffffffffffffffffffffffff168273ffffffffffffffffffffffffffffffffffffffff167f8c5be1e5ebec7d5bd14f71427d1e84f3dd0314c0f7b2291e5b200ac8c7c3b92560405160405180910390a4505050565b600e60009054906101000a900473ffffffffffffffffffffffffffffffffffffffff1673ffffffffffffffffffffffffffffffffffffffff163373ffffffffffffffffffffffffffffffffffffffff16146108e4576040517f08c379a00000000000000000000000000000000000000000000000000000000081526004016108db906136a4565b60405180910390fd5b600030905084600760006101000a81548173ffffffffffffffffffffffffffffffffffffffff021916908373ffffffffffffffffffffffffffffffffffffffff16021790555083600860006101000a81548173ffffffffffffffffffffffffffffffffffffffff021916908373ffffffffffffffffffffffffffffffffffffffff160217905550600760009054906101000a900473ffffffffffffffffffffffffffffffffffffffff1673ffffffffffffffffffffffffffffffffffffffff1663095ea7b3827fffffffffffffffffffffffffffffffffffffffffffffffffffffffffffffffff6040518363ffffffff1660e01b81526004016109e892919061361c565b602060405180830381600087803b158015610a0257600080fd5b505af1158015610a16573d6000803e3d6000fd5b505050506040513d601f19601f82011682018060405250610a3a9190810190612ffe565b5082600b8190555081600d819055505050505050565b610a5a3382611a69565b610a99576040517f08c379a0000000000000000000000000000000000000000000000000000000008152600401610a90906137a4565b60405180910390fd5b610aa4838383611b47565b505050565b606060003090506000806000606087604051908082528060200260200182016040528015610ae65781602001602082028038833980820191505090505b509050600093505b87841015610b4657610b0b82600d54611d7690919063ffffffff16565b9150600184600a540101925082818581518110610b2457fe5b602002602001018181525050610b3b898489611dc6565b836001019350610aee565b87600a5401600a819055506000821115610e6357610b643383611e21565b6000600860009054906101000a900473ffffffffffffffffffffffffffffffffffffffff1673ffffffffffffffffffffffffffffffffffffffff166370a08231876040518263ffffffff1660e01b8152600401610bc1919061357e565b602060405180830381600087803b158015610bdb57600080fd5b505af1158015610bef573d6000803e3d6000fd5b505050506040513d601f19601f82011682018060405250610c1391908101906130a2565b9050600094505b88851015610e6157818581518110610c2e57fe5b60200260200101519350600860009054906101000a900473ffffffffffffffffffffffffffffffffffffffff1673ffffffffffffffffffffffffffffffffffffffff16633b4da69f87600d546040518363ffffffff1660e01b8152600401610c9792919061361c565b600060405180830381600087803b158015610cb157600080fd5b505af1158015610cc5573d6000803e3d6000fd5b50505050610d90610d8b82600860009054906101000a900473ffffffffffffffffffffffffffffffffffffffff1673ffffffffffffffffffffffffffffffffffffffff166370a082318a6040518263ffffffff1660e01b8152600401610d2b919061357e565b602060405180830381600087803b158015610d4557600080fd5b505af1158015610d59573d6000803e3d6000fd5b505050506040513d601f19601f82011682018060405250610d7d91908101906130a2565b61200890919063ffffffff16565b612058565b6009600086815260200190815260200160002081905550600860009054906101000a900473ffffffffffffffffffffffffffffffffffffffff1673ffffffffffffffffffffffffffffffffffffffff166370a08231876040518263ffffffff1660e01b8152600401610e02919061357e565b602060405180830381600087803b158015610e1c57600080fd5b505af1158015610e30573d6000803e3d6000fd5b505050506040513d601f19601f82011682018060405250610e5491908101906130a2565b9050846001019450610c1a565b505b80955050505050509392505050565b6000600d54905090565b610e9783838360405180602001604052806000815250611584565b505050565b6000600e60009054906101000a900473ffffffffffffffffffffffffffffffffffffffff16905090565b600e60009054906101000a900473ffffffffffffffffffffffffffffffffffffffff1673ffffffffffffffffffffffffffffffffffffffff163373ffffffffffffffffffffffffffffffffffffffff1614610f56576040517f08c379a0000000000000000000000000000000000000000000000000000000008152600401610f4d906136a4565b60405180910390fd5b60003073ffffffffffffffffffffffffffffffffffffffff163190506000811115610fc3573373ffffffffffffffffffffffffffffffffffffffff166108fc829081150290604051600060405180830381858888f19350505050158015610fc1573d6000803e3d6000fd5b505b6000600c541115610fe357610fda33600c546120b7565b6000600c819055505b50565b6000806003600084815260200190815260200160002060009054906101000a900473ffffffffffffffffffffffffffffffffffffffff169050600073ffffffffffffffffffffffffffffffffffffffff168173ffffffffffffffffffffffffffffffffffffffff16141561108f576040517f08c379a0000000000000000000000000000000000000000000000000000000008152600401611086906137c4565b60405180910390fd5b80915050919050565b60008073ffffffffffffffffffffffffffffffffffffffff168273ffffffffffffffffffffffffffffffffffffffff161415611109576040517f08c379a000000000000000000000000000000000000000000000000000000000815260040161110090613704565b60405180910390fd5b611150600560008473ffffffffffffffffffffffffffffffffffffffff1673ffffffffffffffffffffffffffffffffffffffff1681526020019081526020016000206122f0565b9050919050565b60006111633383611a69565b6111a2576040517f08c379a000000000000000000000000000000000000000000000000000000000815260040161119990613724565b60405180910390fd5b60006111ad83611237565b9050600081116111f2576040517f08c379a00000000000000000000000000000000000000000000000000000000081526004016111e990613744565b60405180910390fd5b60006111fe33836122fe565b90508060096000868152602001908152602001600020540360096000868152602001908152602001600020819055508192505050919050565b6000611242826119f7565b611281576040517f08c379a000000000000000000000000000000000000000000000000000000000815260040161127890613764565b60405180910390fd5b6000600860009054906101000a900473ffffffffffffffffffffffffffffffffffffffff1673ffffffffffffffffffffffffffffffffffffffff16631043b2cb60096000868152602001908152602001600020546040518263ffffffff1660e01b81526004016112f19190613864565b602060405180830381600087803b15801561130b57600080fd5b505af115801561131f573d6000803e3d6000fd5b505050506040513d601f19601f8201168201806040525061134391908101906130a2565b905080600d5410611358576000915050611371565b61136d600d548261200890919063ffffffff16565b9150505b919050565b606060018054600181600116156101000203166002900480601f01602080910402602001604051908101604052809291908181526020018280546001816001161561010002031660029004801561140e5780601f106113e35761010080835404028352916020019161140e565b820191906000526020600020905b8154815290600101906020018083116113f157829003601f168201915b5050505050905090565b3373ffffffffffffffffffffffffffffffffffffffff168273ffffffffffffffffffffffffffffffffffffffff161415611487576040517f08c379a000000000000000000000000000000000000000000000000000000000815260040161147e90613804565b60405180910390fd5b80600660003373ffffffffffffffffffffffffffffffffffffffff1673ffffffffffffffffffffffffffffffffffffffff16815260200190815260200160002060008473ffffffffffffffffffffffffffffffffffffffff1673ffffffffffffffffffffffffffffffffffffffff16815260200190815260200160002060006101000a81548160ff0219169083151502179055508173ffffffffffffffffffffffffffffffffffffffff163373ffffffffffffffffffffffffffffffffffffffff167f17307eab39ab6107e8899845ad3d59bd9653f200f220920489ca2b5937696c31836040516115789190613667565b60405180910390a35050565b61158e3383611a69565b6115cd576040517f08c379a00000000000000000000000000000000000000000000000000000000081526004016115c4906137a4565b60405180910390fd5b6115d984848484612562565b50505050565b60606115ea826119f7565b611629576040517f08c379a0000000000000000000000000000000000000000000000000000000008152600401611620906137c4565b60405180910390fd5b600260008381526020019081526020016000208054600181600116156101000203166002900480601f0160208091040260200160405190810160405280929190818152602001828054600181600116156101000203166002900480156116d05780601f106116a5576101008083540402835291602001916116d0565b820191906000526020600020905b8154815290600101906020018083116116b357829003601f168201915b50505050509050919050565b6116e633826125be565b6000600960008381526020019081526020016000205490506000600960008481526020019081526020016000208190555061172133826120b7565b5050565b6000600660008473ffffffffffffffffffffffffffffffffffffffff1673ffffffffffffffffffffffffffffffffffffffff16815260200190815260200160002060008373ffffffffffffffffffffffffffffffffffffffff1673ffffffffffffffffffffffffffffffffffffffff16815260200190815260200160002060009054906101000a900460ff16905092915050565b60008060008090505b8351811015611827578381815181106117d757fe5b602002602001015192506117eb33846125be565b600960008481526020019081526020016000205482019150600060096000858152602001908152602001600020819055508060010190506117c2565b5061183233826120b7565b505050565b600e60009054906101000a900473ffffffffffffffffffffffffffffffffffffffff1673ffffffffffffffffffffffffffffffffffffffff163373ffffffffffffffffffffffffffffffffffffffff16146118c7576040517f08c379a00000000000000000000000000000000000000000000000000000000081526004016118be906136a4565b60405180910390fd5b600073ffffffffffffffffffffffffffffffffffffffff168173ffffffffffffffffffffffffffffffffffffffff161415611937576040517f08c379a000000000000000000000000000000000000000000000000000000000815260040161192e90613704565b60405180910390fd5b8073ffffffffffffffffffffffffffffffffffffffff16600e60009054906101000a900473ffffffffffffffffffffffffffffffffffffffff1673ffffffffffffffffffffffffffffffffffffffff167f8be0079c531659141344cd1fd0a4f28419497f9722a3daafe3b4186f6b6457e060405160405180910390a380600e60006101000a81548173ffffffffffffffffffffffffffffffffffffffff021916908373ffffffffffffffffffffffffffffffffffffffff16021790555050565b6000806003600084815260200190815260200160002060009054906101000a900473ffffffffffffffffffffffffffffffffffffffff169050600073ffffffffffffffffffffffffffffffffffffffff168173ffffffffffffffffffffffffffffffffffffffff161415915050919050565b6000611a74826119f7565b611ab3576040517f08c379a0000000000000000000000000000000000000000000000000000000008152600401611aaa906137c4565b60405180910390fd5b6000611abe83610fe6565b90508073ffffffffffffffffffffffffffffffffffffffff168473ffffffffffffffffffffffffffffffffffffffff161480611b2d57508373ffffffffffffffffffffffffffffffffffffffff16611b1584610622565b73ffffffffffffffffffffffffffffffffffffffff16145b80611b3e5750611b3d8185611725565b5b91505092915050565b8273ffffffffffffffffffffffffffffffffffffffff16611b6782610fe6565b73ffffffffffffffffffffffffffffffffffffffff1614611bbd576040517f08c379a0000000000000000000000000000000000000000000000000000000008152600401611bb4906137a4565b60405180910390fd5b600073ffffffffffffffffffffffffffffffffffffffff168273ffffffffffffffffffffffffffffffffffffffff161415611c2d576040517f08c379a0000000000000000000000000000000000000000000000000000000008152600401611c2490613804565b60405180910390fd5b611c3681612786565b611c7d600560008573ffffffffffffffffffffffffffffffffffffffff1673ffffffffffffffffffffffffffffffffffffffff168152602001908152602001600020612844565b611cc4600560008473ffffffffffffffffffffffffffffffffffffffff1673ffffffffffffffffffffffffffffffffffffffff168152602001908152602001600020612867565b816003600083815260200190815260200160002060006101000a81548173ffffffffffffffffffffffffffffffffffffffff021916908373ffffffffffffffffffffffffffffffffffffffff160217905550808273ffffffffffffffffffffffffffffffffffffffff168473ffffffffffffffffffffffffffffffffffffffff167fddf252ad1be2c89b69c2b068fc378daa952ba7f163c4a11628f55a4df523b3ef60405160405180910390a4505050565b6000818301905082811015611dc0576040517f08c379a0000000000000000000000000000000000000000000000000000000008152600401611db7906136e4565b60405180910390fd5b92915050565b611dd0838361287d565b611ddd6000848484612a2f565b611e1c576040517f08c379a0000000000000000000000000000000000000000000000000000000008152600401611e1390613844565b60405180910390fd5b505050565b6000600760009054906101000a900473ffffffffffffffffffffffffffffffffffffffff1673ffffffffffffffffffffffffffffffffffffffff166370a08231846040518263ffffffff1660e01b8152600401611e7e919061357e565b60206040518083038186803b158015611e9657600080fd5b505afa158015611eaa573d6000803e3d6000fd5b505050506040513d601f19601f82011682018060405250611ece91908101906130a2565b905080821115611f13576040517f08c379a0000000000000000000000000000000000000000000000000000000008152600401611f0a906136c4565b60405180910390fd5b600760009054906101000a900473ffffffffffffffffffffffffffffffffffffffff1673ffffffffffffffffffffffffffffffffffffffff166323b872dd8430856040518463ffffffff1660e01b8152600401611f72939291906135e5565b602060405180830381600087803b158015611f8c57600080fd5b505af1158015611fa0573d6000803e3d6000fd5b505050506040513d601f19601f82011682018060405250611fc49190810190612ffe565b612003576040517f08c379a0000000000000000000000000000000000000000000000000000000008152600401611ffa90613824565b60405180910390fd5b505050565b60008282111561204d576040517f08c379a000000000000000000000000000000000000000000000000000000000815260040161204490613784565b60405180910390fd5b818303905092915050565b600080600b54141561206c578190506120b2565b6000612710600b5484028161207d57fe5b04905061209581600c54611d7690919063ffffffff16565b600c819055506120ae818461200890919063ffffffff16565b9150505b919050565b6000309050600860009054906101000a900473ffffffffffffffffffffffffffffffffffffffff1673ffffffffffffffffffffffffffffffffffffffff1663ef693bed82846040518363ffffffff1660e01b815260040161211992919061361c565b600060405180830381600087803b15801561213357600080fd5b505af1158015612147573d6000803e3d6000fd5b505050506000600760009054906101000a900473ffffffffffffffffffffffffffffffffffffffff1673ffffffffffffffffffffffffffffffffffffffff166370a08231836040518263ffffffff1660e01b81526004016121a8919061357e565b60206040518083038186803b1580156121c057600080fd5b505afa1580156121d4573d6000803e3d6000fd5b505050506040513d601f19601f820116820180604052506121f891908101906130a2565b9050600760009054906101000a900473ffffffffffffffffffffffffffffffffffffffff1673ffffffffffffffffffffffffffffffffffffffff166323b872dd8386846040518463ffffffff1660e01b8152600401612259939291906135e5565b602060405180830381600087803b15801561227357600080fd5b505af1158015612287573d6000803e3d6000fd5b505050506040513d601f19601f820116820180604052506122ab9190810190612ffe565b6122ea576040517f08c379a00000000000000000000000000000000000000000000000000000000081526004016122e190613824565b60405180910390fd5b50505050565b600081600001549050919050565b6000803090506000600860009054906101000a900473ffffffffffffffffffffffffffffffffffffffff1673ffffffffffffffffffffffffffffffffffffffff16634a03707c83866040518363ffffffff1660e01b815260040161236392919061361c565b602060405180830381600087803b15801561237d57600080fd5b505af1158015612391573d6000803e3d6000fd5b505050506040513d601f19601f820116820180604052506123b591908101906130a2565b90506000600760009054906101000a900473ffffffffffffffffffffffffffffffffffffffff1673ffffffffffffffffffffffffffffffffffffffff166370a08231846040518263ffffffff1660e01b8152600401612414919061357e565b60206040518083038186803b15801561242c57600080fd5b505afa158015612440573d6000803e3d6000fd5b505050506040513d601f19601f8201168201806040525061246491908101906130a2565b9050600760009054906101000a900473ffffffffffffffffffffffffffffffffffffffff1673ffffffffffffffffffffffffffffffffffffffff166323b872dd8488846040518463ffffffff1660e01b81526004016124c5939291906135e5565b602060405180830381600087803b1580156124df57600080fd5b505af11580156124f3573d6000803e3d6000fd5b505050506040513d601f19601f820116820180604052506125179190810190612ffe565b612556576040517f08c379a000000000000000000000000000000000000000000000000000000000815260040161254d90613824565b60405180910390fd5b81935050505092915050565b61256d848484611b47565b61257984848484612a2f565b6125b8576040517f08c379a00000000000000000000000000000000000000000000000000000000081526004016125af90613844565b60405180910390fd5b50505050565b8173ffffffffffffffffffffffffffffffffffffffff166125de82610fe6565b73ffffffffffffffffffffffffffffffffffffffff1614612634576040517f08c379a000000000000000000000000000000000000000000000000000000000815260040161262b906137a4565b60405180910390fd5b61263d81612786565b612684600560008473ffffffffffffffffffffffffffffffffffffffff1673ffffffffffffffffffffffffffffffffffffffff168152602001908152602001600020612844565b60006003600083815260200190815260200160002060006101000a81548173ffffffffffffffffffffffffffffffffffffffff021916908373ffffffffffffffffffffffffffffffffffffffff16021790555060006002600083815260200190815260200160002080546001816001161561010002031660029004905014612726576002600082815260200190815260200160002060006127259190612b75565b5b80600073ffffffffffffffffffffffffffffffffffffffff168373ffffffffffffffffffffffffffffffffffffffff167fddf252ad1be2c89b69c2b068fc378daa952ba7f163c4a11628f55a4df523b3ef60405160405180910390a45050565b600073ffffffffffffffffffffffffffffffffffffffff166004600083815260200190815260200160002060009054906101000a900473ffffffffffffffffffffffffffffffffffffffff1673ffffffffffffffffffffffffffffffffffffffff16146128415760006004600083815260200190815260200160002060006101000a81548173ffffffffffffffffffffffffffffffffffffffff021916908373ffffffffffffffffffffffffffffffffffffffff1602179055505b50565b61285c6001826000015461200890919063ffffffff16565b816000018190555050565b6001816000016000828254019250508190555050565b600073ffffffffffffffffffffffffffffffffffffffff168273ffffffffffffffffffffffffffffffffffffffff1614156128ed576040517f08c379a00000000000000000000000000000000000000000000000000000000081526004016128e490613804565b60405180910390fd5b6128f6816119f7565b15612936576040517f08c379a000000000000000000000000000000000000000000000000000000000815260040161292d906137e4565b60405180910390fd5b816003600083815260200190815260200160002060006101000a81548173ffffffffffffffffffffffffffffffffffffffff021916908373ffffffffffffffffffffffffffffffffffffffff1602179055506129cf600560008473ffffffffffffffffffffffffffffffffffffffff1673ffffffffffffffffffffffffffffffffffffffff168152602001908152602001600020612867565b808273ffffffffffffffffffffffffffffffffffffffff16600073ffffffffffffffffffffffffffffffffffffffff167fddf252ad1be2c89b69c2b068fc378daa952ba7f163c4a11628f55a4df523b3ef60405160405180910390a45050565b6000612a3a84612b30565b612a475760019050612b28565b60008473ffffffffffffffffffffffffffffffffffffffff1663150b7a02338887876040518563ffffffff1660e01b8152600401612a889493929190613599565b602060405180830381600087803b158015612aa257600080fd5b505af1158015612ab6573d6000803e3d6000fd5b505050506040513d601f19601f82011682018060405250612ada9190810190613050565b905063150b7a0260e01b7bffffffffffffffffffffffffffffffffffffffffffffffffffffffff1916817bffffffffffffffffffffffffffffffffffffffffffffffffffffffff1916149150505b949350505050565b600080823f90506000801b8114158015612b6d57507fc5d2460186f7233c927e7db2dcc703c0e500b653ca82273b7bfad8045d85a47060001b8114155b915050919050565b50805460018160011615610100020316600290046000825580601f10612b9b5750612bba565b601f016020900490600052602060002090810190612bb99190612bbd565b5b50565b612bdf91905b80821115612bdb576000816000905550600101612bc3565b5090565b90565b600081359050612bf181613a6e565b92915050565b600082601f830112612c0857600080fd5b8135612c1b612c16826138ac565b61387f565b91508181835260208401935060208101905083856020840282011115612c4057600080fd5b60005b83811015612c705781612c568882612d22565b845260208401935060208301925050600181019050612c43565b5050505092915050565b600081359050612c8981613a85565b92915050565b600081519050612c9e81613a85565b92915050565b600081359050612cb381613a9c565b92915050565b600081519050612cc881613a9c565b92915050565b600082601f830112612cdf57600080fd5b8135612cf2612ced826138d4565b61387f565b91508082526020830160208301858383011115612d0e57600080fd5b612d19838284613a1b565b50505092915050565b600081359050612d3181613ab3565b92915050565b600081519050612d4681613ab3565b92915050565b600060208284031215612d5e57600080fd5b6000612d6c84828501612be2565b91505092915050565b60008060408385031215612d8857600080fd5b6000612d9685828601612be2565b9250506020612da785828601612be2565b9150509250929050565b600080600060608486031215612dc657600080fd5b6000612dd486828701612be2565b9350506020612de586828701612be2565b9250506040612df686828701612d22565b9150509250925092565b60008060008060808587031215612e1657600080fd5b6000612e2487828801612be2565b9450506020612e3587828801612be2565b9350506040612e4687828801612d22565b925050606085013567ffffffffffffffff811115612e6357600080fd5b612e6f87828801612cce565b91505092959194509250565b60008060008060808587031215612e9157600080fd5b6000612e9f87828801612be2565b9450506020612eb087828801612be2565b9350506040612ec187828801612d22565b9250506060612ed287828801612d22565b91505092959194509250565b60008060408385031215612ef157600080fd5b6000612eff85828601612be2565b9250506020612f1085828601612c7a565b9150509250929050565b60008060408385031215612f2d57600080fd5b6000612f3b85828601612be2565b9250506020612f4c85828601612d22565b9150509250929050565b600080600060608486031215612f6b57600080fd5b6000612f7986828701612be2565b9350506020612f8a86828701612d22565b925050604084013567ffffffffffffffff811115612fa757600080fd5b612fb386828701612cce565b9150509250925092565b600060208284031215612fcf57600080fd5b600082013567ffffffffffffffff811115612fe957600080fd5b612ff584828501612bf7565b91505092915050565b60006020828403121561301057600080fd5b600061301e84828501612c8f565b91505092915050565b60006020828403121561303957600080fd5b600061304784828501612ca4565b91505092915050565b60006020828403121561306257600080fd5b600061307084828501612cb9565b91505092915050565b60006020828403121561308b57600080fd5b600061309984828501612d22565b91505092915050565b6000602082840312156130b457600080fd5b60006130c284828501612d37565b91505092915050565b60006130d78383613560565b60208301905092915050565b6130ec816139e5565b82525050565b6130fb81613971565b82525050565b600061310c82613910565b613116818561393e565b935061312183613900565b8060005b8381101561315257815161313988826130cb565b975061314483613931565b925050600181019050613125565b5085935050505092915050565b61316881613983565b82525050565b60006131798261391b565b613183818561394f565b9350613193818560208601613a2a565b61319c81613a5d565b840191505092915050565b60006131b282613926565b6131bc8185613960565b93506131cc818560208601613a2a565b6131d581613a5d565b840191505092915050565b60006131ed600483613960565b91507f45313032000000000000000000000000000000000000000000000000000000006000830152602082019050919050565b600061322d600483613960565b91507f45343034000000000000000000000000000000000000000000000000000000006000830152602082019050919050565b600061326d600483613960565b91507f45323032000000000000000000000000000000000000000000000000000000006000830152602082019050919050565b60006132ad600483613960565b91507f45313031000000000000000000000000000000000000000000000000000000006000830152602082019050919050565b60006132ed600483613960565b91507f45313033000000000000000000000000000000000000000000000000000000006000830152602082019050919050565b600061332d600483613960565b91507f45343033000000000000000000000000000000000000000000000000000000006000830152602082019050919050565b600061336d600483613960565b91507f45343032000000000000000000000000000000000000000000000000000000006000830152602082019050919050565b60006133ad600483613960565b91507f45323031000000000000000000000000000000000000000000000000000000006000830152602082019050919050565b60006133ed600483613960565b91507f45333034000000000000000000000000000000000000000000000000000000006000830152602082019050919050565b600061342d600483613960565b91507f45333033000000000000000000000000000000000000000000000000000000006000830152602082019050919050565b600061346d600483613960565b91507f45333035000000000000000000000000000000000000000000000000000000006000830152602082019050919050565b60006134ad600483613960565b91507f45333031000000000000000000000000000000000000000000000000000000006000830152602082019050919050565b60006134ed600483613960565b91507f45343035000000000000000000000000000000000000000000000000000000006000830152602082019050919050565b600061352d600483613960565b91507f45333032000000000000000000000000000000000000000000000000000000006000830152602082019050919050565b613569816139db565b82525050565b613578816139db565b82525050565b600060208201905061359360008301846130f2565b92915050565b60006080820190506135ae60008301876130e3565b6135bb60208301866130f2565b6135c8604083018561356f565b81810360608301526135da818461316e565b905095945050505050565b60006060820190506135fa60008301866130f2565b61360760208301856130f2565b613614604083018461356f565b949350505050565b600060408201905061363160008301856130f2565b61363e602083018461356f565b9392505050565b6000602082019050818103600083015261365f8184613101565b905092915050565b600060208201905061367c600083018461315f565b92915050565b6000602082019050818103600083015261369c81846131a7565b905092915050565b600060208201905081810360008301526136bd816131e0565b9050919050565b600060208201905081810360008301526136dd81613220565b9050919050565b600060208201905081810360008301526136fd81613260565b9050919050565b6000602082019050818103600083015261371d816132a0565b9050919050565b6000602082019050818103600083015261373d816132e0565b9050919050565b6000602082019050818103600083015261375d81613320565b9050919050565b6000602082019050818103600083015261377d81613360565b9050919050565b6000602082019050818103600083015261379d816133a0565b9050919050565b600060208201905081810360008301526137bd816133e0565b9050919050565b600060208201905081810360008301526137dd81613420565b9050919050565b600060208201905081810360008301526137fd81613460565b9050919050565b6000602082019050818103600083015261381d816134a0565b9050919050565b6000602082019050818103600083015261383d816134e0565b9050919050565b6000602082019050818103600083015261385d81613520565b9050919050565b6000602082019050613879600083018461356f565b92915050565b6000604051905081810181811067ffffffffffffffff821117156138a257600080fd5b8060405250919050565b600067ffffffffffffffff8211156138c357600080fd5b602082029050602081019050919050565b600067ffffffffffffffff8211156138eb57600080fd5b601f19601f8301169050602081019050919050565b6000819050602082019050919050565b600081519050919050565b600081519050919050565b600081519050919050565b6000602082019050919050565b600082825260208201905092915050565b600082825260208201905092915050565b600082825260208201905092915050565b600061397c826139bb565b9050919050565b60008115159050919050565b60007fffffffff0000000000000000000000000000000000000000000000000000000082169050919050565b600073ffffffffffffffffffffffffffffffffffffffff82169050919050565b6000819050919050565b60006139f0826139f7565b9050919050565b6000613a0282613a09565b9050919050565b6000613a14826139bb565b9050919050565b82818337600083830152505050565b60005b83811015613a48578082015181840152602081019050613a2d565b83811115613a57576000848401525b50505050565b6000601f19601f8301169050919050565b613a7781613971565b8114613a8257600080fd5b50565b613a8e81613983565b8114613a9957600080fd5b50565b613aa58161398f565b8114613ab057600080fd5b50565b613abc816139db565b8114613ac757600080fd5b5056fea365627a7a7231582038c08771d1f140701f1d0483a43e7ffbc1fd4bef7acd93b915341988977658326c6578706572696d656e74616cf564736f6c634300050d0040",
  "source": "// ChargedParticlesERC721.sol -- Interest-bearing NFTs based on the DAI Savings Token\n// Copyright (C) 2020 robsecord\n\n// This program is free software: you can redistribute it and/or modify\n// it under the terms of the GNU Affero General Public License as published by\n// the Free Software Foundation, either version 3 of the License, or\n// (at your option) any later version.\n//\n// This program is distributed in the hope that it will be useful,\n// but WITHOUT ANY WARRANTY; without even the implied warranty of\n// MERCHANTABILITY or FITNESS FOR A PARTICULAR PURPOSE.  See the\n// GNU Affero General Public License for more details.\n//\n// You should have received a copy of the GNU Affero General Public License\n// along with this program.  If not, see <https://www.gnu.org/licenses/>.\n\npragma solidity ^0.5.13;\npragma experimental ABIEncoderV2;\n\n// ERROR CODES:\n//  100:        ADDRESS, OWNER, OPERATOR\n//      101         Invalid Address\n//      102         Sender is not owner\n//      103         Sender is not operator\n//  200:        MATH\n//      201         Underflow\n//      202         Overflow\n//  300:        ERC721\n//      301         Invalid Recipient\n//      302         Invalid on-received message\n//      303         Invalid tokenId\n//      304         Invalid owner/operator\n//      305         Token ID already exists\n//  400:        ChargedParticles\n//      401         Invalid Method\n//      402         Unregistered Type\n//      403         Particle has no Charge\n//      404         Insufficient DAI Balance\n//      405         Transfer Failed\n\n/**\n * @title Chai.money interface\n * @dev https://github.com/dapphub/chai\n */\ncontract IChai {\n    function transfer(address dst, uint wad) external returns (bool);\n    // like transferFrom but dai-denominated\n    function move(address src, address dst, uint wad) external returns (bool);\n    function transferFrom(address src, address dst, uint wad) public returns (bool);\n    function approve(address usr, uint wad) external returns (bool);\n    function balanceOf(address usr) external returns (uint);\n\n    // Approve by signature\n    function permit(address holder, address spender, uint256 nonce, uint256 expiry, bool allowed, uint8 v, bytes32 r, bytes32 s) external;\n\n    function dai(address usr) external returns (uint wad);\n    function dai(uint chai) external returns (uint wad);\n\n    // wad is denominated in dai\n    function join(address dst, uint wad) external;\n\n    // wad is denominated in (1/chi) * dai\n    function exit(address src, uint wad) public;\n\n    // wad is denominated in dai\n    function draw(address src, uint wad) external returns (uint chai);\n}\n\n/**\n * @title ERC165\n * @dev https://github.com/ethereum/EIPs/blob/master/EIPS/eip-165.md\n */\ninterface IERC165 {\n    function supportsInterface(bytes4 _interfaceId) external view returns (bool);\n}\n\n/**\n * @title ERC20 interface\n * @dev see https://eips.ethereum.org/EIPS/eip-20\n */\ninterface IERC20 {\n    function transfer(address to, uint256 value) external returns (bool);\n    function approve(address spender, uint256 value) external returns (bool);\n    function transferFrom(address from, address to, uint256 value) external returns (bool);\n    function totalSupply() external view returns (uint256);\n    function balanceOf(address who) external view returns (uint256);\n    function allowance(address owner, address spender) external view returns (uint256);\n    event Transfer(address indexed from, address indexed to, uint256 value);\n    event Approval(address indexed owner, address indexed spender, uint256 value);\n}\n\n/**\n * @title ERC721 interface\n * @dev see https://eips.ethereum.org/EIPS/eip-721\n */\ncontract IERC721 {\n    function balanceOf(address owner) public view returns (uint256 balance);\n    function ownerOf(uint256 tokenId) public view returns (address owner);\n    function safeTransferFrom(address from, address to, uint256 tokenId) public;\n    function safeTransferFrom(address from, address to, uint256 tokenId, bytes memory data) public;\n    function transferFrom(address from, address to, uint256 tokenId) public;\n    function approve(address to, uint256 tokenId) public;\n    function getApproved(uint256 tokenId) public view returns (address operator);\n    function setApprovalForAll(address operator, bool approved) public;\n    function isApprovedForAll(address owner, address operator) public view returns (bool);\n    event Transfer(address indexed from, address indexed to, uint256 indexed tokenId);\n    event Approval(address indexed owner, address indexed approved, uint256 indexed tokenId);\n    event ApprovalForAll(address indexed owner, address indexed operator, bool approved);\n}\n\n/**\n * @title ERC721 token receiver interface\n * @dev Interface for any contract that wants to support safeTransfers\n * from ERC721 asset contracts.\n */\ncontract IERC721Receiver {\n    function onERC721Received(address operator, address from, uint256 tokenId, bytes memory data) public returns (bytes4);\n}\n\n/**\n * @title SafeMath\n * @dev Unsigned math operations with safety checks that revert on error\n */\nlibrary SafeMath {\n\n    function sub(uint256 a, uint256 b) internal pure returns (uint256 c) {\n        require(b <= a, \"E201\");\n        c = a - b;\n    }\n\n    function add(uint256 a, uint256 b) internal pure returns (uint256 c) {\n        c = a + b;\n        require(c >= a, \"E202\");\n    }\n}\n\n/**\n * @title Counters\n * @author Matt Condon (@shrugs)\n * @dev Provides counters that can only be incremented or decremented by one. This can be used e.g. to track the number\n * of elements in a mapping, issuing ERC721 ids, or counting request ids.\n */\nlibrary Counters {\n    using SafeMath for uint256;\n\n    struct Counter {\n        // This variable should never be directly accessed by users of the library: interactions must be restricted to\n        // the library's function. As of Solidity v0.5.2, this cannot be enforced, though there is a proposal to add\n        // this feature: see https://github.com/ethereum/solidity/issues/4637\n        uint256 _value; // default: 0\n    }\n\n    function current(Counter storage counter) internal view returns (uint256) {\n        return counter._value;\n    }\n\n    function increment(Counter storage counter) internal {\n        counter._value += 1;\n    }\n\n    function decrement(Counter storage counter) internal {\n        counter._value = counter._value.sub(1);\n    }\n}\n\n/**\n * @title Implementation of ERC721 Non-Fungible Token Standard\n * @dev see node_modules/openzeppelin-solidity/contracts/token/ERC721/ERC721.sol\n */\ncontract ERC721 is IERC165, IERC721 {\n    using SafeMath for uint256;\n    using Counters for Counters.Counter;\n\n    bytes4 constant internal INTERFACE_SIGNATURE_ERC165 = 0x01ffc9a7;\n    bytes4 private constant INTERFACE_SIGNATURE_ERC721 = 0x80ac58cd;\n    bytes4 private constant INTERFACE_SIGNATURE_ERC721_METADATA = 0x5b5e139f;\n    bytes4 private constant _ERC721_RECEIVED = 0x150b7a02;\n    bytes32 constant internal ACCOUNT_HASH = 0xc5d2460186f7233c927e7db2dcc703c0e500b653ca82273b7bfad8045d85a470;\n\n    string private _name;\n    string private _symbol;\n    mapping(uint256 => string) private _tokenURIs;\n    mapping (uint256 => address) private _tokenOwner;\n    mapping (uint256 => address) private _tokenApprovals;\n    mapping (address => Counters.Counter) private _ownedTokensCount;\n    mapping (address => mapping (address => bool)) private _operatorApprovals;\n\n//    event Transfer(address indexed from, address indexed to, uint256 indexed tokenId);\n//    event Approval(address indexed owner, address indexed approved, uint256 indexed tokenId);\n//    event ApprovalForAll(address indexed owner, address indexed operator, bool approved);\n\n\n    constructor (string memory name, string memory symbol) public {\n        _name = name;\n        _symbol = symbol;\n    }\n\n    function name() external view returns (string memory) {\n        return _name;\n    }\n\n    function symbol() external view returns (string memory) {\n        return _symbol;\n    }\n\n    function tokenURI(uint256 tokenId) external view returns (string memory) {\n        require(_exists(tokenId), \"E303\");\n        return _tokenURIs[tokenId];\n    }\n\n    function supportsInterface(bytes4 _interfaceID) external view returns (bool) {\n        if (_interfaceID == INTERFACE_SIGNATURE_ERC165 ||\n            _interfaceID == INTERFACE_SIGNATURE_ERC721 ||\n            _interfaceID == INTERFACE_SIGNATURE_ERC721_METADATA) {\n            return true;\n        }\n        return false;\n    }\n\n    function balanceOf(address owner) public view returns (uint256) {\n        require(owner != address(0), \"E101\");\n        return _ownedTokensCount[owner].current();\n    }\n\n    function ownerOf(uint256 tokenId) public view returns (address) {\n        address owner = _tokenOwner[tokenId];\n        require(owner != address(0), \"E303\");\n        return owner;\n    }\n\n    function approve(address to, uint256 tokenId) public {\n        address owner = ownerOf(tokenId);\n        require(to != owner, \"E301\");\n\n        require(msg.sender == owner || isApprovedForAll(owner, msg.sender), \"E304\");\n\n        _tokenApprovals[tokenId] = to;\n        emit Approval(owner, to, tokenId);\n    }\n\n    function getApproved(uint256 tokenId) public view returns (address) {\n        require(_exists(tokenId), \"E303\");\n        return _tokenApprovals[tokenId];\n    }\n\n    function setApprovalForAll(address to, bool approved) public {\n        require(to != msg.sender, \"E301\");\n        _operatorApprovals[msg.sender][to] = approved;\n        emit ApprovalForAll(msg.sender, to, approved);\n    }\n\n    function isApprovedForAll(address owner, address operator) public view returns (bool) {\n        return _operatorApprovals[owner][operator];\n    }\n\n    function transferFrom(address from, address to, uint256 tokenId) public {\n        require(_isApprovedOrOwner(msg.sender, tokenId), \"E304\");\n        _transferFrom(from, to, tokenId);\n    }\n\n    function safeTransferFrom(address from, address to, uint256 tokenId) public {\n        safeTransferFrom(from, to, tokenId, \"\");\n    }\n\n    function safeTransferFrom(address from, address to, uint256 tokenId, bytes memory _data) public {\n        require(_isApprovedOrOwner(msg.sender, tokenId), \"E304\");\n        _safeTransferFrom(from, to, tokenId, _data);\n    }\n\n    function _safeTransferFrom(address from, address to, uint256 tokenId, bytes memory _data) internal {\n        _transferFrom(from, to, tokenId);\n        require(_checkOnERC721Received(from, to, tokenId, _data), \"E302\");\n    }\n\n    function _exists(uint256 tokenId) internal view returns (bool) {\n        address owner = _tokenOwner[tokenId];\n        return owner != address(0);\n    }\n\n    function _isApprovedOrOwner(address spender, uint256 tokenId) internal view returns (bool) {\n        require(_exists(tokenId), \"E303\");\n        address owner = ownerOf(tokenId);\n        return (spender == owner || getApproved(tokenId) == spender || isApprovedForAll(owner, spender));\n    }\n\n    function _safeMint(address to, uint256 tokenId, bytes memory _data) internal {\n        _mint(to, tokenId);\n        require(_checkOnERC721Received(address(0), to, tokenId, _data), \"E302\");\n    }\n\n    function _mint(address to, uint256 tokenId) internal {\n        require(to != address(0), \"E301\");\n        require(!_exists(tokenId), \"E305\");\n\n        _tokenOwner[tokenId] = to;\n        _ownedTokensCount[to].increment();\n\n        emit Transfer(address(0), to, tokenId);\n    }\n\n    function _burn(address owner, uint256 tokenId) internal {\n        require(ownerOf(tokenId) == owner, \"E304\");\n\n        _clearApproval(tokenId);\n\n        _ownedTokensCount[owner].decrement();\n        _tokenOwner[tokenId] = address(0);\n\n        // Clear metadata (if any)\n        if (bytes(_tokenURIs[tokenId]).length != 0) {\n            delete _tokenURIs[tokenId];\n        }\n\n        emit Transfer(owner, address(0), tokenId);\n    }\n\n    function _transferFrom(address from, address to, uint256 tokenId) internal {\n        require(ownerOf(tokenId) == from, \"E304\");\n        require(to != address(0), \"E301\");\n\n        _clearApproval(tokenId);\n\n        _ownedTokensCount[from].decrement();\n        _ownedTokensCount[to].increment();\n\n        _tokenOwner[tokenId] = to;\n\n        emit Transfer(from, to, tokenId);\n    }\n\n    function _checkOnERC721Received(address from, address to, uint256 tokenId, bytes memory _data)\n    internal returns (bool)\n    {\n        if (!_isContract(to)) {\n            return true;\n        }\n\n        bytes4 retval = IERC721Receiver(to).onERC721Received(msg.sender, from, tokenId, _data);\n        return (retval == _ERC721_RECEIVED);\n    }\n\n    function _clearApproval(uint256 tokenId) private {\n        if (_tokenApprovals[tokenId] != address(0)) {\n            _tokenApprovals[tokenId] = address(0);\n        }\n    }\n\n    function _setTokenURI(uint256 tokenId, string memory uri) internal {\n        require(_exists(tokenId), \"E303\");\n        _tokenURIs[tokenId] = uri;\n    }\n\n    function _isContract(address _address) internal view returns (bool) {\n        bytes32 codehash;\n        assembly { codehash := extcodehash(_address) }\n        return (codehash != 0x0 && codehash != ACCOUNT_HASH);\n    }\n}\n\n\n/**\n * @notice Charged Particles Contract - Interest-Bearing NFTs\n *  -- ERC-721 Edition\n */\ncontract ChargedParticlesERC721 is ERC721 {\n    using SafeMath for uint256;\n\n    /***********************************|\n    |        Variables and Events       |\n    |__________________________________*/\n\n    IERC20 internal dai;\n    IChai internal chai;\n\n    mapping(uint256 => uint256) internal chaiBalanceByTokenId;    // Amount of Chai minted from Dai deposited\n\n    uint256 internal totalMintedTokens;\n    uint256 internal mintFee;\n    uint256 internal collectedFees;\n    uint256 internal requiredFunding;   // Amount of Dai to deposit when minting\n\n    address private owner; // To be assigned to a DAO\n\n    event OwnershipTransferred(address indexed previousOwner, address indexed newOwner);\n\n    /***********************************|\n    |             Modifiers             |\n    |__________________________________*/\n\n    /**\n     * @dev Throws if called by any account other than the owner.\n     */\n    modifier onlyOwner() {\n        require(msg.sender == owner, \"E102\");\n        _;\n    }\n\n    /***********************************|\n    |          Initialization           |\n    |__________________________________*/\n\n    constructor() ERC721(\"ChargedParticles\", \"IONS\") public {\n//        requiredFunding = 1e18;\n//        mintFee = 50;    //  0.5% of Chai from deposited Dai\n\n        owner = msg.sender;\n        emit OwnershipTransferred(address(0), owner);\n    }\n\n    /***********************************|\n    |            Public Read            |\n    |__________________________________*/\n\n    /**\n     * @notice Gets the address of the contract owner.\n     * @return The address of the owner\n     */\n    function getContractOwner() public view returns (address) {\n        return owner;\n    }\n\n    /***********************************|\n    |         Particle Physics          |\n    |__________________________________*/\n\n    /**\n     * @notice Gets the Amount of Base DAI held in the Token (amount token was minted with)\n     * @return  The Amount of DAI held in the Token\n     */\n    // view current amount of base-Dai held in particle\n    function baseParticleMass() public view returns (uint256) {\n        return requiredFunding;\n    }\n\n    /**\n     * @notice Gets the amount of interest the Token has generated (it's accumulated particle-charge)\n     * @param _tokenId      The ID of the Token\n     * @return  The amount of interest the Token has generated\n     */\n    // view current amount of interest earned by a particle\n    function currentParticleCharge(uint256 _tokenId) public returns (uint256) {\n        require(_exists(_tokenId), \"E402\");\n\n        uint256 currentCharge = chai.dai(chaiBalanceByTokenId[_tokenId]);\n        if (requiredFunding >= currentCharge) { return 0; }\n        return currentCharge.sub(requiredFunding);\n    }\n\n    /**\n     * @notice Allows the owner of the Token to collect the interest generated form the token\n     *  without removing the underlying DAI that is held in the token\n     * @param _tokenId      The ID of the Token\n     * @return  The amount of interest released from the token\n     */\n    // collect current interest from particle\n    function dischargeParticle(uint256 _tokenId) public returns (uint256) {\n        require(_isApprovedOrOwner(msg.sender, _tokenId), \"E103\");\n\n        uint256 _currentChargeInDai = currentParticleCharge(_tokenId);\n        require(_currentChargeInDai > 0, \"E403\");\n\n        uint256 _paidChai = _payoutChargedDai(msg.sender, _currentChargeInDai);\n        chaiBalanceByTokenId[_tokenId] = chaiBalanceByTokenId[_tokenId] - _paidChai;\n\n        return _currentChargeInDai;\n    }\n\n\n    /***********************************|\n    |            Public Mint            |\n    |__________________________________*/\n\n    /**\n     * @notice Mints multiple new Particles\n     * @param _to       The owner address to assign the new tokens to\n     * @param _amount   The amounts of tokens to mint\n     * @param _data     Custom data used for transferring tokens into contracts\n     * @return  The IDs of the newly minted tokens\n     */\n    function mintParticles(address _to, uint256 _amount, bytes memory _data) public returns (uint256[] memory) {\n        address _self = address(this);\n        uint256 i;\n        uint256 _tokenId;\n        uint256 _totalDai;\n        uint256[] memory _tokenIds = new uint256[](_amount);\n\n        for (i = 0; i < _amount; ++i) {\n            _totalDai = requiredFunding.add(_totalDai);\n\n            _tokenId = (totalMintedTokens + i + 1);\n            _tokenIds[i] = _tokenId;\n            _safeMint(_to, _tokenId, _data);\n        }\n        totalMintedTokens = totalMintedTokens + _amount;\n\n        if (_totalDai > 0) {\n            // Transfer DAI from User to Contract\n            _collectRequiredDai(msg.sender, _totalDai);\n\n            uint256 _balance = chai.balanceOf(_self);\n            for (i = 0; i < _amount; ++i) {\n                _tokenId = _tokenIds[i];\n\n                // Tokenize Interest\n                chai.join(_self, requiredFunding);\n\n                // Track Chai in each Token\n                 chaiBalanceByTokenId[_tokenId] = _totalChaiForToken(chai.balanceOf(_self).sub(_balance));\n                _balance = chai.balanceOf(_self);\n            }\n        }\n        return _tokenIds;\n    }\n\n    /***********************************|\n    |            Public Burn            |\n    |__________________________________*/\n\n    /**\n     * @notice Destroys a Particle and releases the underlying DAI + Interest (Mass + Charge)\n     * @param _tokenId      The ID of the token to burn\n     */\n    function burnParticle(uint256 _tokenId) public {\n        // Burn Token\n        _burn(msg.sender, _tokenId);\n\n        // Payout Dai + Interest\n        uint256 _tokenChai = chaiBalanceByTokenId[_tokenId];\n        chaiBalanceByTokenId[_tokenId] = 0;\n        _payoutFundedDai(msg.sender, _tokenChai);\n    }\n\n    /**\n     * @notice Destroys multiple Particles and releases the underlying DAI + Interest (Mass + Charge)\n     * @param _tokenIds     The IDs of the tokens to burn\n     */\n    function burnParticles(uint256[] memory _tokenIds) public {\n        uint256 _tokenId;\n        uint256 _totalChai;\n        for (uint256 i = 0; i < _tokenIds.length; ++i) {\n            _tokenId = _tokenIds[i];\n\n            // Burn Token\n            _burn(msg.sender, _tokenId);\n\n            // Payout Dai + Interest\n            _totalChai = _totalChai + chaiBalanceByTokenId[_tokenId];\n            chaiBalanceByTokenId[_tokenId] = 0;\n        }\n        _payoutFundedDai(msg.sender, _totalChai);\n    }\n\n    /***********************************|\n    |            Only Owner             |\n    |__________________________________*/\n\n    /**\n     * @dev Setup the DAI/CHAI contracts and configure the contract\n     */\n    function setup(address _daiAddress, address _chaiAddress, uint256 _mintFee, uint256 _requiredFunding) public onlyOwner {\n        address _self = address(this);\n\n        // Set DAI as Funding Token\n        dai = IERC20(_daiAddress);\n        chai = IChai(_chaiAddress);\n\n        // Setup Chai to Tokenize DAI Interest\n//        chai.approve(_self, uint(-1));\n        dai.approve(_self, uint(-1));\n//        dai.approve(_chaiAddress, uint(-1));\n\n        mintFee = _mintFee;\n        requiredFunding = _requiredFunding;\n    }\n\n    /**\n     * @dev Allows contract owner to withdraw any fees earned\n     */\n    function withdrawFees() public onlyOwner {\n        uint256 _balance = address(this).balance;\n        if (_balance > 0) {\n            msg.sender.transfer(_balance);\n        }\n        if (collectedFees > 0) {\n            _payoutFundedDai(msg.sender, collectedFees);\n            collectedFees = 0;\n        }\n    }\n\n    /**\n     * @notice Transfers the ownership of the contract to new address\n     * @param _newOwner Address of the new owner\n     */\n    function transferOwnership(address _newOwner) public onlyOwner {\n        require(_newOwner != address(0), \"E101\");\n        emit OwnershipTransferred(owner, _newOwner);\n        owner = _newOwner;\n    }\n\n    /***********************************|\n    |         Private Functions         |\n    |__________________________________*/\n\n    /**\n     * @dev Collects the Required DAI from the users wallet during Minting\n     * @param _from         The owner address to collect the DAI from\n     * @param _requiredDai  The amount of DAI to collect from the user\n     */\n    function _collectRequiredDai(address _from, uint256 _requiredDai) internal {\n        // Transfer DAI from User to Contract\n        uint256 _userDaiBalance = dai.balanceOf(_from);\n        require(_requiredDai <= _userDaiBalance, \"E404\");\n        require(dai.transferFrom(_from, address(this), _requiredDai), \"E405\");\n    }\n\n    /**\n     * @dev Pays out a specified amount of CHAI\n     * @param _to           The owner address to pay out to\n     * @param _totalChai    The total amount of CHAI to pay out\n     */\n    function _payoutFundedDai(address _to, uint256 _totalChai) internal {\n        address _self = address(this);\n\n        // Exit Chai and collect Dai + Interest\n        chai.exit(_self, _totalChai);\n\n        // Transfer Dai + Interest\n        uint256 _receivedDai = dai.balanceOf(_self);\n        require(dai.transferFrom(_self, _to, _receivedDai), \"E405\");\n    }\n\n    /**\n     * @dev Pays out a specified amount of DAI\n     * @param _to           The owner address to pay out to\n     * @param _totalDai     The total amount of DAI to pay out\n     */\n    function _payoutChargedDai(address _to, uint256 _totalDai) internal returns (uint256) {\n        address _self = address(this);\n\n        // Collect Interest\n        uint256 _chai = chai.draw(_self, _totalDai);\n\n        // Transfer Interest\n        uint256 _receivedDai = dai.balanceOf(_self);\n        require(dai.transferFrom(_self, _to, _receivedDai), \"E405\");\n        return _chai;\n    }\n\n    /**\n     * @dev Calculates the amount of DAI held within a token during minting\n     *      Note: Accounts for any contract fees\n     * @param _tokenChai    The total amount of DAI used to fund the token\n     * @return  The actual amount of DAI to fund the token - fees\n     */\n    function _totalChaiForToken(uint256 _tokenChai) internal returns (uint256) {\n        if (mintFee == 0) { return _tokenChai; }\n        uint256 _mintFee = (_tokenChai * mintFee) / 1e4;\n        collectedFees = collectedFees.add(_mintFee);\n        return _tokenChai.sub(_mintFee);\n    }\n}\n",
  "sourcePath": "/Users/robsecord/workspace/Ethereum/ChargedParticles/ChargedParticlesEth/contracts/ChargedParticlesERC721.sol",
  "compiler": {
    "name": "solc",
    "version": "0.5.13+commit.5b0b510c.Emscripten.clang"
  },
  "schemaVersion": "3.0.11",
  "updatedAt": "2020-01-13T05:32:32.730Z",
  "devdoc": {
    "methods": {
      "baseParticleMass()": {
        "return": "The Amount of DAI held in the Token"
      },
      "burnParticle(uint256)": {
        "params": {
          "_tokenId": "The ID of the token to burn"
        }
      },
      "burnParticles(uint256[])": {
        "params": {
          "_tokenIds": "The IDs of the tokens to burn"
        }
      },
      "currentParticleCharge(uint256)": {
        "params": {
          "_tokenId": "The ID of the Token"
        },
        "return": "The amount of interest the Token has generated"
      },
      "dischargeParticle(uint256)": {
        "params": {
          "_tokenId": "The ID of the Token"
        },
        "return": "The amount of interest released from the token"
      },
      "getContractOwner()": {
        "return": "The address of the owner"
      },
      "mintParticles(address,uint256,bytes)": {
        "params": {
          "_amount": "The amounts of tokens to mint",
          "_data": "Custom data used for transferring tokens into contracts",
          "_to": "The owner address to assign the new tokens to"
        },
        "return": "The IDs of the newly minted tokens"
      },
      "setup(address,address,uint256,uint256)": {
        "details": "Setup the DAI/CHAI contracts and configure the contract"
      },
      "transferOwnership(address)": {
        "params": {
          "_newOwner": "Address of the new owner"
        }
      },
      "withdrawFees()": {
        "details": "Allows contract owner to withdraw any fees earned"
      }
    }
  },
  "userdoc": {
    "methods": {
      "baseParticleMass()": {
        "notice": "Gets the Amount of Base DAI held in the Token (amount token was minted with)"
      },
      "burnParticle(uint256)": {
        "notice": "Destroys a Particle and releases the underlying DAI + Interest (Mass + Charge)"
      },
      "burnParticles(uint256[])": {
        "notice": "Destroys multiple Particles and releases the underlying DAI + Interest (Mass + Charge)"
      },
      "constructor": "*********************************| |          Initialization           | |__________________________________",
      "currentParticleCharge(uint256)": {
        "notice": "Gets the amount of interest the Token has generated (it's accumulated particle-charge)"
      },
      "dischargeParticle(uint256)": {
        "notice": "Allows the owner of the Token to collect the interest generated form the token without removing the underlying DAI that is held in the token"
      },
      "getContractOwner()": {
        "notice": "Gets the address of the contract owner."
      },
      "mintParticles(address,uint256,bytes)": {
        "notice": "Mints multiple new Particles"
      },
      "transferOwnership(address)": {
        "notice": "Transfers the ownership of the contract to new address"
      }
    },
    "notice": "Charged Particles Contract - Interest-Bearing NFTs -- ERC-721 Edition"
  }
}