{
  "contractName": "ChargedParticles",
  "abi": [
    {
      "inputs": [],
      "payable": false,
      "stateMutability": "nonpayable",
      "type": "constructor"
    },
    {
      "anonymous": false,
      "inputs": [
        {
          "indexed": true,
          "internalType": "address",
          "name": "_owner",
          "type": "address"
        },
        {
          "indexed": true,
          "internalType": "address",
          "name": "_operator",
          "type": "address"
        },
        {
          "indexed": false,
          "internalType": "bool",
          "name": "_approved",
          "type": "bool"
        }
      ],
      "name": "ApprovalForAll",
      "type": "event"
    },
    {
      "anonymous": false,
      "inputs": [
        {
          "indexed": true,
          "internalType": "address",
          "name": "previousOwner",
          "type": "address"
        },
        {
          "indexed": true,
          "internalType": "address",
          "name": "newOwner",
          "type": "address"
        }
      ],
      "name": "OwnershipTransferred",
      "type": "event"
    },
    {
      "anonymous": false,
      "inputs": [
        {
          "indexed": true,
          "internalType": "address",
          "name": "_operator",
          "type": "address"
        },
        {
          "indexed": true,
          "internalType": "address",
          "name": "_from",
          "type": "address"
        },
        {
          "indexed": true,
          "internalType": "address",
          "name": "_to",
          "type": "address"
        },
        {
          "indexed": false,
          "internalType": "uint256[]",
          "name": "_ids",
          "type": "uint256[]"
        },
        {
          "indexed": false,
          "internalType": "uint256[]",
          "name": "_amounts",
          "type": "uint256[]"
        }
      ],
      "name": "TransferBatch",
      "type": "event"
    },
    {
      "anonymous": false,
      "inputs": [
        {
          "indexed": true,
          "internalType": "address",
          "name": "_ownerOrOperator",
          "type": "address"
        },
        {
          "indexed": true,
          "internalType": "uint256",
          "name": "_fromTokenId",
          "type": "uint256"
        },
        {
          "indexed": true,
          "internalType": "uint256",
          "name": "_toTokenId",
          "type": "uint256"
        },
        {
          "indexed": false,
          "internalType": "uint256",
          "name": "_amount",
          "type": "uint256"
        }
      ],
      "name": "TransferCharge",
      "type": "event"
    },
    {
      "anonymous": false,
      "inputs": [
        {
          "indexed": true,
          "internalType": "address",
          "name": "_operator",
          "type": "address"
        },
        {
          "indexed": true,
          "internalType": "address",
          "name": "_from",
          "type": "address"
        },
        {
          "indexed": true,
          "internalType": "address",
          "name": "_to",
          "type": "address"
        },
        {
          "indexed": false,
          "internalType": "uint256",
          "name": "_id",
          "type": "uint256"
        },
        {
          "indexed": false,
          "internalType": "uint256",
          "name": "_amount",
          "type": "uint256"
        }
      ],
      "name": "TransferSingle",
      "type": "event"
    },
    {
      "anonymous": false,
      "inputs": [
        {
          "indexed": false,
          "internalType": "string",
          "name": "_uri",
          "type": "string"
        },
        {
          "indexed": true,
          "internalType": "uint256",
          "name": "_type",
          "type": "uint256"
        }
      ],
      "name": "URI",
      "type": "event"
    },
    {
      "constant": true,
      "inputs": [
        {
          "internalType": "address",
          "name": "_owner",
          "type": "address"
        },
        {
          "internalType": "uint256",
          "name": "_tokenId",
          "type": "uint256"
        }
      ],
      "name": "balanceOf",
      "outputs": [
        {
          "internalType": "uint256",
          "name": "",
          "type": "uint256"
        }
      ],
      "payable": false,
      "stateMutability": "view",
      "type": "function"
    },
    {
      "constant": true,
      "inputs": [
        {
          "internalType": "address[]",
          "name": "_owners",
          "type": "address[]"
        },
        {
          "internalType": "uint256[]",
          "name": "_tokenIds",
          "type": "uint256[]"
        }
      ],
      "name": "balanceOfBatch",
      "outputs": [
        {
          "internalType": "uint256[]",
          "name": "",
          "type": "uint256[]"
        }
      ],
      "payable": false,
      "stateMutability": "view",
      "type": "function"
    },
    {
      "constant": true,
      "inputs": [
        {
          "internalType": "address",
          "name": "_owner",
          "type": "address"
        },
        {
          "internalType": "address",
          "name": "_operator",
          "type": "address"
        }
      ],
      "name": "isApprovedForAll",
      "outputs": [
        {
          "internalType": "bool",
          "name": "isOperator",
          "type": "bool"
        }
      ],
      "payable": false,
      "stateMutability": "view",
      "type": "function"
    },
    {
      "constant": true,
      "inputs": [
        {
          "internalType": "uint256",
          "name": "_tokenId",
          "type": "uint256"
        }
      ],
      "name": "ownerOf",
      "outputs": [
        {
          "internalType": "address",
          "name": "",
          "type": "address"
        }
      ],
      "payable": false,
      "stateMutability": "view",
      "type": "function"
    },
    {
      "constant": false,
      "inputs": [
        {
          "internalType": "address",
          "name": "_from",
          "type": "address"
        },
        {
          "internalType": "address",
          "name": "_to",
          "type": "address"
        },
        {
          "internalType": "uint256[]",
          "name": "_ids",
          "type": "uint256[]"
        },
        {
          "internalType": "uint256[]",
          "name": "_amounts",
          "type": "uint256[]"
        },
        {
          "internalType": "bytes",
          "name": "_data",
          "type": "bytes"
        }
      ],
      "name": "safeBatchTransferFrom",
      "outputs": [],
      "payable": false,
      "stateMutability": "nonpayable",
      "type": "function"
    },
    {
      "constant": false,
      "inputs": [
        {
          "internalType": "address",
          "name": "_from",
          "type": "address"
        },
        {
          "internalType": "address",
          "name": "_to",
          "type": "address"
        },
        {
          "internalType": "uint256",
          "name": "_id",
          "type": "uint256"
        },
        {
          "internalType": "uint256",
          "name": "_amount",
          "type": "uint256"
        },
        {
          "internalType": "bytes",
          "name": "_data",
          "type": "bytes"
        }
      ],
      "name": "safeTransferFrom",
      "outputs": [],
      "payable": false,
      "stateMutability": "nonpayable",
      "type": "function"
    },
    {
      "constant": false,
      "inputs": [
        {
          "internalType": "address",
          "name": "_operator",
          "type": "address"
        },
        {
          "internalType": "bool",
          "name": "_approved",
          "type": "bool"
        }
      ],
      "name": "setApprovalForAll",
      "outputs": [],
      "payable": false,
      "stateMutability": "nonpayable",
      "type": "function"
    },
    {
      "constant": true,
      "inputs": [
        {
          "internalType": "bytes4",
          "name": "_interfaceID",
          "type": "bytes4"
        }
      ],
      "name": "supportsInterface",
      "outputs": [
        {
          "internalType": "bool",
          "name": "",
          "type": "bool"
        }
      ],
      "payable": false,
      "stateMutability": "view",
      "type": "function"
    },
    {
      "constant": true,
      "inputs": [
        {
          "internalType": "uint256",
          "name": "_tokenId",
          "type": "uint256"
        }
      ],
      "name": "uri",
      "outputs": [
        {
          "internalType": "string",
          "name": "",
          "type": "string"
        }
      ],
      "payable": false,
      "stateMutability": "view",
      "type": "function"
    },
    {
      "constant": true,
      "inputs": [],
      "name": "version",
      "outputs": [
        {
          "internalType": "bytes16",
          "name": "",
          "type": "bytes16"
        }
      ],
      "payable": false,
      "stateMutability": "view",
      "type": "function"
    },
    {
      "constant": true,
      "inputs": [],
      "name": "getContractOwner",
      "outputs": [
        {
          "internalType": "address",
          "name": "",
          "type": "address"
        }
      ],
      "payable": false,
      "stateMutability": "view",
      "type": "function"
    },
    {
      "constant": true,
      "inputs": [
        {
          "internalType": "uint256",
          "name": "_type",
          "type": "uint256"
        }
      ],
      "name": "getCreator",
      "outputs": [
        {
          "internalType": "address",
          "name": "",
          "type": "address"
        }
      ],
      "payable": false,
      "stateMutability": "view",
      "type": "function"
    },
    {
      "constant": true,
      "inputs": [
        {
          "internalType": "uint256",
          "name": "_type",
          "type": "uint256"
        },
        {
          "internalType": "uint256",
          "name": "_amount",
          "type": "uint256"
        }
      ],
      "name": "canMint",
      "outputs": [
        {
          "internalType": "bool",
          "name": "",
          "type": "bool"
        }
      ],
      "payable": false,
      "stateMutability": "view",
      "type": "function"
    },
    {
      "constant": true,
      "inputs": [
        {
          "internalType": "bool",
          "name": "_isNF",
          "type": "bool"
        }
      ],
      "name": "getCreationPrice",
      "outputs": [
        {
          "internalType": "uint256",
          "name": "eth",
          "type": "uint256"
        },
        {
          "internalType": "uint256",
          "name": "ion",
          "type": "uint256"
        }
      ],
      "payable": false,
      "stateMutability": "view",
      "type": "function"
    },
    {
      "constant": true,
      "inputs": [
        {
          "internalType": "uint256",
          "name": "_tokenId",
          "type": "uint256"
        }
      ],
      "name": "baseParticleMass",
      "outputs": [
        {
          "internalType": "uint256",
          "name": "",
          "type": "uint256"
        }
      ],
      "payable": false,
      "stateMutability": "view",
      "type": "function"
    },
    {
      "constant": false,
      "inputs": [
        {
          "internalType": "uint256",
          "name": "_tokenId",
          "type": "uint256"
        }
      ],
      "name": "currentParticleCharge",
      "outputs": [
        {
          "internalType": "uint256",
          "name": "",
          "type": "uint256"
        }
      ],
      "payable": false,
      "stateMutability": "nonpayable",
      "type": "function"
    },
    {
      "constant": false,
      "inputs": [
        {
          "internalType": "uint256",
          "name": "_tokenId",
          "type": "uint256"
        }
      ],
      "name": "dischargeParticle",
      "outputs": [
        {
          "internalType": "uint256",
          "name": "",
          "type": "uint256"
        }
      ],
      "payable": false,
      "stateMutability": "nonpayable",
      "type": "function"
    },
    {
      "constant": false,
      "inputs": [
        {
          "internalType": "string",
          "name": "_uri",
          "type": "string"
        },
        {
          "internalType": "bool",
          "name": "_isNF",
          "type": "bool"
        },
        {
          "internalType": "bool",
          "name": "_isPrivate",
          "type": "bool"
        },
        {
          "internalType": "uint256",
          "name": "_requiredDai",
          "type": "uint256"
        },
        {
          "internalType": "uint256",
          "name": "_maxSupply",
          "type": "uint256"
        }
      ],
      "name": "createParticleWithEther",
      "outputs": [
        {
          "internalType": "uint256",
          "name": "_particleTypeId",
          "type": "uint256"
        }
      ],
      "payable": true,
      "stateMutability": "payable",
      "type": "function"
    },
    {
      "constant": false,
      "inputs": [
        {
          "internalType": "string",
          "name": "_uri",
          "type": "string"
        },
        {
          "internalType": "bool",
          "name": "_isNF",
          "type": "bool"
        },
        {
          "internalType": "bool",
          "name": "_isPrivate",
          "type": "bool"
        },
        {
          "internalType": "uint256",
          "name": "_requiredDai",
          "type": "uint256"
        },
        {
          "internalType": "uint256",
          "name": "_maxSupply",
          "type": "uint256"
        }
      ],
      "name": "createParticleWithIons",
      "outputs": [
        {
          "internalType": "uint256",
          "name": "_particleTypeId",
          "type": "uint256"
        }
      ],
      "payable": false,
      "stateMutability": "nonpayable",
      "type": "function"
    },
    {
      "constant": false,
      "inputs": [
        {
          "internalType": "address",
          "name": "_to",
          "type": "address"
        },
        {
          "internalType": "uint256",
          "name": "_type",
          "type": "uint256"
        },
        {
          "internalType": "uint256",
          "name": "_amount",
          "type": "uint256"
        },
        {
          "internalType": "bytes",
          "name": "_data",
          "type": "bytes"
        }
      ],
      "name": "mintParticle",
      "outputs": [
        {
          "internalType": "uint256",
          "name": "",
          "type": "uint256"
        }
      ],
      "payable": false,
      "stateMutability": "nonpayable",
      "type": "function"
    },
    {
      "constant": false,
      "inputs": [
        {
          "internalType": "address",
          "name": "_to",
          "type": "address"
        },
        {
          "internalType": "uint256[]",
          "name": "_types",
          "type": "uint256[]"
        },
        {
          "internalType": "uint256[]",
          "name": "_amounts",
          "type": "uint256[]"
        },
        {
          "internalType": "bytes",
          "name": "_data",
          "type": "bytes"
        }
      ],
      "name": "mintParticles",
      "outputs": [
        {
          "internalType": "uint256[]",
          "name": "",
          "type": "uint256[]"
        }
      ],
      "payable": false,
      "stateMutability": "nonpayable",
      "type": "function"
    },
    {
      "constant": false,
      "inputs": [
        {
          "internalType": "uint256",
          "name": "_tokenId",
          "type": "uint256"
        },
        {
          "internalType": "uint256",
          "name": "_amount",
          "type": "uint256"
        }
      ],
      "name": "burnParticle",
      "outputs": [],
      "payable": false,
      "stateMutability": "nonpayable",
      "type": "function"
    },
    {
      "constant": false,
      "inputs": [
        {
          "internalType": "uint256[]",
          "name": "_tokenIds",
          "type": "uint256[]"
        },
        {
          "internalType": "uint256[]",
          "name": "_amounts",
          "type": "uint256[]"
        }
      ],
      "name": "burnParticles",
      "outputs": [],
      "payable": false,
      "stateMutability": "nonpayable",
      "type": "function"
    },
    {
      "constant": false,
      "inputs": [
        {
          "internalType": "address",
          "name": "_from",
          "type": "address"
        },
        {
          "internalType": "uint256",
          "name": "_fromTokenId",
          "type": "uint256"
        },
        {
          "internalType": "uint256",
          "name": "_toTokenId",
          "type": "uint256"
        }
      ],
      "name": "transferCharge",
      "outputs": [],
      "payable": false,
      "stateMutability": "nonpayable",
      "type": "function"
    },
    {
      "constant": false,
      "inputs": [
        {
          "internalType": "address",
          "name": "_from",
          "type": "address"
        },
        {
          "internalType": "uint256",
          "name": "_fromTokenId",
          "type": "uint256"
        },
        {
          "internalType": "uint256",
          "name": "_toTokenId",
          "type": "uint256"
        },
        {
          "internalType": "uint256",
          "name": "_amount",
          "type": "uint256"
        }
      ],
      "name": "transferCharge",
      "outputs": [],
      "payable": false,
      "stateMutability": "nonpayable",
      "type": "function"
    },
    {
      "constant": false,
      "inputs": [
        {
          "internalType": "address",
          "name": "_daiAddress",
          "type": "address"
        },
        {
          "internalType": "address",
          "name": "_chaiAddress",
          "type": "address"
        },
        {
          "internalType": "uint256",
          "name": "_createFeeEth",
          "type": "uint256"
        },
        {
          "internalType": "uint256",
          "name": "_createFeeIon",
          "type": "uint256"
        },
        {
          "internalType": "uint256",
          "name": "_mintFee",
          "type": "uint256"
        }
      ],
      "name": "setup",
      "outputs": [],
      "payable": false,
      "stateMutability": "nonpayable",
      "type": "function"
    },
    {
      "constant": false,
      "inputs": [
        {
          "internalType": "string",
          "name": "_uri",
          "type": "string"
        },
        {
          "internalType": "uint256",
          "name": "_amount",
          "type": "uint256"
        }
      ],
      "name": "mintIons",
      "outputs": [
        {
          "internalType": "uint256",
          "name": "",
          "type": "uint256"
        }
      ],
      "payable": false,
      "stateMutability": "nonpayable",
      "type": "function"
    },
    {
      "constant": false,
      "inputs": [],
      "name": "withdrawFees",
      "outputs": [],
      "payable": false,
      "stateMutability": "nonpayable",
      "type": "function"
    },
    {
      "constant": false,
      "inputs": [
        {
          "internalType": "address",
          "name": "_newOwner",
          "type": "address"
        }
      ],
      "name": "transferOwnership",
      "outputs": [],
      "payable": false,
      "stateMutability": "nonpayable",
      "type": "function"
    }
  ],
  "bytecode": "0x6080604052601480546001600160801b0319166f76302e302e330000000000000000000017905534801561003257600080fd5b50601380546001600160a01b0319163317908190556040516001600160a01b0391909116906000907f8be0079c531659141344cd1fd0a4f28419497f9722a3daafe3b4186f6b6457e0908290a3613f808061008e6000396000f3fe6080604052600436106101c15760003560e01c80637162dbac116100f7578063a22cb46511610095578063e296606111610064578063e29660611461051f578063e985e9c51461053f578063f242432a1461055f578063f2fde38b1461057f576101c1565b8063a22cb4651461049f578063af4bd492146104bf578063b4721923146104df578063d48e638a146104ff576101c1565b80638f0cae75116100d15780638f0cae751461041e5780639494a9231461043e57806395b3ec21146104515780639687c1b114610471576101c1565b80637162dbac146103be578063810174ac146103de5780638c060bb7146103fe576101c1565b80632eb2c2d6116101645780634e1273f41161013e5780634e1273f41461032f5780634e5557d71461035c57806354fd4d501461037c5780636352211e1461039e576101c1565b80632eb2c2d6146102d8578063442890d5146102f8578063476343ee1461031a576101c1565b806311c5ee2e116101a057806311c5ee2e146102565780631d47d61a1461027857806322e1dea914610298578063265e41fb146102b8576101c1565b8062fdd58e146101c657806301ffc9a7146101fc5780630e89341c14610229575b600080fd5b3480156101d257600080fd5b506101e66101e136600461336b565b61059f565b6040516101f39190613d92565b60405180910390f35b34801561020857600080fd5b5061021c61021736600461354f565b610624565b6040516101f39190613c15565b34801561023557600080fd5b5061024961024436600461361c565b61066b565b6040516101f39190613c31565b34801561026257600080fd5b5061027661027136600461339b565b6106b9565b005b34801561028457600080fd5b50610276610293366004613658565b610719565b3480156102a457600080fd5b5061021c6102b3366004613658565b61078d565b3480156102c457600080fd5b506101e66102d33660046133e8565b61085c565b3480156102e457600080fd5b506102766102f336600461311c565b610a62565b34801561030457600080fd5b5061030d610ae0565b6040516101f39190613af2565b34801561032657600080fd5b50610276610af0565b34801561033b57600080fd5b5061034f61034a366004613481565b610b6e565b6040516101f39190613bdf565b34801561036857600080fd5b506101e661037736600461358b565b610cdf565b34801561038857600080fd5b50610391610d11565b6040516101f39190613c23565b3480156103aa57600080fd5b5061030d6103b936600461361c565b610d1a565b3480156103ca57600080fd5b506102766103d936600461322d565b610d5d565b3480156103ea57600080fd5b506101e66103f936600461361c565b610e42565b34801561040a57600080fd5b506101e661041936600461361c565b610e5e565b34801561042a57600080fd5b5061034f610439366004613295565b610f17565b6101e661044c36600461358b565b611266565b34801561045d57600080fd5b506101e661046c36600461361c565b6112f9565b34801561047d57600080fd5b5061049161048c366004613513565b61142d565b6040516101f3929190613dbb565b3480156104ab57600080fd5b506102766104ba36600461333b565b61147b565b3480156104cb57600080fd5b506101e66104da3660046135e7565b6114ea565b3480156104eb57600080fd5b506102766104fa3660046134de565b61158b565b34801561050b57600080fd5b5061030d61051a36600461361c565b611654565b34801561052b57600080fd5b5061027661053a36600461342c565b61166f565b34801561054b57600080fd5b5061021c61055a3660046130e2565b6116b3565b34801561056b57600080fd5b5061027661057a3660046131d6565b6116e1565b34801561058b57600080fd5b5061027661059a3660046130c4565b611758565b6000600160ff1b8083161480156105be57506001600160801b03821615155b156105f8576000828152600360205260409020546001600160a01b038481169116146105eb5760006105ee565b60015b60ff16905061061e565b506001600160a01b03821660009081526001602090815260408083208484529091529020545b92915050565b60006001600160e01b031982166301ffc9a760e01b148061065557506001600160e01b03198216636cdb3d1360e11b145b1561066257506001610666565b5060005b919050565b6001600160801b0319811660008181526005602052604090206060919061069184611804565b6040516020016106a2929190613acf565b604051602081830303815290604052915050919050565b336001600160a01b03841614806106d557506106d583336116b3565b6106fa5760405162461bcd60e51b81526004016106f190613d32565b60405180910390fd5b6000610705836112f9565b9050610713848484846118c7565b50505050565b6001600160801b031982166000818152600c602052604090205460ff166107525760405162461bcd60e51b81526004016106f190613cc2565b61075d338484611a8d565b600160ff1b8084161415610788576000838152600a6020526040812080549190556107133382611bef565b505050565b6000828152600c602052604081205460ff16600114156107fa576000838152600b6020526040902054156107f2576000838152600b60205260409020546107da908363ffffffff611d7916565b6000848152600460205260409020541115905061061e565b50600161061e565b6000838152600860205260409020546001600160a01b031633146108205750600061061e565b6000838152600b602052604090205415610853576000838152600b60205260409020546107da908363ffffffff611d7916565b50600192915050565b6000610868848461078d565b6108845760405162461bcd60e51b81526004016106f190613d82565b30600061089387878787611da5565b9050600160ff1b8082161415610a56576000868152600960205260409020546108bc3382611ef8565b6007546040516370a0823160e01b81526000916001600160a01b0316906370a08231906108ed908790600401613af2565b602060405180830381600087803b15801561090757600080fd5b505af115801561091b573d6000803e3d6000fd5b505050506040513d601f19601f8201168201806040525061093f919081019061363a565b600754604051633b4da69f60e01b81529192506001600160a01b031690633b4da69f906109729087908690600401613bc4565b600060405180830381600087803b15801561098c57600080fd5b505af11580156109a0573d6000803e3d6000fd5b50506007546040516370a0823160e01b8152600093506001600160a01b0390911691506370a08231906109d7908890600401613af2565b602060405180830381600087803b1580156109f157600080fd5b505af1158015610a05573d6000803e3d6000fd5b505050506040513d601f19601f82011682018060405250610a29919081019061363a565b9050610a43610a3e828463ffffffff61203d16565b612066565b6000858152600a60205260409020555050505b9150505b949350505050565b336001600160a01b0386161480610a7e5750610a7e85336116b3565b610a9a5760405162461bcd60e51b81526004016106f190613d32565b6001600160a01b038416610ac05760405162461bcd60e51b81526004016106f190613d52565b610acc858585856120cc565b610ad985858585856122c6565b5050505050565b6013546001600160a01b03165b90565b6013546001600160a01b03163314610b1a5760405162461bcd60e51b81526004016106f190613c52565b30318015610b5157604051339082156108fc029083906000818181858888f19350505050158015610b4f573d6000803e3d6000fd5b505b60115415610b6b57610b6533601154611bef565b60006011555b50565b60608151835114610b915760405162461bcd60e51b81526004016106f190613d12565b60608351604051908082528060200260200182016040528015610bbe578160200160208202803883390190505b50905060005b8451811015610cd7576000848281518110610bdb57fe5b60200260200101519050600160ff1b808216148015610c0257506001600160801b03811615155b15610c6b57858281518110610c1357fe5b602090810291909101810151600083815260039092526040909120546001600160a01b03908116911614610c48576000610c4b565b60015b60ff16838381518110610c5a57fe5b602002602001018181525050610cce565b60016000878481518110610c7b57fe5b60200260200101516001600160a01b03166001600160a01b03168152602001908152602001600020600082815260200190815260200160002054838381518110610cc157fe5b6020026020010181815250505b50600101610bc4565b509392505050565b600080610ceb8661142d565b915050610cf833826123a0565b610d063388888888886123b1565b979650505050505050565b60145460801b81565b6000600160ff1b80831614610d415760405162461bcd60e51b81526004016106f190613d02565b506000908152600360205260409020546001600160a01b031690565b6013546001600160a01b03163314610d875760405162461bcd60e51b81526004016106f190613c52565b600680546001600160a01b038088166001600160a01b031992831617928390556007805488831693169290921790915560405163095ea7b360e01b815291169063095ea7b390610ddf90879060001990600401613bc4565b602060405180830381600087803b158015610df957600080fd5b505af1158015610e0d573d6000803e3d6000fd5b505050506040513d601f19601f82011682018060405250610e319190810190613531565b50600e92909255600f556010555050565b6001600160801b03191660009081526009602052604090205490565b600080610e6a83610d1a565b90506001600160a01b038116331480610e885750610e8881336116b3565b610ea45760405162461bcd60e51b81526004016106f190613ca2565b6000610eaf846112f9565b905060008111610ed15760405162461bcd60e51b81526004016106f190613cb2565b6000610edd3383612475565b6000868152600a6020526040902054909150610eff908263ffffffff61203d16565b6000868152600a602052604090205550915050919050565b82516060903090600090819081908190819081905b80871015610fb4578b8781518110610f4057fe5b602002602001015195508a8781518110610f5657fe5b60200260200101519450610f6a868661078d565b610f865760405162461bcd60e51b81526004016106f190613d82565b6000868152600960205260409020549150610fa7828463ffffffff611d7916565b9250866001019650610f2c565b6060610fc28e8e8e8e612630565b9050831561125557610fd43385611ef8565b6007546040516370a0823160e01b81526000916001600160a01b0316906370a0823190611005908d90600401613af2565b602060405180830381600087803b15801561101f57600080fd5b505af1158015611033573d6000803e3d6000fd5b505050506040513d601f19601f82011682018060405250611057919081019061363a565b9050600098505b828910156112535781898151811061107257fe5b6020908102919091018101516001600160801b031981166000818152600990935260409092205491995096509350831561124857600754604051633b4da69f60e01b81526001600160a01b0390911690633b4da69f906110d8908d908890600401613bc4565b600060405180830381600087803b1580156110f257600080fd5b505af1158015611106573d6000803e3d6000fd5b505050506111b0610a3e82600760009054906101000a90046001600160a01b03166001600160a01b03166370a082318e6040518263ffffffff1660e01b81526004016111529190613af2565b602060405180830381600087803b15801561116c57600080fd5b505af1158015611180573d6000803e3d6000fd5b505050506040513d601f19601f820116820180604052506111a4919081019061363a565b9063ffffffff61203d16565b6000878152600a6020526040908190209190915560075490516370a0823160e01b81526001600160a01b03909116906370a08231906111f3908d90600401613af2565b602060405180830381600087803b15801561120d57600080fd5b505af1158015611221573d6000803e3d6000fd5b505050506040513d601f19601f82011682018060405250611245919081019061363a565b90505b88600101985061105e565b505b9d9c50505050505050505050505050565b6000806112728661142d565b509050803410156112955760405162461bcd60e51b81526004016106f190613c72565b6112a33388888888886123b1565b915060006112b7348363ffffffff61203d16565b905080156112ee57604051339082156108fc029083906000818181858888f193505050501580156112ec573d6000803e3d6000fd5b505b505095945050505050565b6001600160801b031981166000818152600c602052604081205490919060ff166113355760405162461bcd60e51b81526004016106f190613cc2565b6000818152600960205260409020546113605760405162461bcd60e51b81526004016106f190613cc2565b6007546000848152600a6020526040808220549051631043b2cb60e01b815291926001600160a01b031691631043b2cb9161139d91600401613d92565b602060405180830381600087803b1580156113b757600080fd5b505af11580156113cb573d6000803e3d6000fd5b505050506040513d601f19601f820116820180604052506113ef919081019061363a565b6000838152600960205260409020549091508181106114145760009350505050610666565b611424828263ffffffff61203d16565b95945050505050565b6000808261143d57600e54611451565b600e5461145190600263ffffffff61289e16565b91508261146057600f54611474565b600f5461147490600263ffffffff61289e16565b9050915091565b3360008181526002602090815260408083206001600160a01b038716808552925291829020805460ff191685151517905590519091907f17307eab39ab6107e8899845ad3d59bd9653f200f220920489ca2b5937696c31906114de908590613c15565b60405180910390a35050565b6013546000906001600160a01b031633146115175760405162461bcd60e51b81526004016106f190613c52565b601354611533906001600160a01b0316846000600181876123b1565b6012819055601354604080516020810190915260008152611562926001600160a01b0390921691908590611da5565b505060128054600090815260086020526040902080546001600160a01b03191690555492915050565b81516000908190815b81811015611638578581815181106115a857fe5b6020908102919091018101516001600160801b031981166000908152600c90925260409091205490945060ff166115f15760405162461bcd60e51b81526004016106f190613cc2565b600160ff1b8085161415611630576000848152600a602052604090205461161e908463ffffffff611d7916565b6000858152600a602052604081205592505b600101611594565b506116443386866128d8565b8115610ad957610ad93383611bef565b6000908152600860205260409020546001600160a01b031690565b336001600160a01b038516148061168b575061168b84336116b3565b6116a75760405162461bcd60e51b81526004016106f190613d32565b610713848484846118c7565b6001600160a01b03918216600090815260026020908152604080832093909416825291909152205460ff1690565b336001600160a01b03861614806116fd57506116fd85336116b3565b6117195760405162461bcd60e51b81526004016106f190613d32565b6001600160a01b03841661173f5760405162461bcd60e51b81526004016106f190613d52565b61174b85858585612ac0565b610ad98585858585612c41565b6013546001600160a01b031633146117825760405162461bcd60e51b81526004016106f190613c52565b6001600160a01b0381166117a85760405162461bcd60e51b81526004016106f190613c92565b6013546040516001600160a01b038084169216907f8be0079c531659141344cd1fd0a4f28419497f9722a3daafe3b4186f6b6457e090600090a3601380546001600160a01b0319166001600160a01b0392909216919091179055565b60608161182957506040805180820190915260018152600360fc1b6020820152610666565b818060005b821561184257600101600a8304925061182e565b6060816040519080825280601f01601f19166020018201604052801561186f576020820181803883390190505b50905060001982015b83156118bd57600a840660300160f81b8282806001900393508151811061189b57fe5b60200101906001600160f81b031916908160001a905350600a84049350611878565b5095945050505050565b60006118d2846112f9565b9050600081116118f45760405162461bcd60e51b81526004016106f190613cb2565b818110156119145760405162461bcd60e51b81526004016106f190613c82565b600160ff1b808516146119395760405162461bcd60e51b81526004016106f190613cd2565b600160ff1b8084161461195e5760405162461bcd60e51b81526004016106f190613cd2565b600754604051630cbd311760e31b81526000916001600160a01b0316906365e988b89061198f908690600401613d92565b602060405180830381600087803b1580156119a957600080fd5b505af11580156119bd573d6000803e3d6000fd5b505050506040513d601f19601f820116820180604052506119e1919081019061363a565b6000868152600a6020526040902054909150611a03908263ffffffff61203d16565b6000868152600a6020526040808220929092558581522054611a2b908263ffffffff611d7916565b600a6000868152602001908152602001600020819055508385876001600160a01b03167f31c818ee42263b23835f0589fd5fd4721c918aabc0051d8e50c9607851d31ff786604051611a7d9190613d92565b60405180910390a4505050505050565b600160ff1b8083161415611af857826001600160a01b0316611aae83610d1a565b6001600160a01b031614611ad45760405162461bcd60e51b81526004016106f190613d32565b50600081815260036020526040902080546001600160a01b03191690556001611ba4565b80611b03848461059f565b1015611b215760405162461bcd60e51b81526004016106f190613c42565b600082815260046020526040902054611b40908263ffffffff61203d16565b6000838152600460209081526040808320939093556001600160a01b03861682526001815282822085835290522054611b7f908263ffffffff61203d16565b6001600160a01b03841660009081526001602090815260408083208684529091529020555b60006001600160a01b0316836001600160a01b0316336001600160a01b0316600080516020613f1e8339815191528585604051611be2929190613dbb565b60405180910390a4505050565b60075460405163ef693bed60e01b815230916001600160a01b03169063ef693bed90611c219084908690600401613bc4565b600060405180830381600087803b158015611c3b57600080fd5b505af1158015611c4f573d6000803e3d6000fd5b50506006546040516370a0823160e01b8152600093506001600160a01b0390911691506370a0823190611c86908590600401613af2565b60206040518083038186803b158015611c9e57600080fd5b505afa158015611cb2573d6000803e3d6000fd5b505050506040513d601f19601f82011682018060405250611cd6919081019061363a565b6006546040516323b872dd60e01b81529192506001600160a01b0316906323b872dd90611d0b90859088908690600401613b9c565b602060405180830381600087803b158015611d2557600080fd5b505af1158015611d39573d6000803e3d6000fd5b505050506040513d601f19601f82011682018060405250611d5d9190810190613531565b6107135760405162461bcd60e51b81526004016106f190613c62565b600082820183811015611d9e5760405162461bcd60e51b81526004016106f190613cf2565b9392505050565b600080600160ff1b8086161415611e1e57600085815260046020526040812054611dd690600163ffffffff611d7916565b6000878152600460209081526040808320849055928917808352600390915291902080546001600160a01b0319166001600160a01b038a16179055600195509150611ea49050565b506000848152600460205260409020548490611e40908563ffffffff611d7916565b6000868152600460209081526040808320939093556001600160a01b03891682526001815282822088835290522054611e7f908563ffffffff611d7916565b6001600160a01b03871660009081526001602090815260408083208984529091529020555b856001600160a01b031660006001600160a01b0316336001600160a01b0316600080516020613f1e8339815191528488604051611ee2929190613dbb565b60405180910390a4611424600087838787612c41565b6006546040516370a0823160e01b81526000916001600160a01b0316906370a0823190611f29908690600401613af2565b60206040518083038186803b158015611f4157600080fd5b505afa158015611f55573d6000803e3d6000fd5b505050506040513d601f19601f82011682018060405250611f79919081019061363a565b905080821115611f9b5760405162461bcd60e51b81526004016106f190613d62565b6006546040516323b872dd60e01b81526001600160a01b03909116906323b872dd90611fcf90869030908790600401613b9c565b602060405180830381600087803b158015611fe957600080fd5b505af1158015611ffd573d6000803e3d6000fd5b505050506040513d601f19601f820116820180604052506120219190810190613531565b6107885760405162461bcd60e51b81526004016106f190613c62565b6000611d9e8383604051806040016040528060048152602001632299181960e11b815250612d13565b60006010546000141561207a575080610666565b60006120a36127106120976010548661289e90919063ffffffff16565b9063ffffffff612d3f16565b6011549091506120b9908263ffffffff611d7916565b601155611d9e838263ffffffff61203d16565b80518251146120ed5760405162461bcd60e51b81526004016106f190613d12565b81516000908190815b818110156122655785818151811061210a57fe5b6020026020010151935084818151811061212057fe5b60200260200101519250600160ff1b808516141561218a576000848152600360205260409020546001600160a01b0389811691161461215e57600080fd5b600084815260036020526040902080546001600160a01b0319166001600160a01b03891617905561225d565b6001600160a01b03881660009081526001602090815260408083208784529091529020548311156121ba57600080fd5b6001600160a01b03881660009081526001602090815260408083208784529091529020546121ee908463ffffffff61203d16565b6001600160a01b03808a1660009081526001602081815260408084208a8552825280842095909555928b16825282528281208782529091522054612238908463ffffffff611d7916565b6001600160a01b03881660009081526001602090815260408083208884529091529020555b6001016120f6565b50856001600160a01b0316876001600160a01b0316336001600160a01b03167f4a39dc06d4c0dbc64b70af90fd698a233a518aa5d07e595d983b8c0526c8f7fb88886040516122b5929190613bf0565b60405180910390a450505050505050565b6122d8846001600160a01b0316612d68565b15610ad95760405163bc197c8160e01b81526000906001600160a01b0386169063bc197c81906123149033908a90899089908990600401613b00565b602060405180830381600087803b15801561232e57600080fd5b505af1158015612342573d6000803e3d6000fd5b505050506040513d601f19601f82011682018060405250612366919081019061356d565b90506001600160e01b0319811663bc197c8160e01b146123985760405162461bcd60e51b81526004016106f190613d72565b505050505050565b6123ad8260125483611a8d565b5050565b60008415806123cb57508480156123cb5750620f42408310155b6123e75760405162461bcd60e51b81526004016106f190613ce2565b6123f18686612d9f565b9050836123ff576001612402565b60025b6000828152600c60209081526040808320805460ff191660ff95909516949094179093556008815282822080546001600160a01b0319166001600160a01b038c16179055600b9052208290558461245a57600061245c565b825b6000828152600960205260409020559695505050505050565b600754604051631280dc1f60e21b8152600091309183916001600160a01b031690634a03707c906124ac9085908890600401613bc4565b602060405180830381600087803b1580156124c657600080fd5b505af11580156124da573d6000803e3d6000fd5b505050506040513d601f19601f820116820180604052506124fe919081019061363a565b6006546040516370a0823160e01b81529192506000916001600160a01b03909116906370a0823190612534908690600401613af2565b60206040518083038186803b15801561254c57600080fd5b505afa158015612560573d6000803e3d6000fd5b505050506040513d601f19601f82011682018060405250612584919081019061363a565b6006546040516323b872dd60e01b81529192506001600160a01b0316906323b872dd906125b99086908a908690600401613b9c565b602060405180830381600087803b1580156125d357600080fd5b505af11580156125e7573d6000803e3d6000fd5b505050506040513d601f19601f8201168201806040525061260b9190810190613531565b6126275760405162461bcd60e51b81526004016106f190613c62565b50949350505050565b606082518451146126535760405162461bcd60e51b81526004016106f190613d12565b60008060008060008851905060608160405190808252806020026020018201604052801561268b578160200160208202803883390190505b50905060005b82811015612829578a81815181106126a557fe5b602002602001015196508981815181106126bb57fe5b60200260200101519550600160ff1b8088161415612782576000878152600460205260409020546126f390600163ffffffff611d7916565b945084600460008981526020019081526020016000208190555084871793508b6003600086815260200190815260200160002060006101000a8154816001600160a01b0302191690836001600160a01b031602179055508382828151811061275757fe5b60200260200101818152505060018a828151811061277157fe5b602002602001018181525050612821565b8682828151811061278f57fe5b6020908102919091018101919091526000888152600490915260409020546127bd908763ffffffff611d7916565b6000888152600460209081526040808320939093556001600160a01b038f168252600181528282208a8352905220546127fc908763ffffffff611d7916565b6001600160a01b038d1660009081526001602090815260408083208b84529091529020555b600101612691565b508a6001600160a01b031660006001600160a01b0316336001600160a01b03167f4a39dc06d4c0dbc64b70af90fd698a233a518aa5d07e595d983b8c0526c8f7fb848d60405161287a929190613bf0565b60405180910390a461289060008c838c8c6122c6565b9a9950505050505050505050565b6000826128ad5750600061061e565b828202828482816128ba57fe5b0414611d9e5760405162461bcd60e51b81526004016106f190613d42565b80518251146128f95760405162461bcd60e51b81526004016106f190613d12565b81516000908190815b81811015612a6f5785818151811061291657fe5b6020026020010151925084818151811061292c57fe5b60200260200101519350600160ff1b80841614156129bb57866001600160a01b031661295784610d1a565b6001600160a01b03161461297d5760405162461bcd60e51b81526004016106f190613d32565b600083815260036020526040902080546001600160a01b031916905584516001908690839081106129aa57fe5b602002602001018181525050612a67565b836129c6888561059f565b10156129e45760405162461bcd60e51b81526004016106f190613c42565b600083815260046020526040902054612a03908563ffffffff61203d16565b6000848152600460209081526040808320939093556001600160a01b038a1682526001815282822086835290522054612a42908563ffffffff61203d16565b6001600160a01b03881660009081526001602090815260408083208784529091529020555b600101612902565b5060006001600160a01b0316866001600160a01b0316336001600160a01b03167f4a39dc06d4c0dbc64b70af90fd698a233a518aa5d07e595d983b8c0526c8f7fb8888604051611a7d929190613bf0565b600160ff1b8083161415612b23576000828152600360205260409020546001600160a01b03858116911614612af457600080fd5b50600081815260036020526040902080546001600160a01b0319166001600160a01b0384161790556001612bf6565b6001600160a01b0384166000908152600160209081526040808320858452909152902054811115612b5357600080fd5b6001600160a01b0384166000908152600160209081526040808320858452909152902054612b87908263ffffffff61203d16565b6001600160a01b038086166000908152600160208181526040808420888552825280842095909555928716825282528281208582529091522054612bd1908263ffffffff611d7916565b6001600160a01b03841660009081526001602090815260408083208684529091529020555b826001600160a01b0316846001600160a01b0316336001600160a01b0316600080516020613f1e8339815191528585604051612c33929190613dbb565b60405180910390a450505050565b612c53846001600160a01b0316612d68565b15610ad95760405163f23a6e6160e01b81526000906001600160a01b0386169063f23a6e6190612c8f9033908a90899089908990600401613b55565b602060405180830381600087803b158015612ca957600080fd5b505af1158015612cbd573d6000803e3d6000fd5b505050506040513d601f19601f82011682018060405250612ce1919081019061356d565b90506001600160e01b0319811663f23a6e6160e01b146123985760405162461bcd60e51b81526004016106f190613d72565b60008184841115612d375760405162461bcd60e51b81526004016106f19190613c31565b505050900390565b6000611d9e838360405180604001604052806004815260200163114c8c0d60e21b815250612e6a565b6000813f7fc5d2460186f7233c927e7db2dcc703c0e500b653ca82273b7bfad8045d85a4708115801590610a5a5750141592915050565b600080835111612dc15760405162461bcd60e51b81526004016106f190613d22565b50600080546001019081905560801b8115612ddd57600160ff1b175b60008181526005602090815260409091208451612dfc92860190612ea1565b5060405160009081903390600080516020613f1e83398151915290612e249086908590613da0565b60405180910390a4807f6bb7ff708619ba0610cba295a58592e0451dee2622938c8755667688daf3529b84604051612e5c9190613c31565b60405180910390a292915050565b60008183612e8b5760405162461bcd60e51b81526004016106f19190613c31565b506000838581612e9757fe5b0495945050505050565b828054600181600116156101000203166002900490600052602060002090601f016020900481019282601f10612ee257805160ff1916838001178555612f0f565b82800160010185558215612f0f579182015b82811115612f0f578251825591602001919060010190612ef4565b50612f1b929150612f1f565b5090565b610aed91905b80821115612f1b5760008155600101612f25565b803561061e81613eee565b600082601f830112612f5557600080fd5b8135612f68612f6382613def565b613dc9565b91508181835260208401935060208101905083856020840282011115612f8d57600080fd5b60005b83811015612fb95781612fa38882612f39565b8452506020928301929190910190600101612f90565b5050505092915050565b600082601f830112612fd457600080fd5b8135612fe2612f6382613def565b9150818183526020840193506020810190508385602084028201111561300757600080fd5b60005b83811015612fb9578161301d88826130ae565b845250602092830192919091019060010161300a565b803561061e81613f02565b805161061e81613f02565b803561061e81613f0b565b805161061e81613f0b565b600082601f83011261307057600080fd5b813561307e612f6382613e0f565b9150808252602083016020830185838301111561309a57600080fd5b6130a5838284613eac565b50505092915050565b803561061e81613f14565b805161061e81613f14565b6000602082840312156130d657600080fd5b6000610a5a8484612f39565b600080604083850312156130f557600080fd5b60006131018585612f39565b925050602061311285828601612f39565b9150509250929050565b600080600080600060a0868803121561313457600080fd5b60006131408888612f39565b955050602061315188828901612f39565b94505060408601356001600160401b0381111561316d57600080fd5b61317988828901612fc3565b93505060608601356001600160401b0381111561319557600080fd5b6131a188828901612fc3565b92505060808601356001600160401b038111156131bd57600080fd5b6131c98882890161305f565b9150509295509295909350565b600080600080600060a086880312156131ee57600080fd5b60006131fa8888612f39565b955050602061320b88828901612f39565b945050604061321c888289016130ae565b93505060606131a1888289016130ae565b600080600080600060a0868803121561324557600080fd5b60006132518888612f39565b955050602061326288828901612f39565b9450506040613273888289016130ae565b9350506060613284888289016130ae565b92505060806131c9888289016130ae565b600080600080608085870312156132ab57600080fd5b60006132b78787612f39565b94505060208501356001600160401b038111156132d357600080fd5b6132df87828801612fc3565b93505060408501356001600160401b038111156132fb57600080fd5b61330787828801612fc3565b92505060608501356001600160401b0381111561332357600080fd5b61332f8782880161305f565b91505092959194509250565b6000806040838503121561334e57600080fd5b600061335a8585612f39565b925050602061311285828601613033565b6000806040838503121561337e57600080fd5b600061338a8585612f39565b9250506020613112858286016130ae565b6000806000606084860312156133b057600080fd5b60006133bc8686612f39565b93505060206133cd868287016130ae565b92505060406133de868287016130ae565b9150509250925092565b600080600080608085870312156133fe57600080fd5b600061340a8787612f39565b945050602061341b878288016130ae565b9350506040613307878288016130ae565b6000806000806080858703121561344257600080fd5b600061344e8787612f39565b945050602061345f878288016130ae565b9350506040613470878288016130ae565b925050606061332f878288016130ae565b6000806040838503121561349457600080fd5b82356001600160401b038111156134aa57600080fd5b6134b685828601612f44565b92505060208301356001600160401b038111156134d257600080fd5b61311285828601612fc3565b600080604083850312156134f157600080fd5b82356001600160401b0381111561350757600080fd5b6134b685828601612fc3565b60006020828403121561352557600080fd5b6000610a5a8484613033565b60006020828403121561354357600080fd5b6000610a5a848461303e565b60006020828403121561356157600080fd5b6000610a5a8484613049565b60006020828403121561357f57600080fd5b6000610a5a8484613054565b600080600080600060a086880312156135a357600080fd5b85356001600160401b038111156135b957600080fd5b6135c58882890161305f565b95505060206135d688828901613033565b945050604061327388828901613033565b600080604083850312156135fa57600080fd5b82356001600160401b0381111561361057600080fd5b61338a8582860161305f565b60006020828403121561362e57600080fd5b6000610a5a84846130ae565b60006020828403121561364c57600080fd5b6000610a5a84846130b9565b6000806040838503121561366b57600080fd5b600061338a85856130ae565b60006136838383613ac6565b505060200190565b61369481613e8b565b82525050565b61369481613e55565b60006136ae82613e48565b6136b88185613e4c565b93506136c383613e36565b8060005b838110156136f15781516136db8882613677565b97506136e683613e36565b9250506001016136c7565b509495945050505050565b61369481613e60565b61369481613e65565b600061371982613e48565b6137238185613e4c565b9350613733818560208601613eb8565b61373c81613ee4565b9093019392505050565b61369481613e96565b600061375a82613e48565b6137648185610666565b9350613774818560208601613eb8565b9290920192915050565b60008154600181166000811461379b57600181146137be576137fd565b607f60028304166137ac8187610666565b60ff19841681529550850192506137fd565b600282046137cc8187610666565b95506137d785613e3c565b60005b828110156137f6578154888201526001909101906020016137da565b5050850192505b505092915050565b6000613812600483613e4c565b632299981b60e11b815260200192915050565b6000613832600483613e4c565b632298981960e11b815260200192915050565b6000613852600483613e4c565b6308a6860760e31b815260200192915050565b6000613872600483613e4c565b63114d0c0d60e21b815260200192915050565b6000613892600483613e4c565b634534303960e01b815260200192915050565b60006138b2600483613e4c565b634531303160e01b815260200192915050565b60006138d2600483613e4c565b634531303360e01b815260200192915050565b60006138f2600483613e4c565b634534303360e01b815260200192915050565b6000613912600483613e4c565b63229a181960e11b815260200192915050565b6000613932600483613e4c565b630453431360e41b815260200192915050565b6000613952600583610666565b64173539b7b760d91b815260050192915050565b6000613973600483613e4c565b63229a181b60e11b815260200192915050565b6000613993600483613e4c565b634532303160e01b815260200192915050565b60006139b3600483613e4c565b63114ccc0d60e21b815260200192915050565b60006139d3600483613e4c565b634533303360e01b815260200192915050565b60006139f3600483613e4c565b634533303760e01b815260200192915050565b6000613a13600483613e4c565b634533303560e01b815260200192915050565b6000613a33600483613e4c565b634532303360e01b815260200192915050565b6000613a53600483613e4c565b634533303160e01b815260200192915050565b6000613a73600483613e4c565b634534303560e01b815260200192915050565b6000613a93600483613e4c565b632299981960e11b815260200192915050565b6000613ab3600483613e4c565b634534303760e01b815260200192915050565b61369481610aed565b6000613adb828561377e565b9150613ae7828461374f565b9150610a5a82613945565b6020810161061e828461369a565b60a08101613b0e828861368b565b613b1b602083018761369a565b8181036040830152613b2d81866136a3565b90508181036060830152613b4181856136a3565b90508181036080830152610d06818461370e565b60a08101613b63828861368b565b613b70602083018761369a565b613b7d6040830186613ac6565b613b8a6060830185613ac6565b8181036080830152610d06818461370e565b60608101613baa828661369a565b613bb7602083018561369a565b610a5a6040830184613ac6565b60408101613bd2828561369a565b611d9e6020830184613ac6565b60208082528101611d9e81846136a3565b60408082528101613c0181856136a3565b90508181036020830152610a5a81846136a3565b6020810161061e82846136fc565b6020810161061e8284613705565b60208082528101611d9e818461370e565b6020808252810161061e81613805565b6020808252810161061e81613825565b6020808252810161061e81613845565b6020808252810161061e81613865565b6020808252810161061e81613885565b6020808252810161061e816138a5565b6020808252810161061e816138c5565b6020808252810161061e816138e5565b6020808252810161061e81613905565b6020808252810161061e81613925565b6020808252810161061e81613966565b6020808252810161061e81613986565b6020808252810161061e816139a6565b6020808252810161061e816139c6565b6020808252810161061e816139e6565b6020808252810161061e81613a06565b6020808252810161061e81613a26565b6020808252810161061e81613a46565b6020808252810161061e81613a66565b6020808252810161061e81613a86565b6020808252810161061e81613aa6565b6020810161061e8284613ac6565b60408101613dae8285613ac6565b611d9e6020830184613746565b60408101613bd28285613ac6565b6040518181016001600160401b0381118282101715613de757600080fd5b604052919050565b60006001600160401b03821115613e0557600080fd5b5060209081020190565b60006001600160401b03821115613e2557600080fd5b506020601f91909101601f19160190565b60200190565b60009081526020902090565b5190565b90815260200190565b600061061e82613e7f565b151590565b6001600160801b03191690565b6001600160e01b03191690565b6001600160a01b031690565b600061061e82613ea1565b600061061e82610aed565b600061061e82613e55565b82818337506000910152565b60005b83811015613ed3578181015183820152602001613ebb565b838111156107135750506000910152565b601f01601f191690565b613ef781613e55565b8114610b6b57600080fd5b613ef781613e60565b613ef781613e72565b613ef781610aed56fec3d58168c5ae7397731d063d5bbf3d657854427343f4c083240f7aacaa2d0f62a365627a7a7231582082f3f3d0488b1472e0a65ce3adf25a4dcf667506efcd7e9b0903b8d242a707d86c6578706572696d656e74616cf564736f6c634300050d0040",
  "source": "// ChargedParticles -- Interest-bearing NFTs based on the DAI Savings Token\n// MIT License\n// Copyright (c) 2019, 2020 Rob Secord <robsecord.eth>\n//\n// Permission is hereby granted, free of charge, to any person obtaining a copy\n// of this software and associated documentation files (the \"Software\"), to deal\n// in the Software without restriction, including without limitation the rights\n// to use, copy, modify, merge, publish, distribute, sublicense, and/or sell\n// copies of the Software, and to permit persons to whom the Software is\n// furnished to do so, subject to the following conditions:\n//\n// The above copyright notice and this permission notice shall be included in all\n// copies or substantial portions of the Software.\n//\n// THE SOFTWARE IS PROVIDED \"AS IS\", WITHOUT WARRANTY OF ANY KIND, EXPRESS OR\n// IMPLIED, INCLUDING BUT NOT LIMITED TO THE WARRANTIES OF MERCHANTABILITY,\n// FITNESS FOR A PARTICULAR PURPOSE AND NON-INFRINGEMENT. IN NO EVENT SHALL THE\n// AUTHORS OR COPYRIGHT HOLDERS BE LIABLE FOR ANY CLAIM, DAMAGES OR OTHER\n// LIABILITY, WHETHER IN AN ACTION OF CONTRACT, TORT OR OTHERWISE, ARISING FROM,\n// OUT OF OR IN CONNECTION WITH THE SOFTWARE OR THE USE OR OTHER DEALINGS IN THE\n// SOFTWARE.\n\npragma solidity ^0.5.13;\npragma experimental ABIEncoderV2;\n\n// Reduce deployment gas costs by limiting the size of text used in error messages\n// ERROR CODES:\n//  100:        ADDRESS, OWNER, OPERATOR\n//      101         Invalid Address\n//      102         Sender is not owner\n//      103         Sender is not owner or operator\n//      104         Insufficient balance\n//      105         Unable to send value, recipient may have reverted\n//  200:        MATH\n//      201         Addition Overflow\n//      202         Subtraction Overflow\n//      203         Multiplication overflow\n//      204         Division by zero\n//      205         Modulo by zero\n//  300:        ERC1155\n//      301         Invalid Recipient\n//      302         Invalid on-received message\n//      303         Invalid arrays length\n//      304         Invalid type\n//      305         Invalid owner/operator\n//      306         Insufficient balance\n//      307         Invalid URI for Type\n//  400:        ChargedParticles\n//      401         Invalid Method\n//      402         Unregistered Type\n//      403         Particle has no Charge\n//      404         Insufficient ETH Balance\n//      405         Insufficient DAI Balance\n//      406         Invalid value for \"requiredDai\" parameter\n//      407         No access to Mint (Private Type)\n//      408         Transfer Failed\n//      409         Particle has insufficient charge\n//      410         Particle must be non-fungible to hold a charge\n\n/**\n * @title Address\n * @dev see node_modules/openzeppelin-solidity/contracts/utils/Address.sol\n */\nlibrary Address {\n    function isContract(address account) internal view returns (bool) {\n        bytes32 codehash;\n        bytes32 accountHash = 0xc5d2460186f7233c927e7db2dcc703c0e500b653ca82273b7bfad8045d85a470;\n        // solhint-disable-next-line no-inline-assembly\n        assembly { codehash := extcodehash(account) }\n        return (codehash != 0x0 && codehash != accountHash);\n    }\n\n    function toPayable(address account) internal pure returns (address payable) {\n        return address(uint160(account));\n    }\n\n    function sendValue(address payable recipient, uint256 amount) internal {\n        require(address(this).balance >= amount, \"E104\");\n        // solhint-disable-next-line avoid-call-value\n        (bool success, ) = recipient.call.value(amount)(\"\");\n        require(success, \"E105\");\n    }\n}\n\n/**\n * @title SafeMath\n * @dev see node_modules/openzeppelin-solidity/contracts/math/SafeMath.sol\n */\nlibrary SafeMath {\n    function add(uint256 a, uint256 b) internal pure returns (uint256) {\n        uint256 c = a + b;\n        require(c >= a, \"E201\");\n        return c;\n    }\n\n    function sub(uint256 a, uint256 b) internal pure returns (uint256) {\n        return sub(a, b, \"E202\");\n    }\n\n    function sub(uint256 a, uint256 b, string memory errorMessage) internal pure returns (uint256) {\n        require(b <= a, errorMessage);\n        uint256 c = a - b;\n        return c;\n    }\n\n    function mul(uint256 a, uint256 b) internal pure returns (uint256) {\n        if (a == 0) { return 0; }\n        uint256 c = a * b;\n        require(c / a == b, \"E203\");\n        return c;\n    }\n\n    function div(uint256 a, uint256 b) internal pure returns (uint256) {\n        return div(a, b, \"E204\");\n    }\n\n    function div(uint256 a, uint256 b, string memory errorMessage) internal pure returns (uint256) {\n        require(b > 0, errorMessage);\n        uint256 c = a / b;\n        return c;\n    }\n\n    function mod(uint256 a, uint256 b) internal pure returns (uint256) {\n        return mod(a, b, \"E205\");\n    }\n\n    function mod(uint256 a, uint256 b, string memory errorMessage) internal pure returns (uint256) {\n        require(b != 0, errorMessage);\n        return a % b;\n    }\n}\n\n/**\n * @title Chai.money interface\n * @dev see https://github.com/dapphub/chai\n * @dev NOTE Updated by @robsecord <robsecord.eth>;\n *       Added functions to read interest by specific amount rather than entire user balance\n *       Requires Deploying and Connecting to the accompanying CHAI contract (PCHAI; ParticleChai)\n */\ncontract IChai {\n    function transfer(address dst, uint wad) external returns (bool);\n    // like transferFrom but dai-denominated\n    function move(address src, address dst, uint wad) external returns (bool);\n    function transferFrom(address src, address dst, uint wad) public returns (bool);\n    function approve(address usr, uint wad) external returns (bool);\n    function balanceOf(address usr) external returns (uint);\n\n    function dai(address usr) external returns (uint wad);\n    function dai(uint chai) external returns (uint wad); // Added\n    function chai(uint _dai) external returns (uint pie); // Added\n\n    // wad is denominated in dai\n    function join(address dst, uint wad) external;\n\n    // wad is denominated in (1/chi) * dai\n    function exit(address src, uint wad) public;\n\n    // wad is denominated in dai\n    function draw(address src, uint wad) external returns (uint _chai);\n}\n\n/**\n * @title ERC165\n * @dev see https://github.com/ethereum/EIPs/blob/master/EIPS/eip-165.md\n */\ninterface IERC165 {\n    function supportsInterface(bytes4 _interfaceId) external view returns (bool);\n}\n\n/**\n * @title ERC20 interface\n * @dev see https://eips.ethereum.org/EIPS/eip-20\n */\ninterface IERC20 {\n    function transfer(address to, uint256 value) external returns (bool);\n    function approve(address spender, uint256 value) external returns (bool);\n    function transferFrom(address from, address to, uint256 value) external returns (bool);\n    function totalSupply() external view returns (uint256);\n    function balanceOf(address who) external view returns (uint256);\n    function allowance(address owner, address spender) external view returns (uint256);\n    event Transfer(address indexed from, address indexed to, uint256 value);\n    event Approval(address indexed owner, address indexed spender, uint256 value);\n}\n\n/**\n * @title ERC1155 interface\n * @dev see https://github.com/ethereum/EIPs/blob/master/EIPS/eip-1155.md\n */\ninterface IERC1155 {\n    function safeTransferFrom(address _from, address _to, uint256 _id, uint256 _amount, bytes calldata _data) external;\n    function safeBatchTransferFrom(address _from, address _to, uint256[] calldata _ids, uint256[] calldata _amounts, bytes calldata _data) external;\n    function balanceOf(address _owner, uint256 _id) external view returns (uint256);\n    function balanceOfBatch(address[] calldata _owners, uint256[] calldata _ids) external view returns (uint256[] memory);\n    function setApprovalForAll(address _operator, bool _approved) external;\n    function isApprovedForAll(address _owner, address _operator) external view returns (bool isOperator);\n    event TransferSingle(address indexed _operator, address indexed _from, address indexed _to, uint256 _id, uint256 _amount);\n    event TransferBatch(address indexed _operator, address indexed _from, address indexed _to, uint256[] _ids, uint256[] _amounts);\n    event ApprovalForAll(address indexed _owner, address indexed _operator, bool _approved);\n    event URI(string _amount, uint256 indexed _id);\n}\n\n/**\n * @dev ERC-1155 token receiver interface for accepting safe transfers.\n */\ninterface IERC1155TokenReceiver {\n    function onERC1155Received(address _operator, address _from, uint256 _id, uint256 _amount, bytes calldata _data) external returns(bytes4);\n    function onERC1155BatchReceived(address _operator, address _from, uint256[] calldata _ids, uint256[] calldata _amounts, bytes calldata _data) external returns(bytes4);\n    function supportsInterface(bytes4 interfaceID) external view returns (bool);\n}\n\n/**\n * @dev Implementation of ERC1155 Multi-Token Standard contract\n * @dev see node_modules/multi-token-standard/contracts/tokens/ERC1155/ERC1155.sol\n */\ncontract ERC1155 is IERC165 {\n    using Address for address;\n    using SafeMath for uint256;\n\n    uint256 constant internal TYPE_MASK = uint256(uint128(~0)) << 128;\n    uint256 constant internal NF_INDEX_MASK = uint128(~0);\n    uint256 constant internal TYPE_NF_BIT = 1 << 255;\n    bytes32 constant internal ACCOUNT_HASH = 0xc5d2460186f7233c927e7db2dcc703c0e500b653ca82273b7bfad8045d85a470;\n    bytes4 constant internal INTERFACE_SIGNATURE_ERC165 = 0x01ffc9a7;\n    bytes4 constant internal INTERFACE_SIGNATURE_ERC1155 = 0xd9b67a26;\n    bytes4 constant internal ERC1155_RECEIVED_VALUE = 0xf23a6e61;\n    bytes4 constant internal ERC1155_BATCH_RECEIVED_VALUE = 0xbc197c81;\n\n    uint256 internal nonce;\n    mapping (address => mapping(uint256 => uint256)) internal balances;\n    mapping (address => mapping(address => bool)) internal operators;\n    mapping (uint256 => address) internal nfOwners;\n    mapping (uint256 => uint256) internal maxIndex;\n    mapping (uint256 => string) internal tokenUri;\n\n    event TransferSingle(address indexed _operator, address indexed _from, address indexed _to, uint256 _id, uint256 _amount);\n    event TransferBatch(address indexed _operator, address indexed _from, address indexed _to, uint256[] _ids, uint256[] _amounts);\n    event ApprovalForAll(address indexed _owner, address indexed _operator, bool _approved);\n    event URI(string _uri, uint256 indexed _type);\n\n    function uri(uint256 _tokenId) public view returns (string memory) {\n        uint256 _type = _tokenId & TYPE_MASK;\n        return string(abi.encodePacked(tokenUri[_type], _uint2str(_tokenId), \".json\"));\n    }\n\n    function supportsInterface(bytes4 _interfaceID) external view returns (bool) {\n        if (_interfaceID == INTERFACE_SIGNATURE_ERC165 ||\n        _interfaceID == INTERFACE_SIGNATURE_ERC1155) {\n            return true;\n        }\n        return false;\n    }\n\n    function ownerOf(uint256 _tokenId) public view returns (address) {\n        require(_tokenId & TYPE_NF_BIT == TYPE_NF_BIT, \"E304\");\n        return nfOwners[_tokenId];\n    }\n\n    function balanceOf(address _owner, uint256 _tokenId) public view returns (uint256) {\n        if ((_tokenId & TYPE_NF_BIT == TYPE_NF_BIT) && (_tokenId & NF_INDEX_MASK != 0)) {  // Non-Fungible Item\n            return nfOwners[_tokenId] == _owner ? 1 : 0;\n        }\n        return balances[_owner][_tokenId];\n    }\n\n    function balanceOfBatch(address[] memory _owners, uint256[] memory _tokenIds) public view returns (uint256[] memory) {\n        require(_owners.length == _tokenIds.length, \"E303\");\n\n        uint256[] memory _balances = new uint256[](_owners.length);\n        for (uint256 i = 0; i < _owners.length; ++i) {\n            uint256 id = _tokenIds[i];\n            if ((id & TYPE_NF_BIT == TYPE_NF_BIT) && (id & NF_INDEX_MASK != 0)) { // Non-Fungible Item\n                _balances[i] = nfOwners[id] == _owners[i] ? 1 : 0;\n            } else {\n                _balances[i] = balances[_owners[i]][id];\n            }\n        }\n\n        return _balances;\n    }\n\n    function setApprovalForAll(address _operator, bool _approved) external {\n        operators[msg.sender][_operator] = _approved;\n        emit ApprovalForAll(msg.sender, _operator, _approved);\n    }\n\n    function isApprovedForAll(address _owner, address _operator) public view returns (bool isOperator) {\n        return operators[_owner][_operator];\n    }\n\n    function safeTransferFrom(address _from, address _to, uint256 _id, uint256 _amount, bytes memory _data) public {\n        require((msg.sender == _from) || isApprovedForAll(_from, msg.sender), \"E305\");\n        require(_to != address(0),\"E301\");\n\n        _safeTransferFrom(_from, _to, _id, _amount);\n        _callonERC1155Received(_from, _to, _id, _amount, _data);\n    }\n\n    function safeBatchTransferFrom(address _from, address _to, uint256[] memory _ids, uint256[] memory _amounts, bytes memory _data) public {\n        require((msg.sender == _from) || isApprovedForAll(_from, msg.sender), \"E305\");\n        require(_to != address(0),\"E301\");\n\n        _safeBatchTransferFrom(_from, _to, _ids, _amounts);\n        _callonERC1155BatchReceived(_from, _to, _ids, _amounts, _data);\n    }\n\n    function _safeTransferFrom(address _from, address _to, uint256 _id, uint256 _amount) internal {\n        // Non-Fungible\n        if (_id & TYPE_NF_BIT == TYPE_NF_BIT) {\n            require(nfOwners[_id] == _from);\n            nfOwners[_id] = _to;\n            _amount = 1;\n        }\n        // Fungible\n        else {\n            require(_amount <= balances[_from][_id]);\n            balances[_from][_id] = balances[_from][_id].sub(_amount); // Subtract amount\n            balances[_to][_id] = balances[_to][_id].add(_amount);     // Add amount\n        }\n\n        // Emit event\n        emit TransferSingle(msg.sender, _from, _to, _id, _amount);\n    }\n\n    function _safeBatchTransferFrom(address _from, address _to, uint256[] memory _ids, uint256[] memory _amounts) internal {\n        require(_ids.length == _amounts.length, \"E303\");\n\n        uint256 id;\n        uint256 amount;\n        uint256 nTransfer = _ids.length;\n        for (uint256 i = 0; i < nTransfer; ++i) {\n            id = _ids[i];\n            amount = _amounts[i];\n\n            if (id & TYPE_NF_BIT == TYPE_NF_BIT) { // Non-Fungible\n                require(nfOwners[id] == _from);\n                nfOwners[id] = _to;\n            } else {\n                require(amount <= balances[_from][id]);\n                balances[_from][id] = balances[_from][id].sub(amount);\n                balances[_to][id] = balances[_to][id].add(amount);\n            }\n        }\n\n        emit TransferBatch(msg.sender, _from, _to, _ids, _amounts);\n    }\n\n    function _callonERC1155Received(address _from, address _to, uint256 _id, uint256 _amount, bytes memory _data) internal {\n        // Check if recipient is contract\n        if (_to.isContract()) {\n            bytes4 retval = IERC1155TokenReceiver(_to).onERC1155Received(msg.sender, _from, _id, _amount, _data);\n            require(retval == ERC1155_RECEIVED_VALUE, \"E302\");\n        }\n    }\n\n    function _callonERC1155BatchReceived(address _from, address _to, uint256[] memory _ids, uint256[] memory _amounts, bytes memory _data) internal {\n        // Pass data if recipient is contract\n        if (_to.isContract()) {\n            bytes4 retval = IERC1155TokenReceiver(_to).onERC1155BatchReceived(msg.sender, _from, _ids, _amounts, _data);\n            require(retval == ERC1155_BATCH_RECEIVED_VALUE, \"E302\");\n        }\n    }\n\n    function _createType(string memory _uri, bool _isNF) internal returns (uint256 _type) {\n        require(bytes(_uri).length > 0, \"E307\");\n\n        _type = (++nonce << 128);\n        if (_isNF) {\n            _type = _type | TYPE_NF_BIT;\n        }\n        tokenUri[_type] = _uri;\n\n        // emit a Transfer event with Create semantic to help with discovery.\n        emit TransferSingle(msg.sender, address(0x0), address(0x0), _type, 0);\n        emit URI(_uri, _type);\n    }\n\n    function _mint(address _to, uint256 _type, uint256 _amount, bytes memory _data) internal returns (uint256) {\n        uint256 _tokenId;\n\n        // Non-fungible\n        if (_type & TYPE_NF_BIT == TYPE_NF_BIT) {\n            uint256 index = maxIndex[_type].add(1);\n            maxIndex[_type] = index;\n\n            _tokenId  = _type | index;\n            nfOwners[_tokenId] = _to;\n            _amount = 1;\n        }\n\n        // Fungible\n        else {\n            _tokenId = _type;\n            maxIndex[_type] = maxIndex[_type].add(_amount);\n            balances[_to][_type] = balances[_to][_type].add(_amount);\n        }\n\n        emit TransferSingle(msg.sender, address(0x0), _to, _tokenId, _amount);\n        _callonERC1155Received(address(0x0), _to, _tokenId, _amount, _data);\n\n        return _tokenId;\n    }\n\n    function _mintBatch(address _to, uint256[] memory _types, uint256[] memory _amounts, bytes memory _data) internal returns (uint256[] memory) {\n        require(_types.length == _amounts.length, \"E303\");\n        uint256 _type;\n        uint256 _amount;\n        uint256 _index;\n        uint256 _tokenId;\n        uint256 _count = _types.length;\n\n        uint256[] memory _tokenIds = new uint256[](_count);\n\n        for (uint256 i = 0; i < _count; i++) {\n            _type = _types[i];\n            _amount = _amounts[i];\n\n            // Non-fungible\n            if (_type & TYPE_NF_BIT == TYPE_NF_BIT) {\n                _index = maxIndex[_type].add(1);\n                maxIndex[_type] = _index;\n\n                _tokenId  = _type | _index;\n                nfOwners[_tokenId] = _to;\n                _tokenIds[i] = _tokenId;\n                _amounts[i] = 1;\n            }\n\n            // Fungible\n            else {\n                _tokenIds[i] = _type;\n                maxIndex[_type] = maxIndex[_type].add(_amount);\n                balances[_to][_type] = balances[_to][_type].add(_amount);\n            }\n        }\n\n        emit TransferBatch(msg.sender, address(0x0), _to, _tokenIds, _amounts);\n        _callonERC1155BatchReceived(address(0x0), _to, _tokenIds, _amounts, _data);\n\n        return _tokenIds;\n    }\n\n    function _burn(address _from, uint256 _tokenId, uint256 _amount) internal {\n        // Non-fungible\n        if (_tokenId & TYPE_NF_BIT == TYPE_NF_BIT) {\n            require(ownerOf(_tokenId) == _from, \"E305\");\n            nfOwners[_tokenId] = address(0x0);\n            _amount = 1;\n        }\n\n        // Fungible\n        else {\n            require(balanceOf(_from, _tokenId) >= _amount, \"E306\");\n            maxIndex[_tokenId] = maxIndex[_tokenId].sub(_amount);\n            balances[_from][_tokenId] = balances[_from][_tokenId].sub(_amount);\n        }\n\n        emit TransferSingle(msg.sender, _from, address(0x0), _tokenId, _amount);\n    }\n\n    function _burnBatch(address _from, uint256[] memory _tokenIds, uint256[] memory _amounts) internal {\n        require(_tokenIds.length == _amounts.length, \"E303\");\n\n        uint256 _amount;\n        uint256 _tokenId;\n        uint256 _count = _tokenIds.length;\n        for (uint256 i = 0; i < _count; i++) {\n            _tokenId = _tokenIds[i];\n            _amount = _amounts[i];\n\n            // Non-fungible\n            if (_tokenId & TYPE_NF_BIT == TYPE_NF_BIT) {\n                require(ownerOf(_tokenId) == _from, \"E305\");\n                nfOwners[_tokenId] = address(0x0);\n                _amounts[i] = 1;\n            }\n\n            // Fungible\n            else {\n                require(balanceOf(_from, _tokenId) >= _amount, \"E306\");\n                maxIndex[_tokenId] = maxIndex[_tokenId].sub(_amount);\n                balances[_from][_tokenId] = balances[_from][_tokenId].sub(_amount);\n            }\n        }\n\n        emit TransferBatch(msg.sender, _from, address(0x0), _tokenIds, _amounts);\n    }\n\n    //    function isNonFungible(uint256 _id) public pure returns(bool) {\n    //        return _id & TYPE_NF_BIT == TYPE_NF_BIT;\n    //    }\n    //    function isFungible(uint256 _id) public pure returns(bool) {\n    //        return _id & TYPE_NF_BIT == 0;\n    //    }\n    //    function getNonFungibleIndex(uint256 _id) public pure returns(uint256) {\n    //        return _id & NF_INDEX_MASK;\n    //    }\n    //    function getNonFungibleBaseType(uint256 _id) public pure returns(uint256) {\n    //        return _id & TYPE_MASK;\n    //    }\n    //    function isNonFungibleBaseType(uint256 _id) public pure returns(bool) {\n    //        // A base type has the NF bit but does not have an index.\n    //        return (_id & TYPE_NF_BIT == TYPE_NF_BIT) && (_id & NF_INDEX_MASK == 0);\n    //    }\n    //    function isNonFungibleItem(uint256 _id) public pure returns(bool) {\n    //        return (_id & TYPE_NF_BIT == TYPE_NF_BIT) && (_id & NF_INDEX_MASK != 0);\n    //    }\n\n    function _uint2str(uint256 _i) internal pure returns (string memory _uintAsString) {\n        if (_i == 0) {\n            return \"0\";\n        }\n\n        uint256 j = _i;\n        uint256 ii = _i;\n        uint256 len;\n\n        // Get number of bytes\n        while (j != 0) {\n            len++;\n            j /= 10;\n        }\n\n        bytes memory bstr = new bytes(len);\n        uint256 k = len - 1;\n\n        // Get each individual ASCII\n        while (ii != 0) {\n            bstr[k--] = byte(uint8(48 + ii % 10));\n            ii /= 10;\n        }\n\n        // Convert to string\n        return string(bstr);\n    }\n}\n\n\n/**\n * @notice Charged Particles Contract - Interest-Bearing NFTs\n */\ncontract ChargedParticles is ERC1155 {\n    using SafeMath for uint256;\n\n    /***********************************|\n    |        Variables and Events       |\n    |__________________________________*/\n\n    IERC20 internal dai;\n    IChai internal chai;\n\n    //       TypeID => Type Creator\n    mapping (uint256 => address) internal registeredTypeCreators;\n\n    //       TypeID => Required DAI\n    mapping (uint256 => uint256) internal requiredFundingByType;   // Amount of Dai to deposit when minting\n\n    //      TokenID => Balance\n    mapping (uint256 => uint256) internal chaiBalanceByTokenId;    // Amount of Chai minted from Dai deposited\n\n    //      TokenID => Max Supply\n    mapping (uint256 => uint256) internal maxSupplyByType;\n\n    //       TypeID => Access Type (1=Public / 2=Private)\n    mapping (uint256 => uint8) internal registeredTypes;\n\n    //      Operator =>\n    mapping (address => mapping(address => bool)) internal operators;\n\n    uint256 internal createFeeEth;\n    uint256 internal createFeeIon;\n    uint256 internal mintFee;\n    uint256 internal collectedFees;\n\n    // Internal ERC20 Token used for Creating Types;\n    // needs to be created as a private ERC20 type within this contract\n    uint256 internal ionTokenId;\n\n    address private owner; // To be assigned to a DAO\n\n    bytes16 public version = \"v0.0.3\";\n\n    event TransferCharge(address indexed _ownerOrOperator, uint256 indexed _fromTokenId, uint256 indexed _toTokenId, uint256 _amount);\n    event OwnershipTransferred(address indexed previousOwner, address indexed newOwner);\n\n    /***********************************|\n    |             Modifiers             |\n    |__________________________________*/\n\n    /**\n     * @dev Throws if called by any account other than the owner.\n     */\n    modifier onlyOwner() {\n        require(msg.sender == owner, \"E102\");\n        _;\n    }\n\n    /***********************************|\n    |          Initialization           |\n    |__________________________________*/\n\n    constructor() public {\n//         createFeeEth = 35 szabo;     //  ERC20  = 0.000035 ETH  (~ USD $0.005)\n//                                      //  ERC721 = 0.000070 ETH  (~ USD $0.01)\n//         createFeeIon = 10 ether;     //  ERC20  = 1 ION\n//                                      //  ERC721 = 2 IONs\n//         mintFee = 50;                //  0.5% of Chai from deposited Dai\n\n        owner = msg.sender;\n        emit OwnershipTransferred(address(0), owner);\n    }\n\n    /***********************************|\n    |            Public Read            |\n    |__________________________________*/\n\n    /**\n     * @notice Gets the address of the contract owner.\n     * @return The owner address\n     */\n    function getContractOwner() public view returns (address) {\n        return owner;\n    }\n\n    /**\n     * @notice Gets the Creator of a Token Type\n     * @param _type     The Type ID of the Token\n     * @return  The Creator Address\n     */\n    function getCreator(uint256 _type) public view returns (address) {\n        return registeredTypeCreators[_type];\n    }\n\n    /**\n     * @notice Checks if a user is allowed to mint a Token by Type ID\n     * @param _type     The Type ID of the Token\n     * @return  True if the user can mint the token type\n     */\n    function canMint(uint256 _type, uint256 _amount) public view returns (bool) {\n        // Public\n        if (registeredTypes[_type] == 1) {\n            // Has Max\n            if (maxSupplyByType[_type] > 0) {\n                return maxIndex[_type] <= maxSupplyByType[_type].add(_amount);\n            }\n            // No Max\n            return true;\n        }\n        // Private\n        if (registeredTypeCreators[_type] != msg.sender) {\n            return false;\n        }\n        // Has Max\n        if (maxSupplyByType[_type] > 0) {\n            return maxIndex[_type] <= maxSupplyByType[_type].add(_amount);\n        }\n        // No Max\n        return true;\n    }\n\n    /**\n     * @notice Gets the ETH price to create a Token Type\n     * @param _isNF     True if the Type of Token to Create is a Non-Fungible Token\n     * @return  The ETH price to create a type\n     */\n    function getCreationPrice(bool _isNF) public view returns (uint256 eth, uint256 ion) {\n        eth = _isNF ? (createFeeEth.mul(2)) : createFeeEth;\n        ion = _isNF ? (createFeeIon.mul(2)) : createFeeIon;\n    }\n\n    /***********************************|\n    |         Particle Physics          |\n    |__________________________________*/\n\n    /**\n     * @notice Gets the Amount of Base DAI held in the Token (amount token was minted with)\n     * @param _tokenId      The ID of the Token\n     * @return  The Amount of DAI held in the Token\n     */\n    function baseParticleMass(uint256 _tokenId) public view returns (uint256) {\n        uint256 _type = _tokenId & TYPE_MASK;\n        return requiredFundingByType[_type];\n    }\n\n    /**\n     * @notice Gets the amount of interest the Token has generated (it's accumulated particle-charge)\n     * @param _tokenId      The ID of the Token\n     * @return  The amount of interest the Token has generated (in Funding Token; DAI)\n     */\n    function currentParticleCharge(uint256 _tokenId) public returns (uint256) {\n        uint256 _type = _tokenId & TYPE_MASK;\n        require(registeredTypes[_type] > 0, \"E402\");\n        require(requiredFundingByType[_type] > 0, \"E402\");\n\n        uint256 currentCharge = chai.dai(chaiBalanceByTokenId[_tokenId]);\n        uint256 originalCharge = requiredFundingByType[_type];\n        if (originalCharge >= currentCharge) { return 0; }\n        return currentCharge.sub(originalCharge);\n    }\n\n    /**\n     * @notice Allows the owner of the Token to collect the interest generated form the token\n     *  without removing the underlying DAI that is held in the token\n     * @param _tokenId      The ID of the Token\n     * @return  The amount of interest released from the token (in Funding Token; DAI)\n     */\n    // collect current interest from particle\n    function dischargeParticle(uint256 _tokenId) public returns (uint256) {\n        address _owner = ownerOf(_tokenId);\n        require((_owner == msg.sender) || isApprovedForAll(_owner, msg.sender), \"E103\");\n\n        uint256 _currentChargeInDai = currentParticleCharge(_tokenId);\n        require(_currentChargeInDai > 0, \"E403\");\n\n        uint256 _paidChai = _payoutChargedDai(msg.sender, _currentChargeInDai);\n        chaiBalanceByTokenId[_tokenId] = chaiBalanceByTokenId[_tokenId].sub(_paidChai);\n\n        return _currentChargeInDai;\n    }\n\n    /***********************************|\n    |   Public Create Particle Types    |\n    |__________________________________*/\n\n    /**\n     * @notice Creates a new Particle Type which can later be minted/burned\n     * @param _uri              A unique URI for the Token Type which will serve the JSON metadata\n     * @param _isNF             True if the Type is a Non-Fungible (only Non-Fungible Tokens can hold DAI and generate interest)\n     * @param _isPrivate        True if the Type is Private and can only be minted by the creator; otherwise anyone can mint\n     * @param _requiredDai      The amount of DAI (in WEI) that is required to Mint a Token of this Type (the Particle Mass)\n     *                          NOTE: This will be ignored for Fungible Tokens (ERC20)\n     * @param _maxSupply        The Max Supply of Tokens that can be minted\n     * @return The ID of the newly created Particle Type\n     */\n    function createParticleWithEther(string memory _uri, bool _isNF, bool _isPrivate, uint256 _requiredDai, uint256 _maxSupply) public payable returns (uint256 _particleTypeId) {\n        (uint256 ethPrice, ) = getCreationPrice(_isNF);\n        require(msg.value >= ethPrice, \"E404\");\n\n        // Create Particle Type\n        _particleTypeId = _createParticle(msg.sender, _uri, _isNF, _isPrivate, _requiredDai, _maxSupply);\n\n        // Refund over-payment\n        uint256 overage = msg.value.sub(ethPrice);\n        if (overage > 0) {\n            msg.sender.transfer(overage);\n        }\n    }\n\n    /**\n     * @notice Creates a new Particle Type which can later be minted/burned\n     * @param _uri              A unique URI for the Token Type which will serve the JSON metadata\n     * @param _isNF             True if the Type is a Non-Fungible (only Non-Fungible Tokens can hold DAI and generate interest)\n     * @param _isPrivate        True if the Type is Private and can only be minted by the creator; otherwise anyone can mint\n     * @param _requiredDai      The amount of DAI (in WEI) that is required to Mint a Token of this Type (the Particle Mass)\n     *                          NOTE: This will be ignored for Fungible Tokens (ERC20)\n     * @return The ID of the newly created Particle Type\n     *\n     * NOTE: Must approve THIS contract to TRANSFER your IONS on your behalf\n     */\n    function createParticleWithIons(string memory _uri, bool _isNF, bool _isPrivate, uint256 _requiredDai, uint256 _maxSupply) public returns (uint256 _particleTypeId) {\n        ( , uint256 ionPrice) = getCreationPrice(_isNF);\n\n        // Collect Ions as Payment\n        _collectIons(msg.sender, ionPrice);\n\n        // Create Particle Type\n        _particleTypeId = _createParticle(msg.sender, _uri, _isNF, _isPrivate, _requiredDai, _maxSupply);\n    }\n\n    /***********************************|\n    |    Public Mint (ERC20 & ERC721)   |\n    |__________________________________*/\n\n    /**\n     * @notice Mints a new Particle of the specified Type (can be Fungible or Non-Fungible)\n     *          Note: Requires DAI to mint Non-Fungible Tokens\n     * @param _to       The owner address to assign the new token to\n     * @param _type     The Type ID of the new token to mint\n     * @param _amount   The amount of tokens to mint (always 1 for Non-Fungibles)\n     * @param _data     Custom data used for transferring tokens into contracts\n     * @return  The ID of the newly minted token\n     *\n     * NOTE: Must approve THIS contract to TRANSFER your DAI on your behalf\n     */\n    function mintParticle(address _to, uint256 _type, uint256 _amount, bytes memory _data) public returns (uint256) {\n        require(canMint(_type, _amount), \"E407\");\n        address _self = address(this);\n\n        // Mint Token\n        uint256 _tokenId = _mint(_to, _type, _amount, _data);\n\n        if (_tokenId & TYPE_NF_BIT == TYPE_NF_BIT) {\n            // Transfer DAI from User to Contract\n            uint256 _requiredDai = requiredFundingByType[_type];\n            _collectRequiredDai(msg.sender, _requiredDai);\n\n            // Tokenize Interest\n            uint256 _preBalance = chai.balanceOf(_self);\n            chai.join(_self, _requiredDai);\n            uint256 _postBalance = chai.balanceOf(_self);\n\n            // Track Chai in each Token\n            chaiBalanceByTokenId[_tokenId] = _totalChaiForToken(_postBalance.sub(_preBalance));\n        }\n\n        return _tokenId;\n    }\n\n    /**\n     * @notice Mints multiple new Particles of the specified Types (can be Fungible and/or Non-Fungible)\n     *          Note: Requires DAI to mint Non-Fungible Tokens\n     * @param _to       The owner address to assign the new tokens to\n     * @param _types    The Type IDs of the new tokens to mint\n     * @param _amounts  The amount of tokens to mint (always 1 for Non-Fungibles)\n     * @param _data     Custom data used for transferring tokens into contracts\n     * @return  The IDs of the newly minted tokens\n     *\n     * NOTE: Must approve THIS contract to TRANSFER your DAI on your behalf\n     */\n    function mintParticles(address _to, uint256[] memory _types, uint256[] memory _amounts, bytes memory _data) public returns (uint256[] memory) {\n        address _self = address(this);\n        uint256 i;\n        uint256 _type;\n        uint256 _amount;\n        uint256 _tokenId;\n        uint256 _totalDai;\n        uint256 _requiredDai;\n        uint256 _count = _types.length;\n\n        for (i = 0; i < _count; ++i) {\n            _type = _types[i];\n            _amount = _amounts[i];\n            require(canMint(_type, _amount), \"E407\");\n            _requiredDai = requiredFundingByType[_type];\n            _totalDai = _requiredDai.add(_totalDai);\n        }\n\n        // Mint Tokens\n        uint256[] memory _tokenIds = _mintBatch(_to, _types, _amounts, _data);\n\n        if (_totalDai > 0) {\n            // Transfer DAI from User to Contract\n            _collectRequiredDai(msg.sender, _totalDai);\n\n            uint256 _balance = chai.balanceOf(_self);\n            for (i = 0; i < _count; ++i) {\n                _tokenId = _tokenIds[i];\n                _type = _tokenId & TYPE_MASK;\n                _requiredDai = requiredFundingByType[_type];\n\n                if (_requiredDai > 0) {\n                    // Tokenize Interest\n                    chai.join(_self, _requiredDai);\n\n                    // Track Chai in each Token\n                    chaiBalanceByTokenId[_tokenId] = _totalChaiForToken(chai.balanceOf(_self).sub(_balance));\n                    _balance = chai.balanceOf(_self);\n                }\n            }\n        }\n        return _tokenIds;\n    }\n\n    /***********************************|\n    |    Public Burn (ERC20 & ERC721)   |\n    |__________________________________*/\n\n    /**\n     * @notice Destroys a Particle and releases the underlying DAI + Interest (Mass + Charge)\n     * @param _tokenId  The ID of the token to burn\n     * @param _amount   The amount of tokens to burn (always 1 for Non-Fungibles)\n     */\n    function burnParticle(uint256 _tokenId, uint256 _amount) public {\n        // Verify Token\n        uint256 _type = _tokenId & TYPE_MASK;\n        require(registeredTypes[_type] > 0, \"E402\");\n\n        // Burn Token\n        _burn(msg.sender, _tokenId, _amount);\n\n        // Payout Dai + Interest\n        if (_tokenId & TYPE_NF_BIT == TYPE_NF_BIT) {\n            uint256 _tokenChai = chaiBalanceByTokenId[_tokenId];\n            chaiBalanceByTokenId[_tokenId] = 0;\n            _payoutFundedDai(msg.sender, _tokenChai);\n        }\n    }\n\n    /**\n     * @notice Destroys multiple Particles and releases the underlying DAI + Interest (Mass + Charge)\n     * @param _tokenIds     The IDs of the tokens to burn\n     * @param _amounts      The amounts of the tokens to burn (always 1 for Non-Fungibles)\n     */\n    function burnParticles(uint256[] memory _tokenIds, uint256[] memory _amounts) public {\n        // Verify Token\n        uint256 _tokenId;\n        uint256 _totalChai;\n        uint256 _count = _tokenIds.length;\n        for (uint256 i = 0; i < _count; ++i) {\n            _tokenId = _tokenIds[i];\n            require(registeredTypes[_tokenId & TYPE_MASK] > 0, \"E402\");\n\n            if (_tokenId & TYPE_NF_BIT == TYPE_NF_BIT) {\n                _totalChai = chaiBalanceByTokenId[_tokenId].add(_totalChai);\n                chaiBalanceByTokenId[_tokenId] = 0;\n            }\n        }\n\n        // Burn Tokens\n        _burnBatch(msg.sender, _tokenIds, _amounts);\n\n        // Payout Dai + Interest\n        if (_totalChai > 0) {\n            _payoutFundedDai(msg.sender, _totalChai);\n        }\n    }\n\n    /***********************************|\n    |         Transfer Charge           |\n    |__________________________________*/\n\n    /**\n     * @notice Transfers a tokens full-charge from one particle to another\n     * @param _from         The owner address to transfer the Charge from\n     * @param _fromTokenId  The Token ID to transfer the Charge from\n     * @param _toTokenId    The Token ID to transfer the Charge to\n     */\n    function transferCharge(address _from, uint256 _fromTokenId, uint256 _toTokenId) public {\n        require((msg.sender == _from) || isApprovedForAll(_from, msg.sender), \"E305\");\n\n        // Transfer Full Amount of Charge\n        uint256 currentCharge = currentParticleCharge(_fromTokenId); // In Funding Token\n        _transferCharge(_from, _fromTokenId, _toTokenId, currentCharge);\n    }\n\n    /**\n     * @notice Transfers some of a tokens charge from one particle to another\n     * @param _from         The owner address to transfer the Charge from\n     * @param _fromTokenId  The Token ID to transfer the Charge from\n     * @param _toTokenId    The Token ID to transfer the Charge to\n     * @param _amount       The Amount of Charge to be transferred - must be <= particle charge\n     */\n    function transferCharge(address _from, uint256 _fromTokenId, uint256 _toTokenId, uint256 _amount) public {\n        require((msg.sender == _from) || isApprovedForAll(_from, msg.sender), \"E305\");\n\n        _transferCharge(_from, _fromTokenId, _toTokenId, _amount);\n    }\n\n    /***********************************|\n    |            Only Owner             |\n    |__________________________________*/\n\n    /**\n     * @dev Setup the DAI/CHAI contracts and configure the contract\n     */\n    function setup(address _daiAddress, address _chaiAddress, uint256 _createFeeEth, uint256 _createFeeIon, uint256 _mintFee) public onlyOwner {\n        // Set DAI as Funding Token\n        dai = IERC20(_daiAddress);\n        chai = IChai(_chaiAddress);\n\n        // Setup Chai to Tokenize DAI Interest\n        dai.approve(_chaiAddress, uint(-1));\n\n        createFeeEth = _createFeeEth;\n        createFeeIon = _createFeeIon;\n        mintFee = _mintFee;\n    }\n\n    /**\n     * @dev Setup internal ION Token\n     */\n    function mintIons(string memory _uri, uint256 _amount) public onlyOwner returns (uint256) {\n        // Create ION Token Type;\n        //  ERC20, Private, Limited\n        ionTokenId = _createParticle(owner, _uri, false, true, 0, _amount);\n\n        // Mint ION Tokens to Owner\n        _mint(owner, ionTokenId, _amount, \"\");\n\n        // Remove owner of ION token to prevent further minting\n        registeredTypeCreators[ionTokenId] = address(0x0);\n\n        return ionTokenId;\n    }\n\n    /**\n     * @dev Allows contract owner to withdraw any fees earned\n     */\n    function withdrawFees() public onlyOwner {\n        uint256 _balance = address(this).balance;\n        if (_balance > 0) {\n            msg.sender.transfer(_balance);\n        }\n        if (collectedFees > 0) {\n            _payoutFundedDai(msg.sender, collectedFees);\n            collectedFees = 0;\n        }\n    }\n\n    /**\n     * @notice Transfers the ownership of the contract to new address\n     * @param _newOwner Address of the new owner\n     */\n    function transferOwnership(address _newOwner) public onlyOwner {\n        require(_newOwner != address(0), \"E101\");\n        emit OwnershipTransferred(owner, _newOwner);\n        owner = _newOwner;\n    }\n\n    /***********************************|\n    |         Private Functions         |\n    |__________________________________*/\n\n    /**\n     * @notice Creates a new Particle Type which can later be minted/burned\n     * @param _uri              A unique URI for the Token Type which will serve the JSON metadata\n     * @param _isNF             True if the Type is a Non-Fungible (only Non-Fungible Tokens can hold DAI and generate interest)\n     * @param _isPrivate        True if the Type is Private and can only be minted by the creator; otherwise anyone can mint\n     * @param _requiredDai      The amount of DAI (in WEI) that is required to Mint a Token of this Type (the Particle Mass)\n     *                          NOTE: This will be ignored for Fungible Tokens (ERC20)\n     * @return The ID of the newly created Particle Type\n     */\n    function _createParticle(address _creator, string memory _uri, bool _isNF, bool _isPrivate, uint256 _requiredDai, uint256 _maxSupply) internal returns (uint256 _particleTypeId) {\n        require(!_isNF || (_isNF && _requiredDai >= 1e6), \"E406\"); // 0.000000000001 DAI  or  1000000 WEI\n\n        // Create Type\n        _particleTypeId = _createType(_uri, _isNF);\n\n        // Type Access (Public or Private minting)\n        registeredTypes[_particleTypeId] = _isPrivate ? 2 : 1;\n\n        // Creator of Type\n        registeredTypeCreators[_particleTypeId] = _creator;\n\n        // Max Supply of Token; 0 = No Max\n        maxSupplyByType[_particleTypeId] = _maxSupply;\n\n        // Required Funding for NFTs\n        requiredFundingByType[_particleTypeId] = _isNF ? _requiredDai : 0;\n    }\n\n    /**\n     * @dev Collects the Required IONs from the users wallet during Type Creation and Burns them\n     * @param _from  The owner address to collect the IONs from\n     * @param _ions  The amount of IONs to collect from the user\n     */\n    function _collectIons(address _from, uint256 _ions) internal {\n        // Burn IONs from User\n        _burn(_from, ionTokenId, _ions);\n    }\n\n    /**\n     * @dev Collects the Required DAI from the users wallet during Minting\n     * @param _from         The owner address to collect the DAI from\n     * @param _requiredDai  The amount of DAI to collect from the user\n     */\n    function _collectRequiredDai(address _from, uint256 _requiredDai) internal {\n        // Transfer DAI from User to Contract\n        uint256 _userDaiBalance = dai.balanceOf(_from);\n        require(_requiredDai <= _userDaiBalance, \"E405\");\n        require(dai.transferFrom(_from, address(this), _requiredDai), \"E408\");\n    }\n\n    /**\n     * @dev Pays out a specified amount of CHAI\n     * @param _to           The owner address to pay out to\n     * @param _totalChai    The total amount of CHAI to pay out\n     */\n    function _payoutFundedDai(address _to, uint256 _totalChai) internal {\n        address _self = address(this);\n\n        // Exit Chai and collect Dai + Interest\n        chai.exit(_self, _totalChai);\n\n        // Transfer Dai + Interest\n        uint256 _receivedDai = dai.balanceOf(_self);\n        require(dai.transferFrom(_self, _to, _receivedDai), \"E408\");\n    }\n\n    /**\n     * @dev Pays out a specified amount of DAI\n     * @param _to           The owner address to pay out to\n     * @param _totalDai     The total amount of DAI to pay out\n     */\n    function _payoutChargedDai(address _to, uint256 _totalDai) internal returns (uint256) {\n        address _self = address(this);\n\n        // Collect Interest\n        //  contract receives DAI,\n        //  function call returns amount of CHAI exchanged\n        uint256 _chai = chai.draw(_self, _totalDai);\n\n        // Transfer Interest\n        uint256 _receivedDai = dai.balanceOf(_self);\n        require(dai.transferFrom(_self, _to, _receivedDai), \"E408\");\n        return _chai;\n    }\n\n    /**\n     * @dev Transfers a tokens charge from one particle to another\n     * @param _from         The owner address to transfer the Charge from\n     * @param _fromTokenId  The Token ID to transfer the Charge from\n     * @param _toTokenId    The Token ID to transfer the Charge to\n     * @param _amount       The Amount of Charge to be transferred - must be <= particle charge\n     */\n    function _transferCharge(address _from, uint256 _fromTokenId, uint256 _toTokenId, uint256 _amount) internal {\n        uint256 currentCharge = currentParticleCharge(_fromTokenId); // In Funding Token\n        require(currentCharge > 0, \"E403\");\n        require(currentCharge >= _amount, \"E409\");\n\n        // Verify Tokens are NFTs\n        require(_fromTokenId & TYPE_NF_BIT == TYPE_NF_BIT, \"E410\");\n        require(_toTokenId & TYPE_NF_BIT == TYPE_NF_BIT, \"E410\");\n\n        // Move Chai (already held in contract, just need to swap balances)\n        uint256 _chaiAmount = chai.chai(_amount);\n        chaiBalanceByTokenId[_fromTokenId] = chaiBalanceByTokenId[_fromTokenId].sub(_chaiAmount);\n        chaiBalanceByTokenId[_toTokenId] = chaiBalanceByTokenId[_toTokenId].add(_chaiAmount);\n\n        // Emit event\n        emit TransferCharge(_from, _fromTokenId, _toTokenId, _amount);\n    }\n\n    /**\n     * @dev Calculates the amount of DAI held within a token during minting\n     *      Note: Accounts for any contract fees\n     * @param _tokenChai    The total amount of DAI used to fund the token\n     * @return  The actual amount of DAI to fund the token - fees\n     */\n    function _totalChaiForToken(uint256 _tokenChai) internal returns (uint256) {\n        if (mintFee == 0) { return _tokenChai; }\n        uint256 _mintFee = _tokenChai.mul(mintFee).div(1e4);\n        collectedFees = collectedFees.add(_mintFee);\n        return _tokenChai.sub(_mintFee);\n    }\n}\n",
  "sourcePath": "/Users/robsecord/workspace/Ethereum/ChargedParticles/ChargedParticlesEth/contracts/ChargedParticles.sol",
  "compiler": {
    "name": "solc",
    "version": "0.5.13+commit.5b0b510c.Emscripten.clang"
  },
  "schemaVersion": "3.0.23",
  "updatedAt": "2020-02-06T04:37:02.067Z",
  "devdoc": {
    "methods": {
      "baseParticleMass(uint256)": {
        "params": {
          "_tokenId": "The ID of the Token"
        },
        "return": "The Amount of DAI held in the Token"
      },
      "burnParticle(uint256,uint256)": {
        "params": {
          "_amount": "The amount of tokens to burn (always 1 for Non-Fungibles)",
          "_tokenId": "The ID of the token to burn"
        }
      },
      "burnParticles(uint256[],uint256[])": {
        "params": {
          "_amounts": "The amounts of the tokens to burn (always 1 for Non-Fungibles)",
          "_tokenIds": "The IDs of the tokens to burn"
        }
      },
      "canMint(uint256,uint256)": {
        "params": {
          "_type": "The Type ID of the Token"
        },
        "return": "True if the user can mint the token type"
      },
      "createParticleWithEther(string,bool,bool,uint256,uint256)": {
        "params": {
          "_isNF": "True if the Type is a Non-Fungible (only Non-Fungible Tokens can hold DAI and generate interest)",
          "_isPrivate": "True if the Type is Private and can only be minted by the creator; otherwise anyone can mint",
          "_maxSupply": "The Max Supply of Tokens that can be minted",
          "_requiredDai": "The amount of DAI (in WEI) that is required to Mint a Token of this Type (the Particle Mass)                         NOTE: This will be ignored for Fungible Tokens (ERC20)",
          "_uri": "A unique URI for the Token Type which will serve the JSON metadata"
        },
        "return": "The ID of the newly created Particle Type"
      },
      "createParticleWithIons(string,bool,bool,uint256,uint256)": {
        "params": {
          "_isNF": "True if the Type is a Non-Fungible (only Non-Fungible Tokens can hold DAI and generate interest)",
          "_isPrivate": "True if the Type is Private and can only be minted by the creator; otherwise anyone can mint",
          "_requiredDai": "The amount of DAI (in WEI) that is required to Mint a Token of this Type (the Particle Mass)                         NOTE: This will be ignored for Fungible Tokens (ERC20)",
          "_uri": "A unique URI for the Token Type which will serve the JSON metadata"
        },
        "return": "The ID of the newly created Particle Type     * NOTE: Must approve THIS contract to TRANSFER your IONS on your behalf"
      },
      "currentParticleCharge(uint256)": {
        "params": {
          "_tokenId": "The ID of the Token"
        },
        "return": "The amount of interest the Token has generated (in Funding Token; DAI)"
      },
      "dischargeParticle(uint256)": {
        "params": {
          "_tokenId": "The ID of the Token"
        },
        "return": "The amount of interest released from the token (in Funding Token; DAI)"
      },
      "getContractOwner()": {
        "return": "The owner address"
      },
      "getCreationPrice(bool)": {
        "params": {
          "_isNF": "True if the Type of Token to Create is a Non-Fungible Token"
        },
        "return": "The ETH price to create a type"
      },
      "getCreator(uint256)": {
        "params": {
          "_type": "The Type ID of the Token"
        },
        "return": "The Creator Address"
      },
      "mintIons(string,uint256)": {
        "details": "Setup internal ION Token"
      },
      "mintParticle(address,uint256,uint256,bytes)": {
        "params": {
          "_amount": "The amount of tokens to mint (always 1 for Non-Fungibles)",
          "_data": "Custom data used for transferring tokens into contracts",
          "_to": "The owner address to assign the new token to",
          "_type": "The Type ID of the new token to mint"
        },
        "return": "The ID of the newly minted token     * NOTE: Must approve THIS contract to TRANSFER your DAI on your behalf"
      },
      "mintParticles(address,uint256[],uint256[],bytes)": {
        "params": {
          "_amounts": "The amount of tokens to mint (always 1 for Non-Fungibles)",
          "_data": "Custom data used for transferring tokens into contracts",
          "_to": "The owner address to assign the new tokens to",
          "_types": "The Type IDs of the new tokens to mint"
        },
        "return": "The IDs of the newly minted tokens     * NOTE: Must approve THIS contract to TRANSFER your DAI on your behalf"
      },
      "setup(address,address,uint256,uint256,uint256)": {
        "details": "Setup the DAI/CHAI contracts and configure the contract"
      },
      "transferCharge(address,uint256,uint256)": {
        "params": {
          "_from": "The owner address to transfer the Charge from",
          "_fromTokenId": "The Token ID to transfer the Charge from",
          "_toTokenId": "The Token ID to transfer the Charge to"
        }
      },
      "transferCharge(address,uint256,uint256,uint256)": {
        "params": {
          "_amount": "The Amount of Charge to be transferred - must be <= particle charge",
          "_from": "The owner address to transfer the Charge from",
          "_fromTokenId": "The Token ID to transfer the Charge from",
          "_toTokenId": "The Token ID to transfer the Charge to"
        }
      },
      "transferOwnership(address)": {
        "params": {
          "_newOwner": "Address of the new owner"
        }
      },
      "withdrawFees()": {
        "details": "Allows contract owner to withdraw any fees earned"
      }
    }
  },
  "userdoc": {
    "methods": {
      "baseParticleMass(uint256)": {
        "notice": "Gets the Amount of Base DAI held in the Token (amount token was minted with)"
      },
      "burnParticle(uint256,uint256)": {
        "notice": "Destroys a Particle and releases the underlying DAI + Interest (Mass + Charge)"
      },
      "burnParticles(uint256[],uint256[])": {
        "notice": "Destroys multiple Particles and releases the underlying DAI + Interest (Mass + Charge)"
      },
      "canMint(uint256,uint256)": {
        "notice": "Checks if a user is allowed to mint a Token by Type ID"
      },
      "constructor": "*********************************| |          Initialization           | |__________________________________",
      "createParticleWithEther(string,bool,bool,uint256,uint256)": {
        "notice": "Creates a new Particle Type which can later be minted/burned"
      },
      "createParticleWithIons(string,bool,bool,uint256,uint256)": {
        "notice": "Creates a new Particle Type which can later be minted/burned"
      },
      "currentParticleCharge(uint256)": {
        "notice": "Gets the amount of interest the Token has generated (it's accumulated particle-charge)"
      },
      "dischargeParticle(uint256)": {
        "notice": "Allows the owner of the Token to collect the interest generated form the token without removing the underlying DAI that is held in the token"
      },
      "getContractOwner()": {
        "notice": "Gets the address of the contract owner."
      },
      "getCreationPrice(bool)": {
        "notice": "Gets the ETH price to create a Token Type"
      },
      "getCreator(uint256)": {
        "notice": "Gets the Creator of a Token Type"
      },
      "mintParticle(address,uint256,uint256,bytes)": {
        "notice": "Mints a new Particle of the specified Type (can be Fungible or Non-Fungible)         Note: Requires DAI to mint Non-Fungible Tokens"
      },
      "mintParticles(address,uint256[],uint256[],bytes)": {
        "notice": "Mints multiple new Particles of the specified Types (can be Fungible and/or Non-Fungible)         Note: Requires DAI to mint Non-Fungible Tokens"
      },
      "transferCharge(address,uint256,uint256)": {
        "notice": "Transfers a tokens full-charge from one particle to another"
      },
      "transferCharge(address,uint256,uint256,uint256)": {
        "notice": "Transfers some of a tokens charge from one particle to another"
      },
      "transferOwnership(address)": {
        "notice": "Transfers the ownership of the contract to new address"
      }
    },
    "notice": "Charged Particles Contract - Interest-Bearing NFTs"
  }
}