{
  "contractName": "ChargedParticlesCHAI",
  "abi": [
    {
      "inputs": [],
      "payable": false,
      "stateMutability": "nonpayable",
      "type": "constructor"
    },
    {
      "anonymous": false,
      "inputs": [
        {
          "indexed": true,
          "internalType": "address",
          "name": "owner",
          "type": "address"
        },
        {
          "indexed": true,
          "internalType": "address",
          "name": "approved",
          "type": "address"
        },
        {
          "indexed": true,
          "internalType": "uint256",
          "name": "tokenId",
          "type": "uint256"
        }
      ],
      "name": "Approval",
      "type": "event"
    },
    {
      "anonymous": false,
      "inputs": [
        {
          "indexed": true,
          "internalType": "address",
          "name": "owner",
          "type": "address"
        },
        {
          "indexed": true,
          "internalType": "address",
          "name": "operator",
          "type": "address"
        },
        {
          "indexed": false,
          "internalType": "bool",
          "name": "approved",
          "type": "bool"
        }
      ],
      "name": "ApprovalForAll",
      "type": "event"
    },
    {
      "anonymous": false,
      "inputs": [
        {
          "indexed": true,
          "internalType": "address",
          "name": "previousOwner",
          "type": "address"
        },
        {
          "indexed": true,
          "internalType": "address",
          "name": "newOwner",
          "type": "address"
        }
      ],
      "name": "OwnershipTransferred",
      "type": "event"
    },
    {
      "anonymous": false,
      "inputs": [
        {
          "indexed": true,
          "internalType": "address",
          "name": "from",
          "type": "address"
        },
        {
          "indexed": true,
          "internalType": "address",
          "name": "to",
          "type": "address"
        },
        {
          "indexed": true,
          "internalType": "uint256",
          "name": "tokenId",
          "type": "uint256"
        }
      ],
      "name": "Transfer",
      "type": "event"
    },
    {
      "anonymous": false,
      "inputs": [
        {
          "indexed": true,
          "internalType": "address",
          "name": "from",
          "type": "address"
        },
        {
          "indexed": true,
          "internalType": "uint256",
          "name": "_fromTokenId",
          "type": "uint256"
        },
        {
          "indexed": true,
          "internalType": "uint256",
          "name": "_toTokenId",
          "type": "uint256"
        },
        {
          "indexed": false,
          "internalType": "uint256",
          "name": "_amount",
          "type": "uint256"
        }
      ],
      "name": "TransferCharge",
      "type": "event"
    },
    {
      "constant": false,
      "inputs": [
        {
          "internalType": "address",
          "name": "to",
          "type": "address"
        },
        {
          "internalType": "uint256",
          "name": "tokenId",
          "type": "uint256"
        }
      ],
      "name": "approve",
      "outputs": [],
      "payable": false,
      "stateMutability": "nonpayable",
      "type": "function"
    },
    {
      "constant": true,
      "inputs": [
        {
          "internalType": "address",
          "name": "owner",
          "type": "address"
        }
      ],
      "name": "balanceOf",
      "outputs": [
        {
          "internalType": "uint256",
          "name": "",
          "type": "uint256"
        }
      ],
      "payable": false,
      "stateMutability": "view",
      "type": "function"
    },
    {
      "constant": true,
      "inputs": [
        {
          "internalType": "uint256",
          "name": "tokenId",
          "type": "uint256"
        }
      ],
      "name": "getApproved",
      "outputs": [
        {
          "internalType": "address",
          "name": "",
          "type": "address"
        }
      ],
      "payable": false,
      "stateMutability": "view",
      "type": "function"
    },
    {
      "constant": true,
      "inputs": [
        {
          "internalType": "address",
          "name": "owner",
          "type": "address"
        },
        {
          "internalType": "address",
          "name": "operator",
          "type": "address"
        }
      ],
      "name": "isApprovedForAll",
      "outputs": [
        {
          "internalType": "bool",
          "name": "",
          "type": "bool"
        }
      ],
      "payable": false,
      "stateMutability": "view",
      "type": "function"
    },
    {
      "constant": true,
      "inputs": [],
      "name": "name",
      "outputs": [
        {
          "internalType": "string",
          "name": "",
          "type": "string"
        }
      ],
      "payable": false,
      "stateMutability": "view",
      "type": "function"
    },
    {
      "constant": true,
      "inputs": [
        {
          "internalType": "uint256",
          "name": "tokenId",
          "type": "uint256"
        }
      ],
      "name": "ownerOf",
      "outputs": [
        {
          "internalType": "address",
          "name": "",
          "type": "address"
        }
      ],
      "payable": false,
      "stateMutability": "view",
      "type": "function"
    },
    {
      "constant": false,
      "inputs": [
        {
          "internalType": "address",
          "name": "from",
          "type": "address"
        },
        {
          "internalType": "address",
          "name": "to",
          "type": "address"
        },
        {
          "internalType": "uint256",
          "name": "tokenId",
          "type": "uint256"
        }
      ],
      "name": "safeTransferFrom",
      "outputs": [],
      "payable": false,
      "stateMutability": "nonpayable",
      "type": "function"
    },
    {
      "constant": false,
      "inputs": [
        {
          "internalType": "address",
          "name": "from",
          "type": "address"
        },
        {
          "internalType": "address",
          "name": "to",
          "type": "address"
        },
        {
          "internalType": "uint256",
          "name": "tokenId",
          "type": "uint256"
        },
        {
          "internalType": "bytes",
          "name": "_data",
          "type": "bytes"
        }
      ],
      "name": "safeTransferFrom",
      "outputs": [],
      "payable": false,
      "stateMutability": "nonpayable",
      "type": "function"
    },
    {
      "constant": false,
      "inputs": [
        {
          "internalType": "address",
          "name": "to",
          "type": "address"
        },
        {
          "internalType": "bool",
          "name": "approved",
          "type": "bool"
        }
      ],
      "name": "setApprovalForAll",
      "outputs": [],
      "payable": false,
      "stateMutability": "nonpayable",
      "type": "function"
    },
    {
      "constant": true,
      "inputs": [
        {
          "internalType": "bytes4",
          "name": "interfaceId",
          "type": "bytes4"
        }
      ],
      "name": "supportsInterface",
      "outputs": [
        {
          "internalType": "bool",
          "name": "",
          "type": "bool"
        }
      ],
      "payable": false,
      "stateMutability": "view",
      "type": "function"
    },
    {
      "constant": true,
      "inputs": [],
      "name": "symbol",
      "outputs": [
        {
          "internalType": "string",
          "name": "",
          "type": "string"
        }
      ],
      "payable": false,
      "stateMutability": "view",
      "type": "function"
    },
    {
      "constant": true,
      "inputs": [
        {
          "internalType": "uint256",
          "name": "tokenId",
          "type": "uint256"
        }
      ],
      "name": "tokenURI",
      "outputs": [
        {
          "internalType": "string",
          "name": "",
          "type": "string"
        }
      ],
      "payable": false,
      "stateMutability": "view",
      "type": "function"
    },
    {
      "constant": false,
      "inputs": [
        {
          "internalType": "address",
          "name": "from",
          "type": "address"
        },
        {
          "internalType": "address",
          "name": "to",
          "type": "address"
        },
        {
          "internalType": "uint256",
          "name": "tokenId",
          "type": "uint256"
        }
      ],
      "name": "transferFrom",
      "outputs": [],
      "payable": false,
      "stateMutability": "nonpayable",
      "type": "function"
    },
    {
      "constant": true,
      "inputs": [],
      "name": "version",
      "outputs": [
        {
          "internalType": "bytes16",
          "name": "",
          "type": "bytes16"
        }
      ],
      "payable": false,
      "stateMutability": "view",
      "type": "function"
    },
    {
      "constant": true,
      "inputs": [],
      "name": "getContractOwner",
      "outputs": [
        {
          "internalType": "address",
          "name": "",
          "type": "address"
        }
      ],
      "payable": false,
      "stateMutability": "view",
      "type": "function"
    },
    {
      "constant": true,
      "inputs": [],
      "name": "baseParticleMass",
      "outputs": [
        {
          "internalType": "uint256",
          "name": "",
          "type": "uint256"
        }
      ],
      "payable": false,
      "stateMutability": "view",
      "type": "function"
    },
    {
      "constant": false,
      "inputs": [
        {
          "internalType": "uint256",
          "name": "_tokenId",
          "type": "uint256"
        }
      ],
      "name": "currentParticleCharge",
      "outputs": [
        {
          "internalType": "uint256",
          "name": "",
          "type": "uint256"
        }
      ],
      "payable": false,
      "stateMutability": "nonpayable",
      "type": "function"
    },
    {
      "constant": false,
      "inputs": [
        {
          "internalType": "uint256",
          "name": "_tokenId",
          "type": "uint256"
        }
      ],
      "name": "dischargeParticle",
      "outputs": [
        {
          "internalType": "uint256",
          "name": "",
          "type": "uint256"
        }
      ],
      "payable": false,
      "stateMutability": "nonpayable",
      "type": "function"
    },
    {
      "constant": false,
      "inputs": [
        {
          "internalType": "address",
          "name": "_to",
          "type": "address"
        },
        {
          "internalType": "uint256",
          "name": "_amount",
          "type": "uint256"
        },
        {
          "internalType": "bytes",
          "name": "_data",
          "type": "bytes"
        }
      ],
      "name": "mintParticles",
      "outputs": [
        {
          "internalType": "uint256[]",
          "name": "",
          "type": "uint256[]"
        }
      ],
      "payable": false,
      "stateMutability": "nonpayable",
      "type": "function"
    },
    {
      "constant": false,
      "inputs": [
        {
          "internalType": "uint256",
          "name": "_tokenId",
          "type": "uint256"
        }
      ],
      "name": "burnParticle",
      "outputs": [],
      "payable": false,
      "stateMutability": "nonpayable",
      "type": "function"
    },
    {
      "constant": false,
      "inputs": [
        {
          "internalType": "uint256[]",
          "name": "_tokenIds",
          "type": "uint256[]"
        }
      ],
      "name": "burnParticles",
      "outputs": [],
      "payable": false,
      "stateMutability": "nonpayable",
      "type": "function"
    },
    {
      "constant": false,
      "inputs": [
        {
          "internalType": "uint256",
          "name": "_fromTokenId",
          "type": "uint256"
        },
        {
          "internalType": "uint256",
          "name": "_toTokenId",
          "type": "uint256"
        },
        {
          "internalType": "uint256",
          "name": "_amount",
          "type": "uint256"
        }
      ],
      "name": "transferCharge",
      "outputs": [],
      "payable": false,
      "stateMutability": "nonpayable",
      "type": "function"
    },
    {
      "constant": false,
      "inputs": [
        {
          "internalType": "uint256",
          "name": "_fromTokenId",
          "type": "uint256"
        },
        {
          "internalType": "uint256",
          "name": "_toTokenId",
          "type": "uint256"
        }
      ],
      "name": "transferCharge",
      "outputs": [],
      "payable": false,
      "stateMutability": "nonpayable",
      "type": "function"
    },
    {
      "constant": false,
      "inputs": [
        {
          "internalType": "address",
          "name": "_daiAddress",
          "type": "address"
        },
        {
          "internalType": "address",
          "name": "_chaiAddress",
          "type": "address"
        },
        {
          "internalType": "uint256",
          "name": "_mintFee",
          "type": "uint256"
        },
        {
          "internalType": "uint256",
          "name": "_requiredFunding",
          "type": "uint256"
        }
      ],
      "name": "setup",
      "outputs": [],
      "payable": false,
      "stateMutability": "nonpayable",
      "type": "function"
    },
    {
      "constant": false,
      "inputs": [],
      "name": "withdrawFees",
      "outputs": [],
      "payable": false,
      "stateMutability": "nonpayable",
      "type": "function"
    },
    {
      "constant": false,
      "inputs": [
        {
          "internalType": "address",
          "name": "_newOwner",
          "type": "address"
        }
      ],
      "name": "transferOwnership",
      "outputs": [],
      "payable": false,
      "stateMutability": "nonpayable",
      "type": "function"
    }
  ],
  "bytecode": "0x6080604052601080546001600160801b0319166f76302e302e33000000000000000000001790553480156200003357600080fd5b50604080518082018252601081527f436861726765645061727469636c6573000000000000000000000000000000006020808301919091528251808401909352600483527f494f4e53000000000000000000000000000000000000000000000000000000009083015290620000d17f01ffc9a7000000000000000000000000000000000000000000000000000000006001600160e01b03620001b916565b620001057f80ac58cd000000000000000000000000000000000000000000000000000000006001600160e01b03620001b916565b81516200011a9060059060208501906200025e565b508051620001309060069060208401906200025e565b50620001657f5b5e139f000000000000000000000000000000000000000000000000000000006001600160e01b03620001b916565b5050600f80546001600160a01b0319163317908190556040516001600160a01b0391909116906000907f8be0079c531659141344cd1fd0a4f28419497f9722a3daafe3b4186f6b6457e0908290a36200035f565b7fffffffff00000000000000000000000000000000000000000000000000000000808216141562000221576040517f08c379a000000000000000000000000000000000000000000000000000000000815260040162000218906200033e565b60405180910390fd5b7fffffffff00000000000000000000000000000000000000000000000000000000166000908152602081905260409020805460ff19166001179055565b828054600181600116156101000203166002900490600052602060002090601f016020900481019282601f10620002a157805160ff1916838001178555620002d1565b82800160010185558215620002d1579182015b82811115620002d1578251825591602001919060010190620002b4565b50620002df929150620002e3565b5090565b6200030091905b80821115620002df5760008155600101620002ea565b90565b600062000312601c8362000356565b7f4552433136353a20696e76616c696420696e7465726661636520696400000000815260200192915050565b60208082528101620003508162000303565b92915050565b90815260200190565b612ce1806200036f6000396000f3fe608060405234801561001057600080fd5b506004361061018e5760003560e01c80636352211e116100de578063b88d4fde11610097578063df84fe4911610071578063df84fe491461034c578063e985e9c51461035f578063f10fda5014610372578063f2fde38b146103855761018e565b8063b88d4fde14610313578063c87b56dd14610326578063ce300f70146103395761018e565b80636352211e146102ac57806370a08231146102bf5780638c060bb7146102d257806395b3ec21146102e557806395d89b41146102f8578063a22cb465146103005761018e565b8063273db8301161014b578063442890d511610125578063442890d514610274578063476343ee1461027c57806354fd4d50146102845780635fa5815b146102995761018e565b8063273db8301461022c5780633f2817b91461024c57806342842e0e146102615761018e565b806301ffc9a71461019357806306fdde03146101bc578063081812fc146101d1578063095ea7b3146101f157806316ecc6861461020657806323b872dd14610219575b600080fd5b6101a66101a136600461217c565b610398565b6040516101b3919061298f565b60405180910390f35b6101c46103bb565b6040516101b391906129ab565b6101e46101df3660046121b8565b610452565b6040516101b391906128e9565b6102046101ff36600461209e565b61049e565b005b610204610214366004612019565b610583565b610204610227366004611f53565b610665565b61023f61023a3660046120ce565b6106a2565b6040516101b3919061297e565b6102546109cc565b6040516101b39190612b4c565b61020461026f366004611f53565b6109d2565b6101e46109ed565b6102046109fc565b61028c610a7a565b6040516101b3919061299d565b6102046102a7366004612213565b610a83565b6101e46102ba3660046121b8565b610ab5565b6102546102cd366004611efb565b610af0565b6102546102e03660046121b8565b610b39565b6102546102f33660046121b8565b610bd3565b6101c4610cb2565b61020461030e36600461206e565b610d13565b610204610321366004611fa0565b610de1565b6101c46103343660046121b8565b610e20565b6102046103473660046121f4565b610ee6565b61020461035a3660046121b8565b610f25565b6101a661036d366004611f19565b610f50565b610204610380366004612129565b610f7e565b610204610393366004611efb565b610fef565b6001600160e01b0319811660009081526020819052604090205460ff165b919050565b60058054604080516020601f60026000196101006001881615020190951694909404938401819004810282018101909252828152606093909290918301828280156104475780601f1061041c57610100808354040283529160200191610447565b820191906000526020600020905b81548152906001019060200180831161042a57829003601f168201915b505050505090505b90565b600061045d8261109b565b6104825760405162461bcd60e51b815260040161047990612acc565b60405180910390fd5b506000908152600260205260409020546001600160a01b031690565b60006104a982610ab5565b9050806001600160a01b0316836001600160a01b031614156104dd5760405162461bcd60e51b815260040161047990612b0c565b806001600160a01b03166104ef6110b8565b6001600160a01b0316148061050b575061050b8161036d6110b8565b6105275760405162461bcd60e51b815260040161047990612a6c565b60008281526002602052604080822080546001600160a01b0319166001600160a01b0387811691821790925591518593918516917f8c5be1e5ebec7d5bd14f71427d1e84f3dd0314c0f7b2291e5b200ac8c7c3b92591a4505050565b600f546001600160a01b031633146105ad5760405162461bcd60e51b8152600401610479906129bc565b600880546001600160a01b038087166001600160a01b031992831617928390556009805487831693169290921790915560405163095ea7b360e01b815291169063095ea7b39061060590869060001990600401612963565b602060405180830381600087803b15801561061f57600080fd5b505af1158015610633573d6000803e3d6000fd5b505050506040513d601f19601f82011682018060405250610657919081019061215e565b50600b91909155600d555050565b6106766106706110b8565b826110bc565b6106925760405162461bcd60e51b815260040161047990612b2c565b61069d838383611141565b505050565b6060600030905060008060006060876040519080825280602002602001820160405280156106da578160200160208202803883390190505b509050600093505b8784101561074757600d546106fd908363ffffffff61124716565b600e54909250610716906001860163ffffffff61124716565b92508281858151811061072557fe5b60200260200101818152505061073c89848961126c565b8360010193506106e2565b600e5461075a908963ffffffff61124716565b600e5581156109be5761076d338361129f565b6009546040516370a0823160e01b81526000916001600160a01b0316906370a082319061079e9089906004016128e9565b602060405180830381600087803b1580156107b857600080fd5b505af11580156107cc573d6000803e3d6000fd5b505050506040513d601f19601f820116820180604052506107f091908101906121d6565b9050600094505b888510156109bc5781858151811061080b57fe5b6020908102919091010151600954600d54604051633b4da69f60e01b81529296506001600160a01b0390911691633b4da69f9161084d918a9190600401612963565b600060405180830381600087803b15801561086757600080fd5b505af115801561087b573d6000803e3d6000fd5b50506009546040516370a0823160e01b815261091a9350610915925084916001600160a01b0316906370a08231906108b7908c906004016128e9565b602060405180830381600087803b1580156108d157600080fd5b505af11580156108e5573d6000803e3d6000fd5b505050506040513d601f19601f8201168201806040525061090991908101906121d6565b9063ffffffff6113e416565b611426565b6000858152600a6020526040908190209190915560095490516370a0823160e01b81526001600160a01b03909116906370a082319061095d9089906004016128e9565b602060405180830381600087803b15801561097757600080fd5b505af115801561098b573d6000803e3d6000fd5b505050506040513d601f19601f820116820180604052506109af91908101906121d6565b90508460010194506107f7565b505b9450505050505b9392505050565b600d5490565b61069d83838360405180602001604052806000815250610de1565b600f546001600160a01b031690565b600f546001600160a01b03163314610a265760405162461bcd60e51b8152600401610479906129bc565b30318015610a5d57604051339082156108fc029083906000818181858888f19350505050158015610a5b573d6000803e3d6000fd5b505b600c5415610a7757610a7133600c5461148c565b6000600c555b50565b60105460801b81565b610a8d33846110bc565b610aa95760405162461bcd60e51b815260040161047990612a3c565b61069d33848484611616565b6000818152600160205260408120546001600160a01b031680610aea5760405162461bcd60e51b815260040161047990612a9c565b92915050565b60006001600160a01b038216610b185760405162461bcd60e51b815260040161047990612a8c565b6001600160a01b0382166000908152600360205260409020610aea90611792565b6000610b4533836110bc565b610b615760405162461bcd60e51b815260040161047990612a3c565b6000610b6c83610bd3565b905060008111610b8e5760405162461bcd60e51b815260040161047990612a5c565b6000610b9a3383611796565b6000858152600a6020526040902054909150610bbc908263ffffffff6113e416565b6000858152600a6020526040902055509050919050565b6000610bde8261109b565b610bfa5760405162461bcd60e51b815260040161047990612a7c565b6009546000838152600a6020526040808220549051631043b2cb60e01b815291926001600160a01b031691631043b2cb91610c3791600401612b4c565b602060405180830381600087803b158015610c5157600080fd5b505af1158015610c65573d6000803e3d6000fd5b505050506040513d601f19601f82011682018060405250610c8991908101906121d6565b905080600d5410610c9e5760009150506103b6565b600d546109c590829063ffffffff6113e416565b60068054604080516020601f60026000196101006001881615020190951694909404938401819004810282018101909252828152606093909290918301828280156104475780601f1061041c57610100808354040283529160200191610447565b610d1b6110b8565b6001600160a01b0316826001600160a01b03161415610d4c5760405162461bcd60e51b815260040161047990612a1c565b8060046000610d596110b8565b6001600160a01b03908116825260208083019390935260409182016000908120918716808252919093529120805460ff191692151592909217909155610d9d6110b8565b6001600160a01b03167f17307eab39ab6107e8899845ad3d59bd9653f200f220920489ca2b5937696c3183604051610dd5919061298f565b60405180910390a35050565b610df2610dec6110b8565b836110bc565b610e0e5760405162461bcd60e51b815260040161047990612b2c565b610e1a84848484611951565b50505050565b6060610e2b8261109b565b610e475760405162461bcd60e51b815260040161047990612afc565b60008281526007602090815260409182902080548351601f600260001961010060018616150201909316929092049182018490048402810184019094528084529091830182828015610eda5780601f10610eaf57610100808354040283529160200191610eda565b820191906000526020600020905b815481529060010190602001808311610ebd57829003601f168201915b50505050509050919050565b610ef033836110bc565b610f0c5760405162461bcd60e51b815260040161047990612a3c565b6000610f1783610bd3565b905061069d33848484611616565b610f2f3382611984565b6000818152600a602052604081208054919055610f4c338261148c565b5050565b6001600160a01b03918216600090815260046020908152604080832093909416825291909152205460ff1690565b600080805b8351811015610fe457838181518110610f9857fe5b60200260200101519250610fac3384611984565b6000838152600a6020526040902054610fcb908363ffffffff61124716565b6000848152600a60205260408120559150600101610f83565b5061069d338261148c565b600f546001600160a01b031633146110195760405162461bcd60e51b8152600401610479906129bc565b6001600160a01b03811661103f5760405162461bcd60e51b815260040161047990612a2c565b600f546040516001600160a01b038084169216907f8be0079c531659141344cd1fd0a4f28419497f9722a3daafe3b4186f6b6457e090600090a3600f80546001600160a01b0319166001600160a01b0392909216919091179055565b6000908152600160205260409020546001600160a01b0316151590565b3390565b60006110c78261109b565b6110e35760405162461bcd60e51b815260040161047990612a4c565b60006110ee83610ab5565b9050806001600160a01b0316846001600160a01b031614806111295750836001600160a01b031661111e84610452565b6001600160a01b0316145b8061113957506111398185610f50565b949350505050565b826001600160a01b031661115482610ab5565b6001600160a01b03161461117a5760405162461bcd60e51b815260040161047990612aec565b6001600160a01b0382166111a05760405162461bcd60e51b815260040161047990612a0c565b6111a9816119cc565b6001600160a01b03831660009081526003602052604090206111ca90611a07565b6001600160a01b03821660009081526003602052604090206111eb90611a1e565b60008181526001602052604080822080546001600160a01b0319166001600160a01b0386811691821790925591518493918716917fddf252ad1be2c89b69c2b068fc378daa952ba7f163c4a11628f55a4df523b3ef91a4505050565b6000828201838110156109c55760405162461bcd60e51b8152600401610479906129fc565b6112768383611a27565b6112836000848484611aee565b61069d5760405162461bcd60e51b8152600401610479906129dc565b6008546040516370a0823160e01b81526000916001600160a01b0316906370a08231906112d09086906004016128e9565b60206040518083038186803b1580156112e857600080fd5b505afa1580156112fc573d6000803e3d6000fd5b505050506040513d601f19601f8201168201806040525061132091908101906121d6565b9050808211156113425760405162461bcd60e51b8152600401610479906129cc565b6008546040516323b872dd60e01b81526001600160a01b03909116906323b872dd906113769086903090879060040161293b565b602060405180830381600087803b15801561139057600080fd5b505af11580156113a4573d6000803e3d6000fd5b505050506040513d601f19601f820116820180604052506113c8919081019061215e565b61069d5760405162461bcd60e51b815260040161047990612b1c565b60006109c583836040518060400160405280601e81526020017f536166654d6174683a207375627472616374696f6e206f766572666c6f770000815250611bb9565b6000600b546000141561143a5750806103b6565b6000611463612710611457600b5486611be590919063ffffffff16565b9063ffffffff611c1f16565b600c54909150611479908263ffffffff61124716565b600c556109c5838263ffffffff6113e416565b60095460405163ef693bed60e01b815230916001600160a01b03169063ef693bed906114be9084908690600401612963565b600060405180830381600087803b1580156114d857600080fd5b505af11580156114ec573d6000803e3d6000fd5b50506008546040516370a0823160e01b8152600093506001600160a01b0390911691506370a08231906115239085906004016128e9565b60206040518083038186803b15801561153b57600080fd5b505afa15801561154f573d6000803e3d6000fd5b505050506040513d601f19601f8201168201806040525061157391908101906121d6565b6008546040516323b872dd60e01b81529192506001600160a01b0316906323b872dd906115a89085908890869060040161293b565b602060405180830381600087803b1580156115c257600080fd5b505af11580156115d6573d6000803e3d6000fd5b505050506040513d601f19601f820116820180604052506115fa919081019061215e565b610e1a5760405162461bcd60e51b815260040161047990612b1c565b600061162184610bd3565b9050600081116116435760405162461bcd60e51b815260040161047990612a5c565b818110156116635760405162461bcd60e51b815260040161047990612adc565b600954604051630cbd311760e31b81526000916001600160a01b0316906365e988b890611694908690600401612b4c565b602060405180830381600087803b1580156116ae57600080fd5b505af11580156116c2573d6000803e3d6000fd5b505050506040513d601f19601f820116820180604052506116e691908101906121d6565b6000868152600a6020526040902054909150611708908263ffffffff6113e416565b6000868152600a6020526040808220929092558581522054611730908263ffffffff61124716565b600a6000868152602001908152602001600020819055508385876001600160a01b03167f31c818ee42263b23835f0589fd5fd4721c918aabc0051d8e50c9607851d31ff7866040516117829190612b4c565b60405180910390a4505050505050565b5490565b600954604051631280dc1f60e21b8152600091309183916001600160a01b031690634a03707c906117cd9085908890600401612963565b602060405180830381600087803b1580156117e757600080fd5b505af11580156117fb573d6000803e3d6000fd5b505050506040513d601f19601f8201168201806040525061181f91908101906121d6565b6008546040516370a0823160e01b81529192506000916001600160a01b03909116906370a08231906118559086906004016128e9565b60206040518083038186803b15801561186d57600080fd5b505afa158015611881573d6000803e3d6000fd5b505050506040513d601f19601f820116820180604052506118a591908101906121d6565b6008546040516323b872dd60e01b81529192506001600160a01b0316906323b872dd906118da9086908a90869060040161293b565b602060405180830381600087803b1580156118f457600080fd5b505af1158015611908573d6000803e3d6000fd5b505050506040513d601f19601f8201168201806040525061192c919081019061215e565b6119485760405162461bcd60e51b815260040161047990612b1c565b50949350505050565b61195c848484611141565b61196884848484611aee565b610e1a5760405162461bcd60e51b8152600401610479906129dc565b61198e8282611c61565b6000818152600760205260409020546002600019610100600184161502019091160415610f4c576000818152600760205260408120610f4c91611d87565b6000818152600260205260409020546001600160a01b031615610a7757600090815260026020526040902080546001600160a01b0319169055565b8054611a1a90600163ffffffff6113e416565b9055565b80546001019055565b6001600160a01b038216611a4d5760405162461bcd60e51b815260040161047990612aac565b611a568161109b565b15611a735760405162461bcd60e51b8152600401610479906129ec565b600081815260016020908152604080832080546001600160a01b0319166001600160a01b038716908117909155835260039091529020611ab290611a1e565b60405181906001600160a01b038416906000907fddf252ad1be2c89b69c2b068fc378daa952ba7f163c4a11628f55a4df523b3ef908290a45050565b6000611b02846001600160a01b0316611d19565b611b0e57506001611139565b6000846001600160a01b031663150b7a02611b276110b8565b8887876040518563ffffffff1660e01b8152600401611b4994939291906128f7565b602060405180830381600087803b158015611b6357600080fd5b505af1158015611b77573d6000803e3d6000fd5b505050506040513d601f19601f82011682018060405250611b9b919081019061219a565b6001600160e01b031916630a85bd0160e11b14915050949350505050565b60008184841115611bdd5760405162461bcd60e51b815260040161047991906129ab565b505050900390565b600082611bf457506000610aea565b82820282848281611c0157fe5b04146109c55760405162461bcd60e51b815260040161047990612abc565b60006109c583836040518060400160405280601a81526020017f536166654d6174683a206469766973696f6e206279207a65726f000000000000815250611d50565b816001600160a01b0316611c7482610ab5565b6001600160a01b031614611c9a5760405162461bcd60e51b815260040161047990612b3c565b611ca3816119cc565b6001600160a01b0382166000908152600360205260409020611cc490611a07565b60008181526001602052604080822080546001600160a01b0319169055518291906001600160a01b038516907fddf252ad1be2c89b69c2b068fc378daa952ba7f163c4a11628f55a4df523b3ef908390a45050565b6000813f7fc5d2460186f7233c927e7db2dcc703c0e500b653ca82273b7bfad8045d85a47081158015906111395750141592915050565b60008183611d715760405162461bcd60e51b815260040161047991906129ab565b506000838581611d7d57fe5b0495945050505050565b50805460018160011615610100020316600290046000825580601f10611dad5750610a77565b6000918252602091829020610a779261044f92601f01048101905b80821115611ddc5760008155600101611dc8565b5090565b8035610aea81612c6f565b600082601f830112611dfc57600080fd5b8135611e0f611e0a82612b81565b612b5a565b91508181835260208401935060208101905083856020840282011115611e3457600080fd5b60005b83811015611e605781611e4a8882611ee5565b8452506020928301929190910190600101611e37565b5050505092915050565b8035610aea81612c83565b8051610aea81612c83565b8035610aea81612c8c565b8051610aea81612c8c565b600082601f830112611ea757600080fd5b8135611eb5611e0a82612ba2565b91508082526020830160208301858383011115611ed157600080fd5b611edc838284612c2d565b50505092915050565b8035610aea81612c95565b8051610aea81612c95565b600060208284031215611f0d57600080fd5b60006111398484611de0565b60008060408385031215611f2c57600080fd5b6000611f388585611de0565b9250506020611f4985828601611de0565b9150509250929050565b600080600060608486031215611f6857600080fd5b6000611f748686611de0565b9350506020611f8586828701611de0565b9250506040611f9686828701611ee5565b9150509250925092565b60008060008060808587031215611fb657600080fd5b6000611fc28787611de0565b9450506020611fd387828801611de0565b9350506040611fe487828801611ee5565b925050606085013567ffffffffffffffff81111561200157600080fd5b61200d87828801611e96565b91505092959194509250565b6000806000806080858703121561202f57600080fd5b600061203b8787611de0565b945050602061204c87828801611de0565b935050604061205d87828801611ee5565b925050606061200d87828801611ee5565b6000806040838503121561208157600080fd5b600061208d8585611de0565b9250506020611f4985828601611e6a565b600080604083850312156120b157600080fd5b60006120bd8585611de0565b9250506020611f4985828601611ee5565b6000806000606084860312156120e357600080fd5b60006120ef8686611de0565b935050602061210086828701611ee5565b925050604084013567ffffffffffffffff81111561211d57600080fd5b611f9686828701611e96565b60006020828403121561213b57600080fd5b813567ffffffffffffffff81111561215257600080fd5b61113984828501611deb565b60006020828403121561217057600080fd5b60006111398484611e75565b60006020828403121561218e57600080fd5b60006111398484611e80565b6000602082840312156121ac57600080fd5b60006111398484611e8b565b6000602082840312156121ca57600080fd5b60006111398484611ee5565b6000602082840312156121e857600080fd5b60006111398484611ef0565b6000806040838503121561220757600080fd5b60006120bd8585611ee5565b60008060006060848603121561222857600080fd5b60006122348686611ee5565b9350506020611f8586828701611ee5565b600061225183836128e0565b505060200190565b61226281612c1c565b82525050565b61226281612bdd565b600061227c82612bd0565b6122868185612bd4565b935061229183612bca565b8060005b838110156122bf5781516122a98882612245565b97506122b483612bca565b925050600101612295565b509495945050505050565b61226281612be8565b61226281612bed565b60006122e782612bd0565b6122f18185612bd4565b9350612301818560208601612c39565b61230a81612c65565b9093019392505050565b6000612321600483612bd4565b632298981960e11b815260200192915050565b6000612341600483612bd4565b63114d0c0d60e21b815260200192915050565b6000612361603283612bd4565b7f4552433732313a207472616e7366657220746f206e6f6e20455243373231526581527131b2b4bb32b91034b6b83632b6b2b73a32b960711b602082015260400192915050565b60006123b5601c83612bd4565b7f4552433732313a20746f6b656e20616c7265616479206d696e74656400000000815260200192915050565b60006123ee601b83612bd4565b7f536166654d6174683a206164646974696f6e206f766572666c6f770000000000815260200192915050565b6000612427602483612bd4565b7f4552433732313a207472616e7366657220746f20746865207a65726f206164648152637265737360e01b602082015260400192915050565b600061246d601983612bd4565b7f4552433732313a20617070726f766520746f2063616c6c657200000000000000815260200192915050565b60006124a6600483612bd4565b634531303160e01b815260200192915050565b60006124c6600483612bd4565b634531303360e01b815260200192915050565b60006124e6602c83612bd4565b7f4552433732313a206f70657261746f7220717565727920666f72206e6f6e657881526b34b9ba32b73a103a37b5b2b760a11b602082015260400192915050565b6000612534600483612bd4565b634534303360e01b815260200192915050565b6000612554603883612bd4565b7f4552433732313a20617070726f76652063616c6c6572206973206e6f74206f7781527f6e6572206e6f7220617070726f76656420666f7220616c6c0000000000000000602082015260400192915050565b60006125b3600483612bd4565b63229a181960e11b815260200192915050565b60006125d3602a83612bd4565b7f4552433732313a2062616c616e636520717565727920666f7220746865207a65815269726f206164647265737360b01b602082015260400192915050565b600061261f602983612bd4565b7f4552433732313a206f776e657220717565727920666f72206e6f6e657869737481526832b73a103a37b5b2b760b91b602082015260400192915050565b600061266a602083612bd4565b7f4552433732313a206d696e7420746f20746865207a65726f2061646472657373815260200192915050565b60006126a3602183612bd4565b7f536166654d6174683a206d756c7469706c69636174696f6e206f766572666c6f8152607760f81b602082015260400192915050565b60006126e6602c83612bd4565b7f4552433732313a20617070726f76656420717565727920666f72206e6f6e657881526b34b9ba32b73a103a37b5b2b760a11b602082015260400192915050565b6000612734600483612bd4565b63229a181b60e11b815260200192915050565b6000612754602983612bd4565b7f4552433732313a207472616e73666572206f6620746f6b656e2074686174206981526839903737ba1037bbb760b91b602082015260400192915050565b600061279f602f83612bd4565b7f4552433732314d657461646174613a2055524920717565727920666f72206e6f81526e3732bc34b9ba32b73a103a37b5b2b760891b602082015260400192915050565b60006127f0602183612bd4565b7f4552433732313a20617070726f76616c20746f2063757272656e74206f776e658152603960f91b602082015260400192915050565b6000612833600483612bd4565b634534303560e01b815260200192915050565b6000612853603183612bd4565b7f4552433732313a207472616e736665722063616c6c6572206973206e6f74206f8152701ddb995c881b9bdc88185c1c1c9bdd9959607a1b602082015260400192915050565b60006128a6602583612bd4565b7f4552433732313a206275726e206f6620746f6b656e2074686174206973206e6f8152643a1037bbb760d91b602082015260400192915050565b6122628161044f565b60208101610aea8284612268565b608081016129058287612259565b6129126020830186612268565b61291f60408301856128e0565b818103606083015261293181846122dc565b9695505050505050565b606081016129498286612268565b6129566020830185612268565b61113960408301846128e0565b604081016129718285612268565b6109c560208301846128e0565b602080825281016109c58184612271565b60208101610aea82846122ca565b60208101610aea82846122d3565b602080825281016109c581846122dc565b60208082528101610aea81612314565b60208082528101610aea81612334565b60208082528101610aea81612354565b60208082528101610aea816123a8565b60208082528101610aea816123e1565b60208082528101610aea8161241a565b60208082528101610aea81612460565b60208082528101610aea81612499565b60208082528101610aea816124b9565b60208082528101610aea816124d9565b60208082528101610aea81612527565b60208082528101610aea81612547565b60208082528101610aea816125a6565b60208082528101610aea816125c6565b60208082528101610aea81612612565b60208082528101610aea8161265d565b60208082528101610aea81612696565b60208082528101610aea816126d9565b60208082528101610aea81612727565b60208082528101610aea81612747565b60208082528101610aea81612792565b60208082528101610aea816127e3565b60208082528101610aea81612826565b60208082528101610aea81612846565b60208082528101610aea81612899565b60208101610aea82846128e0565b60405181810167ffffffffffffffff81118282101715612b7957600080fd5b604052919050565b600067ffffffffffffffff821115612b9857600080fd5b5060209081020190565b600067ffffffffffffffff821115612bb957600080fd5b506020601f91909101601f19160190565b60200190565b5190565b90815260200190565b6000610aea82612c10565b151590565b6fffffffffffffffffffffffffffffffff191690565b6001600160e01b03191690565b6001600160a01b031690565b6000610aea826000610aea82612bdd565b82818337506000910152565b60005b83811015612c54578181015183820152602001612c3c565b83811115610e1a5750506000910152565b601f01601f191690565b612c7881612bdd565b8114610a7757600080fd5b612c7881612be8565b612c7881612c03565b612c788161044f56fea365627a7a72315820ef2286a76392b9f79f0aba7b021446754f96f632ad2023bedfb4bbea351987fb6c6578706572696d656e74616cf564736f6c634300050d0040",
  "source": "// ChargedParticles -- Interest-bearing NFTs based on the DAI Savings Token\n// MIT License\n// Copyright (c) 2019, 2020 Rob Secord <robsecord.eth>\n//\n// Permission is hereby granted, free of chaarge, to any person obtaining a copy\n// of this software and associated documentation files (the \"Software\"), to deal\n// in the Software without restriction, including without limitation the rights\n// to use, copy, modify, merge, publish, distribute, sublicense, and/or sell\n// copies of the Software, and to permit persons to whom the Software is\n// furnished to do so, subject to the following conditions:\n//\n// The above copyright notice and this permission notice shall be included in all\n// copies or substantial portions of the Software.\n//\n// THE SOFTWARE IS PROVIDED \"AS IS\", WITHOUT WARRANTY OF ANY KIND, EXPRESS OR\n// IMPLIED, INCLUDING BUT NOT LIMITED TO THE WARRANTIES OF MERCHANTABILITY,\n// FITNESS FOR A PARTICULAR PURPOSE AND NON-INFRINGEMENT. IN NO EVENT SHALL THE\n// AUTHORS OR COPYRIGHT HOLDERS BE LIABLE FOR ANY CLAIM, DAMAGES OR OTHER\n// LIABILITY, WHETHER IN AN ACTION OF CONTRACT, TORT OR OTHERWISE, ARISING FROM,\n// OUT OF OR IN CONNECTION WITH THE SOFTWARE OR THE USE OR OTHER DEALINGS IN THE\n// SOFTWARE.\n\n// Reduce deployment gas costs by limiting the size of text used in error messages\n// ERROR CODES:\n//  100:        ADDRESS, OWNER, OPERATOR\n//      101         Invalid Address\n//      102         Sender is not owner\n//      103         Sender is not owner or operator\n//      104         Insufficient balance\n//      105         Unable to send value, recipient may have reverted\n//  200:        MATH\n//      201         Addition Overflow\n//      202         Subtraction Overflow\n//      203         Multiplication overflow\n//      204         Division by zero\n//      205         Modulo by zero\n//  300:        ERC721\n//      301         Invalid Recipient\n//      302         Invalid on-received message\n//      303         Invalid tokenId\n//      304         Invalid owner/operator\n//      305         Token ID already exists\n//  400:        ChargedParticles\n//      401         Invalid Method\n//      402         Unregistered Type\n//      403         Particle has no Charge\n//      404         Insufficient DAI Balance\n//      405         Transfer Failed\n//      406         Particle has insufficient charge\n\npragma solidity ^0.5.13;\npragma experimental ABIEncoderV2;\n\nimport \"../../../node_modules/openzeppelin-solidity/contracts/utils/Address.sol\";\nimport \"../../../node_modules/openzeppelin-solidity/contracts/math/SafeMath.sol\";\nimport \"../../../node_modules/openzeppelin-solidity/contracts/token/ERC20/IERC20.sol\";\nimport \"../../../node_modules/openzeppelin-solidity/contracts/token/ERC721/ERC721Metadata.sol\";\nimport \"../../chai/IChai.sol\";\n\n/**\n * @notice Charged Particles Contract - Interest-Bearing NFTs\n *  -- ERC-721 Edition\n */\ncontract ChargedParticlesCHAI is ERC721Metadata {\n    using SafeMath for uint256;\n\n    /***********************************|\n    |        Variables and Events       |\n    |__________________________________*/\n\n    IERC20 internal dai;\n    IChai internal chai;\n\n    // This value is used to track the amount of CHAI each token holds.\n    //   CHAI is always redeemable for more and more DAI over time, thus the interest.\n    //\n    mapping(uint256 => uint256) internal chaiBalanceByTokenId;    // Amount of Chai minted from Dai deposited\n\n    // To Mint Tokens there is a Minting Fee, which is a small percentage of the Funding Asset\n    //    of the token (in this case, DAI) upon Minting.\n    //  A value of \"50\" here would represent a Fee of 0.5% of the Funding Asset ((50 / 10000) * 100)\n    //    This allows a fee as low as 0.01%  (value of \"1\")\n    //  This means that a newly minted particle would have 99.5% of its \"Mass\" and 0% of its \"Charge\".\n    //    As the \"Charge\" increases over time, the particle will fill up the \"Mass\" to 100% and then\n    //    the \"Charge\" will start building up.  Essentially, only a small portion of the interest\n    //    is used to pay the minting fee.  The particle will be in \"cool-down\" mode until the \"Mass\"\n    //    of the particle returns to 100% (this should be a relatively short period of time).\n    //    When the particle reaches 100% \"Mass\" is can be \"Melted\" (or burned) to reclaim the underlying\n    //    asset (in this case DAI).  Since the \"Mass\" will be back to 100%, \"Melting\" will yield at least 100%\n    //    of the underlying asset back to the owner (plus any interest accrued, the \"charge\").\n    //  This value is completely optional and can be set to 0 to specify No Fee.\n    uint256 internal mintFee;\n\n    // The amount of Fees collected from minting (collected in CHAI, paid out in DAI)\n    uint256 internal collectedFees;\n\n    // Amount of Dai to deposit when minting\n    uint256 internal requiredFunding;\n\n    // Track total amount of Particles in existence\n    uint256 internal totalMintedTokens;\n\n    // Contract Owner\n    //  This value should be assigned to a Multisig Wallet or a DAO\n    address private owner;\n\n    bytes16 public version = \"v0.0.3\";\n\n    event TransferCharge(address indexed from, uint256 indexed _fromTokenId, uint256 indexed _toTokenId, uint256 _amount);\n    event OwnershipTransferred(address indexed previousOwner, address indexed newOwner);\n\n    /***********************************|\n    |             Modifiers             |\n    |__________________________________*/\n\n    /**\n     * @dev Throws if called by any account other than the owner.\n     */\n    modifier onlyOwner() {\n        require(msg.sender == owner, \"E102\");\n        _;\n    }\n\n    /***********************************|\n    |          Initialization           |\n    |__________________________________*/\n\n    constructor() ERC721Metadata(\"ChargedParticles\", \"IONS\") public {\n        // Constructor args suck!  see \"setup()\" function below\n        // requiredFunding = 1e18;\n        // mintFee = 50;    //  0.5% of Chai from deposited Dai\n\n        owner = msg.sender;\n        emit OwnershipTransferred(address(0), owner);\n    }\n\n    /***********************************|\n    |            Public Read            |\n    |__________________________________*/\n\n    /**\n     * @notice Gets the address of the contract owner.\n     * @return The address of the owner\n     */\n    function getContractOwner() public view returns (address) {\n        return owner;\n    }\n\n    /***********************************|\n    |         Particle Physics          |\n    |__________________________________*/\n\n    /**\n     * @notice Gets the Amount of Base DAI held in the Token (amount token was minted with)\n     * @return  The Amount of DAI held in the Token\n     */\n    function baseParticleMass() public view returns (uint256) {\n        return requiredFunding;\n    }\n\n    /**\n     * @notice Gets the amount of interest the Token has generated (it's accumulated particle-charge)\n     * @param _tokenId      The ID of the Token\n     * @return  The amount of interest the Token has generated\n     */\n    function currentParticleCharge(uint256 _tokenId) public returns (uint256) {\n        require(_exists(_tokenId), \"E402\");\n\n        uint256 currentCharge = chai.dai(chaiBalanceByTokenId[_tokenId]);\n        if (requiredFunding >= currentCharge) { return 0; }\n        return currentCharge.sub(requiredFunding);\n    }\n\n    /**\n     * @notice Allows the owner of the Token to collect the interest generated from the token\n     *  without removing the underlying DAI that is held in the token\n     * @param _tokenId      The ID of the Token\n     * @return  The amount of interest released from the token\n     */\n    function dischargeParticle(uint256 _tokenId) public returns (uint256) {\n        require(_isApprovedOrOwner(msg.sender, _tokenId), \"E103\");\n\n        uint256 _currentChargeInDai = currentParticleCharge(_tokenId);\n        require(_currentChargeInDai > 0, \"E403\");\n\n        uint256 _paidChai = _payoutChargedDai(msg.sender, _currentChargeInDai);\n        chaiBalanceByTokenId[_tokenId] = chaiBalanceByTokenId[_tokenId].sub(_paidChai);\n\n        return _currentChargeInDai;\n    }\n\n\n    /***********************************|\n    |            Public Mint            |\n    |__________________________________*/\n\n    /**\n     * @notice Mints multiple new Particles\n     * @param _to       The owner address to assign the new tokens to\n     * @param _amount   The amount of tokens to mint\n     * @param _data     Custom data used for transferring tokens into contracts\n     * @return  The IDs of the newly minted tokens\n     */\n    function mintParticles(address _to, uint256 _amount, bytes memory _data) public returns (uint256[] memory) {\n        address _self = address(this);\n        uint256 i;\n        uint256 _tokenId;\n        uint256 _totalDai;\n        uint256[] memory _tokenIds = new uint256[](_amount);\n\n        for (i = 0; i < _amount; ++i) {\n            _totalDai = requiredFunding.add(_totalDai);\n\n            _tokenId = (totalMintedTokens.add(i+1));\n            _tokenIds[i] = _tokenId;\n            _safeMint(_to, _tokenId, _data);\n        }\n        totalMintedTokens = totalMintedTokens.add(_amount);\n\n        if (_totalDai > 0) {\n            // Transfer DAI from User to Contract\n            _collectRequiredDai(msg.sender, _totalDai);\n\n            uint256 _balance = chai.balanceOf(_self);\n            for (i = 0; i < _amount; ++i) {\n                _tokenId = _tokenIds[i];\n\n                // Tokenize Interest\n                chai.join(_self, requiredFunding);\n\n                // Track Chai in each Token\n                 chaiBalanceByTokenId[_tokenId] = _totalChaiForToken(chai.balanceOf(_self).sub(_balance));\n                _balance = chai.balanceOf(_self);\n            }\n        }\n        return _tokenIds;\n    }\n\n    /***********************************|\n    |            Public Burn            |\n    |__________________________________*/\n\n    /**\n     * @notice Destroys a Particle and releases the underlying DAI + Interest (Mass + Charge)\n     * @param _tokenId      The ID of the token to burn\n     */\n    function burnParticle(uint256 _tokenId) public {\n        // Burn Token\n        _burn(msg.sender, _tokenId);\n\n        // Payout Dai + Interest\n        uint256 _tokenChai = chaiBalanceByTokenId[_tokenId];\n        chaiBalanceByTokenId[_tokenId] = 0;\n        _payoutFundedDai(msg.sender, _tokenChai);\n    }\n\n    /**\n     * @notice Destroys multiple Particles and releases the underlying DAI + Interest (Mass + Charge)\n     * @param _tokenIds     The IDs of the tokens to burn\n     */\n    function burnParticles(uint256[] memory _tokenIds) public {\n        uint256 _tokenId;\n        uint256 _totalChai;\n        for (uint256 i = 0; i < _tokenIds.length; ++i) {\n            _tokenId = _tokenIds[i];\n\n            // Burn Token\n            _burn(msg.sender, _tokenId);\n\n            // Payout Dai + Interest\n            _totalChai = chaiBalanceByTokenId[_tokenId].add(_totalChai);\n            chaiBalanceByTokenId[_tokenId] = 0;\n        }\n        _payoutFundedDai(msg.sender, _totalChai);\n    }\n\n    /***********************************|\n    |         Transfer Charge           |\n    |__________________________________*/\n\n    /**\n     * @notice Transfers a tokens full-charge from one particle to another\n     * @param _fromTokenId  The Token ID to transfer the Charge from\n     * @param _toTokenId    The Token ID to transfer the Charge to\n     */\n    function transferCharge(uint256 _fromTokenId, uint256 _toTokenId) public {\n        require(_isApprovedOrOwner(msg.sender, _fromTokenId), \"E103\");\n\n        // Transfer Full Amount of Charge\n        uint256 currentCharge = currentParticleCharge(_fromTokenId); // In Funding Token\n        _transferCharge(msg.sender, _fromTokenId, _toTokenId, currentCharge);\n    }\n\n    /**\n     * @notice Transfers some of a tokens charge from one particle to another\n     * @param _fromTokenId  The Token ID to transfer the Charge from\n     * @param _toTokenId    The Token ID to transfer the Charge to\n     * @param _amount       The Amount of Charge to be transferred - must be <= particle charge\n     */\n    function transferCharge(uint256 _fromTokenId, uint256 _toTokenId, uint256 _amount) public {\n        require(_isApprovedOrOwner(msg.sender, _fromTokenId), \"E103\");\n\n        _transferCharge(msg.sender, _fromTokenId, _toTokenId, _amount);\n    }\n\n    /***********************************|\n    |            Only Owner             |\n    |__________________________________*/\n\n    /**\n     * @dev Setup the DAI/CHAI contracts and configure the contract\n     */\n    function setup(address _daiAddress, address _chaiAddress, uint256 _mintFee, uint256 _requiredFunding) public onlyOwner {\n        // Set DAI as Funding Token\n        dai = IERC20(_daiAddress);\n        chai = IChai(_chaiAddress);\n\n        // Setup Chai to Tokenize DAI Interest\n        dai.approve(_chaiAddress, uint(-1));\n\n        mintFee = _mintFee;\n        requiredFunding = _requiredFunding;\n    }\n\n    /**\n     * @dev Allows contract owner to withdraw any fees earned\n     */\n    function withdrawFees() public onlyOwner {\n        uint256 _balance = address(this).balance;\n        if (_balance > 0) {\n            msg.sender.transfer(_balance);\n        }\n        if (collectedFees > 0) {\n            _payoutFundedDai(msg.sender, collectedFees);\n            collectedFees = 0;\n        }\n    }\n\n    /**\n     * @notice Transfers the ownership of the contract to new address\n     * @param _newOwner Address of the new owner\n     */\n    function transferOwnership(address _newOwner) public onlyOwner {\n        require(_newOwner != address(0), \"E101\");\n        emit OwnershipTransferred(owner, _newOwner);\n        owner = _newOwner;\n    }\n\n    /***********************************|\n    |         Private Functions         |\n    |__________________________________*/\n\n    /**\n     * @dev Collects the Required DAI from the users wallet during Minting\n     * @param _from         The owner address to collect the DAI from\n     * @param _requiredDai  The amount of DAI to collect from the user\n     */\n    function _collectRequiredDai(address _from, uint256 _requiredDai) internal {\n        // Transfer DAI from User to Contract\n        uint256 _userDaiBalance = dai.balanceOf(_from);\n        require(_requiredDai <= _userDaiBalance, \"E404\");\n        require(dai.transferFrom(_from, address(this), _requiredDai), \"E405\");\n    }\n\n    /**\n     * @dev Pays out a specified amount of CHAI\n     * @param _to           The owner address to pay out to\n     * @param _totalChai    The total amount of CHAI to pay out\n     */\n    function _payoutFundedDai(address _to, uint256 _totalChai) internal {\n        address _self = address(this);\n\n        // Exit Chai and collect Dai + Interest\n        chai.exit(_self, _totalChai);\n\n        // Transfer Dai + Interest\n        uint256 _receivedDai = dai.balanceOf(_self);\n        require(dai.transferFrom(_self, _to, _receivedDai), \"E405\");\n    }\n\n    /**\n     * @dev Pays out a specified amount of DAI\n     * @param _to           The owner address to pay out to\n     * @param _totalDai     The total amount of DAI to pay out\n     */\n    function _payoutChargedDai(address _to, uint256 _totalDai) internal returns (uint256) {\n        address _self = address(this);\n\n        // Collect Interest\n        uint256 _chai = chai.draw(_self, _totalDai);\n\n        // Transfer Interest\n        uint256 _receivedDai = dai.balanceOf(_self);\n        require(dai.transferFrom(_self, _to, _receivedDai), \"E405\");\n        return _chai;\n    }\n\n    /**\n     * @dev Transfers a tokens charge from one particle to another\n     * @param _from         The owner address to transfer the Charge from\n     * @param _fromTokenId  The Token ID to transfer the Charge from\n     * @param _toTokenId    The Token ID to transfer the Charge to\n     * @param _amount       The Amount of Charge to be transferred - must be <= particle charge\n     */\n    function _transferCharge(address _from, uint256 _fromTokenId, uint256 _toTokenId, uint256 _amount) internal {\n        uint256 currentCharge = currentParticleCharge(_fromTokenId); // In Funding Token\n        require(currentCharge > 0, \"E403\");\n        require(currentCharge >= _amount, \"E406\");\n\n        // Move Chai (already held in contract, just need to swap balances)\n        uint256 _chaiAmount = chai.chai(_amount);\n        chaiBalanceByTokenId[_fromTokenId] = chaiBalanceByTokenId[_fromTokenId].sub(_chaiAmount);\n        chaiBalanceByTokenId[_toTokenId] = chaiBalanceByTokenId[_toTokenId].add(_chaiAmount);\n\n        // Emit event\n        emit TransferCharge(_from, _fromTokenId, _toTokenId, _amount);\n    }\n\n    /**\n     * @dev Calculates the amount of DAI held within a token during minting\n     *      Note: Accounts for any contract fees\n     * @param _tokenChai    The total amount of DAI used to fund the token\n     * @return  The actual amount of DAI to fund the token - fees\n     */\n    function _totalChaiForToken(uint256 _tokenChai) internal returns (uint256) {\n        if (mintFee == 0) { return _tokenChai; }\n        uint256 _mintFee = _tokenChai.mul(mintFee).div(1e4);\n        collectedFees = collectedFees.add(_mintFee);\n        return _tokenChai.sub(_mintFee);\n    }\n}\n",
  "sourcePath": "/Users/robsecord/workspace/Ethereum/ChargedParticles/ChargedParticlesEth/contracts/variations/erc721/ChargedParticlesCHAI.sol",
  "compiler": {
    "name": "solc",
    "version": "0.5.13+commit.5b0b510c.Emscripten.clang"
  },
  "schemaVersion": "3.0.23",
  "updatedAt": "2020-02-06T04:37:02.206Z",
  "devdoc": {
    "methods": {
      "approve(address,uint256)": {
        "details": "Approves another address to transfer the given token ID The zero address indicates there is no approved address. There can only be one approved address per token at a given time. Can only be called by the token owner or an approved operator.",
        "params": {
          "to": "address to be approved for the given token ID",
          "tokenId": "uint256 ID of the token to be approved"
        }
      },
      "balanceOf(address)": {
        "details": "Gets the balance of the specified address.",
        "params": {
          "owner": "address to query the balance of"
        },
        "return": "uint256 representing the amount owned by the passed address"
      },
      "baseParticleMass()": {
        "return": "The Amount of DAI held in the Token"
      },
      "burnParticle(uint256)": {
        "params": {
          "_tokenId": "The ID of the token to burn"
        }
      },
      "burnParticles(uint256[])": {
        "params": {
          "_tokenIds": "The IDs of the tokens to burn"
        }
      },
      "currentParticleCharge(uint256)": {
        "params": {
          "_tokenId": "The ID of the Token"
        },
        "return": "The amount of interest the Token has generated"
      },
      "dischargeParticle(uint256)": {
        "params": {
          "_tokenId": "The ID of the Token"
        },
        "return": "The amount of interest released from the token"
      },
      "getApproved(uint256)": {
        "details": "Gets the approved address for a token ID, or zero if no address set Reverts if the token ID does not exist.",
        "params": {
          "tokenId": "uint256 ID of the token to query the approval of"
        },
        "return": "address currently approved for the given token ID"
      },
      "getContractOwner()": {
        "return": "The address of the owner"
      },
      "isApprovedForAll(address,address)": {
        "details": "Tells whether an operator is approved by a given owner.",
        "params": {
          "operator": "operator address which you want to query the approval of",
          "owner": "owner address which you want to query the approval of"
        },
        "return": "bool whether the given operator is approved by the given owner"
      },
      "mintParticles(address,uint256,bytes)": {
        "params": {
          "_amount": "The amount of tokens to mint",
          "_data": "Custom data used for transferring tokens into contracts",
          "_to": "The owner address to assign the new tokens to"
        },
        "return": "The IDs of the newly minted tokens"
      },
      "name()": {
        "details": "Gets the token name.",
        "return": "string representing the token name"
      },
      "ownerOf(uint256)": {
        "details": "Gets the owner of the specified token ID.",
        "params": {
          "tokenId": "uint256 ID of the token to query the owner of"
        },
        "return": "address currently marked as the owner of the given token ID"
      },
      "safeTransferFrom(address,address,uint256)": {
        "details": "Safely transfers the ownership of a given token ID to another address If the target address is a contract, it must implement {IERC721Receiver-onERC721Received}, which is called upon a safe transfer, and return the magic value `bytes4(keccak256(\"onERC721Received(address,address,uint256,bytes)\"))`; otherwise, the transfer is reverted. Requires the msg.sender to be the owner, approved, or operator",
        "params": {
          "from": "current owner of the token",
          "to": "address to receive the ownership of the given token ID",
          "tokenId": "uint256 ID of the token to be transferred"
        }
      },
      "safeTransferFrom(address,address,uint256,bytes)": {
        "details": "Safely transfers the ownership of a given token ID to another address If the target address is a contract, it must implement {IERC721Receiver-onERC721Received}, which is called upon a safe transfer, and return the magic value `bytes4(keccak256(\"onERC721Received(address,address,uint256,bytes)\"))`; otherwise, the transfer is reverted. Requires the _msgSender() to be the owner, approved, or operator",
        "params": {
          "_data": "bytes data to send along with a safe transfer check",
          "from": "current owner of the token",
          "to": "address to receive the ownership of the given token ID",
          "tokenId": "uint256 ID of the token to be transferred"
        }
      },
      "setApprovalForAll(address,bool)": {
        "details": "Sets or unsets the approval of a given operator An operator is allowed to transfer all tokens of the sender on their behalf.",
        "params": {
          "approved": "representing the status of the approval to be set",
          "to": "operator address to set the approval"
        }
      },
      "setup(address,address,uint256,uint256)": {
        "details": "Setup the DAI/CHAI contracts and configure the contract"
      },
      "supportsInterface(bytes4)": {
        "details": "See {IERC165-supportsInterface}.     * Time complexity O(1), guaranteed to always use less than 30 000 gas."
      },
      "symbol()": {
        "details": "Gets the token symbol.",
        "return": "string representing the token symbol"
      },
      "tokenURI(uint256)": {
        "details": "Returns an URI for a given token ID. Throws if the token ID does not exist. May return an empty string.",
        "params": {
          "tokenId": "uint256 ID of the token to query"
        }
      },
      "transferCharge(uint256,uint256)": {
        "params": {
          "_fromTokenId": "The Token ID to transfer the Charge from",
          "_toTokenId": "The Token ID to transfer the Charge to"
        }
      },
      "transferCharge(uint256,uint256,uint256)": {
        "params": {
          "_amount": "The Amount of Charge to be transferred - must be <= particle charge",
          "_fromTokenId": "The Token ID to transfer the Charge from",
          "_toTokenId": "The Token ID to transfer the Charge to"
        }
      },
      "transferFrom(address,address,uint256)": {
        "details": "Transfers the ownership of a given token ID to another address. Usage of this method is discouraged, use {safeTransferFrom} whenever possible. Requires the msg.sender to be the owner, approved, or operator.",
        "params": {
          "from": "current owner of the token",
          "to": "address to receive the ownership of the given token ID",
          "tokenId": "uint256 ID of the token to be transferred"
        }
      },
      "transferOwnership(address)": {
        "params": {
          "_newOwner": "Address of the new owner"
        }
      },
      "withdrawFees()": {
        "details": "Allows contract owner to withdraw any fees earned"
      }
    }
  },
  "userdoc": {
    "methods": {
      "baseParticleMass()": {
        "notice": "Gets the Amount of Base DAI held in the Token (amount token was minted with)"
      },
      "burnParticle(uint256)": {
        "notice": "Destroys a Particle and releases the underlying DAI + Interest (Mass + Charge)"
      },
      "burnParticles(uint256[])": {
        "notice": "Destroys multiple Particles and releases the underlying DAI + Interest (Mass + Charge)"
      },
      "constructor": "*********************************| |          Initialization           | |__________________________________",
      "currentParticleCharge(uint256)": {
        "notice": "Gets the amount of interest the Token has generated (it's accumulated particle-charge)"
      },
      "dischargeParticle(uint256)": {
        "notice": "Allows the owner of the Token to collect the interest generated from the token without removing the underlying DAI that is held in the token"
      },
      "getContractOwner()": {
        "notice": "Gets the address of the contract owner."
      },
      "mintParticles(address,uint256,bytes)": {
        "notice": "Mints multiple new Particles"
      },
      "transferCharge(uint256,uint256)": {
        "notice": "Transfers a tokens full-charge from one particle to another"
      },
      "transferCharge(uint256,uint256,uint256)": {
        "notice": "Transfers some of a tokens charge from one particle to another"
      },
      "transferOwnership(address)": {
        "notice": "Transfers the ownership of the contract to new address"
      }
    },
    "notice": "Charged Particles Contract - Interest-Bearing NFTs -- ERC-721 Edition"
  }
}