{
  "contractName": "ChargedParticles",
  "abi": [
    {
      "inputs": [],
      "payable": false,
      "stateMutability": "nonpayable",
      "type": "constructor"
    },
    {
      "anonymous": false,
      "inputs": [
        {
          "indexed": true,
          "internalType": "address",
          "name": "_owner",
          "type": "address"
        },
        {
          "indexed": true,
          "internalType": "address",
          "name": "_operator",
          "type": "address"
        },
        {
          "indexed": false,
          "internalType": "bool",
          "name": "_approved",
          "type": "bool"
        }
      ],
      "name": "ApprovalForAll",
      "type": "event"
    },
    {
      "anonymous": false,
      "inputs": [
        {
          "indexed": true,
          "internalType": "address",
          "name": "signer",
          "type": "address"
        },
        {
          "indexed": false,
          "internalType": "uint256",
          "name": "newNonce",
          "type": "uint256"
        }
      ],
      "name": "NonceChange",
      "type": "event"
    },
    {
      "anonymous": false,
      "inputs": [
        {
          "indexed": true,
          "internalType": "address",
          "name": "previousOwner",
          "type": "address"
        },
        {
          "indexed": true,
          "internalType": "address",
          "name": "newOwner",
          "type": "address"
        }
      ],
      "name": "OwnershipTransferred",
      "type": "event"
    },
    {
      "anonymous": false,
      "inputs": [
        {
          "indexed": true,
          "internalType": "address",
          "name": "_operator",
          "type": "address"
        },
        {
          "indexed": true,
          "internalType": "address",
          "name": "_from",
          "type": "address"
        },
        {
          "indexed": true,
          "internalType": "address",
          "name": "_to",
          "type": "address"
        },
        {
          "indexed": false,
          "internalType": "uint256[]",
          "name": "_ids",
          "type": "uint256[]"
        },
        {
          "indexed": false,
          "internalType": "uint256[]",
          "name": "_amounts",
          "type": "uint256[]"
        }
      ],
      "name": "TransferBatch",
      "type": "event"
    },
    {
      "anonymous": false,
      "inputs": [
        {
          "indexed": true,
          "internalType": "address",
          "name": "_operator",
          "type": "address"
        },
        {
          "indexed": true,
          "internalType": "address",
          "name": "_from",
          "type": "address"
        },
        {
          "indexed": true,
          "internalType": "address",
          "name": "_to",
          "type": "address"
        },
        {
          "indexed": false,
          "internalType": "uint256",
          "name": "_id",
          "type": "uint256"
        },
        {
          "indexed": false,
          "internalType": "uint256",
          "name": "_amount",
          "type": "uint256"
        }
      ],
      "name": "TransferSingle",
      "type": "event"
    },
    {
      "anonymous": false,
      "inputs": [
        {
          "indexed": false,
          "internalType": "string",
          "name": "_uri",
          "type": "string"
        },
        {
          "indexed": true,
          "internalType": "uint256",
          "name": "_id",
          "type": "uint256"
        }
      ],
      "name": "URI",
      "type": "event"
    },
    {
      "payable": false,
      "stateMutability": "nonpayable",
      "type": "fallback"
    },
    {
      "constant": true,
      "inputs": [
        {
          "internalType": "address",
          "name": "_owner",
          "type": "address"
        },
        {
          "internalType": "uint256",
          "name": "_id",
          "type": "uint256"
        }
      ],
      "name": "balanceOf",
      "outputs": [
        {
          "internalType": "uint256",
          "name": "",
          "type": "uint256"
        }
      ],
      "payable": false,
      "stateMutability": "view",
      "type": "function"
    },
    {
      "constant": true,
      "inputs": [
        {
          "internalType": "address[]",
          "name": "_owners",
          "type": "address[]"
        },
        {
          "internalType": "uint256[]",
          "name": "_ids",
          "type": "uint256[]"
        }
      ],
      "name": "balanceOfBatch",
      "outputs": [
        {
          "internalType": "uint256[]",
          "name": "",
          "type": "uint256[]"
        }
      ],
      "payable": false,
      "stateMutability": "view",
      "type": "function"
    },
    {
      "constant": true,
      "inputs": [],
      "name": "chaiAddress",
      "outputs": [
        {
          "internalType": "address",
          "name": "",
          "type": "address"
        }
      ],
      "payable": false,
      "stateMutability": "view",
      "type": "function"
    },
    {
      "constant": true,
      "inputs": [],
      "name": "daiAddress",
      "outputs": [
        {
          "internalType": "address",
          "name": "",
          "type": "address"
        }
      ],
      "payable": false,
      "stateMutability": "view",
      "type": "function"
    },
    {
      "constant": true,
      "inputs": [
        {
          "internalType": "uint256",
          "name": "_id",
          "type": "uint256"
        }
      ],
      "name": "getIDBinIndex",
      "outputs": [
        {
          "internalType": "uint256",
          "name": "bin",
          "type": "uint256"
        },
        {
          "internalType": "uint256",
          "name": "index",
          "type": "uint256"
        }
      ],
      "payable": false,
      "stateMutability": "pure",
      "type": "function"
    },
    {
      "constant": true,
      "inputs": [
        {
          "internalType": "address",
          "name": "_signer",
          "type": "address"
        }
      ],
      "name": "getNonce",
      "outputs": [
        {
          "internalType": "uint256",
          "name": "nonce",
          "type": "uint256"
        }
      ],
      "payable": false,
      "stateMutability": "view",
      "type": "function"
    },
    {
      "constant": true,
      "inputs": [],
      "name": "getOwner",
      "outputs": [
        {
          "internalType": "address",
          "name": "",
          "type": "address"
        }
      ],
      "payable": false,
      "stateMutability": "view",
      "type": "function"
    },
    {
      "constant": true,
      "inputs": [
        {
          "internalType": "uint256",
          "name": "_binValues",
          "type": "uint256"
        },
        {
          "internalType": "uint256",
          "name": "_index",
          "type": "uint256"
        }
      ],
      "name": "getValueInBin",
      "outputs": [
        {
          "internalType": "uint256",
          "name": "",
          "type": "uint256"
        }
      ],
      "payable": false,
      "stateMutability": "pure",
      "type": "function"
    },
    {
      "constant": true,
      "inputs": [
        {
          "internalType": "address",
          "name": "_owner",
          "type": "address"
        },
        {
          "internalType": "address",
          "name": "_operator",
          "type": "address"
        }
      ],
      "name": "isApprovedForAll",
      "outputs": [
        {
          "internalType": "bool",
          "name": "isOperator",
          "type": "bool"
        }
      ],
      "payable": false,
      "stateMutability": "view",
      "type": "function"
    },
    {
      "constant": true,
      "inputs": [
        {
          "internalType": "address",
          "name": "_signerAddress",
          "type": "address"
        },
        {
          "internalType": "bytes32",
          "name": "_hash",
          "type": "bytes32"
        },
        {
          "internalType": "bytes",
          "name": "_data",
          "type": "bytes"
        },
        {
          "internalType": "bytes",
          "name": "_sig",
          "type": "bytes"
        }
      ],
      "name": "isValidSignature",
      "outputs": [
        {
          "internalType": "bool",
          "name": "isValid",
          "type": "bool"
        }
      ],
      "payable": false,
      "stateMutability": "view",
      "type": "function"
    },
    {
      "constant": false,
      "inputs": [
        {
          "internalType": "address",
          "name": "_from",
          "type": "address"
        },
        {
          "internalType": "address",
          "name": "_to",
          "type": "address"
        },
        {
          "internalType": "uint256[]",
          "name": "_ids",
          "type": "uint256[]"
        },
        {
          "internalType": "uint256[]",
          "name": "_amounts",
          "type": "uint256[]"
        },
        {
          "internalType": "bool",
          "name": "_isGasFee",
          "type": "bool"
        },
        {
          "internalType": "bytes",
          "name": "_data",
          "type": "bytes"
        }
      ],
      "name": "metaSafeBatchTransferFrom",
      "outputs": [],
      "payable": false,
      "stateMutability": "nonpayable",
      "type": "function"
    },
    {
      "constant": false,
      "inputs": [
        {
          "internalType": "address",
          "name": "_from",
          "type": "address"
        },
        {
          "internalType": "address",
          "name": "_to",
          "type": "address"
        },
        {
          "internalType": "uint256",
          "name": "_id",
          "type": "uint256"
        },
        {
          "internalType": "uint256",
          "name": "_amount",
          "type": "uint256"
        },
        {
          "internalType": "bool",
          "name": "_isGasFee",
          "type": "bool"
        },
        {
          "internalType": "bytes",
          "name": "_data",
          "type": "bytes"
        }
      ],
      "name": "metaSafeTransferFrom",
      "outputs": [],
      "payable": false,
      "stateMutability": "nonpayable",
      "type": "function"
    },
    {
      "constant": false,
      "inputs": [
        {
          "internalType": "address",
          "name": "_owner",
          "type": "address"
        },
        {
          "internalType": "address",
          "name": "_operator",
          "type": "address"
        },
        {
          "internalType": "bool",
          "name": "_approved",
          "type": "bool"
        },
        {
          "internalType": "bool",
          "name": "_isGasFee",
          "type": "bool"
        },
        {
          "internalType": "bytes",
          "name": "_data",
          "type": "bytes"
        }
      ],
      "name": "metaSetApprovalForAll",
      "outputs": [],
      "payable": false,
      "stateMutability": "nonpayable",
      "type": "function"
    },
    {
      "constant": true,
      "inputs": [
        {
          "internalType": "uint256",
          "name": "_id",
          "type": "uint256"
        }
      ],
      "name": "ownerOf",
      "outputs": [
        {
          "internalType": "address",
          "name": "",
          "type": "address"
        }
      ],
      "payable": false,
      "stateMutability": "view",
      "type": "function"
    },
    {
      "constant": false,
      "inputs": [
        {
          "internalType": "address",
          "name": "_from",
          "type": "address"
        },
        {
          "internalType": "address",
          "name": "_to",
          "type": "address"
        },
        {
          "internalType": "uint256[]",
          "name": "_ids",
          "type": "uint256[]"
        },
        {
          "internalType": "uint256[]",
          "name": "_amounts",
          "type": "uint256[]"
        },
        {
          "internalType": "bytes",
          "name": "_data",
          "type": "bytes"
        }
      ],
      "name": "safeBatchTransferFrom",
      "outputs": [],
      "payable": false,
      "stateMutability": "nonpayable",
      "type": "function"
    },
    {
      "constant": false,
      "inputs": [
        {
          "internalType": "address",
          "name": "_from",
          "type": "address"
        },
        {
          "internalType": "address",
          "name": "_to",
          "type": "address"
        },
        {
          "internalType": "uint256",
          "name": "_id",
          "type": "uint256"
        },
        {
          "internalType": "uint256",
          "name": "_amount",
          "type": "uint256"
        },
        {
          "internalType": "bytes",
          "name": "_data",
          "type": "bytes"
        }
      ],
      "name": "safeTransferFrom",
      "outputs": [],
      "payable": false,
      "stateMutability": "nonpayable",
      "type": "function"
    },
    {
      "constant": false,
      "inputs": [
        {
          "internalType": "address",
          "name": "_operator",
          "type": "address"
        },
        {
          "internalType": "bool",
          "name": "_approved",
          "type": "bool"
        }
      ],
      "name": "setApprovalForAll",
      "outputs": [],
      "payable": false,
      "stateMutability": "nonpayable",
      "type": "function"
    },
    {
      "constant": true,
      "inputs": [
        {
          "internalType": "bytes4",
          "name": "_interfaceID",
          "type": "bytes4"
        }
      ],
      "name": "supportsInterface",
      "outputs": [
        {
          "internalType": "bool",
          "name": "",
          "type": "bool"
        }
      ],
      "payable": false,
      "stateMutability": "view",
      "type": "function"
    },
    {
      "constant": false,
      "inputs": [
        {
          "internalType": "address",
          "name": "_newOwner",
          "type": "address"
        }
      ],
      "name": "transferOwnership",
      "outputs": [],
      "payable": false,
      "stateMutability": "nonpayable",
      "type": "function"
    },
    {
      "constant": true,
      "inputs": [
        {
          "internalType": "uint256",
          "name": "_id",
          "type": "uint256"
        }
      ],
      "name": "uri",
      "outputs": [
        {
          "internalType": "string",
          "name": "",
          "type": "string"
        }
      ],
      "payable": false,
      "stateMutability": "view",
      "type": "function"
    },
    {
      "constant": true,
      "inputs": [
        {
          "internalType": "uint256",
          "name": "_type",
          "type": "uint256"
        }
      ],
      "name": "isRegisteredType",
      "outputs": [
        {
          "internalType": "bool",
          "name": "",
          "type": "bool"
        }
      ],
      "payable": false,
      "stateMutability": "view",
      "type": "function"
    },
    {
      "constant": true,
      "inputs": [
        {
          "internalType": "uint256",
          "name": "_type",
          "type": "uint256"
        }
      ],
      "name": "isPublicType",
      "outputs": [
        {
          "internalType": "bool",
          "name": "",
          "type": "bool"
        }
      ],
      "payable": false,
      "stateMutability": "view",
      "type": "function"
    },
    {
      "constant": true,
      "inputs": [
        {
          "internalType": "uint256",
          "name": "_type",
          "type": "uint256"
        }
      ],
      "name": "creatorOfType",
      "outputs": [
        {
          "internalType": "address",
          "name": "",
          "type": "address"
        }
      ],
      "payable": false,
      "stateMutability": "view",
      "type": "function"
    },
    {
      "constant": true,
      "inputs": [
        {
          "internalType": "uint256",
          "name": "_type",
          "type": "uint256"
        }
      ],
      "name": "canMint",
      "outputs": [
        {
          "internalType": "bool",
          "name": "",
          "type": "bool"
        }
      ],
      "payable": false,
      "stateMutability": "view",
      "type": "function"
    },
    {
      "constant": true,
      "inputs": [],
      "name": "getCreationPriceFT",
      "outputs": [
        {
          "internalType": "uint256",
          "name": "",
          "type": "uint256"
        }
      ],
      "payable": false,
      "stateMutability": "view",
      "type": "function"
    },
    {
      "constant": true,
      "inputs": [],
      "name": "getCreationPriceNFT",
      "outputs": [
        {
          "internalType": "uint256",
          "name": "",
          "type": "uint256"
        }
      ],
      "payable": false,
      "stateMutability": "view",
      "type": "function"
    },
    {
      "constant": true,
      "inputs": [],
      "name": "getMintingFee",
      "outputs": [
        {
          "internalType": "uint256",
          "name": "",
          "type": "uint256"
        }
      ],
      "payable": false,
      "stateMutability": "view",
      "type": "function"
    },
    {
      "constant": false,
      "inputs": [],
      "name": "getDaiContractBalance",
      "outputs": [
        {
          "internalType": "uint256",
          "name": "",
          "type": "uint256"
        }
      ],
      "payable": false,
      "stateMutability": "nonpayable",
      "type": "function"
    },
    {
      "constant": false,
      "inputs": [],
      "name": "getChaiContractBalance",
      "outputs": [
        {
          "internalType": "uint256",
          "name": "",
          "type": "uint256"
        }
      ],
      "payable": false,
      "stateMutability": "nonpayable",
      "type": "function"
    },
    {
      "constant": false,
      "inputs": [
        {
          "internalType": "uint256[]",
          "name": "_tokenIds",
          "type": "uint256[]"
        }
      ],
      "name": "logURIs",
      "outputs": [],
      "payable": false,
      "stateMutability": "nonpayable",
      "type": "function"
    },
    {
      "constant": true,
      "inputs": [
        {
          "internalType": "uint256",
          "name": "_tokenId",
          "type": "uint256"
        }
      ],
      "name": "baseParticleMass",
      "outputs": [
        {
          "internalType": "uint256",
          "name": "",
          "type": "uint256"
        }
      ],
      "payable": false,
      "stateMutability": "view",
      "type": "function"
    },
    {
      "constant": false,
      "inputs": [
        {
          "internalType": "uint256",
          "name": "_tokenId",
          "type": "uint256"
        }
      ],
      "name": "currentParticleCharge",
      "outputs": [
        {
          "internalType": "uint256",
          "name": "",
          "type": "uint256"
        }
      ],
      "payable": false,
      "stateMutability": "nonpayable",
      "type": "function"
    },
    {
      "constant": false,
      "inputs": [
        {
          "internalType": "uint256",
          "name": "_tokenId",
          "type": "uint256"
        }
      ],
      "name": "dischargeParticle",
      "outputs": [],
      "payable": false,
      "stateMutability": "nonpayable",
      "type": "function"
    },
    {
      "constant": false,
      "inputs": [
        {
          "internalType": "string",
          "name": "_uri",
          "type": "string"
        },
        {
          "internalType": "bool",
          "name": "_isNF",
          "type": "bool"
        },
        {
          "internalType": "bool",
          "name": "_isPrivate",
          "type": "bool"
        },
        {
          "internalType": "uint256",
          "name": "_requiredDai",
          "type": "uint256"
        }
      ],
      "name": "createParticle",
      "outputs": [
        {
          "internalType": "uint256",
          "name": "_particleTypeId",
          "type": "uint256"
        }
      ],
      "payable": true,
      "stateMutability": "payable",
      "type": "function"
    },
    {
      "constant": false,
      "inputs": [
        {
          "internalType": "address",
          "name": "_to",
          "type": "address"
        },
        {
          "internalType": "uint256",
          "name": "_type",
          "type": "uint256"
        },
        {
          "internalType": "uint256",
          "name": "_amount",
          "type": "uint256"
        },
        {
          "internalType": "bytes",
          "name": "_data",
          "type": "bytes"
        }
      ],
      "name": "mintCommon",
      "outputs": [],
      "payable": false,
      "stateMutability": "nonpayable",
      "type": "function"
    },
    {
      "constant": false,
      "inputs": [
        {
          "internalType": "address",
          "name": "_to",
          "type": "address"
        },
        {
          "internalType": "uint256[]",
          "name": "_types",
          "type": "uint256[]"
        },
        {
          "internalType": "uint256[]",
          "name": "_amounts",
          "type": "uint256[]"
        },
        {
          "internalType": "bytes",
          "name": "_data",
          "type": "bytes"
        }
      ],
      "name": "mintCommonBatch",
      "outputs": [],
      "payable": false,
      "stateMutability": "nonpayable",
      "type": "function"
    },
    {
      "constant": false,
      "inputs": [
        {
          "internalType": "address",
          "name": "_to",
          "type": "address"
        },
        {
          "internalType": "uint256",
          "name": "_type",
          "type": "uint256"
        },
        {
          "internalType": "bytes",
          "name": "_data",
          "type": "bytes"
        }
      ],
      "name": "mintUnique",
      "outputs": [
        {
          "internalType": "uint256",
          "name": "_tokenId",
          "type": "uint256"
        }
      ],
      "payable": false,
      "stateMutability": "nonpayable",
      "type": "function"
    },
    {
      "constant": false,
      "inputs": [
        {
          "internalType": "address",
          "name": "_to",
          "type": "address"
        },
        {
          "internalType": "uint256[]",
          "name": "_types",
          "type": "uint256[]"
        },
        {
          "internalType": "bytes",
          "name": "_data",
          "type": "bytes"
        }
      ],
      "name": "mintUniqueBatch",
      "outputs": [
        {
          "internalType": "uint256[]",
          "name": "_tokenIds",
          "type": "uint256[]"
        }
      ],
      "payable": false,
      "stateMutability": "nonpayable",
      "type": "function"
    },
    {
      "constant": false,
      "inputs": [
        {
          "internalType": "uint256",
          "name": "_type",
          "type": "uint256"
        },
        {
          "internalType": "uint256",
          "name": "_amount",
          "type": "uint256"
        }
      ],
      "name": "burnCommon",
      "outputs": [],
      "payable": false,
      "stateMutability": "nonpayable",
      "type": "function"
    },
    {
      "constant": false,
      "inputs": [
        {
          "internalType": "uint256[]",
          "name": "_types",
          "type": "uint256[]"
        },
        {
          "internalType": "uint256[]",
          "name": "_amounts",
          "type": "uint256[]"
        }
      ],
      "name": "burnCommonBatch",
      "outputs": [],
      "payable": false,
      "stateMutability": "nonpayable",
      "type": "function"
    },
    {
      "constant": false,
      "inputs": [
        {
          "internalType": "uint256",
          "name": "_tokenId",
          "type": "uint256"
        }
      ],
      "name": "burnUnique",
      "outputs": [],
      "payable": false,
      "stateMutability": "nonpayable",
      "type": "function"
    },
    {
      "constant": false,
      "inputs": [
        {
          "internalType": "uint256[]",
          "name": "_tokenIds",
          "type": "uint256[]"
        }
      ],
      "name": "burnUniqueBatch",
      "outputs": [],
      "payable": false,
      "stateMutability": "nonpayable",
      "type": "function"
    },
    {
      "constant": false,
      "inputs": [],
      "name": "withdrawCreationFees",
      "outputs": [],
      "payable": false,
      "stateMutability": "nonpayable",
      "type": "function"
    },
    {
      "constant": false,
      "inputs": [],
      "name": "withdrawMintingFees",
      "outputs": [],
      "payable": false,
      "stateMutability": "nonpayable",
      "type": "function"
    },
    {
      "constant": false,
      "inputs": [
        {
          "internalType": "string",
          "name": "_newBaseMetadataURI",
          "type": "string"
        }
      ],
      "name": "setBaseMetadataURI",
      "outputs": [],
      "payable": false,
      "stateMutability": "nonpayable",
      "type": "function"
    },
    {
      "constant": false,
      "inputs": [
        {
          "internalType": "uint256",
          "name": "_price",
          "type": "uint256"
        }
      ],
      "name": "setCreationPriceFT",
      "outputs": [],
      "payable": false,
      "stateMutability": "nonpayable",
      "type": "function"
    },
    {
      "constant": false,
      "inputs": [
        {
          "internalType": "uint256",
          "name": "_price",
          "type": "uint256"
        }
      ],
      "name": "setCreationPriceNFT",
      "outputs": [],
      "payable": false,
      "stateMutability": "nonpayable",
      "type": "function"
    },
    {
      "constant": false,
      "inputs": [
        {
          "internalType": "uint256",
          "name": "_fee",
          "type": "uint256"
        }
      ],
      "name": "setMintingFee",
      "outputs": [],
      "payable": false,
      "stateMutability": "nonpayable",
      "type": "function"
    },
    {
      "constant": false,
      "inputs": [
        {
          "internalType": "address",
          "name": "_daiAddress",
          "type": "address"
        },
        {
          "internalType": "address",
          "name": "_chaiAddress",
          "type": "address"
        }
      ],
      "name": "setupDai",
      "outputs": [],
      "payable": false,
      "stateMutability": "nonpayable",
      "type": "function"
    }
  ],
  "bytecode": "0x60806040523480156200001157600080fd5b507f035aff83d86937d35b32e04f0ddc6ff469290eef2f1b692d8a815c89404d474960001b3073ffffffffffffffffffffffffffffffffffffffff166040516020016200006092919062000198565b6040516020818303038152906040528051906020012060068190555033600860006101000a81548173ffffffffffffffffffffffffffffffffffffffff021916908373ffffffffffffffffffffffffffffffffffffffff160217905550600860009054906101000a900473ffffffffffffffffffffffffffffffffffffffff1673ffffffffffffffffffffffffffffffffffffffff16600073ffffffffffffffffffffffffffffffffffffffff167f8be0079c531659141344cd1fd0a4f28419497f9722a3daafe3b4186f6b6457e060405160405180910390a3651fd512913000600d81905550653faa25226000600e819055506032600f81905550620001f0565b620001776200017182620001c8565b620001dc565b82525050565b620001926200018c82620001d2565b620001e6565b82525050565b6000620001a6828562000162565b602082019150620001b882846200017d565b6020820191508190509392505050565b6000819050919050565b6000819050919050565b6000819050919050565b6000819050919050565b61b13480620002006000396000f3fe6080604052600436106102ac5760003560e01c8063810174ac11610175578063be548f28116100dc578063e8e9421b11610095578063f242432a1161006f578063f242432a14610b71578063f2fde38b14610b9a578063f5d4c82014610bc3578063fa4e12d714610bec576102ac565b8063e8e9421b14610ace578063e985e9c514610af7578063eaec5f8114610b34576102ac565b8063be548f28146109a8578063cb2c0d24146109d1578063ce0b514b14610a01578063d46c069e14610a2a578063db90e83c14610a53578063dcb13e0d14610a91576102ac565b806395b3ec211161012e57806395b3ec211461089c57806397010ce4146108d9578063a105ea6314610902578063a22cb4651461092b578063a3d4926e14610954578063b59d88a91461097d576102ac565b8063810174ac1461077a578063836f5120146107b7578063856274d3146107e0578063893d20e81461081d5780638c060bb7146108485780638c87721814610871576102ac565b8063481c911b1161021957806364a6daa2116101d257806364a6daa21461066a57806364d6dc6a146106955780636cdcf0bc146106c05780636db074b2146106fd5780636f070a1b146107285780637e518ec814610751576102ac565b8063481c911b146105225780634e1273f41461054b578063529eb8aa146105885780635dd871a3146105c5578063626c4a8d146106025780636352211e1461062d576102ac565b8063238a47091161026b578063238a47091461043a5780632c387275146104635780632d0335ab1461048e5780632eb2c2d6146104cb57806330777061146104f45780633c7a45e31461050b576102ac565b80625c0dda146102f4578062fdd58e1461033157806301ffc9a71461036e5780630e89341c146103ab5780631411f129146103e8578063172df9e414610411575b3480156102b857600080fd5b506040517f08c379a00000000000000000000000000000000000000000000000000000000081526004016102eb9061a580565b60405180910390fd5b34801561030057600080fd5b5061031b60048036036103169190810190617d65565b610c29565b604051610328919061acc0565b60405180910390f35b34801561033d57600080fd5b5061035860048036036103539190810190617d29565b610ed5565b604051610365919061acc0565b60405180910390f35b34801561037a57600080fd5b5061039560048036036103909190810190617f89565b610fcf565b6040516103a2919061a3d7565b60405180910390f35b3480156103b757600080fd5b506103d260048036036103cd91908101906181b0565b611080565b6040516103df919061a49e565b60405180910390f35b3480156103f457600080fd5b5061040f600480360361040a9190810190618202565b6110b4565b005b34801561041d57600080fd5b5061043860048036036104339190810190617dcc565b61110b565b005b34801561044657600080fd5b50610461600480360361045c91908101906181b0565b611165565b005b34801561046f57600080fd5b506104786111ff565b604051610485919061a1e9565b60405180910390f35b34801561049a57600080fd5b506104b560048036036104b09190810190617717565b611225565b6040516104c2919061acc0565b60405180910390f35b3480156104d757600080fd5b506104f260048036036104ed91908101906178b2565b61126e565b005b34801561050057600080fd5b5061050961137d565b005b34801561051757600080fd5b506105206114b6565b005b34801561052e57600080fd5b50610549600480360361054491908101906177a5565b6115a1565b005b34801561055757600080fd5b50610572600480360361056d9190810190617e47565b6119bb565b60405161057f919061a37e565b60405180910390f35b34801561059457600080fd5b506105af60048036036105aa91908101906181b0565b611b82565b6040516105bc919061a3d7565b60405180910390f35b3480156105d157600080fd5b506105ec60048036036105e791908101906181b0565b611bb1565b6040516105f9919061a3d7565b60405180910390f35b34801561060e57600080fd5b50610617611c55565b604051610624919061acc0565b60405180910390f35b34801561063957600080fd5b50610654600480360361064f91908101906181b0565b611d09565b604051610661919061a1e9565b60405180910390f35b34801561067657600080fd5b5061067f611daa565b60405161068c919061acc0565b60405180910390f35b3480156106a157600080fd5b506106aa611db4565b6040516106b7919061acc0565b60405180910390f35b3480156106cc57600080fd5b506106e760048036036106e291908101906181b0565b611dbe565b6040516106f4919061a3d7565b60405180910390f35b34801561070957600080fd5b50610712611df1565b60405161071f919061acc0565b60405180910390f35b34801561073457600080fd5b5061074f600480360361074a9190810190617eb3565b611ea5565b005b34801561075d57600080fd5b5061077860048036036107739190810190618047565b611fb3565b005b34801561078657600080fd5b506107a1600480360361079c91908101906181b0565b61204f565b6040516107ae919061acc0565b60405180910390f35b3480156107c357600080fd5b506107de60048036036107d99190810190617ef4565b6120a9565b005b3480156107ec57600080fd5b50610807600480360361080291908101906181b0565b61212e565b604051610814919061a1e9565b60405180910390f35b34801561082957600080fd5b5061083261216b565b60405161083f919061a1e9565b60405180910390f35b34801561085457600080fd5b5061086f600480360361086a91908101906181b0565b612195565b005b34801561087d57600080fd5b5061088661235c565b604051610893919061a1e9565b60405180910390f35b3480156108a857600080fd5b506108c360048036036108be91908101906181b0565b612382565b6040516108d0919061acc0565b60405180910390f35b3480156108e557600080fd5b5061090060048036036108fb9190810190617b30565b6124cd565b005b34801561090e57600080fd5b50610929600480360361092491908101906181b0565b612555565b005b34801561093757600080fd5b50610952600480360361094d9190810190617c5a565b612624565b005b34801561096057600080fd5b5061097b600480360361097691908101906177e1565b612721565b005b34801561098957600080fd5b50610992612a25565b60405161099f919061acc0565b60405180910390f35b3480156109b457600080fd5b506109cf60048036036109ca91908101906181b0565b612a2f565b005b6109eb60048036036109e69190810190618088565b612ac9565b6040516109f8919061acc0565b60405180910390f35b348015610a0d57600080fd5b50610a286004803603610a239190810190617a00565b612cc6565b005b348015610a3657600080fd5b50610a516004803603610a4c9190810190617eb3565b612f7e565b005b348015610a5f57600080fd5b50610a7a6004803603610a7591908101906181b0565b612f8a565b604051610a8892919061ad2d565b60405180910390f35b348015610a9d57600080fd5b50610ab86004803603610ab39190810190617bdb565b612fc1565b604051610ac5919061a37e565b60405180910390f35b348015610ada57600080fd5b50610af56004803603610af091908101906181b0565b6133c3565b005b348015610b0357600080fd5b50610b1e6004803603610b1991908101906177a5565b61345d565b604051610b2b919061a3d7565b60405180910390f35b348015610b4057600080fd5b50610b5b6004803603610b569190810190618202565b6134f1565b604051610b68919061acc0565b60405180910390f35b348015610b7d57600080fd5b50610b986004803603610b939190810190617aa1565b61351e565b005b348015610ba657600080fd5b50610bc16004803603610bbc9190810190617717565b61366c565b005b348015610bcf57600080fd5b50610bea6004803603610be59190810190617971565b61382c565b005b348015610bf857600080fd5b50610c136004803603610c0e9190810190617c96565b6139f5565b604051610c20919061a3d7565b60405180910390f35b6000610c3483611bb1565b610c73576040517f08c379a0000000000000000000000000000000000000000000000000000000008152600401610c6a9061ac40565b60405180910390fd5b60003090506000600b6000868152602001908152602001600020549050610c9a3382614063565b610ca586868661424a565b92506000601460009054906101000a900473ffffffffffffffffffffffffffffffffffffffff1673ffffffffffffffffffffffffffffffffffffffff166370a08231846040518263ffffffff1660e01b8152600401610d04919061a1e9565b602060405180830381600087803b158015610d1e57600080fd5b505af1158015610d32573d6000803e3d6000fd5b505050506040513d601f19601f82011682018060405250610d5691908101906181d9565b9050601460009054906101000a900473ffffffffffffffffffffffffffffffffffffffff1673ffffffffffffffffffffffffffffffffffffffff16633b4da69f84846040518363ffffffff1660e01b8152600401610db592919061a355565b600060405180830381600087803b158015610dcf57600080fd5b505af1158015610de3573d6000803e3d6000fd5b505050506000601460009054906101000a900473ffffffffffffffffffffffffffffffffffffffff1673ffffffffffffffffffffffffffffffffffffffff166370a08231856040518263ffffffff1660e01b8152600401610e44919061a1e9565b602060405180830381600087803b158015610e5e57600080fd5b505af1158015610e72573d6000803e3d6000fd5b505050506040513d601f19601f82011682018060405250610e9691908101906181d9565b9050610eb3610eae83836143d190919063ffffffff16565b614427565b600c600087815260200190815260200160002081905550505050509392505050565b60007f8000000000000000000000000000000000000000000000000000000000000000808316148015610f3d575060007fffffffffffffffffffffffffffffffffffffffffffffffffffffffffffffffff6fffffffffffffffffffffffffffffffff16831614155b15610fbc578273ffffffffffffffffffffffffffffffffffffffff166003600084815260200190815260200160002060009054906101000a900473ffffffffffffffffffffffffffffffffffffffff1673ffffffffffffffffffffffffffffffffffffffff1614610faf576000610fb2565b60015b60ff169050610fc9565b610fc6838361448a565b90505b92915050565b60006301ffc9a760e01b7bffffffffffffffffffffffffffffffffffffffffffffffffffffffff1916827bffffffffffffffffffffffffffffffffffffffffffffffffffffffff1916148061106857506397a409d260e01b7bffffffffffffffffffffffffffffffffffffffffffffffffffffffff1916827bffffffffffffffffffffffffffffffffffffffffffffffffffffffff1916145b15611076576001905061107b565b600090505b919050565b6060600061108d83614504565b60405160200161109e92919061a194565b6040516020818303038152906040529050919050565b6110bd82611b82565b6110fc576040517f08c379a00000000000000000000000000000000000000000000000000000000081526004016110f39061a680565b60405180910390fd5b611107338383614637565b5050565b61111483611bb1565b611153576040517f08c379a000000000000000000000000000000000000000000000000000000000815260040161114a9061ac40565b60405180910390fd5b61115f848484846146f8565b50505050565b600860009054906101000a900473ffffffffffffffffffffffffffffffffffffffff1673ffffffffffffffffffffffffffffffffffffffff163373ffffffffffffffffffffffffffffffffffffffff16146111f5576040517f08c379a00000000000000000000000000000000000000000000000000000000081526004016111ec9061ab00565b60405180910390fd5b80600f8190555050565b601160009054906101000a900473ffffffffffffffffffffffffffffffffffffffff1681565b6000600760008373ffffffffffffffffffffffffffffffffffffffff1673ffffffffffffffffffffffffffffffffffffffff168152602001908152602001600020549050919050565b8473ffffffffffffffffffffffffffffffffffffffff163373ffffffffffffffffffffffffffffffffffffffff1614806112ae57506112ad853361345d565b5b6112ed576040517f08c379a00000000000000000000000000000000000000000000000000000000081526004016112e49061a8e0565b60405180910390fd5b600073ffffffffffffffffffffffffffffffffffffffff168473ffffffffffffffffffffffffffffffffffffffff16141561135d576040517f08c379a00000000000000000000000000000000000000000000000000000000081526004016113549061a800565b60405180910390fd5b6113698585858561476f565b6113768585858585614b5d565b5050505050565b600860009054906101000a900473ffffffffffffffffffffffffffffffffffffffff1673ffffffffffffffffffffffffffffffffffffffff163373ffffffffffffffffffffffffffffffffffffffff161461140d576040517f08c379a00000000000000000000000000000000000000000000000000000000081526004016114049061ab00565b60405180910390fd5b60003073ffffffffffffffffffffffffffffffffffffffff163190506000811161146c576040517f08c379a00000000000000000000000000000000000000000000000000000000081526004016114639061a4e0565b60405180910390fd5b3373ffffffffffffffffffffffffffffffffffffffff166108fc829081150290604051600060405180830381858888f193505050501580156114b2573d6000803e3d6000fd5b5050565b600860009054906101000a900473ffffffffffffffffffffffffffffffffffffffff1673ffffffffffffffffffffffffffffffffffffffff163373ffffffffffffffffffffffffffffffffffffffff1614611546576040517f08c379a000000000000000000000000000000000000000000000000000000000815260040161153d9061ab00565b60405180910390fd5b60006010541161158b576040517f08c379a00000000000000000000000000000000000000000000000000000000081526004016115829061a860565b60405180910390fd5b61159733601054614ca8565b6000601081905550565b600860009054906101000a900473ffffffffffffffffffffffffffffffffffffffff1673ffffffffffffffffffffffffffffffffffffffff163373ffffffffffffffffffffffffffffffffffffffff1614611631576040517f08c379a00000000000000000000000000000000000000000000000000000000081526004016116289061ab00565b60405180910390fd5b600073ffffffffffffffffffffffffffffffffffffffff16601260009054906101000a900473ffffffffffffffffffffffffffffffffffffffff1673ffffffffffffffffffffffffffffffffffffffff161461177d576000601460009054906101000a900473ffffffffffffffffffffffffffffffffffffffff1673ffffffffffffffffffffffffffffffffffffffff16636c25b346306040518263ffffffff1660e01b81526004016116e4919061a1e9565b602060405180830381600087803b1580156116fe57600080fd5b505af1158015611712573d6000803e3d6000fd5b505050506040513d601f19601f8201168201806040525061173691908101906181d9565b90506000811461177b576040517f08c379a00000000000000000000000000000000000000000000000000000000081526004016117729061aa00565b60405180910390fd5b505b81601160006101000a81548173ffffffffffffffffffffffffffffffffffffffff021916908373ffffffffffffffffffffffffffffffffffffffff160217905550601160009054906101000a900473ffffffffffffffffffffffffffffffffffffffff16601360006101000a81548173ffffffffffffffffffffffffffffffffffffffff021916908373ffffffffffffffffffffffffffffffffffffffff16021790555080601260006101000a81548173ffffffffffffffffffffffffffffffffffffffff021916908373ffffffffffffffffffffffffffffffffffffffff160217905550601260009054906101000a900473ffffffffffffffffffffffffffffffffffffffff16601460006101000a81548173ffffffffffffffffffffffffffffffffffffffff021916908373ffffffffffffffffffffffffffffffffffffffff160217905550601360009054906101000a900473ffffffffffffffffffffffffffffffffffffffff1673ffffffffffffffffffffffffffffffffffffffff1663095ea7b3601260009054906101000a900473ffffffffffffffffffffffffffffffffffffffff167fffffffffffffffffffffffffffffffffffffffffffffffffffffffffffffffff6040518363ffffffff1660e01b815260040161196492919061a355565b602060405180830381600087803b15801561197e57600080fd5b505af1158015611992573d6000803e3d6000fd5b505050506040513d601f19601f820116820180604052506119b69190810190617f60565b505050565b606081518351146119cb57600080fd5b606083516040519080825280602002602001820160405280156119fd5781602001602082028038833980820191505090505b50905060008090505b8451811015611b77576000848281518110611a1d57fe5b602002602001015190507f8000000000000000000000000000000000000000000000000000000000000000808216148015611a8d575060007fffffffffffffffffffffffffffffffffffffffffffffffffffffffffffffffff6fffffffffffffffffffffffffffffffff16821614155b15611b3557858281518110611a9e57fe5b602002602001015173ffffffffffffffffffffffffffffffffffffffff166003600083815260200190815260200160002060009054906101000a900473ffffffffffffffffffffffffffffffffffffffff1673ffffffffffffffffffffffffffffffffffffffff1614611b12576000611b15565b60015b60ff16838381518110611b2457fe5b602002602001018181525050611b6b565b611b52868381518110611b4457fe5b60200260200101518261448a565b838381518110611b5e57fe5b6020026020010181815250505b50806001019050611a06565b508091505092915050565b6000806009600084815260200190815260200160002060009054906101000a900460ff1660ff16119050919050565b6000600160ff166009600084815260200190815260200160002060009054906101000a900460ff1660ff161415611beb5760019050611c50565b3373ffffffffffffffffffffffffffffffffffffffff16600a600084815260200190815260200160002060009054906101000a900473ffffffffffffffffffffffffffffffffffffffff1673ffffffffffffffffffffffffffffffffffffffff161490505b919050565b6000601460009054906101000a900473ffffffffffffffffffffffffffffffffffffffff1673ffffffffffffffffffffffffffffffffffffffff166370a08231306040518263ffffffff1660e01b8152600401611cb2919061a1e9565b602060405180830381600087803b158015611ccc57600080fd5b505af1158015611ce0573d6000803e3d6000fd5b505050506040513d601f19601f82011682018060405250611d0491908101906181d9565b905090565b60007f800000000000000000000000000000000000000000000000000000000000000080831614611d6f576040517f08c379a0000000000000000000000000000000000000000000000000000000008152600401611d669061a880565b60405180910390fd5b6003600083815260200190815260200160002060009054906101000a900473ffffffffffffffffffffffffffffffffffffffff169050919050565b6000600d54905090565b6000600e54905090565b6000600160ff166009600084815260200190815260200160002060009054906101000a900460ff1660ff16149050919050565b6000601460009054906101000a900473ffffffffffffffffffffffffffffffffffffffff1673ffffffffffffffffffffffffffffffffffffffff16636c25b346306040518263ffffffff1660e01b8152600401611e4e919061a1e9565b602060405180830381600087803b158015611e6857600080fd5b505af1158015611e7c573d6000803e3d6000fd5b505050506040513d601f19601f82011682018060405250611ea091908101906181d9565b905090565b60008060008092505b8351831015611f9957838381518110611ec357fe5b60200260200101519150611f0e60807fffffffffffffffffffffffffffffffffffffffffffffffffffffffffffffffff6fffffffffffffffffffffffffffffffff16901b8316611b82565b611f4d576040517f08c379a0000000000000000000000000000000000000000000000000000000008152600401611f449061a720565b60405180910390fd5b611f7381600c600085815260200190815260200160002054614ee190919063ffffffff16565b90506000600c600084815260200190815260200160002081905550826001019250611eae565b611fa33385614f36565b611fad3382614ca8565b50505050565b600860009054906101000a900473ffffffffffffffffffffffffffffffffffffffff1673ffffffffffffffffffffffffffffffffffffffff163373ffffffffffffffffffffffffffffffffffffffff1614612043576040517f08c379a000000000000000000000000000000000000000000000000000000000815260040161203a9061ab00565b60405180910390fd5b61204c816151ab565b50565b60008060807fffffffffffffffffffffffffffffffffffffffffffffffffffffffffffffffff6fffffffffffffffffffffffffffffffff16901b83169050600b600082815260200190815260200160002054915050919050565b60008090505b825181101561211e576120d48382815181106120c757fe5b6020026020010151611b82565b612113576040517f08c379a000000000000000000000000000000000000000000000000000000000815260040161210a9061a7e0565b60405180910390fd5b8060010190506120af565b5061212a3383836151c5565b5050565b6000600a600083815260200190815260200160002060009054906101000a900473ffffffffffffffffffffffffffffffffffffffff169050919050565b6000600860009054906101000a900473ffffffffffffffffffffffffffffffffffffffff16905090565b60006121a082611d09565b90503373ffffffffffffffffffffffffffffffffffffffff168173ffffffffffffffffffffffffffffffffffffffff1614806121e257506121e1813361345d565b5b612221576040517f08c379a00000000000000000000000000000000000000000000000000000000081526004016122189061a940565b60405180910390fd5b600060807fffffffffffffffffffffffffffffffffffffffffffffffffffffffffffffffff6fffffffffffffffffffffffffffffffff16901b8316905061226781611b82565b6122a6576040517f08c379a000000000000000000000000000000000000000000000000000000000815260040161229d9061a600565b60405180910390fd5b6000600b600083815260200190815260200160002054116122fc576040517f08c379a00000000000000000000000000000000000000000000000000000000081526004016122f39061a600565b60405180910390fd5b600061230784612382565b90506000811161234c576040517f08c379a00000000000000000000000000000000000000000000000000000000081526004016123439061a6c0565b60405180910390fd5b61235633826152da565b50505050565b601260009054906101000a900473ffffffffffffffffffffffffffffffffffffffff1681565b60008060807fffffffffffffffffffffffffffffffffffffffffffffffffffffffffffffffff6fffffffffffffffffffffffffffffffff16901b831690506000601460009054906101000a900473ffffffffffffffffffffffffffffffffffffffff1673ffffffffffffffffffffffffffffffffffffffff16631043b2cb600c6000878152602001908152602001600020546040518263ffffffff1660e01b8152600401612430919061acc0565b602060405180830381600087803b15801561244a57600080fd5b505af115801561245e573d6000803e3d6000fd5b505050506040513d601f19601f8201168201806040525061248291908101906181d9565b90506000600b60008481526020019081526020016000205490508181106124af57600093505050506124c8565b6124c281836143d190919063ffffffff16565b93505050505b919050565b60008090505b8351811015612542576124f88482815181106124eb57fe5b6020026020010151611bb1565b612537576040517f08c379a000000000000000000000000000000000000000000000000000000000815260040161252e9061a6e0565b60405180910390fd5b8060010190506124d3565b5061254f84848484615513565b50505050565b600060807fffffffffffffffffffffffffffffffffffffffffffffffffffffffffffffffff6fffffffffffffffffffffffffffffffff16901b8216905061259b81611b82565b6125da576040517f08c379a00000000000000000000000000000000000000000000000000000000081526004016125d19061a8a0565b60405180910390fd5b6000600c60008481526020019081526020016000205490506000600c60008581526020019081526020016000208190555061261533846155b8565b61261f3382614ca8565b505050565b80600260003373ffffffffffffffffffffffffffffffffffffffff1673ffffffffffffffffffffffffffffffffffffffff16815260200190815260200160002060008473ffffffffffffffffffffffffffffffffffffffff1673ffffffffffffffffffffffffffffffffffffffff16815260200190815260200160002060006101000a81548160ff0219169083151502179055508173ffffffffffffffffffffffffffffffffffffffff163373ffffffffffffffffffffffffffffffffffffffff167f17307eab39ab6107e8899845ad3d59bd9653f200f220920489ca2b5937696c3183604051612715919061a3d7565b60405180910390a35050565b600073ffffffffffffffffffffffffffffffffffffffff168573ffffffffffffffffffffffffffffffffffffffff161415612791576040517f08c379a00000000000000000000000000000000000000000000000000000000081526004016127889061a9e0565b60405180910390fd5b60005a905060606127a06172b9565b606061286f8a867fa358be8ef28a8eef7877f5d78ce30ff1cada344474e3d550ee9f4be9151f84f760001b8d73ffffffffffffffffffffffffffffffffffffffff168d73ffffffffffffffffffffffffffffffffffffffff168d60405160200161280a9190619f9b565b604051602081830303815290604052805190602001208d6040516020016128319190619f9b565b6040516020818303038152906040528051906020012060405160200161285b959493929190619fb2565b6040516020818303038152906040526157aa565b905085156129ff578080602001905161288b9190810190618144565b81915080905080945081935050506128a58a8a8a8a6159d7565b6128c48973ffffffffffffffffffffffffffffffffffffffff16615e48565b156129ef5760008973ffffffffffffffffffffffffffffffffffffffff1663bc197c818460000151338e8d8d8a6040518763ffffffff1660e01b815260040161291195949392919061a204565b602060405180830381600088803b15801561292b57600080fd5b5087f115801561293f573d6000803e3d6000fd5b50505050506040513d601f19601f820116820180604052506129649190810190617fb2565b905063bc197c8160e01b7bffffffffffffffffffffffffffffffffffffffffffffffffffffffff1916817bffffffffffffffffffffffffffffffffffffffffffffffffffffffff1916146129ed576040517f08c379a00000000000000000000000000000000000000000000000000000000081526004016129e49061a540565b60405180910390fd5b505b6129fa8a8584615e8d565b612a19565b612a0b8a8a8a8a6159d7565b612a188a8a8a8a85614b5d565b5b50505050505050505050565b6000600f54905090565b600860009054906101000a900473ffffffffffffffffffffffffffffffffffffffff1673ffffffffffffffffffffffffffffffffffffffff163373ffffffffffffffffffffffffffffffffffffffff1614612abf576040517f08c379a0000000000000000000000000000000000000000000000000000000008152600401612ab69061ab00565b60405180910390fd5b80600e8190555050565b600083158015612adb5750600d543410155b80612af15750838015612af05750600e543410155b5b612b30576040517f08c379a0000000000000000000000000000000000000000000000000000000008152600401612b279061aac0565b60405180910390fd5b831580612b495750838015612b485750620f42408210155b5b612b88576040517f08c379a0000000000000000000000000000000000000000000000000000000008152600401612b7f9061ac80565b60405180910390fd5b612b9285856161d4565b905082612ba0576001612ba3565b60025b6009600083815260200190815260200160002060006101000a81548160ff021916908360ff16021790555033600a600083815260200190815260200160002060006101000a81548173ffffffffffffffffffffffffffffffffffffffff021916908373ffffffffffffffffffffffffffffffffffffffff16021790555083612c2c576000612c2e565b815b600b6000838152602001908152602001600020819055506000612c6a85612c5757600d54612c5b565b600e545b346143d190919063ffffffff16565b90506000811115612cbd573373ffffffffffffffffffffffffffffffffffffffff166108fc829081150290604051600060405180830381858888f19350505050158015612cbb573d6000803e3d6000fd5b505b50949350505050565b600073ffffffffffffffffffffffffffffffffffffffff168573ffffffffffffffffffffffffffffffffffffffff161415612d36576040517f08c379a0000000000000000000000000000000000000000000000000000000008152600401612d2d9061aa80565b60405180910390fd5b60005a90506060612d456172b9565b6060612dc88a867fda41aee141786e5a994acb21bcafccf68ed6e07786cb44008c785a06f281903860001b8d73ffffffffffffffffffffffffffffffffffffffff168d73ffffffffffffffffffffffffffffffffffffffff168d8d604051602001612db495949392919061a05f565b6040516020818303038152906040526157aa565b90508515612f585780806020019051612de49190810190618144565b8191508090508094508193505050612dfe8a8a8a8a6162e1565b612e1d8973ffffffffffffffffffffffffffffffffffffffff16615e48565b15612f485760008973ffffffffffffffffffffffffffffffffffffffff1663f23a6e618460000151338e8d8d8a6040518763ffffffff1660e01b8152600401612e6a95949392919061a26c565b602060405180830381600088803b158015612e8457600080fd5b5087f1158015612e98573d6000803e3d6000fd5b50505050506040513d601f19601f82011682018060405250612ebd9190810190617fb2565b905063f23a6e6160e01b7bffffffffffffffffffffffffffffffffffffffffffffffffffffffff1916817bffffffffffffffffffffffffffffffffffffffffffffffffffffffff191614612f46576040517f08c379a0000000000000000000000000000000000000000000000000000000008152600401612f3d9061a7c0565b60405180910390fd5b505b612f538a8584615e8d565b612f72565b612f648a8a8a8a6162e1565b612f718a8a8a8a8561637f565b5b50505050505050505050565b612f87816164ca565b50565b6000806101006020840281612f9b57fe5b049150602061010081612faa57fe5b048381612fb357fe5b069050818191509150915091565b6060600030905060008060008092505b865183101561307e57612ff6878481518110612fe957fe5b6020026020010151611bb1565b613035576040517f08c379a000000000000000000000000000000000000000000000000000000000815260040161302c9061a6e0565b60405180910390fd5b600b600088858151811061304557fe5b602002602001015181526020019081526020016000205490506130718282614ee190919063ffffffff16565b9150826001019250612fd1565b6130883383614063565b613093888888616617565b94506000601460009054906101000a900473ffffffffffffffffffffffffffffffffffffffff1673ffffffffffffffffffffffffffffffffffffffff166370a08231866040518263ffffffff1660e01b81526004016130f2919061a1e9565b602060405180830381600087803b15801561310c57600080fd5b505af1158015613120573d6000803e3d6000fd5b505050506040513d601f19601f8201168201806040525061314491908101906181d9565b9050600093505b87518410156133b757600b600089868151811061316457fe5b60200260200101518152602001908152602001600020549150601460009054906101000a900473ffffffffffffffffffffffffffffffffffffffff1673ffffffffffffffffffffffffffffffffffffffff16633b4da69f86846040518363ffffffff1660e01b81526004016131da92919061a355565b600060405180830381600087803b1580156131f457600080fd5b505af1158015613208573d6000803e3d6000fd5b505050506132d36132ce82601460009054906101000a900473ffffffffffffffffffffffffffffffffffffffff1673ffffffffffffffffffffffffffffffffffffffff166370a08231896040518263ffffffff1660e01b815260040161326e919061a1e9565b602060405180830381600087803b15801561328857600080fd5b505af115801561329c573d6000803e3d6000fd5b505050506040513d601f19601f820116820180604052506132c091908101906181d9565b6143d190919063ffffffff16565b614427565b600c60008887815181106132e357fe5b6020026020010151815260200190815260200160002081905550601460009054906101000a900473ffffffffffffffffffffffffffffffffffffffff1673ffffffffffffffffffffffffffffffffffffffff166370a08231866040518263ffffffff1660e01b8152600401613358919061a1e9565b602060405180830381600087803b15801561337257600080fd5b505af1158015613386573d6000803e3d6000fd5b505050506040513d601f19601f820116820180604052506133aa91908101906181d9565b905083600101935061314b565b50505050509392505050565b600860009054906101000a900473ffffffffffffffffffffffffffffffffffffffff1673ffffffffffffffffffffffffffffffffffffffff163373ffffffffffffffffffffffffffffffffffffffff1614613453576040517f08c379a000000000000000000000000000000000000000000000000000000000815260040161344a9061ab00565b60405180910390fd5b80600d8190555050565b6000600260008473ffffffffffffffffffffffffffffffffffffffff1673ffffffffffffffffffffffffffffffffffffffff16815260200190815260200160002060008373ffffffffffffffffffffffffffffffffffffffff1673ffffffffffffffffffffffffffffffffffffffff16815260200190815260200160002060009054906101000a900460ff16905092915050565b600080600160206001901b039050600060018401602002610100039050818186901c169250505092915050565b8473ffffffffffffffffffffffffffffffffffffffff163373ffffffffffffffffffffffffffffffffffffffff16148061355e575061355d853361345d565b5b61359d576040517f08c379a00000000000000000000000000000000000000000000000000000000081526004016135949061a560565b60405180910390fd5b600073ffffffffffffffffffffffffffffffffffffffff168473ffffffffffffffffffffffffffffffffffffffff16141561360d576040517f08c379a00000000000000000000000000000000000000000000000000000000081526004016136049061a9c0565b60405180910390fd5b7f8000000000000000000000000000000000000000000000000000000000000000808416141561364b5760019150613646858585616874565b613658565b613657858585856162e1565b5b613665858585858561637f565b5050505050565b600860009054906101000a900473ffffffffffffffffffffffffffffffffffffffff1673ffffffffffffffffffffffffffffffffffffffff163373ffffffffffffffffffffffffffffffffffffffff16146136fc576040517f08c379a00000000000000000000000000000000000000000000000000000000081526004016136f39061ab00565b60405180910390fd5b600073ffffffffffffffffffffffffffffffffffffffff168173ffffffffffffffffffffffffffffffffffffffff16141561376c576040517f08c379a00000000000000000000000000000000000000000000000000000000081526004016137639061a640565b60405180910390fd5b8073ffffffffffffffffffffffffffffffffffffffff16600860009054906101000a900473ffffffffffffffffffffffffffffffffffffffff1673ffffffffffffffffffffffffffffffffffffffff167f8be0079c531659141344cd1fd0a4f28419497f9722a3daafe3b4186f6b6457e060405160405180910390a380600860006101000a81548173ffffffffffffffffffffffffffffffffffffffff021916908373ffffffffffffffffffffffffffffffffffffffff16021790555050565b60005a905060606138c087847fd72d507eb90d918a375b250ea7bfc291be59526e94e2baa2fe3b35daa72a0b1560001b8a73ffffffffffffffffffffffffffffffffffffffff168a73ffffffffffffffffffffffffffffffffffffffff168a613896576000613899565b60015b6040516020016138ac949392919061a011565b6040516020818303038152906040526157aa565b905084600260008973ffffffffffffffffffffffffffffffffffffffff1673ffffffffffffffffffffffffffffffffffffffff16815260200190815260200160002060008873ffffffffffffffffffffffffffffffffffffffff1673ffffffffffffffffffffffffffffffffffffffff16815260200190815260200160002060006101000a81548160ff0219169083151502179055508573ffffffffffffffffffffffffffffffffffffffff168773ffffffffffffffffffffffffffffffffffffffff167f17307eab39ab6107e8899845ad3d59bd9653f200f220920489ca2b5937696c31876040516139b3919061a3d7565b60405180910390a383156139ec576139c96172b9565b818060200190516139dd9190810190618103565b90506139ea888483615e8d565b505b50505050505050565b600080825111613a3a576040517f08c379a0000000000000000000000000000000000000000000000000000000008152600401613a319061aa20565b60405180910390fd5b600073ffffffffffffffffffffffffffffffffffffffff168573ffffffffffffffffffffffffffffffffffffffff161415613aaa576040517f08c379a0000000000000000000000000000000000000000000000000000000008152600401613aa19061a980565b60405180910390fd5b6000613ab5836169b5565b60f81c9050600580811115613ac657fe5b60ff168160ff1610613b0d576040517f08c379a0000000000000000000000000000000000000000000000000000000008152600401613b049061a660565b60405180910390fd5b60008160ff166005811115613b1e57fe5b905060008060008060006005811115613b3357fe5b856005811115613b3f57fe5b1415613b80576040517f08c379a0000000000000000000000000000000000000000000000000000000008152600401613b779061a740565b60405180910390fd5b60016005811115613b8d57fe5b856005811115613b9957fe5b1415613cbc576061885114613be3576040517f08c379a0000000000000000000000000000000000000000000000000000000008152600401613bda9061a840565b60405180910390fd5b613bf7600089616a2890919063ffffffff16565b9250613c0d602089616a2890919063ffffffff16565b915087604081518110613c1c57fe5b602001015160f81c60f81b60f81c935060018a85858560405160008152602001604052604051613c4f949392919061a422565b6020604051602081039080840390855afa158015613c71573d6000803e3d6000fd5b5050506020604051035190508073ffffffffffffffffffffffffffffffffffffffff168b73ffffffffffffffffffffffffffffffffffffffff1614965086965050505050505061405b565b60026005811115613cc957fe5b856005811115613cd557fe5b1415613e1e576061885114613d1f576040517f08c379a0000000000000000000000000000000000000000000000000000000008152600401613d169061a840565b60405180910390fd5b613d33600089616a2890919063ffffffff16565b9250613d49602089616a2890919063ffffffff16565b915087604081518110613d5857fe5b602001015160f81c60f81b60f81c935060018a604051602001613d7b919061a1c3565b6040516020818303038152906040528051906020012085858560405160008152602001604052604051613db1949392919061a422565b6020604051602081039080840390855afa158015613dd3573d6000803e3d6000fd5b5050506020604051035190508073ffffffffffffffffffffffffffffffffffffffff168b73ffffffffffffffffffffffffffffffffffffffff1614965086965050505050505061405b565b60036005811115613e2b57fe5b856005811115613e3757fe5b1415613f1f578a73ffffffffffffffffffffffffffffffffffffffff166320c13b0b8a8a6040518363ffffffff1660e01b8152600401613e7892919061a467565b60206040518083038186803b158015613e9057600080fd5b505afa158015613ea4573d6000803e3d6000fd5b505050506040513d601f19601f82011682018060405250613ec89190810190617fb2565b7bffffffffffffffffffffffffffffffffffffffffffffffffffffffff19166320c13b0b60e01b7bffffffffffffffffffffffffffffffffffffffffffffffffffffffff191614965086965050505050505061405b565b60046005811115613f2c57fe5b856005811115613f3857fe5b1415614020578a73ffffffffffffffffffffffffffffffffffffffff16631626ba7e8b8a6040518363ffffffff1660e01b8152600401613f7992919061a3f2565b60206040518083038186803b158015613f9157600080fd5b505afa158015613fa5573d6000803e3d6000fd5b505050506040513d601f19601f82011682018060405250613fc99190810190617fb2565b7bffffffffffffffffffffffffffffffffffffffffffffffffffffffff1916631626ba7e60e01b7bffffffffffffffffffffffffffffffffffffffffffffffffffffffff191614965086965050505050505061405b565b6040517f08c379a00000000000000000000000000000000000000000000000000000000081526004016140529061a660565b60405180910390fd5b949350505050565b6000601360009054906101000a900473ffffffffffffffffffffffffffffffffffffffff1673ffffffffffffffffffffffffffffffffffffffff166370a08231846040518263ffffffff1660e01b81526004016140c0919061a1e9565b60206040518083038186803b1580156140d857600080fd5b505afa1580156140ec573d6000803e3d6000fd5b505050506040513d601f19601f8201168201806040525061411091908101906181d9565b905080821115614155576040517f08c379a000000000000000000000000000000000000000000000000000000000815260040161414c9061aca0565b60405180910390fd5b601360009054906101000a900473ffffffffffffffffffffffffffffffffffffffff1673ffffffffffffffffffffffffffffffffffffffff166323b872dd8430856040518463ffffffff1660e01b81526004016141b49392919061a2c6565b602060405180830381600087803b1580156141ce57600080fd5b505af11580156141e2573d6000803e3d6000fd5b505050506040513d601f19601f820116820180604052506142069190810190617f60565b614245576040517f08c379a000000000000000000000000000000000000000000000000000000000815260040161423c9061a700565b60405180910390fd5b505050565b60007f8000000000000000000000000000000000000000000000000000000000000000808416146142b0576040517f08c379a00000000000000000000000000000000000000000000000000000000081526004016142a79061abe0565b60405180910390fd5b6000600160056000868152602001908152602001600020540190508060056000868152602001908152602001600020819055508084179150846003600084815260200190815260200160002060006101000a81548173ffffffffffffffffffffffffffffffffffffffff021916908373ffffffffffffffffffffffffffffffffffffffff1602179055508473ffffffffffffffffffffffffffffffffffffffff16600073ffffffffffffffffffffffffffffffffffffffff163373ffffffffffffffffffffffffffffffffffffffff167fc3d58168c5ae7397731d063d5bbf3d657854427343f4c083240f7aacaa2d0f628560016040516143b292919061ad04565b60405180910390a46143c96000868460018761637f565b509392505050565b600082821115614416576040517f08c379a000000000000000000000000000000000000000000000000000000000815260040161440d9061a5c0565b60405180910390fd5b600082840390508091505092915050565b600080600f54141561443b57819050614485565b600061271061ffff16600f5484028161445057fe5b04905061446881601054614ee190919063ffffffff16565b60108190555061448181846143d190919063ffffffff16565b9150505b919050565b600080600061449884612f8a565b80925081935050506144fa600160008773ffffffffffffffffffffffffffffffffffffffff1673ffffffffffffffffffffffffffffffffffffffff168152602001908152602001600020600084815260200190815260200160002054826134f1565b9250505092915050565b6060600082141561454c576040518060400160405280600181526020017f30000000000000000000000000000000000000000000000000000000000000008152509050614632565b6000829050600083905060005b6000831461457b578080600101915050600a838161457357fe5b049250614559565b6060816040519080825280601f01601f1916602001820160405280156145b05781602001600182028038833980820191505090505b50905060006001830390505b6000841461462957600a84816145ce57fe5b0660300160f81b828280600190039350815181106145e857fe5b60200101907effffffffffffffffffffffffffffffffffffffffffffffffffffffffffffff1916908160001a905350600a848161462157fe5b0493506145bc565b81955050505050505b919050565b60007f800000000000000000000000000000000000000000000000000000000000000083161461469c576040517f08c379a00000000000000000000000000000000000000000000000000000000081526004016146939061abc0565b60405180910390fd5b806146a78484610ed5565b10156146e8576040517f08c379a00000000000000000000000000000000000000000000000000000000081526004016146df9061aae0565b60405180910390fd5b6146f3838383616a86565b505050565b60007f800000000000000000000000000000000000000000000000000000000000000084161461475d576040517f08c379a00000000000000000000000000000000000000000000000000000000081526004016147549061aa40565b60405180910390fd5b61476984848484616b17565b50505050565b80518251146147b3576040517f08c379a00000000000000000000000000000000000000000000000000000000081526004016147aa9061ac60565b60405180910390fd5b600080600080600090506000809050600094505b8651851015614831578685815181106147dc57fe5b602002602001015193507f8000000000000000000000000000000000000000000000000000000000000000808516141561481d578080600101915050614826565b81806001019250505b8460010194506147c7565b6060826040519080825280602002602001820160405280156148625781602001602082028038833980820191505090505b5090506060836040519080825280602002602001820160405280156148965781602001602082028038833980820191505090505b5090506060836040519080825280602002602001820160405280156148ca5781602001602082028038833980820191505090505b5090506060846040519080825280602002602001820160405280156148fe5781602001602082028038833980820191505090505b5090506000955060009450600098505b8a51891015614ab0578a898151811061492357fe5b6020026020010151975089898151811061493957fe5b602002602001015196507f80000000000000000000000000000000000000000000000000000000000000008089161415614a6a578c73ffffffffffffffffffffffffffffffffffffffff16600360008a815260200190815260200160002060009054906101000a900473ffffffffffffffffffffffffffffffffffffffff1673ffffffffffffffffffffffffffffffffffffffff16146149d857600080fd5b8b600360008a815260200190815260200160002060006101000a81548173ffffffffffffffffffffffffffffffffffffffff021916908373ffffffffffffffffffffffffffffffffffffffff16021790555087828681518110614a3757fe5b6020026020010181815250506001818681518110614a5157fe5b6020026020010181815250508480600101955050614aa5565b87848781518110614a7757fe5b60200260200101818152505086838781518110614a9057fe5b60200260200101818152505085806001019650505b88600101985061490e565b6000861115614ac657614ac58d8d86866159d7565b5b6000851115614b4e578b73ffffffffffffffffffffffffffffffffffffffff168d73ffffffffffffffffffffffffffffffffffffffff163373ffffffffffffffffffffffffffffffffffffffff167f4a39dc06d4c0dbc64b70af90fd698a233a518aa5d07e595d983b8c0526c8f7fb8585604051614b4592919061a3a0565b60405180910390a45b50505050505050505050505050565b614b7c8473ffffffffffffffffffffffffffffffffffffffff16615e48565b15614ca15760008473ffffffffffffffffffffffffffffffffffffffff1663bc197c8133888787876040518663ffffffff1660e01b8152600401614bc495949392919061a204565b602060405180830381600087803b158015614bde57600080fd5b505af1158015614bf2573d6000803e3d6000fd5b505050506040513d601f19601f82011682018060405250614c169190810190617fb2565b905063bc197c8160e01b7bffffffffffffffffffffffffffffffffffffffffffffffffffffffff1916817bffffffffffffffffffffffffffffffffffffffffffffffffffffffff191614614c9f576040517f08c379a0000000000000000000000000000000000000000000000000000000008152600401614c969061a7a0565b60405180910390fd5b505b5050505050565b6000309050601460009054906101000a900473ffffffffffffffffffffffffffffffffffffffff1673ffffffffffffffffffffffffffffffffffffffff1663ef693bed82846040518363ffffffff1660e01b8152600401614d0a92919061a355565b600060405180830381600087803b158015614d2457600080fd5b505af1158015614d38573d6000803e3d6000fd5b505050506000601360009054906101000a900473ffffffffffffffffffffffffffffffffffffffff1673ffffffffffffffffffffffffffffffffffffffff166370a08231836040518263ffffffff1660e01b8152600401614d99919061a1e9565b60206040518083038186803b158015614db157600080fd5b505afa158015614dc5573d6000803e3d6000fd5b505050506040513d601f19601f82011682018060405250614de991908101906181d9565b9050601360009054906101000a900473ffffffffffffffffffffffffffffffffffffffff1673ffffffffffffffffffffffffffffffffffffffff166323b872dd8386846040518463ffffffff1660e01b8152600401614e4a9392919061a2c6565b602060405180830381600087803b158015614e6457600080fd5b505af1158015614e78573d6000803e3d6000fd5b505050506040513d601f19601f82011682018060405250614e9c9190810190617f60565b614edb576040517f08c379a0000000000000000000000000000000000000000000000000000000008152600401614ed29061aaa0565b60405180910390fd5b50505050565b600080828401905083811015614f2c576040517f08c379a0000000000000000000000000000000000000000000000000000000008152600401614f239061ab40565b60405180910390fd5b8091505092915050565b60608151604051908082528060200260200182016040528015614f685781602001602082028038833980820191505090505b50905060008090505b8251811015615126576000838281518110614f8857fe5b602002602001015190507f8000000000000000000000000000000000000000000000000000000000000000808216148015614ff8575060007fffffffffffffffffffffffffffffffffffffffffffffffffffffffffffffffff6fffffffffffffffffffffffffffffffff16821614155b615037576040517f08c379a000000000000000000000000000000000000000000000000000000000815260040161502e9061a8c0565b60405180910390fd5b8473ffffffffffffffffffffffffffffffffffffffff1661505782611d09565b73ffffffffffffffffffffffffffffffffffffffff16146150ad576040517f08c379a00000000000000000000000000000000000000000000000000000000081526004016150a49061aa60565b60405180910390fd5b60006003600083815260200190815260200160002060006101000a81548173ffffffffffffffffffffffffffffffffffffffff021916908373ffffffffffffffffffffffffffffffffffffffff160217905550600183838151811061510e57fe5b60200260200101818152505050806001019050614f71565b50600073ffffffffffffffffffffffffffffffffffffffff168373ffffffffffffffffffffffffffffffffffffffff163373ffffffffffffffffffffffffffffffffffffffff167f4a39dc06d4c0dbc64b70af90fd698a233a518aa5d07e595d983b8c0526c8f7fb858560405161519e92919061a3a0565b60405180910390a4505050565b80600090805190602001906151c19291906172fe565b5050565b60008090505b82518110156152c95760007f800000000000000000000000000000000000000000000000000000000000000084838151811061520357fe5b6020026020010151161461524c576040517f08c379a00000000000000000000000000000000000000000000000000000000081526004016152439061a4c0565b60405180910390fd5b81818151811061525857fe5b602002602001015161527d8585848151811061527057fe5b6020026020010151610ed5565b10156152be576040517f08c379a00000000000000000000000000000000000000000000000000000000081526004016152b59061a960565b60405180910390fd5b8060010190506151cb565b506152d5838383616bb7565b505050565b6000309050601460009054906101000a900473ffffffffffffffffffffffffffffffffffffffff1673ffffffffffffffffffffffffffffffffffffffff16634a03707c82846040518363ffffffff1660e01b815260040161533c92919061a355565b600060405180830381600087803b15801561535657600080fd5b505af115801561536a573d6000803e3d6000fd5b505050506000601360009054906101000a900473ffffffffffffffffffffffffffffffffffffffff1673ffffffffffffffffffffffffffffffffffffffff166370a08231836040518263ffffffff1660e01b81526004016153cb919061a1e9565b60206040518083038186803b1580156153e357600080fd5b505afa1580156153f7573d6000803e3d6000fd5b505050506040513d601f19601f8201168201806040525061541b91908101906181d9565b9050601360009054906101000a900473ffffffffffffffffffffffffffffffffffffffff1673ffffffffffffffffffffffffffffffffffffffff166323b872dd8386846040518463ffffffff1660e01b815260040161547c9392919061a2c6565b602060405180830381600087803b15801561549657600080fd5b505af11580156154aa573d6000803e3d6000fd5b505050506040513d601f19601f820116820180604052506154ce9190810190617f60565b61550d576040517f08c379a00000000000000000000000000000000000000000000000000000000081526004016155049061aaa0565b60405180910390fd5b50505050565b60008090505b83518110156155a55760007f800000000000000000000000000000000000000000000000000000000000000085838151811061555157fe5b6020026020010151161461559a576040517f08c379a00000000000000000000000000000000000000000000000000000000081526004016155919061a5a0565b60405180910390fd5b806001019050615519565b506155b284848484616cd5565b50505050565b7f800000000000000000000000000000000000000000000000000000000000000080821614801561561e575060007fffffffffffffffffffffffffffffffffffffffffffffffffffffffffffffffff6fffffffffffffffffffffffffffffffff16821614155b61565d576040517f08c379a00000000000000000000000000000000000000000000000000000000081526004016156549061ac20565b60405180910390fd5b8173ffffffffffffffffffffffffffffffffffffffff1661567d82611d09565b73ffffffffffffffffffffffffffffffffffffffff16146156d3576040517f08c379a00000000000000000000000000000000000000000000000000000000081526004016156ca9061a5e0565b60405180910390fd5b60006003600083815260200190815260200160002060006101000a81548173ffffffffffffffffffffffffffffffffffffffff021916908373ffffffffffffffffffffffffffffffffffffffff160217905550600073ffffffffffffffffffffffffffffffffffffffff168273ffffffffffffffffffffffffffffffffffffffff163373ffffffffffffffffffffffffffffffffffffffff167fc3d58168c5ae7397731d063d5bbf3d657854427343f4c083240f7aacaa2d0f6284600160405161579e92919061ad04565b60405180910390a45050565b606080838060200190516157c19190810190617fdb565b81915080905080935081925050506000600760008773ffffffffffffffffffffffffffffffffffffffff1673ffffffffffffffffffffffffffffffffffffffff1681526020019081526020016000205490506000615829604184616a2890919063ffffffff16565b60001c905081811015801561584057506064820181105b61587f576040517f08c379a00000000000000000000000000000000000000000000000000000000081526004016158769061ac00565b60405180910390fd5b60006158bb868387805190602001206040516020016158a09392919061a0be565b60405160208183030381529060405280519060200120616fc0565b905060608683876040516020016158d49392919061a0f7565b60405160208183030381529060405290506158f1898383886139f5565b615930576040517f08c379a00000000000000000000000000000000000000000000000000000000081526004016159279061a6a0565b60405180910390fd5b60018301600760008b73ffffffffffffffffffffffffffffffffffffffff1673ffffffffffffffffffffffffffffffffffffffff168152602001908152602001600020819055508873ffffffffffffffffffffffffffffffffffffffff167fb861b7bdbe611a846ab271b8d2810391bc8b5a968f390c322438ecab66bccf59600185016040516159c0919061acc0565b60405180910390a285955050505050509392505050565b8051825114615a1b576040517f08c379a0000000000000000000000000000000000000000000000000000000008152600401615a129061a760565b60405180910390fd5b600080615a3b84600081518110615a2e57fe5b6020026020010151612f8a565b915091506000615ab2600160008973ffffffffffffffffffffffffffffffffffffffff1673ffffffffffffffffffffffffffffffffffffffff1681526020019081526020016000206000858152602001908152602001600020548386600081518110615aa357fe5b6020026020010151600161702b565b90506000615b27600160008973ffffffffffffffffffffffffffffffffffffffff1673ffffffffffffffffffffffffffffffffffffffff1681526020019081526020016000206000868152602001908152602001600020548487600081518110615b1857fe5b6020026020010151600061702b565b905060008651905060008590506000600190505b82811015615d1357615b5f898281518110615b5257fe5b6020026020010151612f8a565b8097508198505050818714615cc25784600160008d73ffffffffffffffffffffffffffffffffffffffff1673ffffffffffffffffffffffffffffffffffffffff16815260200190815260200160002060008481526020019081526020016000208190555083600160008c73ffffffffffffffffffffffffffffffffffffffff1673ffffffffffffffffffffffffffffffffffffffff168152602001908152602001600020600084815260200190815260200160002081905550600160008c73ffffffffffffffffffffffffffffffffffffffff1673ffffffffffffffffffffffffffffffffffffffff1681526020019081526020016000206000888152602001908152602001600020549450600160008b73ffffffffffffffffffffffffffffffffffffffff1673ffffffffffffffffffffffffffffffffffffffff16815260200190815260200160002060008881526020019081526020016000205493508691505b615ce285878a8481518110615cd357fe5b6020026020010151600161702b565b9450615d0484878a8481518110615cf557fe5b6020026020010151600061702b565b93508080600101915050615b3b565b5083600160008c73ffffffffffffffffffffffffffffffffffffffff1673ffffffffffffffffffffffffffffffffffffffff16815260200190815260200160002060008881526020019081526020016000208190555082600160008b73ffffffffffffffffffffffffffffffffffffffff1673ffffffffffffffffffffffffffffffffffffffff1681526020019081526020016000206000888152602001908152602001600020819055508873ffffffffffffffffffffffffffffffffffffffff168a73ffffffffffffffffffffffffffffffffffffffff163373ffffffffffffffffffffffffffffffffffffffff167f4a39dc06d4c0dbc64b70af90fd698a233a518aa5d07e595d983b8c0526c8f7fb8b8b604051615e3492919061a3a0565b60405180910390a450505050505050505050565b600080823f90506000801b8114158015615e8557507fc5d2460186f7233c927e7db2dcc703c0e500b653ca82273b7bfad8045d85a47060001b8114155b915050919050565b6000615e9c82608001516169b5565b60f81c9050600280811115615ead57fe5b60ff168160ff1610615ef4576040517f08c379a0000000000000000000000000000000000000000000000000000000008152600401615eeb9061a900565b60405180910390fd5b60008160ff166002811115615f0557fe5b90506000806000806000615f388860200151615f2a5a8c6143d190919063ffffffff16565b614ee190919063ffffffff16565b925087600001518311615f6157615f5c88604001518461717d90919063ffffffff16565b615f7d565b615f7c8860400151896000015161717d90919063ffffffff16565b5b9050600073ffffffffffffffffffffffffffffffffffffffff16886060015173ffffffffffffffffffffffffffffffffffffffff1614615fc1578760600151615fc3565b335b935060006002811115615fd257fe5b866002811115615fde57fe5b14156160df578760800151806020019051615ffc9190810190617769565b81915080935081965050503073ffffffffffffffffffffffffffffffffffffffff168573ffffffffffffffffffffffffffffffffffffffff161415616068576160478a8584846162e1565b6160638a8584846040518060200160405280600081525061637f565b6160da565b8473ffffffffffffffffffffffffffffffffffffffff1663f242432a8b8685856040518563ffffffff1660e01b81526004016160a7949392919061a2fd565b600060405180830381600087803b1580156160c157600080fd5b505af11580156160d5573d6000803e3d6000fd5b505050505b6161c8565b87608001518060200190516160f79190810190617740565b94508473ffffffffffffffffffffffffffffffffffffffff166323b872dd8b86846040518463ffffffff1660e01b81526004016161369392919061a2c6565b602060405180830381600087803b15801561615057600080fd5b505af1158015616164573d6000803e3d6000fd5b505050506040513d601f19601f820116820180604052506161889190810190617f60565b6161c7576040517f08c379a00000000000000000000000000000000000000000000000000000000081526004016161be9061a820565b60405180910390fd5b5b50505050505050505050565b60006080600460008154600101919050819055901b90508115616217577f8000000000000000000000000000000000000000000000000000000000000000811790505b600073ffffffffffffffffffffffffffffffffffffffff16600073ffffffffffffffffffffffffffffffffffffffff163373ffffffffffffffffffffffffffffffffffffffff167fc3d58168c5ae7397731d063d5bbf3d657854427343f4c083240f7aacaa2d0f6284600060405161629092919061acdb565b60405180910390a46000835111156162db57807f6bb7ff708619ba0610cba295a58592e0451dee2622938c8755667688daf3529b846040516162d2919061a49e565b60405180910390a25b92915050565b6162ee84838360016171ed565b6162fb83838360006171ed565b8273ffffffffffffffffffffffffffffffffffffffff168473ffffffffffffffffffffffffffffffffffffffff163373ffffffffffffffffffffffffffffffffffffffff167fc3d58168c5ae7397731d063d5bbf3d657854427343f4c083240f7aacaa2d0f62858560405161637192919061ad2d565b60405180910390a450505050565b61639e8473ffffffffffffffffffffffffffffffffffffffff16615e48565b156164c35760008473ffffffffffffffffffffffffffffffffffffffff1663f23a6e6133888787876040518663ffffffff1660e01b81526004016163e695949392919061a26c565b602060405180830381600087803b15801561640057600080fd5b505af1158015616414573d6000803e3d6000fd5b505050506040513d601f19601f820116820180604052506164389190810190617fb2565b905063f23a6e6160e01b7bffffffffffffffffffffffffffffffffffffffffffffffffffffffff1916817bffffffffffffffffffffffffffffffffffffffffffffffffffffffff1916146164c1576040517f08c379a00000000000000000000000000000000000000000000000000000000081526004016164b89061a9a0565b60405180910390fd5b505b5050505050565b606060008054600181600116156101000203166002900480601f0160208091040260200160405190810160405280929190818152602001828054600181600116156101000203166002900480156165625780601f1061653757610100808354040283529160200191616562565b820191906000526020600020905b81548152906001019060200180831161654557829003601f168201915b50505050509050606060008090505b8351811015616611578261659785838151811061658a57fe5b6020026020010151614504565b6040516020016165a892919061a12c565b60405160208183030381529060405291508381815181106165c557fe5b60200260200101517f6bb7ff708619ba0610cba295a58592e0451dee2622938c8755667688daf3529b836040516165fc919061a49e565b60405180910390a28080600101915050616571565b50505050565b606080835160405190808252806020026020018201604052801561664a5781602001602082028038833980820191505090505b5090506060845160405190808252806020026020018201604052801561667f5781602001602082028038833980820191505090505b50905060008090505b85518110156167da57600086828151811061669f57fe5b602002602001015190507f80000000000000000000000000000000000000000000000000000000000000008082161461670d576040517f08c379a00000000000000000000000000000000000000000000000000000000081526004016167049061a500565b60405180910390fd5b60006001600560008481526020019081526020016000205401905080600560008481526020019081526020016000208190555060008183179050896003600083815260200190815260200160002060006101000a81548173ffffffffffffffffffffffffffffffffffffffff021916908373ffffffffffffffffffffffffffffffffffffffff160217905550808685815181106167a657fe5b60200260200101818152505060018585815181106167c057fe5b602002602001018181525050505050806001019050616688565b508573ffffffffffffffffffffffffffffffffffffffff16600073ffffffffffffffffffffffffffffffffffffffff163373ffffffffffffffffffffffffffffffffffffffff167f4a39dc06d4c0dbc64b70af90fd698a233a518aa5d07e595d983b8c0526c8f7fb858560405161685292919061a3a0565b60405180910390a4616868600087848488614b5d565b81925050509392505050565b8273ffffffffffffffffffffffffffffffffffffffff166003600083815260200190815260200160002060009054906101000a900473ffffffffffffffffffffffffffffffffffffffff1673ffffffffffffffffffffffffffffffffffffffff16146168df57600080fd5b816003600083815260200190815260200160002060006101000a81548173ffffffffffffffffffffffffffffffffffffffff021916908373ffffffffffffffffffffffffffffffffffffffff1602179055508173ffffffffffffffffffffffffffffffffffffffff168373ffffffffffffffffffffffffffffffffffffffff163373ffffffffffffffffffffffffffffffffffffffff167fc3d58168c5ae7397731d063d5bbf3d657854427343f4c083240f7aacaa2d0f628460016040516169a892919061ad04565b60405180910390a4505050565b6000808251116169fa576040517f08c379a00000000000000000000000000000000000000000000000000000000081526004016169f19061a520565b60405180910390fd5b81600183510381518110616a0a57fe5b602001015160f81c60f81b9050600182510380835250809050919050565b60006020820183511015616a71576040517f08c379a0000000000000000000000000000000000000000000000000000000008152600401616a689061ab20565b60405180910390fd5b60208201915081830151905080905092915050565b616a9383838360016171ed565b600073ffffffffffffffffffffffffffffffffffffffff168373ffffffffffffffffffffffffffffffffffffffff163373ffffffffffffffffffffffffffffffffffffffff167fc3d58168c5ae7397731d063d5bbf3d657854427343f4c083240f7aacaa2d0f628585604051616b0a92919061ad2d565b60405180910390a4505050565b616b2484848460006171ed565b8373ffffffffffffffffffffffffffffffffffffffff16600073ffffffffffffffffffffffffffffffffffffffff163373ffffffffffffffffffffffffffffffffffffffff167fc3d58168c5ae7397731d063d5bbf3d657854427343f4c083240f7aacaa2d0f628686604051616b9b92919061ad2d565b60405180910390a4616bb160008585858561637f565b50505050565b8051825114616bfb576040517f08c379a0000000000000000000000000000000000000000000000000000000008152600401616bf29061a920565b60405180910390fd5b60008251905060008090505b81811015616c4f57616c4285858381518110616c1f57fe5b6020026020010151858481518110616c3357fe5b602002602001015160016171ed565b8080600101915050616c07565b50600073ffffffffffffffffffffffffffffffffffffffff168473ffffffffffffffffffffffffffffffffffffffff163373ffffffffffffffffffffffffffffffffffffffff167f4a39dc06d4c0dbc64b70af90fd698a233a518aa5d07e595d983b8c0526c8f7fb8686604051616cc792919061a3a0565b60405180910390a450505050565b8151835114616d19576040517f08c379a0000000000000000000000000000000000000000000000000000000008152600401616d109061ab80565b60405180910390fd5b600080616d3985600081518110616d2c57fe5b6020026020010151612f8a565b915091506000616db0600160008973ffffffffffffffffffffffffffffffffffffffff1673ffffffffffffffffffffffffffffffffffffffff1681526020019081526020016000206000858152602001908152602001600020548387600081518110616da157fe5b6020026020010151600061702b565b905060008651905060008490506000600190505b82811015616ed257616de8898281518110616ddb57fe5b6020026020010151612f8a565b8096508197505050818614616ea35783600160008c73ffffffffffffffffffffffffffffffffffffffff1673ffffffffffffffffffffffffffffffffffffffff168152602001908152602001600020600084815260200190815260200160002081905550600160008b73ffffffffffffffffffffffffffffffffffffffff1673ffffffffffffffffffffffffffffffffffffffff16815260200190815260200160002060008781526020019081526020016000205493508591505b616ec384868a8481518110616eb457fe5b6020026020010151600061702b565b93508080600101915050616dc4565b5082600160008b73ffffffffffffffffffffffffffffffffffffffff1673ffffffffffffffffffffffffffffffffffffffff1681526020019081526020016000206000878152602001908152602001600020819055508873ffffffffffffffffffffffffffffffffffffffff16600073ffffffffffffffffffffffffffffffffffffffff163373ffffffffffffffffffffffffffffffffffffffff167f4a39dc06d4c0dbc64b70af90fd698a233a518aa5d07e595d983b8c0526c8f7fb8b8b604051616f9f92919061a3a0565b60405180910390a4616fb560008a8a8a8a614b5d565b505050505050505050565b60006040518060400160405280600281526020017f19010000000000000000000000000000000000000000000000000000000000008152506006548360405160200161700e9392919061a15b565b604051602081830303815290604052805190602001209050919050565b600080600185016020026101000390506000600160206001901b0390506000600181111561705557fe5b84600181111561706157fe5b14156170c157602060020a8582848a901c1601106170b4576040517f08c379a00000000000000000000000000000000000000000000000000000000081526004016170ab9061aba0565b60405180910390fd5b8185901b87019250617170565b6001808111156170cd57fe5b8460018111156170d957fe5b14156171345784818389901c161015617127576040517f08c379a000000000000000000000000000000000000000000000000000000000815260040161711e9061a620565b60405180910390fd5b8185901b8703925061716f565b6040517f08c379a00000000000000000000000000000000000000000000000000000000081526004016171669061ab60565b60405180910390fd5b5b8292505050949350505050565b60008083141561719057600090506171e7565b60008284029050828482816171a157fe5b04146171e2576040517f08c379a00000000000000000000000000000000000000000000000000000000081526004016171d99061a780565b60405180910390fd5b809150505b92915050565b6000806171f985612f8a565b809250819350505061725d600160008873ffffffffffffffffffffffffffffffffffffffff1673ffffffffffffffffffffffffffffffffffffffff16815260200190815260200160002060008481526020019081526020016000205482868661702b565b600160008873ffffffffffffffffffffffffffffffffffffffff1673ffffffffffffffffffffffffffffffffffffffff168152602001908152602001600020600084815260200190815260200160002081905550505050505050565b6040518060a00160405280600081526020016000815260200160008152602001600073ffffffffffffffffffffffffffffffffffffffff168152602001606081525090565b828054600181600116156101000203166002900490600052602060002090601f016020900481019282601f1061733f57805160ff191683800117855561736d565b8280016001018555821561736d579182015b8281111561736c578251825591602001919060010190617351565b5b50905061737a919061737e565b5090565b6173a091905b8082111561739c576000816000905550600101617384565b5090565b90565b6000813590506173b28161b067565b92915050565b6000815190506173c78161b067565b92915050565b6000815190506173dc8161b07e565b92915050565b600082601f8301126173f357600080fd5b81356174066174018261ad83565b61ad56565b9150818183526020840193506020810190508385602084028201111561742b57600080fd5b60005b8381101561745b578161744188826173a3565b84526020840193506020830192505060018101905061742e565b5050505092915050565b600082601f83011261747657600080fd5b81356174896174848261adab565b61ad56565b915081818352602084019350602081019050838560208402820111156174ae57600080fd5b60005b838110156174de57816174c488826176ed565b8452602084019350602083019250506001810190506174b1565b5050505092915050565b6000813590506174f78161b095565b92915050565b60008151905061750c8161b095565b92915050565b6000813590506175218161b0ac565b92915050565b6000813590506175368161b0c3565b92915050565b60008151905061754b8161b0c3565b92915050565b600082601f83011261756257600080fd5b81516175756175708261add3565b61ad56565b9150808252602083016020830185838301111561759157600080fd5b61759c83828461b00f565b50505092915050565b600082601f8301126175b657600080fd5b81356175c96175c48261adff565b61ad56565b915080825260208301602083018583830111156175e557600080fd5b6175f083828461b000565b50505092915050565b600082601f83011261760a57600080fd5b813561761d6176188261ae2b565b61ad56565b9150808252602083016020830185838301111561763957600080fd5b61764483828461b000565b50505092915050565b600060a0828403121561765f57600080fd5b61766960a061ad56565b9050600061767984828501617702565b600083015250602061768d84828501617702565b60208301525060406176a184828501617702565b60408301525060606176b5848285016173b8565b606083015250608082015167ffffffffffffffff8111156176d557600080fd5b6176e184828501617551565b60808301525092915050565b6000813590506176fc8161b0da565b92915050565b6000815190506177118161b0da565b92915050565b60006020828403121561772957600080fd5b6000617737848285016173a3565b91505092915050565b60006020828403121561775257600080fd5b6000617760848285016173cd565b91505092915050565b6000806040838503121561777c57600080fd5b600061778a858286016173cd565b925050602061779b85828601617702565b9150509250929050565b600080604083850312156177b857600080fd5b60006177c6858286016173a3565b92505060206177d7858286016173a3565b9150509250929050565b60008060008060008060c087890312156177fa57600080fd5b600061780889828a016173a3565b965050602061781989828a016173a3565b955050604087013567ffffffffffffffff81111561783657600080fd5b61784289828a01617465565b945050606087013567ffffffffffffffff81111561785f57600080fd5b61786b89828a01617465565b935050608061787c89828a016174e8565b92505060a087013567ffffffffffffffff81111561789957600080fd5b6178a589828a016175a5565b9150509295509295509295565b600080600080600060a086880312156178ca57600080fd5b60006178d8888289016173a3565b95505060206178e9888289016173a3565b945050604086013567ffffffffffffffff81111561790657600080fd5b61791288828901617465565b935050606086013567ffffffffffffffff81111561792f57600080fd5b61793b88828901617465565b925050608086013567ffffffffffffffff81111561795857600080fd5b617964888289016175a5565b9150509295509295909350565b600080600080600060a0868803121561798957600080fd5b6000617997888289016173a3565b95505060206179a8888289016173a3565b94505060406179b9888289016174e8565b93505060606179ca888289016174e8565b925050608086013567ffffffffffffffff8111156179e757600080fd5b6179f3888289016175a5565b9150509295509295909350565b60008060008060008060c08789031215617a1957600080fd5b6000617a2789828a016173a3565b9650506020617a3889828a016173a3565b9550506040617a4989828a016176ed565b9450506060617a5a89828a016176ed565b9350506080617a6b89828a016174e8565b92505060a087013567ffffffffffffffff811115617a8857600080fd5b617a9489828a016175a5565b9150509295509295509295565b600080600080600060a08688031215617ab957600080fd5b6000617ac7888289016173a3565b9550506020617ad8888289016173a3565b9450506040617ae9888289016176ed565b9350506060617afa888289016176ed565b925050608086013567ffffffffffffffff811115617b1757600080fd5b617b23888289016175a5565b9150509295509295909350565b60008060008060808587031215617b4657600080fd5b6000617b54878288016173a3565b945050602085013567ffffffffffffffff811115617b7157600080fd5b617b7d87828801617465565b935050604085013567ffffffffffffffff811115617b9a57600080fd5b617ba687828801617465565b925050606085013567ffffffffffffffff811115617bc357600080fd5b617bcf878288016175a5565b91505092959194509250565b600080600060608486031215617bf057600080fd5b6000617bfe868287016173a3565b935050602084013567ffffffffffffffff811115617c1b57600080fd5b617c2786828701617465565b925050604084013567ffffffffffffffff811115617c4457600080fd5b617c50868287016175a5565b9150509250925092565b60008060408385031215617c6d57600080fd5b6000617c7b858286016173a3565b9250506020617c8c858286016174e8565b9150509250929050565b60008060008060808587031215617cac57600080fd5b6000617cba878288016173a3565b9450506020617ccb87828801617512565b935050604085013567ffffffffffffffff811115617ce857600080fd5b617cf4878288016175a5565b925050606085013567ffffffffffffffff811115617d1157600080fd5b617d1d878288016175a5565b91505092959194509250565b60008060408385031215617d3c57600080fd5b6000617d4a858286016173a3565b9250506020617d5b858286016176ed565b9150509250929050565b600080600060608486031215617d7a57600080fd5b6000617d88868287016173a3565b9350506020617d99868287016176ed565b925050604084013567ffffffffffffffff811115617db657600080fd5b617dc2868287016175a5565b9150509250925092565b60008060008060808587031215617de257600080fd5b6000617df0878288016173a3565b9450506020617e01878288016176ed565b9350506040617e12878288016176ed565b925050606085013567ffffffffffffffff811115617e2f57600080fd5b617e3b878288016175a5565b91505092959194509250565b60008060408385031215617e5a57600080fd5b600083013567ffffffffffffffff811115617e7457600080fd5b617e80858286016173e2565b925050602083013567ffffffffffffffff811115617e9d57600080fd5b617ea985828601617465565b9150509250929050565b600060208284031215617ec557600080fd5b600082013567ffffffffffffffff811115617edf57600080fd5b617eeb84828501617465565b91505092915050565b60008060408385031215617f0757600080fd5b600083013567ffffffffffffffff811115617f2157600080fd5b617f2d85828601617465565b925050602083013567ffffffffffffffff811115617f4a57600080fd5b617f5685828601617465565b9150509250929050565b600060208284031215617f7257600080fd5b6000617f80848285016174fd565b91505092915050565b600060208284031215617f9b57600080fd5b6000617fa984828501617527565b91505092915050565b600060208284031215617fc457600080fd5b6000617fd28482850161753c565b91505092915050565b60008060408385031215617fee57600080fd5b600083015167ffffffffffffffff81111561800857600080fd5b61801485828601617551565b925050602083015167ffffffffffffffff81111561803157600080fd5b61803d85828601617551565b9150509250929050565b60006020828403121561805957600080fd5b600082013567ffffffffffffffff81111561807357600080fd5b61807f848285016175f9565b91505092915050565b6000806000806080858703121561809e57600080fd5b600085013567ffffffffffffffff8111156180b857600080fd5b6180c4878288016175f9565b94505060206180d5878288016174e8565b93505060406180e6878288016174e8565b92505060606180f7878288016176ed565b91505092959194509250565b60006020828403121561811557600080fd5b600082015167ffffffffffffffff81111561812f57600080fd5b61813b8482850161764d565b91505092915050565b6000806040838503121561815757600080fd5b600083015167ffffffffffffffff81111561817157600080fd5b61817d8582860161764d565b925050602083015167ffffffffffffffff81111561819a57600080fd5b6181a685828601617551565b9150509250929050565b6000602082840312156181c257600080fd5b60006181d0848285016176ed565b91505092915050565b6000602082840312156181eb57600080fd5b60006181f984828501617702565b91505092915050565b6000806040838503121561821557600080fd5b6000618223858286016176ed565b9250506020618234858286016176ed565b9150509250929050565b600061824a8383619f48565b60208301905092915050565b60006182628383619f66565b60208301905092915050565b6182778161afa6565b82525050565b6182868161af09565b82525050565b60006182978261ae7c565b6182a1818561aeb5565b93506182ac8361ae57565b8060005b838110156182dd5781516182c4888261823e565b97506182cf8361aea8565b9250506001810190506182b0565b5085935050505092915050565b60006182f58261ae7c565b6182ff818561aec6565b935061830a8361ae57565b8060005b8381101561833b5781516183228882618256565b975061832d8361aea8565b92505060018101905061830e565b5085935050505092915050565b6183518161af2d565b82525050565b6183608161af39565b82525050565b6183776183728261af39565b61b042565b82525050565b60006183888261ae87565b618392818561aed1565b93506183a281856020860161b00f565b6183ab8161b056565b840191505092915050565b60006183c18261ae87565b6183cb818561aee2565b93506183db81856020860161b00f565b80840191505092915050565b6183f08161afb8565b82525050565b6183ff8161afca565b82525050565b60006184108261ae9d565b61841a818561aeed565b935061842a81856020860161b00f565b6184338161b056565b840191505092915050565b60006184498261ae9d565b618453818561aefe565b935061846381856020860161b00f565b80840191505092915050565b600061847a8261ae92565b618484818561aefe565b935061849481856020860161b00f565b80840191505092915050565b6000815460018116600081146184bd57600181146184e257618526565b607f60028304166184ce818761aefe565b955060ff1983168652808601935050618526565b600282046184f0818761aefe565b95506184fb8561ae67565b60005b8281101561851d578154818901526001820191506020810190506184fe565b82880195505050505b505092915050565b600061853b603d8361aeed565b91507f455243313135354d6978656446756e6769626c654d696e7461626c65235f627560008301527f726e46756e6769626c6542617463683a20494e56414c49445f545950450000006020830152604082019050919050565b60006185a160268361aeed565b91507f4e6f206372656174696f6e20666565732063757272656e746c7920696e20636f60008301527f6e747261637400000000000000000000000000000000000000000000000000006020830152604082019050919050565b600061860760408361aeed565b91507f455243313135354d6978656446756e6769626c654d696e7461626c65235f6d6960008301527f6e744e6f6e46756e6769626c6542617463683a20494e56414c49445f545950456020830152604082019050919050565b600061866d601c8361aefe565b91507f19457468657265756d205369676e6564204d6573736167653a0a3332000000006000830152601c82019050919050565b60006186ad60378361aeed565b91507f4c6962427974657323706f704c617374427974653a20475245415445525f544860008301527f414e5f5a45524f5f4c454e4754485f52455155495245440000000000000000006020830152604082019050919050565b6000618713604e8361aeed565b91507f455243313135354d6574614d6978656446756e6769626c65236d65746153616660008301527f6542617463685472616e7366657246726f6d3a20494e56414c49445f4f4e5f5260208301527f4543454956455f4d4553534147450000000000000000000000000000000000006040830152606082019050919050565b600061879f60378361aeed565b91507f455243313135354d6978656446756e6769626c6523736166655472616e73666560008301527f7246726f6d3a20494e56414c49445f4f50455241544f520000000000000000006020830152604082019050919050565b600061880560208361aeed565b91507f436861726765645061727469636c65733a20494e56414c49445f4d4554484f446000830152602082019050919050565b6000618845603d8361aeed565b91507f455243313135354d6978656446756e6769626c654d696e7461626c65235f6d6960008301527f6e7446756e6769626c6542617463683a20494e56414c49445f545950450000006020830152604082019050919050565b60006188ab60178361aeed565b91507f536166654d617468237375623a20554e444552464c4f570000000000000000006000830152602082019050919050565b60006188eb603c8361aeed565b91507f455243313135354d6978656446756e6769626c654d696e7461626c65235f627560008301527f726e4e6f6e46756e6769626c653a20494e56414c49445f4f574e4552000000006020830152604082019050919050565b600061895160158361aeed565b91507f496e76616c6964205061727469636c65205479706500000000000000000000006000830152602082019050919050565b600061899160338361aeed565b91507f455243313135355061636b656442616c616e6365235f7669657755706461746560008301527f42696e56616c75653a20554e444552464c4f57000000000000000000000000006020830152604082019050919050565b60006189f7602a8361aeed565b91507f4f776e61626c65237472616e736665724f776e6572736869703a20494e56414c60008301527f49445f41444452455353000000000000000000000000000000000000000000006020830152604082019050919050565b6000618a5d603a8361aeed565b91507f5369676e617475726556616c696461746f7223697356616c69645369676e617460008301527f7572653a20554e535550504f525445445f5349474e41545552450000000000006020830152604082019050919050565b6000618ac3601a8361aeed565b91507f556e72656769737465726564207479706520737570706c6965640000000000006000830152602082019050919050565b6000618b0360408361aeed565b91507f455243313135354d6574614d6978656446756e6769626c65235f7369676e617460008301527f75726556616c69646174696f6e3a20494e56414c49445f5349474e41545552456020830152604082019050919050565b6000618b6960168361aeed565b91507f5061727469636c6520686173206e6f20636861726765000000000000000000006000830152602082019050919050565b6000618ba960278361aeed565b91507f4d75737420686176652061636365737320746f20616c6c20737065636966696560008301527f64207479706573000000000000000000000000000000000000000000000000006020830152604082019050919050565b6000618c0f60238361aeed565b91507f4661696c656420746f206465706f7369742044616920696e746f20436f6e747260008301527f61637400000000000000000000000000000000000000000000000000000000006020830152604082019050919050565b6000618c75601e8361aeed565b91507f556e7265676973746572656420746f6b656e20656e636f756e746572656400006000830152602082019050919050565b6000618cb560368361aeed565b91507f5369676e617475726556616c696461746f7223697356616c69645369676e617460008301527f7572653a20494c4c4547414c5f5349474e4154555245000000000000000000006020830152604082019050919050565b6000618d1b60428361aeed565b91507f455243313135355061636b656442616c616e6365235f7361666542617463685460008301527f72616e7366657246726f6d3a20494e56414c49445f4152524159535f4c454e4760208301527f54480000000000000000000000000000000000000000000000000000000000006040830152606082019050919050565b6000618da760168361aeed565b91507f536166654d617468236d756c3a204f564552464c4f57000000000000000000006000830152602082019050919050565b6000618de7604c8361aeed565b91507f455243313135355061636b656442616c616e6365235f63616c6c6f6e4552433160008301527f313535426174636852656365697665643a20494e56414c49445f4f4e5f52454360208301527f454956455f4d45535341474500000000000000000000000000000000000000006040830152606082019050919050565b6000618e7360498361aeed565b91507f455243313135354d6574614d6978656446756e6769626c65236d65746153616660008301527f655472616e7366657246726f6d3a20494e56414c49445f4f4e5f52454345495660208301527f455f4d45535341474500000000000000000000000000000000000000000000006040830152606082019050919050565b6000618eff601d8361aeed565b91507f556e72656769737465726564207479706520656e636f756e74657265640000006000830152602082019050919050565b6000618f3f603d8361aeed565b91507f455243313135354d6978656446756e6769626c6523736166654261746368547260008301527f616e7366657246726f6d3a20494e56414c49445f524543495049454e540000006020830152604082019050919050565b6000618fa5603f8361aeed565b91507f455243313135354d6574614d6978656446756e6769626c65235f7472616e736660008301527f65724761734665653a2045524332305f5452414e534645525f4641494c4544006020830152604082019050919050565b600061900b60378361aeed565b91507f5369676e617475726556616c696461746f7223697356616c69645369676e617460008301527f7572653a204c454e4754485f39375f52455155495245440000000000000000006020830152604082019050919050565b600061907160258361aeed565b91507f4e6f206d696e74696e6720666565732063757272656e746c7920696e20636f6e60008301527f74726163740000000000000000000000000000000000000000000000000000006020830152604082019050919050565b60006190d760228361aeed565b91507f546f6b656e206973206e6f7420616e204e6f6e2d46756e6769626c6520746f6b60008301527f656e0000000000000000000000000000000000000000000000000000000000006020830152604082019050919050565b600061913d60058361aefe565b91507f2e6a736f6e0000000000000000000000000000000000000000000000000000006000830152600582019050919050565b600061917d601b8361aeed565b91507f556e7265676973746572656420746f6b656e20737570706c69656400000000006000830152602082019050919050565b60006191bd60408361aeed565b91507f455243313135354d6978656446756e6769626c654d696e7461626c65235f627560008301527f726e4e6f6e46756e6769626c6542617463683a20494e56414c49445f545950456020830152604082019050919050565b6000619223603c8361aeed565b91507f455243313135354d6978656446756e6769626c6523736166654261746368547260008301527f616e7366657246726f6d3a20494e56414c49445f4f50455241544f52000000006020830152604082019050919050565b6000619289603b8361aeed565b91507f455243313135354d6574614d6978656446756e6769626c65235f7472616e736660008301527f65724761734665653a20554e535550504f525445445f544f4b454e00000000006020830152604082019050919050565b60006192ef603d8361aeed565b91507f455243313135354d696e744275726e5061636b656442616c616e63652362617460008301527f63684275726e3a20494e56414c49445f4152524159535f4c454e4754480000006020830152604082019050919050565b600061935560228361aeed565b91507f4d757374206265205061727469636c65204f776e6572206f72204f706572617460008301527f6f720000000000000000000000000000000000000000000000000000000000006020830152604082019050919050565b60006193bb60458361aeed565b91507f455243313135354d6978656446756e6769626c654d696e7461626c65235f627560008301527f726e46756e6769626c6542617463683a20494e53554646494349454e545f424160208301527f4c414e43450000000000000000000000000000000000000000000000000000006040830152606082019050919050565b600061944760338361aeed565b91507f5369676e617475726556616c696461746f7223697356616c69645369676e617460008301527f7572653a20494e56414c49445f5349474e4552000000000000000000000000006020830152604082019050919050565b60006194ad60478361aeed565b91507f455243313135355061636b656442616c616e6365235f63616c6c6f6e4552433160008301527f31353552656365697665643a20494e56414c49445f4f4e5f524543454956455f60208301527f4d455353414745000000000000000000000000000000000000000000000000006040830152606082019050919050565b600061953960388361aeed565b91507f455243313135354d6978656446756e6769626c6523736166655472616e73666560008301527f7246726f6d3a20494e56414c49445f524543495049454e5400000000000000006020830152604082019050919050565b600061959f60458361aeed565b91507f455243313135354d6574614d6978656446756e6769626c65236d65746153616660008301527f6542617463685472616e7366657246726f6d3a20494e56414c49445f5245434960208301527f5049454e540000000000000000000000000000000000000000000000000000006040830152606082019050919050565b600061962b60258361aeed565b91507f436f6e74726163742068617320616e206578697374696e67204368616920626160008301527f6c616e63650000000000000000000000000000000000000000000000000000006020830152604082019050919050565b600061969160438361aeed565b91507f5369676e617475726556616c696461746f7223697356616c69645369676e617460008301527f7572653a204c454e4754485f475245415445525f5448414e5f305f524551554960208301527f52454400000000000000000000000000000000000000000000000000000000006040830152606082019050919050565b600061971d60388361aeed565b91507f455243313135354d6978656446756e6769626c654d696e7461626c65235f6d6960008301527f6e7446756e6769626c653a20494e56414c49445f5459504500000000000000006020830152604082019050919050565b600061978360418361aeed565b91507f455243313135354d6978656446756e6769626c654d696e7461626c65235f627560008301527f726e4e6f6e46756e6769626c6542617463683a20494e56414c49445f4f574e4560208301527f52000000000000000000000000000000000000000000000000000000000000006040830152606082019050919050565b600061980f60408361aeed565b91507f455243313135354d6574614d6978656446756e6769626c65236d65746153616660008301527f655472616e7366657246726f6d3a20494e56414c49445f524543495049454e546020830152604082019050919050565b6000619875601e8361aeed565b91507f4661696c656420746f207472616e736665722044616920746f205573657200006000830152602082019050919050565b60006198b560008361aed1565b9150600082019050919050565b60006198cf602a8361aeed565b91507f496e73756666696369656e74207061796d656e7420666f72205061727469636c60008301527f65206372656174696f6e000000000000000000000000000000000000000000006020830152604082019050919050565b600061993560408361aeed565b91507f455243313135354d6978656446756e6769626c654d696e7461626c65235f627560008301527f726e46756e6769626c653a20494e53554646494349454e545f42414c414e43456020830152604082019050919050565b600061999b60268361aeed565b91507f4f776e61626c65236f6e6c794f776e65723a2053454e4445525f49535f4e4f5460008301527f5f4f574e455200000000000000000000000000000000000000000000000000006020830152604082019050919050565b6000619a01603c8361aeed565b91507f4c696242797465732372656164427974657333323a20475245415445525f4f5260008301527f5f455155414c5f544f5f33325f4c454e4754485f5245515549524544000000006020830152604082019050919050565b6000619a6760168361aeed565b91507f536166654d617468236164643a204f564552464c4f57000000000000000000006000830152602082019050919050565b6000619aa760458361aeed565b91507f455243313135355061636b656442616c616e6365235f7669657755706461746560008301527f42696e56616c75653a20494e56414c49445f42494e5f57524954455f4f50455260208301527f4154494f4e0000000000000000000000000000000000000000000000000000006040830152606082019050919050565b6000619b33603e8361aeed565b91507f455243313135354d696e744275726e5061636b656442616c616e6365235f626160008301527f7463684d696e743a20494e56414c49445f4152524159535f4c454e47544800006020830152604082019050919050565b6000619b9960328361aeed565b91507f455243313135355061636b656442616c616e6365235f7669657755706461746560008301527f42696e56616c75653a204f564552464c4f5700000000000000000000000000006020830152604082019050919050565b6000619bff60388361aeed565b91507f455243313135354d6978656446756e6769626c654d696e7461626c65235f627560008301527f726e46756e6769626c653a20494e56414c49445f5459504500000000000000006020830152604082019050919050565b6000619c65603b8361aeed565b91507f455243313135354d6978656446756e6769626c654d696e7461626c65235f6d6960008301527f6e744e6f6e46756e6769626c653a20494e56414c49445f5459504500000000006020830152604082019050919050565b6000619ccb603c8361aeed565b91507f455243313135354d6574614d6978656446756e6769626c65235f7369676e617460008301527f75726556616c69646174696f6e3a20494e56414c49445f4e4f4e4345000000006020830152604082019050919050565b6000619d31603b8361aeed565b91507f455243313135354d6978656446756e6769626c654d696e7461626c65235f627560008301527f726e4e6f6e46756e6769626c653a20494e56414c49445f5459504500000000006020830152604082019050919050565b6000619d9760228361aeed565b91507f4d75737420686176652061636365737320746f2073706563696669656420747960008301527f70650000000000000000000000000000000000000000000000000000000000006020830152604082019050919050565b6000619dfd60478361aeed565b91507f455243313135354d6978656446756e6769626c65235f736166654d697865644260008301527f617463685472616e7366657246726f6d3a20494e56414c49445f41525241595360208301527f5f4c454e475448000000000000000000000000000000000000000000000000006040830152606082019050919050565b6000619e89604e8361aeed565b91507f4e6f6e2d46756e6769626c65205061727469636c6573206d757374206861766560008301527f206120726571756972656444616920616d6f756e74206772656174657220746860208301527f616e2031303030303030205745490000000000000000000000000000000000006040830152606082019050919050565b6000619f15601c8361aeed565b91507f496e73756666696369656e742044616920666f72206465706f736974000000006000830152602082019050919050565b619f518161af8f565b82525050565b619f608161af8f565b82525050565b619f6f8161af8f565b82525050565b619f86619f818261af8f565b61b04c565b82525050565b619f958161af99565b82525050565b6000619fa782846182ea565b915081905092915050565b6000619fbe8288618366565b602082019150619fce8287619f75565b602082019150619fde8286619f75565b602082019150619fee8285618366565b602082019150619ffe8284618366565b6020820191508190509695505050505050565b600061a01d8287618366565b60208201915061a02d8286619f75565b60208201915061a03d8285619f75565b60208201915061a04d8284619f75565b60208201915081905095945050505050565b600061a06b8288618366565b60208201915061a07b8287619f75565b60208201915061a08b8286619f75565b60208201915061a09b8285619f75565b60208201915061a0ab8284619f75565b6020820191508190509695505050505050565b600061a0ca82866183b6565b915061a0d68285619f75565b60208201915061a0e68284618366565b602082019150819050949350505050565b600061a10382866183b6565b915061a10f8285619f75565b60208201915061a11f82846183b6565b9150819050949350505050565b600061a138828561843e565b915061a144828461843e565b915061a14f82619130565b91508190509392505050565b600061a167828661846f565b915061a1738285618366565b60208201915061a1838284618366565b602082019150819050949350505050565b600061a1a082856184a0565b915061a1ac828461843e565b915061a1b782619130565b91508190509392505050565b600061a1ce82618660565b915061a1da8284618366565b60208201915081905092915050565b600060208201905061a1fe600083018461827d565b92915050565b600060a08201905061a219600083018861826e565b61a226602083018761827d565b818103604083015261a238818661828c565b9050818103606083015261a24c818561828c565b9050818103608083015261a260818461837d565b90509695505050505050565b600060a08201905061a281600083018861826e565b61a28e602083018761827d565b61a29b6040830186619f57565b61a2a86060830185619f57565b818103608083015261a2ba818461837d565b90509695505050505050565b600060608201905061a2db600083018661827d565b61a2e8602083018561827d565b61a2f56040830184619f57565b949350505050565b600060a08201905061a312600083018761827d565b61a31f602083018661827d565b61a32c6040830185619f57565b61a3396060830184619f57565b818103608083015261a34a816198a8565b905095945050505050565b600060408201905061a36a600083018561827d565b61a3776020830184619f57565b9392505050565b6000602082019050818103600083015261a398818461828c565b905092915050565b6000604082019050818103600083015261a3ba818561828c565b9050818103602083015261a3ce818461828c565b90509392505050565b600060208201905061a3ec6000830184618348565b92915050565b600060408201905061a4076000830185618357565b818103602083015261a419818461837d565b90509392505050565b600060808201905061a4376000830187618357565b61a4446020830186619f8c565b61a4516040830185618357565b61a45e6060830184618357565b95945050505050565b6000604082019050818103600083015261a481818561837d565b9050818103602083015261a495818461837d565b90509392505050565b6000602082019050818103600083015261a4b88184618405565b905092915050565b6000602082019050818103600083015261a4d98161852e565b9050919050565b6000602082019050818103600083015261a4f981618594565b9050919050565b6000602082019050818103600083015261a519816185fa565b9050919050565b6000602082019050818103600083015261a539816186a0565b9050919050565b6000602082019050818103600083015261a55981618706565b9050919050565b6000602082019050818103600083015261a57981618792565b9050919050565b6000602082019050818103600083015261a599816187f8565b9050919050565b6000602082019050818103600083015261a5b981618838565b9050919050565b6000602082019050818103600083015261a5d98161889e565b9050919050565b6000602082019050818103600083015261a5f9816188de565b9050919050565b6000602082019050818103600083015261a61981618944565b9050919050565b6000602082019050818103600083015261a63981618984565b9050919050565b6000602082019050818103600083015261a659816189ea565b9050919050565b6000602082019050818103600083015261a67981618a50565b9050919050565b6000602082019050818103600083015261a69981618ab6565b9050919050565b6000602082019050818103600083015261a6b981618af6565b9050919050565b6000602082019050818103600083015261a6d981618b5c565b9050919050565b6000602082019050818103600083015261a6f981618b9c565b9050919050565b6000602082019050818103600083015261a71981618c02565b9050919050565b6000602082019050818103600083015261a73981618c68565b9050919050565b6000602082019050818103600083015261a75981618ca8565b9050919050565b6000602082019050818103600083015261a77981618d0e565b9050919050565b6000602082019050818103600083015261a79981618d9a565b9050919050565b6000602082019050818103600083015261a7b981618dda565b9050919050565b6000602082019050818103600083015261a7d981618e66565b9050919050565b6000602082019050818103600083015261a7f981618ef2565b9050919050565b6000602082019050818103600083015261a81981618f32565b9050919050565b6000602082019050818103600083015261a83981618f98565b9050919050565b6000602082019050818103600083015261a85981618ffe565b9050919050565b6000602082019050818103600083015261a87981619064565b9050919050565b6000602082019050818103600083015261a899816190ca565b9050919050565b6000602082019050818103600083015261a8b981619170565b9050919050565b6000602082019050818103600083015261a8d9816191b0565b9050919050565b6000602082019050818103600083015261a8f981619216565b9050919050565b6000602082019050818103600083015261a9198161927c565b9050919050565b6000602082019050818103600083015261a939816192e2565b9050919050565b6000602082019050818103600083015261a95981619348565b9050919050565b6000602082019050818103600083015261a979816193ae565b9050919050565b6000602082019050818103600083015261a9998161943a565b9050919050565b6000602082019050818103600083015261a9b9816194a0565b9050919050565b6000602082019050818103600083015261a9d98161952c565b9050919050565b6000602082019050818103600083015261a9f981619592565b9050919050565b6000602082019050818103600083015261aa198161961e565b9050919050565b6000602082019050818103600083015261aa3981619684565b9050919050565b6000602082019050818103600083015261aa5981619710565b9050919050565b6000602082019050818103600083015261aa7981619776565b9050919050565b6000602082019050818103600083015261aa9981619802565b9050919050565b6000602082019050818103600083015261aab981619868565b9050919050565b6000602082019050818103600083015261aad9816198c2565b9050919050565b6000602082019050818103600083015261aaf981619928565b9050919050565b6000602082019050818103600083015261ab198161998e565b9050919050565b6000602082019050818103600083015261ab39816199f4565b9050919050565b6000602082019050818103600083015261ab5981619a5a565b9050919050565b6000602082019050818103600083015261ab7981619a9a565b9050919050565b6000602082019050818103600083015261ab9981619b26565b9050919050565b6000602082019050818103600083015261abb981619b8c565b9050919050565b6000602082019050818103600083015261abd981619bf2565b9050919050565b6000602082019050818103600083015261abf981619c58565b9050919050565b6000602082019050818103600083015261ac1981619cbe565b9050919050565b6000602082019050818103600083015261ac3981619d24565b9050919050565b6000602082019050818103600083015261ac5981619d8a565b9050919050565b6000602082019050818103600083015261ac7981619df0565b9050919050565b6000602082019050818103600083015261ac9981619e7c565b9050919050565b6000602082019050818103600083015261acb981619f08565b9050919050565b600060208201905061acd56000830184619f57565b92915050565b600060408201905061acf06000830185619f57565b61acfd60208301846183e7565b9392505050565b600060408201905061ad196000830185619f57565b61ad2660208301846183f6565b9392505050565b600060408201905061ad426000830185619f57565b61ad4f6020830184619f57565b9392505050565b6000604051905081810181811067ffffffffffffffff8211171561ad7957600080fd5b8060405250919050565b600067ffffffffffffffff82111561ad9a57600080fd5b602082029050602081019050919050565b600067ffffffffffffffff82111561adc257600080fd5b602082029050602081019050919050565b600067ffffffffffffffff82111561adea57600080fd5b601f19601f8301169050602081019050919050565b600067ffffffffffffffff82111561ae1657600080fd5b601f19601f8301169050602081019050919050565b600067ffffffffffffffff82111561ae4257600080fd5b601f19601f8301169050602081019050919050565b6000819050602082019050919050565b60008190508160005260206000209050919050565b600081519050919050565b600081519050919050565b600081519050919050565b600081519050919050565b6000602082019050919050565b600082825260208201905092915050565b600081905092915050565b600082825260208201905092915050565b600081905092915050565b600082825260208201905092915050565b600081905092915050565b600061af148261af6f565b9050919050565b600061af268261af6f565b9050919050565b60008115159050919050565b6000819050919050565b60007fffffffff0000000000000000000000000000000000000000000000000000000082169050919050565b600073ffffffffffffffffffffffffffffffffffffffff82169050919050565b6000819050919050565b600060ff82169050919050565b600061afb18261afdc565b9050919050565b600061afc38261af8f565b9050919050565b600061afd58261af8f565b9050919050565b600061afe78261afee565b9050919050565b600061aff98261af6f565b9050919050565b82818337600083830152505050565b60005b8381101561b02d57808201518184015260208101905061b012565b8381111561b03c576000848401525b50505050565b6000819050919050565b6000819050919050565b6000601f19601f8301169050919050565b61b0708161af09565b811461b07b57600080fd5b50565b61b0878161af1b565b811461b09257600080fd5b50565b61b09e8161af2d565b811461b0a957600080fd5b50565b61b0b58161af39565b811461b0c057600080fd5b50565b61b0cc8161af43565b811461b0d757600080fd5b50565b61b0e38161af8f565b811461b0ee57600080fd5b5056fea365627a7a7231582006627226accb9213f411d944ca229d661cc45f21c222c02c684853a47557d0d86c6578706572696d656e74616cf564736f6c634300050d0040",
  "source": "pragma solidity ^0.5.13;\npragma experimental ABIEncoderV2;\n\nimport \"./interfaces/ChaiInterface.sol\";\nimport \"./lib/ERC1155MetaMixedFungible.sol\";\nimport \"multi-token-standard/contracts/utils/SafeMath.sol\";\nimport \"multi-token-standard/contracts/utils/Ownable.sol\";\nimport \"multi-token-standard/contracts/interfaces/IERC20.sol\";\nimport \"multi-token-standard/contracts/tokens/ERC1155/ERC1155Metadata.sol\";\n\n\ncontract ChargedParticles is ERC1155Metadata, ERC1155MetaMixedFungible, Ownable {\n    using SafeMath for uint256;\n\n    uint256 constant internal DAI_UNIT = 1e18;\n    uint256 constant internal MIN_DAI = 1e6;\n    uint16 constant internal FEE_BASE = 1e4;\n    uint8 constant internal TYPE_PUBLIC = 1;\n    uint8 constant internal TYPE_PRIVATE = 2;\n\n    //       TypeID => Access Type (Public/Private)\n    mapping(uint256 => uint8) internal registeredTypes;\n\n    //       TypeID => Type Creator\n    mapping(uint256 => address) internal registeredTypeCreators;\n\n    //       TypeID => Required DAI\n    mapping(uint256 => uint256) internal requiredFundingByType;   // Amount of Dai to deposit when minting\n\n    //      TokenID => Balance\n    mapping(uint256 => uint256) internal chaiBalanceByTokenId;    // Amount of Chai minted from Dai deposited\n\n    uint256 internal creationPriceFT;\n    uint256 internal creationPriceNFT;\n    uint256 internal mintingFee;\n    uint256 internal totalMintingFees;\n\n    address public daiAddress;\n    address public chaiAddress;\n\n    IERC20 internal dai;\n    IChai internal chai;\n\n    //\n    // Initialization\n    //\n\n    constructor() public {\n        creationPriceFT = 35 szabo;     //  0.000035 ETH  (~ USD $0.005)\n        creationPriceNFT = 70 szabo;    //  0.00007 ETH  (~ USD $0.01)\n        mintingFee = 50;                //  0.5% of Chai from deposited Dai\n    }\n\n\n    //\n    // Public View\n    //\n\n    function isRegisteredType(uint256 _type) public view returns (bool) {\n        return registeredTypes[_type] > 0;\n    }\n\n    function isPublicType(uint256 _type) public view returns (bool) {\n        return registeredTypes[_type] == TYPE_PUBLIC;\n    }\n\n    function creatorOfType(uint256 _type) public view returns (address) {\n        return registeredTypeCreators[_type];\n    }\n\n    function canMint(uint256 _type) public view returns (bool) {\n        if (registeredTypes[_type] == TYPE_PUBLIC) { return true; }\n        return (registeredTypeCreators[_type] == msg.sender);\n    }\n\n    function getCreationPriceFT() public view returns (uint256) {\n        return creationPriceFT;\n    }\n\n    function getCreationPriceNFT() public view returns (uint256) {\n        return creationPriceNFT;\n    }\n\n    function getMintingFee() public view returns (uint256) {\n        return mintingFee;\n    }\n\n    function getDaiContractBalance() public returns (uint256) {\n        return chai.dai(address(this));\n    }\n\n    function getChaiContractBalance() public returns (uint256) {\n        return chai.balanceOf(address(this));\n    }\n\n    function logURIs(uint256[] memory _tokenIds) public {\n        super._logURIs(_tokenIds);\n    }\n\n    // view current amount of base-Dai held in particle\n    function baseParticleMass(uint256 _tokenId) public view returns (uint256) {\n        uint256 _type = _tokenId & TYPE_MASK;\n        return requiredFundingByType[_type];\n    }\n\n    // view current amount of interest earned by a particle\n    function currentParticleCharge(uint256 _tokenId) public returns (uint256) {\n        uint256 _type = _tokenId & TYPE_MASK;\n        uint256 currentCharge = chai.dai(chaiBalanceByTokenId[_tokenId]);\n        uint256 originalCharge = requiredFundingByType[_type];\n        if (originalCharge >= currentCharge) { return 0; }\n        return currentCharge.sub(originalCharge);\n    }\n\n\n    //\n    // Public Actionable\n    //\n\n    // collect current interest from particle\n    function dischargeParticle(uint256 _tokenId) public {\n        address owner = ownerOf(_tokenId);\n        require((owner == msg.sender) || isApprovedForAll(owner, msg.sender), \"Must be Particle Owner or Operator\");\n\n        uint256 _type = _tokenId & TYPE_MASK;\n        require(isRegisteredType(_type), \"Invalid Particle Type\");\n        require(requiredFundingByType[_type] > 0, \"Invalid Particle Type\");\n\n        uint256 _currentCharge = currentParticleCharge(_tokenId);\n        require(_currentCharge > 0, \"Particle has no charge\");\n\n        _payoutChargedDai(msg.sender, _currentCharge);\n    }\n\n\n    //\n    // Public Payable\n    //\n\n    function createParticle(string memory _uri, bool _isNF, bool _isPrivate, uint256 _requiredDai) public payable returns (uint256 _particleTypeId) {\n        require((!_isNF && msg.value >= creationPriceFT) || (_isNF && msg.value >= creationPriceNFT), \"Insufficient payment for Particle creation\");\n        require(!_isNF || (_isNF && _requiredDai >= MIN_DAI), \"Non-Fungible Particles must have a requiredDai amount greater than 1000000 WEI\");\n\n        // Create Type\n        _particleTypeId = _createType(_uri, _isNF);\n\n        // Type Access (Public or Private minting)\n        registeredTypes[_particleTypeId] = _isPrivate ? TYPE_PRIVATE : TYPE_PUBLIC;\n\n        // Creator of Type\n        registeredTypeCreators[_particleTypeId] = msg.sender;\n\n        // Required Funding for NFTs\n        requiredFundingByType[_particleTypeId] = _isNF ? _requiredDai : 0;\n\n        // Refund over-payment\n        uint256 overage = msg.value.sub(_isNF ? creationPriceNFT : creationPriceFT);\n        if (overage > 0) {\n            msg.sender.transfer(overage);\n        }\n    }\n\n\n    //\n    // Public Mint - Fungible (ERC20)\n    //\n\n    function mintCommon(address _to, uint256 _type, uint256 _amount, bytes memory _data) public {\n        require(canMint(_type), \"Must have access to specified type\");\n        _mintFungible(_to, _type, _amount, _data);\n    }\n\n    function mintCommonBatch(address _to, uint256[] memory _types, uint256[] memory _amounts, bytes memory _data) public {\n        for (uint256 i = 0; i < _types.length; ++i) {\n            require(canMint(_types[i]), \"Must have access to all specified types\");\n        }\n        _mintFungibleBatch(_to, _types, _amounts, _data);\n    }\n\n    //\n    // Public Mint - Non-Fungible (ERC721)\n    //\n\n    function mintUnique(address _to, uint256 _type, bytes memory _data) public returns (uint256 _tokenId) {\n        require(canMint(_type), \"Must have access to specified type\");\n\n        address _self = address(this);\n\n        // Transfer DAI from User to Contract\n        uint256 _requiredDai = requiredFundingByType[_type];\n        _collectRequiredDai(msg.sender, _requiredDai);\n\n        // Mint NFT\n        _tokenId = _mintNonFungible(_to, _type, _data);\n\n        // Tokenize Interest\n        uint256 _preBalance = chai.balanceOf(_self);\n        chai.join(_self, _requiredDai);\n        uint256 _postBalance = chai.balanceOf(_self);\n\n        // Track Chai in each Token\n        chaiBalanceByTokenId[_tokenId] = _totalChaiForToken(_postBalance.sub(_preBalance));\n    }\n\n    function mintUniqueBatch(address _to, uint256[] memory _types, bytes memory _data) public returns (uint256[] memory _tokenIds) {\n        address _self = address(this);\n        uint256 i;\n        uint256 _totalDai;\n        uint256 _requiredDai;\n\n        for (i = 0; i < _types.length; ++i) {\n            require(canMint(_types[i]), \"Must have access to all specified types\");\n            _requiredDai = requiredFundingByType[_types[i]];\n            _totalDai = _requiredDai.add(_totalDai);\n        }\n\n        // Transfer DAI from User to Contract\n        _collectRequiredDai(msg.sender, _totalDai);\n\n        // Mint NFTs\n        _tokenIds = _mintNonFungibleBatch(_to, _types, _data);\n\n        uint256 _balance = chai.balanceOf(_self);\n        for (i = 0; i < _types.length; ++i) {\n            _requiredDai = requiredFundingByType[_types[i]];\n\n            // Tokenize Interest\n            chai.join(_self, _requiredDai);\n\n            // Track Chai in each Token\n            chaiBalanceByTokenId[_tokenIds[i]] = _totalChaiForToken(chai.balanceOf(_self).sub(_balance));\n            _balance = chai.balanceOf(_self);\n        }\n    }\n\n\n    //\n    // Public Burn - Fungible (ERC20)\n    //\n\n    function burnCommon(uint256 _type, uint256 _amount) public {\n        require(isRegisteredType(_type), \"Unregistered type supplied\");\n        _burnFungible(msg.sender, _type, _amount);\n    }\n\n    function burnCommonBatch(uint256[] memory _types, uint256[] memory _amounts) public {\n        for (uint256 i = 0; i < _types.length; ++i) {\n            require(isRegisteredType(_types[i]), \"Unregistered type encountered\");\n        }\n        _burnFungibleBatch(msg.sender, _types, _amounts);\n    }\n\n\n    //\n    // Public Burn - Non-Fungible (ERC721)\n    //\n\n    function burnUnique(uint256 _tokenId) public {\n        uint256 _type = _tokenId & TYPE_MASK;\n        require(isRegisteredType(_type), \"Unregistered token supplied\");\n\n        uint256 _tokenChai = chaiBalanceByTokenId[_tokenId];\n        chaiBalanceByTokenId[_tokenId] = 0;\n\n        // Burn NFT\n        _burnNonFungible(msg.sender, _tokenId);\n\n        // Payout Dai + Interest\n        _payoutFundedDai(msg.sender, _tokenChai);\n    }\n\n    function burnUniqueBatch(uint256[] memory _tokenIds) public {\n        uint256 i;\n        uint256 _tokenId;\n        uint256 _totalChai;\n        for (i = 0; i < _tokenIds.length; ++i) {\n            _tokenId = _tokenIds[i];\n            require(isRegisteredType(_tokenId & TYPE_MASK), \"Unregistered token encountered\");\n            _totalChai = chaiBalanceByTokenId[_tokenId].add(_totalChai);\n            chaiBalanceByTokenId[_tokenId] = 0;\n        }\n\n        // Burn NFTs\n        _burnNonFungibleBatch(msg.sender, _tokenIds);\n\n        // Payout Dai + Interest\n        _payoutFundedDai(msg.sender, _totalChai);\n    }\n\n\n    //\n    // Only Owner\n    //\n\n    function withdrawCreationFees() public onlyOwner {\n        uint256 _balance = address(this).balance;\n        require(_balance > 0, \"No creation fees currently in contract\");\n        msg.sender.transfer(_balance);\n    }\n\n    function withdrawMintingFees() public onlyOwner {\n        require(totalMintingFees > 0, \"No minting fees currently in contract\");\n         _payoutFundedDai(msg.sender, totalMintingFees);\n        totalMintingFees = 0;\n    }\n\n    function setBaseMetadataURI(string memory _newBaseMetadataURI) public onlyOwner {\n        super._setBaseMetadataURI(_newBaseMetadataURI);\n    }\n\n    function setCreationPriceFT(uint256 _price) public onlyOwner {\n        creationPriceFT = _price;\n    }\n\n    function setCreationPriceNFT(uint256 _price) public onlyOwner {\n        creationPriceNFT = _price;\n    }\n\n    function setMintingFee(uint256 _fee) public onlyOwner {\n        mintingFee = _fee;\n    }\n\n    function setupDai(address _daiAddress, address _chaiAddress) public onlyOwner {\n        // Check for existing funds in contract\n        if (chaiAddress != address(0)) {\n            uint256 _oldTokenBalance = chai.dai(address(this));\n            require(_oldTokenBalance == 0, \"Contract has an existing Chai balance\");\n        }\n\n        // Set DAI as Funding Token\n        daiAddress = _daiAddress;\n        dai = IERC20(daiAddress);\n\n        // Setup Chai to Tokenize DAI Interest\n        chaiAddress = _chaiAddress;\n        chai = IChai(chaiAddress);\n        dai.approve(chaiAddress, uint(-1));\n    }\n\n\n    //\n    // Private\n    //\n\n    function _collectRequiredDai(address _from, uint256 _requiredDai) internal {\n        // Transfer DAI from User to Contract\n        uint256 _userDaiBalance = dai.balanceOf(_from);\n        require(_requiredDai <= _userDaiBalance, \"Insufficient Dai for deposit\");\n        require(dai.transferFrom(_from, address(this), _requiredDai), \"Failed to deposit Dai into Contract\");\n    }\n\n    function _payoutFundedDai(address _to, uint256 _totalChai) internal {\n        address _self = address(this);\n\n        // Exit Chai and collect Dai + Interest\n        chai.exit(_self, _totalChai);\n\n        // Transfer Dai + Interest\n        uint256 _receivedDai = dai.balanceOf(_self);\n        require(dai.transferFrom(_self, _to, _receivedDai), \"Failed to transfer Dai to User\");\n    }\n\n    function _payoutChargedDai(address _to, uint256 _totalDai) internal {\n        address _self = address(this);\n\n        // Collect Interest\n        chai.draw(_self, _totalDai);\n\n        // Transfer Interest\n        uint256 _receivedDai = dai.balanceOf(_self);\n        require(dai.transferFrom(_self, _to, _receivedDai), \"Failed to transfer Dai to User\");\n    }\n\n    function _totalChaiForToken(uint256 _tokenChai) internal returns (uint256) {\n        if (mintingFee == 0) { return _tokenChai; }\n        uint256 _mintFee = (_tokenChai * mintingFee) / FEE_BASE;\n        totalMintingFees = totalMintingFees.add(_mintFee);\n        return _tokenChai.sub(_mintFee);\n    }\n\n\n    //\n    // Unsupported Functions\n    //\n\n    function () external {\n        revert(\"ChargedParticles: INVALID_METHOD\");\n    }\n}\n",
  "sourcePath": "/Users/robsecord/workspace/Ethereum/ChargedParticles/ChargedParticlesEth/contracts/ChargedParticles.sol",
  "compiler": {
    "name": "solc",
    "version": "0.5.13+commit.5b0b510c.Emscripten.clang"
  },
  "schemaVersion": "3.0.11",
  "updatedAt": "2020-01-11T08:12:51.006Z",
  "devdoc": {
    "methods": {
      "getIDBinIndex(uint256)": {
        "params": {
          "_id": "Token id"
        },
        "return": "(Bin number, ID\"s index within that bin)"
      },
      "getNonce(address)": {
        "params": {
          "_signer": "Address to query signature nonce for"
        }
      },
      "getValueInBin(uint256,uint256)": {
        "params": {
          "_binValues": "uint256 containing the balances of IDS_PER_UINT256 ids",
          "_index": "Index at which to retrieve amount"
        },
        "return": "amount at given _index in _bin"
      },
      "isApprovedForAll(address,address)": {
        "params": {
          "_operator": "Address of authorized operator",
          "_owner": "The owner of the Tokens"
        },
        "return": "True if the operator is approved, false if not"
      },
      "isValidSignature(address,bytes32,bytes,bytes)": {
        "details": "Verifies that a hash has been signed by the given signer.",
        "params": {
          "_data": "Full EIP-712 data structure that was hashed and signed",
          "_hash": "Hash of the EIP-712 encoded data",
          "_sig": "Proof that the hash has been signed by signer.     For non wallet signatures, _sig is expected to be an array tightly encoded as     (bytes32 r, bytes32 s, uint8 v, uint256 nonce, SignatureType sigType)",
          "_signerAddress": "Address that should have signed the given hash."
        },
        "return": "True if the address recovered from the provided signature matches the input signer address."
      },
      "metaSafeBatchTransferFrom(address,address,uint256[],uint256[],bool,bytes)": {
        "params": {
          "_amounts": "Transfer amounts per token type",
          "_data": "Encodes a meta transfer indicator, signature, gas payment receipt and extra transfer data  _data should be encoded as (  (bytes32 r, bytes32 s, uint8 v, uint256 nonce, SignatureType sigType),  (GasReceipt g, ?bytes transferData) )  i.e. high level encoding should be (bytes, bytes), where the latter bytes array is a nested bytes array",
          "_from": "Source addresses",
          "_ids": "IDs of each token type",
          "_to": "Target addresses"
        }
      },
      "metaSafeTransferFrom(address,address,uint256,uint256,bool,bytes)": {
        "params": {
          "_amount": "Transfered amount",
          "_data": "Encodes a meta transfer indicator, signature, gas payment receipt and extra transfer data  _data should be encoded as (  (bytes32 r, bytes32 s, uint8 v, uint256 nonce, SignatureType sigType),  (GasReceipt g, ?bytes transferData) )  i.e. high level encoding should be (bytes, bytes), where the latter bytes array is a nested bytes array",
          "_from": "Source address",
          "_id": "ID of the token type",
          "_isGasFee": "Whether gas is reimbursed to executor or not",
          "_to": "Target address"
        }
      },
      "metaSetApprovalForAll(address,address,bool,bool,bytes)": {
        "params": {
          "_approved": "True if the operator is approved, false to revoke approval",
          "_data": "Encodes signature and gas payment receipt  _data should be encoded as (    (bytes32 r, bytes32 s, uint8 v, uint256 nonce, SignatureType sigType),    (GasReceipt g)  )  i.e. high level encoding should be (bytes, bytes), where the latter bytes array is a nested bytes array",
          "_isGasFee": "Whether gas will be reimbursed or not, with vlid signature",
          "_operator": "Address to add to the set of authorized operators",
          "_owner": "Address that wants to set operator status  _spender"
        }
      },
      "safeBatchTransferFrom(address,address,uint256[],uint256[],bytes)": {
        "details": "Arrays should be sorted so that all ids in a same storage slot are adjacent (more efficient)",
        "params": {
          "_amounts": "Transfer amounts per token type",
          "_data": "Additional data with no specified format, sent in call to `_to`",
          "_from": "Source addresses",
          "_ids": "IDs of each token type",
          "_to": "Target addresses"
        }
      },
      "safeTransferFrom(address,address,uint256,uint256,bytes)": {
        "params": {
          "_amount": "Transfered amount",
          "_data": "Additional data with no specified format, sent in call to `_to`",
          "_from": "Source address",
          "_id": "ID of the token type",
          "_to": "Target address"
        }
      },
      "setApprovalForAll(address,bool)": {
        "params": {
          "_approved": "True if the operator is approved, false to revoke approval",
          "_operator": "Address to add to the set of authorized operators"
        }
      },
      "supportsInterface(bytes4)": {
        "params": {
          "_interfaceID": "The interface identifier, as specified in ERC-165"
        },
        "return": "`true` if the contract implements `_interfaceID` and"
      },
      "transferOwnership(address)": {
        "params": {
          "_newOwner": "Address of the new owner"
        }
      },
      "uri(uint256)": {
        "details": "URIs are defined in RFC 3986.     URIs are assumed to be deterministically generated based on token ID     Token IDs are assumed to be represented in their hex format in URIs",
        "return": "URI string"
      }
    }
  },
  "userdoc": {
    "methods": {
      "getIDBinIndex(uint256)": {
        "notice": "Return the bin number and index within that bin where ID is"
      },
      "getNonce(address)": {
        "notice": "Returns the current nonce associated with a given address"
      },
      "getOwner()": {
        "notice": "Returns the address of the owner."
      },
      "getValueInBin(uint256,uint256)": {
        "notice": "Return amount in _binValues at position _index"
      },
      "isApprovedForAll(address,address)": {
        "notice": "Queries the approval status of an operator for a given owner"
      },
      "metaSafeBatchTransferFrom(address,address,uint256[],uint256[],bool,bytes)": {
        "notice": "Allows anyone with a valid signature to transfer multiple types of tokens on the bahalf of _from"
      },
      "metaSafeTransferFrom(address,address,uint256,uint256,bool,bytes)": {
        "notice": "Allows anyone with a valid signature to transfer _amount amount of a token _id on the bahalf of _from"
      },
      "metaSetApprovalForAll(address,address,bool,bool,bytes)": {
        "notice": "Approve the passed address to spend on behalf of _from if valid signature is provided"
      },
      "safeBatchTransferFrom(address,address,uint256[],uint256[],bytes)": {
        "notice": "Send multiple types of Tokens from the _from address to the _to address (with safety call)"
      },
      "safeTransferFrom(address,address,uint256,uint256,bytes)": {
        "notice": "Transfers amount amount of an _id from the _from address to the _to address specified"
      },
      "setApprovalForAll(address,bool)": {
        "notice": "Enable or disable approval for a third party (\"operator\") to manage all of caller's tokens"
      },
      "supportsInterface(bytes4)": {
        "notice": "Query if a contract implements an interface"
      },
      "transferOwnership(address)": {
        "notice": "Transfers the ownership of the contract to new address"
      },
      "uri(uint256)": {
        "notice": "A distinct Uniform Resource Identifier (URI) for a given token."
      }
    }
  }
}