{
  "contractName": "DevChai",
  "abi": [
    {
      "inputs": [],
      "payable": false,
      "stateMutability": "nonpayable",
      "type": "constructor"
    },
    {
      "constant": true,
      "inputs": [
        {
          "internalType": "address",
          "name": "",
          "type": "address"
        }
      ],
      "name": "balanceOf",
      "outputs": [
        {
          "internalType": "uint256",
          "name": "",
          "type": "uint256"
        }
      ],
      "payable": false,
      "stateMutability": "view",
      "type": "function"
    },
    {
      "constant": true,
      "inputs": [],
      "name": "decimals",
      "outputs": [
        {
          "internalType": "uint8",
          "name": "",
          "type": "uint8"
        }
      ],
      "payable": false,
      "stateMutability": "view",
      "type": "function"
    },
    {
      "constant": true,
      "inputs": [],
      "name": "name",
      "outputs": [
        {
          "internalType": "string",
          "name": "",
          "type": "string"
        }
      ],
      "payable": false,
      "stateMutability": "view",
      "type": "function"
    },
    {
      "constant": true,
      "inputs": [],
      "name": "symbol",
      "outputs": [
        {
          "internalType": "string",
          "name": "",
          "type": "string"
        }
      ],
      "payable": false,
      "stateMutability": "view",
      "type": "function"
    },
    {
      "constant": true,
      "inputs": [],
      "name": "totalSupply",
      "outputs": [
        {
          "internalType": "uint256",
          "name": "",
          "type": "uint256"
        }
      ],
      "payable": false,
      "stateMutability": "view",
      "type": "function"
    },
    {
      "constant": true,
      "inputs": [],
      "name": "version",
      "outputs": [
        {
          "internalType": "string",
          "name": "",
          "type": "string"
        }
      ],
      "payable": false,
      "stateMutability": "view",
      "type": "function"
    },
    {
      "constant": true,
      "inputs": [
        {
          "internalType": "uint256",
          "name": "chai",
          "type": "uint256"
        }
      ],
      "name": "dai",
      "outputs": [
        {
          "internalType": "uint256",
          "name": "wad",
          "type": "uint256"
        }
      ],
      "payable": false,
      "stateMutability": "pure",
      "type": "function"
    },
    {
      "constant": false,
      "inputs": [
        {
          "internalType": "address",
          "name": "dst",
          "type": "address"
        },
        {
          "internalType": "uint256",
          "name": "wad",
          "type": "uint256"
        }
      ],
      "name": "join",
      "outputs": [],
      "payable": false,
      "stateMutability": "nonpayable",
      "type": "function"
    },
    {
      "constant": false,
      "inputs": [
        {
          "internalType": "address",
          "name": "src",
          "type": "address"
        },
        {
          "internalType": "uint256",
          "name": "wad",
          "type": "uint256"
        }
      ],
      "name": "exit",
      "outputs": [],
      "payable": false,
      "stateMutability": "nonpayable",
      "type": "function"
    },
    {
      "constant": false,
      "inputs": [
        {
          "internalType": "address",
          "name": "src",
          "type": "address"
        },
        {
          "internalType": "uint256",
          "name": "wad",
          "type": "uint256"
        }
      ],
      "name": "draw",
      "outputs": [
        {
          "internalType": "uint256",
          "name": "chai",
          "type": "uint256"
        }
      ],
      "payable": false,
      "stateMutability": "nonpayable",
      "type": "function"
    }
  ],
  "bytecode": "0x608060405234801561001057600080fd5b506103ba806100206000396000f3fe608060405234801561001057600080fd5b506004361061009e5760003560e01c80634a03707c116100665780634a03707c146101a357806354fd4d50146101cf57806370a08231146101d757806395d89b41146101fd578063ef693bed146102055761009e565b806306fdde03146100a35780631043b2cb1461012057806318160ddd1461014f578063313ce567146101575780633b4da69f14610175575b600080fd5b6100ab610231565b6040805160208082528351818301528351919283929083019185019080838360005b838110156100e55781810151838201526020016100cd565b50505050905090810190601f1680156101125780820380516001836020036101000a031916815260200191505b509250505060405180910390f35b61013d6004803603602081101561013657600080fd5b5035610254565b60408051918252519081900360200190f35b61013d61025a565b61015f610260565b6040805160ff9092168252519081900360200190f35b6101a16004803603604081101561018b57600080fd5b506001600160a01b038135169060200135610265565b005b61013d600480360360408110156101b957600080fd5b506001600160a01b03813516906020013561028d565b6100ab61029e565b61013d600480360360208110156101ed57600080fd5b50356001600160a01b03166102bb565b6100ab6102cd565b6101a16004803603604081101561021b57600080fd5b506001600160a01b0381351690602001356102ee565b604051806040016040528060078152602001664465764368616960c81b81525081565b60010190565b60005481565b601281565b6001600160a01b03909116600090815260016020526040812080548301905580549091019055565b8061029883826102ee565b92915050565b604051806040016040528060018152602001603160f81b81525081565b60016020526000908152604090205481565b60405180604001604052806005815260200164444348414960d81b81525081565b6001600160a01b03821660009081526001602052604090205481111561035b576040805162461bcd60e51b815260206004820152601960248201527f636861692f696e73756666696369656e742d62616c616e636500000000000000604482015290519081900360640190fd5b6001600160a01b03909116600090815260016020526040812080548390039055805491909103905556fea265627a7a723158209b01fc5799cab91836445a20f86e1a5ba033a385f1f034a319c21cd011626f8864736f6c634300050d0032",
  "source": "\npragma solidity 0.5.13;\n\ncontract DevChai {\n    // --- ERC20 Data ---\n    string  public constant name     = \"DevChai\";\n    string  public constant symbol   = \"DCHAI\";\n    string  public constant version  = \"1\";\n    uint8   public constant decimals = 18;\n\n    uint256 public totalSupply;\n    mapping (address => uint) public balanceOf;\n\n    constructor() public {\n    }\n\n    function dai(uint chai) external pure returns (uint wad) {\n        wad = chai + 1;\n    }\n\n    // wad is denominated in dai\n    function join(address dst, uint wad) external {\n        balanceOf[dst] = balanceOf[dst] + wad;\n        totalSupply    = totalSupply + wad;\n    }\n\n    // wad is denominated in (1/chi) * dai\n    function exit(address src, uint wad) public {\n        require(balanceOf[src] >= wad, \"chai/insufficient-balance\");\n        balanceOf[src] = balanceOf[src] - wad;\n        totalSupply    = totalSupply - wad;\n    }\n\n    // wad is denominated in dai\n    function draw(address src, uint wad) external returns (uint chai) {\n        chai = wad;\n        exit(src, chai);\n    }\n}\n",
  "sourcePath": "/Users/robsecord/workspace/Ethereum/ChargedParticles/ChargedParticlesEth/contracts/DevChai.sol",
  "compiler": {
    "name": "solc",
    "version": "0.5.13+commit.5b0b510c.Emscripten.clang"
  },
  "schemaVersion": "3.0.23",
  "updatedAt": "2020-02-03T04:50:51.568Z",
  "devdoc": {
    "methods": {}
  },
  "userdoc": {
    "methods": {}
  }
}