{
  "contractName": "DevChai",
  "abi": [
    {
      "inputs": [],
      "payable": false,
      "stateMutability": "nonpayable",
      "type": "constructor"
    },
    {
      "constant": true,
      "inputs": [
        {
          "internalType": "address",
          "name": "",
          "type": "address"
        }
      ],
      "name": "balanceOf",
      "outputs": [
        {
          "internalType": "uint256",
          "name": "",
          "type": "uint256"
        }
      ],
      "payable": false,
      "stateMutability": "view",
      "type": "function"
    },
    {
      "constant": true,
      "inputs": [],
      "name": "decimals",
      "outputs": [
        {
          "internalType": "uint8",
          "name": "",
          "type": "uint8"
        }
      ],
      "payable": false,
      "stateMutability": "view",
      "type": "function"
    },
    {
      "constant": true,
      "inputs": [],
      "name": "name",
      "outputs": [
        {
          "internalType": "string",
          "name": "",
          "type": "string"
        }
      ],
      "payable": false,
      "stateMutability": "view",
      "type": "function"
    },
    {
      "constant": true,
      "inputs": [],
      "name": "symbol",
      "outputs": [
        {
          "internalType": "string",
          "name": "",
          "type": "string"
        }
      ],
      "payable": false,
      "stateMutability": "view",
      "type": "function"
    },
    {
      "constant": true,
      "inputs": [],
      "name": "totalSupply",
      "outputs": [
        {
          "internalType": "uint256",
          "name": "",
          "type": "uint256"
        }
      ],
      "payable": false,
      "stateMutability": "view",
      "type": "function"
    },
    {
      "constant": true,
      "inputs": [],
      "name": "version",
      "outputs": [
        {
          "internalType": "string",
          "name": "",
          "type": "string"
        }
      ],
      "payable": false,
      "stateMutability": "view",
      "type": "function"
    },
    {
      "constant": true,
      "inputs": [
        {
          "internalType": "uint256",
          "name": "_chai",
          "type": "uint256"
        }
      ],
      "name": "dai",
      "outputs": [
        {
          "internalType": "uint256",
          "name": "_wad",
          "type": "uint256"
        }
      ],
      "payable": false,
      "stateMutability": "pure",
      "type": "function"
    },
    {
      "constant": true,
      "inputs": [
        {
          "internalType": "uint256",
          "name": "_dai",
          "type": "uint256"
        }
      ],
      "name": "chai",
      "outputs": [
        {
          "internalType": "uint256",
          "name": "_pie",
          "type": "uint256"
        }
      ],
      "payable": false,
      "stateMutability": "pure",
      "type": "function"
    },
    {
      "constant": false,
      "inputs": [
        {
          "internalType": "address",
          "name": "_dst",
          "type": "address"
        },
        {
          "internalType": "uint256",
          "name": "_wad",
          "type": "uint256"
        }
      ],
      "name": "join",
      "outputs": [],
      "payable": false,
      "stateMutability": "nonpayable",
      "type": "function"
    },
    {
      "constant": false,
      "inputs": [
        {
          "internalType": "address",
          "name": "_src",
          "type": "address"
        },
        {
          "internalType": "uint256",
          "name": "_wad",
          "type": "uint256"
        }
      ],
      "name": "exit",
      "outputs": [],
      "payable": false,
      "stateMutability": "nonpayable",
      "type": "function"
    },
    {
      "constant": false,
      "inputs": [
        {
          "internalType": "address",
          "name": "_src",
          "type": "address"
        },
        {
          "internalType": "uint256",
          "name": "_wad",
          "type": "uint256"
        }
      ],
      "name": "draw",
      "outputs": [
        {
          "internalType": "uint256",
          "name": "_chai",
          "type": "uint256"
        }
      ],
      "payable": false,
      "stateMutability": "nonpayable",
      "type": "function"
    }
  ],
  "bytecode": "0x608060405234801561001057600080fd5b506103e9806100206000396000f3fe608060405234801561001057600080fd5b50600436106100a95760003560e01c80634a03707c116100715780634a03707c146101ae57806354fd4d50146101da57806365e988b8146101e257806370a08231146101ff57806395d89b4114610225578063ef693bed1461022d576100a9565b806306fdde03146100ae5780631043b2cb1461012b57806318160ddd1461015a578063313ce567146101625780633b4da69f14610180575b600080fd5b6100b6610259565b6040805160208082528351818301528351919283929083019185019080838360005b838110156100f05781810151838201526020016100d8565b50505050905090810190601f16801561011d5780820380516001836020036101000a031916815260200191505b509250505060405180910390f35b6101486004803603602081101561014157600080fd5b503561027c565b60408051918252519081900360200190f35b610148610283565b61016a610289565b6040805160ff9092168252519081900360200190f35b6101ac6004803603604081101561019657600080fd5b506001600160a01b03813516906020013561028e565b005b610148600480360360408110156101c457600080fd5b506001600160a01b0381351690602001356102b6565b6100b66102c7565b610148600480360360208110156101f857600080fd5b50356102e4565b6101486004803603602081101561021557600080fd5b50356001600160a01b03166102ea565b6100b66102fc565b6101ac6004803603604081101561024357600080fd5b506001600160a01b03813516906020013561031d565b604051806040016040528060078152602001664465764368616960c81b81525081565b6000190190565b60005481565b601281565b6001600160a01b03909116600090815260016020526040812080548301905580549091019055565b806102c1838261031d565b92915050565b604051806040016040528060018152602001603160f81b81525081565b60010190565b60016020526000908152604090205481565b60405180604001604052806005815260200164444348414960d81b81525081565b6001600160a01b03821660009081526001602052604090205481111561038a576040805162461bcd60e51b815260206004820152601960248201527f636861692f696e73756666696369656e742d62616c616e636500000000000000604482015290519081900360640190fd5b6001600160a01b03909116600090815260016020526040812080548390039055805491909103905556fea265627a7a72315820e4374536e2e60afb09bd0061f16fe6986112b12cc713eee53d35d19e54d70c6c64736f6c634300050d0032",
  "source": "\npragma solidity 0.5.13;\n\ncontract DevChai {\n    // --- ERC20 Data ---\n    string  public constant name     = \"DevChai\";\n    string  public constant symbol   = \"DCHAI\";\n    string  public constant version  = \"1\";\n    uint8   public constant decimals = 18;\n\n    uint256 public totalSupply;\n    mapping (address => uint) public balanceOf;\n\n    constructor() public {\n    }\n\n    function dai(uint _chai) external pure returns (uint _wad) {\n        _wad = _chai - 1;\n    }\n\n    function chai(uint _dai) external pure returns (uint _pie) {\n        _pie = _dai + 1;\n    }\n\n    // wad is denominated in dai\n    function join(address _dst, uint _wad) external {\n        balanceOf[_dst] = balanceOf[_dst] + _wad;\n        totalSupply     = totalSupply + _wad;\n    }\n\n    // wad is denominated in (1/chi) * dai\n    function exit(address _src, uint _wad) public {\n        require(balanceOf[_src] >= _wad, \"chai/insufficient-balance\");\n        balanceOf[_src] = balanceOf[_src] - _wad;\n        totalSupply     = totalSupply - _wad;\n    }\n\n    // wad is denominated in dai\n    function draw(address _src, uint _wad) external returns (uint _chai) {\n        _chai = _wad;\n        exit(_src, _chai);\n    }\n}\n",
  "sourcePath": "/Users/robsecord/workspace/Ethereum/ChargedParticles/ChargedParticlesEth/contracts/chai/DevChai.sol",
  "compiler": {
    "name": "solc",
    "version": "0.5.13+commit.5b0b510c.Emscripten.clang"
  },
  "schemaVersion": "3.0.23",
  "updatedAt": "2020-02-06T04:37:02.199Z",
  "devdoc": {
    "methods": {}
  },
  "userdoc": {
    "methods": {}
  }
}