{
  "contractName": "ERC1155",
  "abi": [
    {
      "anonymous": false,
      "inputs": [
        {
          "indexed": true,
          "internalType": "address",
          "name": "_owner",
          "type": "address"
        },
        {
          "indexed": true,
          "internalType": "address",
          "name": "_operator",
          "type": "address"
        },
        {
          "indexed": false,
          "internalType": "bool",
          "name": "_approved",
          "type": "bool"
        }
      ],
      "name": "ApprovalForAll",
      "type": "event"
    },
    {
      "anonymous": false,
      "inputs": [
        {
          "indexed": true,
          "internalType": "address",
          "name": "_operator",
          "type": "address"
        },
        {
          "indexed": true,
          "internalType": "address",
          "name": "_from",
          "type": "address"
        },
        {
          "indexed": true,
          "internalType": "address",
          "name": "_to",
          "type": "address"
        },
        {
          "indexed": false,
          "internalType": "uint256[]",
          "name": "_ids",
          "type": "uint256[]"
        },
        {
          "indexed": false,
          "internalType": "uint256[]",
          "name": "_amounts",
          "type": "uint256[]"
        }
      ],
      "name": "TransferBatch",
      "type": "event"
    },
    {
      "anonymous": false,
      "inputs": [
        {
          "indexed": true,
          "internalType": "address",
          "name": "_operator",
          "type": "address"
        },
        {
          "indexed": true,
          "internalType": "address",
          "name": "_from",
          "type": "address"
        },
        {
          "indexed": true,
          "internalType": "address",
          "name": "_to",
          "type": "address"
        },
        {
          "indexed": false,
          "internalType": "uint256",
          "name": "_id",
          "type": "uint256"
        },
        {
          "indexed": false,
          "internalType": "uint256",
          "name": "_amount",
          "type": "uint256"
        }
      ],
      "name": "TransferSingle",
      "type": "event"
    },
    {
      "anonymous": false,
      "inputs": [
        {
          "indexed": false,
          "internalType": "string",
          "name": "_uri",
          "type": "string"
        },
        {
          "indexed": true,
          "internalType": "uint256",
          "name": "_type",
          "type": "uint256"
        }
      ],
      "name": "URI",
      "type": "event"
    },
    {
      "constant": true,
      "inputs": [
        {
          "internalType": "uint256",
          "name": "_tokenId",
          "type": "uint256"
        }
      ],
      "name": "uri",
      "outputs": [
        {
          "internalType": "string",
          "name": "",
          "type": "string"
        }
      ],
      "payable": false,
      "stateMutability": "view",
      "type": "function"
    },
    {
      "constant": true,
      "inputs": [
        {
          "internalType": "bytes4",
          "name": "_interfaceID",
          "type": "bytes4"
        }
      ],
      "name": "supportsInterface",
      "outputs": [
        {
          "internalType": "bool",
          "name": "",
          "type": "bool"
        }
      ],
      "payable": false,
      "stateMutability": "view",
      "type": "function"
    },
    {
      "constant": true,
      "inputs": [
        {
          "internalType": "uint256",
          "name": "_tokenId",
          "type": "uint256"
        }
      ],
      "name": "ownerOf",
      "outputs": [
        {
          "internalType": "address",
          "name": "",
          "type": "address"
        }
      ],
      "payable": false,
      "stateMutability": "view",
      "type": "function"
    },
    {
      "constant": true,
      "inputs": [
        {
          "internalType": "address",
          "name": "_owner",
          "type": "address"
        },
        {
          "internalType": "uint256",
          "name": "_tokenId",
          "type": "uint256"
        }
      ],
      "name": "balanceOf",
      "outputs": [
        {
          "internalType": "uint256",
          "name": "",
          "type": "uint256"
        }
      ],
      "payable": false,
      "stateMutability": "view",
      "type": "function"
    },
    {
      "constant": true,
      "inputs": [
        {
          "internalType": "address[]",
          "name": "_owners",
          "type": "address[]"
        },
        {
          "internalType": "uint256[]",
          "name": "_tokenIds",
          "type": "uint256[]"
        }
      ],
      "name": "balanceOfBatch",
      "outputs": [
        {
          "internalType": "uint256[]",
          "name": "",
          "type": "uint256[]"
        }
      ],
      "payable": false,
      "stateMutability": "view",
      "type": "function"
    },
    {
      "constant": false,
      "inputs": [
        {
          "internalType": "address",
          "name": "_operator",
          "type": "address"
        },
        {
          "internalType": "bool",
          "name": "_approved",
          "type": "bool"
        }
      ],
      "name": "setApprovalForAll",
      "outputs": [],
      "payable": false,
      "stateMutability": "nonpayable",
      "type": "function"
    },
    {
      "constant": true,
      "inputs": [
        {
          "internalType": "address",
          "name": "_owner",
          "type": "address"
        },
        {
          "internalType": "address",
          "name": "_operator",
          "type": "address"
        }
      ],
      "name": "isApprovedForAll",
      "outputs": [
        {
          "internalType": "bool",
          "name": "isOperator",
          "type": "bool"
        }
      ],
      "payable": false,
      "stateMutability": "view",
      "type": "function"
    },
    {
      "constant": false,
      "inputs": [
        {
          "internalType": "address",
          "name": "_from",
          "type": "address"
        },
        {
          "internalType": "address",
          "name": "_to",
          "type": "address"
        },
        {
          "internalType": "uint256",
          "name": "_id",
          "type": "uint256"
        },
        {
          "internalType": "uint256",
          "name": "_amount",
          "type": "uint256"
        },
        {
          "internalType": "bytes",
          "name": "_data",
          "type": "bytes"
        }
      ],
      "name": "safeTransferFrom",
      "outputs": [],
      "payable": false,
      "stateMutability": "nonpayable",
      "type": "function"
    },
    {
      "constant": false,
      "inputs": [
        {
          "internalType": "address",
          "name": "_from",
          "type": "address"
        },
        {
          "internalType": "address",
          "name": "_to",
          "type": "address"
        },
        {
          "internalType": "uint256[]",
          "name": "_ids",
          "type": "uint256[]"
        },
        {
          "internalType": "uint256[]",
          "name": "_amounts",
          "type": "uint256[]"
        },
        {
          "internalType": "bytes",
          "name": "_data",
          "type": "bytes"
        }
      ],
      "name": "safeBatchTransferFrom",
      "outputs": [],
      "payable": false,
      "stateMutability": "nonpayable",
      "type": "function"
    }
  ],
  "bytecode": "0x608060405234801561001057600080fd5b506114bb806100206000396000f3fe608060405234801561001057600080fd5b50600436106100925760003560e01c80634e1273f4116100665780634e1273f4146101155780636352211e14610135578063a22cb46514610155578063e985e9c514610168578063f242432a1461017b57610092565b8062fdd58e1461009757806301ffc9a7146100c05780630e89341c146100e05780632eb2c2d614610100575b600080fd5b6100aa6100a5366004610e57565b61018e565b6040516100b7919061130b565b60405180910390f35b6100d36100ce366004610ee6565b610213565b6040516100b7919061129c565b6100f36100ee366004610f2a565b61025a565b6040516100b791906112aa565b61011361010e366004610d13565b6102b1565b005b610128610123366004610e87565b610338565b6040516100b79190611266565b610148610143366004610f2a565b6104a9565b6040516100b791906111b1565b610113610163366004610e27565b6104ec565b6100d3610176366004610cd9565b61055b565b610113610189366004610dd0565b610589565b6000600160ff1b8083161480156101ad57506001600160801b03821615155b156101e7576000828152600360205260409020546001600160a01b038481169116146101da5760006101dd565b60015b60ff16905061020d565b506001600160a01b03821660009081526001602090815260408083208484529091529020545b92915050565b60006001600160e01b031982166301ffc9a760e01b148061024457506001600160e01b03198216636cdb3d1360e11b145b1561025157506001610255565b5060005b919050565b6fffffffffffffffffffffffffffffffff19811660008181526005602052604090206060919061028984610600565b60405160200161029a92919061118e565b604051602081830303815290604052915050919050565b336001600160a01b03861614806102cd57506102cd853361055b565b6102f25760405162461bcd60e51b81526004016102e9906112db565b60405180910390fd5b6001600160a01b0384166103185760405162461bcd60e51b81526004016102e9906112eb565b610324858585856106c3565b610331858585858561085d565b5050505050565b6060815183511461035b5760405162461bcd60e51b81526004016102e9906112cb565b60608351604051908082528060200260200182016040528015610388578160200160208202803883390190505b50905060005b84518110156104a15760008482815181106103a557fe5b60200260200101519050600160ff1b8082161480156103cc57506001600160801b03811615155b15610435578582815181106103dd57fe5b602090810291909101810151600083815260039092526040909120546001600160a01b03908116911614610412576000610415565b60015b60ff1683838151811061042457fe5b602002602001018181525050610498565b6001600087848151811061044557fe5b60200260200101516001600160a01b03166001600160a01b0316815260200190815260200160002060008281526020019081526020016000205483838151811061048b57fe5b6020026020010181815250505b5060010161038e565b509392505050565b6000600160ff1b808316146104d05760405162461bcd60e51b81526004016102e9906112bb565b506000908152600360205260409020546001600160a01b031690565b3360008181526002602090815260408083206001600160a01b038716808552925291829020805460ff191685151517905590519091907f17307eab39ab6107e8899845ad3d59bd9653f200f220920489ca2b5937696c319061054f90859061129c565b60405180910390a35050565b6001600160a01b03918216600090815260026020908152604080832093909416825291909152205460ff1690565b336001600160a01b03861614806105a557506105a5853361055b565b6105c15760405162461bcd60e51b81526004016102e9906112db565b6001600160a01b0384166105e75760405162461bcd60e51b81526004016102e9906112eb565b6105f38585858561092e565b6103318585858585610a61565b60608161062557506040805180820190915260018152600360fc1b6020820152610255565b818060005b821561063e57600101600a8304925061062a565b6060816040519080825280601f01601f19166020018201604052801561066b576020820181803883390190505b50905060001982015b83156106b957600a840660300160f81b8282806001900393508151811061069757fe5b60200101906001600160f81b031916908160001a905350600a84049350610674565b5095945050505050565b80518251146106e45760405162461bcd60e51b81526004016102e9906112cb565b81516000908190815b818110156107fc5785818151811061070157fe5b6020026020010151935084818151811061071757fe5b60200260200101519250600160ff1b8085161415610781576000848152600360205260409020546001600160a01b0389811691161461075557600080fd5b600084815260036020526040902080546001600160a01b0319166001600160a01b0389161790556107f4565b6001600160a01b03881660009081526001602090815260408083208784529091529020548311156107b157600080fd5b6001600160a01b038881166000908152600160208181526040808420898552825280842080548990039055938b1683529081528282208783529052208054840190555b6001016106ed565b50856001600160a01b0316876001600160a01b0316336001600160a01b03167f4a39dc06d4c0dbc64b70af90fd698a233a518aa5d07e595d983b8c0526c8f7fb888860405161084c929190611277565b60405180910390a450505050505050565b61086684610b2a565b156103315760405163bc197c8160e01b81526000906001600160a01b0386169063bc197c81906108a29033908a908990899089906004016111bf565b602060405180830381600087803b1580156108bc57600080fd5b505af11580156108d0573d6000803e3d6000fd5b505050506040513d601f19601f820116820180604052506108f49190810190610f0c565b90506001600160e01b0319811663bc197c8160e01b146109265760405162461bcd60e51b81526004016102e9906112fb565b505050505050565b600160ff1b8083161415610991576000828152600360205260409020546001600160a01b0385811691161461096257600080fd5b50600081815260036020526040902080546001600160a01b0319166001600160a01b0384161790556001610a04565b6001600160a01b03841660009081526001602090815260408083208584529091529020548111156109c157600080fd5b6001600160a01b03848116600090815260016020818152604080842087855282528084208054879003905593871683529081528282208583529052208054820190555b826001600160a01b0316846001600160a01b0316336001600160a01b03167fc3d58168c5ae7397731d063d5bbf3d657854427343f4c083240f7aacaa2d0f628585604051610a53929190611319565b60405180910390a450505050565b610a6a84610b2a565b156103315760405163f23a6e6160e01b81526000906001600160a01b0386169063f23a6e6190610aa69033908a9089908990899060040161121f565b602060405180830381600087803b158015610ac057600080fd5b505af1158015610ad4573d6000803e3d6000fd5b505050506040513d601f19601f82011682018060405250610af89190810190610f0c565b90506001600160e01b0319811663f23a6e6160e01b146109265760405162461bcd60e51b81526004016102e9906112fb565b6000813f8015801590610b5d57507fc5d2460186f7233c927e7db2dcc703c0e500b653ca82273b7bfad8045d85a4708114155b9392505050565b803561020d81611446565b600082601f830112610b8057600080fd5b8135610b93610b8e8261135b565b611334565b91508181835260208401935060208101905083856020840282011115610bb857600080fd5b60005b83811015610be45781610bce8882610b64565b8452506020928301929190910190600101610bbb565b5050505092915050565b600082601f830112610bff57600080fd5b8135610c0d610b8e8261135b565b91508181835260208401935060208101905083856020840282011115610c3257600080fd5b60005b83811015610be45781610c488882610cce565b8452506020928301929190910190600101610c35565b803561020d8161145d565b803561020d81611466565b805161020d81611466565b600082601f830112610c9057600080fd5b8135610c9e610b8e8261137c565b91508082526020830160208301858383011115610cba57600080fd5b610cc5838284611400565b50505092915050565b803561020d8161146f565b60008060408385031215610cec57600080fd5b6000610cf88585610b64565b9250506020610d0985828601610b64565b9150509250929050565b600080600080600060a08688031215610d2b57600080fd5b6000610d378888610b64565b9550506020610d4888828901610b64565b945050604086013567ffffffffffffffff811115610d6557600080fd5b610d7188828901610bee565b935050606086013567ffffffffffffffff811115610d8e57600080fd5b610d9a88828901610bee565b925050608086013567ffffffffffffffff811115610db757600080fd5b610dc388828901610c7f565b9150509295509295909350565b600080600080600060a08688031215610de857600080fd5b6000610df48888610b64565b9550506020610e0588828901610b64565b9450506040610e1688828901610cce565b9350506060610d9a88828901610cce565b60008060408385031215610e3a57600080fd5b6000610e468585610b64565b9250506020610d0985828601610c5e565b60008060408385031215610e6a57600080fd5b6000610e768585610b64565b9250506020610d0985828601610cce565b60008060408385031215610e9a57600080fd5b823567ffffffffffffffff811115610eb157600080fd5b610ebd85828601610b6f565b925050602083013567ffffffffffffffff811115610eda57600080fd5b610d0985828601610bee565b600060208284031215610ef857600080fd5b6000610f048484610c69565b949350505050565b600060208284031215610f1e57600080fd5b6000610f048484610c74565b600060208284031215610f3c57600080fd5b6000610f048484610cce565b6000610f548383611185565b505060200190565b610f65816113ef565b82525050565b610f65816113c3565b6000610f7f826113b6565b610f8981856113ba565b9350610f94836113a4565b8060005b83811015610fc2578151610fac8882610f48565b9750610fb7836113a4565b925050600101610f98565b509495945050505050565b610f65816113ce565b6000610fe1826113b6565b610feb81856113ba565b9350610ffb81856020860161140c565b6110048161143c565b9093019392505050565b6000611019826113b6565b6110238185610255565b935061103381856020860161140c565b9290920192915050565b60008154600181166000811461105a576001811461107d576110bc565b607f600283041661106b8187610255565b60ff19841681529550850192506110bc565b6002820461108b8187610255565b9550611096856113aa565b60005b828110156110b557815488820152600190910190602001611099565b5050850192505b505092915050565b60006110d1600583610255565b64173539b7b760d91b815260050192915050565b60006110f26004836113ba565b63114ccc0d60e21b815260200192915050565b60006111126004836113ba565b634533303360e01b815260200192915050565b60006111326004836113ba565b634533303560e01b815260200192915050565b60006111526004836113ba565b634533303160e01b815260200192915050565b60006111726004836113ba565b632299981960e11b815260200192915050565b610f65816113ec565b600061119a828561103d565b91506111a6828461100e565b9150610f04826110c4565b6020810161020d8284610f6b565b60a081016111cd8288610f5c565b6111da6020830187610f6b565b81810360408301526111ec8186610f74565b905081810360608301526112008185610f74565b905081810360808301526112148184610fd6565b979650505050505050565b60a0810161122d8288610f5c565b61123a6020830187610f6b565b6112476040830186611185565b6112546060830185611185565b81810360808301526112148184610fd6565b60208082528101610b5d8184610f74565b604080825281016112888185610f74565b90508181036020830152610f048184610f74565b6020810161020d8284610fcd565b60208082528101610b5d8184610fd6565b6020808252810161020d816110e5565b6020808252810161020d81611105565b6020808252810161020d81611125565b6020808252810161020d81611145565b6020808252810161020d81611165565b6020810161020d8284611185565b604081016113278285611185565b610b5d6020830184611185565b60405181810167ffffffffffffffff8111828210171561135357600080fd5b604052919050565b600067ffffffffffffffff82111561137257600080fd5b5060209081020190565b600067ffffffffffffffff82111561139357600080fd5b506020601f91909101601f19160190565b60200190565b60009081526020902090565b5190565b90815260200190565b600061020d826113e0565b151590565b6001600160e01b03191690565b6001600160a01b031690565b90565b600061020d82600061020d826113c3565b82818337506000910152565b60005b8381101561142757818101518382015260200161140f565b83811115611436576000848401525b50505050565b601f01601f191690565b61144f816113c3565b811461145a57600080fd5b50565b61144f816113ce565b61144f816113d3565b61144f816113ec56fea365627a7a72315820667a2275facee3e6fad64377bcec5b2036c9df0bca5e28647ad92b547022b9216c6578706572696d656e74616cf564736f6c634300050d0040",
  "source": "// ChargedParticlesERC1155.sol -- Interest-bearing NFTs based on the DAI Savings Token\n// Copyright (C) 2020 robsecord.eth\n\n// This program is free software: you can redistribute it and/or modify\n// it under the terms of the GNU Affero General Public License as published by\n// the Free Software Foundation, either version 3 of the License, or\n// (at your option) any later version.\n//\n// This program is distributed in the hope that it will be useful,\n// but WITHOUT ANY WARRANTY; without even the implied warranty of\n// MERCHANTABILITY or FITNESS FOR A PARTICULAR PURPOSE.  See the\n// GNU Affero General Public License for more details.\n//\n// You should have received a copy of the GNU Affero General Public License\n// along with this program.  If not, see <https://www.gnu.org/licenses/>.\n\npragma solidity ^0.5.13;\npragma experimental ABIEncoderV2;\n\n// ERROR CODES:\n//  100:        ADDRESS, OWNER, OPERATOR\n//      101         Invalid Address\n//      102         Sender is not owner\n//      103         Sender is not owner or operator\n//  200:        MATH\n//      201         Underflow\n//      202         Overflow\n//  300:        ERC1155\n//      301         Invalid Recipient\n//      302         Invalid on-received message\n//      303         Invalid arrays length\n//      304         Invalid type\n//      305         Invalid owner/operator\n//      306         Insufficient balance\n//      307         Invalid URI for Type\n//  400:        ChargedParticles\n//      401         Invalid Method\n//      402         Unregistered Type\n//      403         Particle has no Charge\n//      404         Insufficient ETH Balance\n//      405         Insufficient DAI Balance\n//      406         Invalid value for \"requiredDai\" parameter\n//      407         No access to Mint (Private Type)\n//      408         Transfer Failed\n\n/**\n * @title Chai.money interface\n * @dev https://github.com/dapphub/chai\n */\ncontract IChai {\n    function transfer(address dst, uint wad) external returns (bool);\n    // like transferFrom but dai-denominated\n    function move(address src, address dst, uint wad) external returns (bool);\n    function transferFrom(address src, address dst, uint wad) public returns (bool);\n    function approve(address usr, uint wad) external returns (bool);\n    function balanceOf(address usr) external returns (uint);\n\n    // Approve by signature\n    function permit(address holder, address spender, uint256 nonce, uint256 expiry, bool allowed, uint8 v, bytes32 r, bytes32 s) external;\n\n    function dai(address usr) external returns (uint wad);\n    function dai(uint chai) external returns (uint wad);\n\n    // wad is denominated in dai\n    function join(address dst, uint wad) external;\n\n    // wad is denominated in (1/chi) * dai\n    function exit(address src, uint wad) public;\n\n    // wad is denominated in dai\n    function draw(address src, uint wad) external returns (uint chai);\n}\n\n/**\n * @title ERC165\n * @dev https://github.com/ethereum/EIPs/blob/master/EIPS/eip-165.md\n */\ninterface IERC165 {\n    function supportsInterface(bytes4 _interfaceId) external view returns (bool);\n}\n\n/**\n * @title ERC20 interface\n * @dev see https://eips.ethereum.org/EIPS/eip-20\n */\ninterface IERC20 {\n    function transfer(address to, uint256 value) external returns (bool);\n    function approve(address spender, uint256 value) external returns (bool);\n    function transferFrom(address from, address to, uint256 value) external returns (bool);\n    function totalSupply() external view returns (uint256);\n    function balanceOf(address who) external view returns (uint256);\n    function allowance(address owner, address spender) external view returns (uint256);\n    event Transfer(address indexed from, address indexed to, uint256 value);\n    event Approval(address indexed owner, address indexed spender, uint256 value);\n}\n\n/**\n * @title ERC1155 interface\n * @dev see https://github.com/ethereum/EIPs/blob/master/EIPS/eip-1155.md\n */\ninterface IERC1155 {\n    function safeTransferFrom(address _from, address _to, uint256 _id, uint256 _amount, bytes calldata _data) external;\n    function safeBatchTransferFrom(address _from, address _to, uint256[] calldata _ids, uint256[] calldata _amounts, bytes calldata _data) external;\n    function balanceOf(address _owner, uint256 _id) external view returns (uint256);\n    function balanceOfBatch(address[] calldata _owners, uint256[] calldata _ids) external view returns (uint256[] memory);\n    function setApprovalForAll(address _operator, bool _approved) external;\n    function isApprovedForAll(address _owner, address _operator) external view returns (bool isOperator);\n    event TransferSingle(address indexed _operator, address indexed _from, address indexed _to, uint256 _id, uint256 _amount);\n    event TransferBatch(address indexed _operator, address indexed _from, address indexed _to, uint256[] _ids, uint256[] _amounts);\n    event ApprovalForAll(address indexed _owner, address indexed _operator, bool _approved);\n    event URI(string _amount, uint256 indexed _id);\n}\n\n/**\n * @dev ERC-1155 interface for accepting safe transfers.\n */\ninterface IERC1155TokenReceiver {\n    function onERC1155Received(address _operator, address _from, uint256 _id, uint256 _amount, bytes calldata _data) external returns(bytes4);\n    function onERC1155BatchReceived(address _operator, address _from, uint256[] calldata _ids, uint256[] calldata _amounts, bytes calldata _data) external returns(bytes4);\n    function supportsInterface(bytes4 interfaceID) external view returns (bool);\n}\n\n///**\n// * @title SafeMath\n// * @dev Unsigned math operations with safety checks that revert on error\n// */\n//library SafeMath {\n//\n//    function sub(uint256 a, uint256 b) internal pure returns (uint256) {\n//        require(b <= a, \"E201\");\n//        uint256 c = a - b;\n//\n//        return c;\n//    }\n//\n//    function add(uint256 a, uint256 b) internal pure returns (uint256) {\n//        uint256 c = a + b;\n//        require(c >= a, \"E202\");\n//\n//        return c;\n//    }\n//}\n\n/**\n * @dev Implementation of ERC1155 Multi-Token Standard contract\n * @dev see node_modules/multi-token-standard/contracts/tokens/ERC1155/ERC1155.sol\n */\ncontract ERC1155 is IERC165 {\n//    using SafeMath for uint256;\n\n    uint256 constant internal TYPE_MASK = uint256(uint128(~0)) << 128;\n    uint256 constant internal NF_INDEX_MASK = uint128(~0);\n    uint256 constant internal TYPE_NF_BIT = 1 << 255;\n    bytes32 constant internal ACCOUNT_HASH = 0xc5d2460186f7233c927e7db2dcc703c0e500b653ca82273b7bfad8045d85a470;\n    bytes4 constant internal INTERFACE_SIGNATURE_ERC165 = 0x01ffc9a7;\n    bytes4 constant internal INTERFACE_SIGNATURE_ERC1155 = 0xd9b67a26;\n    bytes4 constant internal ERC1155_RECEIVED_VALUE = 0xf23a6e61;\n    bytes4 constant internal ERC1155_BATCH_RECEIVED_VALUE = 0xbc197c81;\n\n    uint256 internal nonce;\n    mapping (address => mapping(uint256 => uint256)) internal balances;\n    mapping (address => mapping(address => bool)) internal operators;\n    mapping (uint256 => address) internal nfOwners;\n    mapping (uint256 => uint256) internal maxIndex;\n    mapping (uint256 => string) internal tokenUri;\n\n    event TransferSingle(address indexed _operator, address indexed _from, address indexed _to, uint256 _id, uint256 _amount);\n    event TransferBatch(address indexed _operator, address indexed _from, address indexed _to, uint256[] _ids, uint256[] _amounts);\n    event ApprovalForAll(address indexed _owner, address indexed _operator, bool _approved);\n    event URI(string _uri, uint256 indexed _type);\n\n    function uri(uint256 _tokenId) public view returns (string memory) {\n        uint256 _type = _tokenId & TYPE_MASK;\n        return string(abi.encodePacked(tokenUri[_type], _uint2str(_tokenId), \".json\"));\n    }\n\n    function supportsInterface(bytes4 _interfaceID) external view returns (bool) {\n        if (_interfaceID == INTERFACE_SIGNATURE_ERC165 ||\n        _interfaceID == INTERFACE_SIGNATURE_ERC1155) {\n            return true;\n        }\n        return false;\n    }\n\n    function ownerOf(uint256 _tokenId) public view returns (address) {\n        require(_tokenId & TYPE_NF_BIT == TYPE_NF_BIT, \"E304\");\n        return nfOwners[_tokenId];\n    }\n\n    function balanceOf(address _owner, uint256 _tokenId) public view returns (uint256) {\n        if ((_tokenId & TYPE_NF_BIT == TYPE_NF_BIT) && (_tokenId & NF_INDEX_MASK != 0)) {  // Non-Fungible Item\n            return nfOwners[_tokenId] == _owner ? 1 : 0;\n        }\n        return balances[_owner][_tokenId];\n    }\n\n    function balanceOfBatch(address[] memory _owners, uint256[] memory _tokenIds) public view returns (uint256[] memory) {\n        require(_owners.length == _tokenIds.length, \"E303\");\n\n        uint256[] memory _balances = new uint256[](_owners.length);\n        for (uint256 i = 0; i < _owners.length; ++i) {\n            uint256 id = _tokenIds[i];\n            if ((id & TYPE_NF_BIT == TYPE_NF_BIT) && (id & NF_INDEX_MASK != 0)) { // Non-Fungible Item\n                _balances[i] = nfOwners[id] == _owners[i] ? 1 : 0;\n            } else {\n                _balances[i] = balances[_owners[i]][id];\n            }\n        }\n\n        return _balances;\n    }\n\n    function setApprovalForAll(address _operator, bool _approved) external {\n        operators[msg.sender][_operator] = _approved;\n        emit ApprovalForAll(msg.sender, _operator, _approved);\n    }\n\n    function isApprovedForAll(address _owner, address _operator) public view returns (bool isOperator) {\n        return operators[_owner][_operator];\n    }\n\n    function safeTransferFrom(address _from, address _to, uint256 _id, uint256 _amount, bytes memory _data) public {\n        require((msg.sender == _from) || isApprovedForAll(_from, msg.sender), \"E305\");\n        require(_to != address(0),\"E301\");\n\n        _safeTransferFrom(_from, _to, _id, _amount);\n        _callonERC1155Received(_from, _to, _id, _amount, _data);\n    }\n\n    function safeBatchTransferFrom(address _from, address _to, uint256[] memory _ids, uint256[] memory _amounts, bytes memory _data) public {\n        require((msg.sender == _from) || isApprovedForAll(_from, msg.sender), \"E305\");\n        require(_to != address(0),\"E301\");\n\n        _safeBatchTransferFrom(_from, _to, _ids, _amounts);\n        _callonERC1155BatchReceived(_from, _to, _ids, _amounts, _data);\n    }\n\n    function _safeTransferFrom(address _from, address _to, uint256 _id, uint256 _amount) internal {\n        // Non-Fungible\n        if (_id & TYPE_NF_BIT == TYPE_NF_BIT) {\n            require(nfOwners[_id] == _from);\n            nfOwners[_id] = _to;\n            _amount = 1;\n        }\n        // Fungible\n        else {\n            require(_amount <= balances[_from][_id]);\n            //        balances[_from][_id] = balances[_from][_id].sub(_amount); // Subtract amount\n            //        balances[_to][_id] = balances[_to][_id].add(_amount);     // Add amount\n            balances[_from][_id] = balances[_from][_id] - _amount; // Subtract amount\n            balances[_to][_id] = balances[_to][_id] + _amount;     // Add amount\n        }\n\n        // Emit event\n        emit TransferSingle(msg.sender, _from, _to, _id, _amount);\n    }\n\n    function _safeBatchTransferFrom(address _from, address _to, uint256[] memory _ids, uint256[] memory _amounts) internal {\n        require(_ids.length == _amounts.length, \"E303\");\n\n        uint256 id;\n        uint256 amount;\n        uint256 nTransfer = _ids.length;\n        for (uint256 i = 0; i < nTransfer; ++i) {\n            id = _ids[i];\n            amount = _amounts[i];\n\n            if (id & TYPE_NF_BIT == TYPE_NF_BIT) { // Non-Fungible\n                require(nfOwners[id] == _from);\n                nfOwners[id] = _to;\n            } else {\n                require(amount <= balances[_from][id]);\n                //            balances[_from][id] = balances[_from][id].sub(_amount);\n                //            balances[_to][id] = balances[_to][id].add(_amount);\n                balances[_from][id] = balances[_from][id] - amount;\n                balances[_to][id] = balances[_to][id] + amount;\n            }\n        }\n\n        emit TransferBatch(msg.sender, _from, _to, _ids, _amounts);\n    }\n\n    function _callonERC1155Received(address _from, address _to, uint256 _id, uint256 _amount, bytes memory _data) internal {\n        // Check if recipient is contract\n        if (isContract(_to)) {\n            bytes4 retval = IERC1155TokenReceiver(_to).onERC1155Received(msg.sender, _from, _id, _amount, _data);\n            require(retval == ERC1155_RECEIVED_VALUE, \"E302\");\n        }\n    }\n\n    function _callonERC1155BatchReceived(address _from, address _to, uint256[] memory _ids, uint256[] memory _amounts, bytes memory _data) internal {\n        // Pass data if recipient is contract\n        if (isContract(_to)) {\n            bytes4 retval = IERC1155TokenReceiver(_to).onERC1155BatchReceived(msg.sender, _from, _ids, _amounts, _data);\n            require(retval == ERC1155_BATCH_RECEIVED_VALUE, \"E302\");\n        }\n    }\n\n    function _createType(string memory _uri, bool _isNF) internal returns (uint256 _type) {\n        require(bytes(_uri).length > 0, \"E307\");\n\n        _type = (++nonce << 128);\n        if (_isNF) {\n            _type = _type | TYPE_NF_BIT;\n        }\n        tokenUri[_type] = _uri;\n\n        // emit a Transfer event with Create semantic to help with discovery.\n        emit TransferSingle(msg.sender, address(0x0), address(0x0), _type, 0);\n        emit URI(_uri, _type);\n    }\n\n    function _mint(address _to, uint256 _type, uint256 _amount, bytes memory _data) internal returns (uint256) {\n        uint256 _tokenId;\n\n        // Non-fungible\n        if (_type & TYPE_NF_BIT == TYPE_NF_BIT) {\n            uint256 index = maxIndex[_type] + 1;\n            maxIndex[_type] = index;\n\n            _tokenId  = _type | index;\n            nfOwners[_tokenId] = _to;\n            _amount = 1;\n        }\n\n        // Fungible\n        else {\n            _tokenId = _type;\n            maxIndex[_type] = maxIndex[_type] + _amount;\n            balances[_to][_type] = balances[_to][_type] + _amount;\n            //        balances[_to][_type] = balances[_to][_type].add(_amount);\n        }\n\n        emit TransferSingle(msg.sender, address(0x0), _to, _tokenId, _amount);\n        _callonERC1155Received(address(0x0), _to, _tokenId, _amount, _data);\n\n        return _tokenId;\n    }\n\n    function _mintBatch(address _to, uint256[] memory _types, uint256[] memory _amounts, bytes memory _data) internal returns (uint256[] memory) {\n        require(_types.length == _amounts.length, \"E303\");\n        uint256 _type;\n        uint256 _amount;\n        uint256 _index;\n        uint256 _tokenId;\n        uint256 _count = _types.length;\n\n        uint256[] memory _tokenIds = new uint256[](_count);\n\n        for (uint256 i = 0; i < _count; i++) {\n            _type = _types[i];\n            _amount = _amounts[i];\n\n            // Non-fungible\n            if (_type & TYPE_NF_BIT == TYPE_NF_BIT) {\n                _index = maxIndex[_type] + 1;\n                maxIndex[_type] = _index;\n\n                _tokenId  = _type | _index;\n                nfOwners[_tokenId] = _to;\n                _tokenIds[i] = _tokenId;\n                _amounts[i] = 1;\n            }\n\n            // Fungible\n            else {\n                _tokenIds[i] = _type;\n                maxIndex[_type] = maxIndex[_type] + _amount;\n                balances[_to][_type] = balances[_to][_type] + _amount;\n                //            balances[_to][_types[i]] = balances[_to][_types[i]].add(_amounts[i]);\n            }\n        }\n\n        emit TransferBatch(msg.sender, address(0x0), _to, _tokenIds, _amounts);\n        _callonERC1155BatchReceived(address(0x0), _to, _tokenIds, _amounts, _data);\n\n        return _tokenIds;\n    }\n\n    function _burn(address _from, uint256 _tokenId, uint256 _amount) internal {\n        // Non-fungible\n        if (_tokenId & TYPE_NF_BIT == TYPE_NF_BIT) {\n            require(ownerOf(_tokenId) == _from, \"E305\");\n            nfOwners[_tokenId] = address(0x0);\n            _amount = 1;\n        }\n\n        // Fungible\n        else {\n            require(balanceOf(_from, _tokenId) >= _amount, \"E306\");\n            maxIndex[_tokenId] = maxIndex[_tokenId] - _amount;\n            balances[_from][_tokenId] = balances[_from][_tokenId] - _amount;\n            //        balances[_from][_tokenId] = balances[_from][_tokenId].sub(_amount);\n        }\n\n        emit TransferSingle(msg.sender, _from, address(0x0), _tokenId, _amount);\n    }\n\n    function _burnBatch(address _from, uint256[] memory _tokenIds, uint256[] memory _amounts) internal {\n        require(_tokenIds.length == _amounts.length, \"E303\");\n\n        uint256 _amount;\n        uint256 _tokenId;\n        uint256 _count = _tokenIds.length;\n        for (uint256 i = 0; i < _count; i++) {\n            _tokenId = _tokenIds[i];\n            _amount = _amounts[i];\n\n            // Non-fungible\n            if (_tokenId & TYPE_NF_BIT == TYPE_NF_BIT) {\n                require(ownerOf(_tokenId) == _from, \"E305\");\n                nfOwners[_tokenId] = address(0x0);\n                _amounts[i] = 1;\n            }\n\n            // Fungible\n            else {\n                require(balanceOf(_from, _tokenId) >= _amount, \"E306\");\n                maxIndex[_tokenId] = maxIndex[_tokenId] - _amount;\n                balances[_from][_tokenId] = balances[_from][_tokenId] - _amount;\n                //            balances[_from][_tokenId] = balances[_from][_tokenId].sub(_amount);\n            }\n        }\n\n        emit TransferBatch(msg.sender, _from, address(0x0), _tokenIds, _amounts);\n    }\n\n    //    function isNonFungible(uint256 _id) public pure returns(bool) {\n    //        return _id & TYPE_NF_BIT == TYPE_NF_BIT;\n    //    }\n    //    function isFungible(uint256 _id) public pure returns(bool) {\n    //        return _id & TYPE_NF_BIT == 0;\n    //    }\n    //    function getNonFungibleIndex(uint256 _id) public pure returns(uint256) {\n    //        return _id & NF_INDEX_MASK;\n    //    }\n    //    function getNonFungibleBaseType(uint256 _id) public pure returns(uint256) {\n    //        return _id & TYPE_MASK;\n    //    }\n    //    function isNonFungibleBaseType(uint256 _id) public pure returns(bool) {\n    //        // A base type has the NF bit but does not have an index.\n    //        return (_id & TYPE_NF_BIT == TYPE_NF_BIT) && (_id & NF_INDEX_MASK == 0);\n    //    }\n    //    function isNonFungibleItem(uint256 _id) public pure returns(bool) {\n    //        return (_id & TYPE_NF_BIT == TYPE_NF_BIT) && (_id & NF_INDEX_MASK != 0);\n    //    }\n\n    function isContract(address _address) internal view returns (bool) {\n        bytes32 codehash;\n        assembly { codehash := extcodehash(_address) }\n        return (codehash != 0x0 && codehash != ACCOUNT_HASH);\n    }\n\n    function _uint2str(uint256 _i) internal pure returns (string memory _uintAsString) {\n        if (_i == 0) {\n            return \"0\";\n        }\n\n        uint256 j = _i;\n        uint256 ii = _i;\n        uint256 len;\n\n        // Get number of bytes\n        while (j != 0) {\n            len++;\n            j /= 10;\n        }\n\n        bytes memory bstr = new bytes(len);\n        uint256 k = len - 1;\n\n        // Get each individual ASCII\n        while (ii != 0) {\n            bstr[k--] = byte(uint8(48 + ii % 10));\n            ii /= 10;\n        }\n\n        // Convert to string\n        return string(bstr);\n    }\n}\n\n\n/**\n * @notice Charged Particles Contract - Interest-Bearing NFTs\n *  -- ERC-1155 Edition\n */\ncontract ChargedParticlesERC1155 is ERC1155 {\n    //    using SafeMath for uint256;\n\n    /***********************************|\n    |        Variables and Events       |\n    |__________________________________*/\n\n    IERC20 internal dai;\n    IChai internal chai;\n\n    //       TypeID => Type Creator\n    mapping(uint256 => address) internal registeredTypeCreators;\n\n    //       TypeID => Required DAI\n    mapping(uint256 => uint256) internal requiredFundingByType;   // Amount of Dai to deposit when minting\n\n    //      TokenID => Balance\n    mapping(uint256 => uint256) internal chaiBalanceByTokenId;    // Amount of Chai minted from Dai deposited\n\n    //      TokenID => Max Supply\n    mapping(uint256 => uint256) internal maxSupplyByType;\n\n    //       TypeID => Access Type (1=Public / 2=Private)\n    mapping(uint256 => uint8) internal registeredTypes;\n\n    uint256 internal createFeeEth;\n    uint256 internal createFeeIon;\n    uint256 internal mintFee;\n    uint256 internal collectedFees;\n\n    // Internal ERC20 Token used for Creating Types;\n    // needs to be created as a private ERC20 type within this contract\n    uint256 internal ionTokenId;\n\n    address private owner; // To be assigned to a DAO\n\n    event OwnershipTransferred(address indexed previousOwner, address indexed newOwner);\n\n    /***********************************|\n    |             Modifiers             |\n    |__________________________________*/\n\n    /**\n     * @dev Throws if called by any account other than the owner.\n     */\n    modifier onlyOwner() {\n        require(msg.sender == owner, \"E102\");\n        _;\n    }\n\n    /***********************************|\n    |          Initialization           |\n    |__________________________________*/\n\n    constructor() public {\n//         createFeeEth = 35 szabo;     //  ERC20  = 0.000035 ETH  (~ USD $0.005)\n//                                      //  ERC721 = 0.000070 ETH  (~ USD $0.01)\n//         createFeeIon = 100 ether;    //  ERC20  = 100 IONs\n//                                      //  ERC721 = 200 IONs\n//         mintFee = 50;                //  0.5% of Chai from deposited Dai\n\n        owner = msg.sender;\n        emit OwnershipTransferred(address(0), owner);\n    }\n\n    /***********************************|\n    |            Public Read            |\n    |__________________________________*/\n\n    /**\n     * @notice Gets the address of the contract owner.\n     * @return The owner address\n     */\n    function getContractOwner() public view returns (address) {\n        return owner;\n    }\n\n    /**\n     * @notice Gets the Creator of a Token Type\n     * @param _type     The Type ID of the Token\n     * @return  The Creator Address\n     */\n    function getCreator(uint256 _type) public view returns (address) {\n        return registeredTypeCreators[_type];\n    }\n\n    /**\n     * @notice Checks if a user is allowed to mint a Token by Type ID\n     * @param _type     The Type ID of the Token\n     * @return  True if the user can mint the token type\n     */\n    function canMint(uint256 _type, uint256 _amount) public view returns (bool) {\n        // Public\n        if (registeredTypes[_type] == 1) {\n            // Has Max\n            if (maxSupplyByType[_type] > 0) {\n                return maxIndex[_type] <= (maxSupplyByType[_type] + _amount);\n            }\n            // No Max\n            return true;\n        }\n        // Private\n        if (registeredTypeCreators[_type] != msg.sender) {\n            return false;\n        }\n        // Has Max\n        if (maxSupplyByType[_type] > 0) {\n            return maxIndex[_type] <= (maxSupplyByType[_type] + _amount);\n        }\n        // No Max\n        return true;\n    }\n\n    /**\n     * @notice Gets the ETH price to create a Token Type\n     * @param _isNF     True if the Type of Token to Create is a Non-Fungible Token\n     * @return  The ETH price to create a type\n     */\n    function getCreationPrice(bool _isNF) public view returns (uint256 eth, uint256 ion) {\n        eth = _isNF ? (createFeeEth * 2) : createFeeEth;\n        ion = _isNF ? (createFeeIon * 2) : createFeeIon;\n    }\n\n    /***********************************|\n    |         Particle Physics          |\n    |__________________________________*/\n\n    /**\n     * @notice Gets the Amount of Base DAI held in the Token (amount token was minted with)\n     * @param _tokenId      The ID of the Token\n     * @return  The Amount of DAI held in the Token\n     */\n    function baseParticleMass(uint256 _tokenId) public view returns (uint256) {\n        uint256 _type = _tokenId & TYPE_MASK;\n        return requiredFundingByType[_type];\n    }\n\n    /**\n     * @notice Gets the amount of interest the Token has generated (it's accumulated particle-charge)\n     * @param _tokenId      The ID of the Token\n     * @return  The amount of interest the Token has generated\n     */\n    function currentParticleCharge(uint256 _tokenId) public returns (uint256) {\n        uint256 _type = _tokenId & TYPE_MASK;\n        require(registeredTypes[_type] > 0, \"E402\");\n        require(requiredFundingByType[_type] > 0, \"E402\");\n\n        uint256 currentCharge = chai.dai(chaiBalanceByTokenId[_tokenId]);\n        uint256 originalCharge = requiredFundingByType[_type];\n        if (originalCharge >= currentCharge) { return 0; }\n        return currentCharge - originalCharge;\n        // return currentCharge.sub(originalCharge);\n    }\n\n    /**\n     * @notice Allows the owner of the Token to collect the interest generated form the token\n     *  without removing the underlying DAI that is held in the token\n     * @param _tokenId      The ID of the Token\n     * @return  The amount of interest released from the token\n     */\n    // collect current interest from particle\n    function dischargeParticle(uint256 _tokenId) public returns (uint256) {\n        address _owner = ownerOf(_tokenId);\n        require((_owner == msg.sender) || isApprovedForAll(_owner, msg.sender), \"E103\");\n\n        uint256 _currentChargeInDai = currentParticleCharge(_tokenId);\n        require(_currentChargeInDai > 0, \"E403\");\n\n        uint256 _paidChai = _payoutChargedDai(msg.sender, _currentChargeInDai);\n        chaiBalanceByTokenId[_tokenId] = chaiBalanceByTokenId[_tokenId] - _paidChai;\n\n        return _currentChargeInDai;\n    }\n\n    /***********************************|\n    |   Public Create Particle Types    |\n    |__________________________________*/\n\n    /**\n     * @notice Creates a new Particle Type which can later be minted/burned\n     * @param _uri              A unique URI for the Token Type which will serve the JSON metadata\n     * @param _isNF             True if the Type is a Non-Fungible (only Non-Fungible Tokens can hold DAI and generate interest)\n     * @param _isPrivate        True if the Type is Private and can only be minted by the creator; otherwise anyone can mint\n     * @param _requiredDai      The amount of DAI (in WEI) that is required to Mint a Token of this Type (the Particle Mass)\n     *                          NOTE: This will be ignored for Fungible Tokens (ERC20)\n     * @param _maxSupply        The Max Supply of Tokens that can be minted\n     * @return The ID of the newly created Particle Type\n     */\n    function createParticleWithEther(string memory _uri, bool _isNF, bool _isPrivate, uint256 _requiredDai, uint256 _maxSupply) public payable returns (uint256 _particleTypeId) {\n        (uint256 ethPrice, ) = getCreationPrice(_isNF);\n        require(msg.value >= ethPrice, \"E404\");\n\n        // Create Particle Type\n        _particleTypeId = _createParticle(msg.sender, _uri, _isNF, _isPrivate, _requiredDai, _maxSupply);\n\n        // Refund over-payment\n        uint256 overage = msg.value - ethPrice;\n        // uint256 overage = msg.value.sub(ethPrice);\n        if (overage > 0) {\n            msg.sender.transfer(overage);\n        }\n    }\n\n    /**\n     * @notice Creates a new Particle Type which can later be minted/burned\n     * @param _uri              A unique URI for the Token Type which will serve the JSON metadata\n     * @param _isNF             True if the Type is a Non-Fungible (only Non-Fungible Tokens can hold DAI and generate interest)\n     * @param _isPrivate        True if the Type is Private and can only be minted by the creator; otherwise anyone can mint\n     * @param _requiredDai      The amount of DAI (in WEI) that is required to Mint a Token of this Type (the Particle Mass)\n     *                          NOTE: This will be ignored for Fungible Tokens (ERC20)\n     * @return The ID of the newly created Particle Type\n     *\n     * NOTE: Must approve THIS contract to TRANSFER your IONS on your behalf\n     */\n    function createParticleWithIons(string memory _uri, bool _isNF, bool _isPrivate, uint256 _requiredDai, uint256 _maxSupply) public returns (uint256 _particleTypeId) {\n        ( , uint256 ionPrice) = getCreationPrice(_isNF);\n\n        // Collect Ions as Payment\n        _collectIons(msg.sender, ionPrice);\n\n        // Create Particle Type\n        _particleTypeId = _createParticle(msg.sender, _uri, _isNF, _isPrivate, _requiredDai, _maxSupply);\n    }\n\n    /***********************************|\n    |    Public Mint (ERC20 & ERC721)   |\n    |__________________________________*/\n\n    /**\n     * @notice Mints a new Particle of the specified Type (can be Fungible or Non-Fungible)\n     *          Note: Requires DAI to mint Non-Fungible Tokens\n     * @param _to       The owner address to assign the new token to\n     * @param _type     The Type ID of the new token to mint\n     * @param _amount   The amount of tokens to mint (always 1 for Non-Fungibles)\n     * @param _data     Custom data used for transferring tokens into contracts\n     * @return  The ID of the newly minted token\n     *\n     * NOTE: Must approve THIS contract to TRANSFER your DAI on your behalf\n     */\n    function mintParticle(address _to, uint256 _type, uint256 _amount, bytes memory _data) public returns (uint256) {\n        require(canMint(_type, _amount), \"E407\");\n        address _self = address(this);\n\n        // Mint Token\n        uint256 _tokenId = _mint(_to, _type, _amount, _data);\n\n        if (_tokenId & TYPE_NF_BIT == TYPE_NF_BIT) {\n            // Transfer DAI from User to Contract\n            uint256 _requiredDai = requiredFundingByType[_type];\n            _collectRequiredDai(msg.sender, _requiredDai);\n\n            // Tokenize Interest\n            uint256 _preBalance = chai.balanceOf(_self);\n            chai.join(_self, _requiredDai);\n            uint256 _postBalance = chai.balanceOf(_self);\n\n            // Track Chai in each Token\n            chaiBalanceByTokenId[_tokenId] = _totalChaiForToken(_postBalance - _preBalance);\n            // chaiBalanceByTokenId[_tokenId] = _totalChaiForToken(_postBalance.sub(_preBalance));\n        }\n\n        return _tokenId;\n    }\n\n    /**\n     * @notice Mints multiple new Particles of the specified Types (can be Fungible and/or Non-Fungible)\n     *          Note: Requires DAI to mint Non-Fungible Tokens\n     * @param _to       The owner address to assign the new tokens to\n     * @param _types    The Type IDs of the new tokens to mint\n     * @param _amounts  The amount of tokens to mint (always 1 for Non-Fungibles)\n     * @param _data     Custom data used for transferring tokens into contracts\n     * @return  The IDs of the newly minted tokens\n     *\n     * NOTE: Must approve THIS contract to TRANSFER your DAI on your behalf\n     */\n    function mintParticles(address _to, uint256[] memory _types, uint256[] memory _amounts, bytes memory _data) public returns (uint256[] memory) {\n        address _self = address(this);\n        uint256 i;\n        uint256 _type;\n        uint256 _amount;\n        uint256 _tokenId;\n        uint256 _totalDai;\n        uint256 _requiredDai;\n        uint256 _count = _types.length;\n\n        for (i = 0; i < _count; ++i) {\n            _type = _types[i];\n            _amount = _amounts[i];\n            require(canMint(_type, _amount), \"E407\");\n            _requiredDai = requiredFundingByType[_type];\n            _totalDai = _requiredDai + _totalDai;\n            // _totalDai = _requiredDai.add(_totalDai);\n        }\n\n        // Mint Tokens\n        uint256[] memory _tokenIds = _mintBatch(_to, _types, _amounts, _data);\n\n        if (_totalDai > 0) {\n            // Transfer DAI from User to Contract\n            _collectRequiredDai(msg.sender, _totalDai);\n\n            uint256 _balance = chai.balanceOf(_self);\n            for (i = 0; i < _count; ++i) {\n                _tokenId = _tokenIds[i];\n                _type = _tokenId & TYPE_MASK;\n                _requiredDai = requiredFundingByType[_type];\n\n                if (_requiredDai > 0) {\n                    // Tokenize Interest\n                    chai.join(_self, _requiredDai);\n\n                    // Track Chai in each Token\n                    chaiBalanceByTokenId[_tokenId] = _totalChaiForToken(chai.balanceOf(_self) - _balance);\n                    // chaiBalanceByTokenId[_tokenId] = _totalChaiForToken(chai.balanceOf(_self).sub(_balance));\n                    _balance = chai.balanceOf(_self);\n                }\n            }\n        }\n        return _tokenIds;\n    }\n\n    /***********************************|\n    |    Public Burn (ERC20 & ERC721)   |\n    |__________________________________*/\n\n    /**\n     * @notice Destroys a Particle and releases the underlying DAI + Interest (Mass + Charge)\n     * @param _tokenId  The ID of the token to burn\n     * @param _amount   The amount of tokens to burn (always 1 for Non-Fungibles)\n     */\n    function burnParticle(uint256 _tokenId, uint256 _amount) public {\n        // Verify Token\n        uint256 _type = _tokenId & TYPE_MASK;\n        require(registeredTypes[_type] > 0, \"E402\");\n\n        // Burn Token\n        _burn(msg.sender, _tokenId, _amount);\n\n        // Payout Dai + Interest\n        if (_tokenId & TYPE_NF_BIT == TYPE_NF_BIT) {\n            uint256 _tokenChai = chaiBalanceByTokenId[_tokenId];\n            chaiBalanceByTokenId[_tokenId] = 0;\n            _payoutFundedDai(msg.sender, _tokenChai);\n        }\n    }\n\n    /**\n     * @notice Destroys multiple Particles and releases the underlying DAI + Interest (Mass + Charge)\n     * @param _tokenIds     The IDs of the tokens to burn\n     * @param _amounts      The amounts of the tokens to burn (always 1 for Non-Fungibles)\n     */\n    function burnParticles(uint256[] memory _tokenIds, uint256[] memory _amounts) public {\n        // Verify Token\n        uint256 _tokenId;\n        uint256 _totalChai;\n        uint256 _count = _tokenIds.length;\n        for (uint256 i = 0; i < _count; ++i) {\n            _tokenId = _tokenIds[i];\n            require(registeredTypes[_tokenId & TYPE_MASK] > 0, \"E402\");\n\n            if (_tokenId & TYPE_NF_BIT == TYPE_NF_BIT) {\n                _totalChai = chaiBalanceByTokenId[_tokenId] + _totalChai;\n                // _totalChai = chaiBalanceByTokenId[_tokenId].add(_totalChai);\n                chaiBalanceByTokenId[_tokenId] = 0;\n            }\n        }\n\n        // Burn Tokens\n        _burnBatch(msg.sender, _tokenIds, _amounts);\n\n        // Payout Dai + Interest\n        if (_totalChai > 0) {\n            _payoutFundedDai(msg.sender, _totalChai);\n        }\n    }\n\n    /***********************************|\n    |            Only Owner             |\n    |__________________________________*/\n\n    /**\n     * @dev Setup the DAI/CHAI contracts and configure the contract\n     */\n    function setup(address _daiAddress, address _chaiAddress, uint256 _createFeeEth, uint256 _createFeeIon, uint256 _mintFee) public onlyOwner {\n        // Set DAI as Funding Token\n        dai = IERC20(_daiAddress);\n        chai = IChai(_chaiAddress);\n\n        // Setup Chai to Tokenize DAI Interest\n        dai.approve(_chaiAddress, uint(-1));\n\n        createFeeEth = _createFeeEth;\n        createFeeIon = _createFeeIon;\n        mintFee = _mintFee;\n    }\n\n    /**\n     * @dev Setup internal ION Token\n     */\n    function mintIons(string memory _uri, uint256 _amount) public onlyOwner returns (uint256) {\n        // Create ION Token Type;\n        //  ERC20, Private, Limited\n        ionTokenId = _createParticle(owner, _uri, false, true, 0, _amount);\n\n        // Mint ION Tokens to Owner\n        _mint(owner, ionTokenId, _amount, \"\");\n\n        // Remove owner of ION token to prevent further minting\n        registeredTypeCreators[ionTokenId] = address(0x0);\n\n        return ionTokenId;\n    }\n\n    /**\n     * @dev Allows contract owner to withdraw any fees earned\n     */\n    function withdrawFees() public onlyOwner {\n        uint256 _balance = address(this).balance;\n        if (_balance > 0) {\n            msg.sender.transfer(_balance);\n        }\n        if (collectedFees > 0) {\n            _payoutFundedDai(msg.sender, collectedFees);\n            collectedFees = 0;\n        }\n    }\n\n    /**\n     * @notice Transfers the ownership of the contract to new address\n     * @param _newOwner Address of the new owner\n     */\n    function transferOwnership(address _newOwner) public onlyOwner {\n        require(_newOwner != address(0), \"E101\");\n        emit OwnershipTransferred(owner, _newOwner);\n        owner = _newOwner;\n    }\n\n    /***********************************|\n    |         Private Functions         |\n    |__________________________________*/\n\n    /**\n     * @notice Creates a new Particle Type which can later be minted/burned\n     * @param _uri              A unique URI for the Token Type which will serve the JSON metadata\n     * @param _isNF             True if the Type is a Non-Fungible (only Non-Fungible Tokens can hold DAI and generate interest)\n     * @param _isPrivate        True if the Type is Private and can only be minted by the creator; otherwise anyone can mint\n     * @param _requiredDai      The amount of DAI (in WEI) that is required to Mint a Token of this Type (the Particle Mass)\n     *                          NOTE: This will be ignored for Fungible Tokens (ERC20)\n     * @return The ID of the newly created Particle Type\n     */\n    function _createParticle(address _creator, string memory _uri, bool _isNF, bool _isPrivate, uint256 _requiredDai, uint256 _maxSupply) internal returns (uint256 _particleTypeId) {\n        require(!_isNF || (_isNF && _requiredDai >= 1e6), \"E406\"); // 0.000000000001 DAI  or  1000000 WEI\n\n        // Create Type\n        _particleTypeId = _createType(_uri, _isNF);\n\n        // Type Access (Public or Private minting)\n        registeredTypes[_particleTypeId] = _isPrivate ? 2 : 1;\n\n        // Creator of Type\n        registeredTypeCreators[_particleTypeId] = _creator;\n\n        // Max Supply of Token; 0 = No Max\n        maxSupplyByType[_particleTypeId] = _maxSupply;\n\n        // Required Funding for NFTs\n        requiredFundingByType[_particleTypeId] = _isNF ? _requiredDai : 0;\n    }\n\n    /**\n     * @dev Collects the Required IONs from the users wallet during Type Creation and Burns them\n     * @param _from  The owner address to collect the IONs from\n     * @param _ions  The amount of IONs to collect from the user\n     */\n    function _collectIons(address _from, uint256 _ions) internal {\n        // Burn IONs from User\n        _burn(_from, ionTokenId, _ions);\n    }\n\n    /**\n     * @dev Collects the Required DAI from the users wallet during Minting\n     * @param _from         The owner address to collect the DAI from\n     * @param _requiredDai  The amount of DAI to collect from the user\n     */\n    function _collectRequiredDai(address _from, uint256 _requiredDai) internal {\n        // Transfer DAI from User to Contract\n        uint256 _userDaiBalance = dai.balanceOf(_from);\n        require(_requiredDai <= _userDaiBalance, \"E405\");\n        require(dai.transferFrom(_from, address(this), _requiredDai), \"E408\");\n    }\n\n    /**\n     * @dev Pays out a specified amount of CHAI\n     * @param _to           The owner address to pay out to\n     * @param _totalChai    The total amount of CHAI to pay out\n     */\n    function _payoutFundedDai(address _to, uint256 _totalChai) internal {\n        address _self = address(this);\n\n        // Exit Chai and collect Dai + Interest\n        chai.exit(_self, _totalChai);\n\n        // Transfer Dai + Interest\n        uint256 _receivedDai = dai.balanceOf(_self);\n        require(dai.transferFrom(_self, _to, _receivedDai), \"E408\");\n    }\n\n    /**\n     * @dev Pays out a specified amount of DAI\n     * @param _to           The owner address to pay out to\n     * @param _totalDai     The total amount of DAI to pay out\n     */\n    function _payoutChargedDai(address _to, uint256 _totalDai) internal returns (uint256) {\n        address _self = address(this);\n\n        // Collect Interest\n        uint256 _chai = chai.draw(_self, _totalDai);\n\n        // Transfer Interest\n        uint256 _receivedDai = dai.balanceOf(_self);\n        require(dai.transferFrom(_self, _to, _receivedDai), \"E408\");\n        return _chai;\n    }\n\n    /**\n     * @dev Calculates the amount of DAI held within a token during minting\n     *      Note: Accounts for any contract fees\n     * @param _tokenChai    The total amount of DAI used to fund the token\n     * @return  The actual amount of DAI to fund the token - fees\n     */\n    function _totalChaiForToken(uint256 _tokenChai) internal returns (uint256) {\n        if (mintFee == 0) { return _tokenChai; }\n        uint256 _mintFee = (_tokenChai * mintFee) / 1e4;\n        collectedFees = collectedFees + _mintFee;\n        // collectedFees = collectedFees.add(_mintFee);\n        return _tokenChai - _mintFee;\n        // return _tokenChai.sub(_mintFee);\n    }\n}\n",
  "sourcePath": "/Users/robsecord/workspace/Ethereum/ChargedParticles/ChargedParticlesEth/contracts/ChargedParticlesERC1155.sol",
  "compiler": {
    "name": "solc",
    "version": "0.5.13+commit.5b0b510c.Emscripten.clang"
  },
  "schemaVersion": "3.0.23",
  "updatedAt": "2020-02-01T07:11:54.035Z",
  "devdoc": {
    "details": "Implementation of ERC1155 Multi-Token Standard contractsee node_modules/multi-token-standard/contracts/tokens/ERC1155/ERC1155.sol",
    "methods": {}
  },
  "userdoc": {
    "methods": {}
  }
}