{
  "contractName": "ERC1155MixedFungibleMintable",
  "abi": [
    {
      "anonymous": false,
      "inputs": [
        {
          "indexed": true,
          "internalType": "address",
          "name": "_owner",
          "type": "address"
        },
        {
          "indexed": true,
          "internalType": "address",
          "name": "_operator",
          "type": "address"
        },
        {
          "indexed": false,
          "internalType": "bool",
          "name": "_approved",
          "type": "bool"
        }
      ],
      "name": "ApprovalForAll",
      "type": "event"
    },
    {
      "anonymous": false,
      "inputs": [
        {
          "indexed": true,
          "internalType": "address",
          "name": "_operator",
          "type": "address"
        },
        {
          "indexed": true,
          "internalType": "address",
          "name": "_from",
          "type": "address"
        },
        {
          "indexed": true,
          "internalType": "address",
          "name": "_to",
          "type": "address"
        },
        {
          "indexed": false,
          "internalType": "uint256[]",
          "name": "_ids",
          "type": "uint256[]"
        },
        {
          "indexed": false,
          "internalType": "uint256[]",
          "name": "_amounts",
          "type": "uint256[]"
        }
      ],
      "name": "TransferBatch",
      "type": "event"
    },
    {
      "anonymous": false,
      "inputs": [
        {
          "indexed": true,
          "internalType": "address",
          "name": "_operator",
          "type": "address"
        },
        {
          "indexed": true,
          "internalType": "address",
          "name": "_from",
          "type": "address"
        },
        {
          "indexed": true,
          "internalType": "address",
          "name": "_to",
          "type": "address"
        },
        {
          "indexed": false,
          "internalType": "uint256",
          "name": "_id",
          "type": "uint256"
        },
        {
          "indexed": false,
          "internalType": "uint256",
          "name": "_amount",
          "type": "uint256"
        }
      ],
      "name": "TransferSingle",
      "type": "event"
    },
    {
      "anonymous": false,
      "inputs": [
        {
          "indexed": false,
          "internalType": "string",
          "name": "_uri",
          "type": "string"
        },
        {
          "indexed": true,
          "internalType": "uint256",
          "name": "_id",
          "type": "uint256"
        }
      ],
      "name": "URI",
      "type": "event"
    },
    {
      "constant": true,
      "inputs": [
        {
          "internalType": "address",
          "name": "_owner",
          "type": "address"
        },
        {
          "internalType": "uint256",
          "name": "_id",
          "type": "uint256"
        }
      ],
      "name": "balanceOf",
      "outputs": [
        {
          "internalType": "uint256",
          "name": "",
          "type": "uint256"
        }
      ],
      "payable": false,
      "stateMutability": "view",
      "type": "function"
    },
    {
      "constant": true,
      "inputs": [
        {
          "internalType": "address[]",
          "name": "_owners",
          "type": "address[]"
        },
        {
          "internalType": "uint256[]",
          "name": "_ids",
          "type": "uint256[]"
        }
      ],
      "name": "balanceOfBatch",
      "outputs": [
        {
          "internalType": "uint256[]",
          "name": "",
          "type": "uint256[]"
        }
      ],
      "payable": false,
      "stateMutability": "view",
      "type": "function"
    },
    {
      "constant": true,
      "inputs": [
        {
          "internalType": "uint256",
          "name": "_id",
          "type": "uint256"
        }
      ],
      "name": "getIDBinIndex",
      "outputs": [
        {
          "internalType": "uint256",
          "name": "bin",
          "type": "uint256"
        },
        {
          "internalType": "uint256",
          "name": "index",
          "type": "uint256"
        }
      ],
      "payable": false,
      "stateMutability": "pure",
      "type": "function"
    },
    {
      "constant": true,
      "inputs": [
        {
          "internalType": "uint256",
          "name": "_binValues",
          "type": "uint256"
        },
        {
          "internalType": "uint256",
          "name": "_index",
          "type": "uint256"
        }
      ],
      "name": "getValueInBin",
      "outputs": [
        {
          "internalType": "uint256",
          "name": "",
          "type": "uint256"
        }
      ],
      "payable": false,
      "stateMutability": "pure",
      "type": "function"
    },
    {
      "constant": true,
      "inputs": [
        {
          "internalType": "address",
          "name": "_owner",
          "type": "address"
        },
        {
          "internalType": "address",
          "name": "_operator",
          "type": "address"
        }
      ],
      "name": "isApprovedForAll",
      "outputs": [
        {
          "internalType": "bool",
          "name": "isOperator",
          "type": "bool"
        }
      ],
      "payable": false,
      "stateMutability": "view",
      "type": "function"
    },
    {
      "constant": true,
      "inputs": [
        {
          "internalType": "uint256",
          "name": "_id",
          "type": "uint256"
        }
      ],
      "name": "ownerOf",
      "outputs": [
        {
          "internalType": "address",
          "name": "",
          "type": "address"
        }
      ],
      "payable": false,
      "stateMutability": "view",
      "type": "function"
    },
    {
      "constant": false,
      "inputs": [
        {
          "internalType": "address",
          "name": "_from",
          "type": "address"
        },
        {
          "internalType": "address",
          "name": "_to",
          "type": "address"
        },
        {
          "internalType": "uint256[]",
          "name": "_ids",
          "type": "uint256[]"
        },
        {
          "internalType": "uint256[]",
          "name": "_amounts",
          "type": "uint256[]"
        },
        {
          "internalType": "bytes",
          "name": "_data",
          "type": "bytes"
        }
      ],
      "name": "safeBatchTransferFrom",
      "outputs": [],
      "payable": false,
      "stateMutability": "nonpayable",
      "type": "function"
    },
    {
      "constant": false,
      "inputs": [
        {
          "internalType": "address",
          "name": "_from",
          "type": "address"
        },
        {
          "internalType": "address",
          "name": "_to",
          "type": "address"
        },
        {
          "internalType": "uint256",
          "name": "_id",
          "type": "uint256"
        },
        {
          "internalType": "uint256",
          "name": "_amount",
          "type": "uint256"
        },
        {
          "internalType": "bytes",
          "name": "_data",
          "type": "bytes"
        }
      ],
      "name": "safeTransferFrom",
      "outputs": [],
      "payable": false,
      "stateMutability": "nonpayable",
      "type": "function"
    },
    {
      "constant": false,
      "inputs": [
        {
          "internalType": "address",
          "name": "_operator",
          "type": "address"
        },
        {
          "internalType": "bool",
          "name": "_approved",
          "type": "bool"
        }
      ],
      "name": "setApprovalForAll",
      "outputs": [],
      "payable": false,
      "stateMutability": "nonpayable",
      "type": "function"
    },
    {
      "constant": true,
      "inputs": [
        {
          "internalType": "bytes4",
          "name": "_interfaceID",
          "type": "bytes4"
        }
      ],
      "name": "supportsInterface",
      "outputs": [
        {
          "internalType": "bool",
          "name": "",
          "type": "bool"
        }
      ],
      "payable": false,
      "stateMutability": "view",
      "type": "function"
    }
  ],
  "bytecode": "0x608060405234801561001057600080fd5b50612775806100206000396000f3fe608060405234801561001057600080fd5b506004361061009d5760003560e01c8063a22cb46511610066578063a22cb4651461059b578063db90e83c146105eb578063e985e9c514610634578063eaec5f81146106b0578063f242432a146106fc5761009d565b8062fdd58e146100a257806301ffc9a7146101045780632eb2c2d6146101695780634e1273f41461038c5780636352211e1461052d575b600080fd5b6100ee600480360360408110156100b857600080fd5b81019080803573ffffffffffffffffffffffffffffffffffffffff1690602001909291908035906020019092919050505061080b565b6040518082815260200191505060405180910390f35b61014f6004803603602081101561011a57600080fd5b8101908080357bffffffffffffffffffffffffffffffffffffffffffffffffffffffff19169060200190929190505050610905565b604051808215151515815260200191505060405180910390f35b61038a600480360360a081101561017f57600080fd5b81019080803573ffffffffffffffffffffffffffffffffffffffff169060200190929190803573ffffffffffffffffffffffffffffffffffffffff169060200190929190803590602001906401000000008111156101dc57600080fd5b8201836020820111156101ee57600080fd5b8035906020019184602083028401116401000000008311171561021057600080fd5b919080806020026020016040519081016040528093929190818152602001838360200280828437600081840152601f19601f8201169050808301925050505050505091929192908035906020019064010000000081111561027057600080fd5b82018360208201111561028257600080fd5b803590602001918460208302840111640100000000831117156102a457600080fd5b919080806020026020016040519081016040528093929190818152602001838360200280828437600081840152601f19601f8201169050808301925050505050505091929192908035906020019064010000000081111561030457600080fd5b82018360208201111561031657600080fd5b8035906020019184600183028401116401000000008311171561033857600080fd5b91908080601f016020809104026020016040519081016040528093929190818152602001838380828437600081840152601f19601f8201169050808301925050505050505091929192905050506109b6565b005b6104d6600480360360408110156103a257600080fd5b81019080803590602001906401000000008111156103bf57600080fd5b8201836020820111156103d157600080fd5b803590602001918460208302840111640100000000831117156103f357600080fd5b919080806020026020016040519081016040528093929190818152602001838360200280828437600081840152601f19601f8201169050808301925050505050505091929192908035906020019064010000000081111561045357600080fd5b82018360208201111561046557600080fd5b8035906020019184602083028401116401000000008311171561048757600080fd5b919080806020026020016040519081016040528093929190818152602001838360200280828437600081840152601f19601f820116905080830192505050505050509192919290505050610af1565b6040518080602001828103825283818151815260200191508051906020019060200280838360005b838110156105195780820151818401526020810190506104fe565b505050509050019250505060405180910390f35b6105596004803603602081101561054357600080fd5b8101908080359060200190929190505050610cb8565b604051808273ffffffffffffffffffffffffffffffffffffffff1673ffffffffffffffffffffffffffffffffffffffff16815260200191505060405180910390f35b6105e9600480360360408110156105b157600080fd5b81019080803573ffffffffffffffffffffffffffffffffffffffff169060200190929190803515159060200190929190505050610d6f565b005b6106176004803603602081101561060157600080fd5b8101908080359060200190929190505050610e70565b604051808381526020018281526020019250505060405180910390f35b6106966004803603604081101561064a57600080fd5b81019080803573ffffffffffffffffffffffffffffffffffffffff169060200190929190803573ffffffffffffffffffffffffffffffffffffffff169060200190929190505050610ea7565b604051808215151515815260200191505060405180910390f35b6106e6600480360360408110156106c657600080fd5b810190808035906020019092919080359060200190929190505050610f3b565b6040518082815260200191505060405180910390f35b610809600480360360a081101561071257600080fd5b81019080803573ffffffffffffffffffffffffffffffffffffffff169060200190929190803573ffffffffffffffffffffffffffffffffffffffff16906020019092919080359060200190929190803590602001909291908035906020019064010000000081111561078357600080fd5b82018360208201111561079557600080fd5b803590602001918460018302840111640100000000831117156107b757600080fd5b91908080601f016020809104026020016040519081016040528093929190818152602001838380828437600081840152601f19601f820116905080830192505050505050509192919290505050610f68565b005b60007f8000000000000000000000000000000000000000000000000000000000000000808316148015610873575060007fffffffffffffffffffffffffffffffffffffffffffffffffffffffffffffffff6fffffffffffffffffffffffffffffffff16831614155b156108f2578273ffffffffffffffffffffffffffffffffffffffff166002600084815260200190815260200160002060009054906101000a900473ffffffffffffffffffffffffffffffffffffffff1673ffffffffffffffffffffffffffffffffffffffff16146108e55760006108e8565b60015b60ff1690506108ff565b6108fc83836110e2565b90505b92915050565b60006301ffc9a760e01b7bffffffffffffffffffffffffffffffffffffffffffffffffffffffff1916827bffffffffffffffffffffffffffffffffffffffffffffffffffffffff1916148061099e57506397a409d260e01b7bffffffffffffffffffffffffffffffffffffffffffffffffffffffff1916827bffffffffffffffffffffffffffffffffffffffffffffffffffffffff1916145b156109ac57600190506109b1565b600090505b919050565b8473ffffffffffffffffffffffffffffffffffffffff163373ffffffffffffffffffffffffffffffffffffffff1614806109f657506109f58533610ea7565b5b610a4b576040517f08c379a000000000000000000000000000000000000000000000000000000000815260040180806020018281038252603c8152602001806125c8603c913960400191505060405180910390fd5b600073ffffffffffffffffffffffffffffffffffffffff168473ffffffffffffffffffffffffffffffffffffffff161415610ad1576040517f08c379a000000000000000000000000000000000000000000000000000000000815260040180806020018281038252603d815260200180612569603d913960400191505060405180910390fd5b610add8585858561115b565b610aea85858585856115e7565b5050505050565b60608151835114610b0157600080fd5b60608351604051908082528060200260200182016040528015610b335781602001602082028038833980820191505090505b50905060008090505b8451811015610cad576000848281518110610b5357fe5b602002602001015190507f8000000000000000000000000000000000000000000000000000000000000000808216148015610bc3575060007fffffffffffffffffffffffffffffffffffffffffffffffffffffffffffffffff6fffffffffffffffffffffffffffffffff16821614155b15610c6b57858281518110610bd457fe5b602002602001015173ffffffffffffffffffffffffffffffffffffffff166002600083815260200190815260200160002060009054906101000a900473ffffffffffffffffffffffffffffffffffffffff1673ffffffffffffffffffffffffffffffffffffffff1614610c48576000610c4b565b60015b60ff16838381518110610c5a57fe5b602002602001018181525050610ca1565b610c88868381518110610c7a57fe5b6020026020010151826110e2565b838381518110610c9457fe5b6020026020010181815250505b50806001019050610b3c565b508091505092915050565b60007f800000000000000000000000000000000000000000000000000000000000000080831614610d34576040517f08c379a00000000000000000000000000000000000000000000000000000000081526004018080602001828103825260228152602001806125a66022913960400191505060405180910390fd5b6002600083815260200190815260200160002060009054906101000a900473ffffffffffffffffffffffffffffffffffffffff169050919050565b80600160003373ffffffffffffffffffffffffffffffffffffffff1673ffffffffffffffffffffffffffffffffffffffff16815260200190815260200160002060008473ffffffffffffffffffffffffffffffffffffffff1673ffffffffffffffffffffffffffffffffffffffff16815260200190815260200160002060006101000a81548160ff0219169083151502179055508173ffffffffffffffffffffffffffffffffffffffff163373ffffffffffffffffffffffffffffffffffffffff167f17307eab39ab6107e8899845ad3d59bd9653f200f220920489ca2b5937696c3183604051808215151515815260200191505060405180910390a35050565b6000806101006020840281610e8157fe5b049150602061010081610e9057fe5b048381610e9957fe5b069050818191509150915091565b6000600160008473ffffffffffffffffffffffffffffffffffffffff1673ffffffffffffffffffffffffffffffffffffffff16815260200190815260200160002060008373ffffffffffffffffffffffffffffffffffffffff1673ffffffffffffffffffffffffffffffffffffffff16815260200190815260200160002060009054906101000a900460ff16905092915050565b600080600160206001901b039050600060018401602002610100039050818186901c169250505092915050565b8473ffffffffffffffffffffffffffffffffffffffff163373ffffffffffffffffffffffffffffffffffffffff161480610fa85750610fa78533610ea7565b5b610ffd576040517f08c379a00000000000000000000000000000000000000000000000000000000081526004018080602001828103825260378152602001806124716037913960400191505060405180910390fd5b600073ffffffffffffffffffffffffffffffffffffffff168473ffffffffffffffffffffffffffffffffffffffff161415611083576040517f08c379a000000000000000000000000000000000000000000000000000000000815260040180806020018281038252603881526020018061264b6038913960400191505060405180910390fd5b7f800000000000000000000000000000000000000000000000000000000000000080841614156110c157600191506110bc8585856118a2565b6110ce565b6110cd858585856119e9565b5b6110db8585858585611a8d565b5050505050565b60008060006110f084610e70565b80925081935050506111516000808773ffffffffffffffffffffffffffffffffffffffff1673ffffffffffffffffffffffffffffffffffffffff16815260200190815260200160002060008481526020019081526020016000205482610f3b565b9250505092915050565b80518251146111b5576040517f08c379a00000000000000000000000000000000000000000000000000000000081526004018080602001828103825260478152602001806126fa6047913960600191505060405180910390fd5b600080600080600090506000809050600094505b8651851015611233578685815181106111de57fe5b602002602001015193507f8000000000000000000000000000000000000000000000000000000000000000808516141561121f578080600101915050611228565b81806001019250505b8460010194506111c9565b6060826040519080825280602002602001820160405280156112645781602001602082028038833980820191505090505b5090506060836040519080825280602002602001820160405280156112985781602001602082028038833980820191505090505b5090506060836040519080825280602002602001820160405280156112cc5781602001602082028038833980820191505090505b5090506060846040519080825280602002602001820160405280156113005781602001602082028038833980820191505090505b5090506000955060009450600098505b8a518910156114b2578a898151811061132557fe5b6020026020010151975089898151811061133b57fe5b602002602001015196507f8000000000000000000000000000000000000000000000000000000000000000808916141561146c578c73ffffffffffffffffffffffffffffffffffffffff16600260008a815260200190815260200160002060009054906101000a900473ffffffffffffffffffffffffffffffffffffffff1673ffffffffffffffffffffffffffffffffffffffff16146113da57600080fd5b8b600260008a815260200190815260200160002060006101000a81548173ffffffffffffffffffffffffffffffffffffffff021916908373ffffffffffffffffffffffffffffffffffffffff1602179055508782868151811061143957fe5b602002602001018181525050600181868151811061145357fe5b60200260200101818152505084806001019550506114a7565b8784878151811061147957fe5b6020026020010181815250508683878151811061149257fe5b60200260200101818152505085806001019650505b886001019850611310565b60008611156114c8576114c78d8d8686611cc6565b5b60008511156115d8578b73ffffffffffffffffffffffffffffffffffffffff168d73ffffffffffffffffffffffffffffffffffffffff163373ffffffffffffffffffffffffffffffffffffffff167f4a39dc06d4c0dbc64b70af90fd698a233a518aa5d07e595d983b8c0526c8f7fb8585604051808060200180602001838103835285818151815260200191508051906020019060200280838360005b83811015611580578082015181840152602081019050611565565b50505050905001838103825284818151815260200191508051906020019060200280838360005b838110156115c25780820151818401526020810190506115a7565b5050505090500194505050505060405180910390a45b50505050505050505050505050565b6116068473ffffffffffffffffffffffffffffffffffffffff166121cd565b1561189b5760008473ffffffffffffffffffffffffffffffffffffffff1663bc197c8133888787876040518663ffffffff1660e01b8152600401808673ffffffffffffffffffffffffffffffffffffffff1673ffffffffffffffffffffffffffffffffffffffff1681526020018573ffffffffffffffffffffffffffffffffffffffff1673ffffffffffffffffffffffffffffffffffffffff168152602001806020018060200180602001848103845287818151815260200191508051906020019060200280838360005b838110156116ec5780820151818401526020810190506116d1565b50505050905001848103835286818151815260200191508051906020019060200280838360005b8381101561172e578082015181840152602081019050611713565b50505050905001848103825285818151815260200191508051906020019080838360005b8381101561176d578082015181840152602081019050611752565b50505050905090810190601f16801561179a5780820380516001836020036101000a031916815260200191505b5098505050505050505050602060405180830381600087803b1580156117bf57600080fd5b505af11580156117d3573d6000803e3d6000fd5b505050506040513d60208110156117e957600080fd5b8101908080519060200190929190505050905063bc197c8160e01b7bffffffffffffffffffffffffffffffffffffffffffffffffffffffff1916817bffffffffffffffffffffffffffffffffffffffffffffffffffffffff191614611899576040517f08c379a000000000000000000000000000000000000000000000000000000000815260040180806020018281038252604c81526020018061251d604c913960600191505060405180910390fd5b505b5050505050565b8273ffffffffffffffffffffffffffffffffffffffff166002600083815260200190815260200160002060009054906101000a900473ffffffffffffffffffffffffffffffffffffffff1673ffffffffffffffffffffffffffffffffffffffff161461190d57600080fd5b816002600083815260200190815260200160002060006101000a81548173ffffffffffffffffffffffffffffffffffffffff021916908373ffffffffffffffffffffffffffffffffffffffff1602179055508173ffffffffffffffffffffffffffffffffffffffff168373ffffffffffffffffffffffffffffffffffffffff163373ffffffffffffffffffffffffffffffffffffffff167fc3d58168c5ae7397731d063d5bbf3d657854427343f4c083240f7aacaa2d0f62846001604051808381526020018281526020019250505060405180910390a4505050565b6119f68483836001612212565b611a038383836000612212565b8273ffffffffffffffffffffffffffffffffffffffff168473ffffffffffffffffffffffffffffffffffffffff163373ffffffffffffffffffffffffffffffffffffffff167fc3d58168c5ae7397731d063d5bbf3d657854427343f4c083240f7aacaa2d0f628585604051808381526020018281526020019250505060405180910390a450505050565b611aac8473ffffffffffffffffffffffffffffffffffffffff166121cd565b15611cbf5760008473ffffffffffffffffffffffffffffffffffffffff1663f23a6e6133888787876040518663ffffffff1660e01b8152600401808673ffffffffffffffffffffffffffffffffffffffff1673ffffffffffffffffffffffffffffffffffffffff1681526020018573ffffffffffffffffffffffffffffffffffffffff1673ffffffffffffffffffffffffffffffffffffffff16815260200184815260200183815260200180602001828103825283818151815260200191508051906020019080838360005b83811015611b93578082015181840152602081019050611b78565b50505050905090810190601f168015611bc05780820380516001836020036101000a031916815260200191505b509650505050505050602060405180830381600087803b158015611be357600080fd5b505af1158015611bf7573d6000803e3d6000fd5b505050506040513d6020811015611c0d57600080fd5b8101908080519060200190929190505050905063f23a6e6160e01b7bffffffffffffffffffffffffffffffffffffffffffffffffffffffff1916817bffffffffffffffffffffffffffffffffffffffffffffffffffffffff191614611cbd576040517f08c379a00000000000000000000000000000000000000000000000000000000081526004018080602001828103825260478152602001806126046047913960600191505060405180910390fd5b505b5050505050565b8051825114611d20576040517f08c379a00000000000000000000000000000000000000000000000000000000081526004018080602001828103825260428152602001806124db6042913960600191505060405180910390fd5b600080611d4084600081518110611d3357fe5b6020026020010151610e70565b915091506000611db66000808973ffffffffffffffffffffffffffffffffffffffff1673ffffffffffffffffffffffffffffffffffffffff1681526020019081526020016000206000858152602001908152602001600020548386600081518110611da757fe5b602002602001015160016122dc565b90506000611e2a6000808973ffffffffffffffffffffffffffffffffffffffff1673ffffffffffffffffffffffffffffffffffffffff1681526020019081526020016000206000868152602001908152602001600020548487600081518110611e1b57fe5b602002602001015160006122dc565b905060008651905060008590506000600190505b8281101561201257611e62898281518110611e5557fe5b6020026020010151610e70565b8097508198505050818714611fc157846000808d73ffffffffffffffffffffffffffffffffffffffff1673ffffffffffffffffffffffffffffffffffffffff168152602001908152602001600020600084815260200190815260200160002081905550836000808c73ffffffffffffffffffffffffffffffffffffffff1673ffffffffffffffffffffffffffffffffffffffff1681526020019081526020016000206000848152602001908152602001600020819055506000808c73ffffffffffffffffffffffffffffffffffffffff1673ffffffffffffffffffffffffffffffffffffffff16815260200190815260200160002060008881526020019081526020016000205494506000808b73ffffffffffffffffffffffffffffffffffffffff1673ffffffffffffffffffffffffffffffffffffffff16815260200190815260200160002060008881526020019081526020016000205493508691505b611fe185878a8481518110611fd257fe5b602002602001015160016122dc565b945061200384878a8481518110611ff457fe5b602002602001015160006122dc565b93508080600101915050611e3e565b50836000808c73ffffffffffffffffffffffffffffffffffffffff1673ffffffffffffffffffffffffffffffffffffffff168152602001908152602001600020600088815260200190815260200160002081905550826000808b73ffffffffffffffffffffffffffffffffffffffff1673ffffffffffffffffffffffffffffffffffffffff1681526020019081526020016000206000888152602001908152602001600020819055508873ffffffffffffffffffffffffffffffffffffffff168a73ffffffffffffffffffffffffffffffffffffffff163373ffffffffffffffffffffffffffffffffffffffff167f4a39dc06d4c0dbc64b70af90fd698a233a518aa5d07e595d983b8c0526c8f7fb8b8b604051808060200180602001838103835285818151815260200191508051906020019060200280838360005b8381101561216a57808201518184015260208101905061214f565b50505050905001838103825284818151815260200191508051906020019060200280838360005b838110156121ac578082015181840152602081019050612191565b5050505090500194505050505060405180910390a450505050505050505050565b600080823f90506000801b811415801561220a57507fc5d2460186f7233c927e7db2dcc703c0e500b653ca82273b7bfad8045d85a47060001b8114155b915050919050565b60008061221e85610e70565b80925081935050506122816000808873ffffffffffffffffffffffffffffffffffffffff1673ffffffffffffffffffffffffffffffffffffffff1681526020019081526020016000206000848152602001908152602001600020548286866122dc565b6000808873ffffffffffffffffffffffffffffffffffffffff1673ffffffffffffffffffffffffffffffffffffffff168152602001908152602001600020600084815260200190815260200160002081905550505050505050565b600080600185016020026101000390506000600160206001901b0390506000600181111561230657fe5b84600181111561231257fe5b141561238857602060020a8582848a901c16011061237b576040517f08c379a00000000000000000000000000000000000000000000000000000000081526004018080602001828103825260328152602001806126c86032913960400191505060405180910390fd5b8185901b87019250612463565b60018081111561239457fe5b8460018111156123a057fe5b14156124115784818389901c161015612404576040517f08c379a00000000000000000000000000000000000000000000000000000000081526004018080602001828103825260338152602001806124a86033913960400191505060405180910390fd5b8185901b87039250612462565b6040517f08c379a00000000000000000000000000000000000000000000000000000000081526004018080602001828103825260458152602001806126836045913960600191505060405180910390fd5b5b829250505094935050505056fe455243313135354d6978656446756e6769626c6523736166655472616e7366657246726f6d3a20494e56414c49445f4f50455241544f52455243313135355061636b656442616c616e6365235f7669657755706461746542696e56616c75653a20554e444552464c4f57455243313135355061636b656442616c616e6365235f7361666542617463685472616e7366657246726f6d3a20494e56414c49445f4152524159535f4c454e475448455243313135355061636b656442616c616e6365235f63616c6c6f6e45524331313535426174636852656365697665643a20494e56414c49445f4f4e5f524543454956455f4d455353414745455243313135354d6978656446756e6769626c65237361666542617463685472616e7366657246726f6d3a20494e56414c49445f524543495049454e54546f6b656e206973206e6f7420616e204e6f6e2d46756e6769626c6520746f6b656e455243313135354d6978656446756e6769626c65237361666542617463685472616e7366657246726f6d3a20494e56414c49445f4f50455241544f52455243313135355061636b656442616c616e6365235f63616c6c6f6e4552433131353552656365697665643a20494e56414c49445f4f4e5f524543454956455f4d455353414745455243313135354d6978656446756e6769626c6523736166655472616e7366657246726f6d3a20494e56414c49445f524543495049454e54455243313135355061636b656442616c616e6365235f7669657755706461746542696e56616c75653a20494e56414c49445f42494e5f57524954455f4f5045524154494f4e455243313135355061636b656442616c616e6365235f7669657755706461746542696e56616c75653a204f564552464c4f57455243313135354d6978656446756e6769626c65235f736166654d6978656442617463685472616e7366657246726f6d3a20494e56414c49445f4152524159535f4c454e475448a265627a7a72315820c07f751225dcc5c94997cd3c5a8a5355e76f9003659ba9a43ff832447f6a372f64736f6c634300050d0032",
  "source": "pragma solidity ^0.5.13;\n\nimport \"./ERC1155MixedFungible.sol\";\n\n\ncontract ERC1155MixedFungibleMintable is ERC1155MixedFungible {\n\n    uint256 internal nonce;\n    mapping (uint256 => uint256) internal maxIndex;\n\n\n    //\n    // Create Types (ERC20 & ERC721)\n    //\n\n    function _createType(string memory _uri, bool _isNF) internal returns (uint256 _type) {\n        _type = (++nonce << 128);\n\n        if (_isNF) {\n            _type = _type | TYPE_NF_BIT;\n        }\n\n        // emit a Transfer event with Create semantic to help with discovery.\n        emit TransferSingle(msg.sender, address(0x0), address(0x0), _type, 0);\n\n        if (bytes(_uri).length > 0) {\n            emit URI(_uri, _type);\n        }\n    }\n\n    //\n    // Fungible (ERC20)\n    //\n\n    function _mintFungible(address _to, uint256 _type, uint256 _amount, bytes memory _data) internal {\n        require(_type & TYPE_NF_BIT == 0, \"ERC1155MixedFungibleMintable#_mintFungible: INVALID_TYPE\");\n        _mint(_to, _type, _amount, _data);\n    }\n\n    function _mintFungibleBatch(address _to, uint256[] memory _types, uint256[] memory _amounts, bytes memory _data) internal {\n        for (uint256 i = 0; i < _types.length; ++i) {\n            require(_types[i] & TYPE_NF_BIT == 0, \"ERC1155MixedFungibleMintable#_mintFungibleBatch: INVALID_TYPE\");\n        }\n        _batchMint(_to, _types, _amounts, _data);\n    }\n\n    function _burnFungible(address _from, uint256 _type, uint256 _amount) internal {\n        require(_type & TYPE_NF_BIT == 0, \"ERC1155MixedFungibleMintable#_burnFungible: INVALID_TYPE\");\n        require(balanceOf(_from, _type) >= _amount, \"ERC1155MixedFungibleMintable#_burnFungible: INSUFFICIENT_BALANCE\");\n        _burn(_from, _type, _amount);\n    }\n\n    function _burnFungibleBatch(address _from, uint256[] memory _types, uint256[] memory _amounts) internal {\n        for (uint256 i = 0; i < _types.length; ++i) {\n            require(_types[i] & TYPE_NF_BIT == 0, \"ERC1155MixedFungibleMintable#_burnFungibleBatch: INVALID_TYPE\");\n            require(balanceOf(_from, _types[i]) >= _amounts[i], \"ERC1155MixedFungibleMintable#_burnFungibleBatch: INSUFFICIENT_BALANCE\");\n        }\n        _batchBurn(_from, _types, _amounts);\n    }\n\n    //\n    // Non-Fungible (ERC721)\n    //\n\n    function _mintNonFungible(address _to, uint256 _type, bytes memory _data) internal returns (uint256 tokenId) {\n        require(_type & TYPE_NF_BIT == TYPE_NF_BIT, \"ERC1155MixedFungibleMintable#_mintNonFungible: INVALID_TYPE\");\n\n        // Index are 1-based.\n        uint256 index = maxIndex[_type] + 1;\n        maxIndex[_type] = index;\n\n        tokenId  = _type | index;\n        nfOwners[tokenId] = _to;\n\n        emit TransferSingle(msg.sender, address(0x0), _to, tokenId, 1);\n        _callonERC1155Received(address(0x0), _to, tokenId, 1, _data);\n    }\n\n    function _mintNonFungibleBatch(address _to, uint256[] memory _types, bytes memory _data) internal returns (uint256[] memory) {\n        uint256[] memory _tokenIds = new uint256[](_types.length);\n        uint256[] memory _amounts = new uint256[](_types.length);\n\n        for (uint256 i = 0; i < _types.length; ++i) {\n            uint256 _type = _types[i];\n            require(_type & TYPE_NF_BIT == TYPE_NF_BIT, \"ERC1155MixedFungibleMintable#_mintNonFungibleBatch: INVALID_TYPE\");\n\n            // Index are 1-based.\n            uint256 _index = maxIndex[_type] + 1;\n            maxIndex[_type] = _index;\n\n            uint256 _tokenId  = _type | _index;\n            nfOwners[_tokenId] = _to;\n            _tokenIds[i] = _tokenId;\n            _amounts[i] = 1;\n        }\n\n        emit TransferBatch(msg.sender, address(0x0), _to, _tokenIds, _amounts);\n        _callonERC1155BatchReceived(address(0x0), _to, _tokenIds, _amounts, _data);\n        return _tokenIds;\n    }\n\n    function _burnNonFungible(address _from, uint256 _tokenId) internal {\n        require((_tokenId & TYPE_NF_BIT == TYPE_NF_BIT) && (_tokenId & NF_INDEX_MASK != 0), \"ERC1155MixedFungibleMintable#_burnNonFungible: INVALID_TYPE\");\n        require(ownerOf(_tokenId) == _from, \"ERC1155MixedFungibleMintable#_burnNonFungible: INVALID_OWNER\");\n\n        nfOwners[_tokenId] = address(0x0);\n        emit TransferSingle(msg.sender, _from, address(0x0), _tokenId, 1);\n    }\n\n    function _burnNonFungibleBatch(address _from, uint256[] memory _tokenIds) internal {\n        uint256[] memory _amounts = new uint256[](_tokenIds.length);\n\n        for (uint256 i = 0; i < _tokenIds.length; ++i) {\n            uint256 _tokenId = _tokenIds[i];\n            require((_tokenId & TYPE_NF_BIT == TYPE_NF_BIT) && (_tokenId & NF_INDEX_MASK != 0), \"ERC1155MixedFungibleMintable#_burnNonFungibleBatch: INVALID_TYPE\");\n            require(ownerOf(_tokenId) == _from, \"ERC1155MixedFungibleMintable#_burnNonFungibleBatch: INVALID_OWNER\");\n\n            nfOwners[_tokenId] = address(0x0);\n            _amounts[i] = 1;\n        }\n        emit TransferBatch(msg.sender, _from, address(0x0), _tokenIds, _amounts);\n    }\n}\n",
  "sourcePath": "/Users/robsecord/workspace/Ethereum/ChargedParticles/ChargedParticlesEth/contracts/lib/ERC1155MixedFungibleMintable.sol",
  "compiler": {
    "name": "solc",
    "version": "0.5.13+commit.5b0b510c.Emscripten.clang"
  },
  "schemaVersion": "3.0.11",
  "updatedAt": "2020-01-11T08:12:26.671Z",
  "devdoc": {
    "methods": {
      "getIDBinIndex(uint256)": {
        "params": {
          "_id": "Token id"
        },
        "return": "(Bin number, ID\"s index within that bin)"
      },
      "getValueInBin(uint256,uint256)": {
        "params": {
          "_binValues": "uint256 containing the balances of IDS_PER_UINT256 ids",
          "_index": "Index at which to retrieve amount"
        },
        "return": "amount at given _index in _bin"
      },
      "isApprovedForAll(address,address)": {
        "params": {
          "_operator": "Address of authorized operator",
          "_owner": "The owner of the Tokens"
        },
        "return": "True if the operator is approved, false if not"
      },
      "safeBatchTransferFrom(address,address,uint256[],uint256[],bytes)": {
        "details": "Arrays should be sorted so that all ids in a same storage slot are adjacent (more efficient)",
        "params": {
          "_amounts": "Transfer amounts per token type",
          "_data": "Additional data with no specified format, sent in call to `_to`",
          "_from": "Source addresses",
          "_ids": "IDs of each token type",
          "_to": "Target addresses"
        }
      },
      "safeTransferFrom(address,address,uint256,uint256,bytes)": {
        "params": {
          "_amount": "Transfered amount",
          "_data": "Additional data with no specified format, sent in call to `_to`",
          "_from": "Source address",
          "_id": "ID of the token type",
          "_to": "Target address"
        }
      },
      "setApprovalForAll(address,bool)": {
        "params": {
          "_approved": "True if the operator is approved, false to revoke approval",
          "_operator": "Address to add to the set of authorized operators"
        }
      },
      "supportsInterface(bytes4)": {
        "params": {
          "_interfaceID": "The interface identifier, as specified in ERC-165"
        },
        "return": "`true` if the contract implements `_interfaceID` and"
      }
    }
  },
  "userdoc": {
    "methods": {
      "getIDBinIndex(uint256)": {
        "notice": "Return the bin number and index within that bin where ID is"
      },
      "getValueInBin(uint256,uint256)": {
        "notice": "Return amount in _binValues at position _index"
      },
      "isApprovedForAll(address,address)": {
        "notice": "Queries the approval status of an operator for a given owner"
      },
      "safeBatchTransferFrom(address,address,uint256[],uint256[],bytes)": {
        "notice": "Send multiple types of Tokens from the _from address to the _to address (with safety call)"
      },
      "safeTransferFrom(address,address,uint256,uint256,bytes)": {
        "notice": "Transfers amount amount of an _id from the _from address to the _to address specified"
      },
      "setApprovalForAll(address,bool)": {
        "notice": "Enable or disable approval for a third party (\"operator\") to manage all of caller's tokens"
      },
      "supportsInterface(bytes4)": {
        "notice": "Query if a contract implements an interface"
      }
    }
  }
}