{
  "contractName": "ERC1155",
  "abi": [
    {
      "anonymous": false,
      "inputs": [
        {
          "indexed": true,
          "internalType": "address",
          "name": "_owner",
          "type": "address"
        },
        {
          "indexed": true,
          "internalType": "address",
          "name": "_operator",
          "type": "address"
        },
        {
          "indexed": false,
          "internalType": "bool",
          "name": "_approved",
          "type": "bool"
        }
      ],
      "name": "ApprovalForAll",
      "type": "event"
    },
    {
      "anonymous": false,
      "inputs": [
        {
          "indexed": true,
          "internalType": "address",
          "name": "_operator",
          "type": "address"
        },
        {
          "indexed": true,
          "internalType": "address",
          "name": "_from",
          "type": "address"
        },
        {
          "indexed": true,
          "internalType": "address",
          "name": "_to",
          "type": "address"
        },
        {
          "indexed": false,
          "internalType": "uint256[]",
          "name": "_ids",
          "type": "uint256[]"
        },
        {
          "indexed": false,
          "internalType": "uint256[]",
          "name": "_amounts",
          "type": "uint256[]"
        }
      ],
      "name": "TransferBatch",
      "type": "event"
    },
    {
      "anonymous": false,
      "inputs": [
        {
          "indexed": true,
          "internalType": "address",
          "name": "_operator",
          "type": "address"
        },
        {
          "indexed": true,
          "internalType": "address",
          "name": "_from",
          "type": "address"
        },
        {
          "indexed": true,
          "internalType": "address",
          "name": "_to",
          "type": "address"
        },
        {
          "indexed": false,
          "internalType": "uint256",
          "name": "_id",
          "type": "uint256"
        },
        {
          "indexed": false,
          "internalType": "uint256",
          "name": "_amount",
          "type": "uint256"
        }
      ],
      "name": "TransferSingle",
      "type": "event"
    },
    {
      "anonymous": false,
      "inputs": [
        {
          "indexed": false,
          "internalType": "string",
          "name": "_uri",
          "type": "string"
        },
        {
          "indexed": true,
          "internalType": "uint256",
          "name": "_type",
          "type": "uint256"
        }
      ],
      "name": "URI",
      "type": "event"
    },
    {
      "constant": true,
      "inputs": [
        {
          "internalType": "uint256",
          "name": "_tokenId",
          "type": "uint256"
        }
      ],
      "name": "uri",
      "outputs": [
        {
          "internalType": "string",
          "name": "",
          "type": "string"
        }
      ],
      "payable": false,
      "stateMutability": "view",
      "type": "function"
    },
    {
      "constant": true,
      "inputs": [
        {
          "internalType": "bytes4",
          "name": "_interfaceID",
          "type": "bytes4"
        }
      ],
      "name": "supportsInterface",
      "outputs": [
        {
          "internalType": "bool",
          "name": "",
          "type": "bool"
        }
      ],
      "payable": false,
      "stateMutability": "view",
      "type": "function"
    },
    {
      "constant": true,
      "inputs": [
        {
          "internalType": "uint256",
          "name": "_tokenId",
          "type": "uint256"
        }
      ],
      "name": "ownerOf",
      "outputs": [
        {
          "internalType": "address",
          "name": "",
          "type": "address"
        }
      ],
      "payable": false,
      "stateMutability": "view",
      "type": "function"
    },
    {
      "constant": true,
      "inputs": [
        {
          "internalType": "address",
          "name": "_owner",
          "type": "address"
        },
        {
          "internalType": "uint256",
          "name": "_tokenId",
          "type": "uint256"
        }
      ],
      "name": "balanceOf",
      "outputs": [
        {
          "internalType": "uint256",
          "name": "",
          "type": "uint256"
        }
      ],
      "payable": false,
      "stateMutability": "view",
      "type": "function"
    },
    {
      "constant": true,
      "inputs": [
        {
          "internalType": "address[]",
          "name": "_owners",
          "type": "address[]"
        },
        {
          "internalType": "uint256[]",
          "name": "_tokenIds",
          "type": "uint256[]"
        }
      ],
      "name": "balanceOfBatch",
      "outputs": [
        {
          "internalType": "uint256[]",
          "name": "",
          "type": "uint256[]"
        }
      ],
      "payable": false,
      "stateMutability": "view",
      "type": "function"
    },
    {
      "constant": false,
      "inputs": [
        {
          "internalType": "address",
          "name": "_operator",
          "type": "address"
        },
        {
          "internalType": "bool",
          "name": "_approved",
          "type": "bool"
        }
      ],
      "name": "setApprovalForAll",
      "outputs": [],
      "payable": false,
      "stateMutability": "nonpayable",
      "type": "function"
    },
    {
      "constant": true,
      "inputs": [
        {
          "internalType": "address",
          "name": "_owner",
          "type": "address"
        },
        {
          "internalType": "address",
          "name": "_operator",
          "type": "address"
        }
      ],
      "name": "isApprovedForAll",
      "outputs": [
        {
          "internalType": "bool",
          "name": "isOperator",
          "type": "bool"
        }
      ],
      "payable": false,
      "stateMutability": "view",
      "type": "function"
    },
    {
      "constant": false,
      "inputs": [
        {
          "internalType": "address",
          "name": "_from",
          "type": "address"
        },
        {
          "internalType": "address",
          "name": "_to",
          "type": "address"
        },
        {
          "internalType": "uint256",
          "name": "_id",
          "type": "uint256"
        },
        {
          "internalType": "uint256",
          "name": "_amount",
          "type": "uint256"
        },
        {
          "internalType": "bytes",
          "name": "_data",
          "type": "bytes"
        }
      ],
      "name": "safeTransferFrom",
      "outputs": [],
      "payable": false,
      "stateMutability": "nonpayable",
      "type": "function"
    },
    {
      "constant": false,
      "inputs": [
        {
          "internalType": "address",
          "name": "_from",
          "type": "address"
        },
        {
          "internalType": "address",
          "name": "_to",
          "type": "address"
        },
        {
          "internalType": "uint256[]",
          "name": "_ids",
          "type": "uint256[]"
        },
        {
          "internalType": "uint256[]",
          "name": "_amounts",
          "type": "uint256[]"
        },
        {
          "internalType": "bytes",
          "name": "_data",
          "type": "bytes"
        }
      ],
      "name": "safeBatchTransferFrom",
      "outputs": [],
      "payable": false,
      "stateMutability": "nonpayable",
      "type": "function"
    }
  ],
  "bytecode": "0x608060405234801561001057600080fd5b50612342806100206000396000f3fe608060405234801561001057600080fd5b50600436106100925760003560e01c80634e1273f4116100665780634e1273f4146101435780636352211e14610173578063a22cb465146101a3578063e985e9c5146101bf578063f242432a146101ef57610092565b8062fdd58e1461009757806301ffc9a7146100c75780630e89341c146100f75780632eb2c2d614610127575b600080fd5b6100b160048036036100ac9190810190611951565b61020b565b6040516100be9190612028565b60405180910390f35b6100e160048036036100dc91908101906119f9565b61034c565b6040516100ee9190611f4b565b60405180910390f35b610111600480360361010c9190810190611a4b565b6103fd565b60405161011e9190611f66565b60405180910390f35b610141600480360361013c91908101906117c7565b610480565b005b61015d6004803603610158919081019061198d565b61058f565b60405161016a9190611ef2565b60405180910390f35b61018d60048036036101889190810190611a4b565b6107d3565b60405161019a9190611e15565b60405180910390f35b6101bd60048036036101b89190810190611915565b610874565b005b6101d960048036036101d4919081019061178b565b610971565b6040516101e69190611f4b565b60405180910390f35b61020960048036036102049190810190611886565b610a05565b005b60007f8000000000000000000000000000000000000000000000000000000000000000808316148015610273575060007fffffffffffffffffffffffffffffffffffffffffffffffffffffffffffffffff6fffffffffffffffffffffffffffffffff16831614155b156102f2578273ffffffffffffffffffffffffffffffffffffffff166003600084815260200190815260200160002060009054906101000a900473ffffffffffffffffffffffffffffffffffffffff1673ffffffffffffffffffffffffffffffffffffffff16146102e55760006102e8565b60015b60ff169050610346565b600160008473ffffffffffffffffffffffffffffffffffffffff1673ffffffffffffffffffffffffffffffffffffffff16815260200190815260200160002060008381526020019081526020016000205490505b92915050565b60006301ffc9a760e01b7bffffffffffffffffffffffffffffffffffffffffffffffffffffffff1916827bffffffffffffffffffffffffffffffffffffffffffffffffffffffff191614806103e5575063d9b67a2660e01b7bffffffffffffffffffffffffffffffffffffffffffffffffffffffff1916827bffffffffffffffffffffffffffffffffffffffffffffffffffffffff1916145b156103f357600190506103f8565b600090505b919050565b6060600060807fffffffffffffffffffffffffffffffffffffffffffffffffffffffffffffffff6fffffffffffffffffffffffffffffffff16901b831690506005600082815260200190815260200160002061045884610b14565b604051602001610469929190611de6565b604051602081830303815290604052915050919050565b8473ffffffffffffffffffffffffffffffffffffffff163373ffffffffffffffffffffffffffffffffffffffff1614806104c057506104bf8533610971565b5b6104ff576040517f08c379a00000000000000000000000000000000000000000000000000000000081526004016104f690611fc8565b60405180910390fd5b600073ffffffffffffffffffffffffffffffffffffffff168473ffffffffffffffffffffffffffffffffffffffff16141561056f576040517f08c379a000000000000000000000000000000000000000000000000000000000815260040161056690611fe8565b60405180910390fd5b61057b85858585610c47565b6105888585858585610ff9565b5050505050565b606081518351146105d5576040517f08c379a00000000000000000000000000000000000000000000000000000000081526004016105cc90611fa8565b60405180910390fd5b606083516040519080825280602002602001820160405280156106075781602001602082028038833980820191505090505b50905060008090505b84518110156107c857600084828151811061062757fe5b602002602001015190507f8000000000000000000000000000000000000000000000000000000000000000808216148015610697575060007fffffffffffffffffffffffffffffffffffffffffffffffffffffffffffffffff6fffffffffffffffffffffffffffffffff16821614155b1561073f578582815181106106a857fe5b602002602001015173ffffffffffffffffffffffffffffffffffffffff166003600083815260200190815260200160002060009054906101000a900473ffffffffffffffffffffffffffffffffffffffff1673ffffffffffffffffffffffffffffffffffffffff161461071c57600061071f565b60015b60ff1683838151811061072e57fe5b6020026020010181815250506107bc565b6001600087848151811061074f57fe5b602002602001015173ffffffffffffffffffffffffffffffffffffffff1673ffffffffffffffffffffffffffffffffffffffff1681526020019081526020016000206000828152602001908152602001600020548383815181106107af57fe5b6020026020010181815250505b50806001019050610610565b508091505092915050565b60007f800000000000000000000000000000000000000000000000000000000000000080831614610839576040517f08c379a000000000000000000000000000000000000000000000000000000000815260040161083090611f88565b60405180910390fd5b6003600083815260200190815260200160002060009054906101000a900473ffffffffffffffffffffffffffffffffffffffff169050919050565b80600260003373ffffffffffffffffffffffffffffffffffffffff1673ffffffffffffffffffffffffffffffffffffffff16815260200190815260200160002060008473ffffffffffffffffffffffffffffffffffffffff1673ffffffffffffffffffffffffffffffffffffffff16815260200190815260200160002060006101000a81548160ff0219169083151502179055508173ffffffffffffffffffffffffffffffffffffffff163373ffffffffffffffffffffffffffffffffffffffff167f17307eab39ab6107e8899845ad3d59bd9653f200f220920489ca2b5937696c31836040516109659190611f4b565b60405180910390a35050565b6000600260008473ffffffffffffffffffffffffffffffffffffffff1673ffffffffffffffffffffffffffffffffffffffff16815260200190815260200160002060008373ffffffffffffffffffffffffffffffffffffffff1673ffffffffffffffffffffffffffffffffffffffff16815260200190815260200160002060009054906101000a900460ff16905092915050565b8473ffffffffffffffffffffffffffffffffffffffff163373ffffffffffffffffffffffffffffffffffffffff161480610a455750610a448533610971565b5b610a84576040517f08c379a0000000000000000000000000000000000000000000000000000000008152600401610a7b90611fc8565b60405180910390fd5b600073ffffffffffffffffffffffffffffffffffffffff168473ffffffffffffffffffffffffffffffffffffffff161415610af4576040517f08c379a0000000000000000000000000000000000000000000000000000000008152600401610aeb90611fe8565b60405180910390fd5b610b008585858561112e565b610b0d858585858561144e565b5050505050565b60606000821415610b5c576040518060400160405280600181526020017f30000000000000000000000000000000000000000000000000000000000000008152509050610c42565b6000829050600083905060005b60008314610b8b578080600101915050600a8381610b8357fe5b049250610b69565b6060816040519080825280601f01601f191660200182016040528015610bc05781602001600182028038833980820191505090505b50905060006001830390505b60008414610c3957600a8481610bde57fe5b0660300160f81b82828060019003935081518110610bf857fe5b60200101907effffffffffffffffffffffffffffffffffffffffffffffffffffffffffffff1916908160001a905350600a8481610c3157fe5b049350610bcc565b81955050505050505b919050565b8051825114610c8b576040517f08c379a0000000000000000000000000000000000000000000000000000000008152600401610c8290611fa8565b60405180910390fd5b60008060008451905060008090505b81811015610f7157858181518110610cae57fe5b60200260200101519350848181518110610cc457fe5b602002602001015192507f80000000000000000000000000000000000000000000000000000000000000008085161415610dba578773ffffffffffffffffffffffffffffffffffffffff166003600086815260200190815260200160002060009054906101000a900473ffffffffffffffffffffffffffffffffffffffff1673ffffffffffffffffffffffffffffffffffffffff1614610d6357600080fd5b866003600086815260200190815260200160002060006101000a81548173ffffffffffffffffffffffffffffffffffffffff021916908373ffffffffffffffffffffffffffffffffffffffff160217905550610f66565b600160008973ffffffffffffffffffffffffffffffffffffffff1673ffffffffffffffffffffffffffffffffffffffff168152602001908152602001600020600085815260200190815260200160002054831115610e1757600080fd5b82600160008a73ffffffffffffffffffffffffffffffffffffffff1673ffffffffffffffffffffffffffffffffffffffff16815260200190815260200160002060008681526020019081526020016000205403600160008a73ffffffffffffffffffffffffffffffffffffffff1673ffffffffffffffffffffffffffffffffffffffff16815260200190815260200160002060008681526020019081526020016000208190555082600160008973ffffffffffffffffffffffffffffffffffffffff1673ffffffffffffffffffffffffffffffffffffffff16815260200190815260200160002060008681526020019081526020016000205401600160008973ffffffffffffffffffffffffffffffffffffffff1673ffffffffffffffffffffffffffffffffffffffff1681526020019081526020016000206000868152602001908152602001600020819055505b806001019050610c9a565b508573ffffffffffffffffffffffffffffffffffffffff168773ffffffffffffffffffffffffffffffffffffffff163373ffffffffffffffffffffffffffffffffffffffff167f4a39dc06d4c0dbc64b70af90fd698a233a518aa5d07e595d983b8c0526c8f7fb8888604051610fe8929190611f14565b60405180910390a450505050505050565b61100284611583565b156111275760008473ffffffffffffffffffffffffffffffffffffffff1663bc197c8133888787876040518663ffffffff1660e01b815260040161104a959493929190611e30565b602060405180830381600087803b15801561106457600080fd5b505af1158015611078573d6000803e3d6000fd5b505050506040513d601f19601f8201168201806040525061109c9190810190611a22565b905063bc197c8160e01b7bffffffffffffffffffffffffffffffffffffffffffffffffffffffff1916817bffffffffffffffffffffffffffffffffffffffffffffffffffffffff191614611125576040517f08c379a000000000000000000000000000000000000000000000000000000000815260040161111c90612008565b60405180910390fd5b505b5050505050565b7f8000000000000000000000000000000000000000000000000000000000000000808316141561121e578373ffffffffffffffffffffffffffffffffffffffff166003600084815260200190815260200160002060009054906101000a900473ffffffffffffffffffffffffffffffffffffffff1673ffffffffffffffffffffffffffffffffffffffff16146111c357600080fd5b826003600084815260200190815260200160002060006101000a81548173ffffffffffffffffffffffffffffffffffffffff021916908373ffffffffffffffffffffffffffffffffffffffff160217905550600190506113ca565b600160008573ffffffffffffffffffffffffffffffffffffffff1673ffffffffffffffffffffffffffffffffffffffff16815260200190815260200160002060008381526020019081526020016000205481111561127b57600080fd5b80600160008673ffffffffffffffffffffffffffffffffffffffff1673ffffffffffffffffffffffffffffffffffffffff16815260200190815260200160002060008481526020019081526020016000205403600160008673ffffffffffffffffffffffffffffffffffffffff1673ffffffffffffffffffffffffffffffffffffffff16815260200190815260200160002060008481526020019081526020016000208190555080600160008573ffffffffffffffffffffffffffffffffffffffff1673ffffffffffffffffffffffffffffffffffffffff16815260200190815260200160002060008481526020019081526020016000205401600160008573ffffffffffffffffffffffffffffffffffffffff1673ffffffffffffffffffffffffffffffffffffffff1681526020019081526020016000206000848152602001908152602001600020819055505b8273ffffffffffffffffffffffffffffffffffffffff168473ffffffffffffffffffffffffffffffffffffffff163373ffffffffffffffffffffffffffffffffffffffff167fc3d58168c5ae7397731d063d5bbf3d657854427343f4c083240f7aacaa2d0f628585604051611440929190612043565b60405180910390a450505050565b61145784611583565b1561157c5760008473ffffffffffffffffffffffffffffffffffffffff1663f23a6e6133888787876040518663ffffffff1660e01b815260040161149f959493929190611e98565b602060405180830381600087803b1580156114b957600080fd5b505af11580156114cd573d6000803e3d6000fd5b505050506040513d601f19601f820116820180604052506114f19190810190611a22565b905063f23a6e6160e01b7bffffffffffffffffffffffffffffffffffffffffffffffffffffffff1916817bffffffffffffffffffffffffffffffffffffffffffffffffffffffff19161461157a576040517f08c379a000000000000000000000000000000000000000000000000000000000815260040161157190612008565b60405180910390fd5b505b5050505050565b600080823f90506000801b81141580156115c057507fc5d2460186f7233c927e7db2dcc703c0e500b653ca82273b7bfad8045d85a47060001b8114155b915050919050565b6000813590506115d7816122a3565b92915050565b600082601f8301126115ee57600080fd5b81356116016115fc82612099565b61206c565b9150818183526020840193506020810190508385602084028201111561162657600080fd5b60005b83811015611656578161163c88826115c8565b845260208401935060208301925050600181019050611629565b5050505092915050565b600082601f83011261167157600080fd5b813561168461167f826120c1565b61206c565b915081818352602084019350602081019050838560208402820111156116a957600080fd5b60005b838110156116d957816116bf8882611776565b8452602084019350602083019250506001810190506116ac565b5050505092915050565b6000813590506116f2816122ba565b92915050565b600081359050611707816122d1565b92915050565b60008151905061171c816122d1565b92915050565b600082601f83011261173357600080fd5b8135611746611741826120e9565b61206c565b9150808252602083016020830185838301111561176257600080fd5b61176d838284612250565b50505092915050565b600081359050611785816122e8565b92915050565b6000806040838503121561179e57600080fd5b60006117ac858286016115c8565b92505060206117bd858286016115c8565b9150509250929050565b600080600080600060a086880312156117df57600080fd5b60006117ed888289016115c8565b95505060206117fe888289016115c8565b945050604086013567ffffffffffffffff81111561181b57600080fd5b61182788828901611660565b935050606086013567ffffffffffffffff81111561184457600080fd5b61185088828901611660565b925050608086013567ffffffffffffffff81111561186d57600080fd5b61187988828901611722565b9150509295509295909350565b600080600080600060a0868803121561189e57600080fd5b60006118ac888289016115c8565b95505060206118bd888289016115c8565b94505060406118ce88828901611776565b93505060606118df88828901611776565b925050608086013567ffffffffffffffff8111156118fc57600080fd5b61190888828901611722565b9150509295509295909350565b6000806040838503121561192857600080fd5b6000611936858286016115c8565b9250506020611947858286016116e3565b9150509250929050565b6000806040838503121561196457600080fd5b6000611972858286016115c8565b925050602061198385828601611776565b9150509250929050565b600080604083850312156119a057600080fd5b600083013567ffffffffffffffff8111156119ba57600080fd5b6119c6858286016115dd565b925050602083013567ffffffffffffffff8111156119e357600080fd5b6119ef85828601611660565b9150509250929050565b600060208284031215611a0b57600080fd5b6000611a19848285016116f8565b91505092915050565b600060208284031215611a3457600080fd5b6000611a428482850161170d565b91505092915050565b600060208284031215611a5d57600080fd5b6000611a6b84828501611776565b91505092915050565b6000611a808383611dc8565b60208301905092915050565b611a958161221a565b82525050565b611aa4816121a6565b82525050565b6000611ab58261213a565b611abf8185612168565b9350611aca83612115565b8060005b83811015611afb578151611ae28882611a74565b9750611aed8361215b565b925050600181019050611ace565b5085935050505092915050565b611b11816121b8565b82525050565b6000611b2282612145565b611b2c8185612179565b9350611b3c81856020860161225f565b611b4581612292565b840191505092915050565b6000611b5b82612150565b611b65818561218a565b9350611b7581856020860161225f565b611b7e81612292565b840191505092915050565b6000611b9482612150565b611b9e818561219b565b9350611bae81856020860161225f565b80840191505092915050565b600081546001811660008114611bd75760018114611bfc57611c40565b607f6002830416611be8818761219b565b955060ff1983168652808601935050611c40565b60028204611c0a818761219b565b9550611c1585612125565b60005b82811015611c3757815481890152600182019150602081019050611c18565b82880195505050505b505092915050565b6000611c5560058361219b565b91507f2e6a736f6e0000000000000000000000000000000000000000000000000000006000830152600582019050919050565b6000611c9560048361218a565b91507f45333034000000000000000000000000000000000000000000000000000000006000830152602082019050919050565b6000611cd560048361218a565b91507f45333033000000000000000000000000000000000000000000000000000000006000830152602082019050919050565b6000611d1560048361218a565b91507f45333035000000000000000000000000000000000000000000000000000000006000830152602082019050919050565b6000611d5560048361218a565b91507f45333031000000000000000000000000000000000000000000000000000000006000830152602082019050919050565b6000611d9560048361218a565b91507f45333032000000000000000000000000000000000000000000000000000000006000830152602082019050919050565b611dd181612210565b82525050565b611de081612210565b82525050565b6000611df28285611bba565b9150611dfe8284611b89565b9150611e0982611c48565b91508190509392505050565b6000602082019050611e2a6000830184611a9b565b92915050565b600060a082019050611e456000830188611a8c565b611e526020830187611a9b565b8181036040830152611e648186611aaa565b90508181036060830152611e788185611aaa565b90508181036080830152611e8c8184611b17565b90509695505050505050565b600060a082019050611ead6000830188611a8c565b611eba6020830187611a9b565b611ec76040830186611dd7565b611ed46060830185611dd7565b8181036080830152611ee68184611b17565b90509695505050505050565b60006020820190508181036000830152611f0c8184611aaa565b905092915050565b60006040820190508181036000830152611f2e8185611aaa565b90508181036020830152611f428184611aaa565b90509392505050565b6000602082019050611f606000830184611b08565b92915050565b60006020820190508181036000830152611f808184611b50565b905092915050565b60006020820190508181036000830152611fa181611c88565b9050919050565b60006020820190508181036000830152611fc181611cc8565b9050919050565b60006020820190508181036000830152611fe181611d08565b9050919050565b6000602082019050818103600083015261200181611d48565b9050919050565b6000602082019050818103600083015261202181611d88565b9050919050565b600060208201905061203d6000830184611dd7565b92915050565b60006040820190506120586000830185611dd7565b6120656020830184611dd7565b9392505050565b6000604051905081810181811067ffffffffffffffff8211171561208f57600080fd5b8060405250919050565b600067ffffffffffffffff8211156120b057600080fd5b602082029050602081019050919050565b600067ffffffffffffffff8211156120d857600080fd5b602082029050602081019050919050565b600067ffffffffffffffff82111561210057600080fd5b601f19601f8301169050602081019050919050565b6000819050602082019050919050565b60008190508160005260206000209050919050565b600081519050919050565b600081519050919050565b600081519050919050565b6000602082019050919050565b600082825260208201905092915050565b600082825260208201905092915050565b600082825260208201905092915050565b600081905092915050565b60006121b1826121f0565b9050919050565b60008115159050919050565b60007fffffffff0000000000000000000000000000000000000000000000000000000082169050919050565b600073ffffffffffffffffffffffffffffffffffffffff82169050919050565b6000819050919050565b60006122258261222c565b9050919050565b60006122378261223e565b9050919050565b6000612249826121f0565b9050919050565b82818337600083830152505050565b60005b8381101561227d578082015181840152602081019050612262565b8381111561228c576000848401525b50505050565b6000601f19601f8301169050919050565b6122ac816121a6565b81146122b757600080fd5b50565b6122c3816121b8565b81146122ce57600080fd5b50565b6122da816121c4565b81146122e557600080fd5b50565b6122f181612210565b81146122fc57600080fd5b5056fea365627a7a72315820c34bf3550a63865dbbf6bcf8aacb30be21808c278479f496e3ba733170b56db96c6578706572696d656e74616cf564736f6c634300050d0040",
  "source": "// ChargedParticlesERC1155.sol -- Interest-bearing NFTs based on the DAI Savings Token\n// Copyright (C) 2020 robsecord\n\n// This program is free software: you can redistribute it and/or modify\n// it under the terms of the GNU Affero General Public License as published by\n// the Free Software Foundation, either version 3 of the License, or\n// (at your option) any later version.\n//\n// This program is distributed in the hope that it will be useful,\n// but WITHOUT ANY WARRANTY; without even the implied warranty of\n// MERCHANTABILITY or FITNESS FOR A PARTICULAR PURPOSE.  See the\n// GNU Affero General Public License for more details.\n//\n// You should have received a copy of the GNU Affero General Public License\n// along with this program.  If not, see <https://www.gnu.org/licenses/>.\n\npragma solidity ^0.5.13;\npragma experimental ABIEncoderV2;\n\n// ERROR CODES:\n//  100:        ADDRESS, OWNER, OPERATOR\n//      101         Invalid Address\n//      102         Sender is not owner\n//      103         Sender is not owner or operator\n//  200:        MATH\n//      201         Underflow\n//      202         Overflow\n//  300:        ERC1155\n//      301         Invalid Recipient\n//      302         Invalid on-received message\n//      303         Invalid arrays length\n//      304         Invalid type\n//      305         Invalid owner/operator\n//      306         Insufficient balance\n//      307         Invalid URI for Type\n//  400:        ChargedParticles\n//      401         Invalid Method\n//      402         Unregistered Type\n//      403         Particle has no Charge\n//      404         Insufficient ETH Balance\n//      405         Insufficient DAI Balance\n//      406         Invalid value for \"requiredDai\" parameter\n//      407         No access to Mint (Private Type)\n//      408         Transfer Failed\n\n/**\n * @title Chai.money interface\n * @dev https://github.com/dapphub/chai\n */\ncontract IChai {\n    function transfer(address dst, uint wad) external returns (bool);\n    // like transferFrom but dai-denominated\n    function move(address src, address dst, uint wad) external returns (bool);\n    function transferFrom(address src, address dst, uint wad) public returns (bool);\n    function approve(address usr, uint wad) external returns (bool);\n    function balanceOf(address usr) external returns (uint);\n\n    // Approve by signature\n    function permit(address holder, address spender, uint256 nonce, uint256 expiry, bool allowed, uint8 v, bytes32 r, bytes32 s) external;\n\n    function dai(address usr) external returns (uint wad);\n    function dai(uint chai) external returns (uint wad);\n\n    // wad is denominated in dai\n    function join(address dst, uint wad) external;\n\n    // wad is denominated in (1/chi) * dai\n    function exit(address src, uint wad) public;\n\n    // wad is denominated in dai\n    function draw(address src, uint wad) external returns (uint chai);\n}\n\n/**\n * @title ERC165\n * @dev https://github.com/ethereum/EIPs/blob/master/EIPS/eip-165.md\n */\ninterface IERC165 {\n    function supportsInterface(bytes4 _interfaceId) external view returns (bool);\n}\n\n/**\n * @title ERC20 interface\n * @dev see https://eips.ethereum.org/EIPS/eip-20\n */\ninterface IERC20 {\n    function transfer(address to, uint256 value) external returns (bool);\n    function approve(address spender, uint256 value) external returns (bool);\n    function transferFrom(address from, address to, uint256 value) external returns (bool);\n    function totalSupply() external view returns (uint256);\n    function balanceOf(address who) external view returns (uint256);\n    function allowance(address owner, address spender) external view returns (uint256);\n    event Transfer(address indexed from, address indexed to, uint256 value);\n    event Approval(address indexed owner, address indexed spender, uint256 value);\n}\n\n/**\n * @title ERC1155 interface\n * @dev see https://github.com/ethereum/EIPs/blob/master/EIPS/eip-1155.md\n */\ninterface IERC1155 {\n    function safeTransferFrom(address _from, address _to, uint256 _id, uint256 _amount, bytes calldata _data) external;\n    function safeBatchTransferFrom(address _from, address _to, uint256[] calldata _ids, uint256[] calldata _amounts, bytes calldata _data) external;\n    function balanceOf(address _owner, uint256 _id) external view returns (uint256);\n    function balanceOfBatch(address[] calldata _owners, uint256[] calldata _ids) external view returns (uint256[] memory);\n    function setApprovalForAll(address _operator, bool _approved) external;\n    function isApprovedForAll(address _owner, address _operator) external view returns (bool isOperator);\n    event TransferSingle(address indexed _operator, address indexed _from, address indexed _to, uint256 _id, uint256 _amount);\n    event TransferBatch(address indexed _operator, address indexed _from, address indexed _to, uint256[] _ids, uint256[] _amounts);\n    event ApprovalForAll(address indexed _owner, address indexed _operator, bool _approved);\n    event URI(string _amount, uint256 indexed _id);\n}\n\n/**\n * @dev ERC-1155 interface for accepting safe transfers.\n */\ninterface IERC1155TokenReceiver {\n    function onERC1155Received(address _operator, address _from, uint256 _id, uint256 _amount, bytes calldata _data) external returns(bytes4);\n    function onERC1155BatchReceived(address _operator, address _from, uint256[] calldata _ids, uint256[] calldata _amounts, bytes calldata _data) external returns(bytes4);\n    function supportsInterface(bytes4 interfaceID) external view returns (bool);\n}\n\n///**\n// * @title SafeMath\n// * @dev Unsigned math operations with safety checks that revert on error\n// */\n//library SafeMath {\n//\n//    function sub(uint256 a, uint256 b) internal pure returns (uint256) {\n//        require(b <= a, \"E201\");\n//        uint256 c = a - b;\n//\n//        return c;\n//    }\n//\n//    function add(uint256 a, uint256 b) internal pure returns (uint256) {\n//        uint256 c = a + b;\n//        require(c >= a, \"E202\");\n//\n//        return c;\n//    }\n//}\n\n/**\n * @dev Implementation of ERC1155 Multi-Token Standard contract\n * @dev see node_modules/multi-token-standard/contracts/tokens/ERC1155/ERC1155.sol\n */\ncontract ERC1155 is IERC165 {\n//    using SafeMath for uint256;\n\n    uint256 constant internal TYPE_MASK = uint256(uint128(~0)) << 128;\n    uint256 constant internal NF_INDEX_MASK = uint128(~0);\n    uint256 constant internal TYPE_NF_BIT = 1 << 255;\n    bytes32 constant internal ACCOUNT_HASH = 0xc5d2460186f7233c927e7db2dcc703c0e500b653ca82273b7bfad8045d85a470;\n    bytes4 constant internal INTERFACE_SIGNATURE_ERC165 = 0x01ffc9a7;\n    bytes4 constant internal INTERFACE_SIGNATURE_ERC1155 = 0xd9b67a26;\n    bytes4 constant internal ERC1155_RECEIVED_VALUE = 0xf23a6e61;\n    bytes4 constant internal ERC1155_BATCH_RECEIVED_VALUE = 0xbc197c81;\n\n    uint256 internal nonce;\n    mapping (address => mapping(uint256 => uint256)) internal balances;\n    mapping (address => mapping(address => bool)) internal operators;\n    mapping (uint256 => address) internal nfOwners;\n    mapping (uint256 => uint256) internal maxIndex;\n    mapping (uint256 => string) internal tokenUri;\n\n    event TransferSingle(address indexed _operator, address indexed _from, address indexed _to, uint256 _id, uint256 _amount);\n    event TransferBatch(address indexed _operator, address indexed _from, address indexed _to, uint256[] _ids, uint256[] _amounts);\n    event ApprovalForAll(address indexed _owner, address indexed _operator, bool _approved);\n    event URI(string _uri, uint256 indexed _type);\n\n    function uri(uint256 _tokenId) public view returns (string memory) {\n        uint256 _type = _tokenId & TYPE_MASK;\n        return string(abi.encodePacked(tokenUri[_type], _uint2str(_tokenId), \".json\"));\n    }\n\n    function supportsInterface(bytes4 _interfaceID) external view returns (bool) {\n        if (_interfaceID == INTERFACE_SIGNATURE_ERC165 ||\n        _interfaceID == INTERFACE_SIGNATURE_ERC1155) {\n            return true;\n        }\n        return false;\n    }\n\n    function ownerOf(uint256 _tokenId) public view returns (address) {\n        require(_tokenId & TYPE_NF_BIT == TYPE_NF_BIT, \"E304\");\n        return nfOwners[_tokenId];\n    }\n\n    function balanceOf(address _owner, uint256 _tokenId) public view returns (uint256) {\n        if ((_tokenId & TYPE_NF_BIT == TYPE_NF_BIT) && (_tokenId & NF_INDEX_MASK != 0)) {  // Non-Fungible Item\n            return nfOwners[_tokenId] == _owner ? 1 : 0;\n        }\n        return balances[_owner][_tokenId];\n    }\n\n    function balanceOfBatch(address[] memory _owners, uint256[] memory _tokenIds) public view returns (uint256[] memory) {\n        require(_owners.length == _tokenIds.length, \"E303\");\n\n        uint256[] memory _balances = new uint256[](_owners.length);\n        for (uint256 i = 0; i < _owners.length; ++i) {\n            uint256 id = _tokenIds[i];\n            if ((id & TYPE_NF_BIT == TYPE_NF_BIT) && (id & NF_INDEX_MASK != 0)) { // Non-Fungible Item\n                _balances[i] = nfOwners[id] == _owners[i] ? 1 : 0;\n            } else {\n                _balances[i] = balances[_owners[i]][id];\n            }\n        }\n\n        return _balances;\n    }\n\n    function setApprovalForAll(address _operator, bool _approved) external {\n        operators[msg.sender][_operator] = _approved;\n        emit ApprovalForAll(msg.sender, _operator, _approved);\n    }\n\n    function isApprovedForAll(address _owner, address _operator) public view returns (bool isOperator) {\n        return operators[_owner][_operator];\n    }\n\n    function safeTransferFrom(address _from, address _to, uint256 _id, uint256 _amount, bytes memory _data) public {\n        require((msg.sender == _from) || isApprovedForAll(_from, msg.sender), \"E305\");\n        require(_to != address(0),\"E301\");\n\n        _safeTransferFrom(_from, _to, _id, _amount);\n        _callonERC1155Received(_from, _to, _id, _amount, _data);\n    }\n\n    function safeBatchTransferFrom(address _from, address _to, uint256[] memory _ids, uint256[] memory _amounts, bytes memory _data) public {\n        require((msg.sender == _from) || isApprovedForAll(_from, msg.sender), \"E305\");\n        require(_to != address(0),\"E301\");\n\n        _safeBatchTransferFrom(_from, _to, _ids, _amounts);\n        _callonERC1155BatchReceived(_from, _to, _ids, _amounts, _data);\n    }\n\n    function _safeTransferFrom(address _from, address _to, uint256 _id, uint256 _amount) internal {\n        // Non-Fungible\n        if (_id & TYPE_NF_BIT == TYPE_NF_BIT) {\n            require(nfOwners[_id] == _from);\n            nfOwners[_id] = _to;\n            _amount = 1;\n        }\n        // Fungible\n        else {\n            require(_amount <= balances[_from][_id]);\n            //        balances[_from][_id] = balances[_from][_id].sub(_amount); // Subtract amount\n            //        balances[_to][_id] = balances[_to][_id].add(_amount);     // Add amount\n            balances[_from][_id] = balances[_from][_id] - _amount; // Subtract amount\n            balances[_to][_id] = balances[_to][_id] + _amount;     // Add amount\n        }\n\n        // Emit event\n        emit TransferSingle(msg.sender, _from, _to, _id, _amount);\n    }\n\n    function _safeBatchTransferFrom(address _from, address _to, uint256[] memory _ids, uint256[] memory _amounts) internal {\n        require(_ids.length == _amounts.length, \"E303\");\n\n        uint256 id;\n        uint256 amount;\n        uint256 nTransfer = _ids.length;\n        for (uint256 i = 0; i < nTransfer; ++i) {\n            id = _ids[i];\n            amount = _amounts[i];\n\n            if (id & TYPE_NF_BIT == TYPE_NF_BIT) { // Non-Fungible\n                require(nfOwners[id] == _from);\n                nfOwners[id] = _to;\n            } else {\n                require(amount <= balances[_from][id]);\n                //            balances[_from][id] = balances[_from][id].sub(_amount);\n                //            balances[_to][id] = balances[_to][id].add(_amount);\n                balances[_from][id] = balances[_from][id] - amount;\n                balances[_to][id] = balances[_to][id] + amount;\n            }\n        }\n\n        emit TransferBatch(msg.sender, _from, _to, _ids, _amounts);\n    }\n\n    function _callonERC1155Received(address _from, address _to, uint256 _id, uint256 _amount, bytes memory _data) internal {\n        // Check if recipient is contract\n        if (isContract(_to)) {\n            bytes4 retval = IERC1155TokenReceiver(_to).onERC1155Received(msg.sender, _from, _id, _amount, _data);\n            require(retval == ERC1155_RECEIVED_VALUE, \"E302\");\n        }\n    }\n\n    function _callonERC1155BatchReceived(address _from, address _to, uint256[] memory _ids, uint256[] memory _amounts, bytes memory _data) internal {\n        // Pass data if recipient is contract\n        if (isContract(_to)) {\n            bytes4 retval = IERC1155TokenReceiver(_to).onERC1155BatchReceived(msg.sender, _from, _ids, _amounts, _data);\n            require(retval == ERC1155_BATCH_RECEIVED_VALUE, \"E302\");\n        }\n    }\n\n    function _createType(string memory _uri, bool _isNF) internal returns (uint256 _type) {\n        require(bytes(_uri).length > 0, \"E307\");\n\n        _type = (++nonce << 128);\n        if (_isNF) {\n            _type = _type | TYPE_NF_BIT;\n        }\n        tokenUri[_type] = _uri;\n\n        // emit a Transfer event with Create semantic to help with discovery.\n        emit TransferSingle(msg.sender, address(0x0), address(0x0), _type, 0);\n        emit URI(_uri, _type);\n    }\n\n    function _mint(address _to, uint256 _type, uint256 _amount, bytes memory _data) internal returns (uint256) {\n        uint256 _tokenId;\n\n        // Non-fungible\n        if (_type & TYPE_NF_BIT == TYPE_NF_BIT) {\n            uint256 index = maxIndex[_type] + 1;\n            maxIndex[_type] = index;\n\n            _tokenId  = _type | index;\n            nfOwners[_tokenId] = _to;\n            _amount = 1;\n        }\n\n        // Fungible\n        else {\n            _tokenId = _type;\n            balances[_to][_type] = balances[_to][_type] + _amount;\n            //        balances[_to][_type] = balances[_to][_type].add(_amount);\n        }\n\n        emit TransferSingle(msg.sender, address(0x0), _to, _tokenId, _amount);\n        _callonERC1155Received(address(0x0), _to, _tokenId, _amount, _data);\n\n        return _tokenId;\n    }\n\n    function _mintBatch(address _to, uint256[] memory _types, uint256[] memory _amounts, bytes memory _data) internal returns (uint256[] memory) {\n        require(_types.length == _amounts.length, \"E303\");\n        uint256 _type;\n        uint256 _amount;\n        uint256 _index;\n        uint256 _tokenId;\n        uint256 _count = _types.length;\n\n        uint256[] memory _tokenIds = new uint256[](_count);\n\n        for (uint256 i = 0; i < _count; i++) {\n            _type = _types[i];\n            _amount = _amounts[i];\n\n            // Non-fungible\n            if (_type & TYPE_NF_BIT == TYPE_NF_BIT) {\n                _index = maxIndex[_type] + 1;\n                maxIndex[_type] = _index;\n\n                _tokenId  = _type | _index;\n                nfOwners[_tokenId] = _to;\n                _tokenIds[i] = _tokenId;\n                _amounts[i] = 1;\n            }\n\n            // Fungible\n            else {\n                _tokenIds[i] = _type;\n                balances[_to][_type] = balances[_to][_type] + _amount;\n                //            balances[_to][_types[i]] = balances[_to][_types[i]].add(_amounts[i]);\n            }\n        }\n\n        emit TransferBatch(msg.sender, address(0x0), _to, _tokenIds, _amounts);\n        _callonERC1155BatchReceived(address(0x0), _to, _tokenIds, _amounts, _data);\n\n        return _tokenIds;\n    }\n\n    function _burn(address _from, uint256 _tokenId, uint256 _amount) internal {\n        // Non-fungible\n        if (_tokenId & TYPE_NF_BIT == TYPE_NF_BIT) {\n            require(ownerOf(_tokenId) == _from, \"E305\");\n            nfOwners[_tokenId] = address(0x0);\n            _amount = 1;\n        }\n\n        // Fungible\n        else {\n            require(balanceOf(_from, _tokenId) >= _amount, \"E306\");\n            balances[_from][_tokenId] = balances[_from][_tokenId] - _amount;\n            //        balances[_from][_tokenId] = balances[_from][_tokenId].sub(_amount);\n        }\n\n        emit TransferSingle(msg.sender, _from, address(0x0), _tokenId, _amount);\n    }\n\n    function _burnBatch(address _from, uint256[] memory _tokenIds, uint256[] memory _amounts) internal {\n        require(_tokenIds.length == _amounts.length, \"E303\");\n\n        uint256 _amount;\n        uint256 _tokenId;\n        uint256 _count = _tokenIds.length;\n        for (uint256 i = 0; i < _count; i++) {\n            _tokenId = _tokenIds[i];\n            _amount = _amounts[i];\n\n            // Non-fungible\n            if (_tokenId & TYPE_NF_BIT == TYPE_NF_BIT) {\n                require(ownerOf(_tokenId) == _from, \"E305\");\n                nfOwners[_tokenId] = address(0x0);\n                _amounts[i] = 1;\n            }\n\n            // Fungible\n            else {\n                require(balanceOf(_from, _tokenId) >= _amount, \"E306\");\n                balances[_from][_tokenId] = balances[_from][_tokenId] - _amount;\n                //            balances[_from][_tokenId] = balances[_from][_tokenId].sub(_amount);\n            }\n        }\n\n        emit TransferBatch(msg.sender, _from, address(0x0), _tokenIds, _amounts);\n    }\n\n    //    function isNonFungible(uint256 _id) public pure returns(bool) {\n    //        return _id & TYPE_NF_BIT == TYPE_NF_BIT;\n    //    }\n    //    function isFungible(uint256 _id) public pure returns(bool) {\n    //        return _id & TYPE_NF_BIT == 0;\n    //    }\n    //    function getNonFungibleIndex(uint256 _id) public pure returns(uint256) {\n    //        return _id & NF_INDEX_MASK;\n    //    }\n    //    function getNonFungibleBaseType(uint256 _id) public pure returns(uint256) {\n    //        return _id & TYPE_MASK;\n    //    }\n    //    function isNonFungibleBaseType(uint256 _id) public pure returns(bool) {\n    //        // A base type has the NF bit but does not have an index.\n    //        return (_id & TYPE_NF_BIT == TYPE_NF_BIT) && (_id & NF_INDEX_MASK == 0);\n    //    }\n    //    function isNonFungibleItem(uint256 _id) public pure returns(bool) {\n    //        return (_id & TYPE_NF_BIT == TYPE_NF_BIT) && (_id & NF_INDEX_MASK != 0);\n    //    }\n\n    function isContract(address _address) internal view returns (bool) {\n        bytes32 codehash;\n        assembly { codehash := extcodehash(_address) }\n        return (codehash != 0x0 && codehash != ACCOUNT_HASH);\n    }\n\n    function _uint2str(uint256 _i) internal pure returns (string memory _uintAsString) {\n        if (_i == 0) {\n            return \"0\";\n        }\n\n        uint256 j = _i;\n        uint256 ii = _i;\n        uint256 len;\n\n        // Get number of bytes\n        while (j != 0) {\n            len++;\n            j /= 10;\n        }\n\n        bytes memory bstr = new bytes(len);\n        uint256 k = len - 1;\n\n        // Get each individual ASCII\n        while (ii != 0) {\n            bstr[k--] = byte(uint8(48 + ii % 10));\n            ii /= 10;\n        }\n\n        // Convert to string\n        return string(bstr);\n    }\n}\n\n\n/**\n * @notice Charged Particles Contract - Interest-Bearing NFTs\n *  -- ERC-1155 Edition\n */\ncontract ChargedParticlesERC1155 is ERC1155 {\n    //    using SafeMath for uint256;\n\n    /***********************************|\n    |        Variables and Events       |\n    |__________________________________*/\n\n    IERC20 internal dai;\n    IChai internal chai;\n\n    //       TypeID => Type Creator\n    mapping(uint256 => address) internal registeredTypeCreators;\n\n    //       TypeID => Required DAI\n    mapping(uint256 => uint256) internal requiredFundingByType;   // Amount of Dai to deposit when minting\n\n    //      TokenID => Balance\n    mapping(uint256 => uint256) internal chaiBalanceByTokenId;    // Amount of Chai minted from Dai deposited\n\n    //       TypeID => Access Type (Public/Private)\n    mapping(uint256 => uint8) internal registeredTypes;\n\n    uint256 internal createFee;\n    uint256 internal mintFee;\n    uint256 internal collectedFees;\n\n    address private owner; // To be assigned to a DAO\n\n    event OwnershipTransferred(address indexed previousOwner, address indexed newOwner);\n\n    /***********************************|\n    |             Modifiers             |\n    |__________________________________*/\n\n    /**\n     * @dev Throws if called by any account other than the owner.\n     */\n    modifier onlyOwner() {\n        require(msg.sender == owner, \"E102\");\n        _;\n    }\n\n    /***********************************|\n    |          Initialization           |\n    |__________________________________*/\n\n    constructor() public {\n//         createFee = 35 szabo;    //  ERC20  = 0.000035 ETH  (~ USD $0.005)\n//                                  //  ERC721 = 0.000070 ETH  (~ USD $0.01)\n//         mintFee = 50;            //  0.5% of Chai from deposited Dai\n\n        owner = msg.sender;\n        emit OwnershipTransferred(address(0), owner);\n    }\n\n    /***********************************|\n    |            Public Read            |\n    |__________________________________*/\n\n    /**\n     * @notice Gets the address of the contract owner.\n     * @return The owner address\n     */\n    function getContractOwner() public view returns (address) {\n        return owner;\n    }\n\n    /**\n     * @notice Gets the Creator of a Token Type\n     * @param _type     The Type ID of the Token\n     * @return  The Creator Address\n     */\n    function getCreator(uint256 _type) public view returns (address) {\n        return registeredTypeCreators[_type];\n    }\n\n    /**\n     * @notice Checks if a user is allowed to mint a Token by Type ID\n     * @param _type     The Type ID of the Token\n     * @return  True if the user can mint the token type\n     */\n    function canMint(uint256 _type) public view returns (bool) {\n        if (registeredTypes[_type] == 1) { return true; }\n        return (registeredTypeCreators[_type] == msg.sender);\n    }\n\n    /**\n     * @notice Gets the ETH price to create a Token Type\n     * @param _isNF     True if the Type of Token to Create is a Non-Fungible Token\n     * @return  The ETH price to create a type\n     */\n    function getCreationPrice(bool _isNF) public view returns (uint256) {\n        return _isNF ? (createFee * 2) : createFee;\n    }\n\n    /***********************************|\n    |         Particle Physics          |\n    |__________________________________*/\n\n    /**\n     * @notice Gets the Amount of Base DAI held in the Token (amount token was minted with)\n     * @param _tokenId      The ID of the Token\n     * @return  The Amount of DAI held in the Token\n     */\n    function baseParticleMass(uint256 _tokenId) public view returns (uint256) {\n        uint256 _type = _tokenId & TYPE_MASK;\n        return requiredFundingByType[_type];\n    }\n\n    /**\n     * @notice Gets the amount of interest the Token has generated (it's accumulated particle-charge)\n     * @param _tokenId      The ID of the Token\n     * @return  The amount of interest the Token has generated\n     */\n    function currentParticleCharge(uint256 _tokenId) public returns (uint256) {\n        uint256 _type = _tokenId & TYPE_MASK;\n        require(registeredTypes[_type] > 0, \"E402\");\n        require(requiredFundingByType[_type] > 0, \"E402\");\n\n        uint256 currentCharge = chai.dai(chaiBalanceByTokenId[_tokenId]);\n        uint256 originalCharge = requiredFundingByType[_type];\n        if (originalCharge >= currentCharge) { return 0; }\n        return currentCharge - originalCharge;\n        // return currentCharge.sub(originalCharge);\n    }\n\n    /**\n     * @notice Allows the owner of the Token to collect the interest generated form the token\n     *  without removing the underlying DAI that is held in the token\n     * @param _tokenId      The ID of the Token\n     * @return  The amount of interest released from the token\n     */\n    // collect current interest from particle\n    function dischargeParticle(uint256 _tokenId) public returns (uint256) {\n        address _owner = ownerOf(_tokenId);\n        require((_owner == msg.sender) || isApprovedForAll(_owner, msg.sender), \"E103\");\n\n        uint256 _currentChargeInDai = currentParticleCharge(_tokenId);\n        require(_currentChargeInDai > 0, \"E403\");\n\n        uint256 _paidChai = _payoutChargedDai(msg.sender, _currentChargeInDai);\n        chaiBalanceByTokenId[_tokenId] = chaiBalanceByTokenId[_tokenId] - _paidChai;\n\n        return _currentChargeInDai;\n    }\n\n    /***********************************|\n    |   Public Define Particle Types    |\n    |__________________________________*/\n\n    /**\n     * @notice Defines a new Particle Type which can later be minted/burned\n     * @param _uri              A unique URI for the Token Type which will serve the JSON metadata\n     * @param _isNF             True if the Type is a Non-Fungible (only Non-Fungible Tokens can hold DAI and generate interest)\n     * @param _isPrivate        True if the Type is Private and can only be minted by the creator; otherwise anyone can mint\n     * @param _requiredDai      The amount of DAI (in WEI) that is required to Mint a Token of this Type (the Particle Mass)\n     *                          NOTE: This will be ignored for Fungible Tokens\n     * @return The ID of the newly created Particle Type\n     */\n    function defineParticle(string memory _uri, bool _isNF, bool _isPrivate, uint256 _requiredDai) public payable returns (uint256 _particleTypeId) {\n        uint256 price = getCreationPrice(_isNF);\n        require(msg.value >= price, \"E404\");\n        require(!_isNF || (_isNF && _requiredDai >= 1e6), \"E406\"); // 0.000000000001 DAI  or  1000000 WEI\n\n        // Create Type\n        _particleTypeId = _createType(_uri, _isNF);\n\n        // Type Access (Public or Private minting)\n        registeredTypes[_particleTypeId] = _isPrivate ? 2 : 1;\n\n        // Creator of Type\n        registeredTypeCreators[_particleTypeId] = msg.sender;\n\n        // Required Funding for NFTs\n        requiredFundingByType[_particleTypeId] = _isNF ? _requiredDai : 0;\n\n        // Refund over-payment\n        uint256 overage = msg.value - price;\n        // uint256 overage = msg.value.sub(price);\n        if (overage > 0) {\n            msg.sender.transfer(overage);\n        }\n    }\n\n    /***********************************|\n    |    Public Mint (ERC20 & ERC721)   |\n    |__________________________________*/\n\n    /**\n     * @notice Mints a new Particle of the specified Type (can be Fungible or Non-Fungible)\n     *          Note: Requires DAI to mint Non-Fungible Tokens\n     * @param _to       The owner address to assign the new token to\n     * @param _type     The Type ID of the new token to mint\n     * @param _amount   The amount of tokens to mint (always 1 for Non-Fungibles)\n     * @param _data     Custom data used for transferring tokens into contracts\n     * @return  The ID of the newly minted token\n     */\n    function mintParticle(address _to, uint256 _type, uint256 _amount, bytes memory _data) public returns (uint256) {\n        require(canMint(_type), \"E407\");\n        address _self = address(this);\n\n        // Mint Token\n        uint256 _tokenId = _mint(_to, _type, _amount, _data);\n\n        if (_tokenId & TYPE_NF_BIT == TYPE_NF_BIT) {\n            // Transfer DAI from User to Contract\n            uint256 _requiredDai = requiredFundingByType[_type];\n            _collectRequiredDai(msg.sender, _requiredDai);\n\n            // Tokenize Interest\n            uint256 _preBalance = chai.balanceOf(_self);\n            chai.join(_self, _requiredDai);\n            uint256 _postBalance = chai.balanceOf(_self);\n\n            // Track Chai in each Token\n            chaiBalanceByTokenId[_tokenId] = _totalChaiForToken(_postBalance - _preBalance);\n            // chaiBalanceByTokenId[_tokenId] = _totalChaiForToken(_postBalance.sub(_preBalance));\n        }\n\n        return _tokenId;\n    }\n\n    /**\n     * @notice Mints multiple new Particles of the specified Types (can be Fungible and/or Non-Fungible)\n     *          Note: Requires DAI to mint Non-Fungible Tokens\n     * @param _to       The owner address to assign the new tokens to\n     * @param _types    The Type IDs of the new tokens to mint\n     * @param _amounts  The amounts of tokens to mint (always 1 for Non-Fungibles)\n     * @param _data     Custom data used for transferring tokens into contracts\n     * @return  The IDs of the newly minted tokens\n     */\n    function mintParticles(address _to, uint256[] memory _types, uint256[] memory _amounts, bytes memory _data) public returns (uint256[] memory) {\n        address _self = address(this);\n        uint256 i;\n        uint256 _type;\n        uint256 _tokenId;\n        uint256 _totalDai;\n        uint256 _requiredDai;\n        uint256 _count = _types.length;\n\n        for (i = 0; i < _count; ++i) {\n            _type = _types[i];\n            require(canMint(_type), \"E407\");\n            _requiredDai = requiredFundingByType[_type];\n            _totalDai = _requiredDai + _totalDai;\n            // _totalDai = _requiredDai.add(_totalDai);\n        }\n\n        // Mint Tokens\n        uint256[] memory _tokenIds = _mintBatch(_to, _types, _amounts, _data);\n\n        if (_totalDai > 0) {\n            // Transfer DAI from User to Contract\n            _collectRequiredDai(msg.sender, _totalDai);\n\n            uint256 _balance = chai.balanceOf(_self);\n            for (i = 0; i < _count; ++i) {\n                _tokenId = _tokenIds[i];\n                _type = _tokenId & TYPE_MASK;\n                _requiredDai = requiredFundingByType[_type];\n\n                if (_requiredDai > 0) {\n                    // Tokenize Interest\n                    chai.join(_self, _requiredDai);\n\n                    // Track Chai in each Token\n                    chaiBalanceByTokenId[_tokenId] = _totalChaiForToken(chai.balanceOf(_self) - _balance);\n                    // chaiBalanceByTokenId[_tokenId] = _totalChaiForToken(chai.balanceOf(_self).sub(_balance));\n                    _balance = chai.balanceOf(_self);\n                }\n            }\n        }\n        return _tokenIds;\n    }\n\n    /***********************************|\n    |    Public Burn (ERC20 & ERC721)   |\n    |__________________________________*/\n\n    /**\n     * @notice Destroys a Particle and releases the underlying DAI + Interest (Mass + Charge)\n     * @param _tokenId  The ID of the token to burn\n     * @param _amount   The amount of tokens to burn (always 1 for Non-Fungibles)\n     */\n    function burnParticle(uint256 _tokenId, uint256 _amount) public {\n        // Verify Token\n        uint256 _type = _tokenId & TYPE_MASK;\n        require(registeredTypes[_type] > 0, \"E402\");\n\n        // Burn Token\n        _burn(msg.sender, _tokenId, _amount);\n\n        // Payout Dai + Interest\n        if (_tokenId & TYPE_NF_BIT == TYPE_NF_BIT) {\n            uint256 _tokenChai = chaiBalanceByTokenId[_tokenId];\n            chaiBalanceByTokenId[_tokenId] = 0;\n            _payoutFundedDai(msg.sender, _tokenChai);\n        }\n    }\n\n    /**\n     * @notice Destroys multiple Particles and releases the underlying DAI + Interest (Mass + Charge)\n     * @param _tokenIds     The IDs of the tokens to burn\n     * @param _amounts      The amounts of the tokens to burn (always 1 for Non-Fungibles)\n     */\n    function burnParticles(uint256[] memory _tokenIds, uint256[] memory _amounts) public {\n        // Verify Token\n        uint256 _tokenId;\n        uint256 _totalChai;\n        uint256 _count = _tokenIds.length;\n        for (uint256 i = 0; i < _count; ++i) {\n            _tokenId = _tokenIds[i];\n            require(registeredTypes[_tokenId & TYPE_MASK] > 0, \"E402\");\n\n            if (_tokenId & TYPE_NF_BIT == TYPE_NF_BIT) {\n                _totalChai = chaiBalanceByTokenId[_tokenId] + _totalChai;\n                // _totalChai = chaiBalanceByTokenId[_tokenId].add(_totalChai);\n                chaiBalanceByTokenId[_tokenId] = 0;\n            }\n        }\n\n        // Burn Tokens\n        _burnBatch(msg.sender, _tokenIds, _amounts);\n\n        // Payout Dai + Interest\n        if (_totalChai > 0) {\n            _payoutFundedDai(msg.sender, _totalChai);\n        }\n    }\n\n    /***********************************|\n    |            Only Owner             |\n    |__________________________________*/\n\n    /**\n     * @dev Setup the DAI/CHAI contracts and configure the contract\n     */\n    function setup(address _daiAddress, address _chaiAddress, uint256 _createFee, uint256 _mintFee) public onlyOwner {\n        address _self = address(this);\n\n        // Set DAI as Funding Token\n        dai = IERC20(_daiAddress);\n        chai = IChai(_chaiAddress);\n\n        // Setup Chai to Tokenize DAI Interest\n//        chai.approve(_self, uint(-1));\n        dai.approve(_self, uint(-1));\n//        dai.approve(_chaiAddress, uint(-1));\n\n        createFee = _createFee;\n        mintFee = _mintFee;\n    }\n\n    /**\n     * @dev Allows contract owner to withdraw any fees earned\n     */\n    function withdrawFees() public onlyOwner {\n        uint256 _balance = address(this).balance;\n        if (_balance > 0) {\n            msg.sender.transfer(_balance);\n        }\n        if (collectedFees > 0) {\n            _payoutFundedDai(msg.sender, collectedFees);\n            collectedFees = 0;\n        }\n    }\n\n    /**\n     * @notice Transfers the ownership of the contract to new address\n     * @param _newOwner Address of the new owner\n     */\n    function transferOwnership(address _newOwner) public onlyOwner {\n        require(_newOwner != address(0), \"E101\");\n        emit OwnershipTransferred(owner, _newOwner);\n        owner = _newOwner;\n    }\n\n    /***********************************|\n    |         Private Functions         |\n    |__________________________________*/\n\n    /**\n     * @dev Collects the Required DAI from the users wallet during Minting\n     * @param _from         The owner address to collect the DAI from\n     * @param _requiredDai  The amount of DAI to collect from the user\n     */\n    function _collectRequiredDai(address _from, uint256 _requiredDai) internal {\n        // Transfer DAI from User to Contract\n        uint256 _userDaiBalance = dai.balanceOf(_from);\n        require(_requiredDai <= _userDaiBalance, \"E405\");\n        require(dai.transferFrom(_from, address(this), _requiredDai), \"E408\");\n    }\n\n    /**\n     * @dev Pays out a specified amount of CHAI\n     * @param _to           The owner address to pay out to\n     * @param _totalChai    The total amount of CHAI to pay out\n     */\n    function _payoutFundedDai(address _to, uint256 _totalChai) internal {\n        address _self = address(this);\n\n        // Exit Chai and collect Dai + Interest\n        chai.exit(_self, _totalChai);\n\n        // Transfer Dai + Interest\n        uint256 _receivedDai = dai.balanceOf(_self);\n        require(dai.transferFrom(_self, _to, _receivedDai), \"E408\");\n    }\n\n    /**\n     * @dev Pays out a specified amount of DAI\n     * @param _to           The owner address to pay out to\n     * @param _totalDai     The total amount of DAI to pay out\n     */\n    function _payoutChargedDai(address _to, uint256 _totalDai) internal returns (uint256) {\n        address _self = address(this);\n\n        // Collect Interest\n        uint256 _chai = chai.draw(_self, _totalDai);\n\n        // Transfer Interest\n        uint256 _receivedDai = dai.balanceOf(_self);\n        require(dai.transferFrom(_self, _to, _receivedDai), \"E408\");\n        return _chai;\n    }\n\n    /**\n     * @dev Calculates the amount of DAI held within a token during minting\n     *      Note: Accounts for any contract fees\n     * @param _tokenChai    The total amount of DAI used to fund the token\n     * @return  The actual amount of DAI to fund the token - fees\n     */\n    function _totalChaiForToken(uint256 _tokenChai) internal returns (uint256) {\n        if (mintFee == 0) { return _tokenChai; }\n        uint256 _mintFee = (_tokenChai * mintFee) / 1e4;\n        collectedFees = collectedFees + _mintFee;\n        // collectedFees = collectedFees.add(_mintFee);\n        return _tokenChai - _mintFee;\n        // return _tokenChai.sub(_mintFee);\n    }\n}\n",
  "sourcePath": "/Users/robsecord/workspace/Ethereum/ChargedParticles/ChargedParticlesEth/contracts/ChargedParticlesERC1155.sol",
  "compiler": {
    "name": "solc",
    "version": "0.5.13+commit.5b0b510c.Emscripten.clang"
  },
  "schemaVersion": "3.0.11",
  "updatedAt": "2020-01-13T05:31:44.903Z",
  "devdoc": {
    "details": "Implementation of ERC1155 Multi-Token Standard contractsee node_modules/multi-token-standard/contracts/tokens/ERC1155/ERC1155.sol",
    "methods": {}
  },
  "userdoc": {
    "methods": {}
  }
}