{
  "contractName": "ERC1155Metadata",
  "abi": [
    {
      "anonymous": false,
      "inputs": [
        {
          "indexed": false,
          "internalType": "string",
          "name": "_uri",
          "type": "string"
        },
        {
          "indexed": true,
          "internalType": "uint256",
          "name": "_id",
          "type": "uint256"
        }
      ],
      "name": "URI",
      "type": "event"
    },
    {
      "constant": true,
      "inputs": [
        {
          "internalType": "uint256",
          "name": "_id",
          "type": "uint256"
        }
      ],
      "name": "uri",
      "outputs": [
        {
          "internalType": "string",
          "name": "",
          "type": "string"
        }
      ],
      "payable": false,
      "stateMutability": "view",
      "type": "function"
    }
  ],
  "bytecode": "0x608060405234801561001057600080fd5b5061033f806100206000396000f3fe608060405234801561001057600080fd5b506004361061002b5760003560e01c80630e89341c14610030575b600080fd5b61005c6004803603602081101561004657600080fd5b81019080803590602001909291905050506100d7565b6040518080602001828103825283818151815260200191508051906020019080838360005b8381101561009c578082015181840152602081019050610081565b50505050905090810190601f1680156100c95780820380516001836020036101000a031916815260200191505b509250505060405180910390f35b606060006100e4836101d7565b60405160200180838054600181600116156101000203166002900480156101425780601f10610120576101008083540402835291820191610142565b820191906000526020600020905b81548152906001019060200180831161012e575b505082805190602001908083835b602083106101735780518252602082019150602081019050602083039250610150565b6001836020036101000a038019825116818451168082178552505050505050905001807f2e6a736f6e000000000000000000000000000000000000000000000000000000815250600501925050506040516020818303038152906040529050919050565b6060600082141561021f576040518060400160405280600181526020017f30000000000000000000000000000000000000000000000000000000000000008152509050610305565b6000829050600083905060005b6000831461024e578080600101915050600a838161024657fe5b04925061022c565b6060816040519080825280601f01601f1916602001820160405280156102835781602001600182028038833980820191505090505b50905060006001830390505b600084146102fc57600a84816102a157fe5b0660300160f81b828280600190039350815181106102bb57fe5b60200101907effffffffffffffffffffffffffffffffffffffffffffffffffffffffffffff1916908160001a905350600a84816102f457fe5b04935061028f565b81955050505050505b91905056fea265627a7a723158205e6374bd2cb5335d245c0665db06f1d7588bab4538f8998f8c58cc4e9e7f691664736f6c634300050d0032",
  "source": "pragma solidity ^0.5.13;\nimport \"../../interfaces/IERC1155.sol\";\n\n\n/**\n * @notice Contract that handles metadata related methods.\n * @dev Methods assume a deterministic generation of URI based on token IDs.\n *      Methods also assume that URI uses hex representation of token IDs.\n */\ncontract ERC1155Metadata {\n  // URI's default URI prefix\n  string internal baseMetadataURI;\n  event URI(string _uri, uint256 indexed _id);\n\n  /***********************************|\n  |     Metadata Public Function s    |\n  |__________________________________*/\n\n  /**\n   * @notice A distinct Uniform Resource Identifier (URI) for a given token.\n   * @dev URIs are defined in RFC 3986.\n   *      URIs are assumed to be deterministically generated based on token ID\n   *      Token IDs are assumed to be represented in their hex format in URIs\n   * @return URI string\n   */\n  function uri(uint256 _id) public view returns (string memory) {\n    return string(abi.encodePacked(baseMetadataURI, _uint2str(_id), \".json\"));\n  }\n\n\n  /***********************************|\n  |    Metadata Internal Functions    |\n  |__________________________________*/\n\n  /**\n   * @notice Will emit default URI log event for corresponding token _id\n   * @param _tokenIDs Array of IDs of tokens to log default URI\n   */\n  function _logURIs(uint256[] memory _tokenIDs) internal {\n    string memory baseURL = baseMetadataURI;\n    string memory tokenURI;\n\n    for (uint256 i = 0; i < _tokenIDs.length; i++) {\n      tokenURI = string(abi.encodePacked(baseURL, _uint2str(_tokenIDs[i]), \".json\"));\n      emit URI(tokenURI, _tokenIDs[i]);\n    }\n  }\n\n  /**\n   * @notice Will update the base URL of token's URI\n   * @param _newBaseMetadataURI New base URL of token's URI\n   */\n  function _setBaseMetadataURI(string memory _newBaseMetadataURI) internal {\n    baseMetadataURI = _newBaseMetadataURI;\n  }\n\n\n  /***********************************|\n  |    Utility Internal Functions     |\n  |__________________________________*/\n\n  /**\n   * @notice Convert uint256 to string\n   * @param _i Unsigned integer to convert to string\n   */\n  function _uint2str(uint256 _i) internal pure returns (string memory _uintAsString) {\n    if (_i == 0) {\n      return \"0\";\n    }\n\n    uint256 j = _i;\n    uint256 ii = _i;\n    uint256 len;\n\n    // Get number of bytes\n    while (j != 0) {\n      len++;\n      j /= 10;\n    }\n\n    bytes memory bstr = new bytes(len);\n    uint256 k = len - 1;\n\n    // Get each individual ASCII\n    while (ii != 0) {\n      bstr[k--] = byte(uint8(48 + ii % 10));\n      ii /= 10;\n    }\n\n    // Convert to string\n    return string(bstr);\n  }\n}",
  "sourcePath": "multi-token-standard/contracts/tokens/ERC1155/ERC1155Metadata.sol",
  "compiler": {
    "name": "solc",
    "version": "0.5.13+commit.5b0b510c.Emscripten.clang"
  },
  "schemaVersion": "3.0.11",
  "updatedAt": "2020-01-11T08:12:26.680Z",
  "devdoc": {
    "details": "Methods assume a deterministic generation of URI based on token IDs.     Methods also assume that URI uses hex representation of token IDs.",
    "methods": {
      "uri(uint256)": {
        "details": "URIs are defined in RFC 3986.     URIs are assumed to be deterministically generated based on token ID     Token IDs are assumed to be represented in their hex format in URIs",
        "return": "URI string"
      }
    }
  },
  "userdoc": {
    "methods": {
      "uri(uint256)": {
        "notice": "A distinct Uniform Resource Identifier (URI) for a given token."
      }
    },
    "notice": "Contract that handles metadata related methods."
  }
}