{
  "contractName": "ERC1155MetaMixedFungible",
  "abi": [
    {
      "anonymous": false,
      "inputs": [
        {
          "indexed": true,
          "internalType": "address",
          "name": "_owner",
          "type": "address"
        },
        {
          "indexed": true,
          "internalType": "address",
          "name": "_operator",
          "type": "address"
        },
        {
          "indexed": false,
          "internalType": "bool",
          "name": "_approved",
          "type": "bool"
        }
      ],
      "name": "ApprovalForAll",
      "type": "event"
    },
    {
      "anonymous": false,
      "inputs": [
        {
          "indexed": true,
          "internalType": "address",
          "name": "signer",
          "type": "address"
        },
        {
          "indexed": false,
          "internalType": "uint256",
          "name": "newNonce",
          "type": "uint256"
        }
      ],
      "name": "NonceChange",
      "type": "event"
    },
    {
      "anonymous": false,
      "inputs": [
        {
          "indexed": true,
          "internalType": "address",
          "name": "_operator",
          "type": "address"
        },
        {
          "indexed": true,
          "internalType": "address",
          "name": "_from",
          "type": "address"
        },
        {
          "indexed": true,
          "internalType": "address",
          "name": "_to",
          "type": "address"
        },
        {
          "indexed": false,
          "internalType": "uint256[]",
          "name": "_ids",
          "type": "uint256[]"
        },
        {
          "indexed": false,
          "internalType": "uint256[]",
          "name": "_amounts",
          "type": "uint256[]"
        }
      ],
      "name": "TransferBatch",
      "type": "event"
    },
    {
      "anonymous": false,
      "inputs": [
        {
          "indexed": true,
          "internalType": "address",
          "name": "_operator",
          "type": "address"
        },
        {
          "indexed": true,
          "internalType": "address",
          "name": "_from",
          "type": "address"
        },
        {
          "indexed": true,
          "internalType": "address",
          "name": "_to",
          "type": "address"
        },
        {
          "indexed": false,
          "internalType": "uint256",
          "name": "_id",
          "type": "uint256"
        },
        {
          "indexed": false,
          "internalType": "uint256",
          "name": "_amount",
          "type": "uint256"
        }
      ],
      "name": "TransferSingle",
      "type": "event"
    },
    {
      "anonymous": false,
      "inputs": [
        {
          "indexed": false,
          "internalType": "string",
          "name": "_uri",
          "type": "string"
        },
        {
          "indexed": true,
          "internalType": "uint256",
          "name": "_id",
          "type": "uint256"
        }
      ],
      "name": "URI",
      "type": "event"
    },
    {
      "constant": true,
      "inputs": [
        {
          "internalType": "address",
          "name": "_owner",
          "type": "address"
        },
        {
          "internalType": "uint256",
          "name": "_id",
          "type": "uint256"
        }
      ],
      "name": "balanceOf",
      "outputs": [
        {
          "internalType": "uint256",
          "name": "",
          "type": "uint256"
        }
      ],
      "payable": false,
      "stateMutability": "view",
      "type": "function"
    },
    {
      "constant": true,
      "inputs": [
        {
          "internalType": "address[]",
          "name": "_owners",
          "type": "address[]"
        },
        {
          "internalType": "uint256[]",
          "name": "_ids",
          "type": "uint256[]"
        }
      ],
      "name": "balanceOfBatch",
      "outputs": [
        {
          "internalType": "uint256[]",
          "name": "",
          "type": "uint256[]"
        }
      ],
      "payable": false,
      "stateMutability": "view",
      "type": "function"
    },
    {
      "constant": true,
      "inputs": [
        {
          "internalType": "uint256",
          "name": "_id",
          "type": "uint256"
        }
      ],
      "name": "getIDBinIndex",
      "outputs": [
        {
          "internalType": "uint256",
          "name": "bin",
          "type": "uint256"
        },
        {
          "internalType": "uint256",
          "name": "index",
          "type": "uint256"
        }
      ],
      "payable": false,
      "stateMutability": "pure",
      "type": "function"
    },
    {
      "constant": true,
      "inputs": [
        {
          "internalType": "uint256",
          "name": "_binValues",
          "type": "uint256"
        },
        {
          "internalType": "uint256",
          "name": "_index",
          "type": "uint256"
        }
      ],
      "name": "getValueInBin",
      "outputs": [
        {
          "internalType": "uint256",
          "name": "",
          "type": "uint256"
        }
      ],
      "payable": false,
      "stateMutability": "pure",
      "type": "function"
    },
    {
      "constant": true,
      "inputs": [
        {
          "internalType": "address",
          "name": "_owner",
          "type": "address"
        },
        {
          "internalType": "address",
          "name": "_operator",
          "type": "address"
        }
      ],
      "name": "isApprovedForAll",
      "outputs": [
        {
          "internalType": "bool",
          "name": "isOperator",
          "type": "bool"
        }
      ],
      "payable": false,
      "stateMutability": "view",
      "type": "function"
    },
    {
      "constant": true,
      "inputs": [
        {
          "internalType": "address",
          "name": "_signerAddress",
          "type": "address"
        },
        {
          "internalType": "bytes32",
          "name": "_hash",
          "type": "bytes32"
        },
        {
          "internalType": "bytes",
          "name": "_data",
          "type": "bytes"
        },
        {
          "internalType": "bytes",
          "name": "_sig",
          "type": "bytes"
        }
      ],
      "name": "isValidSignature",
      "outputs": [
        {
          "internalType": "bool",
          "name": "isValid",
          "type": "bool"
        }
      ],
      "payable": false,
      "stateMutability": "view",
      "type": "function"
    },
    {
      "constant": true,
      "inputs": [
        {
          "internalType": "uint256",
          "name": "_id",
          "type": "uint256"
        }
      ],
      "name": "ownerOf",
      "outputs": [
        {
          "internalType": "address",
          "name": "",
          "type": "address"
        }
      ],
      "payable": false,
      "stateMutability": "view",
      "type": "function"
    },
    {
      "constant": false,
      "inputs": [
        {
          "internalType": "address",
          "name": "_from",
          "type": "address"
        },
        {
          "internalType": "address",
          "name": "_to",
          "type": "address"
        },
        {
          "internalType": "uint256[]",
          "name": "_ids",
          "type": "uint256[]"
        },
        {
          "internalType": "uint256[]",
          "name": "_amounts",
          "type": "uint256[]"
        },
        {
          "internalType": "bytes",
          "name": "_data",
          "type": "bytes"
        }
      ],
      "name": "safeBatchTransferFrom",
      "outputs": [],
      "payable": false,
      "stateMutability": "nonpayable",
      "type": "function"
    },
    {
      "constant": false,
      "inputs": [
        {
          "internalType": "address",
          "name": "_from",
          "type": "address"
        },
        {
          "internalType": "address",
          "name": "_to",
          "type": "address"
        },
        {
          "internalType": "uint256",
          "name": "_id",
          "type": "uint256"
        },
        {
          "internalType": "uint256",
          "name": "_amount",
          "type": "uint256"
        },
        {
          "internalType": "bytes",
          "name": "_data",
          "type": "bytes"
        }
      ],
      "name": "safeTransferFrom",
      "outputs": [],
      "payable": false,
      "stateMutability": "nonpayable",
      "type": "function"
    },
    {
      "constant": false,
      "inputs": [
        {
          "internalType": "address",
          "name": "_operator",
          "type": "address"
        },
        {
          "internalType": "bool",
          "name": "_approved",
          "type": "bool"
        }
      ],
      "name": "setApprovalForAll",
      "outputs": [],
      "payable": false,
      "stateMutability": "nonpayable",
      "type": "function"
    },
    {
      "constant": true,
      "inputs": [
        {
          "internalType": "bytes4",
          "name": "_interfaceID",
          "type": "bytes4"
        }
      ],
      "name": "supportsInterface",
      "outputs": [
        {
          "internalType": "bool",
          "name": "",
          "type": "bool"
        }
      ],
      "payable": false,
      "stateMutability": "view",
      "type": "function"
    },
    {
      "constant": false,
      "inputs": [
        {
          "internalType": "address",
          "name": "_from",
          "type": "address"
        },
        {
          "internalType": "address",
          "name": "_to",
          "type": "address"
        },
        {
          "internalType": "uint256",
          "name": "_id",
          "type": "uint256"
        },
        {
          "internalType": "uint256",
          "name": "_amount",
          "type": "uint256"
        },
        {
          "internalType": "bool",
          "name": "_isGasFee",
          "type": "bool"
        },
        {
          "internalType": "bytes",
          "name": "_data",
          "type": "bytes"
        }
      ],
      "name": "metaSafeTransferFrom",
      "outputs": [],
      "payable": false,
      "stateMutability": "nonpayable",
      "type": "function"
    },
    {
      "constant": false,
      "inputs": [
        {
          "internalType": "address",
          "name": "_from",
          "type": "address"
        },
        {
          "internalType": "address",
          "name": "_to",
          "type": "address"
        },
        {
          "internalType": "uint256[]",
          "name": "_ids",
          "type": "uint256[]"
        },
        {
          "internalType": "uint256[]",
          "name": "_amounts",
          "type": "uint256[]"
        },
        {
          "internalType": "bool",
          "name": "_isGasFee",
          "type": "bool"
        },
        {
          "internalType": "bytes",
          "name": "_data",
          "type": "bytes"
        }
      ],
      "name": "metaSafeBatchTransferFrom",
      "outputs": [],
      "payable": false,
      "stateMutability": "nonpayable",
      "type": "function"
    },
    {
      "constant": false,
      "inputs": [
        {
          "internalType": "address",
          "name": "_owner",
          "type": "address"
        },
        {
          "internalType": "address",
          "name": "_operator",
          "type": "address"
        },
        {
          "internalType": "bool",
          "name": "_approved",
          "type": "bool"
        },
        {
          "internalType": "bool",
          "name": "_isGasFee",
          "type": "bool"
        },
        {
          "internalType": "bytes",
          "name": "_data",
          "type": "bytes"
        }
      ],
      "name": "metaSetApprovalForAll",
      "outputs": [],
      "payable": false,
      "stateMutability": "nonpayable",
      "type": "function"
    },
    {
      "constant": true,
      "inputs": [
        {
          "internalType": "address",
          "name": "_signer",
          "type": "address"
        }
      ],
      "name": "getNonce",
      "outputs": [
        {
          "internalType": "uint256",
          "name": "nonce",
          "type": "uint256"
        }
      ],
      "payable": false,
      "stateMutability": "view",
      "type": "function"
    }
  ],
  "bytecode": "0x60806040527f035aff83d86937d35b32e04f0ddc6ff469290eef2f1b692d8a815c89404d474960001b3073ffffffffffffffffffffffffffffffffffffffff1660405160200162000052929190620000aa565b6040516020818303038152906040528051906020012060058190555062000102565b620000896200008382620000da565b620000ee565b82525050565b620000a46200009e82620000e4565b620000f8565b82525050565b6000620000b8828562000074565b602082019150620000ca82846200008f565b6020820191508190509392505050565b6000819050919050565b6000819050919050565b6000819050919050565b6000819050919050565b6157e980620001126000396000f3fe608060405234801561001057600080fd5b50600436106100f45760003560e01c8063a3d4926e11610097578063eaec5f8111610066578063eaec5f81146102ba578063f242432a146102ea578063f5d4c82014610306578063fa4e12d714610322576100f4565b8063a3d4926e14610221578063ce0b514b1461023d578063db90e83c14610259578063e985e9c51461028a576100f4565b80632eb2c2d6116100d35780632eb2c2d6146101895780634e1273f4146101a55780636352211e146101d5578063a22cb46514610205576100f4565b8062fdd58e146100f957806301ffc9a7146101295780632d0335ab14610159575b600080fd5b610113600480360361010e91908101906139b1565b610352565b60405161012091906153fc565b60405180910390f35b610143600480360361013e9190810190613a82565b61044c565b6040516101509190614f75565b60405180910390f35b610173600480360361016e91908101906134c9565b6104fd565b60405161018091906153fc565b60405180910390f35b6101a3600480360361019e9190810190613664565b610546565b005b6101bf60048036036101ba91908101906139ed565b610655565b6040516101cc9190614f1c565b60405180910390f35b6101ef60048036036101ea9190810190613bed565b61081c565b6040516101fc9190614db0565b60405180910390f35b61021f600480360361021a91908101906138e2565b6108bd565b005b61023b60048036036102369190810190613593565b6109ba565b005b610257600480360361025291908101906137b2565b610cbe565b005b610273600480360361026e9190810190613bed565b610f76565b604051610281929190615440565b60405180910390f35b6102a4600480360361029f9190810190613557565b610fad565b6040516102b19190614f75565b60405180910390f35b6102d460048036036102cf9190810190613c16565b611041565b6040516102e191906153fc565b60405180910390f35b61030460048036036102ff9190810190613853565b61106e565b005b610320600480360361031b9190810190613723565b6111bc565b005b61033c6004803603610337919081019061391e565b611385565b6040516103499190614f75565b60405180910390f35b60007f80000000000000000000000000000000000000000000000000000000000000008083161480156103ba575060007fffffffffffffffffffffffffffffffffffffffffffffffffffffffffffffffff6fffffffffffffffffffffffffffffffff16831614155b15610439578273ffffffffffffffffffffffffffffffffffffffff166002600084815260200190815260200160002060009054906101000a900473ffffffffffffffffffffffffffffffffffffffff1673ffffffffffffffffffffffffffffffffffffffff161461042c57600061042f565b60015b60ff169050610446565b61044383836119f3565b90505b92915050565b60006301ffc9a760e01b7bffffffffffffffffffffffffffffffffffffffffffffffffffffffff1916827bffffffffffffffffffffffffffffffffffffffffffffffffffffffff191614806104e557506397a409d260e01b7bffffffffffffffffffffffffffffffffffffffffffffffffffffffff1916827bffffffffffffffffffffffffffffffffffffffffffffffffffffffff1916145b156104f357600190506104f8565b600090505b919050565b6000600660008373ffffffffffffffffffffffffffffffffffffffff1673ffffffffffffffffffffffffffffffffffffffff168152602001908152602001600020549050919050565b8473ffffffffffffffffffffffffffffffffffffffff163373ffffffffffffffffffffffffffffffffffffffff16148061058657506105858533610fad565b5b6105c5576040517f08c379a00000000000000000000000000000000000000000000000000000000081526004016105bc9061523c565b60405180910390fd5b600073ffffffffffffffffffffffffffffffffffffffff168473ffffffffffffffffffffffffffffffffffffffff161415610635576040517f08c379a000000000000000000000000000000000000000000000000000000000815260040161062c906151bc565b60405180910390fd5b61064185858585611a6c565b61064e8585858585611e5a565b5050505050565b6060815183511461066557600080fd5b606083516040519080825280602002602001820160405280156106975781602001602082028038833980820191505090505b50905060008090505b84518110156108115760008482815181106106b757fe5b602002602001015190507f8000000000000000000000000000000000000000000000000000000000000000808216148015610727575060007fffffffffffffffffffffffffffffffffffffffffffffffffffffffffffffffff6fffffffffffffffffffffffffffffffff16821614155b156107cf5785828151811061073857fe5b602002602001015173ffffffffffffffffffffffffffffffffffffffff166002600083815260200190815260200160002060009054906101000a900473ffffffffffffffffffffffffffffffffffffffff1673ffffffffffffffffffffffffffffffffffffffff16146107ac5760006107af565b60015b60ff168383815181106107be57fe5b602002602001018181525050610805565b6107ec8683815181106107de57fe5b6020026020010151826119f3565b8383815181106107f857fe5b6020026020010181815250505b508060010190506106a0565b508091505092915050565b60007f800000000000000000000000000000000000000000000000000000000000000080831614610882576040517f08c379a00000000000000000000000000000000000000000000000000000000081526004016108799061521c565b60405180910390fd5b6002600083815260200190815260200160002060009054906101000a900473ffffffffffffffffffffffffffffffffffffffff169050919050565b80600160003373ffffffffffffffffffffffffffffffffffffffff1673ffffffffffffffffffffffffffffffffffffffff16815260200190815260200160002060008473ffffffffffffffffffffffffffffffffffffffff1673ffffffffffffffffffffffffffffffffffffffff16815260200190815260200160002060006101000a81548160ff0219169083151502179055508173ffffffffffffffffffffffffffffffffffffffff163373ffffffffffffffffffffffffffffffffffffffff167f17307eab39ab6107e8899845ad3d59bd9653f200f220920489ca2b5937696c31836040516109ae9190614f75565b60405180910390a35050565b600073ffffffffffffffffffffffffffffffffffffffff168573ffffffffffffffffffffffffffffffffffffffff161415610a2a576040517f08c379a0000000000000000000000000000000000000000000000000000000008152600401610a21906152dc565b60405180910390fd5b60005a90506060610a39613164565b6060610b088a867fa358be8ef28a8eef7877f5d78ce30ff1cada344474e3d550ee9f4be9151f84f760001b8d73ffffffffffffffffffffffffffffffffffffffff168d73ffffffffffffffffffffffffffffffffffffffff168d604051602001610aa39190614bc0565b604051602081830303815290604052805190602001208d604051602001610aca9190614bc0565b60405160208183030381529060405280519060200120604051602001610af4959493929190614bd7565b604051602081830303815290604052611fa5565b90508515610c985780806020019051610b249190810190613b81565b8191508090508094508193505050610b3e8a8a8a8a6121d2565b610b5d8973ffffffffffffffffffffffffffffffffffffffff1661263b565b15610c885760008973ffffffffffffffffffffffffffffffffffffffff1663bc197c818460000151338e8d8d8a6040518763ffffffff1660e01b8152600401610baa959493929190614dcb565b602060405180830381600088803b158015610bc457600080fd5b5087f1158015610bd8573d6000803e3d6000fd5b50505050506040513d601f19601f82011682018060405250610bfd9190810190613aab565b905063bc197c8160e01b7bffffffffffffffffffffffffffffffffffffffffffffffffffffffff1916817bffffffffffffffffffffffffffffffffffffffffffffffffffffffff191614610c86576040517f08c379a0000000000000000000000000000000000000000000000000000000008152600401610c7d9061505c565b60405180910390fd5b505b610c938a8584612680565b610cb2565b610ca48a8a8a8a6121d2565b610cb18a8a8a8a85611e5a565b5b50505050505050505050565b600073ffffffffffffffffffffffffffffffffffffffff168573ffffffffffffffffffffffffffffffffffffffff161415610d2e576040517f08c379a0000000000000000000000000000000000000000000000000000000008152600401610d259061531c565b60405180910390fd5b60005a90506060610d3d613164565b6060610dc08a867fda41aee141786e5a994acb21bcafccf68ed6e07786cb44008c785a06f281903860001b8d73ffffffffffffffffffffffffffffffffffffffff168d73ffffffffffffffffffffffffffffffffffffffff168d8d604051602001610dac959493929190614c84565b604051602081830303815290604052611fa5565b90508515610f505780806020019051610ddc9190810190613b81565b8191508090508094508193505050610df68a8a8a8a6129c7565b610e158973ffffffffffffffffffffffffffffffffffffffff1661263b565b15610f405760008973ffffffffffffffffffffffffffffffffffffffff1663f23a6e618460000151338e8d8d8a6040518763ffffffff1660e01b8152600401610e62959493929190614e33565b602060405180830381600088803b158015610e7c57600080fd5b5087f1158015610e90573d6000803e3d6000fd5b50505050506040513d601f19601f82011682018060405250610eb59190810190613aab565b905063f23a6e6160e01b7bffffffffffffffffffffffffffffffffffffffffffffffffffffffff1916817bffffffffffffffffffffffffffffffffffffffffffffffffffffffff191614610f3e576040517f08c379a0000000000000000000000000000000000000000000000000000000008152600401610f359061519c565b60405180910390fd5b505b610f4b8a8584612680565b610f6a565b610f5c8a8a8a8a6129c7565b610f698a8a8a8a85612a65565b5b50505050505050505050565b6000806101006020840281610f8757fe5b049150602061010081610f9657fe5b048381610f9f57fe5b069050818191509150915091565b6000600160008473ffffffffffffffffffffffffffffffffffffffff1673ffffffffffffffffffffffffffffffffffffffff16815260200190815260200160002060008373ffffffffffffffffffffffffffffffffffffffff1673ffffffffffffffffffffffffffffffffffffffff16815260200190815260200160002060009054906101000a900460ff16905092915050565b600080600160206001901b039050600060018401602002610100039050818186901c169250505092915050565b8473ffffffffffffffffffffffffffffffffffffffff163373ffffffffffffffffffffffffffffffffffffffff1614806110ae57506110ad8533610fad565b5b6110ed576040517f08c379a00000000000000000000000000000000000000000000000000000000081526004016110e49061507c565b60405180910390fd5b600073ffffffffffffffffffffffffffffffffffffffff168473ffffffffffffffffffffffffffffffffffffffff16141561115d576040517f08c379a0000000000000000000000000000000000000000000000000000000008152600401611154906152bc565b60405180910390fd5b7f8000000000000000000000000000000000000000000000000000000000000000808416141561119b5760019150611196858585612bb0565b6111a8565b6111a7858585856129c7565b5b6111b58585858585612a65565b5050505050565b60005a9050606061125087847fd72d507eb90d918a375b250ea7bfc291be59526e94e2baa2fe3b35daa72a0b1560001b8a73ffffffffffffffffffffffffffffffffffffffff168a73ffffffffffffffffffffffffffffffffffffffff168a611226576000611229565b60015b60405160200161123c9493929190614c36565b604051602081830303815290604052611fa5565b905084600160008973ffffffffffffffffffffffffffffffffffffffff1673ffffffffffffffffffffffffffffffffffffffff16815260200190815260200160002060008873ffffffffffffffffffffffffffffffffffffffff1673ffffffffffffffffffffffffffffffffffffffff16815260200190815260200160002060006101000a81548160ff0219169083151502179055508573ffffffffffffffffffffffffffffffffffffffff168773ffffffffffffffffffffffffffffffffffffffff167f17307eab39ab6107e8899845ad3d59bd9653f200f220920489ca2b5937696c31876040516113439190614f75565b60405180910390a3831561137c57611359613164565b8180602001905161136d9190810190613b40565b905061137a888483612680565b505b50505050505050565b6000808251116113ca576040517f08c379a00000000000000000000000000000000000000000000000000000000081526004016113c1906152fc565b60405180910390fd5b600073ffffffffffffffffffffffffffffffffffffffff168573ffffffffffffffffffffffffffffffffffffffff16141561143a576040517f08c379a00000000000000000000000000000000000000000000000000000000081526004016114319061527c565b60405180910390fd5b600061144583612cf1565b60f81c905060058081111561145657fe5b60ff168160ff161061149d576040517f08c379a0000000000000000000000000000000000000000000000000000000008152600401611494906150dc565b60405180910390fd5b60008160ff1660058111156114ae57fe5b9050600080600080600060058111156114c357fe5b8560058111156114cf57fe5b1415611510576040517f08c379a00000000000000000000000000000000000000000000000000000000081526004016115079061511c565b60405180910390fd5b6001600581111561151d57fe5b85600581111561152957fe5b141561164c576061885114611573576040517f08c379a000000000000000000000000000000000000000000000000000000000815260040161156a906151fc565b60405180910390fd5b611587600089612d6490919063ffffffff16565b925061159d602089612d6490919063ffffffff16565b9150876040815181106115ac57fe5b602001015160f81c60f81b60f81c935060018a858585604051600081526020016040526040516115df9493929190614fc0565b6020604051602081039080840390855afa158015611601573d6000803e3d6000fd5b5050506020604051035190508073ffffffffffffffffffffffffffffffffffffffff168b73ffffffffffffffffffffffffffffffffffffffff161496508696505050505050506119eb565b6002600581111561165957fe5b85600581111561166557fe5b14156117ae5760618851146116af576040517f08c379a00000000000000000000000000000000000000000000000000000000081526004016116a6906151fc565b60405180910390fd5b6116c3600089612d6490919063ffffffff16565b92506116d9602089612d6490919063ffffffff16565b9150876040815181106116e857fe5b602001015160f81c60f81b60f81c935060018a60405160200161170b9190614d8a565b60405160208183030381529060405280519060200120858585604051600081526020016040526040516117419493929190614fc0565b6020604051602081039080840390855afa158015611763573d6000803e3d6000fd5b5050506020604051035190508073ffffffffffffffffffffffffffffffffffffffff168b73ffffffffffffffffffffffffffffffffffffffff161496508696505050505050506119eb565b600360058111156117bb57fe5b8560058111156117c757fe5b14156118af578a73ffffffffffffffffffffffffffffffffffffffff166320c13b0b8a8a6040518363ffffffff1660e01b8152600401611808929190615005565b60206040518083038186803b15801561182057600080fd5b505afa158015611834573d6000803e3d6000fd5b505050506040513d601f19601f820116820180604052506118589190810190613aab565b7bffffffffffffffffffffffffffffffffffffffffffffffffffffffff19166320c13b0b60e01b7bffffffffffffffffffffffffffffffffffffffffffffffffffffffff19161496508696505050505050506119eb565b600460058111156118bc57fe5b8560058111156118c857fe5b14156119b0578a73ffffffffffffffffffffffffffffffffffffffff16631626ba7e8b8a6040518363ffffffff1660e01b8152600401611909929190614f90565b60206040518083038186803b15801561192157600080fd5b505afa158015611935573d6000803e3d6000fd5b505050506040513d601f19601f820116820180604052506119599190810190613aab565b7bffffffffffffffffffffffffffffffffffffffffffffffffffffffff1916631626ba7e60e01b7bffffffffffffffffffffffffffffffffffffffffffffffffffffffff19161496508696505050505050506119eb565b6040517f08c379a00000000000000000000000000000000000000000000000000000000081526004016119e2906150dc565b60405180910390fd5b949350505050565b6000806000611a0184610f76565b8092508193505050611a626000808773ffffffffffffffffffffffffffffffffffffffff1673ffffffffffffffffffffffffffffffffffffffff16815260200190815260200160002060008481526020019081526020016000205482611041565b9250505092915050565b8051825114611ab0576040517f08c379a0000000000000000000000000000000000000000000000000000000008152600401611aa7906153dc565b60405180910390fd5b600080600080600090506000809050600094505b8651851015611b2e57868581518110611ad957fe5b602002602001015193507f80000000000000000000000000000000000000000000000000000000000000008085161415611b1a578080600101915050611b23565b81806001019250505b846001019450611ac4565b606082604051908082528060200260200182016040528015611b5f5781602001602082028038833980820191505090505b509050606083604051908082528060200260200182016040528015611b935781602001602082028038833980820191505090505b509050606083604051908082528060200260200182016040528015611bc75781602001602082028038833980820191505090505b509050606084604051908082528060200260200182016040528015611bfb5781602001602082028038833980820191505090505b5090506000955060009450600098505b8a51891015611dad578a8981518110611c2057fe5b60200260200101519750898981518110611c3657fe5b602002602001015196507f80000000000000000000000000000000000000000000000000000000000000008089161415611d67578c73ffffffffffffffffffffffffffffffffffffffff16600260008a815260200190815260200160002060009054906101000a900473ffffffffffffffffffffffffffffffffffffffff1673ffffffffffffffffffffffffffffffffffffffff1614611cd557600080fd5b8b600260008a815260200190815260200160002060006101000a81548173ffffffffffffffffffffffffffffffffffffffff021916908373ffffffffffffffffffffffffffffffffffffffff16021790555087828681518110611d3457fe5b6020026020010181815250506001818681518110611d4e57fe5b6020026020010181815250508480600101955050611da2565b87848781518110611d7457fe5b60200260200101818152505086838781518110611d8d57fe5b60200260200101818152505085806001019650505b886001019850611c0b565b6000861115611dc357611dc28d8d86866121d2565b5b6000851115611e4b578b73ffffffffffffffffffffffffffffffffffffffff168d73ffffffffffffffffffffffffffffffffffffffff163373ffffffffffffffffffffffffffffffffffffffff167f4a39dc06d4c0dbc64b70af90fd698a233a518aa5d07e595d983b8c0526c8f7fb8585604051611e42929190614f3e565b60405180910390a45b50505050505050505050505050565b611e798473ffffffffffffffffffffffffffffffffffffffff1661263b565b15611f9e5760008473ffffffffffffffffffffffffffffffffffffffff1663bc197c8133888787876040518663ffffffff1660e01b8152600401611ec1959493929190614dcb565b602060405180830381600087803b158015611edb57600080fd5b505af1158015611eef573d6000803e3d6000fd5b505050506040513d601f19601f82011682018060405250611f139190810190613aab565b905063bc197c8160e01b7bffffffffffffffffffffffffffffffffffffffffffffffffffffffff1916817bffffffffffffffffffffffffffffffffffffffffffffffffffffffff191614611f9c576040517f08c379a0000000000000000000000000000000000000000000000000000000008152600401611f939061517c565b60405180910390fd5b505b5050505050565b60608083806020019051611fbc9190810190613ad4565b81915080905080935081925050506000600660008773ffffffffffffffffffffffffffffffffffffffff1673ffffffffffffffffffffffffffffffffffffffff1681526020019081526020016000205490506000612024604184612d6490919063ffffffff16565b60001c905081811015801561203b57506064820181105b61207a576040517f08c379a0000000000000000000000000000000000000000000000000000000008152600401612071906153bc565b60405180910390fd5b60006120b68683878051906020012060405160200161209b93929190614ce3565b60405160208183030381529060405280519060200120612dc2565b905060608683876040516020016120cf93929190614d1c565b60405160208183030381529060405290506120ec89838388611385565b61212b576040517f08c379a0000000000000000000000000000000000000000000000000000000008152600401612122906150fc565b60405180910390fd5b60018301600660008b73ffffffffffffffffffffffffffffffffffffffff1673ffffffffffffffffffffffffffffffffffffffff168152602001908152602001600020819055508873ffffffffffffffffffffffffffffffffffffffff167fb861b7bdbe611a846ab271b8d2810391bc8b5a968f390c322438ecab66bccf59600185016040516121bb91906153fc565b60405180910390a285955050505050509392505050565b8051825114612216576040517f08c379a000000000000000000000000000000000000000000000000000000000815260040161220d9061513c565b60405180910390fd5b6000806122368460008151811061222957fe5b6020026020010151610f76565b9150915060006122ac6000808973ffffffffffffffffffffffffffffffffffffffff1673ffffffffffffffffffffffffffffffffffffffff168152602001908152602001600020600085815260200190815260200160002054838660008151811061229d57fe5b60200260200101516001612e2d565b905060006123206000808973ffffffffffffffffffffffffffffffffffffffff1673ffffffffffffffffffffffffffffffffffffffff168152602001908152602001600020600086815260200190815260200160002054848760008151811061231157fe5b60200260200101516000612e2d565b905060008651905060008590506000600190505b828110156125085761235889828151811061234b57fe5b6020026020010151610f76565b80975081985050508187146124b757846000808d73ffffffffffffffffffffffffffffffffffffffff1673ffffffffffffffffffffffffffffffffffffffff168152602001908152602001600020600084815260200190815260200160002081905550836000808c73ffffffffffffffffffffffffffffffffffffffff1673ffffffffffffffffffffffffffffffffffffffff1681526020019081526020016000206000848152602001908152602001600020819055506000808c73ffffffffffffffffffffffffffffffffffffffff1673ffffffffffffffffffffffffffffffffffffffff16815260200190815260200160002060008881526020019081526020016000205494506000808b73ffffffffffffffffffffffffffffffffffffffff1673ffffffffffffffffffffffffffffffffffffffff16815260200190815260200160002060008881526020019081526020016000205493508691505b6124d785878a84815181106124c857fe5b60200260200101516001612e2d565b94506124f984878a84815181106124ea57fe5b60200260200101516000612e2d565b93508080600101915050612334565b50836000808c73ffffffffffffffffffffffffffffffffffffffff1673ffffffffffffffffffffffffffffffffffffffff168152602001908152602001600020600088815260200190815260200160002081905550826000808b73ffffffffffffffffffffffffffffffffffffffff1673ffffffffffffffffffffffffffffffffffffffff1681526020019081526020016000206000888152602001908152602001600020819055508873ffffffffffffffffffffffffffffffffffffffff168a73ffffffffffffffffffffffffffffffffffffffff163373ffffffffffffffffffffffffffffffffffffffff167f4a39dc06d4c0dbc64b70af90fd698a233a518aa5d07e595d983b8c0526c8f7fb8b8b604051612627929190614f3e565b60405180910390a450505050505050505050565b600080823f90506000801b811415801561267857507fc5d2460186f7233c927e7db2dcc703c0e500b653ca82273b7bfad8045d85a47060001b8114155b915050919050565b600061268f8260800151612cf1565b60f81c90506002808111156126a057fe5b60ff168160ff16106126e7576040517f08c379a00000000000000000000000000000000000000000000000000000000081526004016126de9061525c565b60405180910390fd5b60008160ff1660028111156126f857fe5b9050600080600080600061272b886020015161271d5a8c612f7f90919063ffffffff16565b612fd590919063ffffffff16565b9250876000015183116127545761274f88604001518461302a90919063ffffffff16565b612770565b61276f8860400151896000015161302a90919063ffffffff16565b5b9050600073ffffffffffffffffffffffffffffffffffffffff16886060015173ffffffffffffffffffffffffffffffffffffffff16146127b45787606001516127b6565b335b9350600060028111156127c557fe5b8660028111156127d157fe5b14156128d25787608001518060200190516127ef919081019061351b565b81915080935081965050503073ffffffffffffffffffffffffffffffffffffffff168573ffffffffffffffffffffffffffffffffffffffff16141561285b5761283a8a8584846129c7565b6128568a85848460405180602001604052806000815250612a65565b6128cd565b8473ffffffffffffffffffffffffffffffffffffffff1663f242432a8b8685856040518563ffffffff1660e01b815260040161289a9493929190614ec4565b600060405180830381600087803b1580156128b457600080fd5b505af11580156128c8573d6000803e3d6000fd5b505050505b6129bb565b87608001518060200190516128ea91908101906134f2565b94508473ffffffffffffffffffffffffffffffffffffffff166323b872dd8b86846040518463ffffffff1660e01b815260040161292993929190614e8d565b602060405180830381600087803b15801561294357600080fd5b505af1158015612957573d6000803e3d6000fd5b505050506040513d601f19601f8201168201806040525061297b9190810190613a59565b6129ba576040517f08c379a00000000000000000000000000000000000000000000000000000000081526004016129b1906151dc565b60405180910390fd5b5b50505050505050505050565b6129d4848383600161309a565b6129e1838383600061309a565b8273ffffffffffffffffffffffffffffffffffffffff168473ffffffffffffffffffffffffffffffffffffffff163373ffffffffffffffffffffffffffffffffffffffff167fc3d58168c5ae7397731d063d5bbf3d657854427343f4c083240f7aacaa2d0f628585604051612a57929190615440565b60405180910390a450505050565b612a848473ffffffffffffffffffffffffffffffffffffffff1661263b565b15612ba95760008473ffffffffffffffffffffffffffffffffffffffff1663f23a6e6133888787876040518663ffffffff1660e01b8152600401612acc959493929190614e33565b602060405180830381600087803b158015612ae657600080fd5b505af1158015612afa573d6000803e3d6000fd5b505050506040513d601f19601f82011682018060405250612b1e9190810190613aab565b905063f23a6e6160e01b7bffffffffffffffffffffffffffffffffffffffffffffffffffffffff1916817bffffffffffffffffffffffffffffffffffffffffffffffffffffffff191614612ba7576040517f08c379a0000000000000000000000000000000000000000000000000000000008152600401612b9e9061529c565b60405180910390fd5b505b5050505050565b8273ffffffffffffffffffffffffffffffffffffffff166002600083815260200190815260200160002060009054906101000a900473ffffffffffffffffffffffffffffffffffffffff1673ffffffffffffffffffffffffffffffffffffffff1614612c1b57600080fd5b816002600083815260200190815260200160002060006101000a81548173ffffffffffffffffffffffffffffffffffffffff021916908373ffffffffffffffffffffffffffffffffffffffff1602179055508173ffffffffffffffffffffffffffffffffffffffff168373ffffffffffffffffffffffffffffffffffffffff163373ffffffffffffffffffffffffffffffffffffffff167fc3d58168c5ae7397731d063d5bbf3d657854427343f4c083240f7aacaa2d0f62846001604051612ce4929190615417565b60405180910390a4505050565b600080825111612d36576040517f08c379a0000000000000000000000000000000000000000000000000000000008152600401612d2d9061503c565b60405180910390fd5b81600183510381518110612d4657fe5b602001015160f81c60f81b9050600182510380835250809050919050565b60006020820183511015612dad576040517f08c379a0000000000000000000000000000000000000000000000000000000008152600401612da49061533c565b60405180910390fd5b60208201915081830151905080905092915050565b60006040518060400160405280600281526020017f190100000000000000000000000000000000000000000000000000000000000081525060055483604051602001612e1093929190614d51565b604051602081830303815290604052805190602001209050919050565b600080600185016020026101000390506000600160206001901b03905060006001811115612e5757fe5b846001811115612e6357fe5b1415612ec357602060020a8582848a901c160110612eb6576040517f08c379a0000000000000000000000000000000000000000000000000000000008152600401612ead9061539c565b60405180910390fd5b8185901b87019250612f72565b600180811115612ecf57fe5b846001811115612edb57fe5b1415612f365784818389901c161015612f29576040517f08c379a0000000000000000000000000000000000000000000000000000000008152600401612f20906150bc565b60405180910390fd5b8185901b87039250612f71565b6040517f08c379a0000000000000000000000000000000000000000000000000000000008152600401612f689061537c565b60405180910390fd5b5b8292505050949350505050565b600082821115612fc4576040517f08c379a0000000000000000000000000000000000000000000000000000000008152600401612fbb9061509c565b60405180910390fd5b600082840390508091505092915050565b600080828401905083811015613020576040517f08c379a00000000000000000000000000000000000000000000000000000000081526004016130179061535c565b60405180910390fd5b8091505092915050565b60008083141561303d5760009050613094565b600082840290508284828161304e57fe5b041461308f576040517f08c379a00000000000000000000000000000000000000000000000000000000081526004016130869061515c565b60405180910390fd5b809150505b92915050565b6000806130a685610f76565b80925081935050506131096000808873ffffffffffffffffffffffffffffffffffffffff1673ffffffffffffffffffffffffffffffffffffffff168152602001908152602001600020600084815260200190815260200160002054828686612e2d565b6000808873ffffffffffffffffffffffffffffffffffffffff1673ffffffffffffffffffffffffffffffffffffffff168152602001908152602001600020600084815260200190815260200160002081905550505050505050565b6040518060a00160405280600081526020016000815260200160008152602001600073ffffffffffffffffffffffffffffffffffffffff168152602001606081525090565b6000813590506131b88161571c565b92915050565b6000815190506131cd8161571c565b92915050565b6000815190506131e281615733565b92915050565b600082601f8301126131f957600080fd5b813561320c61320782615496565b615469565b9150818183526020840193506020810190508385602084028201111561323157600080fd5b60005b83811015613261578161324788826131a9565b845260208401935060208301925050600181019050613234565b5050505092915050565b600082601f83011261327c57600080fd5b813561328f61328a826154be565b615469565b915081818352602084019350602081019050838560208402820111156132b457600080fd5b60005b838110156132e457816132ca888261349f565b8452602084019350602083019250506001810190506132b7565b5050505092915050565b6000813590506132fd8161574a565b92915050565b6000815190506133128161574a565b92915050565b60008135905061332781615761565b92915050565b60008135905061333c81615778565b92915050565b60008151905061335181615778565b92915050565b600082601f83011261336857600080fd5b815161337b613376826154e6565b615469565b9150808252602083016020830185838301111561339757600080fd5b6133a28382846156c4565b50505092915050565b600082601f8301126133bc57600080fd5b81356133cf6133ca82615512565b615469565b915080825260208301602083018583830111156133eb57600080fd5b6133f68382846156b5565b50505092915050565b600060a0828403121561341157600080fd5b61341b60a0615469565b9050600061342b848285016134b4565b600083015250602061343f848285016134b4565b6020830152506040613453848285016134b4565b6040830152506060613467848285016131be565b606083015250608082015167ffffffffffffffff81111561348757600080fd5b61349384828501613357565b60808301525092915050565b6000813590506134ae8161578f565b92915050565b6000815190506134c38161578f565b92915050565b6000602082840312156134db57600080fd5b60006134e9848285016131a9565b91505092915050565b60006020828403121561350457600080fd5b6000613512848285016131d3565b91505092915050565b6000806040838503121561352e57600080fd5b600061353c858286016131d3565b925050602061354d858286016134b4565b9150509250929050565b6000806040838503121561356a57600080fd5b6000613578858286016131a9565b9250506020613589858286016131a9565b9150509250929050565b60008060008060008060c087890312156135ac57600080fd5b60006135ba89828a016131a9565b96505060206135cb89828a016131a9565b955050604087013567ffffffffffffffff8111156135e857600080fd5b6135f489828a0161326b565b945050606087013567ffffffffffffffff81111561361157600080fd5b61361d89828a0161326b565b935050608061362e89828a016132ee565b92505060a087013567ffffffffffffffff81111561364b57600080fd5b61365789828a016133ab565b9150509295509295509295565b600080600080600060a0868803121561367c57600080fd5b600061368a888289016131a9565b955050602061369b888289016131a9565b945050604086013567ffffffffffffffff8111156136b857600080fd5b6136c48882890161326b565b935050606086013567ffffffffffffffff8111156136e157600080fd5b6136ed8882890161326b565b925050608086013567ffffffffffffffff81111561370a57600080fd5b613716888289016133ab565b9150509295509295909350565b600080600080600060a0868803121561373b57600080fd5b6000613749888289016131a9565b955050602061375a888289016131a9565b945050604061376b888289016132ee565b935050606061377c888289016132ee565b925050608086013567ffffffffffffffff81111561379957600080fd5b6137a5888289016133ab565b9150509295509295909350565b60008060008060008060c087890312156137cb57600080fd5b60006137d989828a016131a9565b96505060206137ea89828a016131a9565b95505060406137fb89828a0161349f565b945050606061380c89828a0161349f565b935050608061381d89828a016132ee565b92505060a087013567ffffffffffffffff81111561383a57600080fd5b61384689828a016133ab565b9150509295509295509295565b600080600080600060a0868803121561386b57600080fd5b6000613879888289016131a9565b955050602061388a888289016131a9565b945050604061389b8882890161349f565b93505060606138ac8882890161349f565b925050608086013567ffffffffffffffff8111156138c957600080fd5b6138d5888289016133ab565b9150509295509295909350565b600080604083850312156138f557600080fd5b6000613903858286016131a9565b9250506020613914858286016132ee565b9150509250929050565b6000806000806080858703121561393457600080fd5b6000613942878288016131a9565b945050602061395387828801613318565b935050604085013567ffffffffffffffff81111561397057600080fd5b61397c878288016133ab565b925050606085013567ffffffffffffffff81111561399957600080fd5b6139a5878288016133ab565b91505092959194509250565b600080604083850312156139c457600080fd5b60006139d2858286016131a9565b92505060206139e38582860161349f565b9150509250929050565b60008060408385031215613a0057600080fd5b600083013567ffffffffffffffff811115613a1a57600080fd5b613a26858286016131e8565b925050602083013567ffffffffffffffff811115613a4357600080fd5b613a4f8582860161326b565b9150509250929050565b600060208284031215613a6b57600080fd5b6000613a7984828501613303565b91505092915050565b600060208284031215613a9457600080fd5b6000613aa28482850161332d565b91505092915050565b600060208284031215613abd57600080fd5b6000613acb84828501613342565b91505092915050565b60008060408385031215613ae757600080fd5b600083015167ffffffffffffffff811115613b0157600080fd5b613b0d85828601613357565b925050602083015167ffffffffffffffff811115613b2a57600080fd5b613b3685828601613357565b9150509250929050565b600060208284031215613b5257600080fd5b600082015167ffffffffffffffff811115613b6c57600080fd5b613b78848285016133ff565b91505092915050565b60008060408385031215613b9457600080fd5b600083015167ffffffffffffffff811115613bae57600080fd5b613bba858286016133ff565b925050602083015167ffffffffffffffff811115613bd757600080fd5b613be385828601613357565b9150509250929050565b600060208284031215613bff57600080fd5b6000613c0d8482850161349f565b91505092915050565b60008060408385031215613c2957600080fd5b6000613c378582860161349f565b9250506020613c488582860161349f565b9150509250929050565b6000613c5e8383614b6d565b60208301905092915050565b6000613c768383614b8b565b60208301905092915050565b613c8b8161566d565b82525050565b613c9a816155d0565b82525050565b6000613cab8261554e565b613cb5818561557c565b9350613cc08361553e565b8060005b83811015613cf1578151613cd88882613c52565b9750613ce38361556f565b925050600181019050613cc4565b5085935050505092915050565b6000613d098261554e565b613d13818561558d565b9350613d1e8361553e565b8060005b83811015613d4f578151613d368882613c6a565b9750613d418361556f565b925050600181019050613d22565b5085935050505092915050565b613d65816155f4565b82525050565b613d7481615600565b82525050565b613d8b613d8682615600565b6156f7565b82525050565b6000613d9c82615559565b613da68185615598565b9350613db68185602086016156c4565b613dbf8161570b565b840191505092915050565b6000613dd582615559565b613ddf81856155a9565b9350613def8185602086016156c4565b80840191505092915050565b613e048161567f565b82525050565b6000613e1582615564565b613e1f81856155c5565b9350613e2f8185602086016156c4565b80840191505092915050565b6000613e48601c836155c5565b91507f19457468657265756d205369676e6564204d6573736167653a0a3332000000006000830152601c82019050919050565b6000613e886037836155b4565b91507f4c6962427974657323706f704c617374427974653a20475245415445525f544860008301527f414e5f5a45524f5f4c454e4754485f52455155495245440000000000000000006020830152604082019050919050565b6000613eee604e836155b4565b91507f455243313135354d6574614d6978656446756e6769626c65236d65746153616660008301527f6542617463685472616e7366657246726f6d3a20494e56414c49445f4f4e5f5260208301527f4543454956455f4d4553534147450000000000000000000000000000000000006040830152606082019050919050565b6000613f7a6037836155b4565b91507f455243313135354d6978656446756e6769626c6523736166655472616e73666560008301527f7246726f6d3a20494e56414c49445f4f50455241544f520000000000000000006020830152604082019050919050565b6000613fe06017836155b4565b91507f536166654d617468237375623a20554e444552464c4f570000000000000000006000830152602082019050919050565b60006140206033836155b4565b91507f455243313135355061636b656442616c616e6365235f7669657755706461746560008301527f42696e56616c75653a20554e444552464c4f57000000000000000000000000006020830152604082019050919050565b6000614086603a836155b4565b91507f5369676e617475726556616c696461746f7223697356616c69645369676e617460008301527f7572653a20554e535550504f525445445f5349474e41545552450000000000006020830152604082019050919050565b60006140ec6040836155b4565b91507f455243313135354d6574614d6978656446756e6769626c65235f7369676e617460008301527f75726556616c69646174696f6e3a20494e56414c49445f5349474e41545552456020830152604082019050919050565b60006141526036836155b4565b91507f5369676e617475726556616c696461746f7223697356616c69645369676e617460008301527f7572653a20494c4c4547414c5f5349474e4154555245000000000000000000006020830152604082019050919050565b60006141b86042836155b4565b91507f455243313135355061636b656442616c616e6365235f7361666542617463685460008301527f72616e7366657246726f6d3a20494e56414c49445f4152524159535f4c454e4760208301527f54480000000000000000000000000000000000000000000000000000000000006040830152606082019050919050565b60006142446016836155b4565b91507f536166654d617468236d756c3a204f564552464c4f57000000000000000000006000830152602082019050919050565b6000614284604c836155b4565b91507f455243313135355061636b656442616c616e6365235f63616c6c6f6e4552433160008301527f313535426174636852656365697665643a20494e56414c49445f4f4e5f52454360208301527f454956455f4d45535341474500000000000000000000000000000000000000006040830152606082019050919050565b60006143106049836155b4565b91507f455243313135354d6574614d6978656446756e6769626c65236d65746153616660008301527f655472616e7366657246726f6d3a20494e56414c49445f4f4e5f52454345495660208301527f455f4d45535341474500000000000000000000000000000000000000000000006040830152606082019050919050565b600061439c603d836155b4565b91507f455243313135354d6978656446756e6769626c6523736166654261746368547260008301527f616e7366657246726f6d3a20494e56414c49445f524543495049454e540000006020830152604082019050919050565b6000614402603f836155b4565b91507f455243313135354d6574614d6978656446756e6769626c65235f7472616e736660008301527f65724761734665653a2045524332305f5452414e534645525f4641494c4544006020830152604082019050919050565b60006144686037836155b4565b91507f5369676e617475726556616c696461746f7223697356616c69645369676e617460008301527f7572653a204c454e4754485f39375f52455155495245440000000000000000006020830152604082019050919050565b60006144ce6022836155b4565b91507f546f6b656e206973206e6f7420616e204e6f6e2d46756e6769626c6520746f6b60008301527f656e0000000000000000000000000000000000000000000000000000000000006020830152604082019050919050565b6000614534603c836155b4565b91507f455243313135354d6978656446756e6769626c6523736166654261746368547260008301527f616e7366657246726f6d3a20494e56414c49445f4f50455241544f52000000006020830152604082019050919050565b600061459a603b836155b4565b91507f455243313135354d6574614d6978656446756e6769626c65235f7472616e736660008301527f65724761734665653a20554e535550504f525445445f544f4b454e00000000006020830152604082019050919050565b60006146006033836155b4565b91507f5369676e617475726556616c696461746f7223697356616c69645369676e617460008301527f7572653a20494e56414c49445f5349474e4552000000000000000000000000006020830152604082019050919050565b60006146666047836155b4565b91507f455243313135355061636b656442616c616e6365235f63616c6c6f6e4552433160008301527f31353552656365697665643a20494e56414c49445f4f4e5f524543454956455f60208301527f4d455353414745000000000000000000000000000000000000000000000000006040830152606082019050919050565b60006146f26038836155b4565b91507f455243313135354d6978656446756e6769626c6523736166655472616e73666560008301527f7246726f6d3a20494e56414c49445f524543495049454e5400000000000000006020830152604082019050919050565b60006147586045836155b4565b91507f455243313135354d6574614d6978656446756e6769626c65236d65746153616660008301527f6542617463685472616e7366657246726f6d3a20494e56414c49445f5245434960208301527f5049454e540000000000000000000000000000000000000000000000000000006040830152606082019050919050565b60006147e46043836155b4565b91507f5369676e617475726556616c696461746f7223697356616c69645369676e617460008301527f7572653a204c454e4754485f475245415445525f5448414e5f305f524551554960208301527f52454400000000000000000000000000000000000000000000000000000000006040830152606082019050919050565b60006148706040836155b4565b91507f455243313135354d6574614d6978656446756e6769626c65236d65746153616660008301527f655472616e7366657246726f6d3a20494e56414c49445f524543495049454e546020830152604082019050919050565b60006148d6600083615598565b9150600082019050919050565b60006148f0603c836155b4565b91507f4c696242797465732372656164427974657333323a20475245415445525f4f5260008301527f5f455155414c5f544f5f33325f4c454e4754485f5245515549524544000000006020830152604082019050919050565b60006149566016836155b4565b91507f536166654d617468236164643a204f564552464c4f57000000000000000000006000830152602082019050919050565b60006149966045836155b4565b91507f455243313135355061636b656442616c616e6365235f7669657755706461746560008301527f42696e56616c75653a20494e56414c49445f42494e5f57524954455f4f50455260208301527f4154494f4e0000000000000000000000000000000000000000000000000000006040830152606082019050919050565b6000614a226032836155b4565b91507f455243313135355061636b656442616c616e6365235f7669657755706461746560008301527f42696e56616c75653a204f564552464c4f5700000000000000000000000000006020830152604082019050919050565b6000614a88603c836155b4565b91507f455243313135354d6574614d6978656446756e6769626c65235f7369676e617460008301527f75726556616c69646174696f6e3a20494e56414c49445f4e4f4e4345000000006020830152604082019050919050565b6000614aee6047836155b4565b91507f455243313135354d6978656446756e6769626c65235f736166654d697865644260008301527f617463685472616e7366657246726f6d3a20494e56414c49445f41525241595360208301527f5f4c454e475448000000000000000000000000000000000000000000000000006040830152606082019050919050565b614b7681615656565b82525050565b614b8581615656565b82525050565b614b9481615656565b82525050565b614bab614ba682615656565b615701565b82525050565b614bba81615660565b82525050565b6000614bcc8284613cfe565b915081905092915050565b6000614be38288613d7a565b602082019150614bf38287614b9a565b602082019150614c038286614b9a565b602082019150614c138285613d7a565b602082019150614c238284613d7a565b6020820191508190509695505050505050565b6000614c428287613d7a565b602082019150614c528286614b9a565b602082019150614c628285614b9a565b602082019150614c728284614b9a565b60208201915081905095945050505050565b6000614c908288613d7a565b602082019150614ca08287614b9a565b602082019150614cb08286614b9a565b602082019150614cc08285614b9a565b602082019150614cd08284614b9a565b6020820191508190509695505050505050565b6000614cef8286613dca565b9150614cfb8285614b9a565b602082019150614d0b8284613d7a565b602082019150819050949350505050565b6000614d288286613dca565b9150614d348285614b9a565b602082019150614d448284613dca565b9150819050949350505050565b6000614d5d8286613e0a565b9150614d698285613d7a565b602082019150614d798284613d7a565b602082019150819050949350505050565b6000614d9582613e3b565b9150614da18284613d7a565b60208201915081905092915050565b6000602082019050614dc56000830184613c91565b92915050565b600060a082019050614de06000830188613c82565b614ded6020830187613c91565b8181036040830152614dff8186613ca0565b90508181036060830152614e138185613ca0565b90508181036080830152614e278184613d91565b90509695505050505050565b600060a082019050614e486000830188613c82565b614e556020830187613c91565b614e626040830186614b7c565b614e6f6060830185614b7c565b8181036080830152614e818184613d91565b90509695505050505050565b6000606082019050614ea26000830186613c91565b614eaf6020830185613c91565b614ebc6040830184614b7c565b949350505050565b600060a082019050614ed96000830187613c91565b614ee66020830186613c91565b614ef36040830185614b7c565b614f006060830184614b7c565b8181036080830152614f11816148c9565b905095945050505050565b60006020820190508181036000830152614f368184613ca0565b905092915050565b60006040820190508181036000830152614f588185613ca0565b90508181036020830152614f6c8184613ca0565b90509392505050565b6000602082019050614f8a6000830184613d5c565b92915050565b6000604082019050614fa56000830185613d6b565b8181036020830152614fb78184613d91565b90509392505050565b6000608082019050614fd56000830187613d6b565b614fe26020830186614bb1565b614fef6040830185613d6b565b614ffc6060830184613d6b565b95945050505050565b6000604082019050818103600083015261501f8185613d91565b905081810360208301526150338184613d91565b90509392505050565b6000602082019050818103600083015261505581613e7b565b9050919050565b6000602082019050818103600083015261507581613ee1565b9050919050565b6000602082019050818103600083015261509581613f6d565b9050919050565b600060208201905081810360008301526150b581613fd3565b9050919050565b600060208201905081810360008301526150d581614013565b9050919050565b600060208201905081810360008301526150f581614079565b9050919050565b60006020820190508181036000830152615115816140df565b9050919050565b6000602082019050818103600083015261513581614145565b9050919050565b60006020820190508181036000830152615155816141ab565b9050919050565b6000602082019050818103600083015261517581614237565b9050919050565b6000602082019050818103600083015261519581614277565b9050919050565b600060208201905081810360008301526151b581614303565b9050919050565b600060208201905081810360008301526151d58161438f565b9050919050565b600060208201905081810360008301526151f5816143f5565b9050919050565b600060208201905081810360008301526152158161445b565b9050919050565b60006020820190508181036000830152615235816144c1565b9050919050565b6000602082019050818103600083015261525581614527565b9050919050565b600060208201905081810360008301526152758161458d565b9050919050565b60006020820190508181036000830152615295816145f3565b9050919050565b600060208201905081810360008301526152b581614659565b9050919050565b600060208201905081810360008301526152d5816146e5565b9050919050565b600060208201905081810360008301526152f58161474b565b9050919050565b60006020820190508181036000830152615315816147d7565b9050919050565b6000602082019050818103600083015261533581614863565b9050919050565b60006020820190508181036000830152615355816148e3565b9050919050565b6000602082019050818103600083015261537581614949565b9050919050565b6000602082019050818103600083015261539581614989565b9050919050565b600060208201905081810360008301526153b581614a15565b9050919050565b600060208201905081810360008301526153d581614a7b565b9050919050565b600060208201905081810360008301526153f581614ae1565b9050919050565b60006020820190506154116000830184614b7c565b92915050565b600060408201905061542c6000830185614b7c565b6154396020830184613dfb565b9392505050565b60006040820190506154556000830185614b7c565b6154626020830184614b7c565b9392505050565b6000604051905081810181811067ffffffffffffffff8211171561548c57600080fd5b8060405250919050565b600067ffffffffffffffff8211156154ad57600080fd5b602082029050602081019050919050565b600067ffffffffffffffff8211156154d557600080fd5b602082029050602081019050919050565b600067ffffffffffffffff8211156154fd57600080fd5b601f19601f8301169050602081019050919050565b600067ffffffffffffffff82111561552957600080fd5b601f19601f8301169050602081019050919050565b6000819050602082019050919050565b600081519050919050565b600081519050919050565b600081519050919050565b6000602082019050919050565b600082825260208201905092915050565b600081905092915050565b600082825260208201905092915050565b600081905092915050565b600082825260208201905092915050565b600081905092915050565b60006155db82615636565b9050919050565b60006155ed82615636565b9050919050565b60008115159050919050565b6000819050919050565b60007fffffffff0000000000000000000000000000000000000000000000000000000082169050919050565b600073ffffffffffffffffffffffffffffffffffffffff82169050919050565b6000819050919050565b600060ff82169050919050565b600061567882615691565b9050919050565b600061568a82615656565b9050919050565b600061569c826156a3565b9050919050565b60006156ae82615636565b9050919050565b82818337600083830152505050565b60005b838110156156e25780820151818401526020810190506156c7565b838111156156f1576000848401525b50505050565b6000819050919050565b6000819050919050565b6000601f19601f8301169050919050565b615725816155d0565b811461573057600080fd5b50565b61573c816155e2565b811461574757600080fd5b50565b615753816155f4565b811461575e57600080fd5b50565b61576a81615600565b811461577557600080fd5b50565b6157818161560a565b811461578c57600080fd5b50565b61579881615656565b81146157a357600080fd5b5056fea365627a7a7231582002ec18b01991f519e4745003c08de9d0592d0604407a7ad23afd1f154e63ca2e6c6578706572696d656e74616cf564736f6c634300050d0040",
  "source": "pragma solidity ^0.5.13;\npragma experimental ABIEncoderV2;\n\nimport \"./ERC1155MixedFungibleMintable.sol\";\nimport \"multi-token-standard/contracts/interfaces/IERC20.sol\";\nimport \"multi-token-standard/contracts/interfaces/IERC1155.sol\";\nimport \"multi-token-standard/contracts/utils/LibBytes.sol\";\nimport \"multi-token-standard/contracts/utils/SignatureValidator.sol\";\n\n\n/**\n * @dev ERC-1155 with native metatransaction methods. These additional functions allow users\n *      to presign function calls and allow third parties to execute these on their behalf\n *\n * Note: This contract is identical to the ERC1155Meta.sol contract,\n *       except for the ERC1155PackedBalance parent contract.\n */\ncontract ERC1155MetaMixedFungible is ERC1155MixedFungibleMintable, SignatureValidator {\n    using LibBytes for bytes;\n\n    /***********************************|\n    |       Variables and Structs       |\n    |__________________________________*/\n\n    /**\n     * Gas Receipt\n     *   feeTokenData : (bool, address, ?unit256)\n     *     1st element should be the address of the token\n     *     2nd argument (if ERC-1155) should be the ID of the token\n     *     Last element should be a 0x0 if ERC-20 and 0x1 for ERC-1155\n     */\n    struct GasReceipt {\n        uint256 gasLimit;     // Max amount of gas that can be reimbursed\n        uint256 baseGas;      // Base gas cost (includes things like 21k, CALLDATA size, etc.)\n        uint256 gasPrice;     // Price denominated in token X per gas unit\n        address feeRecipient; // Address to send payment to\n        bytes feeTokenData;   // Data for token to pay for gas as `uint256(tokenAddress)`\n    }\n\n    // Which token standard is used to pay gas fee\n    enum FeeTokenType {\n        ERC1155,    // 0x00, ERC-1155 token - DEFAULT\n        ERC20,      // 0x01, ERC-20 token\n        NTypes      // 0x02, number of signature types. Always leave at end.\n    }\n\n    // Signature nonce per address\n    mapping (address => uint256) internal nonces;\n\n\n    /***********************************|\n    |               Events              |\n    |__________________________________*/\n\n    event NonceChange(address indexed signer, uint256 newNonce);\n\n\n    /****************************************|\n    |     Public Meta Transfer Functions     |\n    |_______________________________________*/\n\n    /**\n     * @notice Allows anyone with a valid signature to transfer _amount amount of a token _id on the bahalf of _from\n     * @param _from     Source address\n     * @param _to       Target address\n     * @param _id       ID of the token type\n     * @param _amount   Transfered amount\n     * @param _isGasFee Whether gas is reimbursed to executor or not\n     * @param _data     Encodes a meta transfer indicator, signature, gas payment receipt and extra transfer data\n     *   _data should be encoded as (\n     *   (bytes32 r, bytes32 s, uint8 v, uint256 nonce, SignatureType sigType),\n     *   (GasReceipt g, ?bytes transferData)\n     * )\n     *   i.e. high level encoding should be (bytes, bytes), where the latter bytes array is a nested bytes array\n     */\n    function metaSafeTransferFrom(\n        address _from,\n        address _to,\n        uint256 _id,\n        uint256 _amount,\n        bool _isGasFee,\n        bytes memory _data)\n    public\n    {\n        require(_to != address(0), \"ERC1155MetaMixedFungible#metaSafeTransferFrom: INVALID_RECIPIENT\");\n\n        // Starting gas amount\n        uint256 startGas = gasleft();\n        bytes memory transferData;\n        GasReceipt memory gasReceipt;\n\n        // Verify signature and extract the signed data\n        bytes memory signedData = _signatureValidation(\n            _from,\n            _data,\n            abi.encodePacked(\n                META_TX_TYPEHASH,\n                uint256(_from),  // Address as uint256\n                uint256(_to),    // Address as uint256\n                _id,\n                _amount\n            )\n        );\n\n        // If Gas is being reimbursed\n        if (_isGasFee) {\n            (gasReceipt, transferData) = abi.decode(signedData, (GasReceipt, bytes));\n            _safeTransferFrom(_from, _to, _id, _amount);\n\n            // Check if recipient is contract\n            if (_to.isContract()) {\n                // We need to somewhat protect operators against gas griefing attacks in recipient contract.\n                // Hence we only pass the gasLimit to the recipient such that the validator knows the griefing\n                // limit. Nothing can prevent the receiver to revert the transaction as close to the gasLimit as\n                // possible, but the operator can now only accept meta-transaction gasLimit within a certain range.\n                bytes4 retval = IERC1155TokenReceiver(_to).onERC1155Received.gas(gasReceipt.gasLimit)(msg.sender, _from, _id, _amount, transferData);\n                require(retval == ERC1155_RECEIVED_VALUE, \"ERC1155MetaMixedFungible#metaSafeTransferFrom: INVALID_ON_RECEIVE_MESSAGE\");\n            }\n\n            // Transfer gas cost\n            _transferGasFee(_from, startGas, gasReceipt);\n\n        } else {\n            _safeTransferFrom(_from, _to, _id, _amount);\n            _callonERC1155Received(_from, _to, _id, _amount, signedData);\n        }\n    }\n\n    /**\n     * @notice Allows anyone with a valid signature to transfer multiple types of tokens on the bahalf of _from\n     * @param _from     Source addresses\n     * @param _to       Target addresses\n     * @param _ids      IDs of each token type\n     * @param _amounts  Transfer amounts per token type\n     * @param _data     Encodes a meta transfer indicator, signature, gas payment receipt and extra transfer data\n     *   _data should be encoded as (\n     *   (bytes32 r, bytes32 s, uint8 v, uint256 nonce, SignatureType sigType),\n     *   (GasReceipt g, ?bytes transferData)\n     * )\n     *   i.e. high level encoding should be (bytes, bytes), where the latter bytes array is a nested bytes array\n     */\n    function metaSafeBatchTransferFrom(\n        address _from,\n        address _to,\n        uint256[] memory _ids,\n        uint256[] memory _amounts,\n        bool _isGasFee,\n        bytes memory _data)\n    public\n    {\n        require(_to != address(0), \"ERC1155MetaMixedFungible#metaSafeBatchTransferFrom: INVALID_RECIPIENT\");\n\n        // Starting gas amount\n        uint256 startGas = gasleft();\n        bytes memory transferData;\n        GasReceipt memory gasReceipt;\n\n        // Verify signature and extract the signed data\n        bytes memory signedData = _signatureValidation(\n            _from,\n            _data,\n            abi.encodePacked(\n                META_BATCH_TX_TYPEHASH,\n                uint256(_from), // Address as uint256\n                uint256(_to),   // Address as uint256\n                keccak256(abi.encodePacked(_ids)),\n                keccak256(abi.encodePacked(_amounts))\n            )\n        );\n\n        // If gas fee being reimbursed\n        if (_isGasFee) {\n            (gasReceipt, transferData) = abi.decode(signedData, (GasReceipt, bytes));\n\n            // Update balances\n            _safeBatchTransferFrom(_from, _to, _ids, _amounts);\n\n            // Check if recipient is contract\n            if (_to.isContract()) {\n                // We need to somewhat protect operators against gas griefing attacks in recipient contract.\n                // Hence we only pass the gasLimit to the recipient such that the validator knows the griefing\n                // limit. Nothing can prevent the receiver to revert the transaction as close to the gasLimit as\n                // possible, but the operator can now only accept meta-transaction gasLimit within a certain range.\n                bytes4 retval = IERC1155TokenReceiver(_to).onERC1155BatchReceived.gas(gasReceipt.gasLimit)(msg.sender, _from, _ids, _amounts, transferData);\n                require(retval == ERC1155_BATCH_RECEIVED_VALUE, \"ERC1155MetaMixedFungible#metaSafeBatchTransferFrom: INVALID_ON_RECEIVE_MESSAGE\");\n            }\n\n            // Handle gas reimbursement\n            _transferGasFee(_from, startGas, gasReceipt);\n\n        } else {\n            _safeBatchTransferFrom(_from, _to, _ids, _amounts);\n            _callonERC1155BatchReceived(_from, _to, _ids, _amounts, signedData);\n        }\n    }\n\n\n    /***********************************|\n    |         Operator Functions        |\n    |__________________________________*/\n\n    /**\n     * @notice Approve the passed address to spend on behalf of _from if valid signature is provided\n     * @param _owner     Address that wants to set operator status  _spender\n     * @param _operator  Address to add to the set of authorized operators\n     * @param _approved  True if the operator is approved, false to revoke approval\n     * @param _isGasFee  Whether gas will be reimbursed or not, with vlid signature\n     * @param _data      Encodes signature and gas payment receipt\n     *   _data should be encoded as (\n     *     (bytes32 r, bytes32 s, uint8 v, uint256 nonce, SignatureType sigType),\n     *     (GasReceipt g)\n     *   )\n     *   i.e. high level encoding should be (bytes, bytes), where the latter bytes array is a nested bytes array\n     */\n    function metaSetApprovalForAll(\n        address _owner,\n        address _operator,\n        bool _approved,\n        bool _isGasFee,\n        bytes memory _data)\n    public\n    {\n        // Starting gas amount\n        uint256 startGas = gasleft();\n\n        // Verify signature and extract the signed data\n        bytes memory signedData = _signatureValidation(\n            _owner,\n            _data,\n            abi.encodePacked(\n                META_APPROVAL_TYPEHASH,\n                uint256(_owner),                    // Address as uint256\n                uint256(_operator),                 // Address as uint256\n                _approved ? uint256(1) : uint256(0) // Boolean as uint256\n            )\n        );\n\n        // Update operator status\n        operators[_owner][_operator] = _approved;\n\n        // Emit event\n        emit ApprovalForAll(_owner, _operator, _approved);\n\n        // Handle gas reimbursement\n        if (_isGasFee) {\n            GasReceipt memory gasReceipt = abi.decode(signedData, (GasReceipt));\n            _transferGasFee(_owner, startGas, gasReceipt);\n        }\n    }\n\n\n    /****************************************|\n    |      Signture Validation Functions     |\n    |_______________________________________*/\n\n    // keccak256(\n    //   \"metaSafeTransferFrom(address _from,address _to,uint256 _id,uint256 _amount,uint256 nonce,bytes signedData)\"\n    // );\n    bytes32 internal constant META_TX_TYPEHASH = 0xda41aee141786e5a994acb21bcafccf68ed6e07786cb44008c785a06f2819038;\n\n    // keccak256(\n    //   \"metaSafeBatchTransferFrom(address _from,address _to,uint256[] _ids,uint256[] _amounts,uint256 nonce,bytes signedData)\"\n    // );\n    bytes32 internal constant META_BATCH_TX_TYPEHASH = 0xa358be8ef28a8eef7877f5d78ce30ff1cada344474e3d550ee9f4be9151f84f7;\n\n    // keccak256(\n    //   \"metaSetApprovalForAll(address _owner,address _operator,bool _approved,uint256 nonce,bytes signedData)\"\n    // );\n    bytes32 internal constant META_APPROVAL_TYPEHASH = 0xd72d507eb90d918a375b250ea7bfc291be59526e94e2baa2fe3b35daa72a0b15;\n\n    /**\n     * @notice Verifies signatures for this contract\n     * @param _signer     Address of signer\n     * @param _sigData    Encodes signature, gas payment receipt and transfer data (if any)\n     * @param _encMembers Encoded EIP-712 type members (except nonce and _data), all need to be 32 bytes size\n     * @dev _data should be encoded as (\n     *   (bytes32 r, bytes32 s, uint8 v, uint256 nonce, SignatureType sigType),\n     *   (GasReceipt g, ?bytes transferData)\n     * )\n     *   i.e. high level encoding svhould be (bytes, bytes), where the latter bytes array is a nested bytes array\n     */\n    function _signatureValidation(\n        address _signer,\n        bytes memory _sigData,\n        bytes memory _encMembers)\n    internal returns (bytes memory signedData)\n    {\n        bytes memory sig;\n\n        // Get signature and data to sign\n        (sig, signedData) = abi.decode(_sigData, (bytes, bytes));\n\n        // Get current nonce and nonce used for signature\n        uint256 currentNonce = nonces[_signer];        // Lowest valid nonce for signer\n        uint256 nonce = uint256(sig.readBytes32(65));  // Nonce passed in the signature object\n\n        // Verify if nonce is valid\n        require(\n            (nonce >= currentNonce) && (nonce < (currentNonce + 100)),\n            \"ERC1155MetaMixedFungible#_signatureValidation: INVALID_NONCE\"\n        );\n\n        // Take hash of bytes arrays\n        bytes32 hash = hashEIP712Message(keccak256(abi.encodePacked(_encMembers, nonce, keccak256(signedData))));\n\n        // Complete data to pass to signer verifier\n        bytes memory fullData = abi.encodePacked(_encMembers, nonce, signedData);\n\n        // Verify if _from is the signer\n        require(isValidSignature(_signer, hash, fullData, sig), \"ERC1155MetaMixedFungible#_signatureValidation: INVALID_SIGNATURE\");\n\n        //Update signature nonce\n        nonces[_signer] = nonce + 1;\n        emit NonceChange(_signer, nonce + 1);\n\n        return signedData;\n    }\n\n    /**\n     * @notice Returns the current nonce associated with a given address\n     * @param _signer Address to query signature nonce for\n     */\n    function getNonce(address _signer)\n    public view returns (uint256 nonce)\n    {\n        return nonces[_signer];\n    }\n\n\n    /***********************************|\n    |    Gas Reimbursement Functions    |\n    |__________________________________*/\n\n    /**\n     * @notice Will reimburse tx.origin or fee recipient for the gas spent execution a transaction\n     *         Can reimbuse in any ERC-20 or ERC-1155 token\n     * @param _from      Address from which the payment will be made from\n     * @param _startGas  The gas amount left when gas counter started\n     * @param _g         GasReceipt object that contains gas reimbursement information\n     */\n    function _transferGasFee(address _from, uint256 _startGas, GasReceipt memory _g)\n    internal\n    {\n        // Pop last byte to get token fee type\n        uint8 feeTokenTypeRaw = uint8(_g.feeTokenData.popLastByte());\n\n        // Ensure valid fee token type\n        require(\n            feeTokenTypeRaw < uint8(FeeTokenType.NTypes),\n            \"ERC1155MetaMixedFungible#_transferGasFee: UNSUPPORTED_TOKEN\"\n        );\n\n        // Convert to FeeTokenType corresponding value\n        FeeTokenType feeTokenType = FeeTokenType(feeTokenTypeRaw);\n\n        // Declarations\n        address tokenAddress;\n        address feeRecipient;\n        uint256 gasUsed;\n        uint256 tokenID;\n        uint256 fee;\n\n        // Amount of gas consumed\n        gasUsed = _startGas.sub(gasleft()).add(_g.baseGas);\n\n        // Reimburse up to gasLimit (instead of throwing)\n        fee = gasUsed > _g.gasLimit ? _g.gasLimit.mul(_g.gasPrice) : gasUsed.mul(_g.gasPrice);\n\n        // If receiver is 0x0, then anyone can claim, otherwise, refund addresse provided\n        feeRecipient = _g.feeRecipient == address(0) ? msg.sender : _g.feeRecipient;\n\n        // Fee token is ERC1155\n        if (feeTokenType == FeeTokenType.ERC1155 ) {\n            (tokenAddress, tokenID) = abi.decode(_g.feeTokenData, (address, uint256));\n\n            // Fee is paid from this ERC1155 contract\n            if (tokenAddress == address(this)) {\n                _safeTransferFrom(_from, feeRecipient, tokenID, fee);\n\n                // No need to protect against griefing since recipient contract is most likely the operator\n                _callonERC1155Received(_from, feeRecipient, tokenID, fee, \"\");\n\n                // Fee is paid from another ERC-1155 contract\n            } else {\n                IERC1155(tokenAddress).safeTransferFrom(_from, feeRecipient, tokenID, fee, \"\");\n            }\n\n            // Fee token is ERC20\n        } else {\n            tokenAddress = abi.decode(_g.feeTokenData, (address));\n            require(\n                IERC20(tokenAddress).transferFrom(_from, feeRecipient, fee),\n                \"ERC1155MetaMixedFungible#_transferGasFee: ERC20_TRANSFER_FAILED\"\n            );\n        }\n    }\n}\n",
  "sourcePath": "/Users/robsecord/workspace/Ethereum/ChargedParticles/ChargedParticlesEth/contracts/lib/ERC1155MetaMixedFungible.sol",
  "compiler": {
    "name": "solc",
    "version": "0.5.13+commit.5b0b510c.Emscripten.clang"
  },
  "schemaVersion": "3.0.11",
  "updatedAt": "2020-01-11T08:12:26.655Z",
  "devdoc": {
    "details": "ERC-1155 with native metatransaction methods. These additional functions allow users     to presign function calls and allow third parties to execute these on their behalf * Note: This contract is identical to the ERC1155Meta.sol contract,      except for the ERC1155PackedBalance parent contract.",
    "methods": {
      "getIDBinIndex(uint256)": {
        "params": {
          "_id": "Token id"
        },
        "return": "(Bin number, ID\"s index within that bin)"
      },
      "getNonce(address)": {
        "params": {
          "_signer": "Address to query signature nonce for"
        }
      },
      "getValueInBin(uint256,uint256)": {
        "params": {
          "_binValues": "uint256 containing the balances of IDS_PER_UINT256 ids",
          "_index": "Index at which to retrieve amount"
        },
        "return": "amount at given _index in _bin"
      },
      "isApprovedForAll(address,address)": {
        "params": {
          "_operator": "Address of authorized operator",
          "_owner": "The owner of the Tokens"
        },
        "return": "True if the operator is approved, false if not"
      },
      "isValidSignature(address,bytes32,bytes,bytes)": {
        "details": "Verifies that a hash has been signed by the given signer.",
        "params": {
          "_data": "Full EIP-712 data structure that was hashed and signed",
          "_hash": "Hash of the EIP-712 encoded data",
          "_sig": "Proof that the hash has been signed by signer.     For non wallet signatures, _sig is expected to be an array tightly encoded as     (bytes32 r, bytes32 s, uint8 v, uint256 nonce, SignatureType sigType)",
          "_signerAddress": "Address that should have signed the given hash."
        },
        "return": "True if the address recovered from the provided signature matches the input signer address."
      },
      "metaSafeBatchTransferFrom(address,address,uint256[],uint256[],bool,bytes)": {
        "params": {
          "_amounts": "Transfer amounts per token type",
          "_data": "Encodes a meta transfer indicator, signature, gas payment receipt and extra transfer data  _data should be encoded as (  (bytes32 r, bytes32 s, uint8 v, uint256 nonce, SignatureType sigType),  (GasReceipt g, ?bytes transferData) )  i.e. high level encoding should be (bytes, bytes), where the latter bytes array is a nested bytes array",
          "_from": "Source addresses",
          "_ids": "IDs of each token type",
          "_to": "Target addresses"
        }
      },
      "metaSafeTransferFrom(address,address,uint256,uint256,bool,bytes)": {
        "params": {
          "_amount": "Transfered amount",
          "_data": "Encodes a meta transfer indicator, signature, gas payment receipt and extra transfer data  _data should be encoded as (  (bytes32 r, bytes32 s, uint8 v, uint256 nonce, SignatureType sigType),  (GasReceipt g, ?bytes transferData) )  i.e. high level encoding should be (bytes, bytes), where the latter bytes array is a nested bytes array",
          "_from": "Source address",
          "_id": "ID of the token type",
          "_isGasFee": "Whether gas is reimbursed to executor or not",
          "_to": "Target address"
        }
      },
      "metaSetApprovalForAll(address,address,bool,bool,bytes)": {
        "params": {
          "_approved": "True if the operator is approved, false to revoke approval",
          "_data": "Encodes signature and gas payment receipt  _data should be encoded as (    (bytes32 r, bytes32 s, uint8 v, uint256 nonce, SignatureType sigType),    (GasReceipt g)  )  i.e. high level encoding should be (bytes, bytes), where the latter bytes array is a nested bytes array",
          "_isGasFee": "Whether gas will be reimbursed or not, with vlid signature",
          "_operator": "Address to add to the set of authorized operators",
          "_owner": "Address that wants to set operator status  _spender"
        }
      },
      "safeBatchTransferFrom(address,address,uint256[],uint256[],bytes)": {
        "details": "Arrays should be sorted so that all ids in a same storage slot are adjacent (more efficient)",
        "params": {
          "_amounts": "Transfer amounts per token type",
          "_data": "Additional data with no specified format, sent in call to `_to`",
          "_from": "Source addresses",
          "_ids": "IDs of each token type",
          "_to": "Target addresses"
        }
      },
      "safeTransferFrom(address,address,uint256,uint256,bytes)": {
        "params": {
          "_amount": "Transfered amount",
          "_data": "Additional data with no specified format, sent in call to `_to`",
          "_from": "Source address",
          "_id": "ID of the token type",
          "_to": "Target address"
        }
      },
      "setApprovalForAll(address,bool)": {
        "params": {
          "_approved": "True if the operator is approved, false to revoke approval",
          "_operator": "Address to add to the set of authorized operators"
        }
      },
      "supportsInterface(bytes4)": {
        "params": {
          "_interfaceID": "The interface identifier, as specified in ERC-165"
        },
        "return": "`true` if the contract implements `_interfaceID` and"
      }
    }
  },
  "userdoc": {
    "methods": {
      "getIDBinIndex(uint256)": {
        "notice": "Return the bin number and index within that bin where ID is"
      },
      "getNonce(address)": {
        "notice": "Returns the current nonce associated with a given address"
      },
      "getValueInBin(uint256,uint256)": {
        "notice": "Return amount in _binValues at position _index"
      },
      "isApprovedForAll(address,address)": {
        "notice": "Queries the approval status of an operator for a given owner"
      },
      "metaSafeBatchTransferFrom(address,address,uint256[],uint256[],bool,bytes)": {
        "notice": "Allows anyone with a valid signature to transfer multiple types of tokens on the bahalf of _from"
      },
      "metaSafeTransferFrom(address,address,uint256,uint256,bool,bytes)": {
        "notice": "Allows anyone with a valid signature to transfer _amount amount of a token _id on the bahalf of _from"
      },
      "metaSetApprovalForAll(address,address,bool,bool,bytes)": {
        "notice": "Approve the passed address to spend on behalf of _from if valid signature is provided"
      },
      "safeBatchTransferFrom(address,address,uint256[],uint256[],bytes)": {
        "notice": "Send multiple types of Tokens from the _from address to the _to address (with safety call)"
      },
      "safeTransferFrom(address,address,uint256,uint256,bytes)": {
        "notice": "Transfers amount amount of an _id from the _from address to the _to address specified"
      },
      "setApprovalForAll(address,bool)": {
        "notice": "Enable or disable approval for a third party (\"operator\") to manage all of caller's tokens"
      },
      "supportsInterface(bytes4)": {
        "notice": "Query if a contract implements an interface"
      }
    }
  }
}